{
  "address": "0xCB06dF7F0Be5B8Bb261d294Cf87C794EB9Da85b1",
  "abi": [
    {
      "inputs": [
        {
          "internalType": "contract Mooniswap",
          "name": "_mooniswap",
          "type": "address"
        },
        {
          "internalType": "contract IERC20",
          "name": "_gift",
          "type": "address"
        },
        {
          "internalType": "uint256",
          "name": "_duration",
          "type": "uint256"
        },
        {
          "internalType": "address",
          "name": "_rewardDistribution",
          "type": "address"
        }
      ],
      "stateMutability": "nonpayable",
      "type": "constructor"
    },
    {
      "anonymous": false,
      "inputs": [
        {
          "indexed": true,
          "internalType": "address",
          "name": "user",
          "type": "address"
        },
        {
          "indexed": false,
          "internalType": "uint256",
          "name": "decayPeriod",
          "type": "uint256"
        },
        {
          "indexed": false,
          "internalType": "bool",
          "name": "isDefault",
          "type": "bool"
        },
        {
          "indexed": false,
          "internalType": "uint256",
          "name": "amount",
          "type": "uint256"
        }
      ],
      "name": "DecayPeriodVoteUpdate",
      "type": "event"
    },
    {
      "anonymous": false,
      "inputs": [
        {
          "indexed": true,
          "internalType": "uint256",
          "name": "i",
          "type": "uint256"
        },
        {
          "indexed": false,
          "internalType": "uint256",
          "name": "duration",
          "type": "uint256"
        }
      ],
      "name": "DurationUpdated",
      "type": "event"
    },
    {
      "anonymous": false,
      "inputs": [
        {
          "indexed": true,
          "internalType": "address",
          "name": "user",
          "type": "address"
        },
        {
          "indexed": false,
          "internalType": "uint256",
          "name": "fee",
          "type": "uint256"
        },
        {
          "indexed": false,
          "internalType": "bool",
          "name": "isDefault",
          "type": "bool"
        },
        {
          "indexed": false,
          "internalType": "uint256",
          "name": "amount",
          "type": "uint256"
        }
      ],
      "name": "FeeVoteUpdate",
      "type": "event"
    },
    {
      "anonymous": false,
      "inputs": [
        {
          "indexed": true,
          "internalType": "uint256",
          "name": "i",
          "type": "uint256"
        },
        {
          "indexed": false,
          "internalType": "contract IERC20",
          "name": "gift",
          "type": "address"
        }
      ],
      "name": "NewGift",
      "type": "event"
    },
    {
      "anonymous": false,
      "inputs": [
        {
          "indexed": true,
          "internalType": "address",
          "name": "previousOwner",
          "type": "address"
        },
        {
          "indexed": true,
          "internalType": "address",
          "name": "newOwner",
          "type": "address"
        }
      ],
      "name": "OwnershipTransferred",
      "type": "event"
    },
    {
      "anonymous": false,
      "inputs": [
        {
          "indexed": true,
          "internalType": "uint256",
          "name": "i",
          "type": "uint256"
        },
        {
          "indexed": false,
          "internalType": "uint256",
          "name": "reward",
          "type": "uint256"
        }
      ],
      "name": "RewardAdded",
      "type": "event"
    },
    {
      "anonymous": false,
      "inputs": [
        {
          "indexed": true,
          "internalType": "uint256",
          "name": "i",
          "type": "uint256"
        },
        {
          "indexed": false,
          "internalType": "address",
          "name": "rewardDistribution",
          "type": "address"
        }
      ],
      "name": "RewardDistributionChanged",
      "type": "event"
    },
    {
      "anonymous": false,
      "inputs": [
        {
          "indexed": true,
          "internalType": "uint256",
          "name": "i",
          "type": "uint256"
        },
        {
          "indexed": true,
          "internalType": "address",
          "name": "user",
          "type": "address"
        },
        {
          "indexed": false,
          "internalType": "uint256",
          "name": "reward",
          "type": "uint256"
        }
      ],
      "name": "RewardPaid",
      "type": "event"
    },
    {
      "anonymous": false,
      "inputs": [
        {
          "indexed": true,
          "internalType": "address",
          "name": "user",
          "type": "address"
        },
        {
          "indexed": false,
          "internalType": "uint256",
          "name": "slippageFee",
          "type": "uint256"
        },
        {
          "indexed": false,
          "internalType": "bool",
          "name": "isDefault",
          "type": "bool"
        },
        {
          "indexed": false,
          "internalType": "uint256",
          "name": "amount",
          "type": "uint256"
        }
      ],
      "name": "SlippageFeeVoteUpdate",
      "type": "event"
    },
    {
      "anonymous": false,
      "inputs": [
        {
          "indexed": true,
          "internalType": "address",
          "name": "user",
          "type": "address"
        },
        {
          "indexed": false,
          "internalType": "uint256",
          "name": "amount",
          "type": "uint256"
        }
      ],
      "name": "Staked",
      "type": "event"
    },
    {
      "anonymous": false,
      "inputs": [
        {
          "indexed": true,
          "internalType": "address",
          "name": "from",
          "type": "address"
        },
        {
          "indexed": true,
          "internalType": "address",
          "name": "to",
          "type": "address"
        },
        {
          "indexed": false,
          "internalType": "uint256",
          "name": "value",
          "type": "uint256"
        }
      ],
      "name": "Transfer",
      "type": "event"
    },
    {
      "anonymous": false,
      "inputs": [
        {
          "indexed": true,
          "internalType": "address",
          "name": "user",
          "type": "address"
        },
        {
          "indexed": false,
          "internalType": "uint256",
          "name": "amount",
          "type": "uint256"
        }
      ],
      "name": "Withdrawn",
      "type": "event"
    },
    {
      "inputs": [
        {
          "internalType": "contract IERC20",
          "name": "gift",
          "type": "address"
        },
        {
          "internalType": "uint256",
          "name": "duration",
          "type": "uint256"
        },
        {
          "internalType": "address",
          "name": "rewardDistribution",
          "type": "address"
        }
      ],
      "name": "addGift",
      "outputs": [],
      "stateMutability": "nonpayable",
      "type": "function"
    },
    {
      "inputs": [
        {
          "internalType": "address",
          "name": "account",
          "type": "address"
        }
      ],
      "name": "balanceOf",
      "outputs": [
        {
          "internalType": "uint256",
          "name": "",
          "type": "uint256"
        }
      ],
      "stateMutability": "view",
      "type": "function"
    },
    {
      "inputs": [],
      "name": "decayPeriod",
      "outputs": [
        {
          "internalType": "uint256",
          "name": "",
          "type": "uint256"
        }
      ],
      "stateMutability": "view",
      "type": "function"
    },
    {
      "inputs": [
        {
          "internalType": "uint256",
          "name": "vote",
          "type": "uint256"
        }
      ],
      "name": "decayPeriodVote",
      "outputs": [],
      "stateMutability": "nonpayable",
      "type": "function"
    },
    {
      "inputs": [
        {
          "internalType": "address",
          "name": "user",
          "type": "address"
        }
      ],
      "name": "decayPeriodVotes",
      "outputs": [
        {
          "internalType": "uint256",
          "name": "",
          "type": "uint256"
        }
      ],
      "stateMutability": "view",
      "type": "function"
    },
    {
      "inputs": [],
      "name": "decimals",
      "outputs": [
        {
          "internalType": "uint8",
          "name": "",
          "type": "uint8"
        }
      ],
      "stateMutability": "view",
      "type": "function"
    },
    {
      "inputs": [],
      "name": "discardDecayPeriodVote",
      "outputs": [],
      "stateMutability": "nonpayable",
      "type": "function"
    },
    {
      "inputs": [],
      "name": "discardFeeVote",
      "outputs": [],
      "stateMutability": "nonpayable",
      "type": "function"
    },
    {
      "inputs": [],
      "name": "discardSlippageFeeVote",
      "outputs": [],
      "stateMutability": "nonpayable",
      "type": "function"
    },
    {
      "inputs": [
        {
          "internalType": "uint256",
          "name": "i",
          "type": "uint256"
        },
        {
          "internalType": "address",
          "name": "account",
          "type": "address"
        }
      ],
      "name": "earned",
      "outputs": [
        {
          "internalType": "uint256",
          "name": "",
          "type": "uint256"
        }
      ],
      "stateMutability": "view",
      "type": "function"
    },
    {
      "inputs": [],
      "name": "exit",
      "outputs": [],
      "stateMutability": "nonpayable",
      "type": "function"
    },
    {
      "inputs": [],
      "name": "fee",
      "outputs": [
        {
          "internalType": "uint256",
          "name": "",
          "type": "uint256"
        }
      ],
      "stateMutability": "view",
      "type": "function"
    },
    {
      "inputs": [
        {
          "internalType": "uint256",
          "name": "vote",
          "type": "uint256"
        }
      ],
      "name": "feeVote",
      "outputs": [],
      "stateMutability": "nonpayable",
      "type": "function"
    },
    {
      "inputs": [
        {
          "internalType": "address",
          "name": "user",
          "type": "address"
        }
      ],
      "name": "feeVotes",
      "outputs": [
        {
          "internalType": "uint256",
          "name": "",
          "type": "uint256"
        }
      ],
      "stateMutability": "view",
      "type": "function"
    },
    {
      "inputs": [],
      "name": "getAllRewards",
      "outputs": [],
      "stateMutability": "nonpayable",
      "type": "function"
    },
    {
      "inputs": [
        {
          "internalType": "uint256",
          "name": "i",
          "type": "uint256"
        }
      ],
      "name": "getReward",
      "outputs": [],
      "stateMutability": "nonpayable",
      "type": "function"
    },
    {
      "inputs": [
        {
          "internalType": "uint256",
          "name": "i",
          "type": "uint256"
        }
      ],
      "name": "lastTimeRewardApplicable",
      "outputs": [
        {
          "internalType": "uint256",
          "name": "",
          "type": "uint256"
        }
      ],
      "stateMutability": "view",
      "type": "function"
    },
    {
      "inputs": [],
      "name": "mooniswap",
      "outputs": [
        {
          "internalType": "contract Mooniswap",
          "name": "",
          "type": "address"
        }
      ],
      "stateMutability": "view",
      "type": "function"
    },
    {
      "inputs": [],
      "name": "mooniswapFactoryGovernance",
      "outputs": [
        {
          "internalType": "contract IMooniswapFactoryGovernance",
          "name": "",
          "type": "address"
        }
      ],
      "stateMutability": "view",
      "type": "function"
    },
    {
      "inputs": [],
      "name": "name",
      "outputs": [
        {
          "internalType": "string",
          "name": "",
          "type": "string"
        }
      ],
      "stateMutability": "view",
      "type": "function"
    },
    {
      "inputs": [
        {
          "internalType": "uint256",
          "name": "i",
          "type": "uint256"
        },
        {
          "internalType": "uint256",
          "name": "reward",
          "type": "uint256"
        }
      ],
      "name": "notifyRewardAmount",
      "outputs": [],
      "stateMutability": "nonpayable",
      "type": "function"
    },
    {
      "inputs": [],
      "name": "owner",
      "outputs": [
        {
          "internalType": "address",
          "name": "",
          "type": "address"
        }
      ],
      "stateMutability": "view",
      "type": "function"
    },
    {
      "inputs": [],
      "name": "renounceOwnership",
      "outputs": [],
      "stateMutability": "nonpayable",
      "type": "function"
    },
    {
      "inputs": [
        {
          "internalType": "contract IERC20",
          "name": "token",
          "type": "address"
        },
        {
          "internalType": "uint256",
          "name": "amount",
          "type": "uint256"
        }
      ],
      "name": "rescueFunds",
      "outputs": [],
      "stateMutability": "nonpayable",
      "type": "function"
    },
    {
      "inputs": [
        {
          "internalType": "uint256",
          "name": "i",
          "type": "uint256"
        }
      ],
      "name": "rewardPerToken",
      "outputs": [
        {
          "internalType": "uint256",
          "name": "",
          "type": "uint256"
        }
      ],
      "stateMutability": "view",
      "type": "function"
    },
    {
      "inputs": [
        {
          "internalType": "uint256",
          "name": "i",
          "type": "uint256"
        },
        {
          "internalType": "uint256",
          "name": "_duration",
          "type": "uint256"
        }
      ],
      "name": "setDuration",
      "outputs": [],
      "stateMutability": "nonpayable",
      "type": "function"
    },
    {
      "inputs": [
        {
          "internalType": "uint256",
          "name": "i",
          "type": "uint256"
        },
        {
          "internalType": "address",
          "name": "_rewardDistribution",
          "type": "address"
        }
      ],
      "name": "setRewardDistribution",
      "outputs": [],
      "stateMutability": "nonpayable",
      "type": "function"
    },
    {
      "inputs": [],
      "name": "slippageFee",
      "outputs": [
        {
          "internalType": "uint256",
          "name": "",
          "type": "uint256"
        }
      ],
      "stateMutability": "view",
      "type": "function"
    },
    {
      "inputs": [
        {
          "internalType": "uint256",
          "name": "vote",
          "type": "uint256"
        }
      ],
      "name": "slippageFeeVote",
      "outputs": [],
      "stateMutability": "nonpayable",
      "type": "function"
    },
    {
      "inputs": [
        {
          "internalType": "address",
          "name": "user",
          "type": "address"
        }
      ],
      "name": "slippageFeeVotes",
      "outputs": [
        {
          "internalType": "uint256",
          "name": "",
          "type": "uint256"
        }
      ],
      "stateMutability": "view",
      "type": "function"
    },
    {
      "inputs": [
        {
          "internalType": "uint256",
          "name": "amount",
          "type": "uint256"
        }
      ],
      "name": "stake",
      "outputs": [],
      "stateMutability": "nonpayable",
      "type": "function"
    },
    {
      "inputs": [],
      "name": "symbol",
      "outputs": [
        {
          "internalType": "string",
          "name": "",
          "type": "string"
        }
      ],
      "stateMutability": "view",
      "type": "function"
    },
    {
      "inputs": [
        {
          "internalType": "uint256",
          "name": "",
          "type": "uint256"
        }
      ],
      "name": "tokenRewards",
      "outputs": [
        {
          "internalType": "contract IERC20",
          "name": "gift",
          "type": "address"
        },
        {
          "internalType": "uint256",
          "name": "duration",
          "type": "uint256"
        },
        {
          "internalType": "address",
          "name": "rewardDistribution",
          "type": "address"
        },
        {
          "internalType": "uint256",
          "name": "periodFinish",
          "type": "uint256"
        },
        {
          "internalType": "uint256",
          "name": "rewardRate",
          "type": "uint256"
        },
        {
          "internalType": "uint256",
          "name": "lastUpdateTime",
          "type": "uint256"
        },
        {
          "internalType": "uint256",
          "name": "rewardPerTokenStored",
          "type": "uint256"
        }
      ],
      "stateMutability": "view",
      "type": "function"
    },
    {
      "inputs": [],
      "name": "totalSupply",
      "outputs": [
        {
          "internalType": "uint256",
          "name": "",
          "type": "uint256"
        }
      ],
      "stateMutability": "view",
      "type": "function"
    },
    {
      "inputs": [
        {
          "internalType": "address",
          "name": "newOwner",
          "type": "address"
        }
      ],
      "name": "transferOwnership",
      "outputs": [],
      "stateMutability": "nonpayable",
      "type": "function"
    },
    {
      "inputs": [
        {
          "internalType": "uint256",
          "name": "amount",
          "type": "uint256"
        }
      ],
      "name": "withdraw",
      "outputs": [],
      "stateMutability": "nonpayable",
      "type": "function"
    }
  ],
  "transactionHash": "0x33e277921f7cfd9d97d3422bc9728a7e4a32b5c92e63888c1a72d5f1a0875818",
  "args": [
    "0xe3f6509818ccf031370bB4cb398EB37C21622ac4",
    "0x111111111117dC0aa78b770fA6A738034120C302",
    2419200,
    "0x6C2B100edf5d8474E3A3D458Ae693F24B37D1EF3"
  ],
  "solcInputHash": "e95033e02b0d505c0e5586edfed0ec1d",
  "bytecode": "0x60c06040523480156200001157600080fd5b50604051620039be380380620039be833981810160405260808110156200003757600080fd5b508051602082015160408301516060909301519192909160006200005a62000150565b600080546001600160a01b0319166001600160a01b0383169081178255604051929350917f8be0079c531659141344cd1fd0a4f28419497f9722a3daafe3b4186f6b6457e0908290a350836001600160a01b03166080816001600160a01b031660601b81525050836001600160a01b031663d9a0c2176040518163ffffffff1660e01b815260040160206040518083038186803b158015620000fb57600080fd5b505afa15801562000110573d6000803e3d6000fd5b505050506040513d60208110156200012757600080fd5b505160601b6001600160601b03191660a0526200014683838362000154565b50505050620003d0565b3390565b6200015e62000150565b6001600160a01b031662000171620003c1565b6001600160a01b031614620001cd576040805162461bcd60e51b815260206004820181905260248201527f4f776e61626c653a2063616c6c6572206973206e6f7420746865206f776e6572604482015290519081900360640190fd5b60035460005b81811015620002655760038181548110620001ea57fe5b60009182526020909120600990910201546001600160a01b03868116911614156200025c576040805162461bcd60e51b815260206004820152601560248201527f4769667420697320616c72656164792061646465640000000000000000000000604482015290519081900360640190fd5b600101620001d3565b50600380546001810182556000919091526009027fc2575a0e9e593c00f959f8c92f12db2869c3395a3b0502d05e2516446f71f85b810180546001600160a01b038088166001600160a01b0319928316811784557fc2575a0e9e593c00f959f8c92f12db2869c3395a3b0502d05e2516446f71f85c85018890557fc2575a0e9e593c00f959f8c92f12db2869c3395a3b0502d05e2516446f71f85d9094018054918716919092161790556040805192835251909183917f64cc71b17412354fc7654b3a032c59b8aacbcc955fa02aecfec3be41d7350f249181900360200190a260408051858152905183917ff899c6d536e6cda78c5f4dce43ca0e8c47167deb2875ea8b777f21cc85899b1f919081900360200190a2604080516001600160a01b0385168152905183917f68898541a3500520160dc4a025aaabdb318ec2d614c236a5fb88f523d76a8d8a919081900360200190a25050505050565b6000546001600160a01b031690565b60805160601c60a05160601c61354c620004726000398061091e5280610ae65280611739528061189b5280611a96528061208952806123365280612e4a5280612f62528061307a5250806106aa52806109c05280610b88528061122952806113125280611338528061142a5280611664528061183b52806118c95280611bfb52806123d8528061258e5280612eec5280613004528061311c525061354c6000f3fe608060405234801561001057600080fd5b506004361061025c5760003560e01c8063874c120b11610145578063d9a0c217116100bd578063e9fad8ee1161008c578063eeca156211610071578063eeca15621461065b578063f2fde38b14610678578063f76d13b41461069e5761025c565b8063e9fad8ee14610636578063eaadf8481461063e5761025c565b8063d9a0c217146105ce578063ddca3f43146105d6578063e2b01a5e146105de578063e39c08fc1461060a5761025c565b806395d89b4111610114578063a694fc3a116100f9578063a694fc3a14610558578063a93a085714610575578063cd7ea095146105ab5761025c565b806395d89b411461052a5780639aad141b146105325761025c565b8063874c120b146104d75780638da5cb5b146104f457806393028d83146104fc57806395cad3c7146105045761025c565b8063313ce567116101d85780636669302a116101a7578063715018a61161018c578063715018a61461047d57806378e3214f146104855780637e82a6f3146104b15761025c565b80636669302a1461044f57806370a08231146104575761025c565b8063313ce567146104195780633732b3941461043757806345b35f561461043f57806348d67e1b146104475761025c565b806318160ddd1161022f578063246132f911610214578063246132f9146103b55780632e1a7d4d146103d8578063303bfdae146103f55761025c565b806318160ddd1461037e5780631c4b774b146103985761025c565b806306fdde031461026157806307a80070146102de57806310eee734146102fd57806311212d6614610361575b600080fd5b6102696106a6565b6040805160208082528351818301528351919283929083019185019080838360005b838110156102a357818101518382015260200161028b565b50505050905090810190601f1680156102d05780820380516001836020036101000a031916815260200191505b509250505060405180910390f35b6102fb600480360360208110156102f457600080fd5b5035610881565b005b61031a6004803603602081101561031357600080fd5b50356109f3565b604080516001600160a01b039889168152602081019790975294909616858501526060850192909252608084015260a083015260c082019290925290519081900360e00190f35b6102fb6004803603602081101561037757600080fd5b5035610a4a565b610386610bb8565b60408051918252519081900360200190f35b6102fb600480360360208110156103ae57600080fd5b5035610bbe565b6102fb600480360360408110156103cb57600080fd5b5080359060200135610cff565b6102fb600480360360208110156103ee57600080fd5b5035611103565b6103fd611310565b604080516001600160a01b039092168252519081900360200190f35b610421611334565b6040805160ff9092168252519081900360200190f35b6103866113c0565b6102fb6113c6565b6103866113e9565b6102fb6113ef565b6103866004803603602081101561046d57600080fd5b50356001600160a01b031661145c565b6102fb61147b565b6102fb6004803603604081101561049b57600080fd5b506001600160a01b038135169060200135611546565b610386600480360360208110156104c757600080fd5b50356001600160a01b0316611709565b610386600480360360208110156104ed57600080fd5b5035611769565b6103fd6117f1565b6102fb611800565b6103866004803603602081101561051a57600080fd5b50356001600160a01b031661186b565b6102696118c5565b6103866004803603602081101561054857600080fd5b50356001600160a01b0316611a66565b6102fb6004803603602081101561056e57600080fd5b5035611ac0565b6102fb6004803603606081101561058b57600080fd5b506001600160a01b03813581169160208101359160409091013516611ced565b6102fb600480360360408110156105c157600080fd5b5080359060200135611f5e565b6103fd612087565b6103866120ab565b6102fb600480360360408110156105f457600080fd5b50803590602001356001600160a01b03166120b1565b6103866004803603604081101561062057600080fd5b50803590602001356001600160a01b03166121ae565b6102fb612230565b6102fb6004803603602081101561065457600080fd5b5035612249565b6103866004803603602081101561067157600080fd5b5035612408565b6102fb6004803603602081101561068e57600080fd5b50356001600160a01b0316612432565b6102fb612553565b60607f00000000000000000000000000000000000000000000000000000000000000006001600160a01b03166306fdde036040518163ffffffff1660e01b815260040160006040518083038186803b15801561070157600080fd5b505afa158015610715573d6000803e3d6000fd5b505050506040513d6000823e601f3d908101601f19168201604052602081101561073e57600080fd5b810190808051604051939291908464010000000082111561075e57600080fd5b90830190602082018581111561077357600080fd5b825164010000000081118282018810171561078d57600080fd5b82525081516020918201929091019080838360005b838110156107ba5781810151838201526020016107a2565b50505050905090810190601f1680156107e75780820380516001836020036101000a031916815260200191505b5060405250505060405160200180807f4661726d696e673a20000000000000000000000000000000000000000000000081525060090182805190602001908083835b602083106108485780518252601f199092019160209182019101610829565b6001836020036101000a038019825116818451168082178552505050505050905001915050604051602081830303815290604052905090565b674563918244f400008111156108de576040805162461bcd60e51b815260206004820152601d60248201527f536c6970706167652066656520766f746520697320746f6f2068696768000000604482015290519081900360640190fd5b336000818152600b60209081526040918290208251918201909252905481526109b1919061090b846125be565b6109143361145c565b61091c610bb8565b7f00000000000000000000000000000000000000000000000000000000000000006001600160a01b03166323662bb96040518163ffffffff1660e01b815260040160206040518083038186803b15801561097557600080fd5b505afa158015610989573d6000803e3d6000fd5b505050506040513d602081101561099f57600080fd5b505160089594939291906125dd612630565b6109f060086001600160a01b037f0000000000000000000000000000000000000000000000000000000000000000166307a8007081636669302a61264b565b50565b60038181548110610a0057fe5b600091825260209091206009909102018054600182015460028301546003840154600485015460058601546006909601546001600160a01b03958616975093959490921693909287565b662386f26fc10000811115610aa6576040805162461bcd60e51b815260206004820152601460248201527f46656520766f746520697320746f6f2068696768000000000000000000000000604482015290519081900360640190fd5b33600081815260076020908152604091829020825191820190925290548152610b799190610ad3846125be565b610adc3361145c565b610ae4610bb8565b7f00000000000000000000000000000000000000000000000000000000000000006001600160a01b0316635a6c72d06040518163ffffffff1660e01b815260040160206040518083038186803b158015610b3d57600080fd5b505afa158015610b51573d6000803e3d6000fd5b505050506040513d6020811015610b6757600080fd5b505160049594939291906126fb612630565b6109f060046001600160a01b037f0000000000000000000000000000000000000000000000000000000000000000166311212d66816393028d8361264b565b60015490565b600354339060005b81811015610c5d57600060038281548110610bdd57fe5b90600052602060002090600902019050610bf682611769565b6006820155610c0482612408565b60058201556001600160a01b03841615610c5457610c2282856121ae565b6001600160a01b0385166000908152600883016020908152604080832093909355600684015460078501909152919020555b50600101610bc6565b50600060038481548110610c6d57fe5b60009182526020808320338452600860099093020191820190526040909120549091508015610cf8573360008181526008840160205260408120558254610cc0916001600160a01b03909116908361274e565b604080518281529051339187917f04492fab062412e7e4e5f46c9e919f1640652946a5e163ad6e6c1c03d87954d29181900360200190a35b5050505050565b8160038181548110610d0d57fe5b60009182526020909120600990910201600201546001600160a01b03163314610d6d576040805162461bcd60e51b815260206004820152600d60248201526c1058d8d95cdcc819195b9a5959609a1b604482015290519081900360640190fd5b600354600090815b81811015610e0c57600060038281548110610d8c57fe5b90600052602060002090600902019050610da582611769565b6006820155610db382612408565b60058201556001600160a01b03841615610e0357610dd182856121ae565b6001600160a01b0385166000908152600883016020908152604080832093909355600684015460078501909152919020555b50600101610d75565b50610e21600019670de0b6b3a76400006127ba565b8410610e74576040805162461bcd60e51b815260206004820152600e60248201527f526577617264206f7665726c6f77000000000000000000000000000000000000604482015290519081900360640190fd5b600060038681548110610e8357fe5b9060005260206000209060090201905060008160010154905081600301544210610f105780861015610efc576040805162461bcd60e51b815260206004820152601360248201527f52657761726420697320746f6f20736d616c6c00000000000000000000000000604482015290519081900360640190fd5b610f0686826127ba565b6004830155610fb9565b6003820154600090610f229042612821565b90506000610f3d84600401548361287e90919063ffffffff16565b905082610f4a89836128d7565b1015610f9d576040805162461bcd60e51b815260206004820152601360248201527f52657761726420697320746f6f20736d616c6c00000000000000000000000000604482015290519081900360640190fd5b610fb183610fab8a846128d7565b906127ba565b600485015550505b8154604080517f70a0823100000000000000000000000000000000000000000000000000000000815230600482015290516000926001600160a01b0316916370a08231916024808301926020929190829003018186803b15801561101c57600080fd5b505afa158015611030573d6000803e3d6000fd5b505050506040513d602081101561104657600080fd5b5051905061105481836127ba565b836004015411156110ac576040805162461bcd60e51b815260206004820152601160248201527f52657761726420697320746f6f20626967000000000000000000000000000000604482015290519081900360640190fd5b42600584018190556110be90836128d7565b600384015560408051888152905189917f6c07ee05dcf262f13abf9d87b846ee789d2f90fe991d495acd7d7fc109ee1f55919081900360200190a25050505050505050565b600354339060005b818110156111a25760006003828154811061112257fe5b9060005260206000209060090201905061113b82611769565b600682015561114982612408565b60058201556001600160a01b038416156111995761116782856121ae565b6001600160a01b0385166000908152600883016020908152604080832093909355600684015460078501909152919020555b5060010161110b565b50600083116111f8576040805162461bcd60e51b815260206004820152601160248201527f43616e6e6f742077697468647261772030000000000000000000000000000000604482015290519081900360640190fd5b6112023384612931565b6040805163a9059cbb60e01b81523360048201526024810185905290516001600160a01b037f0000000000000000000000000000000000000000000000000000000000000000169163a9059cbb9160448083019260209291908290030181600087803b15801561127157600080fd5b505af1158015611285573d6000803e3d6000fd5b505050506040513d602081101561129b57600080fd5b505060408051848152905133917f7084f5476618d8e60b11ef0d7d3f06914655adb8793e28ff7f018d4c76d505d5919081900360200190a260408051848152905160009133917fddf252ad1be2c89b69c2b068fc378daa952ba7f163c4a11628f55a4df523b3ef9181900360200190a3505050565b7f000000000000000000000000000000000000000000000000000000000000000081565b60007f00000000000000000000000000000000000000000000000000000000000000006001600160a01b031663313ce5676040518163ffffffff1660e01b815260040160206040518083038186803b15801561138f57600080fd5b505afa1580156113a3573d6000803e3d6000fd5b505050506040513d60208110156113b957600080fd5b5051905090565b60085490565b60035460005b818110156113e5576113dd81610bbe565b6001016113cc565b5050565b600c5490565b336000818152600b602090815260409182902082519182019092529054815261141b919061090b612964565b61145a60086001600160a01b037f0000000000000000000000000000000000000000000000000000000000000000166307a8007081636669302a61264b565b565b6001600160a01b0381166000908152600260205260409020545b919050565b61148361297f565b6001600160a01b03166114946117f1565b6001600160a01b0316146114ef576040805162461bcd60e51b815260206004820181905260248201527f4f776e61626c653a2063616c6c6572206973206e6f7420746865206f776e6572604482015290519081900360640190fd5b600080546040516001600160a01b03909116907f8be0079c531659141344cd1fd0a4f28419497f9722a3daafe3b4186f6b6457e0908390a36000805473ffffffffffffffffffffffffffffffffffffffff19169055565b61154e61297f565b6001600160a01b031661155f6117f1565b6001600160a01b0316146115ba576040805162461bcd60e51b815260206004820181905260248201527f4f776e61626c653a2063616c6c6572206973206e6f7420746865206f776e6572604482015290519081900360640190fd5b60005b60035481101561164d57600381815481106115d457fe5b60009182526020909120600990910201546001600160a01b0384811691161415611645576040805162461bcd60e51b815260206004820152601160248201527f43616e2774207265736375652067696674000000000000000000000000000000604482015290519081900360640190fd5b6001016115bd565b506116626001600160a01b0383163383612983565b7f00000000000000000000000000000000000000000000000000000000000000006001600160a01b0316826001600160a01b031614156113e5576116a4610bb8565b6116b76001600160a01b038416306129e7565b146113e5576040805162461bcd60e51b815260206004820152601c60248201527f43616e2774207769746864726177207374616b656420746f6b656e7300000000604482015290519081900360640190fd5b6001600160a01b038181166000908152600f602090815260408083208151928301909152548152909161176391907f000000000000000000000000000000000000000000000000000000000000000016631845f0db612a88565b92915050565b6000806003838154811061177957fe5b90600052602060002090600902019050611791610bb8565b6117a057600601549050611476565b6117ea6117df6117ae610bb8565b610fab670de0b6b3a76400006117d986600401546117d988600501546117d38c612408565b90612821565b9061287e565b6006830154906128d7565b9392505050565b6000546001600160a01b031690565b3360008181526007602090815260409182902082519182019092529054815261182c9190610ad3612964565b61145a60046001600160a01b037f0000000000000000000000000000000000000000000000000000000000000000166311212d66816393028d8361264b565b6001600160a01b038181166000908152600b602090815260408083208151928301909152548152909161176391907f0000000000000000000000000000000000000000000000000000000000000000166323662bb9612a88565b60607f00000000000000000000000000000000000000000000000000000000000000006001600160a01b03166395d89b416040518163ffffffff1660e01b815260040160006040518083038186803b15801561192057600080fd5b505afa158015611934573d6000803e3d6000fd5b505050506040513d6000823e601f3d908101601f19168201604052602081101561195d57600080fd5b810190808051604051939291908464010000000082111561197d57600080fd5b90830190602082018581111561199257600080fd5b82516401000000008111828201881017156119ac57600080fd5b82525081516020918201929091019080838360005b838110156119d95781810151838201526020016119c1565b50505050905090810190601f168015611a065780820380516001836020036101000a031916815260200191505b5060405250505060405160200180807f6661726d2d0000000000000000000000000000000000000000000000000000008152506005018280519060200190808383602083106108485780518252601f199092019160209182019101610829565b6001600160a01b0381811660009081526007602090815260408083208151928301909152548152909161176391907f000000000000000000000000000000000000000000000000000000000000000016635a6c72d0612a88565b600354339060005b81811015611b5f57600060038281548110611adf57fe5b90600052602060002090600902019050611af882611769565b6006820155611b0682612408565b60058201556001600160a01b03841615611b5657611b2482856121ae565b6001600160a01b0385166000908152600883016020908152604080832093909355600684015460078501909152919020555b50600101611ac8565b5060008311611bb5576040805162461bcd60e51b815260206004820152600e60248201527f43616e6e6f74207374616b652030000000000000000000000000000000000000604482015290519081900360640190fd5b604080517f23b872dd0000000000000000000000000000000000000000000000000000000081523360048201523060248201526044810185905290516001600160a01b037f000000000000000000000000000000000000000000000000000000000000000016916323b872dd9160648083019260209291908290030181600087803b158015611c4357600080fd5b505af1158015611c57573d6000803e3d6000fd5b505050506040513d6020811015611c6d57600080fd5b50611c7a90503384612afe565b60408051848152905133917f9e71bc8eea02a63969f509818f2dafb9254532904319f9dbda79b67bd34a5f3d919081900360200190a260408051848152905133916000917fddf252ad1be2c89b69c2b068fc378daa952ba7f163c4a11628f55a4df523b3ef9181900360200190a3505050565b611cf561297f565b6001600160a01b0316611d066117f1565b6001600160a01b031614611d61576040805162461bcd60e51b815260206004820181905260248201527f4f776e61626c653a2063616c6c6572206973206e6f7420746865206f776e6572604482015290519081900360640190fd5b60035460005b81811015611df55760038181548110611d7c57fe5b60009182526020909120600990910201546001600160a01b0386811691161415611ded576040805162461bcd60e51b815260206004820152601560248201527f4769667420697320616c72656164792061646465640000000000000000000000604482015290519081900360640190fd5b600101611d67565b50600380546001810182556000919091526009027fc2575a0e9e593c00f959f8c92f12db2869c3395a3b0502d05e2516446f71f85b810180546001600160a01b0380881673ffffffffffffffffffffffffffffffffffffffff19928316811784557fc2575a0e9e593c00f959f8c92f12db2869c3395a3b0502d05e2516446f71f85c85018890557fc2575a0e9e593c00f959f8c92f12db2869c3395a3b0502d05e2516446f71f85d9094018054918716919092161790556040805192835251909183917f64cc71b17412354fc7654b3a032c59b8aacbcc955fa02aecfec3be41d7350f249181900360200190a260408051858152905183917ff899c6d536e6cda78c5f4dce43ca0e8c47167deb2875ea8b777f21cc85899b1f919081900360200190a2604080516001600160a01b0385168152905183917f68898541a3500520160dc4a025aaabdb318ec2d614c236a5fb88f523d76a8d8a919081900360200190a25050505050565b8160038181548110611f6c57fe5b60009182526020909120600990910201600201546001600160a01b03163314611fcc576040805162461bcd60e51b815260206004820152600d60248201526c1058d8d95cdcc819195b9a5959609a1b604482015290519081900360640190fd5b600060038481548110611fdb57fe5b906000526020600020906009020190508060030154421015612044576040805162461bcd60e51b815260206004820152601060248201527f4e6f742066696e69736865642079657400000000000000000000000000000000604482015290519081900360640190fd5b6001810183905560408051848152905185917ff899c6d536e6cda78c5f4dce43ca0e8c47167deb2875ea8b777f21cc85899b1f919081900360200190a250505050565b7f000000000000000000000000000000000000000000000000000000000000000081565b60045490565b6120b961297f565b6001600160a01b03166120ca6117f1565b6001600160a01b031614612125576040805162461bcd60e51b815260206004820181905260248201527f4f776e61626c653a2063616c6c6572206973206e6f7420746865206f776e6572604482015290519081900360640190fd5b60006003838154811061213457fe5b60009182526020918290206009919091020160028101805473ffffffffffffffffffffffffffffffffffffffff19166001600160a01b038616908117909155604080519182525191935085927f68898541a3500520160dc4a025aaabdb318ec2d614c236a5fb88f523d76a8d8a92918290030190a2505050565b600080600384815481106121be57fe5b600091825260208083206001600160a01b0387168452600860099093020191820181526040808420546007840190925290922054909250612228919061222290670de0b6b3a764000090610fab90612219906117d38b611769565b6117d98961145c565b906128d7565b949350505050565b61224161223c3361145c565b611103565b61145a6113c6565b61012c8111156122a0576040805162461bcd60e51b815260206004820152601d60248201527f446563617920706572696f6420766f746520697320746f6f2068696768000000604482015290519081900360640190fd5b600a8110156122f6576040805162461bcd60e51b815260206004820152601c60248201527f446563617920706572696f6420766f746520697320746f6f206c6f7700000000604482015290519081900360640190fd5b336000818152600f60209081526040918290208251918201909252905481526123c99190612323846125be565b61232c3361145c565b612334610bb8565b7f00000000000000000000000000000000000000000000000000000000000000006001600160a01b0316631845f0db6040518163ffffffff1660e01b815260040160206040518083038186803b15801561238d57600080fd5b505afa1580156123a1573d6000803e3d6000fd5b505050506040513d60208110156123b757600080fd5b5051600c959493929190612b23612630565b6109f0600c6001600160a01b037f00000000000000000000000000000000000000000000000000000000000000001663eaadf8488163f76d13b461264b565b6000611763426003848154811061241b57fe5b906000526020600020906009020160030154612b76565b61243a61297f565b6001600160a01b031661244b6117f1565b6001600160a01b0316146124a6576040805162461bcd60e51b815260206004820181905260248201527f4f776e61626c653a2063616c6c6572206973206e6f7420746865206f776e6572604482015290519081900360640190fd5b6001600160a01b0381166124eb5760405162461bcd60e51b81526004018080602001828103825260268152602001806134806026913960400191505060405180910390fd5b600080546040516001600160a01b03808516939216917f8be0079c531659141344cd1fd0a4f28419497f9722a3daafe3b4186f6b6457e091a36000805473ffffffffffffffffffffffffffffffffffffffff19166001600160a01b0392909216919091179055565b336000818152600f602090815260409182902082519182019092529054815261257f9190612323612964565b61145a600c6001600160a01b037f00000000000000000000000000000000000000000000000000000000000000001663eaadf8488163f76d13b461264b565b6125c661346c565b506040805160208101909152600182018152919050565b60408051848152831515602082015280820183905290516001600160a01b038616917fce0cf859d853e1944032294143a1bf3ad799998ae77acbeb6c4d9b20d6910240919081900360600190a250505050565b612641888888888889898989612b8c565b5050505050505050565b600185015461269f5781816040518163ffffffff1660e01b8152600401600060405180830381600087803b15801561268257600080fd5b505af1158015612696573d6000803e3d6000fd5b50505050610cf8565b838386600001546040518263ffffffff1660e01b815260040180828152602001915050600060405180830381600087803b1580156126dc57600080fd5b505af11580156126f0573d6000803e3d6000fd5b505050505050505050565b60408051848152831515602082015280820183905290516001600160a01b038616917fe117cae46817b894b41a4412b73ae0ba746a5707b94e02d83b4c6502010b11ac919081900360600190a250505050565b604080516001600160a01b038416602482015260448082018490528251808303909101815260649091019091526020810180517bffffffffffffffffffffffffffffffffffffffffffffffffffffffff1663a9059cbb60e01b1790526127b5908490612ccb565b505050565b6000808211612810576040805162461bcd60e51b815260206004820152601a60248201527f536166654d6174683a206469766973696f6e206279207a65726f000000000000604482015290519081900360640190fd5b81838161281957fe5b049392505050565b600082821115612878576040805162461bcd60e51b815260206004820152601e60248201527f536166654d6174683a207375627472616374696f6e206f766572666c6f770000604482015290519081900360640190fd5b50900390565b60008261288d57506000611763565b8282028284828161289a57fe5b04146117ea5760405162461bcd60e51b81526004018080602001828103825260218152602001806134cc6021913960400191505060405180910390fd5b6000828201838110156117ea576040805162461bcd60e51b815260206004820152601b60248201527f536166654d6174683a206164646974696f6e206f766572666c6f770000000000604482015290519081900360640190fd5b61293b8282612d7c565b60006129468361145c565b90506127b58361295683856128d7565b8361295f610bb8565b612e04565b61296c61346c565b5060408051602081019091526000815290565b3390565b80156127b55761299283613152565b156129d3576040516001600160a01b0383169082156108fc029083906000818181858888f193505050501580156129cd573d6000803e3d6000fd5b506127b5565b6127b56001600160a01b038416838361274e565b60006129f283613152565b15612a0857506001600160a01b03811631611763565b826001600160a01b03166370a08231836040518263ffffffff1660e01b815260040180826001600160a01b0316815260200191505060206040518083038186803b158015612a5557600080fd5b505afa158015612a69573d6000803e3d6000fd5b505050506040513d6020811015612a7f57600080fd5b50519050611763565b825160009015612a9e57508251600019016117ea565b82826040518163ffffffff1660e01b815260040160206040518083038186803b158015612aca57600080fd5b505afa158015612ade573d6000803e3d6000fd5b505050506040513d6020811015612af457600080fd5b5051949350505050565b612b08828261315f565b6000612b138361145c565b90506127b5836129568385612821565b60408051848152831515602082015280820183905290516001600160a01b038616917fd0784d105a7412ffec29813ff8401f04f3d1cdbe6aca756974b1a31f830e5cb7919081900360600190a250505050565b6000818310612b8557816117ea565b5090919050565b600189015460028a0154819080612ba28b6131b2565b15612bb857612bb1818a612821565b9050612bd9565b612bd6612bcf612bc88d896131b7565b8b9061287e565b8490612821565b92505b612be28a6131b2565b15612bf857612bf181896128d7565b9050612c19565b612c16612c0f612c088c896131b7565b8a9061287e565b84906128d7565b92505b838314612c285760018d018390555b818114612c375760028d018190555b60008715612c5c57612c5788610fab612c50858b61287e565b87906128d7565b612c5e565b865b8e549091508114612c6d57808e555b612c778b8d6131d3565b612c9a576001600160a01b038d16600090815260038f01602052604090208b5190555b612cbb8d612ca88d8a6131b7565b612cb18e6131b2565b8c8a63ffffffff16565b5050505050505050505050505050565b6060612d20826040518060400160405280602081526020017f5361666545524332303a206c6f772d6c6576656c2063616c6c206661696c6564815250856001600160a01b03166131da9092919063ffffffff16565b8051909150156127b557808060200190516020811015612d3f57600080fd5b50516127b55760405162461bcd60e51b815260040180806020018281038252602a8152602001806134ed602a913960400191505060405180910390fd5b604080518082018252601b81527f4275726e20616d6f756e7420657863656564732062616c616e636500000000006020808301919091526001600160a01b038516600090815260029091529190912054612dd79183906131e9565b6001600160a01b038316600090815260026020526040902055600154612dfd9082612821565b6001555050565b612edd8460046003016000876001600160a01b03166001600160a01b031681526020019081526020016000206040518060200160405290816000820154815250508585857f00000000000000000000000000000000000000000000000000000000000000006001600160a01b0316635a6c72d06040518163ffffffff1660e01b815260040160206040518083038186803b158015612ea157600080fd5b505afa158015612eb5573d6000803e3d6000fd5b505050506040513d6020811015612ecb57600080fd5b505160049594939291906126fb613280565b612f1c60046001600160a01b037f0000000000000000000000000000000000000000000000000000000000000000166311212d66816393028d8361264b565b612ff58460086003016000876001600160a01b03166001600160a01b031681526020019081526020016000206040518060200160405290816000820154815250508585857f00000000000000000000000000000000000000000000000000000000000000006001600160a01b03166323662bb96040518163ffffffff1660e01b815260040160206040518083038186803b158015612fb957600080fd5b505afa158015612fcd573d6000803e3d6000fd5b505050506040513d6020811015612fe357600080fd5b505160089594939291906125dd613280565b61303460086001600160a01b037f0000000000000000000000000000000000000000000000000000000000000000166307a8007081636669302a61264b565b61310d84600c6003016000876001600160a01b03166001600160a01b031681526020019081526020016000206040518060200160405290816000820154815250508585857f00000000000000000000000000000000000000000000000000000000000000006001600160a01b0316631845f0db6040518163ffffffff1660e01b815260040160206040518083038186803b1580156130d157600080fd5b505afa1580156130e5573d6000803e3d6000fd5b505050506040513d60208110156130fb57600080fd5b5051600c959493929190612b23613280565b61314c600c6001600160a01b037f00000000000000000000000000000000000000000000000000000000000000001663eaadf8488163f76d13b461264b565b50505050565b6001600160a01b03161590565b60015461316c90826128d7565b6001556001600160a01b03821660009081526002602052604090205461319290826128d7565b6001600160a01b0390921660009081526002602052604090209190915550565b511590565b8151600090156131cd5750815160001901611763565b50919050565b5190511490565b606061222884846000856132a4565b600081848411156132785760405162461bcd60e51b81526004018080602001828103825283818151815260200191508051906020019080838360005b8381101561323d578181015183820152602001613225565b50505050905090810190601f16801561326a5780820380516001836020036101000a031916815260200191505b509250505060405180910390fd5b505050900390565b6126418888888715613292578961329a565b61329a612964565b8989898989612b8c565b6060824710156132e55760405162461bcd60e51b81526004018080602001828103825260268152602001806134a66026913960400191505060405180910390fd5b6132ee85613400565b61333f576040805162461bcd60e51b815260206004820152601d60248201527f416464726573733a2063616c6c20746f206e6f6e2d636f6e7472616374000000604482015290519081900360640190fd5b60006060866001600160a01b031685876040518082805190602001908083835b6020831061337e5780518252601f19909201916020918201910161335f565b6001836020036101000a03801982511681845116808217855250505050505090500191505060006040518083038185875af1925050503d80600081146133e0576040519150601f19603f3d011682016040523d82523d6000602084013e6133e5565b606091505b50915091506133f5828286613406565b979650505050505050565b3b151590565b606083156134155750816117ea565b8251156134255782518084602001fd5b60405162461bcd60e51b815260206004820181815284516024840152845185939192839260440191908501908083836000831561323d578181015183820152602001613225565b604051806020016040528060008152509056fe4f776e61626c653a206e6577206f776e657220697320746865207a65726f2061646472657373416464726573733a20696e73756666696369656e742062616c616e636520666f722063616c6c536166654d6174683a206d756c7469706c69636174696f6e206f766572666c6f775361666545524332303a204552433230206f7065726174696f6e20646964206e6f742073756363656564a2646970667358221220552cffe46e8721df67caf2b0fde8f72e6961d83b357ca90a8b3e6046ea61b7ef64736f6c634300060c0033",
  "devdoc": {
    "kind": "dev",
    "methods": {
      "owner()": {
        "details": "Returns the address of the current owner."
      },
      "renounceOwnership()": {
        "details": "Leaves the contract without owner. It will not be possible to call `onlyOwner` functions anymore. Can only be called by the current owner. NOTE: Renouncing ownership will leave the contract without an owner, thereby removing any functionality that is only available to the owner."
      },
      "transferOwnership(address)": {
        "details": "Transfers ownership of the contract to a new account (`newOwner`). Can only be called by the current owner."
      }
    },
    "version": 1
  },
  "userdoc": {
    "kind": "user",
    "methods": {},
    "version": 1
  },
  "storageLayout": {
    "storage": [
      {
        "astId": 7,
        "contract": "contracts/inch/farming/FarmingRewards.sol:FarmingRewards",
        "label": "_owner",
        "offset": 0,
        "slot": "0",
        "type": "t_address"
      },
      {
        "astId": 10253,
        "contract": "contracts/inch/farming/FarmingRewards.sol:FarmingRewards",
        "label": "_totalSupply",
        "offset": 0,
        "slot": "1",
        "type": "t_uint256"
      },
      {
        "astId": 10257,
        "contract": "contracts/inch/farming/FarmingRewards.sol:FarmingRewards",
        "label": "_balances",
        "offset": 0,
        "slot": "2",
        "type": "t_mapping(t_address,t_uint256)"
      },
      {
        "astId": 10440,
        "contract": "contracts/inch/farming/FarmingRewards.sol:FarmingRewards",
        "label": "tokenRewards",
        "offset": 0,
        "slot": "3",
        "type": "t_array(t_struct(TokenRewards)10437_storage)dyn_storage"
      },
      {
        "astId": 7055,
        "contract": "contracts/inch/farming/FarmingRewards.sol:FarmingRewards",
        "label": "_fee",
        "offset": 0,
        "slot": "4",
        "type": "t_struct(Data)9889_storage"
      },
      {
        "astId": 7057,
        "contract": "contracts/inch/farming/FarmingRewards.sol:FarmingRewards",
        "label": "_slippageFee",
        "offset": 0,
        "slot": "8",
        "type": "t_struct(Data)9889_storage"
      },
      {
        "astId": 7059,
        "contract": "contracts/inch/farming/FarmingRewards.sol:FarmingRewards",
        "label": "_decayPeriod",
        "offset": 0,
        "slot": "12",
        "type": "t_struct(Data)9889_storage"
      }
    ],
    "types": {
      "t_address": {
        "encoding": "inplace",
        "label": "address",
        "numberOfBytes": "20"
      },
      "t_array(t_struct(TokenRewards)10437_storage)dyn_storage": {
        "base": "t_struct(TokenRewards)10437_storage",
        "encoding": "dynamic_array",
        "label": "struct BaseRewards.TokenRewards[]",
        "numberOfBytes": "32"
      },
      "t_contract(IERC20)1118": {
        "encoding": "inplace",
        "label": "contract IERC20",
        "numberOfBytes": "20"
      },
      "t_mapping(t_address,t_struct(Data)9760_storage)": {
        "encoding": "mapping",
        "key": "t_address",
        "label": "mapping(address => struct Vote.Data)",
        "numberOfBytes": "32",
        "value": "t_struct(Data)9760_storage"
      },
      "t_mapping(t_address,t_uint256)": {
        "encoding": "mapping",
        "key": "t_address",
        "label": "mapping(address => uint256)",
        "numberOfBytes": "32",
        "value": "t_uint256"
      },
      "t_struct(Data)9760_storage": {
        "encoding": "inplace",
        "label": "struct Vote.Data",
        "members": [
          {
            "astId": 9759,
            "contract": "contracts/inch/farming/FarmingRewards.sol:FarmingRewards",
            "label": "value",
            "offset": 0,
            "slot": "0",
            "type": "t_uint256"
          }
        ],
        "numberOfBytes": "32"
      },
      "t_struct(Data)9889_storage": {
        "encoding": "inplace",
        "label": "struct Voting.Data",
        "members": [
          {
            "astId": 9880,
            "contract": "contracts/inch/farming/FarmingRewards.sol:FarmingRewards",
            "label": "result",
            "offset": 0,
            "slot": "0",
            "type": "t_uint256"
          },
          {
            "astId": 9882,
            "contract": "contracts/inch/farming/FarmingRewards.sol:FarmingRewards",
            "label": "_weightedSum",
            "offset": 0,
            "slot": "1",
            "type": "t_uint256"
          },
          {
            "astId": 9884,
            "contract": "contracts/inch/farming/FarmingRewards.sol:FarmingRewards",
            "label": "_defaultVotes",
            "offset": 0,
            "slot": "2",
            "type": "t_uint256"
          },
          {
            "astId": 9888,
            "contract": "contracts/inch/farming/FarmingRewards.sol:FarmingRewards",
            "label": "votes",
            "offset": 0,
            "slot": "3",
            "type": "t_mapping(t_address,t_struct(Data)9760_storage)"
          }
        ],
        "numberOfBytes": "128"
      },
      "t_struct(TokenRewards)10437_storage": {
        "encoding": "inplace",
        "label": "struct BaseRewards.TokenRewards",
        "members": [
          {
            "astId": 10416,
            "contract": "contracts/inch/farming/FarmingRewards.sol:FarmingRewards",
            "label": "gift",
            "offset": 0,
            "slot": "0",
            "type": "t_contract(IERC20)1118"
          },
          {
            "astId": 10418,
            "contract": "contracts/inch/farming/FarmingRewards.sol:FarmingRewards",
            "label": "duration",
            "offset": 0,
            "slot": "1",
            "type": "t_uint256"
          },
          {
            "astId": 10420,
            "contract": "contracts/inch/farming/FarmingRewards.sol:FarmingRewards",
            "label": "rewardDistribution",
            "offset": 0,
            "slot": "2",
            "type": "t_address"
          },
          {
            "astId": 10422,
            "contract": "contracts/inch/farming/FarmingRewards.sol:FarmingRewards",
            "label": "periodFinish",
            "offset": 0,
            "slot": "3",
            "type": "t_uint256"
          },
          {
            "astId": 10424,
            "contract": "contracts/inch/farming/FarmingRewards.sol:FarmingRewards",
            "label": "rewardRate",
            "offset": 0,
            "slot": "4",
            "type": "t_uint256"
          },
          {
            "astId": 10426,
            "contract": "contracts/inch/farming/FarmingRewards.sol:FarmingRewards",
            "label": "lastUpdateTime",
            "offset": 0,
            "slot": "5",
            "type": "t_uint256"
          },
          {
            "astId": 10428,
            "contract": "contracts/inch/farming/FarmingRewards.sol:FarmingRewards",
            "label": "rewardPerTokenStored",
            "offset": 0,
            "slot": "6",
            "type": "t_uint256"
          },
          {
            "astId": 10432,
            "contract": "contracts/inch/farming/FarmingRewards.sol:FarmingRewards",
            "label": "userRewardPerTokenPaid",
            "offset": 0,
            "slot": "7",
            "type": "t_mapping(t_address,t_uint256)"
          },
          {
            "astId": 10436,
            "contract": "contracts/inch/farming/FarmingRewards.sol:FarmingRewards",
            "label": "rewards",
            "offset": 0,
            "slot": "8",
            "type": "t_mapping(t_address,t_uint256)"
          }
        ],
        "numberOfBytes": "288"
      },
      "t_uint256": {
        "encoding": "inplace",
        "label": "uint256",
        "numberOfBytes": "32"
      }
    }
  }
}