{
  "contractName": "ExchangeGovernance",
  "abi": [
    {
      "inputs": [
        {
          "internalType": "address",
          "name": "_mothership",
          "type": "address"
        }
      ],
      "stateMutability": "nonpayable",
      "type": "constructor"
    },
    {
      "anonymous": false,
      "inputs": [
        {
          "indexed": true,
          "internalType": "address",
          "name": "user",
          "type": "address"
        },
        {
          "indexed": false,
          "internalType": "uint256",
          "name": "vote",
          "type": "uint256"
        },
        {
          "indexed": false,
          "internalType": "bool",
          "name": "isDefault",
          "type": "bool"
        },
        {
          "indexed": false,
          "internalType": "uint256",
          "name": "amount",
          "type": "uint256"
        }
      ],
      "name": "LeftoverReferralShareUpdate",
      "type": "event"
    },
    {
      "inputs": [
        {
          "internalType": "address",
          "name": "account",
          "type": "address"
        }
      ],
      "name": "balanceOf",
      "outputs": [
        {
          "internalType": "uint256",
          "name": "",
          "type": "uint256"
        }
      ],
      "stateMutability": "view",
      "type": "function"
    },
    {
      "inputs": [],
      "name": "mothership",
      "outputs": [
        {
          "internalType": "address",
          "name": "",
          "type": "address"
        }
      ],
      "stateMutability": "view",
      "type": "function"
    },
    {
      "inputs": [
        {
          "internalType": "address",
          "name": "account",
          "type": "address"
        },
        {
          "internalType": "uint256",
          "name": "newBalance",
          "type": "uint256"
        }
      ],
      "name": "notifyStakeChanged",
      "outputs": [],
      "stateMutability": "nonpayable",
      "type": "function"
    },
    {
      "inputs": [
        {
          "internalType": "address[]",
          "name": "accounts",
          "type": "address[]"
        },
        {
          "internalType": "uint256[]",
          "name": "newBalances",
          "type": "uint256[]"
        }
      ],
      "name": "notifyStakesChanged",
      "outputs": [],
      "stateMutability": "nonpayable",
      "type": "function"
    },
    {
      "inputs": [],
      "name": "totalSupply",
      "outputs": [
        {
          "internalType": "uint256",
          "name": "",
          "type": "uint256"
        }
      ],
      "stateMutability": "view",
      "type": "function"
    },
    {
      "inputs": [],
      "name": "parameters",
      "outputs": [
        {
          "internalType": "uint256",
          "name": "",
          "type": "uint256"
        }
      ],
      "stateMutability": "view",
      "type": "function"
    },
    {
      "inputs": [],
      "name": "leftoverReferralShare",
      "outputs": [
        {
          "internalType": "uint256",
          "name": "",
          "type": "uint256"
        }
      ],
      "stateMutability": "view",
      "type": "function"
    },
    {
      "inputs": [
        {
          "internalType": "address",
          "name": "user",
          "type": "address"
        }
      ],
      "name": "leftoverReferralShareVotes",
      "outputs": [
        {
          "internalType": "uint256",
          "name": "",
          "type": "uint256"
        }
      ],
      "stateMutability": "view",
      "type": "function"
    },
    {
      "inputs": [],
      "name": "virtualLeftoverReferralShare",
      "outputs": [
        {
          "internalType": "uint104",
          "name": "",
          "type": "uint104"
        },
        {
          "internalType": "uint104",
          "name": "",
          "type": "uint104"
        },
        {
          "internalType": "uint48",
          "name": "",
          "type": "uint48"
        }
      ],
      "stateMutability": "view",
      "type": "function"
    },
    {
      "inputs": [
        {
          "internalType": "uint256",
          "name": "vote",
          "type": "uint256"
        }
      ],
      "name": "leftoverReferralShareVote",
      "outputs": [],
      "stateMutability": "nonpayable",
      "type": "function"
    },
    {
      "inputs": [],
      "name": "discardLeftoverReferralShareVote",
      "outputs": [],
      "stateMutability": "nonpayable",
      "type": "function"
    }
  ],
  "bytecode": "0x60a060405234801561001057600080fd5b5060405161125e38038061125e8339818101604052602081101561003357600080fd5b5051606081901b6001600160601b031916608052610063670de0b6b3a7640000610094602090811b6107dc17901c565b600280546001600160681b0392909216600160681b02600160681b600160d01b0319909216919091179055506100f2565b6000600160681b82106100ee576040805162461bcd60e51b815260206004820152601e60248201527f76616c756520646f6573206e6f742066697420696e2031303420626974730000604482015290519081900360640190fd5b5090565b60805160601c6111456101196000398061035a5280610441528061056652506111456000f3fe608060405234801561001057600080fd5b50600436106100c95760003560e01c8063477bff3111610081578063890357301161005b57806389035730146101cf578063ad3333481461020a578063e6ad93c1146102cc576100c9565b8063477bff31146101c75780634aded6ce146101cf57806370a08231146101d7576100c9565b806327a27433116100b257806327a274331461012857806331f866af146101635780634187b7d614610196576100c9565b806310d97a18146100ce57806318160ddd1461010e575b600080fd5b6100d66102e9565b604080516cffffffffffffffffffffffffff948516815292909316602083015265ffffffffffff168183015290519081900360600190f35b61011661033c565b60408051918252519081900360200190f35b6101616004803603604081101561013e57600080fd5b5073ffffffffffffffffffffffffffffffffffffffff8135169060200135610342565b005b6101166004803603602081101561017957600080fd5b503573ffffffffffffffffffffffffffffffffffffffff166103f4565b61019e61043f565b6040805173ffffffffffffffffffffffffffffffffffffffff9092168252519081900360200190f35b610161610463565b6101166104b1565b610116600480360360208110156101ed57600080fd5b503573ffffffffffffffffffffffffffffffffffffffff16610526565b6101616004803603604081101561022057600080fd5b81019060208101813564010000000081111561023b57600080fd5b82018360208201111561024d57600080fd5b8035906020019184602083028401116401000000008311171561026f57600080fd5b91939092909160208101903564010000000081111561028d57600080fd5b82018360208201111561029f57600080fd5b803590602001918460208302840111640100000000831117156102c157600080fd5b50909250905061054e565b610161600480360360208110156102e257600080fd5b50356106be565b6002546cffffffffffffffffffffffffff808216926d01000000000000000000000000008304909116917a010000000000000000000000000000000000000000000000000000900465ffffffffffff1690565b60005490565b3373ffffffffffffffffffffffffffffffffffffffff7f000000000000000000000000000000000000000000000000000000000000000016146103e657604080517f08c379a000000000000000000000000000000000000000000000000000000000815260206004820152601f60248201527f416363657373207265737472696374656420746f206d6f746865727368697000604482015290519081900360640190fd5b6103f0828261085e565b5050565b73ffffffffffffffffffffffffffffffffffffffff81166000908152600560209081526040808320815192830190915254815261043990670de0b6b3a76400006108d0565b92915050565b7f000000000000000000000000000000000000000000000000000000000000000081565b336000818152600560209081526040918290208251918201909252905481526104af919061048f61090a565b61049833610526565b600293929190670de0b6b3a7640000610925610985565b565b604080516060810182526002546cffffffffffffffffffffffffff80821683526d010000000000000000000000000082041660208301527a010000000000000000000000000000000000000000000000000000900465ffffffffffff16918101919091526000906105219061099e565b905090565b73ffffffffffffffffffffffffffffffffffffffff1660009081526001602052604090205490565b3373ffffffffffffffffffffffffffffffffffffffff7f000000000000000000000000000000000000000000000000000000000000000016146105f257604080517f08c379a000000000000000000000000000000000000000000000000000000000815260206004820152601f60248201527f416363657373207265737472696374656420746f206d6f746865727368697000604482015290519081900360640190fd5b82811461066057604080517f08c379a000000000000000000000000000000000000000000000000000000000815260206004820152601d60248201527f417272617973206c656e6774682073686f756c6420626520657175616c000000604482015290519081900360640190fd5b60005b838110156106b7576106af85858381811061067a57fe5b9050602002013573ffffffffffffffffffffffffffffffffffffffff168484848181106106a357fe5b9050602002013561085e565b600101610663565b5050505050565b6706f05b59d3b2000081101561073557604080517f08c379a000000000000000000000000000000000000000000000000000000000815260206004820152601960248201527f46656520736861726520766f746520697320746f6f206c6f7700000000000000604482015290519081900360640190fd5b670de0b6b3a76400008111156107ac57604080517f08c379a000000000000000000000000000000000000000000000000000000000815260206004820152601a60248201527f46656520736861726520766f746520697320746f6f2068696768000000000000604482015290519081900360640190fd5b336000818152600560209081526040918290208251918201909252905481526107d9919061048f84610a3e565b50565b60006d0100000000000000000000000000821061085a57604080517f08c379a000000000000000000000000000000000000000000000000000000000815260206004820152601e60248201527f76616c756520646f6573206e6f742066697420696e2031303420626974730000604482015290519081900360640190fd5b5090565b600061086a8383610a5d565b90508082141561087a57506103f0565b73ffffffffffffffffffffffffffffffffffffffff83166000908152600560209081526040918290208251918201909252905481526108cb9060029085908486670de0b6b3a7640000610925610ad2565b505050565b815160009015610904575081517fffffffffffffffffffffffffffffffffffffffffffffffffffffffffffffffff01610439565b50919050565b6109126110bb565b5060408051602081019091526000815290565b604080518481528315156020820152808201839052905173ffffffffffffffffffffffffffffffffffffffff8616917fc81c61c2c3ce128e7b0962cbb5ffd5d975dcefcca05b54345474f37943743b7a919081900360600190a250505050565b6109958787878787888888610af1565b50505050505050565b6000806109cc620151806109c7856040015165ffffffffffff1642610d8090919063ffffffff16565b610dc9565b905060006109dd6201518083610d80565b9050610a3662015180610a30610a0f8588602001516cffffffffffffffffffffffffff16610ddf90919063ffffffff16565b8751610a2a906cffffffffffffffffffffffffff1686610ddf565b90610e52565b90610ec6565b949350505050565b610a466110bb565b506040805160208101909152600182018152919050565b73ffffffffffffffffffffffffffffffffffffffff82166000908152600160205260409020548181146104395773ffffffffffffffffffffffffffffffffffffffff8316600090815260016020526040812083905554610ac9908290610ac39085610e52565b90610d80565b60005592915050565b6109958787878615610ae45788610aec565b610aec61090a565b888888885b60018801546002890154819080610b078a610f08565b610b3857610b29610b22610b1b8c896108d0565b8a90610ddf565b8490610d80565b9250610b358289610d80565b90505b610b4189610f08565b610b7257610b63610b5c610b558b896108d0565b8990610ddf565b8490610e52565b9250610b6f8288610e52565b90505b838314610b815760018c018390555b818114610b905760028c018190555b60008115610ba757610ba28483610ec6565b610ba9565b865b9050610bb36110ce565b50604080516060810182528e546cffffffffffffffffffffffffff80821683526d0100000000000000000000000000820416602083018190527a01000000000000000000000000000000000000000000000000000090910465ffffffffffff1692820192909252908214610d1457610c32610c2d8261099e565b6107dc565b8e547fffffffffffffffffffffffffffffffffffffff00000000000000000000000000166cffffffffffffffffffffffffff91909116178e55610c74826107dc565b8e546cffffffffffffffffffffffffff919091166d0100000000000000000000000000027fffffffffffff00000000000000000000000000ffffffffffffffffffffffffff909116178e55610cc842610f0d565b8e5465ffffffffffff919091167a0100000000000000000000000000000000000000000000000000000279ffffffffffffffffffffffffffffffffffffffffffffffffffff909116178e555b50610d219050898b610f84565b610d515773ffffffffffffffffffffffffffffffffffffffff8b16600090815260038d0160205260409020895190555b610d728b610d5f8b896108d0565b610d688c610f08565b8a8963ffffffff16565b505050505050505050505050565b6000610dc283836040518060400160405280601e81526020017f536166654d6174683a207375627472616374696f6e206f766572666c6f770000815250610f8b565b9392505050565b6000818310610dd85781610dc2565b5090919050565b600082610dee57506000610439565b82820282848281610dfb57fe5b0414610dc2576040517f08c379a00000000000000000000000000000000000000000000000000000000081526004018080602001828103825260218152602001806110ef6021913960400191505060405180910390fd5b600082820183811015610dc257604080517f08c379a000000000000000000000000000000000000000000000000000000000815260206004820152601b60248201527f536166654d6174683a206164646974696f6e206f766572666c6f770000000000604482015290519081900360640190fd5b6000610dc283836040518060400160405280601a81526020017f536166654d6174683a206469766973696f6e206279207a65726f00000000000081525061103c565b511590565b60006601000000000000821061085a57604080517f08c379a000000000000000000000000000000000000000000000000000000000815260206004820152601d60248201527f76616c756520646f6573206e6f742066697420696e2034382062697473000000604482015290519081900360640190fd5b5190511490565b60008184841115611034576040517f08c379a00000000000000000000000000000000000000000000000000000000081526004018080602001828103825283818151815260200191508051906020019080838360005b83811015610ff9578181015183820152602001610fe1565b50505050905090810190601f1680156110265780820380516001836020036101000a031916815260200191505b509250505060405180910390fd5b505050900390565b600081836110a5576040517f08c379a0000000000000000000000000000000000000000000000000000000008152602060048201818152835160248401528351909283926044909101919085019080838360008315610ff9578181015183820152602001610fe1565b5060008385816110b157fe5b0495945050505050565b6040518060200160405280600081525090565b60408051606081018252600080825260208201819052918101919091529056fe536166654d6174683a206d756c7469706c69636174696f6e206f766572666c6f77a26469706673582212209b85030774ffcbe9622c740d5d7ebbb8566748da0b8c3aa7bb09837112f6721a64736f6c634300060c0033",
  "immutableReferences": {
    "3052": [
      {
        "length": 32,
        "start": 858
      },
      {
        "length": 32,
        "start": 1089
      },
      {
        "length": 32,
        "start": 1382
      }
    ]
  },
  "source": "// SPDX-License-Identifier: MIT\n\npragma solidity ^0.6.0;\n\nimport \"../interfaces/IExchangeGovernance.sol\";\nimport \"../libraries/ExchangeConstants.sol\";\nimport \"../libraries/ExplicitLiquidVoting.sol\";\nimport \"../libraries/SafeCast.sol\";\nimport \"../utils/BalanceAccounting.sol\";\nimport \"./BaseGovernanceModule.sol\";\n\n\ncontract ExchangeGovernance is IExchangeGovernance, BaseGovernanceModule, BalanceAccounting {\n    using Vote for Vote.Data;\n    using ExplicitLiquidVoting for ExplicitLiquidVoting.Data;\n    using VirtualVote for VirtualVote.Data;\n    using SafeCast for uint256;\n\n    event LeftoverReferralShareUpdate(address indexed user, uint256 vote, bool isDefault, uint256 amount);\n\n    ExplicitLiquidVoting.Data private _leftoverReferralShare;\n\n    constructor(address _mothership) public BaseGovernanceModule(_mothership) {\n        _leftoverReferralShare.data.result = ExchangeConstants._DEFAULT_LEFTOVER_REFERRAL_SHARE.toUint104();\n    }\n\n    function parameters() external view override returns(uint256) {\n        return (_leftoverReferralShare.data.current());\n    }\n\n    function leftoverReferralShare() external view override returns(uint256) {\n        return _leftoverReferralShare.data.current();\n    }\n\n    function leftoverReferralShareVotes(address user) external view returns(uint256) {\n        return _leftoverReferralShare.votes[user].get(ExchangeConstants._DEFAULT_LEFTOVER_REFERRAL_SHARE);\n    }\n\n    function virtualLeftoverReferralShare() external view returns(uint104, uint104, uint48) {\n        return (_leftoverReferralShare.data.oldResult, _leftoverReferralShare.data.result, _leftoverReferralShare.data.time);\n    }\n\n    function leftoverReferralShareVote(uint256 vote) external {\n        require(vote >= ExchangeConstants._MIN_LEFTOVER_REFERRAL_SHARE, \"Fee share vote is too low\");\n        require(vote <= ExchangeConstants._MAX_LEFTOVER_REFERRAL_SHARE, \"Fee share vote is too high\");\n        _leftoverReferralShare.updateVote(\n            msg.sender,\n            _leftoverReferralShare.votes[msg.sender],\n            Vote.init(vote),\n            balanceOf(msg.sender),\n            ExchangeConstants._DEFAULT_LEFTOVER_REFERRAL_SHARE,\n            _emitLeftoverReferralShareVoteUpdate\n        );\n    }\n\n    function discardLeftoverReferralShareVote() external {\n       _leftoverReferralShare.updateVote(\n           msg.sender,\n           _leftoverReferralShare.votes[msg.sender],\n           Vote.init(),\n           balanceOf(msg.sender),\n           ExchangeConstants._DEFAULT_LEFTOVER_REFERRAL_SHARE,\n           _emitLeftoverReferralShareVoteUpdate\n        );\n    }\n\n    function _notifyStakeChanged(address account, uint256 newBalance) internal override {\n        uint256 balance = _set(account, newBalance);\n        if (newBalance == balance) {\n            return;\n        }\n\n        _leftoverReferralShare.updateBalance(\n            account,\n            _leftoverReferralShare.votes[account],\n            balance,\n            newBalance,\n            ExchangeConstants._DEFAULT_LEFTOVER_REFERRAL_SHARE,\n            _emitLeftoverReferralShareVoteUpdate\n        );\n    }\n\n    function _emitLeftoverReferralShareVoteUpdate(address user, uint256 newDefaultShare, bool isDefault, uint256 balance) private {\n        emit LeftoverReferralShareUpdate(user, newDefaultShare, isDefault, balance);\n    }\n}\n",
  "sourcePath": "/Users/zumzoom/Projects/1inch/mooniswap-v2/contracts/governance/ExchangeGovernance.sol",
  "compiler": {
    "name": "solc",
    "version": "0.6.12+commit.27d51765.Emscripten.clang"
  },
  "schemaVersion": "3.3.3",
  "updatedAt": "2020-12-22T09:26:43.345Z",
  "devdoc": {
    "kind": "dev",
    "methods": {},
    "version": 1
  },
  "userdoc": {
    "kind": "user",
    "methods": {},
    "version": 1
  }
}