{
  "contractName": "ExchangeGovernance",
  "abi": [
    {
      "inputs": [
        {
          "internalType": "address",
          "name": "_mothership",
          "type": "address"
        }
      ],
      "stateMutability": "nonpayable",
      "type": "constructor"
    },
    {
      "anonymous": false,
      "inputs": [
        {
          "indexed": true,
          "internalType": "address",
          "name": "user",
          "type": "address"
        },
        {
          "indexed": false,
          "internalType": "uint256",
          "name": "vote",
          "type": "uint256"
        },
        {
          "indexed": false,
          "internalType": "bool",
          "name": "isDefault",
          "type": "bool"
        },
        {
          "indexed": false,
          "internalType": "uint256",
          "name": "amount",
          "type": "uint256"
        }
      ],
      "name": "LeftoverGovernanceShareUpdate",
      "type": "event"
    },
    {
      "anonymous": false,
      "inputs": [
        {
          "indexed": true,
          "internalType": "address",
          "name": "user",
          "type": "address"
        },
        {
          "indexed": false,
          "internalType": "uint256",
          "name": "vote",
          "type": "uint256"
        },
        {
          "indexed": false,
          "internalType": "bool",
          "name": "isDefault",
          "type": "bool"
        },
        {
          "indexed": false,
          "internalType": "uint256",
          "name": "amount",
          "type": "uint256"
        }
      ],
      "name": "LeftoverReferralShareUpdate",
      "type": "event"
    },
    {
      "anonymous": false,
      "inputs": [
        {
          "indexed": true,
          "internalType": "address",
          "name": "user",
          "type": "address"
        },
        {
          "indexed": false,
          "internalType": "uint256",
          "name": "vote",
          "type": "uint256"
        },
        {
          "indexed": false,
          "internalType": "bool",
          "name": "isDefault",
          "type": "bool"
        },
        {
          "indexed": false,
          "internalType": "uint256",
          "name": "amount",
          "type": "uint256"
        }
      ],
      "name": "LeftoverTeamShareUpdate",
      "type": "event"
    },
    {
      "inputs": [
        {
          "internalType": "address",
          "name": "account",
          "type": "address"
        }
      ],
      "name": "balanceOf",
      "outputs": [
        {
          "internalType": "uint256",
          "name": "",
          "type": "uint256"
        }
      ],
      "stateMutability": "view",
      "type": "function"
    },
    {
      "inputs": [],
      "name": "mothership",
      "outputs": [
        {
          "internalType": "address",
          "name": "",
          "type": "address"
        }
      ],
      "stateMutability": "view",
      "type": "function"
    },
    {
      "inputs": [
        {
          "internalType": "address",
          "name": "account",
          "type": "address"
        },
        {
          "internalType": "uint256",
          "name": "newBalance",
          "type": "uint256"
        }
      ],
      "name": "notifyStakeChanged",
      "outputs": [],
      "stateMutability": "nonpayable",
      "type": "function"
    },
    {
      "inputs": [
        {
          "internalType": "address[]",
          "name": "accounts",
          "type": "address[]"
        },
        {
          "internalType": "uint256[]",
          "name": "newBalances",
          "type": "uint256[]"
        }
      ],
      "name": "notifyStakesChanged",
      "outputs": [],
      "stateMutability": "nonpayable",
      "type": "function"
    },
    {
      "inputs": [],
      "name": "totalSupply",
      "outputs": [
        {
          "internalType": "uint256",
          "name": "",
          "type": "uint256"
        }
      ],
      "stateMutability": "view",
      "type": "function"
    },
    {
      "inputs": [],
      "name": "parameters",
      "outputs": [
        {
          "internalType": "uint256",
          "name": "govShare",
          "type": "uint256"
        },
        {
          "internalType": "uint256",
          "name": "refShare",
          "type": "uint256"
        },
        {
          "internalType": "uint256",
          "name": "teamShare",
          "type": "uint256"
        }
      ],
      "stateMutability": "view",
      "type": "function"
    },
    {
      "inputs": [],
      "name": "leftoverGovernanceShare",
      "outputs": [
        {
          "internalType": "uint256",
          "name": "",
          "type": "uint256"
        }
      ],
      "stateMutability": "view",
      "type": "function"
    },
    {
      "inputs": [
        {
          "internalType": "address",
          "name": "user",
          "type": "address"
        }
      ],
      "name": "leftoverGovernanceShareVotes",
      "outputs": [
        {
          "internalType": "uint256",
          "name": "",
          "type": "uint256"
        }
      ],
      "stateMutability": "view",
      "type": "function"
    },
    {
      "inputs": [],
      "name": "virtualLeftoverGovernanceShare",
      "outputs": [
        {
          "internalType": "uint104",
          "name": "",
          "type": "uint104"
        },
        {
          "internalType": "uint104",
          "name": "",
          "type": "uint104"
        },
        {
          "internalType": "uint48",
          "name": "",
          "type": "uint48"
        }
      ],
      "stateMutability": "view",
      "type": "function"
    },
    {
      "inputs": [],
      "name": "leftoverReferralShare",
      "outputs": [
        {
          "internalType": "uint256",
          "name": "",
          "type": "uint256"
        }
      ],
      "stateMutability": "view",
      "type": "function"
    },
    {
      "inputs": [
        {
          "internalType": "address",
          "name": "user",
          "type": "address"
        }
      ],
      "name": "leftoverReferralShareVotes",
      "outputs": [
        {
          "internalType": "uint256",
          "name": "",
          "type": "uint256"
        }
      ],
      "stateMutability": "view",
      "type": "function"
    },
    {
      "inputs": [],
      "name": "virtualLeftoverReferralShare",
      "outputs": [
        {
          "internalType": "uint104",
          "name": "",
          "type": "uint104"
        },
        {
          "internalType": "uint104",
          "name": "",
          "type": "uint104"
        },
        {
          "internalType": "uint48",
          "name": "",
          "type": "uint48"
        }
      ],
      "stateMutability": "view",
      "type": "function"
    },
    {
      "inputs": [],
      "name": "leftoverTeamShare",
      "outputs": [
        {
          "internalType": "uint256",
          "name": "",
          "type": "uint256"
        }
      ],
      "stateMutability": "view",
      "type": "function"
    },
    {
      "inputs": [
        {
          "internalType": "address",
          "name": "user",
          "type": "address"
        }
      ],
      "name": "leftoverTeamShareVotes",
      "outputs": [
        {
          "internalType": "uint256",
          "name": "",
          "type": "uint256"
        }
      ],
      "stateMutability": "view",
      "type": "function"
    },
    {
      "inputs": [],
      "name": "virtualLeftoverTeamShare",
      "outputs": [
        {
          "internalType": "uint104",
          "name": "",
          "type": "uint104"
        },
        {
          "internalType": "uint104",
          "name": "",
          "type": "uint104"
        },
        {
          "internalType": "uint48",
          "name": "",
          "type": "uint48"
        }
      ],
      "stateMutability": "view",
      "type": "function"
    },
    {
      "inputs": [
        {
          "internalType": "uint256",
          "name": "govShare",
          "type": "uint256"
        },
        {
          "internalType": "uint256",
          "name": "refShare",
          "type": "uint256"
        }
      ],
      "name": "leftoverShareVote",
      "outputs": [],
      "stateMutability": "nonpayable",
      "type": "function"
    },
    {
      "inputs": [],
      "name": "discardLeftoverShareVote",
      "outputs": [],
      "stateMutability": "nonpayable",
      "type": "function"
    }
  ],
  "bytecode": "0x60a060405234801561001057600080fd5b506040516115863803806115868339818101604052602081101561003357600080fd5b5051606081901b6001600160601b0319166080526100636704b7ec32d7a200006100db602090811b610ae717901c565b6002600001600001600d6101000a8154816001600160681b0302191690836001600160681b031602179055506100aa670494654067e100006100db60201b610ae71760201c565b600680546001600160681b0392909216600160681b02600160681b600160d01b031990921691909117905550610139565b6000600160681b8210610135576040805162461bcd60e51b815260206004820152601e60248201527f76616c756520646f6573206e6f742066697420696e2031303420626974730000604482015290519081900360640190fd5b5090565b60805160601c6114266101606000398061046d528061055952806107f952506114266000f3fe608060405234801561001057600080fd5b506004361061011b5760003560e01c806370a08231116100b2578063ad33334811610081578063c2adb6f311610066578063c2adb6f314610345578063e44f53d31461036b578063fa3f88ae146103915761011b565b8063ad3333481461027b578063b6bc3c1e1461033d5761011b565b806370a0823114610204578063890357301461022a57806394f4b16214610250578063a5699e35146102585761011b565b80632fce8dea116100ee5780632fce8dea146101aa57806331f866af146101b25780634187b7d6146101d85780634aded6ce146101fc5761011b565b806310d97a181461012057806318160ddd1461015a5780631b222a451461017457806327a274331461017c575b600080fd5b610128610399565b604080516001600160681b03948516815292909316602083015265ffffffffffff168183015290519081900360600190f35b6101626103c5565b60408051918252519081900360200190f35b6101286103cb565b6101a86004803603604081101561019257600080fd5b506001600160a01b038135169060200135610462565b005b6101286104ed565b610162600480360360208110156101c857600080fd5b50356001600160a01b0316610519565b6101e0610557565b604080516001600160a01b039092168252519081900360200190f35b61016261057b565b6101626004803603602081101561021a57600080fd5b50356001600160a01b03166105c9565b6102326105e4565b60408051938452602084019290925282820152519081900360600190f35b610162610699565b6101a86004803603604081101561026e57600080fd5b50803590602001356106e2565b6101a86004803603604081101561029157600080fd5b8101906020810181356401000000008111156102ac57600080fd5b8201836020820111156102be57600080fd5b803590602001918460208302840111640100000000831117156102e057600080fd5b9193909290916020810190356401000000008111156102fe57600080fd5b82018360208201111561031057600080fd5b8035906020019184602083028401116401000000008311171561033257600080fd5b5090925090506107ee565b610162610909565b6101626004803603602081101561035b57600080fd5b50356001600160a01b03166109af565b6101626004803603602081101561038157600080fd5b50356001600160a01b0316610a29565b6101a8610a61565b6006546001600160681b0380821692600160681b830490911691600160d01b900465ffffffffffff1690565b60005490565b6006546002546000918291829161040b91610406916001600160681b039081169161040091670de0b6b3a76400009116610b45565b90610b45565b610ae7565b60065460025461044491610406916001600160681b03600160681b9283900481169261040092670de0b6b3a76400009291900416610b45565b6002549195909450600160d01b90910465ffffffffffff1692509050565b336001600160a01b037f000000000000000000000000000000000000000000000000000000000000000016146104df576040805162461bcd60e51b815260206004820152601f60248201527f416363657373207265737472696374656420746f206d6f746865727368697000604482015290519081900360640190fd5b6104e98282610b8e565b5050565b6002546001600160681b0380821692600160681b830490911691600160d01b900465ffffffffffff1690565b6001600160a01b0381166000908152600960209081526040808320815192830190915254815261055190670494654067e10000610c96565b92915050565b7f000000000000000000000000000000000000000000000000000000000000000081565b604080516060810182526006546001600160681b038082168352600160681b8204166020830152600160d01b900465ffffffffffff16918101919091526000906105c490610cb2565b905090565b6001600160a01b031660009081526001602052604090205490565b604080516060810182526002546001600160681b038082168352600160681b8204166020830152600160d01b900465ffffffffffff16918101919091526000908190819061063190610cb2565b604080516060810182526006546001600160681b038082168352600160681b8204166020830152600160d01b900465ffffffffffff169181019190915290935061067a90610cb2565b915061069282610400670de0b6b3a764000086610b45565b9050909192565b604080516060810182526002546001600160681b038082168352600160681b8204166020830152600160d01b900465ffffffffffff16918101919091526000906105c490610cb2565b60006107356106f18484610d46565b60408051808201909152601c81527f4c6566746f766572207368617265732061726520746f6f2068696768000000006020820152670de0b6b3a76400009190610da0565b90506000610742336105c9565b9050600061074e6103c5565b336000818152600560209081526040918290208251918201909252905481529192506107959161077d88610e37565b600292919086866704b7ec32d7a20000610e56610ea9565b336000818152600960209081526040918290208251918201909252905481526107da91906107c287610e37565b60069291908686670494654067e10000610ec4610ea9565b6107e73384600085610f17565b5050505050565b336001600160a01b037f0000000000000000000000000000000000000000000000000000000000000000161461086b576040805162461bcd60e51b815260206004820152601f60248201527f416363657373207265737472696374656420746f206d6f746865727368697000604482015290519081900360640190fd5b8281146108bf576040805162461bcd60e51b815260206004820152601d60248201527f417272617973206c656e6774682073686f756c6420626520657175616c000000604482015290519081900360640190fd5b60005b838110156107e7576109018585838181106108d957fe5b905060200201356001600160a01b03168484848181106108f557fe5b90506020020135610b8e565b6001016108c2565b604080516060810182526006546001600160681b038082168352600160681b8204166020830152600160d01b900465ffffffffffff16918101919091526000906105c49061095690610cb2565b604080516060810182526002546001600160681b038082168352600160681b8204166020830152600160d01b900465ffffffffffff1691810191909152610400906109a090610cb2565b670de0b6b3a764000090610b45565b6001600160a01b03811660009081526009602090815260408083208151928301909152548152610551906109eb90670494654067e10000610c96565b6001600160a01b038416600090815260056020908152604091829020825191820190925290548152610400906109a0906704b7ec32d7a20000610c96565b6001600160a01b03811660009081526005602090815260408083208151928301909152548152610551906704b7ec32d7a20000610c96565b6000610a6c336105c9565b90506000610a786103c5565b33600081815260056020908152604091829020825191820190925290548152919250610aa69161077d610f6a565b33600081815260096020908152604091829020825191820190925290548152610ad291906107c2610f6a565b6104e933670494654067e10000600185610f17565b6000600160681b8210610b41576040805162461bcd60e51b815260206004820152601e60248201527f76616c756520646f6573206e6f742066697420696e2031303420626974730000604482015290519081900360640190fd5b5090565b6000610b8783836040518060400160405280601e81526020017f536166654d6174683a207375627472616374696f6e206f766572666c6f770000815250610da0565b9392505050565b6000610b9a8383610f85565b905080821415610baa57506104e9565b610bb261139c565b506001600160a01b038316600090815260056020908152604091829020825191820190925290548152610be361139c565b506001600160a01b0384166000908152600960209081526040808320815192830190915254815290610c35610c2083670494654067e10000610c96565b6104006109a0866704b7ec32d7a20000610c96565b90506000610c416103c5565b9050610c5e60028886888a866704b7ec32d7a20000610e56610fda565b610c7960068885888a86670494654067e10000610ec4610fda565b610c8d8783610c8787610ffe565b89610f17565b50505050505050565b815160009015610cac5750815160001901610551565b50919050565b600080610ce062015180610cdb856040015165ffffffffffff1642610b4590919063ffffffff16565b611003565b90506000610cf16201518083610b45565b9050610d3e62015180610d38610d1d8588602001516001600160681b031661101990919063ffffffff16565b8751610d32906001600160681b031686611019565b90610d46565b90611072565b949350505050565b600082820183811015610b87576040805162461bcd60e51b815260206004820152601b60248201527f536166654d6174683a206164646974696f6e206f766572666c6f770000000000604482015290519081900360640190fd5b60008184841115610e2f5760405162461bcd60e51b81526004018080602001828103825283818151815260200191508051906020019080838360005b83811015610df4578181015183820152602001610ddc565b50505050905090810190601f168015610e215780820380516001836020036101000a031916815260200191505b509250505060405180910390fd5b505050900390565b610e3f61139c565b506040805160208101909152600182018152919050565b60408051848152831515602082015280820183905290516001600160a01b038616917f2f2c318dd3a1bee02ade0f8f05d9c8f392f7988aa993cc619153bf068801d259919081900360600190a250505050565b610eba8888888888898989896110b4565b5050505050505050565b60408051848152831515602082015280820183905290516001600160a01b038616917fc81c61c2c3ce128e7b0962cbb5ffd5d975dcefcca05b54345474f37943743b7a919081900360600190a250505050565b60408051848152831515602082015280820183905290516001600160a01b038616917fd41ee572fec95b053c3d7deb405a5cbc7b738ba1b0418512bf58d1921a7acbd2919081900360600190a250505050565b610f7261139c565b5060408051602081019091526000815290565b6001600160a01b038216600090815260016020526040902054818114610551576001600160a01b038316600090815260016020526040812083905554610fd19082906104009085610d46565b60005592915050565b610eba8888888715610fec5789610ff4565b610ff4610f6a565b89898989896110b4565b511590565b60008183106110125781610b87565b5090919050565b60008261102857506000610551565b8282028284828161103557fe5b0414610b875760405162461bcd60e51b81526004018080602001828103825260218152602001806113d06021913960400191505060405180910390fd5b6000610b8783836040518060400160405280601a81526020017f536166654d6174683a206469766973696f6e206279207a65726f0000000000008152506112d3565b600189015460028a01548190806110ca8b610ffe565b156110e0576110d9818a610b45565b9050611101565b6110fe6110f76110f08d89610c96565b8b90611019565b8490610b45565b92505b61110a8a610ffe565b15611120576111198189610d46565b9050611141565b61113e6111376111308c89610c96565b8a90611019565b8490610d46565b92505b8383146111505760018d018390555b81811461115f5760028d018190555b600087156111845761117f88610d38611178858b611019565b8790610d46565b611186565b865b90506111906113af565b50604080516060810182528f546001600160681b038082168352600160681b82041660208301819052600160d01b90910465ffffffffffff1692820192909252908214611273578e6111e461040683610cb2565b6111ed84610ae7565b6111f642611338565b835479ffffffffffffffffffffffffffffffffffffffffffffffffffff16600160d01b65ffffffffffff9290921691909102177fffffffffffff00000000000000000000000000ffffffffffffffffffffffffff16600160681b6001600160681b0392831602176cffffffffffffffffffffffffff191691161790555b5061128090508a8c611395565b6112a3576001600160a01b038c16600090815260038e01602052604090208a5190555b6112c48c6112b18c89610c96565b6112ba8d610ffe565b8b8963ffffffff16565b50505050505050505050505050565b600081836113225760405162461bcd60e51b8152602060048201818152835160248401528351909283926044909101919085019080838360008315610df4578181015183820152602001610ddc565b50600083858161132e57fe5b0495945050505050565b600066010000000000008210610b41576040805162461bcd60e51b815260206004820152601d60248201527f76616c756520646f6573206e6f742066697420696e2034382062697473000000604482015290519081900360640190fd5b5190511490565b6040518060200160405280600081525090565b60408051606081018252600080825260208201819052918101919091529056fe536166654d6174683a206d756c7469706c69636174696f6e206f766572666c6f77a2646970667358221220526529d172b24de6a538c3fb510eb3a0ae9082d1e0dd771754c7bde9bf86d42b64736f6c634300060c0033",
  "immutableReferences": {
    "3228": [
      {
        "length": 32,
        "start": 1133
      },
      {
        "length": 32,
        "start": 1369
      },
      {
        "length": 32,
        "start": 2041
      }
    ]
  },
  "source": "// SPDX-License-Identifier: MIT\n\npragma solidity ^0.6.0;\n\nimport \"../interfaces/IExchangeGovernance.sol\";\nimport \"../libraries/ExchangeConstants.sol\";\nimport \"../libraries/LiquidVoting.sol\";\nimport \"../libraries/SafeCast.sol\";\nimport \"../utils/BalanceAccounting.sol\";\nimport \"./BaseGovernanceModule.sol\";\n\n\ncontract ExchangeGovernance is IExchangeGovernance, BaseGovernanceModule, BalanceAccounting {\n    using Vote for Vote.Data;\n    using LiquidVoting for LiquidVoting.Data;\n    using VirtualVote for VirtualVote.Data;\n    using SafeCast for uint256;\n\n    event LeftoverGovernanceShareUpdate(address indexed user, uint256 vote, bool isDefault, uint256 amount);\n    event LeftoverReferralShareUpdate(address indexed user, uint256 vote, bool isDefault, uint256 amount);\n    event LeftoverTeamShareUpdate(address indexed user, uint256 vote, bool isDefault, uint256 amount);\n\n    LiquidVoting.Data private _leftoverGovernanceShare;\n    LiquidVoting.Data private _leftoverReferralShare;\n\n    constructor(address _mothership) public BaseGovernanceModule(_mothership) {\n        _leftoverGovernanceShare.data.result = ExchangeConstants._DEFAULT_LEFTOVER_GOV_SHARE.toUint104();\n        _leftoverReferralShare.data.result = ExchangeConstants._DEFAULT_LEFTOVER_REF_SHARE.toUint104();\n    }\n\n    function parameters() external view override returns(uint256 govShare, uint256 refShare, uint256 teamShare) {\n        govShare = _leftoverGovernanceShare.data.current();\n        refShare = _leftoverReferralShare.data.current();\n        teamShare = ExchangeConstants._LEFTOVER_TOTAL_SHARE.sub(govShare).sub(refShare);\n    }\n\n    function leftoverGovernanceShare() external view override returns(uint256) {\n        return _leftoverGovernanceShare.data.current();\n    }\n\n    function leftoverGovernanceShareVotes(address user) external view returns(uint256) {\n        return _leftoverGovernanceShare.votes[user].get(ExchangeConstants._DEFAULT_LEFTOVER_GOV_SHARE);\n    }\n\n    function virtualLeftoverGovernanceShare() external view returns(uint104, uint104, uint48) {\n        return (_leftoverGovernanceShare.data.oldResult, _leftoverGovernanceShare.data.result, _leftoverGovernanceShare.data.time);\n    }\n\n    //\n\n    function leftoverReferralShare() external view override returns(uint256) {\n        return _leftoverReferralShare.data.current();\n    }\n\n    function leftoverReferralShareVotes(address user) external view returns(uint256) {\n        return _leftoverReferralShare.votes[user].get(ExchangeConstants._DEFAULT_LEFTOVER_REF_SHARE);\n    }\n\n    function virtualLeftoverReferralShare() external view returns(uint104, uint104, uint48) {\n        return (_leftoverReferralShare.data.oldResult, _leftoverReferralShare.data.result, _leftoverReferralShare.data.time);\n    }\n\n    //\n\n    function leftoverTeamShare() external view override returns(uint256) {\n        return ExchangeConstants._LEFTOVER_TOTAL_SHARE\n            .sub(_leftoverGovernanceShare.data.current())\n            .sub(_leftoverReferralShare.data.current());\n    }\n\n    function leftoverTeamShareVotes(address user) external view returns(uint256) {\n        return ExchangeConstants._LEFTOVER_TOTAL_SHARE\n            .sub(_leftoverGovernanceShare.votes[user].get(ExchangeConstants._DEFAULT_LEFTOVER_GOV_SHARE))\n            .sub(_leftoverReferralShare.votes[user].get(ExchangeConstants._DEFAULT_LEFTOVER_REF_SHARE));\n    }\n\n    function virtualLeftoverTeamShare() external view returns(uint104, uint104, uint48) {\n        return (\n            ExchangeConstants._LEFTOVER_TOTAL_SHARE\n                .sub(_leftoverGovernanceShare.data.oldResult)\n                .sub(_leftoverReferralShare.data.oldResult).toUint104(),\n            ExchangeConstants._LEFTOVER_TOTAL_SHARE\n                .sub(_leftoverGovernanceShare.data.result)\n                .sub(_leftoverReferralShare.data.result).toUint104(),\n            _leftoverGovernanceShare.data.time\n        );\n    }\n\n    ///\n\n    function leftoverShareVote(uint256 govShare, uint256 refShare) external {\n        uint256 teamShare = ExchangeConstants._LEFTOVER_TOTAL_SHARE\n            .sub(govShare.add(refShare), \"Leftover shares are too high\");\n\n        uint256 balance = balanceOf(msg.sender);\n        uint256 supply = totalSupply();\n\n        _leftoverGovernanceShare.updateVote(\n            msg.sender,\n            _leftoverGovernanceShare.votes[msg.sender],\n            Vote.init(govShare),\n            balance,\n            supply,\n            ExchangeConstants._DEFAULT_LEFTOVER_GOV_SHARE,\n            _emitLeftoverGovernanceShareVoteUpdate\n        );\n\n        _leftoverReferralShare.updateVote(\n            msg.sender,\n            _leftoverReferralShare.votes[msg.sender],\n            Vote.init(refShare),\n            balance,\n            supply,\n            ExchangeConstants._DEFAULT_LEFTOVER_REF_SHARE,\n            _emitLeftoverReferralShareVoteUpdate\n        );\n\n        _emitLeftoverTeamShareVoteUpdate(msg.sender, teamShare, false, balance);\n    }\n\n    function discardLeftoverShareVote() external {\n        uint256 balance = balanceOf(msg.sender);\n        uint256 supply = totalSupply();\n\n        _leftoverGovernanceShare.updateVote(\n           msg.sender,\n           _leftoverGovernanceShare.votes[msg.sender],\n           Vote.init(),\n           balance,\n           supply,\n           ExchangeConstants._DEFAULT_LEFTOVER_GOV_SHARE,\n           _emitLeftoverGovernanceShareVoteUpdate\n        );\n\n        _leftoverReferralShare.updateVote(\n           msg.sender,\n           _leftoverReferralShare.votes[msg.sender],\n           Vote.init(),\n           balance,\n           supply,\n           ExchangeConstants._DEFAULT_LEFTOVER_REF_SHARE,\n           _emitLeftoverReferralShareVoteUpdate\n        );\n\n        _emitLeftoverTeamShareVoteUpdate(msg.sender, ExchangeConstants._DEFAULT_LEFTOVER_TEAM_SHARE, true, balance);\n    }\n\n    function _notifyStakeChanged(address account, uint256 newBalance) internal override {\n        uint256 balance = _set(account, newBalance);\n        if (newBalance == balance) {\n            return;\n        }\n\n        Vote.Data memory govShareVote = _leftoverGovernanceShare.votes[account];\n        Vote.Data memory refShareVote = _leftoverReferralShare.votes[account];\n        uint256 teamShare = ExchangeConstants._LEFTOVER_TOTAL_SHARE\n            .sub(govShareVote.get(ExchangeConstants._DEFAULT_LEFTOVER_GOV_SHARE))\n            .sub(refShareVote.get(ExchangeConstants._DEFAULT_LEFTOVER_REF_SHARE));\n        uint256 supply = totalSupply();\n\n        _leftoverGovernanceShare.updateBalance(\n            account,\n            govShareVote,\n            balance,\n            newBalance,\n            supply,\n            ExchangeConstants._DEFAULT_LEFTOVER_GOV_SHARE,\n            _emitLeftoverGovernanceShareVoteUpdate\n        );\n\n        _leftoverReferralShare.updateBalance(\n            account,\n            refShareVote,\n            balance,\n            newBalance,\n            supply,\n            ExchangeConstants._DEFAULT_LEFTOVER_REF_SHARE,\n            _emitLeftoverReferralShareVoteUpdate\n        );\n\n        _emitLeftoverTeamShareVoteUpdate(\n            account,\n            teamShare,\n            govShareVote.isDefault(),\n            newBalance\n        );\n    }\n\n    function _emitLeftoverGovernanceShareVoteUpdate(address user, uint256 newDefaultShare, bool isDefault, uint256 balance) private {\n        emit LeftoverGovernanceShareUpdate(user, newDefaultShare, isDefault, balance);\n    }\n\n    function _emitLeftoverReferralShareVoteUpdate(address user, uint256 newDefaultShare, bool isDefault, uint256 balance) private {\n        emit LeftoverReferralShareUpdate(user, newDefaultShare, isDefault, balance);\n    }\n\n    function _emitLeftoverTeamShareVoteUpdate(address user, uint256 newDefaultShare, bool isDefault, uint256 balance) private {\n        emit LeftoverTeamShareUpdate(user, newDefaultShare, isDefault, balance);\n    }\n}\n",
  "sourcePath": "/Users/k06a/Projects/mooniswap-v2/contracts/governance/ExchangeGovernance.sol",
  "compiler": {
    "name": "solc",
    "version": "0.6.12+commit.27d51765.Emscripten.clang"
  },
  "schemaVersion": "3.3.3",
  "updatedAt": "2021-01-07T10:25:20.538Z",
  "devdoc": {
    "kind": "dev",
    "methods": {},
    "version": 1
  },
  "userdoc": {
    "kind": "user",
    "methods": {},
    "version": 1
  }
}