{
  "contractName": "FarmingRewards",
  "abi": [
    {
      "inputs": [
        {
          "internalType": "contract Mooniswap",
          "name": "_mooniswap",
          "type": "address"
        },
        {
          "internalType": "contract IERC20",
          "name": "_gift",
          "type": "address"
        }
      ],
      "stateMutability": "nonpayable",
      "type": "constructor"
    },
    {
      "anonymous": false,
      "inputs": [
        {
          "indexed": true,
          "internalType": "address",
          "name": "user",
          "type": "address"
        },
        {
          "indexed": false,
          "internalType": "uint256",
          "name": "decayPeriod",
          "type": "uint256"
        },
        {
          "indexed": false,
          "internalType": "bool",
          "name": "isDefault",
          "type": "bool"
        },
        {
          "indexed": false,
          "internalType": "uint256",
          "name": "amount",
          "type": "uint256"
        }
      ],
      "name": "DecayPeriodVoteUpdate",
      "type": "event"
    },
    {
      "anonymous": false,
      "inputs": [
        {
          "indexed": true,
          "internalType": "address",
          "name": "user",
          "type": "address"
        },
        {
          "indexed": false,
          "internalType": "uint256",
          "name": "fee",
          "type": "uint256"
        },
        {
          "indexed": false,
          "internalType": "bool",
          "name": "isDefault",
          "type": "bool"
        },
        {
          "indexed": false,
          "internalType": "uint256",
          "name": "amount",
          "type": "uint256"
        }
      ],
      "name": "FeeVoteUpdate",
      "type": "event"
    },
    {
      "anonymous": false,
      "inputs": [
        {
          "indexed": true,
          "internalType": "address",
          "name": "previousOwner",
          "type": "address"
        },
        {
          "indexed": true,
          "internalType": "address",
          "name": "newOwner",
          "type": "address"
        }
      ],
      "name": "OwnershipTransferred",
      "type": "event"
    },
    {
      "anonymous": false,
      "inputs": [
        {
          "indexed": false,
          "internalType": "uint256",
          "name": "reward",
          "type": "uint256"
        }
      ],
      "name": "RewardAdded",
      "type": "event"
    },
    {
      "anonymous": false,
      "inputs": [
        {
          "indexed": true,
          "internalType": "address",
          "name": "user",
          "type": "address"
        },
        {
          "indexed": false,
          "internalType": "uint256",
          "name": "reward",
          "type": "uint256"
        }
      ],
      "name": "RewardPaid",
      "type": "event"
    },
    {
      "anonymous": false,
      "inputs": [
        {
          "indexed": true,
          "internalType": "address",
          "name": "user",
          "type": "address"
        },
        {
          "indexed": false,
          "internalType": "uint256",
          "name": "slippageFee",
          "type": "uint256"
        },
        {
          "indexed": false,
          "internalType": "bool",
          "name": "isDefault",
          "type": "bool"
        },
        {
          "indexed": false,
          "internalType": "uint256",
          "name": "amount",
          "type": "uint256"
        }
      ],
      "name": "SlippageFeeVoteUpdate",
      "type": "event"
    },
    {
      "anonymous": false,
      "inputs": [
        {
          "indexed": true,
          "internalType": "address",
          "name": "user",
          "type": "address"
        },
        {
          "indexed": false,
          "internalType": "uint256",
          "name": "amount",
          "type": "uint256"
        }
      ],
      "name": "Staked",
      "type": "event"
    },
    {
      "anonymous": false,
      "inputs": [
        {
          "indexed": true,
          "internalType": "address",
          "name": "user",
          "type": "address"
        },
        {
          "indexed": false,
          "internalType": "uint256",
          "name": "amount",
          "type": "uint256"
        }
      ],
      "name": "Withdrawn",
      "type": "event"
    },
    {
      "inputs": [],
      "name": "DURATION",
      "outputs": [
        {
          "internalType": "uint256",
          "name": "",
          "type": "uint256"
        }
      ],
      "stateMutability": "view",
      "type": "function"
    },
    {
      "inputs": [
        {
          "internalType": "address",
          "name": "account",
          "type": "address"
        }
      ],
      "name": "balanceOf",
      "outputs": [
        {
          "internalType": "uint256",
          "name": "",
          "type": "uint256"
        }
      ],
      "stateMutability": "view",
      "type": "function"
    },
    {
      "inputs": [
        {
          "internalType": "address",
          "name": "account",
          "type": "address"
        }
      ],
      "name": "earned",
      "outputs": [
        {
          "internalType": "uint256",
          "name": "",
          "type": "uint256"
        }
      ],
      "stateMutability": "view",
      "type": "function"
    },
    {
      "inputs": [],
      "name": "getReward",
      "outputs": [],
      "stateMutability": "nonpayable",
      "type": "function"
    },
    {
      "inputs": [],
      "name": "gift",
      "outputs": [
        {
          "internalType": "contract IERC20",
          "name": "",
          "type": "address"
        }
      ],
      "stateMutability": "view",
      "type": "function"
    },
    {
      "inputs": [],
      "name": "lastTimeRewardApplicable",
      "outputs": [
        {
          "internalType": "uint256",
          "name": "",
          "type": "uint256"
        }
      ],
      "stateMutability": "view",
      "type": "function"
    },
    {
      "inputs": [],
      "name": "lastUpdateTime",
      "outputs": [
        {
          "internalType": "uint256",
          "name": "",
          "type": "uint256"
        }
      ],
      "stateMutability": "view",
      "type": "function"
    },
    {
      "inputs": [],
      "name": "mooniswap",
      "outputs": [
        {
          "internalType": "contract Mooniswap",
          "name": "",
          "type": "address"
        }
      ],
      "stateMutability": "view",
      "type": "function"
    },
    {
      "inputs": [],
      "name": "mooniswapFactoryGovernance",
      "outputs": [
        {
          "internalType": "contract IMooniswapFactoryGovernance",
          "name": "",
          "type": "address"
        }
      ],
      "stateMutability": "view",
      "type": "function"
    },
    {
      "inputs": [
        {
          "internalType": "uint256",
          "name": "reward",
          "type": "uint256"
        }
      ],
      "name": "notifyRewardAmount",
      "outputs": [],
      "stateMutability": "nonpayable",
      "type": "function"
    },
    {
      "inputs": [],
      "name": "owner",
      "outputs": [
        {
          "internalType": "address",
          "name": "",
          "type": "address"
        }
      ],
      "stateMutability": "view",
      "type": "function"
    },
    {
      "inputs": [],
      "name": "periodFinish",
      "outputs": [
        {
          "internalType": "uint256",
          "name": "",
          "type": "uint256"
        }
      ],
      "stateMutability": "view",
      "type": "function"
    },
    {
      "inputs": [],
      "name": "renounceOwnership",
      "outputs": [],
      "stateMutability": "nonpayable",
      "type": "function"
    },
    {
      "inputs": [],
      "name": "rewardDistribution",
      "outputs": [
        {
          "internalType": "address",
          "name": "",
          "type": "address"
        }
      ],
      "stateMutability": "view",
      "type": "function"
    },
    {
      "inputs": [],
      "name": "rewardPerToken",
      "outputs": [
        {
          "internalType": "uint256",
          "name": "",
          "type": "uint256"
        }
      ],
      "stateMutability": "view",
      "type": "function"
    },
    {
      "inputs": [],
      "name": "rewardPerTokenStored",
      "outputs": [
        {
          "internalType": "uint256",
          "name": "",
          "type": "uint256"
        }
      ],
      "stateMutability": "view",
      "type": "function"
    },
    {
      "inputs": [],
      "name": "rewardRate",
      "outputs": [
        {
          "internalType": "uint256",
          "name": "",
          "type": "uint256"
        }
      ],
      "stateMutability": "view",
      "type": "function"
    },
    {
      "inputs": [
        {
          "internalType": "address",
          "name": "",
          "type": "address"
        }
      ],
      "name": "rewards",
      "outputs": [
        {
          "internalType": "uint256",
          "name": "",
          "type": "uint256"
        }
      ],
      "stateMutability": "view",
      "type": "function"
    },
    {
      "inputs": [
        {
          "internalType": "address",
          "name": "_rewardDistribution",
          "type": "address"
        }
      ],
      "name": "setRewardDistribution",
      "outputs": [],
      "stateMutability": "nonpayable",
      "type": "function"
    },
    {
      "inputs": [],
      "name": "totalSupply",
      "outputs": [
        {
          "internalType": "uint256",
          "name": "",
          "type": "uint256"
        }
      ],
      "stateMutability": "view",
      "type": "function"
    },
    {
      "inputs": [
        {
          "internalType": "address",
          "name": "newOwner",
          "type": "address"
        }
      ],
      "name": "transferOwnership",
      "outputs": [],
      "stateMutability": "nonpayable",
      "type": "function"
    },
    {
      "inputs": [
        {
          "internalType": "address",
          "name": "",
          "type": "address"
        }
      ],
      "name": "userRewardPerTokenPaid",
      "outputs": [
        {
          "internalType": "uint256",
          "name": "",
          "type": "uint256"
        }
      ],
      "stateMutability": "view",
      "type": "function"
    },
    {
      "inputs": [
        {
          "internalType": "uint256",
          "name": "amount",
          "type": "uint256"
        }
      ],
      "name": "stake",
      "outputs": [],
      "stateMutability": "nonpayable",
      "type": "function"
    },
    {
      "inputs": [
        {
          "internalType": "uint256",
          "name": "amount",
          "type": "uint256"
        }
      ],
      "name": "withdraw",
      "outputs": [],
      "stateMutability": "nonpayable",
      "type": "function"
    },
    {
      "inputs": [],
      "name": "exit",
      "outputs": [],
      "stateMutability": "nonpayable",
      "type": "function"
    },
    {
      "inputs": [],
      "name": "fee",
      "outputs": [
        {
          "internalType": "uint256",
          "name": "",
          "type": "uint256"
        }
      ],
      "stateMutability": "view",
      "type": "function"
    },
    {
      "inputs": [],
      "name": "slippageFee",
      "outputs": [
        {
          "internalType": "uint256",
          "name": "",
          "type": "uint256"
        }
      ],
      "stateMutability": "view",
      "type": "function"
    },
    {
      "inputs": [],
      "name": "decayPeriod",
      "outputs": [
        {
          "internalType": "uint256",
          "name": "",
          "type": "uint256"
        }
      ],
      "stateMutability": "view",
      "type": "function"
    },
    {
      "inputs": [
        {
          "internalType": "address",
          "name": "user",
          "type": "address"
        }
      ],
      "name": "feeVotes",
      "outputs": [
        {
          "internalType": "uint256",
          "name": "",
          "type": "uint256"
        }
      ],
      "stateMutability": "view",
      "type": "function"
    },
    {
      "inputs": [
        {
          "internalType": "address",
          "name": "user",
          "type": "address"
        }
      ],
      "name": "slippageFeeVotes",
      "outputs": [
        {
          "internalType": "uint256",
          "name": "",
          "type": "uint256"
        }
      ],
      "stateMutability": "view",
      "type": "function"
    },
    {
      "inputs": [
        {
          "internalType": "address",
          "name": "user",
          "type": "address"
        }
      ],
      "name": "decayPeriodVotes",
      "outputs": [
        {
          "internalType": "uint256",
          "name": "",
          "type": "uint256"
        }
      ],
      "stateMutability": "view",
      "type": "function"
    },
    {
      "inputs": [
        {
          "internalType": "uint256",
          "name": "vote",
          "type": "uint256"
        }
      ],
      "name": "feeVote",
      "outputs": [],
      "stateMutability": "nonpayable",
      "type": "function"
    },
    {
      "inputs": [
        {
          "internalType": "uint256",
          "name": "vote",
          "type": "uint256"
        }
      ],
      "name": "slippageFeeVote",
      "outputs": [],
      "stateMutability": "nonpayable",
      "type": "function"
    },
    {
      "inputs": [
        {
          "internalType": "uint256",
          "name": "vote",
          "type": "uint256"
        }
      ],
      "name": "decayPeriodVote",
      "outputs": [],
      "stateMutability": "nonpayable",
      "type": "function"
    },
    {
      "inputs": [],
      "name": "discardFeeVote",
      "outputs": [],
      "stateMutability": "nonpayable",
      "type": "function"
    },
    {
      "inputs": [],
      "name": "discardSlippageFeeVote",
      "outputs": [],
      "stateMutability": "nonpayable",
      "type": "function"
    },
    {
      "inputs": [],
      "name": "discardDecayPeriodVote",
      "outputs": [],
      "stateMutability": "nonpayable",
      "type": "function"
    }
  ],
  "bytecode": "0x60e0604052600060045560006005553480156200001b57600080fd5b50604051620022bb380380620022bb833981810160405260408110156200004157600080fd5b5080516020909101518060006200005762000144565b600080546001600160a01b0319166001600160a01b0383169081178255604051929350917f8be0079c531659141344cd1fd0a4f28419497f9722a3daafe3b4186f6b6457e0908290a3506001600160601b0319606091821b81166080529083901b1660a0526040805163d9a0c21760e01b815290516001600160a01b0384169163d9a0c217916004808301926020929190829003018186803b158015620000fd57600080fd5b505afa15801562000112573d6000803e3d6000fd5b505050506040513d60208110156200012957600080fd5b505160601b6001600160601b03191660c05250620001489050565b3390565b60805160601c60a05160601c60c05160601c6120e3620001d86000398061067c52806108a15280610fed52806110e65280611140528061136e52806114a252508061071e52806109435280610a9f5280610b4f5280610e9e5280611086528061126a528061154452806116d75280611e5e5280611ee25280611f605250806109835280610da952506120e36000f3fe608060405234801561001057600080fd5b50600436106102765760003560e01c80637b0a47ee11610160578063c8f33c91116100d8578063e9fad8ee1161008c578063ebe2b12b11610071578063ebe2b12b14610529578063f2fde38b14610531578063f76d13b41461055757610276565b8063e9fad8ee14610504578063eaadf8481461050c57610276565b8063d9a0c217116100bd578063d9a0c217146104ec578063ddca3f43146104f4578063df136d65146104fc57610276565b8063c8f33c91146104dc578063cd3daf9d146104e457610276565b80638da5cb5b1161012f57806395cad3c71161011457806395cad3c7146104735780639aad141b14610499578063a694fc3a146104bf57610276565b80638da5cb5b1461046357806393028d831461046b57610276565b80637b0a47ee146104075780637e82a6f31461040f57806380faa57d146104355780638b8763471461043d57610276565b80632e1a7d4d116101f35780633d18b912116101c25780636669302a116101a75780636669302a146103d157806370a08231146103d9578063715018a6146103ff57610276565b80633d18b912146103c157806348d67e1b146103c957610276565b80632e1a7d4d14610377578063303bfdae146103945780633732b3941461039c5780633c6b16ab146103a457610276565b8063101114cf1161024a57806318160ddd1161022f57806318160ddd1461035f5780631be052891461036757806324b049051461036f57610276565b8063101114cf1461031e57806311212d661461034257610276565b80628cc2621461027b5780630700037d146102b357806307a80070146102d95780630d68b761146102f8575b600080fd5b6102a16004803603602081101561029157600080fd5b50356001600160a01b031661055f565b60408051918252519081900360200190f35b6102a1600480360360208110156102c957600080fd5b50356001600160a01b03166105cd565b6102f6600480360360208110156102ef57600080fd5b50356105df565b005b6102f66004803603602081101561030e57600080fd5b50356001600160a01b0316610751565b6103266107f5565b604080516001600160a01b039092168252519081900360200190f35b6102f66004803603602081101561035857600080fd5b5035610804565b6102a1610973565b6102a161097a565b610326610981565b6102f66004803603602081101561038d57600080fd5b50356109a5565b610326610b4d565b6102a1610b71565b6102f6600480360360208110156103ba57600080fd5b5035610b77565b6102f6610cef565b6102a1610e5d565b6102f6610e63565b6102a1600480360360208110156103ef57600080fd5b50356001600160a01b0316610ed0565b6102f6610eeb565b6102a1610fb7565b6102a16004803603602081101561042557600080fd5b50356001600160a01b0316610fbd565b6102a1611017565b6102a16004803603602081101561045357600080fd5b50356001600160a01b031661102a565b61032661103c565b6102f661104b565b6102a16004803603602081101561048957600080fd5b50356001600160a01b03166110b6565b6102a1600480360360208110156104af57600080fd5b50356001600160a01b0316611110565b6102f6600480360360208110156104d557600080fd5b503561116a565b6102a1611318565b6102a161131e565b61032661136c565b6102a1611390565b6102a1611396565b6102f661139c565b6102f66004803603602081101561052257600080fd5b50356113b5565b6102a1611574565b6102f66004803603602081101561054757600080fd5b50356001600160a01b031661157a565b6102f661169c565b6001600160a01b03811660009081526009602090815260408083205460089092528220546105c791906105c190670de0b6b3a7640000906105bb906105ac906105a661131e565b90611707565b6105b588610ed0565b90611750565b906117a9565b906117eb565b92915050565b60096020526000908152604090205481565b670de0b6b3a764000081111561063c576040805162461bcd60e51b815260206004820152601d60248201527f536c6970706167652066656520766f746520697320746f6f2068696768000000604482015290519081900360640190fd5b3360008181526011602090815260409182902082519182019092529054815261070f919061066984611845565b61067233610ed0565b61067a610973565b7f00000000000000000000000000000000000000000000000000000000000000006001600160a01b03166323662bb96040518163ffffffff1660e01b815260040160206040518083038186803b1580156106d357600080fd5b505afa1580156106e7573d6000803e3d6000fd5b505050506040513d60208110156106fd57600080fd5b5051600e9594939291906118646118b7565b61074e600e6001600160a01b037f0000000000000000000000000000000000000000000000000000000000000000166307a8007081636669302a6118d2565b50565b610759611983565b6000546001600160a01b039081169116146107bb576040805162461bcd60e51b815260206004820181905260248201527f4f776e61626c653a2063616c6c6572206973206e6f7420746865206f776e6572604482015290519081900360640190fd5b600380547fffffffffffffffffffffffff0000000000000000000000000000000000000000166001600160a01b0392909216919091179055565b6003546001600160a01b031681565b67016345785d8a0000811115610861576040805162461bcd60e51b815260206004820152601460248201527f46656520766f746520697320746f6f2068696768000000000000000000000000604482015290519081900360640190fd5b336000818152600d6020908152604091829020825191820190925290548152610934919061088e84611845565b61089733610ed0565b61089f610973565b7f00000000000000000000000000000000000000000000000000000000000000006001600160a01b0316635a6c72d06040518163ffffffff1660e01b815260040160206040518083038186803b1580156108f857600080fd5b505afa15801561090c573d6000803e3d6000fd5b505050506040513d602081101561092257600080fd5b5051600a9594939291906119876118b7565b61074e600a6001600160a01b037f0000000000000000000000000000000000000000000000000000000000000000166311212d66816393028d836118d2565b6001545b90565b62093a8081565b7f000000000000000000000000000000000000000000000000000000000000000081565b336109ae61131e565b6007556109b9611017565b6006556001600160a01b03811615610a00576109d48161055f565b6001600160a01b0382166000908152600960209081526040808320939093556007546008909152919020555b60008211610a55576040805162461bcd60e51b815260206004820152601160248201527f43616e6e6f742077697468647261772030000000000000000000000000000000604482015290519081900360640190fd5b610a5f33836119da565b604080517fa9059cbb0000000000000000000000000000000000000000000000000000000081523360048201526024810184905290516001600160a01b037f0000000000000000000000000000000000000000000000000000000000000000169163a9059cbb9160448083019260209291908290030181600087803b158015610ae757600080fd5b505af1158015610afb573d6000803e3d6000fd5b505050506040513d6020811015610b1157600080fd5b505060408051838152905133917f7084f5476618d8e60b11ef0d7d3f06914655adb8793e28ff7f018d4c76d505d5919081900360200190a25050565b7f000000000000000000000000000000000000000000000000000000000000000081565b600e5490565b6003546001600160a01b0316610b8b611983565b6001600160a01b031614610be6576040805162461bcd60e51b815260206004820152600d60248201527f4163636573732064656e69656400000000000000000000000000000000000000604482015290519081900360640190fd5b6000610bf061131e565b600755610bfb611017565b6006556001600160a01b03811615610c4257610c168161055f565b6001600160a01b0382166000908152600960209081526040808320939093556007546008909152919020555b6004544210610c6057610c588262093a806117a9565b600555610ca2565b600454600090610c709042611707565b90506000610c896005548361175090919063ffffffff16565b9050610c9c62093a806105bb86846117eb565b60055550505b426006819055610cb59062093a806117eb565b6004556040805183815290517fde88a922e0d3b88b24e9623efeb464919c6bf9f66857a65e2bfcf2ce87a9433d9181900360200190a15050565b33610cf861131e565b600755610d03611017565b6006556001600160a01b03811615610d4a57610d1e8161055f565b6001600160a01b0382166000908152600960209081526040808320939093556007546008909152919020555b6000610d553361055f565b90508015610e595733600081815260096020908152604080832083905580517fa9059cbb000000000000000000000000000000000000000000000000000000008152600481019490945260248401859052517f00000000000000000000000000000000000000000000000000000000000000006001600160a01b03169363a9059cbb9360448083019493928390030190829087803b158015610df657600080fd5b505af1158015610e0a573d6000803e3d6000fd5b505050506040513d6020811015610e2057600080fd5b505060408051828152905133917fe2403640ba68fed3a2f88b7557551d1993f84b99bb10ff833f0cf8db0c5e0486919081900360200190a25b5050565b60125490565b33600081815260116020908152604091829020825191820190925290548152610e8f9190610669611a12565b610ece600e6001600160a01b037f0000000000000000000000000000000000000000000000000000000000000000166307a8007081636669302a6118d2565b565b6001600160a01b031660009081526002602052604090205490565b610ef3611983565b6000546001600160a01b03908116911614610f55576040805162461bcd60e51b815260206004820181905260248201527f4f776e61626c653a2063616c6c6572206973206e6f7420746865206f776e6572604482015290519081900360640190fd5b600080546040516001600160a01b03909116907f8be0079c531659141344cd1fd0a4f28419497f9722a3daafe3b4186f6b6457e0908390a3600080547fffffffffffffffffffffffff0000000000000000000000000000000000000000169055565b60055481565b6001600160a01b038181166000908152601560209081526040808320815192830190915254815290916105c791907f000000000000000000000000000000000000000000000000000000000000000016631845f0db611a2d565b600061102542600454611ac1565b905090565b60086020526000908152604090205481565b6000546001600160a01b031690565b336000818152600d6020908152604091829020825191820190925290548152611077919061088e611a12565b610ece600a6001600160a01b037f0000000000000000000000000000000000000000000000000000000000000000166311212d66816393028d836118d2565b6001600160a01b038181166000908152601160209081526040808320815192830190915254815290916105c791907f0000000000000000000000000000000000000000000000000000000000000000166323662bb9611a2d565b6001600160a01b038181166000908152600d60209081526040808320815192830190915254815290916105c791907f000000000000000000000000000000000000000000000000000000000000000016635a6c72d0611a2d565b3361117361131e565b60075561117e611017565b6006556001600160a01b038116156111c5576111998161055f565b6001600160a01b0382166000908152600960209081526040808320939093556007546008909152919020555b6000821161121a576040805162461bcd60e51b815260206004820152600e60248201527f43616e6e6f74207374616b652030000000000000000000000000000000000000604482015290519081900360640190fd5b6112243383611ad7565b604080517f23b872dd0000000000000000000000000000000000000000000000000000000081523360048201523060248201526044810184905290516001600160a01b037f000000000000000000000000000000000000000000000000000000000000000016916323b872dd9160648083019260209291908290030181600087803b1580156112b257600080fd5b505af11580156112c6573d6000803e3d6000fd5b505050506040513d60208110156112dc57600080fd5b505060408051838152905133917f9e71bc8eea02a63969f509818f2dafb9254532904319f9dbda79b67bd34a5f3d919081900360200190a25050565b60065481565b6000611328610973565b6113355750600754610977565b611025611363611343610973565b6105bb670de0b6b3a76400006105b56005546105b56006546105a6611017565b600754906117eb565b7f000000000000000000000000000000000000000000000000000000000000000081565b600a5490565b60075481565b6113ad6113a833610ed0565b6109a5565b610ece610cef565b610e1081111561140c576040805162461bcd60e51b815260206004820152601d60248201527f446563617920706572696f6420766f746520697320746f6f2068696768000000604482015290519081900360640190fd5b600f811015611462576040805162461bcd60e51b815260206004820152601c60248201527f446563617920706572696f6420766f746520697320746f6f206c6f7700000000604482015290519081900360640190fd5b33600081815260156020908152604091829020825191820190925290548152611535919061148f84611845565b61149833610ed0565b6114a0610973565b7f00000000000000000000000000000000000000000000000000000000000000006001600160a01b0316631845f0db6040518163ffffffff1660e01b815260040160206040518083038186803b1580156114f957600080fd5b505afa15801561150d573d6000803e3d6000fd5b505050506040513d602081101561152357600080fd5b50516012959493929190611afc6118b7565b61074e60126001600160a01b037f00000000000000000000000000000000000000000000000000000000000000001663eaadf8488163f76d13b46118d2565b60045481565b611582611983565b6000546001600160a01b039081169116146115e4576040805162461bcd60e51b815260206004820181905260248201527f4f776e61626c653a2063616c6c6572206973206e6f7420746865206f776e6572604482015290519081900360640190fd5b6001600160a01b0381166116295760405162461bcd60e51b81526004018080602001828103825260268152602001806120676026913960400191505060405180910390fd5b600080546040516001600160a01b03808516939216917f8be0079c531659141344cd1fd0a4f28419497f9722a3daafe3b4186f6b6457e091a3600080547fffffffffffffffffffffffff0000000000000000000000000000000000000000166001600160a01b0392909216919091179055565b336000818152601560209081526040918290208251918201909252905481526116c8919061148f611a12565b610ece60126001600160a01b037f00000000000000000000000000000000000000000000000000000000000000001663eaadf8488163f76d13b46118d2565b600061174983836040518060400160405280601e81526020017f536166654d6174683a207375627472616374696f6e206f766572666c6f770000815250611b4f565b9392505050565b60008261175f575060006105c7565b8282028284828161176c57fe5b04146117495760405162461bcd60e51b815260040180806020018281038252602181526020018061208d6021913960400191505060405180910390fd5b600061174983836040518060400160405280601a81526020017f536166654d6174683a206469766973696f6e206279207a65726f000000000000815250611be6565b600082820183811015611749576040805162461bcd60e51b815260206004820152601b60248201527f536166654d6174683a206164646974696f6e206f766572666c6f770000000000604482015290519081900360640190fd5b61184d612053565b506040805160208101909152600182018152919050565b60408051848152831515602082015280820183905290516001600160a01b038616917fce0cf859d853e1944032294143a1bf3ad799998ae77acbeb6c4d9b20d6910240919081900360600190a250505050565b6118c8888888888889898989611c4b565b5050505050505050565b60018501546119265781816040518163ffffffff1660e01b8152600401600060405180830381600087803b15801561190957600080fd5b505af115801561191d573d6000803e3d6000fd5b5050505061197c565b838386600001546040518263ffffffff1660e01b815260040180828152602001915050600060405180830381600087803b15801561196357600080fd5b505af1158015611977573d6000803e3d6000fd5b505050505b5050505050565b3390565b60408051848152831515602082015280820183905290516001600160a01b038616917fe117cae46817b894b41a4412b73ae0ba746a5707b94e02d83b4c6502010b11ac919081900360600190a250505050565b6119e48282611d8a565b60006119ef83610ed0565b9050611a0d836119ff83856117eb565b83611a08610973565b611e12565b505050565b611a1a612053565b5060408051602081019091526000815290565b825160009015611a61575082517fffffffffffffffffffffffffffffffffffffffffffffffffffffffffffffffff01611749565b82826040518163ffffffff1660e01b815260040160206040518083038186803b158015611a8d57600080fd5b505afa158015611aa1573d6000803e3d6000fd5b505050506040513d6020811015611ab757600080fd5b5051949350505050565b6000818310611ad05781611749565b5090919050565b611ae18282611f96565b6000611aec83610ed0565b9050611a0d836119ff8385611707565b60408051848152831515602082015280820183905290516001600160a01b038616917fd0784d105a7412ffec29813ff8401f04f3d1cdbe6aca756974b1a31f830e5cb7919081900360600190a250505050565b60008184841115611bde5760405162461bcd60e51b81526004018080602001828103825283818151815260200191508051906020019080838360005b83811015611ba3578181015183820152602001611b8b565b50505050905090810190601f168015611bd05780820380516001836020036101000a031916815260200191505b509250505060405180910390fd5b505050900390565b60008183611c355760405162461bcd60e51b8152602060048201818152835160248401528351909283926044909101919085019080838360008315611ba3578181015183820152602001611b8b565b506000838581611c4157fe5b0495945050505050565b600189015460028a0154819080611c618b611fe9565b15611c7757611c70818a611707565b9050611c98565b611c95611c8e611c878d89611fee565b8b90611750565b8490611707565b92505b611ca18a611fe9565b15611cb757611cb081896117eb565b9050611cd8565b611cd5611cce611cc78c89611fee565b8a90611750565b84906117eb565b92505b838314611ce75760018d018390555b818114611cf65760028d018190555b60008715611d1b57611d16886105bb611d0f858b611750565b87906117eb565b611d1d565b865b8e549091508114611d2c57808e555b611d368b8d612028565b611d59576001600160a01b038d16600090815260038f01602052604090208b5190555b611d7a8d611d678d8a611fee565b611d708e611fe9565b8c8a63ffffffff16565b5050505050505050505050505050565b604080518082018252601b81527f4275726e20616d6f756e7420657863656564732062616c616e636500000000006020808301919091526001600160a01b038516600090815260029091529190912054611de5918390611b4f565b6001600160a01b038316600090815260026020526040902055600154611e0b9082611707565b6001555050565b6001600160a01b0384166000908152600d602090815260408083208151928301909152548152611e4f91600a91879187908790879061198761202f565b611e8e600a6001600160a01b037f0000000000000000000000000000000000000000000000000000000000000000166311212d66816393028d836118d2565b6001600160a01b038416600090815260116020908152604091829020825191820190925290548152611ed390600e90869086868667016345785d8a000061186461202f565b611f12600e6001600160a01b037f0000000000000000000000000000000000000000000000000000000000000000166307a8007081636669302a6118d2565b6001600160a01b038416600090815260156020908152604091829020825191820190925290548152611f5190601290869086868661012c611afc61202f565b611f9060126001600160a01b037f00000000000000000000000000000000000000000000000000000000000000001663eaadf8488163f76d13b46118d2565b50505050565b600154611fa390826117eb565b6001556001600160a01b038216600090815260026020526040902054611fc990826117eb565b6001600160a01b0390921660009081526002602052604090209190915550565b511590565b815160009015612022575081517fffffffffffffffffffffffffffffffffffffffffffffffffffffffffffffffff016105c7565b50919050565b5190511490565b6118c888888887156120415789612049565b612049611a12565b8989898989611c4b565b604051806020016040528060008152509056fe4f776e61626c653a206e6577206f776e657220697320746865207a65726f2061646472657373536166654d6174683a206d756c7469706c69636174696f6e206f766572666c6f77a2646970667358221220b1aadd775e1db17be06ce2052515ab57220c71cb4ec3aa3910d77208989cb49f64736f6c634300060c0033",
  "immutableReferences": {
    "5461": [
      {
        "length": 32,
        "start": 1822
      },
      {
        "length": 32,
        "start": 2371
      },
      {
        "length": 32,
        "start": 2719
      },
      {
        "length": 32,
        "start": 2895
      },
      {
        "length": 32,
        "start": 3742
      },
      {
        "length": 32,
        "start": 4230
      },
      {
        "length": 32,
        "start": 4714
      },
      {
        "length": 32,
        "start": 5444
      },
      {
        "length": 32,
        "start": 5847
      },
      {
        "length": 32,
        "start": 7774
      },
      {
        "length": 32,
        "start": 7906
      },
      {
        "length": 32,
        "start": 8032
      }
    ],
    "5463": [
      {
        "length": 32,
        "start": 1660
      },
      {
        "length": 32,
        "start": 2209
      },
      {
        "length": 32,
        "start": 4077
      },
      {
        "length": 32,
        "start": 4326
      },
      {
        "length": 32,
        "start": 4416
      },
      {
        "length": 32,
        "start": 4974
      },
      {
        "length": 32,
        "start": 5282
      }
    ],
    "8375": [
      {
        "length": 32,
        "start": 2435
      },
      {
        "length": 32,
        "start": 3497
      }
    ]
  },
  "source": "// SPDX-License-Identifier: MIT\n\npragma solidity ^0.6.12;\n\nimport \"../../Mooniswap.sol\";\nimport \"../../libraries/Voting.sol\";\nimport \"../../utils/BaseRewards.sol\";\n\n\ncontract FarmingRewards is MooniswapConstants, BaseRewards {\n    using Vote for Vote.Data;\n    using Voting for Voting.Data;\n\n    event Staked(address indexed user, uint256 amount);\n    event Withdrawn(address indexed user, uint256 amount);\n    event FeeVoteUpdate(address indexed user, uint256 fee, bool isDefault, uint256 amount);\n\n    event SlippageFeeVoteUpdate(address indexed user, uint256 slippageFee, bool isDefault, uint256 amount);\n    event DecayPeriodVoteUpdate(address indexed user, uint256 decayPeriod, bool isDefault, uint256 amount);\n\n    Mooniswap public immutable mooniswap;\n    IMooniswapFactoryGovernance public immutable mooniswapFactoryGovernance;\n    Voting.Data private _fee;\n    Voting.Data private _slippageFee;\n    Voting.Data private _decayPeriod;\n\n    constructor(Mooniswap _mooniswap, IERC20 _gift) public BaseRewards(_gift) {\n        mooniswap = _mooniswap;\n        mooniswapFactoryGovernance = _mooniswap.mooniswapFactoryGovernance();\n    }\n\n    function stake(uint256 amount) public updateReward(msg.sender) {\n        require(amount > 0, \"Cannot stake 0\");\n        _mint(msg.sender, amount);\n        mooniswap.transferFrom(msg.sender, address(this), amount);\n        emit Staked(msg.sender, amount);\n    }\n\n    function withdraw(uint256 amount) public updateReward(msg.sender) {\n        require(amount > 0, \"Cannot withdraw 0\");\n        _burn(msg.sender, amount);\n        mooniswap.transfer(msg.sender, amount);\n        emit Withdrawn(msg.sender, amount);\n    }\n\n    function exit() external {\n        withdraw(balanceOf(msg.sender));\n        getReward();\n    }\n\n    function fee() public view returns(uint256) {\n        return _fee.result;\n    }\n\n    function slippageFee() public view returns(uint256) {\n        return _slippageFee.result;\n    }\n\n    function decayPeriod() public view returns(uint256) {\n        return _decayPeriod.result;\n    }\n\n    function feeVotes(address user) external view returns(uint256) {\n        return _fee.votes[user].get(mooniswapFactoryGovernance.defaultFee);\n    }\n\n    function slippageFeeVotes(address user) external view returns(uint256) {\n        return _slippageFee.votes[user].get(mooniswapFactoryGovernance.defaultSlippageFee);\n    }\n\n    function decayPeriodVotes(address user) external view returns(uint256) {\n        return _decayPeriod.votes[user].get(mooniswapFactoryGovernance.defaultDecayPeriod);\n    }\n\n    function feeVote(uint256 vote) external {\n        require(vote <= _MAX_FEE, \"Fee vote is too high\");\n\n        _fee.updateVote(msg.sender, _fee.votes[msg.sender], Vote.init(vote), balanceOf(msg.sender), totalSupply(), mooniswapFactoryGovernance.defaultFee(), _emitFeeVoteUpdate);\n        _vote(_fee, mooniswap.feeVote, mooniswap.discardFeeVote);\n    }\n\n    function slippageFeeVote(uint256 vote) external {\n        require(vote <= _MAX_SLIPPAGE_FEE, \"Slippage fee vote is too high\");\n\n        _slippageFee.updateVote(msg.sender, _slippageFee.votes[msg.sender], Vote.init(vote), balanceOf(msg.sender), totalSupply(), mooniswapFactoryGovernance.defaultSlippageFee(), _emitSlippageFeeVoteUpdate);\n        _vote(_slippageFee, mooniswap.slippageFeeVote, mooniswap.discardSlippageFeeVote);\n    }\n\n    function decayPeriodVote(uint256 vote) external {\n        require(vote <= _MAX_DECAY_PERIOD, \"Decay period vote is too high\");\n        require(vote >= _MIN_DECAY_PERIOD, \"Decay period vote is too low\");\n\n        _decayPeriod.updateVote(msg.sender, _decayPeriod.votes[msg.sender], Vote.init(vote), balanceOf(msg.sender), totalSupply(), mooniswapFactoryGovernance.defaultDecayPeriod(), _emitDecayPeriodVoteUpdate);\n        _vote(_decayPeriod, mooniswap.decayPeriodVote, mooniswap.discardDecayPeriodVote);\n    }\n\n    function discardFeeVote() external {\n        _fee.updateVote(msg.sender, _fee.votes[msg.sender], Vote.init(), balanceOf(msg.sender), totalSupply(), mooniswapFactoryGovernance.defaultFee(), _emitFeeVoteUpdate);\n        _vote(_fee, mooniswap.feeVote, mooniswap.discardFeeVote);\n    }\n\n    function discardSlippageFeeVote() external {\n        _slippageFee.updateVote(msg.sender, _slippageFee.votes[msg.sender], Vote.init(), balanceOf(msg.sender), totalSupply(), mooniswapFactoryGovernance.defaultSlippageFee(), _emitSlippageFeeVoteUpdate);\n        _vote(_slippageFee, mooniswap.slippageFeeVote, mooniswap.discardSlippageFeeVote);\n    }\n\n    function discardDecayPeriodVote() external {\n        _decayPeriod.updateVote(msg.sender, _decayPeriod.votes[msg.sender], Vote.init(), balanceOf(msg.sender), totalSupply(), mooniswapFactoryGovernance.defaultDecayPeriod(), _emitDecayPeriodVoteUpdate);\n        _vote(_decayPeriod, mooniswap.decayPeriodVote, mooniswap.discardDecayPeriodVote);\n    }\n\n    function _mint(address account, uint256 amount) internal override {\n        super._mint(account, amount);\n\n        uint256 newBalance = balanceOf(account);\n        _updateVotes(account, newBalance.sub(amount), newBalance, totalSupply());\n    }\n\n    function _burn(address account, uint256 amount) internal override {\n        super._burn(account, amount);\n\n        uint256 newBalance = balanceOf(account);\n        _updateVotes(account, newBalance.add(amount), newBalance, totalSupply());\n    }\n\n    function _updateVotes(address account, uint256 balance, uint256 newBalance, uint256 newTotalSupply) private {\n        _fee.updateBalance(account, _fee.votes[account], balance, newBalance, newTotalSupply, _DEFAULT_FEE, _emitFeeVoteUpdate);\n        _vote(_fee, mooniswap.feeVote, mooniswap.discardFeeVote);\n        _slippageFee.updateBalance(account, _slippageFee.votes[account], balance, newBalance, newTotalSupply, _DEFAULT_SLIPPAGE_FEE, _emitSlippageFeeVoteUpdate);\n        _vote(_slippageFee, mooniswap.slippageFeeVote, mooniswap.discardSlippageFeeVote);\n        _decayPeriod.updateBalance(account, _decayPeriod.votes[account], balance, newBalance, newTotalSupply, _DEFAULT_DECAY_PERIOD, _emitDecayPeriodVoteUpdate);\n        _vote(_decayPeriod, mooniswap.decayPeriodVote, mooniswap.discardDecayPeriodVote);\n    }\n\n    function _vote(Voting.Data storage votingData, function(uint256) external vote, function() external discardVote) private {\n        if (votingData._weightedSum == 0) {\n            discardVote();\n        } else {\n            vote(votingData.result);\n        }\n    }\n\n    function _emitFeeVoteUpdate(address account, uint256 newFee, bool isDefault, uint256 newBalance) private {\n        emit FeeVoteUpdate(account, newFee, isDefault, newBalance);\n    }\n\n    function _emitSlippageFeeVoteUpdate(address account, uint256 newSlippageFee, bool isDefault, uint256 newBalance) private {\n        emit SlippageFeeVoteUpdate(account, newSlippageFee, isDefault, newBalance);\n    }\n\n    function _emitDecayPeriodVoteUpdate(address account, uint256 newDecayPeriod, bool isDefault, uint256 newBalance) private {\n        emit DecayPeriodVoteUpdate(account, newDecayPeriod, isDefault, newBalance);\n    }\n}\n",
  "sourcePath": "/Users/zumzoom/Projects/1inch/mooniswap-v2/contracts/inch/farming/FarmingRewards.sol",
  "compiler": {
    "name": "solc",
    "version": "0.6.12+commit.27d51765.Emscripten.clang"
  },
  "schemaVersion": "3.3.2",
  "updatedAt": "2020-12-17T12:14:22.092Z",
  "devdoc": {
    "kind": "dev",
    "methods": {
      "owner()": {
        "details": "Returns the address of the current owner."
      },
      "renounceOwnership()": {
        "details": "Leaves the contract without owner. It will not be possible to call `onlyOwner` functions anymore. Can only be called by the current owner. NOTE: Renouncing ownership will leave the contract without an owner, thereby removing any functionality that is only available to the owner."
      },
      "transferOwnership(address)": {
        "details": "Transfers ownership of the contract to a new account (`newOwner`). Can only be called by the current owner."
      }
    },
    "version": 1
  },
  "userdoc": {
    "kind": "user",
    "methods": {},
    "version": 1
  }
}