{
  "contractName": "FarmingRewards",
  "abi": [
    {
      "inputs": [
        {
          "internalType": "contract Mooniswap",
          "name": "_mooniswap",
          "type": "address"
        },
        {
          "internalType": "contract IERC20",
          "name": "_gift",
          "type": "address"
        }
      ],
      "stateMutability": "nonpayable",
      "type": "constructor"
    },
    {
      "anonymous": false,
      "inputs": [
        {
          "indexed": true,
          "internalType": "address",
          "name": "user",
          "type": "address"
        },
        {
          "indexed": false,
          "internalType": "uint256",
          "name": "decayPeriod",
          "type": "uint256"
        },
        {
          "indexed": false,
          "internalType": "bool",
          "name": "isDefault",
          "type": "bool"
        },
        {
          "indexed": false,
          "internalType": "uint256",
          "name": "amount",
          "type": "uint256"
        }
      ],
      "name": "DecayPeriodVoteUpdate",
      "type": "event"
    },
    {
      "anonymous": false,
      "inputs": [
        {
          "indexed": true,
          "internalType": "address",
          "name": "user",
          "type": "address"
        },
        {
          "indexed": false,
          "internalType": "uint256",
          "name": "fee",
          "type": "uint256"
        },
        {
          "indexed": false,
          "internalType": "bool",
          "name": "isDefault",
          "type": "bool"
        },
        {
          "indexed": false,
          "internalType": "uint256",
          "name": "amount",
          "type": "uint256"
        }
      ],
      "name": "FeeVoteUpdate",
      "type": "event"
    },
    {
      "anonymous": false,
      "inputs": [
        {
          "indexed": true,
          "internalType": "address",
          "name": "previousOwner",
          "type": "address"
        },
        {
          "indexed": true,
          "internalType": "address",
          "name": "newOwner",
          "type": "address"
        }
      ],
      "name": "OwnershipTransferred",
      "type": "event"
    },
    {
      "anonymous": false,
      "inputs": [
        {
          "indexed": false,
          "internalType": "uint256",
          "name": "reward",
          "type": "uint256"
        }
      ],
      "name": "RewardAdded",
      "type": "event"
    },
    {
      "anonymous": false,
      "inputs": [
        {
          "indexed": true,
          "internalType": "address",
          "name": "user",
          "type": "address"
        },
        {
          "indexed": false,
          "internalType": "uint256",
          "name": "reward",
          "type": "uint256"
        }
      ],
      "name": "RewardPaid",
      "type": "event"
    },
    {
      "anonymous": false,
      "inputs": [
        {
          "indexed": true,
          "internalType": "address",
          "name": "user",
          "type": "address"
        },
        {
          "indexed": false,
          "internalType": "uint256",
          "name": "slippageFee",
          "type": "uint256"
        },
        {
          "indexed": false,
          "internalType": "bool",
          "name": "isDefault",
          "type": "bool"
        },
        {
          "indexed": false,
          "internalType": "uint256",
          "name": "amount",
          "type": "uint256"
        }
      ],
      "name": "SlippageFeeVoteUpdate",
      "type": "event"
    },
    {
      "anonymous": false,
      "inputs": [
        {
          "indexed": true,
          "internalType": "address",
          "name": "user",
          "type": "address"
        },
        {
          "indexed": false,
          "internalType": "uint256",
          "name": "amount",
          "type": "uint256"
        }
      ],
      "name": "Staked",
      "type": "event"
    },
    {
      "anonymous": false,
      "inputs": [
        {
          "indexed": true,
          "internalType": "address",
          "name": "from",
          "type": "address"
        },
        {
          "indexed": true,
          "internalType": "address",
          "name": "to",
          "type": "address"
        },
        {
          "indexed": false,
          "internalType": "uint256",
          "name": "value",
          "type": "uint256"
        }
      ],
      "name": "Transfer",
      "type": "event"
    },
    {
      "anonymous": false,
      "inputs": [
        {
          "indexed": true,
          "internalType": "address",
          "name": "user",
          "type": "address"
        },
        {
          "indexed": false,
          "internalType": "uint256",
          "name": "amount",
          "type": "uint256"
        }
      ],
      "name": "Withdrawn",
      "type": "event"
    },
    {
      "inputs": [],
      "name": "DURATION",
      "outputs": [
        {
          "internalType": "uint256",
          "name": "",
          "type": "uint256"
        }
      ],
      "stateMutability": "view",
      "type": "function"
    },
    {
      "inputs": [
        {
          "internalType": "address",
          "name": "account",
          "type": "address"
        }
      ],
      "name": "balanceOf",
      "outputs": [
        {
          "internalType": "uint256",
          "name": "",
          "type": "uint256"
        }
      ],
      "stateMutability": "view",
      "type": "function"
    },
    {
      "inputs": [
        {
          "internalType": "address",
          "name": "account",
          "type": "address"
        }
      ],
      "name": "earned",
      "outputs": [
        {
          "internalType": "uint256",
          "name": "",
          "type": "uint256"
        }
      ],
      "stateMutability": "view",
      "type": "function"
    },
    {
      "inputs": [],
      "name": "getReward",
      "outputs": [],
      "stateMutability": "nonpayable",
      "type": "function"
    },
    {
      "inputs": [],
      "name": "gift",
      "outputs": [
        {
          "internalType": "contract IERC20",
          "name": "",
          "type": "address"
        }
      ],
      "stateMutability": "view",
      "type": "function"
    },
    {
      "inputs": [],
      "name": "lastTimeRewardApplicable",
      "outputs": [
        {
          "internalType": "uint256",
          "name": "",
          "type": "uint256"
        }
      ],
      "stateMutability": "view",
      "type": "function"
    },
    {
      "inputs": [],
      "name": "lastUpdateTime",
      "outputs": [
        {
          "internalType": "uint256",
          "name": "",
          "type": "uint256"
        }
      ],
      "stateMutability": "view",
      "type": "function"
    },
    {
      "inputs": [],
      "name": "mooniswap",
      "outputs": [
        {
          "internalType": "contract Mooniswap",
          "name": "",
          "type": "address"
        }
      ],
      "stateMutability": "view",
      "type": "function"
    },
    {
      "inputs": [],
      "name": "mooniswapFactoryGovernance",
      "outputs": [
        {
          "internalType": "contract IMooniswapFactoryGovernance",
          "name": "",
          "type": "address"
        }
      ],
      "stateMutability": "view",
      "type": "function"
    },
    {
      "inputs": [
        {
          "internalType": "uint256",
          "name": "reward",
          "type": "uint256"
        }
      ],
      "name": "notifyRewardAmount",
      "outputs": [],
      "stateMutability": "nonpayable",
      "type": "function"
    },
    {
      "inputs": [],
      "name": "owner",
      "outputs": [
        {
          "internalType": "address",
          "name": "",
          "type": "address"
        }
      ],
      "stateMutability": "view",
      "type": "function"
    },
    {
      "inputs": [],
      "name": "periodFinish",
      "outputs": [
        {
          "internalType": "uint256",
          "name": "",
          "type": "uint256"
        }
      ],
      "stateMutability": "view",
      "type": "function"
    },
    {
      "inputs": [],
      "name": "renounceOwnership",
      "outputs": [],
      "stateMutability": "nonpayable",
      "type": "function"
    },
    {
      "inputs": [],
      "name": "rewardDistribution",
      "outputs": [
        {
          "internalType": "address",
          "name": "",
          "type": "address"
        }
      ],
      "stateMutability": "view",
      "type": "function"
    },
    {
      "inputs": [],
      "name": "rewardPerToken",
      "outputs": [
        {
          "internalType": "uint256",
          "name": "",
          "type": "uint256"
        }
      ],
      "stateMutability": "view",
      "type": "function"
    },
    {
      "inputs": [],
      "name": "rewardPerTokenStored",
      "outputs": [
        {
          "internalType": "uint256",
          "name": "",
          "type": "uint256"
        }
      ],
      "stateMutability": "view",
      "type": "function"
    },
    {
      "inputs": [],
      "name": "rewardRate",
      "outputs": [
        {
          "internalType": "uint256",
          "name": "",
          "type": "uint256"
        }
      ],
      "stateMutability": "view",
      "type": "function"
    },
    {
      "inputs": [
        {
          "internalType": "address",
          "name": "",
          "type": "address"
        }
      ],
      "name": "rewards",
      "outputs": [
        {
          "internalType": "uint256",
          "name": "",
          "type": "uint256"
        }
      ],
      "stateMutability": "view",
      "type": "function"
    },
    {
      "inputs": [
        {
          "internalType": "address",
          "name": "_rewardDistribution",
          "type": "address"
        }
      ],
      "name": "setRewardDistribution",
      "outputs": [],
      "stateMutability": "nonpayable",
      "type": "function"
    },
    {
      "inputs": [],
      "name": "totalSupply",
      "outputs": [
        {
          "internalType": "uint256",
          "name": "",
          "type": "uint256"
        }
      ],
      "stateMutability": "view",
      "type": "function"
    },
    {
      "inputs": [
        {
          "internalType": "address",
          "name": "newOwner",
          "type": "address"
        }
      ],
      "name": "transferOwnership",
      "outputs": [],
      "stateMutability": "nonpayable",
      "type": "function"
    },
    {
      "inputs": [
        {
          "internalType": "address",
          "name": "",
          "type": "address"
        }
      ],
      "name": "userRewardPerTokenPaid",
      "outputs": [
        {
          "internalType": "uint256",
          "name": "",
          "type": "uint256"
        }
      ],
      "stateMutability": "view",
      "type": "function"
    },
    {
      "inputs": [],
      "name": "name",
      "outputs": [
        {
          "internalType": "string",
          "name": "",
          "type": "string"
        }
      ],
      "stateMutability": "view",
      "type": "function"
    },
    {
      "inputs": [],
      "name": "symbol",
      "outputs": [
        {
          "internalType": "string",
          "name": "",
          "type": "string"
        }
      ],
      "stateMutability": "view",
      "type": "function"
    },
    {
      "inputs": [],
      "name": "decimals",
      "outputs": [
        {
          "internalType": "uint8",
          "name": "",
          "type": "uint8"
        }
      ],
      "stateMutability": "view",
      "type": "function"
    },
    {
      "inputs": [
        {
          "internalType": "uint256",
          "name": "amount",
          "type": "uint256"
        }
      ],
      "name": "stake",
      "outputs": [],
      "stateMutability": "nonpayable",
      "type": "function"
    },
    {
      "inputs": [
        {
          "internalType": "uint256",
          "name": "amount",
          "type": "uint256"
        }
      ],
      "name": "withdraw",
      "outputs": [],
      "stateMutability": "nonpayable",
      "type": "function"
    },
    {
      "inputs": [],
      "name": "exit",
      "outputs": [],
      "stateMutability": "nonpayable",
      "type": "function"
    },
    {
      "inputs": [],
      "name": "fee",
      "outputs": [
        {
          "internalType": "uint256",
          "name": "",
          "type": "uint256"
        }
      ],
      "stateMutability": "view",
      "type": "function"
    },
    {
      "inputs": [],
      "name": "slippageFee",
      "outputs": [
        {
          "internalType": "uint256",
          "name": "",
          "type": "uint256"
        }
      ],
      "stateMutability": "view",
      "type": "function"
    },
    {
      "inputs": [],
      "name": "decayPeriod",
      "outputs": [
        {
          "internalType": "uint256",
          "name": "",
          "type": "uint256"
        }
      ],
      "stateMutability": "view",
      "type": "function"
    },
    {
      "inputs": [
        {
          "internalType": "address",
          "name": "user",
          "type": "address"
        }
      ],
      "name": "feeVotes",
      "outputs": [
        {
          "internalType": "uint256",
          "name": "",
          "type": "uint256"
        }
      ],
      "stateMutability": "view",
      "type": "function"
    },
    {
      "inputs": [
        {
          "internalType": "address",
          "name": "user",
          "type": "address"
        }
      ],
      "name": "slippageFeeVotes",
      "outputs": [
        {
          "internalType": "uint256",
          "name": "",
          "type": "uint256"
        }
      ],
      "stateMutability": "view",
      "type": "function"
    },
    {
      "inputs": [
        {
          "internalType": "address",
          "name": "user",
          "type": "address"
        }
      ],
      "name": "decayPeriodVotes",
      "outputs": [
        {
          "internalType": "uint256",
          "name": "",
          "type": "uint256"
        }
      ],
      "stateMutability": "view",
      "type": "function"
    },
    {
      "inputs": [
        {
          "internalType": "uint256",
          "name": "vote",
          "type": "uint256"
        }
      ],
      "name": "feeVote",
      "outputs": [],
      "stateMutability": "nonpayable",
      "type": "function"
    },
    {
      "inputs": [
        {
          "internalType": "uint256",
          "name": "vote",
          "type": "uint256"
        }
      ],
      "name": "slippageFeeVote",
      "outputs": [],
      "stateMutability": "nonpayable",
      "type": "function"
    },
    {
      "inputs": [
        {
          "internalType": "uint256",
          "name": "vote",
          "type": "uint256"
        }
      ],
      "name": "decayPeriodVote",
      "outputs": [],
      "stateMutability": "nonpayable",
      "type": "function"
    },
    {
      "inputs": [],
      "name": "discardFeeVote",
      "outputs": [],
      "stateMutability": "nonpayable",
      "type": "function"
    },
    {
      "inputs": [],
      "name": "discardSlippageFeeVote",
      "outputs": [],
      "stateMutability": "nonpayable",
      "type": "function"
    },
    {
      "inputs": [],
      "name": "discardDecayPeriodVote",
      "outputs": [],
      "stateMutability": "nonpayable",
      "type": "function"
    }
  ],
  "bytecode": "0x60e06040523480156200001157600080fd5b506040516200279c3803806200279c833981810160405260408110156200003757600080fd5b5080516020909101518060006200004d6200013a565b600080546001600160a01b0319166001600160a01b0383169081178255604051929350917f8be0079c531659141344cd1fd0a4f28419497f9722a3daafe3b4186f6b6457e0908290a3506001600160601b0319606091821b81166080529083901b1660a0526040805163d9a0c21760e01b815290516001600160a01b0384169163d9a0c217916004808301926020929190829003018186803b158015620000f357600080fd5b505afa15801562000108573d6000803e3d6000fd5b505050506040513d60208110156200011f57600080fd5b505160601b6001600160601b03191660c052506200013e9050565b3390565b60805160601c60a05160601c60c05160601c6125bf620001dd6000398061094c5280610b6552806113375280611430528061162b528061189252806119c65250806106c552806109ee5280610c075280610d495280610e315280610e5752806111f352806113d0528061145e528061174b5280611a685280611bf0528061235952806123dd528061245a525080610c4652806110fe52506125bf6000f3fe608060405234801561001057600080fd5b50600436106102c75760003560e01c80637b0a47ee1161017b578063c8f33c91116100d8578063e9fad8ee1161008c578063ebe2b12b11610071578063ebe2b12b1461061d578063f2fde38b14610625578063f76d13b41461064b576102c7565b8063e9fad8ee146105f8578063eaadf84814610600576102c7565b8063d9a0c217116100bd578063d9a0c217146105e0578063ddca3f43146105e8578063df136d65146105f0576102c7565b8063c8f33c91146105d0578063cd3daf9d146105d8576102c7565b806393028d831161012f57806395d89b411161011457806395d89b41146105855780639aad141b1461058d578063a694fc3a146105b3576102c7565b806393028d831461055757806395cad3c71461055f576102c7565b806380faa57d1161016057806380faa57d146105215780638b876347146105295780638da5cb5b1461054f576102c7565b80637b0a47ee146104f35780637e82a6f3146104fb576102c7565b80632e1a7d4d116102295780633d18b912116101dd5780636669302a116101c25780636669302a146104bd57806370a08231146104c5578063715018a6146104eb576102c7565b80633d18b912146104ad57806348d67e1b146104b5576102c7565b8063313ce5671161020e578063313ce5671461046a5780633732b394146104885780633c6b16ab14610490576102c7565b80632e1a7d4d14610445578063303bfdae14610462576102c7565b8063101114cf1161028057806318160ddd1161026557806318160ddd1461042d5780631be052891461043557806324b049051461043d576102c7565b8063101114cf146103ec57806311212d6614610410576102c7565b80630700037d116102b15780630700037d1461038157806307a80070146103a75780630d68b761146103c6576102c7565b80628cc262146102cc57806306fdde0314610304575b600080fd5b6102f2600480360360208110156102e257600080fd5b50356001600160a01b0316610653565b60408051918252519081900360200190f35b61030c6106c1565b6040805160208082528351818301528351919283929083019185019080838360005b8381101561034657818101518382015260200161032e565b50505050905090810190601f1680156103735780820380516001836020036101000a031916815260200191505b509250505060405180910390f35b6102f26004803603602081101561039757600080fd5b50356001600160a01b031661089d565b6103c4600480360360208110156103bd57600080fd5b50356108af565b005b6103c4600480360360208110156103dc57600080fd5b50356001600160a01b0316610a21565b6103f4610aba565b604080516001600160a01b039092168252519081900360200190f35b6103c46004803603602081101561042657600080fd5b5035610ac9565b6102f2610c37565b6102f2610c3d565b6103f4610c44565b6103c46004803603602081101561045b57600080fd5b5035610c68565b6103f4610e2f565b610472610e53565b6040805160ff9092168252519081900360200190f35b6102f2610edf565b6103c4600480360360208110156104a657600080fd5b5035610ee5565b6103c461105d565b6102f26111b2565b6103c46111b8565b6102f2600480360360208110156104db57600080fd5b50356001600160a01b0316611225565b6103c4611240565b6102f2611301565b6102f26004803603602081101561051157600080fd5b50356001600160a01b0316611307565b6102f2611361565b6102f26004803603602081101561053f57600080fd5b50356001600160a01b0316611374565b6103f4611386565b6103c4611395565b6102f26004803603602081101561057557600080fd5b50356001600160a01b0316611400565b61030c61145a565b6102f2600480360360208110156105a357600080fd5b50356001600160a01b03166115fb565b6103c4600480360360208110156105c957600080fd5b5035611655565b6102f261183c565b6102f2611842565b6103f4611890565b6102f26118b4565b6102f26118ba565b6103c46118c0565b6103c46004803603602081101561061657600080fd5b50356118d9565b6102f2611a98565b6103c46004803603602081101561063b57600080fd5b50356001600160a01b0316611a9e565b6103c4611bb5565b6001600160a01b03811660009081526009602090815260408083205460089092528220546106bb91906106b590670de0b6b3a7640000906106af906106a09061069a611842565b90611c20565b6106a988611225565b90611c69565b90611cc2565b90611d04565b92915050565b60607f00000000000000000000000000000000000000000000000000000000000000006001600160a01b03166306fdde036040518163ffffffff1660e01b815260040160006040518083038186803b15801561071c57600080fd5b505afa158015610730573d6000803e3d6000fd5b505050506040513d6000823e601f3d908101601f19168201604052602081101561075957600080fd5b810190808051604051939291908464010000000082111561077957600080fd5b90830190602082018581111561078e57600080fd5b82516401000000008111828201881017156107a857600080fd5b82525081516020918201929091019080838360005b838110156107d55781810151838201526020016107bd565b50505050905090810190601f1680156108025780820380516001836020036101000a031916815260200191505b5060405250505060405160200180807f4661726d696e673a20000000000000000000000000000000000000000000000081525060090182805190602001908083835b602083106108635780518252601f199092019160209182019101610844565b6001836020036101000a03801982511681845116808217855250505050505090500191505060405160208183030381529060405290505b90565b60096020526000908152604090205481565b670de0b6b3a764000081111561090c576040805162461bcd60e51b815260206004820152601d60248201527f536c6970706167652066656520766f746520697320746f6f2068696768000000604482015290519081900360640190fd5b336000818152601160209081526040918290208251918201909252905481526109df919061093984611d5e565b61094233611225565b61094a610c37565b7f00000000000000000000000000000000000000000000000000000000000000006001600160a01b03166323662bb96040518163ffffffff1660e01b815260040160206040518083038186803b1580156109a357600080fd5b505afa1580156109b7573d6000803e3d6000fd5b505050506040513d60208110156109cd57600080fd5b5051600e959493929190611d7d611dd0565b610a1e600e6001600160a01b037f0000000000000000000000000000000000000000000000000000000000000000166307a8007081636669302a611deb565b50565b610a29611e9c565b6000546001600160a01b03908116911614610a8b576040805162461bcd60e51b815260206004820181905260248201527f4f776e61626c653a2063616c6c6572206973206e6f7420746865206f776e6572604482015290519081900360640190fd5b6003805473ffffffffffffffffffffffffffffffffffffffff19166001600160a01b0392909216919091179055565b6003546001600160a01b031681565b662386f26fc10000811115610b25576040805162461bcd60e51b815260206004820152601460248201527f46656520766f746520697320746f6f2068696768000000000000000000000000604482015290519081900360640190fd5b336000818152600d6020908152604091829020825191820190925290548152610bf89190610b5284611d5e565b610b5b33611225565b610b63610c37565b7f00000000000000000000000000000000000000000000000000000000000000006001600160a01b0316635a6c72d06040518163ffffffff1660e01b815260040160206040518083038186803b158015610bbc57600080fd5b505afa158015610bd0573d6000803e3d6000fd5b505050506040513d6020811015610be657600080fd5b5051600a959493929190611ea0611dd0565b610a1e600a6001600160a01b037f0000000000000000000000000000000000000000000000000000000000000000166311212d66816393028d83611deb565b60015490565b62093a8081565b7f000000000000000000000000000000000000000000000000000000000000000081565b33610c71611842565b600755610c7c611361565b6006556001600160a01b03811615610cc357610c9781610653565b6001600160a01b0382166000908152600960209081526040808320939093556007546008909152919020555b60008211610d18576040805162461bcd60e51b815260206004820152601160248201527f43616e6e6f742077697468647261772030000000000000000000000000000000604482015290519081900360640190fd5b610d223383611ef3565b6040805163a9059cbb60e01b81523360048201526024810184905290516001600160a01b037f0000000000000000000000000000000000000000000000000000000000000000169163a9059cbb9160448083019260209291908290030181600087803b158015610d9157600080fd5b505af1158015610da5573d6000803e3d6000fd5b505050506040513d6020811015610dbb57600080fd5b505060408051838152905133917f7084f5476618d8e60b11ef0d7d3f06914655adb8793e28ff7f018d4c76d505d5919081900360200190a260408051838152905160009133917fddf252ad1be2c89b69c2b068fc378daa952ba7f163c4a11628f55a4df523b3ef9181900360200190a35050565b7f000000000000000000000000000000000000000000000000000000000000000081565b60007f00000000000000000000000000000000000000000000000000000000000000006001600160a01b031663313ce5676040518163ffffffff1660e01b815260040160206040518083038186803b158015610eae57600080fd5b505afa158015610ec2573d6000803e3d6000fd5b505050506040513d6020811015610ed857600080fd5b5051905090565b600e5490565b6003546001600160a01b0316610ef9611e9c565b6001600160a01b031614610f54576040805162461bcd60e51b815260206004820152600d60248201527f4163636573732064656e69656400000000000000000000000000000000000000604482015290519081900360640190fd5b6000610f5e611842565b600755610f69611361565b6006556001600160a01b03811615610fb057610f8481610653565b6001600160a01b0382166000908152600960209081526040808320939093556007546008909152919020555b6004544210610fce57610fc68262093a80611cc2565b600555611010565b600454600090610fde9042611c20565b90506000610ff760055483611c6990919063ffffffff16565b905061100a62093a806106af8684611d04565b60055550505b4260068190556110239062093a80611d04565b6004556040805183815290517fde88a922e0d3b88b24e9623efeb464919c6bf9f66857a65e2bfcf2ce87a9433d9181900360200190a15050565b33611066611842565b600755611071611361565b6006556001600160a01b038116156110b85761108c81610653565b6001600160a01b0382166000908152600960209081526040808320939093556007546008909152919020555b60006110c333610653565b905080156111ae57336000818152600960209081526040808320839055805163a9059cbb60e01b8152600481019490945260248401859052517f00000000000000000000000000000000000000000000000000000000000000006001600160a01b03169363a9059cbb9360448083019493928390030190829087803b15801561114b57600080fd5b505af115801561115f573d6000803e3d6000fd5b505050506040513d602081101561117557600080fd5b505060408051828152905133917fe2403640ba68fed3a2f88b7557551d1993f84b99bb10ff833f0cf8db0c5e0486919081900360200190a25b5050565b60125490565b336000818152601160209081526040918290208251918201909252905481526111e49190610939611f2b565b611223600e6001600160a01b037f0000000000000000000000000000000000000000000000000000000000000000166307a8007081636669302a611deb565b565b6001600160a01b031660009081526002602052604090205490565b611248611e9c565b6000546001600160a01b039081169116146112aa576040805162461bcd60e51b815260206004820181905260248201527f4f776e61626c653a2063616c6c6572206973206e6f7420746865206f776e6572604482015290519081900360640190fd5b600080546040516001600160a01b03909116907f8be0079c531659141344cd1fd0a4f28419497f9722a3daafe3b4186f6b6457e0908390a36000805473ffffffffffffffffffffffffffffffffffffffff19169055565b60055481565b6001600160a01b038181166000908152601560209081526040808320815192830190915254815290916106bb91907f000000000000000000000000000000000000000000000000000000000000000016631845f0db611f46565b600061136f42600454611fbc565b905090565b60086020526000908152604090205481565b6000546001600160a01b031690565b336000818152600d60209081526040918290208251918201909252905481526113c19190610b52611f2b565b611223600a6001600160a01b037f0000000000000000000000000000000000000000000000000000000000000000166311212d66816393028d83611deb565b6001600160a01b038181166000908152601160209081526040808320815192830190915254815290916106bb91907f0000000000000000000000000000000000000000000000000000000000000000166323662bb9611f46565b60607f00000000000000000000000000000000000000000000000000000000000000006001600160a01b03166395d89b416040518163ffffffff1660e01b815260040160006040518083038186803b1580156114b557600080fd5b505afa1580156114c9573d6000803e3d6000fd5b505050506040513d6000823e601f3d908101601f1916820160405260208110156114f257600080fd5b810190808051604051939291908464010000000082111561151257600080fd5b90830190602082018581111561152757600080fd5b825164010000000081118282018810171561154157600080fd5b82525081516020918201929091019080838360005b8381101561156e578181015183820152602001611556565b50505050905090810190601f16801561159b5780820380516001836020036101000a031916815260200191505b5060405250505060405160200180807f6661726d2d0000000000000000000000000000000000000000000000000000008152506005018280519060200190808383602083106108635780518252601f199092019160209182019101610844565b6001600160a01b038181166000908152600d60209081526040808320815192830190915254815290916106bb91907f000000000000000000000000000000000000000000000000000000000000000016635a6c72d0611f46565b3361165e611842565b600755611669611361565b6006556001600160a01b038116156116b05761168481610653565b6001600160a01b0382166000908152600960209081526040808320939093556007546008909152919020555b60008211611705576040805162461bcd60e51b815260206004820152600e60248201527f43616e6e6f74207374616b652030000000000000000000000000000000000000604482015290519081900360640190fd5b604080517f23b872dd0000000000000000000000000000000000000000000000000000000081523360048201523060248201526044810184905290516001600160a01b037f000000000000000000000000000000000000000000000000000000000000000016916323b872dd9160648083019260209291908290030181600087803b15801561179357600080fd5b505af11580156117a7573d6000803e3d6000fd5b505050506040513d60208110156117bd57600080fd5b506117ca90503383611fd2565b60408051838152905133917f9e71bc8eea02a63969f509818f2dafb9254532904319f9dbda79b67bd34a5f3d919081900360200190a260408051838152905133916000917fddf252ad1be2c89b69c2b068fc378daa952ba7f163c4a11628f55a4df523b3ef9181900360200190a35050565b60065481565b600061184c610c37565b611859575060075461089a565b61136f611887611867610c37565b6106af670de0b6b3a76400006106a96005546106a960065461069a611361565b60075490611d04565b7f000000000000000000000000000000000000000000000000000000000000000081565b600a5490565b60075481565b6118d16118cc33611225565b610c68565b61122361105d565b61012c811115611930576040805162461bcd60e51b815260206004820152601d60248201527f446563617920706572696f6420766f746520697320746f6f2068696768000000604482015290519081900360640190fd5b603c811015611986576040805162461bcd60e51b815260206004820152601c60248201527f446563617920706572696f6420766f746520697320746f6f206c6f7700000000604482015290519081900360640190fd5b33600081815260156020908152604091829020825191820190925290548152611a5991906119b384611d5e565b6119bc33611225565b6119c4610c37565b7f00000000000000000000000000000000000000000000000000000000000000006001600160a01b0316631845f0db6040518163ffffffff1660e01b815260040160206040518083038186803b158015611a1d57600080fd5b505afa158015611a31573d6000803e3d6000fd5b505050506040513d6020811015611a4757600080fd5b50516012959493929190611ff7611dd0565b610a1e60126001600160a01b037f00000000000000000000000000000000000000000000000000000000000000001663eaadf8488163f76d13b4611deb565b60045481565b611aa6611e9c565b6000546001600160a01b03908116911614611b08576040805162461bcd60e51b815260206004820181905260248201527f4f776e61626c653a2063616c6c6572206973206e6f7420746865206f776e6572604482015290519081900360640190fd5b6001600160a01b038116611b4d5760405162461bcd60e51b81526004018080602001828103825260268152602001806125436026913960400191505060405180910390fd5b600080546040516001600160a01b03808516939216917f8be0079c531659141344cd1fd0a4f28419497f9722a3daafe3b4186f6b6457e091a36000805473ffffffffffffffffffffffffffffffffffffffff19166001600160a01b0392909216919091179055565b33600081815260156020908152604091829020825191820190925290548152611be191906119b3611f2b565b61122360126001600160a01b037f00000000000000000000000000000000000000000000000000000000000000001663eaadf8488163f76d13b4611deb565b6000611c6283836040518060400160405280601e81526020017f536166654d6174683a207375627472616374696f6e206f766572666c6f77000081525061204a565b9392505050565b600082611c78575060006106bb565b82820282848281611c8557fe5b0414611c625760405162461bcd60e51b81526004018080602001828103825260218152602001806125696021913960400191505060405180910390fd5b6000611c6283836040518060400160405280601a81526020017f536166654d6174683a206469766973696f6e206279207a65726f0000000000008152506120e1565b600082820183811015611c62576040805162461bcd60e51b815260206004820152601b60248201527f536166654d6174683a206164646974696f6e206f766572666c6f770000000000604482015290519081900360640190fd5b611d6661252f565b506040805160208101909152600182018152919050565b60408051848152831515602082015280820183905290516001600160a01b038616917fce0cf859d853e1944032294143a1bf3ad799998ae77acbeb6c4d9b20d6910240919081900360600190a250505050565b611de1888888888889898989612146565b5050505050505050565b6001850154611e3f5781816040518163ffffffff1660e01b8152600401600060405180830381600087803b158015611e2257600080fd5b505af1158015611e36573d6000803e3d6000fd5b50505050611e95565b838386600001546040518263ffffffff1660e01b815260040180828152602001915050600060405180830381600087803b158015611e7c57600080fd5b505af1158015611e90573d6000803e3d6000fd5b505050505b5050505050565b3390565b60408051848152831515602082015280820183905290516001600160a01b038616917fe117cae46817b894b41a4412b73ae0ba746a5707b94e02d83b4c6502010b11ac919081900360600190a250505050565b611efd8282612285565b6000611f0883611225565b9050611f2683611f188385611d04565b83611f21610c37565b61230d565b505050565b611f3361252f565b5060408051602081019091526000815290565b825160009015611f5c5750825160001901611c62565b82826040518163ffffffff1660e01b815260040160206040518083038186803b158015611f8857600080fd5b505afa158015611f9c573d6000803e3d6000fd5b505050506040513d6020811015611fb257600080fd5b5051949350505050565b6000818310611fcb5781611c62565b5090919050565b611fdc8282612490565b6000611fe783611225565b9050611f2683611f188385611c20565b60408051848152831515602082015280820183905290516001600160a01b038616917fd0784d105a7412ffec29813ff8401f04f3d1cdbe6aca756974b1a31f830e5cb7919081900360600190a250505050565b600081848411156120d95760405162461bcd60e51b81526004018080602001828103825283818151815260200191508051906020019080838360005b8381101561209e578181015183820152602001612086565b50505050905090810190601f1680156120cb5780820380516001836020036101000a031916815260200191505b509250505060405180910390fd5b505050900390565b600081836121305760405162461bcd60e51b815260206004820181815283516024840152835190928392604490910191908501908083836000831561209e578181015183820152602001612086565b50600083858161213c57fe5b0495945050505050565b600189015460028a015481908061215c8b6124e3565b156121725761216b818a611c20565b9050612193565b6121906121896121828d896124e8565b8b90611c69565b8490611c20565b92505b61219c8a6124e3565b156121b2576121ab8189611d04565b90506121d3565b6121d06121c96121c28c896124e8565b8a90611c69565b8490611d04565b92505b8383146121e25760018d018390555b8181146121f15760028d018190555b6000871561221657612211886106af61220a858b611c69565b8790611d04565b612218565b865b8e54909150811461222757808e555b6122318b8d612504565b612254576001600160a01b038d16600090815260038f01602052604090208b5190555b6122758d6122628d8a6124e8565b61226b8e6124e3565b8c8a63ffffffff16565b5050505050505050505050505050565b604080518082018252601b81527f4275726e20616d6f756e7420657863656564732062616c616e636500000000006020808301919091526001600160a01b0385166000908152600290915291909120546122e091839061204a565b6001600160a01b0383166000908152600260205260409020556001546123069082611c20565b6001555050565b6001600160a01b0384166000908152600d60209081526040808320815192830190915254815261234a91600a918791879087908790611ea061250b565b612389600a6001600160a01b037f0000000000000000000000000000000000000000000000000000000000000000166311212d66816393028d83611deb565b6001600160a01b0384166000908152601160209081526040918290208251918201909252905481526123ce90600e908690868686670de0b6b3a7640000611d7d61250b565b61240d600e6001600160a01b037f0000000000000000000000000000000000000000000000000000000000000000166307a8007081636669302a611deb565b6001600160a01b03841660009081526015602090815260409182902082519182019092529054815261244b906012908690868686603c611ff761250b565b61248a60126001600160a01b037f00000000000000000000000000000000000000000000000000000000000000001663eaadf8488163f76d13b4611deb565b50505050565b60015461249d9082611d04565b6001556001600160a01b0382166000908152600260205260409020546124c39082611d04565b6001600160a01b0390921660009081526002602052604090209190915550565b511590565b8151600090156124fe57508151600019016106bb565b50919050565b5190511490565b611de1888888871561251d5789612525565b612525611f2b565b8989898989612146565b604051806020016040528060008152509056fe4f776e61626c653a206e6577206f776e657220697320746865207a65726f2061646472657373536166654d6174683a206d756c7469706c69636174696f6e206f766572666c6f77a26469706673582212206f03b8ac289cbfd28859adb0750ee5b46ac1f6574c5307a79c9511c02eebb90264736f6c634300060c0033",
  "immutableReferences": {
    "6446": [
      {
        "length": 32,
        "start": 1733
      },
      {
        "length": 32,
        "start": 2542
      },
      {
        "length": 32,
        "start": 3079
      },
      {
        "length": 32,
        "start": 3401
      },
      {
        "length": 32,
        "start": 3633
      },
      {
        "length": 32,
        "start": 3671
      },
      {
        "length": 32,
        "start": 4595
      },
      {
        "length": 32,
        "start": 5072
      },
      {
        "length": 32,
        "start": 5214
      },
      {
        "length": 32,
        "start": 5963
      },
      {
        "length": 32,
        "start": 6760
      },
      {
        "length": 32,
        "start": 7152
      },
      {
        "length": 32,
        "start": 9049
      },
      {
        "length": 32,
        "start": 9181
      },
      {
        "length": 32,
        "start": 9306
      }
    ],
    "6448": [
      {
        "length": 32,
        "start": 2380
      },
      {
        "length": 32,
        "start": 2917
      },
      {
        "length": 32,
        "start": 4919
      },
      {
        "length": 32,
        "start": 5168
      },
      {
        "length": 32,
        "start": 5675
      },
      {
        "length": 32,
        "start": 6290
      },
      {
        "length": 32,
        "start": 6598
      }
    ],
    "9661": [
      {
        "length": 32,
        "start": 3142
      },
      {
        "length": 32,
        "start": 4350
      }
    ]
  },
  "source": "// SPDX-License-Identifier: MIT\n\npragma solidity ^0.6.12;\n\nimport \"../../Mooniswap.sol\";\nimport \"../../libraries/MooniswapConstants.sol\";\nimport \"../../libraries/Voting.sol\";\nimport \"../../utils/BaseRewards.sol\";\n\n\ncontract FarmingRewards is BaseRewards {\n    using Vote for Vote.Data;\n    using Voting for Voting.Data;\n\n    event Staked(address indexed user, uint256 amount);\n    event Withdrawn(address indexed user, uint256 amount);\n    event FeeVoteUpdate(address indexed user, uint256 fee, bool isDefault, uint256 amount);\n\n    event Transfer(address indexed from, address indexed to, uint256 value);\n    event SlippageFeeVoteUpdate(address indexed user, uint256 slippageFee, bool isDefault, uint256 amount);\n    event DecayPeriodVoteUpdate(address indexed user, uint256 decayPeriod, bool isDefault, uint256 amount);\n\n    Mooniswap public immutable mooniswap;\n    IMooniswapFactoryGovernance public immutable mooniswapFactoryGovernance;\n    Voting.Data private _fee;\n    Voting.Data private _slippageFee;\n    Voting.Data private _decayPeriod;\n\n    constructor(Mooniswap _mooniswap, IERC20 _gift) public BaseRewards(_gift) {\n        mooniswap = _mooniswap;\n        mooniswapFactoryGovernance = _mooniswap.mooniswapFactoryGovernance();\n    }\n\n    function name() external view returns(string memory) {\n        return string(abi.encodePacked(\"Farming: \", mooniswap.name()));\n    }\n\n    function symbol() external view returns(string memory) {\n        return string(abi.encodePacked(\"farm-\", mooniswap.symbol()));\n    }\n\n    function decimals() external view returns(uint8) {\n        return mooniswap.decimals();\n    }\n\n    function stake(uint256 amount) public updateReward(msg.sender) {\n        require(amount > 0, \"Cannot stake 0\");\n        mooniswap.transferFrom(msg.sender, address(this), amount);\n        _mint(msg.sender, amount);\n        emit Staked(msg.sender, amount);\n        emit Transfer(address(0), msg.sender, amount);\n    }\n\n    function withdraw(uint256 amount) public updateReward(msg.sender) {\n        require(amount > 0, \"Cannot withdraw 0\");\n        _burn(msg.sender, amount);\n        mooniswap.transfer(msg.sender, amount);\n        emit Withdrawn(msg.sender, amount);\n        emit Transfer(msg.sender, address(0), amount);\n    }\n\n    function exit() external {\n        withdraw(balanceOf(msg.sender));\n        getReward();\n    }\n\n    function fee() public view returns(uint256) {\n        return _fee.result;\n    }\n\n    function slippageFee() public view returns(uint256) {\n        return _slippageFee.result;\n    }\n\n    function decayPeriod() public view returns(uint256) {\n        return _decayPeriod.result;\n    }\n\n    function feeVotes(address user) external view returns(uint256) {\n        return _fee.votes[user].get(mooniswapFactoryGovernance.defaultFee);\n    }\n\n    function slippageFeeVotes(address user) external view returns(uint256) {\n        return _slippageFee.votes[user].get(mooniswapFactoryGovernance.defaultSlippageFee);\n    }\n\n    function decayPeriodVotes(address user) external view returns(uint256) {\n        return _decayPeriod.votes[user].get(mooniswapFactoryGovernance.defaultDecayPeriod);\n    }\n\n    function feeVote(uint256 vote) external {\n        require(vote <= MooniswapConstants._MAX_FEE, \"Fee vote is too high\");\n\n        _fee.updateVote(msg.sender, _fee.votes[msg.sender], Vote.init(vote), balanceOf(msg.sender), totalSupply(), mooniswapFactoryGovernance.defaultFee(), _emitFeeVoteUpdate);\n        _vote(_fee, mooniswap.feeVote, mooniswap.discardFeeVote);\n    }\n\n    function slippageFeeVote(uint256 vote) external {\n        require(vote <= MooniswapConstants._MAX_SLIPPAGE_FEE, \"Slippage fee vote is too high\");\n\n        _slippageFee.updateVote(msg.sender, _slippageFee.votes[msg.sender], Vote.init(vote), balanceOf(msg.sender), totalSupply(), mooniswapFactoryGovernance.defaultSlippageFee(), _emitSlippageFeeVoteUpdate);\n        _vote(_slippageFee, mooniswap.slippageFeeVote, mooniswap.discardSlippageFeeVote);\n    }\n\n    function decayPeriodVote(uint256 vote) external {\n        require(vote <= MooniswapConstants._MAX_DECAY_PERIOD, \"Decay period vote is too high\");\n        require(vote >= MooniswapConstants._MIN_DECAY_PERIOD, \"Decay period vote is too low\");\n\n        _decayPeriod.updateVote(msg.sender, _decayPeriod.votes[msg.sender], Vote.init(vote), balanceOf(msg.sender), totalSupply(), mooniswapFactoryGovernance.defaultDecayPeriod(), _emitDecayPeriodVoteUpdate);\n        _vote(_decayPeriod, mooniswap.decayPeriodVote, mooniswap.discardDecayPeriodVote);\n    }\n\n    function discardFeeVote() external {\n        _fee.updateVote(msg.sender, _fee.votes[msg.sender], Vote.init(), balanceOf(msg.sender), totalSupply(), mooniswapFactoryGovernance.defaultFee(), _emitFeeVoteUpdate);\n        _vote(_fee, mooniswap.feeVote, mooniswap.discardFeeVote);\n    }\n\n    function discardSlippageFeeVote() external {\n        _slippageFee.updateVote(msg.sender, _slippageFee.votes[msg.sender], Vote.init(), balanceOf(msg.sender), totalSupply(), mooniswapFactoryGovernance.defaultSlippageFee(), _emitSlippageFeeVoteUpdate);\n        _vote(_slippageFee, mooniswap.slippageFeeVote, mooniswap.discardSlippageFeeVote);\n    }\n\n    function discardDecayPeriodVote() external {\n        _decayPeriod.updateVote(msg.sender, _decayPeriod.votes[msg.sender], Vote.init(), balanceOf(msg.sender), totalSupply(), mooniswapFactoryGovernance.defaultDecayPeriod(), _emitDecayPeriodVoteUpdate);\n        _vote(_decayPeriod, mooniswap.decayPeriodVote, mooniswap.discardDecayPeriodVote);\n    }\n\n    function _mint(address account, uint256 amount) internal override {\n        super._mint(account, amount);\n\n        uint256 newBalance = balanceOf(account);\n        _updateVotes(account, newBalance.sub(amount), newBalance, totalSupply());\n    }\n\n    function _burn(address account, uint256 amount) internal override {\n        super._burn(account, amount);\n\n        uint256 newBalance = balanceOf(account);\n        _updateVotes(account, newBalance.add(amount), newBalance, totalSupply());\n    }\n\n    function _updateVotes(address account, uint256 balance, uint256 newBalance, uint256 newTotalSupply) private {\n        _fee.updateBalance(account, _fee.votes[account], balance, newBalance, newTotalSupply, MooniswapConstants._DEFAULT_FEE, _emitFeeVoteUpdate);\n        _vote(_fee, mooniswap.feeVote, mooniswap.discardFeeVote);\n        _slippageFee.updateBalance(account, _slippageFee.votes[account], balance, newBalance, newTotalSupply, MooniswapConstants._DEFAULT_SLIPPAGE_FEE, _emitSlippageFeeVoteUpdate);\n        _vote(_slippageFee, mooniswap.slippageFeeVote, mooniswap.discardSlippageFeeVote);\n        _decayPeriod.updateBalance(account, _decayPeriod.votes[account], balance, newBalance, newTotalSupply, MooniswapConstants._DEFAULT_DECAY_PERIOD, _emitDecayPeriodVoteUpdate);\n        _vote(_decayPeriod, mooniswap.decayPeriodVote, mooniswap.discardDecayPeriodVote);\n    }\n\n    function _vote(Voting.Data storage votingData, function(uint256) external vote, function() external discardVote) private {\n        if (votingData._weightedSum == 0) {\n            discardVote();\n        } else {\n            vote(votingData.result);\n        }\n    }\n\n    function _emitFeeVoteUpdate(address account, uint256 newFee, bool isDefault, uint256 newBalance) private {\n        emit FeeVoteUpdate(account, newFee, isDefault, newBalance);\n    }\n\n    function _emitSlippageFeeVoteUpdate(address account, uint256 newSlippageFee, bool isDefault, uint256 newBalance) private {\n        emit SlippageFeeVoteUpdate(account, newSlippageFee, isDefault, newBalance);\n    }\n\n    function _emitDecayPeriodVoteUpdate(address account, uint256 newDecayPeriod, bool isDefault, uint256 newBalance) private {\n        emit DecayPeriodVoteUpdate(account, newDecayPeriod, isDefault, newBalance);\n    }\n}\n",
  "sourcePath": "/Users/k06a/Projects/mooniswap-v2/contracts/inch/farming/FarmingRewards.sol",
  "compiler": {
    "name": "solc",
    "version": "0.6.12+commit.27d51765.Emscripten.clang"
  },
  "schemaVersion": "3.3.3",
  "updatedAt": "2021-01-07T10:25:20.568Z",
  "devdoc": {
    "kind": "dev",
    "methods": {
      "owner()": {
        "details": "Returns the address of the current owner."
      },
      "renounceOwnership()": {
        "details": "Leaves the contract without owner. It will not be possible to call `onlyOwner` functions anymore. Can only be called by the current owner. NOTE: Renouncing ownership will leave the contract without an owner, thereby removing any functionality that is only available to the owner."
      },
      "transferOwnership(address)": {
        "details": "Transfers ownership of the contract to a new account (`newOwner`). Can only be called by the current owner."
      }
    },
    "version": 1
  },
  "userdoc": {
    "kind": "user",
    "methods": {},
    "version": 1
  }
}