{
  "contractName": "FarmingRewards",
  "abi": [
    {
      "inputs": [
        {
          "internalType": "contract Mooniswap",
          "name": "_mooniswap",
          "type": "address"
        },
        {
          "internalType": "contract IERC20",
          "name": "_gift",
          "type": "address"
        }
      ],
      "stateMutability": "nonpayable",
      "type": "constructor"
    },
    {
      "anonymous": false,
      "inputs": [
        {
          "indexed": true,
          "internalType": "address",
          "name": "user",
          "type": "address"
        },
        {
          "indexed": false,
          "internalType": "uint256",
          "name": "decayPeriod",
          "type": "uint256"
        },
        {
          "indexed": false,
          "internalType": "bool",
          "name": "isDefault",
          "type": "bool"
        },
        {
          "indexed": false,
          "internalType": "uint256",
          "name": "amount",
          "type": "uint256"
        }
      ],
      "name": "DecayPeriodVoteUpdate",
      "type": "event"
    },
    {
      "anonymous": false,
      "inputs": [
        {
          "indexed": true,
          "internalType": "address",
          "name": "user",
          "type": "address"
        },
        {
          "indexed": false,
          "internalType": "uint256",
          "name": "fee",
          "type": "uint256"
        },
        {
          "indexed": false,
          "internalType": "bool",
          "name": "isDefault",
          "type": "bool"
        },
        {
          "indexed": false,
          "internalType": "uint256",
          "name": "amount",
          "type": "uint256"
        }
      ],
      "name": "FeeVoteUpdate",
      "type": "event"
    },
    {
      "anonymous": false,
      "inputs": [
        {
          "indexed": true,
          "internalType": "address",
          "name": "previousOwner",
          "type": "address"
        },
        {
          "indexed": true,
          "internalType": "address",
          "name": "newOwner",
          "type": "address"
        }
      ],
      "name": "OwnershipTransferred",
      "type": "event"
    },
    {
      "anonymous": false,
      "inputs": [
        {
          "indexed": false,
          "internalType": "uint256",
          "name": "reward",
          "type": "uint256"
        }
      ],
      "name": "RewardAdded",
      "type": "event"
    },
    {
      "anonymous": false,
      "inputs": [
        {
          "indexed": true,
          "internalType": "address",
          "name": "user",
          "type": "address"
        },
        {
          "indexed": false,
          "internalType": "uint256",
          "name": "reward",
          "type": "uint256"
        }
      ],
      "name": "RewardPaid",
      "type": "event"
    },
    {
      "anonymous": false,
      "inputs": [
        {
          "indexed": true,
          "internalType": "address",
          "name": "user",
          "type": "address"
        },
        {
          "indexed": false,
          "internalType": "uint256",
          "name": "slippageFee",
          "type": "uint256"
        },
        {
          "indexed": false,
          "internalType": "bool",
          "name": "isDefault",
          "type": "bool"
        },
        {
          "indexed": false,
          "internalType": "uint256",
          "name": "amount",
          "type": "uint256"
        }
      ],
      "name": "SlippageFeeVoteUpdate",
      "type": "event"
    },
    {
      "anonymous": false,
      "inputs": [
        {
          "indexed": true,
          "internalType": "address",
          "name": "user",
          "type": "address"
        },
        {
          "indexed": false,
          "internalType": "uint256",
          "name": "amount",
          "type": "uint256"
        }
      ],
      "name": "Staked",
      "type": "event"
    },
    {
      "anonymous": false,
      "inputs": [
        {
          "indexed": true,
          "internalType": "address",
          "name": "user",
          "type": "address"
        },
        {
          "indexed": false,
          "internalType": "uint256",
          "name": "amount",
          "type": "uint256"
        }
      ],
      "name": "Withdrawn",
      "type": "event"
    },
    {
      "inputs": [],
      "name": "DURATION",
      "outputs": [
        {
          "internalType": "uint256",
          "name": "",
          "type": "uint256"
        }
      ],
      "stateMutability": "view",
      "type": "function"
    },
    {
      "inputs": [
        {
          "internalType": "address",
          "name": "account",
          "type": "address"
        }
      ],
      "name": "balanceOf",
      "outputs": [
        {
          "internalType": "uint256",
          "name": "",
          "type": "uint256"
        }
      ],
      "stateMutability": "view",
      "type": "function"
    },
    {
      "inputs": [
        {
          "internalType": "address",
          "name": "account",
          "type": "address"
        }
      ],
      "name": "earned",
      "outputs": [
        {
          "internalType": "uint256",
          "name": "",
          "type": "uint256"
        }
      ],
      "stateMutability": "view",
      "type": "function"
    },
    {
      "inputs": [],
      "name": "getReward",
      "outputs": [],
      "stateMutability": "nonpayable",
      "type": "function"
    },
    {
      "inputs": [],
      "name": "gift",
      "outputs": [
        {
          "internalType": "contract IERC20",
          "name": "",
          "type": "address"
        }
      ],
      "stateMutability": "view",
      "type": "function"
    },
    {
      "inputs": [],
      "name": "lastTimeRewardApplicable",
      "outputs": [
        {
          "internalType": "uint256",
          "name": "",
          "type": "uint256"
        }
      ],
      "stateMutability": "view",
      "type": "function"
    },
    {
      "inputs": [],
      "name": "lastUpdateTime",
      "outputs": [
        {
          "internalType": "uint256",
          "name": "",
          "type": "uint256"
        }
      ],
      "stateMutability": "view",
      "type": "function"
    },
    {
      "inputs": [],
      "name": "mooniswap",
      "outputs": [
        {
          "internalType": "contract Mooniswap",
          "name": "",
          "type": "address"
        }
      ],
      "stateMutability": "view",
      "type": "function"
    },
    {
      "inputs": [],
      "name": "mooniswapFactoryGovernance",
      "outputs": [
        {
          "internalType": "contract IMooniswapFactoryGovernance",
          "name": "",
          "type": "address"
        }
      ],
      "stateMutability": "view",
      "type": "function"
    },
    {
      "inputs": [
        {
          "internalType": "uint256",
          "name": "reward",
          "type": "uint256"
        }
      ],
      "name": "notifyRewardAmount",
      "outputs": [],
      "stateMutability": "nonpayable",
      "type": "function"
    },
    {
      "inputs": [],
      "name": "owner",
      "outputs": [
        {
          "internalType": "address",
          "name": "",
          "type": "address"
        }
      ],
      "stateMutability": "view",
      "type": "function"
    },
    {
      "inputs": [],
      "name": "periodFinish",
      "outputs": [
        {
          "internalType": "uint256",
          "name": "",
          "type": "uint256"
        }
      ],
      "stateMutability": "view",
      "type": "function"
    },
    {
      "inputs": [],
      "name": "renounceOwnership",
      "outputs": [],
      "stateMutability": "nonpayable",
      "type": "function"
    },
    {
      "inputs": [],
      "name": "rewardDistribution",
      "outputs": [
        {
          "internalType": "address",
          "name": "",
          "type": "address"
        }
      ],
      "stateMutability": "view",
      "type": "function"
    },
    {
      "inputs": [],
      "name": "rewardPerToken",
      "outputs": [
        {
          "internalType": "uint256",
          "name": "",
          "type": "uint256"
        }
      ],
      "stateMutability": "view",
      "type": "function"
    },
    {
      "inputs": [],
      "name": "rewardPerTokenStored",
      "outputs": [
        {
          "internalType": "uint256",
          "name": "",
          "type": "uint256"
        }
      ],
      "stateMutability": "view",
      "type": "function"
    },
    {
      "inputs": [],
      "name": "rewardRate",
      "outputs": [
        {
          "internalType": "uint256",
          "name": "",
          "type": "uint256"
        }
      ],
      "stateMutability": "view",
      "type": "function"
    },
    {
      "inputs": [
        {
          "internalType": "address",
          "name": "",
          "type": "address"
        }
      ],
      "name": "rewards",
      "outputs": [
        {
          "internalType": "uint256",
          "name": "",
          "type": "uint256"
        }
      ],
      "stateMutability": "view",
      "type": "function"
    },
    {
      "inputs": [
        {
          "internalType": "address",
          "name": "_rewardDistribution",
          "type": "address"
        }
      ],
      "name": "setRewardDistribution",
      "outputs": [],
      "stateMutability": "nonpayable",
      "type": "function"
    },
    {
      "inputs": [],
      "name": "totalSupply",
      "outputs": [
        {
          "internalType": "uint256",
          "name": "",
          "type": "uint256"
        }
      ],
      "stateMutability": "view",
      "type": "function"
    },
    {
      "inputs": [
        {
          "internalType": "address",
          "name": "newOwner",
          "type": "address"
        }
      ],
      "name": "transferOwnership",
      "outputs": [],
      "stateMutability": "nonpayable",
      "type": "function"
    },
    {
      "inputs": [
        {
          "internalType": "address",
          "name": "",
          "type": "address"
        }
      ],
      "name": "userRewardPerTokenPaid",
      "outputs": [
        {
          "internalType": "uint256",
          "name": "",
          "type": "uint256"
        }
      ],
      "stateMutability": "view",
      "type": "function"
    },
    {
      "inputs": [
        {
          "internalType": "uint256",
          "name": "amount",
          "type": "uint256"
        }
      ],
      "name": "stake",
      "outputs": [],
      "stateMutability": "nonpayable",
      "type": "function"
    },
    {
      "inputs": [
        {
          "internalType": "uint256",
          "name": "amount",
          "type": "uint256"
        }
      ],
      "name": "withdraw",
      "outputs": [],
      "stateMutability": "nonpayable",
      "type": "function"
    },
    {
      "inputs": [],
      "name": "exit",
      "outputs": [],
      "stateMutability": "nonpayable",
      "type": "function"
    },
    {
      "inputs": [],
      "name": "fee",
      "outputs": [
        {
          "internalType": "uint256",
          "name": "",
          "type": "uint256"
        }
      ],
      "stateMutability": "view",
      "type": "function"
    },
    {
      "inputs": [],
      "name": "slippageFee",
      "outputs": [
        {
          "internalType": "uint256",
          "name": "",
          "type": "uint256"
        }
      ],
      "stateMutability": "view",
      "type": "function"
    },
    {
      "inputs": [],
      "name": "decayPeriod",
      "outputs": [
        {
          "internalType": "uint256",
          "name": "",
          "type": "uint256"
        }
      ],
      "stateMutability": "view",
      "type": "function"
    },
    {
      "inputs": [
        {
          "internalType": "address",
          "name": "user",
          "type": "address"
        }
      ],
      "name": "feeVotes",
      "outputs": [
        {
          "internalType": "uint256",
          "name": "",
          "type": "uint256"
        }
      ],
      "stateMutability": "view",
      "type": "function"
    },
    {
      "inputs": [
        {
          "internalType": "address",
          "name": "user",
          "type": "address"
        }
      ],
      "name": "slippageFeeVotes",
      "outputs": [
        {
          "internalType": "uint256",
          "name": "",
          "type": "uint256"
        }
      ],
      "stateMutability": "view",
      "type": "function"
    },
    {
      "inputs": [
        {
          "internalType": "address",
          "name": "user",
          "type": "address"
        }
      ],
      "name": "decayPeriodVotes",
      "outputs": [
        {
          "internalType": "uint256",
          "name": "",
          "type": "uint256"
        }
      ],
      "stateMutability": "view",
      "type": "function"
    },
    {
      "inputs": [
        {
          "internalType": "uint256",
          "name": "vote",
          "type": "uint256"
        }
      ],
      "name": "feeVote",
      "outputs": [],
      "stateMutability": "nonpayable",
      "type": "function"
    },
    {
      "inputs": [
        {
          "internalType": "uint256",
          "name": "vote",
          "type": "uint256"
        }
      ],
      "name": "slippageFeeVote",
      "outputs": [],
      "stateMutability": "nonpayable",
      "type": "function"
    },
    {
      "inputs": [
        {
          "internalType": "uint256",
          "name": "vote",
          "type": "uint256"
        }
      ],
      "name": "decayPeriodVote",
      "outputs": [],
      "stateMutability": "nonpayable",
      "type": "function"
    },
    {
      "inputs": [],
      "name": "discardFeeVote",
      "outputs": [],
      "stateMutability": "nonpayable",
      "type": "function"
    },
    {
      "inputs": [],
      "name": "discardSlippageFeeVote",
      "outputs": [],
      "stateMutability": "nonpayable",
      "type": "function"
    },
    {
      "inputs": [],
      "name": "discardDecayPeriodVote",
      "outputs": [],
      "stateMutability": "nonpayable",
      "type": "function"
    }
  ],
  "bytecode": "0x60e0604052600060045560006005553480156200001b57600080fd5b506040516200235638038062002356833981810160405260408110156200004157600080fd5b5080516020909101518060006200005762000144565b600080546001600160a01b0319166001600160a01b0383169081178255604051929350917f8be0079c531659141344cd1fd0a4f28419497f9722a3daafe3b4186f6b6457e0908290a3506001600160601b0319606091821b81166080529083901b1660a0526040805163d9a0c21760e01b815290516001600160a01b0384169163d9a0c217916004808301926020929190829003018186803b158015620000fd57600080fd5b505afa15801562000112573d6000803e3d6000fd5b505050506040513d60208110156200012957600080fd5b505160601b6001600160601b03191660c05250620001489050565b3390565b60805160601c60a05160601c60c05160601c61217e620001d86000398061067c52806108e5528061105d528061115652806111b052806113de5280611512525080610711528061097a5280610b0f5280610bbf5280610f0e52806110f652806112da52806115a752806117735280611ef95280611f7d5280611ffb5250806109f35280610e19525061217e6000f3fe608060405234801561001057600080fd5b50600436106102765760003560e01c80637b0a47ee11610160578063c8f33c91116100d8578063e9fad8ee1161008c578063ebe2b12b11610071578063ebe2b12b14610529578063f2fde38b14610531578063f76d13b41461055757610276565b8063e9fad8ee14610504578063eaadf8481461050c57610276565b8063d9a0c217116100bd578063d9a0c217146104ec578063ddca3f43146104f4578063df136d65146104fc57610276565b8063c8f33c91146104dc578063cd3daf9d146104e457610276565b80638da5cb5b1161012f57806395cad3c71161011457806395cad3c7146104735780639aad141b14610499578063a694fc3a146104bf57610276565b80638da5cb5b1461046357806393028d831461046b57610276565b80637b0a47ee146104075780637e82a6f31461040f57806380faa57d146104355780638b8763471461043d57610276565b80632e1a7d4d116101f35780633d18b912116101c25780636669302a116101a75780636669302a146103d157806370a08231146103d9578063715018a6146103ff57610276565b80633d18b912146103c157806348d67e1b146103c957610276565b80632e1a7d4d14610377578063303bfdae146103945780633732b3941461039c5780633c6b16ab146103a457610276565b8063101114cf1161024a57806318160ddd1161022f57806318160ddd1461035f5780631be052891461036757806324b049051461036f57610276565b8063101114cf1461031e57806311212d661461034257610276565b80628cc2621461027b5780630700037d146102b357806307a80070146102d95780630d68b761146102f8575b600080fd5b6102a16004803603602081101561029157600080fd5b50356001600160a01b031661055f565b60408051918252519081900360200190f35b6102a1600480360360208110156102c957600080fd5b50356001600160a01b03166105cd565b6102f6600480360360208110156102ef57600080fd5b50356105df565b005b6102f66004803603602081101561030e57600080fd5b50356001600160a01b0316610795565b610326610839565b604080516001600160a01b039092168252519081900360200190f35b6102f66004803603602081101561035857600080fd5b5035610848565b6102a16109e3565b6102a16109ea565b6103266109f1565b6102f66004803603602081101561038d57600080fd5b5035610a15565b610326610bbd565b6102a1610be1565b6102f6600480360360208110156103ba57600080fd5b5035610be7565b6102f6610d5f565b6102a1610ecd565b6102f6610ed3565b6102a1600480360360208110156103ef57600080fd5b50356001600160a01b0316610f40565b6102f6610f5b565b6102a1611027565b6102a16004803603602081101561042557600080fd5b50356001600160a01b031661102d565b6102a1611087565b6102a16004803603602081101561045357600080fd5b50356001600160a01b031661109a565b6103266110ac565b6102f66110bb565b6102a16004803603602081101561048957600080fd5b50356001600160a01b0316611126565b6102a1600480360360208110156104af57600080fd5b50356001600160a01b0316611180565b6102f6600480360360208110156104d557600080fd5b50356111da565b6102a1611388565b6102a161138e565b6103266113dc565b6102a1611400565b6102a1611406565b6102f661140c565b6102f66004803603602081101561052257600080fd5b5035611425565b6102a1611610565b6102f66004803603602081101561054757600080fd5b50356001600160a01b0316611616565b6102f6611738565b6001600160a01b03811660009081526009602090815260408083205460089092528220546105c791906105c190670de0b6b3a7640000906105bb906105ac906105a661138e565b906117a3565b6105b588610f40565b906117ec565b90611845565b90611887565b92915050565b60096020526000908152604090205481565b670de0b6b3a764000081111561063c576040805162461bcd60e51b815260206004820152601d60248201527f536c6970706167652066656520766f746520697320746f6f2068696768000000604482015290519081900360640190fd5b3360008181526011602090815260409182902082519182019092529054815261070f9190610669846118e1565b61067233610f40565b61067a6109e3565b7f00000000000000000000000000000000000000000000000000000000000000006001600160a01b03166323662bb96040518163ffffffff1660e01b815260040160206040518083038186803b1580156106d357600080fd5b505afa1580156106e7573d6000803e3d6000fd5b505050506040513d60208110156106fd57600080fd5b5051600e959493929190611900611953565b7f00000000000000000000000000000000000000000000000000000000000000006001600160a01b03166307a80070600e600001546040518263ffffffff1660e01b815260040180828152602001915050600060405180830381600087803b15801561077a57600080fd5b505af115801561078e573d6000803e3d6000fd5b5050505050565b61079d61196e565b6000546001600160a01b039081169116146107ff576040805162461bcd60e51b815260206004820181905260248201527f4f776e61626c653a2063616c6c6572206973206e6f7420746865206f776e6572604482015290519081900360640190fd5b600380547fffffffffffffffffffffffff0000000000000000000000000000000000000000166001600160a01b0392909216919091179055565b6003546001600160a01b031681565b67016345785d8a00008111156108a5576040805162461bcd60e51b815260206004820152601460248201527f46656520766f746520697320746f6f2068696768000000000000000000000000604482015290519081900360640190fd5b336000818152600d602090815260409182902082519182019092529054815261097891906108d2846118e1565b6108db33610f40565b6108e36109e3565b7f00000000000000000000000000000000000000000000000000000000000000006001600160a01b0316635a6c72d06040518163ffffffff1660e01b815260040160206040518083038186803b15801561093c57600080fd5b505afa158015610950573d6000803e3d6000fd5b505050506040513d602081101561096657600080fd5b5051600a959493929190611972611953565b7f00000000000000000000000000000000000000000000000000000000000000006001600160a01b03166311212d66600a600001546040518263ffffffff1660e01b815260040180828152602001915050600060405180830381600087803b15801561077a57600080fd5b6001545b90565b62093a8081565b7f000000000000000000000000000000000000000000000000000000000000000081565b33610a1e61138e565b600755610a29611087565b6006556001600160a01b03811615610a7057610a448161055f565b6001600160a01b0382166000908152600960209081526040808320939093556007546008909152919020555b60008211610ac5576040805162461bcd60e51b815260206004820152601160248201527f43616e6e6f742077697468647261772030000000000000000000000000000000604482015290519081900360640190fd5b610acf33836119c5565b604080517fa9059cbb0000000000000000000000000000000000000000000000000000000081523360048201526024810184905290516001600160a01b037f0000000000000000000000000000000000000000000000000000000000000000169163a9059cbb9160448083019260209291908290030181600087803b158015610b5757600080fd5b505af1158015610b6b573d6000803e3d6000fd5b505050506040513d6020811015610b8157600080fd5b505060408051838152905133917f7084f5476618d8e60b11ef0d7d3f06914655adb8793e28ff7f018d4c76d505d5919081900360200190a25050565b7f000000000000000000000000000000000000000000000000000000000000000081565b600e5490565b6003546001600160a01b0316610bfb61196e565b6001600160a01b031614610c56576040805162461bcd60e51b815260206004820152600d60248201527f4163636573732064656e69656400000000000000000000000000000000000000604482015290519081900360640190fd5b6000610c6061138e565b600755610c6b611087565b6006556001600160a01b03811615610cb257610c868161055f565b6001600160a01b0382166000908152600960209081526040808320939093556007546008909152919020555b6004544210610cd057610cc88262093a80611845565b600555610d12565b600454600090610ce090426117a3565b90506000610cf9600554836117ec90919063ffffffff16565b9050610d0c62093a806105bb8684611887565b60055550505b426006819055610d259062093a80611887565b6004556040805183815290517fde88a922e0d3b88b24e9623efeb464919c6bf9f66857a65e2bfcf2ce87a9433d9181900360200190a15050565b33610d6861138e565b600755610d73611087565b6006556001600160a01b03811615610dba57610d8e8161055f565b6001600160a01b0382166000908152600960209081526040808320939093556007546008909152919020555b6000610dc53361055f565b90508015610ec95733600081815260096020908152604080832083905580517fa9059cbb000000000000000000000000000000000000000000000000000000008152600481019490945260248401859052517f00000000000000000000000000000000000000000000000000000000000000006001600160a01b03169363a9059cbb9360448083019493928390030190829087803b158015610e6657600080fd5b505af1158015610e7a573d6000803e3d6000fd5b505050506040513d6020811015610e9057600080fd5b505060408051828152905133917fe2403640ba68fed3a2f88b7557551d1993f84b99bb10ff833f0cf8db0c5e0486919081900360200190a25b5050565b60125490565b33600081815260116020908152604091829020825191820190925290548152610eff91906106696119fd565b610f3e600e6001600160a01b037f0000000000000000000000000000000000000000000000000000000000000000166307a8007081636669302a611a18565b565b6001600160a01b031660009081526002602052604090205490565b610f6361196e565b6000546001600160a01b03908116911614610fc5576040805162461bcd60e51b815260206004820181905260248201527f4f776e61626c653a2063616c6c6572206973206e6f7420746865206f776e6572604482015290519081900360640190fd5b600080546040516001600160a01b03909116907f8be0079c531659141344cd1fd0a4f28419497f9722a3daafe3b4186f6b6457e0908390a3600080547fffffffffffffffffffffffff0000000000000000000000000000000000000000169055565b60055481565b6001600160a01b038181166000908152601560209081526040808320815192830190915254815290916105c791907f000000000000000000000000000000000000000000000000000000000000000016631845f0db611ac8565b600061109542600454611b5c565b905090565b60086020526000908152604090205481565b6000546001600160a01b031690565b336000818152600d60209081526040918290208251918201909252905481526110e791906108d26119fd565b610f3e600a6001600160a01b037f0000000000000000000000000000000000000000000000000000000000000000166311212d66816393028d83611a18565b6001600160a01b038181166000908152601160209081526040808320815192830190915254815290916105c791907f0000000000000000000000000000000000000000000000000000000000000000166323662bb9611ac8565b6001600160a01b038181166000908152600d60209081526040808320815192830190915254815290916105c791907f000000000000000000000000000000000000000000000000000000000000000016635a6c72d0611ac8565b336111e361138e565b6007556111ee611087565b6006556001600160a01b03811615611235576112098161055f565b6001600160a01b0382166000908152600960209081526040808320939093556007546008909152919020555b6000821161128a576040805162461bcd60e51b815260206004820152600e60248201527f43616e6e6f74207374616b652030000000000000000000000000000000000000604482015290519081900360640190fd5b6112943383611b72565b604080517f23b872dd0000000000000000000000000000000000000000000000000000000081523360048201523060248201526044810184905290516001600160a01b037f000000000000000000000000000000000000000000000000000000000000000016916323b872dd9160648083019260209291908290030181600087803b15801561132257600080fd5b505af1158015611336573d6000803e3d6000fd5b505050506040513d602081101561134c57600080fd5b505060408051838152905133917f9e71bc8eea02a63969f509818f2dafb9254532904319f9dbda79b67bd34a5f3d919081900360200190a25050565b60065481565b60006113986109e3565b6113a557506007546109e7565b6110956113d36113b36109e3565b6105bb670de0b6b3a76400006105b56005546105b56006546105a6611087565b60075490611887565b7f000000000000000000000000000000000000000000000000000000000000000081565b600a5490565b60075481565b61141d61141833610f40565b610a15565b610f3e610d5f565b610e1081111561147c576040805162461bcd60e51b815260206004820152601d60248201527f446563617920706572696f6420766f746520697320746f6f2068696768000000604482015290519081900360640190fd5b600f8110156114d2576040805162461bcd60e51b815260206004820152601c60248201527f446563617920706572696f6420766f746520697320746f6f206c6f7700000000604482015290519081900360640190fd5b336000818152601560209081526040918290208251918201909252905481526115a591906114ff846118e1565b61150833610f40565b6115106109e3565b7f00000000000000000000000000000000000000000000000000000000000000006001600160a01b0316631845f0db6040518163ffffffff1660e01b815260040160206040518083038186803b15801561156957600080fd5b505afa15801561157d573d6000803e3d6000fd5b505050506040513d602081101561159357600080fd5b50516012959493929190611b97611953565b7f00000000000000000000000000000000000000000000000000000000000000006001600160a01b031663eaadf8486012600001546040518263ffffffff1660e01b815260040180828152602001915050600060405180830381600087803b15801561077a57600080fd5b60045481565b61161e61196e565b6000546001600160a01b03908116911614611680576040805162461bcd60e51b815260206004820181905260248201527f4f776e61626c653a2063616c6c6572206973206e6f7420746865206f776e6572604482015290519081900360640190fd5b6001600160a01b0381166116c55760405162461bcd60e51b81526004018080602001828103825260268152602001806121026026913960400191505060405180910390fd5b600080546040516001600160a01b03808516939216917f8be0079c531659141344cd1fd0a4f28419497f9722a3daafe3b4186f6b6457e091a3600080547fffffffffffffffffffffffff0000000000000000000000000000000000000000166001600160a01b0392909216919091179055565b3360008181526015602090815260409182902082519182019092529054815261176491906114ff6119fd565b610f3e60126001600160a01b037f00000000000000000000000000000000000000000000000000000000000000001663eaadf8488163f76d13b4611a18565b60006117e583836040518060400160405280601e81526020017f536166654d6174683a207375627472616374696f6e206f766572666c6f770000815250611bea565b9392505050565b6000826117fb575060006105c7565b8282028284828161180857fe5b04146117e55760405162461bcd60e51b81526004018080602001828103825260218152602001806121286021913960400191505060405180910390fd5b60006117e583836040518060400160405280601a81526020017f536166654d6174683a206469766973696f6e206279207a65726f000000000000815250611c81565b6000828201838110156117e5576040805162461bcd60e51b815260206004820152601b60248201527f536166654d6174683a206164646974696f6e206f766572666c6f770000000000604482015290519081900360640190fd5b6118e96120ee565b506040805160208101909152600182018152919050565b60408051848152831515602082015280820183905290516001600160a01b038616917fce0cf859d853e1944032294143a1bf3ad799998ae77acbeb6c4d9b20d6910240919081900360600190a250505050565b611964888888888889898989611ce6565b5050505050505050565b3390565b60408051848152831515602082015280820183905290516001600160a01b038616917fe117cae46817b894b41a4412b73ae0ba746a5707b94e02d83b4c6502010b11ac919081900360600190a250505050565b6119cf8282611e25565b60006119da83610f40565b90506119f8836119ea8385611887565b836119f36109e3565b611ead565b505050565b611a056120ee565b5060408051602081019091526000815290565b6001850154611a6c5781816040518163ffffffff1660e01b8152600401600060405180830381600087803b158015611a4f57600080fd5b505af1158015611a63573d6000803e3d6000fd5b5050505061078e565b838386600001546040518263ffffffff1660e01b815260040180828152602001915050600060405180830381600087803b158015611aa957600080fd5b505af1158015611abd573d6000803e3d6000fd5b505050505050505050565b825160009015611afc575082517fffffffffffffffffffffffffffffffffffffffffffffffffffffffffffffffff016117e5565b82826040518163ffffffff1660e01b815260040160206040518083038186803b158015611b2857600080fd5b505afa158015611b3c573d6000803e3d6000fd5b505050506040513d6020811015611b5257600080fd5b5051949350505050565b6000818310611b6b57816117e5565b5090919050565b611b7c8282612031565b6000611b8783610f40565b90506119f8836119ea83856117a3565b60408051848152831515602082015280820183905290516001600160a01b038616917fd0784d105a7412ffec29813ff8401f04f3d1cdbe6aca756974b1a31f830e5cb7919081900360600190a250505050565b60008184841115611c795760405162461bcd60e51b81526004018080602001828103825283818151815260200191508051906020019080838360005b83811015611c3e578181015183820152602001611c26565b50505050905090810190601f168015611c6b5780820380516001836020036101000a031916815260200191505b509250505060405180910390fd5b505050900390565b60008183611cd05760405162461bcd60e51b8152602060048201818152835160248401528351909283926044909101919085019080838360008315611c3e578181015183820152602001611c26565b506000838581611cdc57fe5b0495945050505050565b600189015460028a0154819080611cfc8b612084565b15611d1257611d0b818a6117a3565b9050611d33565b611d30611d29611d228d89612089565b8b906117ec565b84906117a3565b92505b611d3c8a612084565b15611d5257611d4b8189611887565b9050611d73565b611d70611d69611d628c89612089565b8a906117ec565b8490611887565b92505b838314611d825760018d018390555b818114611d915760028d018190555b60008715611db657611db1886105bb611daa858b6117ec565b8790611887565b611db8565b865b8e549091508114611dc757808e555b611dd18b8d6120c3565b611df4576001600160a01b038d16600090815260038f01602052604090208b5190555b611e158d611e028d8a612089565b611e0b8e612084565b8c8a63ffffffff16565b5050505050505050505050505050565b604080518082018252601b81527f4275726e20616d6f756e7420657863656564732062616c616e636500000000006020808301919091526001600160a01b038516600090815260029091529190912054611e80918390611bea565b6001600160a01b038316600090815260026020526040902055600154611ea690826117a3565b6001555050565b6001600160a01b0384166000908152600d602090815260408083208151928301909152548152611eea91600a9187918790879087906119726120ca565b611f29600a6001600160a01b037f0000000000000000000000000000000000000000000000000000000000000000166311212d66816393028d83611a18565b6001600160a01b038416600090815260116020908152604091829020825191820190925290548152611f6e90600e90869086868667016345785d8a00006119006120ca565b611fad600e6001600160a01b037f0000000000000000000000000000000000000000000000000000000000000000166307a8007081636669302a611a18565b6001600160a01b038416600090815260156020908152604091829020825191820190925290548152611fec90601290869086868661012c611b976120ca565b61202b60126001600160a01b037f00000000000000000000000000000000000000000000000000000000000000001663eaadf8488163f76d13b4611a18565b50505050565b60015461203e9082611887565b6001556001600160a01b0382166000908152600260205260409020546120649082611887565b6001600160a01b0390921660009081526002602052604090209190915550565b511590565b8151600090156120bd575081517fffffffffffffffffffffffffffffffffffffffffffffffffffffffffffffffff016105c7565b50919050565b5190511490565b61196488888887156120dc57896120e4565b6120e46119fd565b8989898989611ce6565b604051806020016040528060008152509056fe4f776e61626c653a206e6577206f776e657220697320746865207a65726f2061646472657373536166654d6174683a206d756c7469706c69636174696f6e206f766572666c6f77a2646970667358221220f42c1ff2654343d76bd4faab58967544b8950e9dff914211a0f0ec5ce127d13264736f6c634300060c0033",
  "immutableReferences": {
    "5461": [
      {
        "length": 32,
        "start": 1809
      },
      {
        "length": 32,
        "start": 2426
      },
      {
        "length": 32,
        "start": 2831
      },
      {
        "length": 32,
        "start": 3007
      },
      {
        "length": 32,
        "start": 3854
      },
      {
        "length": 32,
        "start": 4342
      },
      {
        "length": 32,
        "start": 4826
      },
      {
        "length": 32,
        "start": 5543
      },
      {
        "length": 32,
        "start": 6003
      },
      {
        "length": 32,
        "start": 7929
      },
      {
        "length": 32,
        "start": 8061
      },
      {
        "length": 32,
        "start": 8187
      }
    ],
    "5463": [
      {
        "length": 32,
        "start": 1660
      },
      {
        "length": 32,
        "start": 2277
      },
      {
        "length": 32,
        "start": 4189
      },
      {
        "length": 32,
        "start": 4438
      },
      {
        "length": 32,
        "start": 4528
      },
      {
        "length": 32,
        "start": 5086
      },
      {
        "length": 32,
        "start": 5394
      }
    ],
    "8372": [
      {
        "length": 32,
        "start": 2547
      },
      {
        "length": 32,
        "start": 3609
      }
    ]
  },
  "source": "// SPDX-License-Identifier: MIT\n\npragma solidity ^0.6.12;\n\nimport \"../../Mooniswap.sol\";\nimport \"../../libraries/Voting.sol\";\nimport \"../../utils/BaseRewards.sol\";\n\n\ncontract FarmingRewards is MooniswapConstants, BaseRewards {\n    using Vote for Vote.Data;\n    using Voting for Voting.Data;\n\n    event Staked(address indexed user, uint256 amount);\n    event Withdrawn(address indexed user, uint256 amount);\n    event FeeVoteUpdate(address indexed user, uint256 fee, bool isDefault, uint256 amount);\n    event SlippageFeeVoteUpdate(address indexed user, uint256 slippageFee, bool isDefault, uint256 amount);\n    event DecayPeriodVoteUpdate(address indexed user, uint256 decayPeriod, bool isDefault, uint256 amount);\n\n    Mooniswap public immutable mooniswap;\n    IMooniswapFactoryGovernance public immutable mooniswapFactoryGovernance;\n    Voting.Data private _fee;\n    Voting.Data private _slippageFee;\n    Voting.Data private _decayPeriod;\n\n    constructor(Mooniswap _mooniswap, IERC20 _gift) public BaseRewards(_gift) {\n        mooniswap = _mooniswap;\n        mooniswapFactoryGovernance = _mooniswap.mooniswapFactoryGovernance();\n    }\n\n    function stake(uint256 amount) public updateReward(msg.sender) {\n        require(amount > 0, \"Cannot stake 0\");\n        _mint(msg.sender, amount);\n        mooniswap.transferFrom(msg.sender, address(this), amount);\n        emit Staked(msg.sender, amount);\n    }\n\n    function withdraw(uint256 amount) public updateReward(msg.sender) {\n        require(amount > 0, \"Cannot withdraw 0\");\n        _burn(msg.sender, amount);\n        mooniswap.transfer(msg.sender, amount);\n        emit Withdrawn(msg.sender, amount);\n    }\n\n    function exit() external {\n        withdraw(balanceOf(msg.sender));\n        getReward();\n    }\n\n    function fee() public view returns(uint256) {\n        return _fee.result;\n    }\n\n    function slippageFee() public view returns(uint256) {\n        return _slippageFee.result;\n    }\n\n    function decayPeriod() public view returns(uint256) {\n        return _decayPeriod.result;\n    }\n\n    function feeVotes(address user) external view returns(uint256) {\n        return _fee.votes[user].get(mooniswapFactoryGovernance.defaultFee);\n    }\n\n    function slippageFeeVotes(address user) external view returns(uint256) {\n        return _slippageFee.votes[user].get(mooniswapFactoryGovernance.defaultSlippageFee);\n    }\n\n    function decayPeriodVotes(address user) external view returns(uint256) {\n        return _decayPeriod.votes[user].get(mooniswapFactoryGovernance.defaultDecayPeriod);\n    }\n\n    function feeVote(uint256 vote) external {\n        require(vote <= _MAX_FEE, \"Fee vote is too high\");\n\n        _fee.updateVote(msg.sender, _fee.votes[msg.sender], Vote.init(vote), balanceOf(msg.sender), totalSupply(), mooniswapFactoryGovernance.defaultFee(), _emitFeeVoteUpdate);\n        mooniswap.feeVote(_fee.result);\n    }\n\n    function slippageFeeVote(uint256 vote) external {\n        require(vote <= _MAX_SLIPPAGE_FEE, \"Slippage fee vote is too high\");\n\n        _slippageFee.updateVote(msg.sender, _slippageFee.votes[msg.sender], Vote.init(vote), balanceOf(msg.sender), totalSupply(), mooniswapFactoryGovernance.defaultSlippageFee(), _emitSlippageFeeVoteUpdate);\n        mooniswap.slippageFeeVote(_slippageFee.result);\n    }\n\n    function decayPeriodVote(uint256 vote) external {\n        require(vote <= _MAX_DECAY_PERIOD, \"Decay period vote is too high\");\n        require(vote >= _MIN_DECAY_PERIOD, \"Decay period vote is too low\");\n\n        _decayPeriod.updateVote(msg.sender, _decayPeriod.votes[msg.sender], Vote.init(vote), balanceOf(msg.sender), totalSupply(), mooniswapFactoryGovernance.defaultDecayPeriod(), _emitDecayPeriodVoteUpdate);\n        mooniswap.decayPeriodVote(_decayPeriod.result);\n    }\n\n    function discardFeeVote() external {\n        _fee.updateVote(msg.sender, _fee.votes[msg.sender], Vote.init(), balanceOf(msg.sender), totalSupply(), mooniswapFactoryGovernance.defaultFee(), _emitFeeVoteUpdate);\n        _vote(_fee, mooniswap.feeVote, mooniswap.discardFeeVote);\n    }\n\n    function discardSlippageFeeVote() external {\n        _slippageFee.updateVote(msg.sender, _slippageFee.votes[msg.sender], Vote.init(), balanceOf(msg.sender), totalSupply(), mooniswapFactoryGovernance.defaultSlippageFee(), _emitSlippageFeeVoteUpdate);\n        _vote(_slippageFee, mooniswap.slippageFeeVote, mooniswap.discardSlippageFeeVote);\n    }\n\n    function discardDecayPeriodVote() external {\n        _decayPeriod.updateVote(msg.sender, _decayPeriod.votes[msg.sender], Vote.init(), balanceOf(msg.sender), totalSupply(), mooniswapFactoryGovernance.defaultDecayPeriod(), _emitDecayPeriodVoteUpdate);\n        _vote(_decayPeriod, mooniswap.decayPeriodVote, mooniswap.discardDecayPeriodVote);\n    }\n\n    function _mint(address account, uint256 amount) internal override {\n        super._mint(account, amount);\n\n        uint256 newBalance = balanceOf(account);\n        _updateVotes(account, newBalance.sub(amount), newBalance, totalSupply());\n    }\n\n    function _burn(address account, uint256 amount) internal override {\n        super._burn(account, amount);\n\n        uint256 newBalance = balanceOf(account);\n        _updateVotes(account, newBalance.add(amount), newBalance, totalSupply());\n    }\n\n    function _updateVotes(address account, uint256 balance, uint256 newBalance, uint256 newTotalSupply) private {\n        _fee.updateBalance(account, _fee.votes[account], balance, newBalance, newTotalSupply, _DEFAULT_FEE, _emitFeeVoteUpdate);\n        _vote(_fee, mooniswap.feeVote, mooniswap.discardFeeVote);\n        _slippageFee.updateBalance(account, _slippageFee.votes[account], balance, newBalance, newTotalSupply, _DEFAULT_SLIPPAGE_FEE, _emitSlippageFeeVoteUpdate);\n        _vote(_slippageFee, mooniswap.slippageFeeVote, mooniswap.discardSlippageFeeVote);\n        _decayPeriod.updateBalance(account, _decayPeriod.votes[account], balance, newBalance, newTotalSupply, _DEFAULT_DECAY_PERIOD, _emitDecayPeriodVoteUpdate);\n        _vote(_decayPeriod, mooniswap.decayPeriodVote, mooniswap.discardDecayPeriodVote);\n    }\n\n    function _vote(Voting.Data storage votingData, function(uint256) external vote, function() external discardVote) private {\n        if (votingData._weightedSum == 0) {\n            discardVote();\n        } else {\n            vote(votingData.result);\n        }\n    }\n\n    function _emitFeeVoteUpdate(address account, uint256 newFee, bool isDefault, uint256 newBalance) private {\n        emit FeeVoteUpdate(account, newFee, isDefault, newBalance);\n    }\n\n    function _emitSlippageFeeVoteUpdate(address account, uint256 newSlippageFee, bool isDefault, uint256 newBalance) private {\n        emit SlippageFeeVoteUpdate(account, newSlippageFee, isDefault, newBalance);\n    }\n\n    function _emitDecayPeriodVoteUpdate(address account, uint256 newDecayPeriod, bool isDefault, uint256 newBalance) private {\n        emit DecayPeriodVoteUpdate(account, newDecayPeriod, isDefault, newBalance);\n    }\n}\n",
  "sourcePath": "/Users/zumzoom/Projects/1inch/mooniswap-v2/contracts/inch/farming/FarmingRewards.sol",
  "compiler": {
    "name": "solc",
    "version": "0.6.12+commit.27d51765.Emscripten.clang"
  },
  "schemaVersion": "3.3.2",
  "updatedAt": "2020-12-17T09:38:26.398Z",
  "devdoc": {
    "kind": "dev",
    "methods": {
      "owner()": {
        "details": "Returns the address of the current owner."
      },
      "renounceOwnership()": {
        "details": "Leaves the contract without owner. It will not be possible to call `onlyOwner` functions anymore. Can only be called by the current owner. NOTE: Renouncing ownership will leave the contract without an owner, thereby removing any functionality that is only available to the owner."
      },
      "transferOwnership(address)": {
        "details": "Transfers ownership of the contract to a new account (`newOwner`). Can only be called by the current owner."
      }
    },
    "version": 1
  },
  "userdoc": {
    "kind": "user",
    "methods": {},
    "version": 1
  }
}