{
  "contractName": "GovernanceFeeReceiver",
  "abi": [
    {
      "inputs": [
        {
          "internalType": "contract IERC20",
          "name": "_inchToken",
          "type": "address"
        },
        {
          "internalType": "contract BaseRewards",
          "name": "_rewards",
          "type": "address"
        },
        {
          "internalType": "contract IMooniswapFactory",
          "name": "_mooniswapFactory",
          "type": "address"
        }
      ],
      "stateMutability": "nonpayable",
      "type": "constructor"
    },
    {
      "anonymous": false,
      "inputs": [
        {
          "indexed": true,
          "internalType": "address",
          "name": "previousOwner",
          "type": "address"
        },
        {
          "indexed": true,
          "internalType": "address",
          "name": "newOwner",
          "type": "address"
        }
      ],
      "name": "OwnershipTransferred",
      "type": "event"
    },
    {
      "inputs": [],
      "name": "inchToken",
      "outputs": [
        {
          "internalType": "contract IERC20",
          "name": "",
          "type": "address"
        }
      ],
      "stateMutability": "view",
      "type": "function"
    },
    {
      "inputs": [],
      "name": "mooniswapFactory",
      "outputs": [
        {
          "internalType": "contract IMooniswapFactory",
          "name": "",
          "type": "address"
        }
      ],
      "stateMutability": "view",
      "type": "function"
    },
    {
      "inputs": [],
      "name": "owner",
      "outputs": [
        {
          "internalType": "address",
          "name": "",
          "type": "address"
        }
      ],
      "stateMutability": "view",
      "type": "function"
    },
    {
      "inputs": [
        {
          "internalType": "contract IERC20",
          "name": "",
          "type": "address"
        }
      ],
      "name": "pathWhitelist",
      "outputs": [
        {
          "internalType": "bool",
          "name": "",
          "type": "bool"
        }
      ],
      "stateMutability": "view",
      "type": "function"
    },
    {
      "inputs": [],
      "name": "renounceOwnership",
      "outputs": [],
      "stateMutability": "nonpayable",
      "type": "function"
    },
    {
      "inputs": [],
      "name": "rewards",
      "outputs": [
        {
          "internalType": "contract BaseRewards",
          "name": "",
          "type": "address"
        }
      ],
      "stateMutability": "view",
      "type": "function"
    },
    {
      "inputs": [
        {
          "internalType": "address",
          "name": "newOwner",
          "type": "address"
        }
      ],
      "name": "transferOwnership",
      "outputs": [],
      "stateMutability": "nonpayable",
      "type": "function"
    },
    {
      "inputs": [
        {
          "internalType": "contract IERC20",
          "name": "token",
          "type": "address"
        },
        {
          "internalType": "bool",
          "name": "whitelisted",
          "type": "bool"
        }
      ],
      "name": "updatePathWhitelist",
      "outputs": [],
      "stateMutability": "nonpayable",
      "type": "function"
    },
    {
      "stateMutability": "payable",
      "type": "receive"
    },
    {
      "inputs": [
        {
          "internalType": "contract Mooniswap",
          "name": "mooniswap",
          "type": "address"
        }
      ],
      "name": "unwrapLPTokens",
      "outputs": [],
      "stateMutability": "nonpayable",
      "type": "function"
    },
    {
      "inputs": [
        {
          "internalType": "contract IERC20[]",
          "name": "path",
          "type": "address[]"
        }
      ],
      "name": "swap",
      "outputs": [],
      "stateMutability": "nonpayable",
      "type": "function"
    }
  ],
  "bytecode": "0x60e060405234801561001057600080fd5b50604051611f85380380611f858339818101604052606081101561003357600080fd5b5080516020820151604090920151909190828160006100506100c6565b600080546001600160a01b0319166001600160a01b0383169081178255604051929350917f8be0079c531659141344cd1fd0a4f28419497f9722a3daafe3b4186f6b6457e0908290a3506001600160601b0319606092831b811660805290821b811660a05292901b90911660c052506100ca9050565b3390565b60805160601c60a05160601c60c05160601c611e6d61011860003980610826528061084e52806108d25250806105c452806110c552806112b95250806106a452806108f65250611e6d6000f3fe6080604052600436106100b55760003560e01c80639b40a0c011610069578063ec9545941161004e578063ec954594146102b0578063f2fde38b146102c5578063f583adbc146102f857610111565b80639b40a0c0146101eb5780639ec5a8941461029b57610111565b8063715018a61161009a578063715018a61461019057806385731140146101a55780638da5cb5b146101d657610111565b80635e8c8bb714610116578063647a5f7c1461015d57610111565b36610111573332141561010f576040805162461bcd60e51b815260206004820152601660248201527f455448207472616e7366657220666f7262696464656e00000000000000000000604482015290519081900360640190fd5b005b600080fd5b34801561012257600080fd5b506101496004803603602081101561013957600080fd5b50356001600160a01b0316610333565b604080519115158252519081900360200190f35b34801561016957600080fd5b5061010f6004803603602081101561018057600080fd5b50356001600160a01b0316610348565b34801561019c57600080fd5b5061010f610501565b3480156101b157600080fd5b506101ba6105c2565b604080516001600160a01b039092168252519081900360200190f35b3480156101e257600080fd5b506101ba6105e6565b3480156101f757600080fd5b5061010f6004803603602081101561020e57600080fd5b81019060208101813564010000000081111561022957600080fd5b82018360208201111561023b57600080fd5b8035906020019184602083028401116401000000008311171561025d57600080fd5b9190808060200260200160405190810160405280939291908181526020018383602002808284376000920191909152509295506105f5945050505050565b3480156102a757600080fd5b506101ba6108d0565b3480156102bc57600080fd5b506101ba6108f4565b3480156102d157600080fd5b5061010f600480360360208110156102e857600080fd5b50356001600160a01b0316610918565b34801561030457600080fd5b5061010f6004803603604081101561031b57600080fd5b506001600160a01b0381351690602001351515610a2f565b60016020526000908152604090205460ff1681565b8061035281610ac4565b6103a3576040805162461bcd60e51b815260206004820152601260248201527f53707265616420697320746f6f20686967680000000000000000000000000000604482015290519081900360640190fd5b604080517f70a0823100000000000000000000000000000000000000000000000000000000815230600482015290516001600160a01b03841691635915d8069183916370a08231916024808301926020929190829003018186803b15801561040a57600080fd5b505afa15801561041e573d6000803e3d6000fd5b505050506040513d602081101561043457600080fd5b50516040805160008082526020820190925290506040518363ffffffff1660e01b81526004018083815260200180602001828103825283818151815260200191508051906020019060200280838360005b8381101561049d578181015183820152602001610485565b5050505090500193505050506040805180830381600087803b1580156104c257600080fd5b505af11580156104d6573d6000803e3d6000fd5b505050506040513d601f19601f8201168201806040525060408110156104fb57600080fd5b50505050565b610509611006565b6000546001600160a01b0390811691161461056b576040805162461bcd60e51b815260206004820181905260248201527f4f776e61626c653a2063616c6c6572206973206e6f7420746865206f776e6572604482015290519081900360640190fd5b600080546040516001600160a01b03909116907f8be0079c531659141344cd1fd0a4f28419497f9722a3daafe3b4186f6b6457e0908390a36000805473ffffffffffffffffffffffffffffffffffffffff19169055565b7f000000000000000000000000000000000000000000000000000000000000000081565b6000546001600160a01b031690565b80600081511161064c576040805162461bcd60e51b815260206004820152601460248201527f4d696e2070617468206c656e6774682069732031000000000000000000000000604482015290519081900360640190fd5b60058151106106a2576040805162461bcd60e51b815260206004820152601460248201527f4d61782070617468206c656e6774682069732034000000000000000000000000604482015290519081900360640190fd5b7f00000000000000000000000000000000000000000000000000000000000000006001600160a01b0316816001835103815181106106dc57fe5b60200260200101516001600160a01b03161461073f576040805162461bcd60e51b815260206004820152601b60248201527f53686f756c64207377617020746f2074617267657420746f6b656e0000000000604482015290519081900360640190fd5b60015b81518160010110156107de576001600083838151811061075e57fe5b6020908102919091018101516001600160a01b031682528101919091526040016000205460ff166107d6576040805162461bcd60e51b815260206004820152601860248201527f546f6b656e206973206e6f742077686974656c69737465640000000000000000604482015290519081900360640190fd5b600101610742565b50600061081a8361081530866000815181106107f657fe5b60200260200101516001600160a01b031661100a90919063ffffffff16565b6110ad565b509050600061084a84837f00000000000000000000000000000000000000000000000000000000000000006112a5565b90507f00000000000000000000000000000000000000000000000000000000000000006001600160a01b0316633c6b16ab826040518263ffffffff1660e01b815260040180828152602001915050600060405180830381600087803b1580156108b257600080fd5b505af11580156108c6573d6000803e3d6000fd5b5050505050505050565b7f000000000000000000000000000000000000000000000000000000000000000081565b7f000000000000000000000000000000000000000000000000000000000000000081565b610920611006565b6000546001600160a01b03908116911614610982576040805162461bcd60e51b815260206004820181905260248201527f4f776e61626c653a2063616c6c6572206973206e6f7420746865206f776e6572604482015290519081900360640190fd5b6001600160a01b0381166109c75760405162461bcd60e51b8152600401808060200182810382526026815260200180611d916026913960400191505060405180910390fd5b600080546040516001600160a01b03808516939216917f8be0079c531659141344cd1fd0a4f28419497f9722a3daafe3b4186f6b6457e091a36000805473ffffffffffffffffffffffffffffffffffffffff19166001600160a01b0392909216919091179055565b610a37611006565b6000546001600160a01b03908116911614610a99576040805162461bcd60e51b815260206004820181905260248201527f4f776e61626c653a2063616c6c6572206973206e6f7420746865206f776e6572604482015290519081900360640190fd5b6001600160a01b03919091166000908152600160205260409020805460ff1916911515919091179055565b60006060826001600160a01b031663aa6ca8086040518163ffffffff1660e01b815260040160006040518083038186803b158015610b0157600080fd5b505afa158015610b15573d6000803e3d6000fd5b505050506040513d6000823e601f3d908101601f191682016040526020811015610b3e57600080fd5b8101908080516040519392919084640100000000821115610b5e57600080fd5b908301906020820185811115610b7357600080fd5b8251866020820283011164010000000082111715610b9057600080fd5b82525081516020918201928201910280838360005b83811015610bbd578181015183820152602001610ba5565b505050509050016040525050509050600080600080610be387866000815181106107f657fe5b90506000610bf888876001815181106107f657fe5b90506000886001600160a01b03166348d67e1b6040518163ffffffff1660e01b815260040160206040518083038186803b158015610c3557600080fd5b505afa158015610c49573d6000803e3d6000fd5b505050506040513d6020811015610c5f57600080fd5b50519050610c6b611d79565b896001600160a01b0316636edc2c0989600081518110610c8757fe5b60200260200101516040518263ffffffff1660e01b815260040180826001600160a01b03168152602001915050604080518083038186803b158015610ccb57600080fd5b505afa158015610cdf573d6000803e3d6000fd5b505050506040513d6040811015610cf557600080fd5b50805160209182015164ffffffffff16918301919091526001600160d81b031681526000610d2d610d278385886116d6565b86611746565b90508a6001600160a01b0316636edc2c098a600181518110610d4b57fe5b60200260200101516040518263ffffffff1660e01b815260040180826001600160a01b03168152602001915050604080518083038186803b158015610d8f57600080fd5b505afa158015610da3573d6000803e3d6000fd5b505050506040513d6040811015610db957600080fd5b50805160209182015164ffffffffff16918401919091526001600160d81b031682526000610deb610d278486886116d6565b90508b6001600160a01b0316635ed9156d8b600081518110610e0957fe5b60200260200101516040518263ffffffff1660e01b815260040180826001600160a01b03168152602001915050604080518083038186803b158015610e4d57600080fd5b505afa158015610e61573d6000803e3d6000fd5b505050506040513d6040811015610e7757600080fd5b50805160209182015164ffffffffff16918501919091526001600160d81b031683526000610eaf610ea985878a6116d6565b8861175d565b90508c6001600160a01b0316635ed9156d8c600181518110610ecd57fe5b60200260200101516040518263ffffffff1660e01b815260040180826001600160a01b03168152602001915050604080518083038186803b158015610f1157600080fd5b505afa158015610f25573d6000803e3d6000fd5b505050506040513d6040811015610f3b57600080fd5b50805160209182015164ffffffffff16918601919091526001600160d81b031684526000610f6d610ea986888a6116d6565b9050610f8b82610f85670de0b6b3a76400008661176c565b906117c5565b9a50610fa384610f85670de0b6b3a76400008461176c565b9950610fbb88610f85670de0b6b3a76400008a61176c565b98505050505050505050610fdf81662386f26fc1000061176c90919063ffffffff16565b610ffb670de0b6b3a7640000610ff58686611807565b9061176c565b109695505050505050565b3390565b600061101583611849565b1561102b57506001600160a01b038116316110a7565b826001600160a01b03166370a08231836040518263ffffffff1660e01b815260040180826001600160a01b0316815260200191505060206040518083038186803b15801561107857600080fd5b505afa15801561108c573d6000803e3d6000fd5b505050506040513d60208110156110a257600080fd5b505190505b92915050565b81518190819060005b8181600101101561129c5760007f00000000000000000000000000000000000000000000000000000000000000006001600160a01b031663901754d78884815181106110fe57fe5b602002602001015189856001018151811061111557fe5b60200260200101516040518363ffffffff1660e01b815260040180836001600160a01b03168152602001826001600160a01b031681526020019250505060206040518083038186803b15801561116a57600080fd5b505afa15801561117e573d6000803e3d6000fd5b505050506040513d602081101561119457600080fd5b505187519091506000906111b790606490610f859085908c90889081106107f657fe5b9050848110156111d5576111cf85610f85888461176c565b95508094505b816001600160a01b0316631e1401f88985815181106111f057fe5b60200260200101518a866001018151811061120757fe5b6020026020010151886040518463ffffffff1660e01b815260040180846001600160a01b03168152602001836001600160a01b03168152602001828152602001935050505060206040518083038186803b15801561126457600080fd5b505afa158015611278573d6000803e3d6000fd5b505050506040513d602081101561128e57600080fd5b5051945050506001016110b6565b50509250929050565b8160005b845181600101101561162c5760007f00000000000000000000000000000000000000000000000000000000000000006001600160a01b031663901754d78784815181106112f257fe5b602002602001015188856001018151811061130957fe5b60200260200101516040518363ffffffff1660e01b815260040180836001600160a01b03168152602001826001600160a01b031681526020019250505060206040518083038186803b15801561135e57600080fd5b505afa158015611372573d6000803e3d6000fd5b505050506040513d602081101561138857600080fd5b5051905061139581610ac4565b6113e6576040805162461bcd60e51b815260206004820152601260248201527f53707265616420697320746f6f20686967680000000000000000000000000000604482015290519081900360640190fd5b60008390506114108784815181106113fa57fe5b60200260200101516001600160a01b0316611849565b61144957611445828589868151811061142557fe5b60200260200101516001600160a01b03166118569092919063ffffffff16565b5060005b865183600201101561153457816001600160a01b031663d5bcb9b58289868151811061147157fe5b60200260200101518a876001018151811061148857fe5b6020026020010151886000806040518763ffffffff1660e01b815260040180866001600160a01b03168152602001856001600160a01b03168152602001848152602001838152602001826001600160a01b03168152602001955050505050506020604051808303818588803b15801561150057600080fd5b505af1158015611514573d6000803e3d6000fd5b50505050506040513d602081101561152b57600080fd5b50519350611622565b816001600160a01b031663e331d0398289868151811061155057fe5b60200260200101518a876001018151811061156757fe5b602090810291909101810151604080517fffffffff0000000000000000000000000000000000000000000000000000000060e088901b1681526001600160a01b0394851660048201529184166024830152604482018b90526000606483018190526084830152928b1660a4820152915160c48084019382900301818588803b1580156115f257600080fd5b505af1158015611606573d6000803e3d6000fd5b50505050506040513d602081101561161d57600080fd5b505193505b50506001016112a9565b508351600114156116cf578360008151811061164457fe5b60200260200101516001600160a01b031663a9059cbb83836040518363ffffffff1660e01b815260040180836001600160a01b0316815260200182815260200192505050602060405180830381600087803b1580156116a257600080fd5b505af11580156116b6573d6000803e3d6000fd5b505050506040513d60208110156116cc57600080fd5b50505b9392505050565b600080611700846116fb876020015164ffffffffff164261180790919063ffffffff16565b61175d565b9050600061170e8583611807565b905061173c85610f85611721878661176c565b8951611736906001600160d81b03168661176c565b906119b5565b9695505050505050565b60008183101561175657816116cf565b5090919050565b600081831061175657816116cf565b60008261177b575060006110a7565b8282028284828161178857fe5b04146116cf5760405162461bcd60e51b8152600401808060200182810382526021815260200180611db76021913960400191505060405180910390fd5b60006116cf83836040518060400160405280601a81526020017f536166654d6174683a206469766973696f6e206279207a65726f000000000000815250611a0f565b60006116cf83836040518060400160405280601e81526020017f536166654d6174683a207375627472616374696f6e206f766572666c6f770000815250611ab1565b6001600160a01b03161590565b8015806118f55750604080517fdd62ed3e0000000000000000000000000000000000000000000000000000000081523060048201526001600160a01b03848116602483015291519185169163dd62ed3e91604480820192602092909190829003018186803b1580156118c757600080fd5b505afa1580156118db573d6000803e3d6000fd5b505050506040513d60208110156118f157600080fd5b5051155b6119305760405162461bcd60e51b8152600401808060200182810382526036815260200180611e026036913960400191505060405180910390fd5b604080516001600160a01b038416602482015260448082018490528251808303909101815260649091019091526020810180517bffffffffffffffffffffffffffffffffffffffffffffffffffffffff167f095ea7b3000000000000000000000000000000000000000000000000000000001790526119b0908490611b0b565b505050565b6000828201838110156116cf576040805162461bcd60e51b815260206004820152601b60248201527f536166654d6174683a206164646974696f6e206f766572666c6f770000000000604482015290519081900360640190fd5b60008183611a9b5760405162461bcd60e51b81526004018080602001828103825283818151815260200191508051906020019080838360005b83811015611a60578181015183820152602001611a48565b50505050905090810190601f168015611a8d5780820380516001836020036101000a031916815260200191505b509250505060405180910390fd5b506000838581611aa757fe5b0495945050505050565b60008184841115611b035760405162461bcd60e51b8152602060048201818152835160248401528351909283926044909101919085019080838360008315611a60578181015183820152602001611a48565b505050900390565b6060611b60826040518060400160405280602081526020017f5361666545524332303a206c6f772d6c6576656c2063616c6c206661696c6564815250856001600160a01b0316611bbc9092919063ffffffff16565b8051909150156119b057808060200190516020811015611b7f57600080fd5b50516119b05760405162461bcd60e51b815260040180806020018281038252602a815260200180611dd8602a913960400191505060405180910390fd5b6060611bcb8484600085611bd3565b949350505050565b6060611bde85611d40565b611c2f576040805162461bcd60e51b815260206004820152601d60248201527f416464726573733a2063616c6c20746f206e6f6e2d636f6e7472616374000000604482015290519081900360640190fd5b60006060866001600160a01b031685876040518082805190602001908083835b60208310611c6e5780518252601f199092019160209182019101611c4f565b6001836020036101000a03801982511681845116808217855250505050505090500191505060006040518083038185875af1925050503d8060008114611cd0576040519150601f19603f3d011682016040523d82523d6000602084013e611cd5565b606091505b50915091508115611ce9579150611bcb9050565b805115611cf95780518082602001fd5b60405162461bcd60e51b8152602060048201818152865160248401528651879391928392604401919085019080838360008315611a60578181015183820152602001611a48565b6000813f7fc5d2460186f7233c927e7db2dcc703c0e500b653ca82273b7bfad8045d85a470818114801590611bcb575050151592915050565b60408051808201909152600080825260208201529056fe4f776e61626c653a206e6577206f776e657220697320746865207a65726f2061646472657373536166654d6174683a206d756c7469706c69636174696f6e206f766572666c6f775361666545524332303a204552433230206f7065726174696f6e20646964206e6f7420737563636565645361666545524332303a20617070726f76652066726f6d206e6f6e2d7a65726f20746f206e6f6e2d7a65726f20616c6c6f77616e6365a264697066735822122003186235418a7b438e8091637df2345bd1b53570fed3112b66f1e37ffb21d54364736f6c634300060c0033",
  "immutableReferences": {
    "3953": [
      {
        "length": 32,
        "start": 2086
      },
      {
        "length": 32,
        "start": 2126
      },
      {
        "length": 32,
        "start": 2258
      }
    ],
    "9970": [
      {
        "length": 32,
        "start": 1700
      },
      {
        "length": 32,
        "start": 2294
      }
    ],
    "9972": [
      {
        "length": 32,
        "start": 1476
      },
      {
        "length": 32,
        "start": 4293
      },
      {
        "length": 32,
        "start": 4793
      }
    ]
  },
  "source": "// SPDX-License-Identifier: MIT\n\npragma solidity ^0.6.0;\n\nimport \"../utils/BaseRewards.sol\";\nimport \"../utils/Converter.sol\";\n\n\ncontract GovernanceFeeReceiver is Converter {\n    BaseRewards public immutable rewards;\n\n    constructor(IERC20 _inchToken, BaseRewards _rewards, IMooniswapFactory _mooniswapFactory)\n        public Converter(_inchToken, _mooniswapFactory)\n    {\n        rewards = _rewards;\n    }\n\n    function unwrapLPTokens(Mooniswap mooniswap) external validSpread(mooniswap) {\n        mooniswap.withdraw(mooniswap.balanceOf(address(this)), new uint256[](0));\n    }\n\n    function swap(IERC20[] memory path) external validPath(path) {\n        (uint256 amount,) = _maxAmountForSwap(path, path[0].uniBalanceOf(address(this)));\n        uint256 result = _swap(path, amount, payable(address(rewards)));\n        rewards.notifyRewardAmount(result);\n    }\n}\n",
  "sourcePath": "/Users/k06a/Projects/mooniswap-v2/contracts/governance/GovernanceFeeReceiver.sol",
  "compiler": {
    "name": "solc",
    "version": "0.6.12+commit.27d51765.Emscripten.clang"
  },
  "schemaVersion": "3.3.3",
  "updatedAt": "2021-01-07T10:25:20.544Z",
  "devdoc": {
    "kind": "dev",
    "methods": {
      "owner()": {
        "details": "Returns the address of the current owner."
      },
      "renounceOwnership()": {
        "details": "Leaves the contract without owner. It will not be possible to call `onlyOwner` functions anymore. Can only be called by the current owner. NOTE: Renouncing ownership will leave the contract without an owner, thereby removing any functionality that is only available to the owner."
      },
      "transferOwnership(address)": {
        "details": "Transfers ownership of the contract to a new account (`newOwner`). Can only be called by the current owner."
      }
    },
    "version": 1
  },
  "userdoc": {
    "kind": "user",
    "methods": {},
    "version": 1
  }
}