{
  "contractName": "GovernanceFeeReceiver",
  "abi": [
    {
      "inputs": [
        {
          "internalType": "contract IERC20",
          "name": "_inchToken",
          "type": "address"
        },
        {
          "internalType": "contract BaseRewards",
          "name": "_rewards",
          "type": "address"
        },
        {
          "internalType": "contract IMooniswapFactory",
          "name": "_mooniswapFactory",
          "type": "address"
        }
      ],
      "stateMutability": "nonpayable",
      "type": "constructor"
    },
    {
      "anonymous": false,
      "inputs": [
        {
          "indexed": true,
          "internalType": "address",
          "name": "previousOwner",
          "type": "address"
        },
        {
          "indexed": true,
          "internalType": "address",
          "name": "newOwner",
          "type": "address"
        }
      ],
      "name": "OwnershipTransferred",
      "type": "event"
    },
    {
      "inputs": [],
      "name": "inchToken",
      "outputs": [
        {
          "internalType": "contract IERC20",
          "name": "",
          "type": "address"
        }
      ],
      "stateMutability": "view",
      "type": "function"
    },
    {
      "inputs": [],
      "name": "mooniswapFactory",
      "outputs": [
        {
          "internalType": "contract IMooniswapFactory",
          "name": "",
          "type": "address"
        }
      ],
      "stateMutability": "view",
      "type": "function"
    },
    {
      "inputs": [],
      "name": "owner",
      "outputs": [
        {
          "internalType": "address",
          "name": "",
          "type": "address"
        }
      ],
      "stateMutability": "view",
      "type": "function"
    },
    {
      "inputs": [
        {
          "internalType": "contract IERC20",
          "name": "",
          "type": "address"
        }
      ],
      "name": "pathWhitelist",
      "outputs": [
        {
          "internalType": "bool",
          "name": "",
          "type": "bool"
        }
      ],
      "stateMutability": "view",
      "type": "function"
    },
    {
      "inputs": [],
      "name": "renounceOwnership",
      "outputs": [],
      "stateMutability": "nonpayable",
      "type": "function"
    },
    {
      "inputs": [],
      "name": "rewards",
      "outputs": [
        {
          "internalType": "contract BaseRewards",
          "name": "",
          "type": "address"
        }
      ],
      "stateMutability": "view",
      "type": "function"
    },
    {
      "inputs": [
        {
          "internalType": "address",
          "name": "newOwner",
          "type": "address"
        }
      ],
      "name": "transferOwnership",
      "outputs": [],
      "stateMutability": "nonpayable",
      "type": "function"
    },
    {
      "inputs": [
        {
          "internalType": "contract IERC20",
          "name": "token",
          "type": "address"
        },
        {
          "internalType": "bool",
          "name": "whitelisted",
          "type": "bool"
        }
      ],
      "name": "updatePathWhitelist",
      "outputs": [],
      "stateMutability": "nonpayable",
      "type": "function"
    },
    {
      "stateMutability": "payable",
      "type": "receive"
    },
    {
      "inputs": [
        {
          "internalType": "contract Mooniswap",
          "name": "mooniswap",
          "type": "address"
        }
      ],
      "name": "unwrapLPTokens",
      "outputs": [],
      "stateMutability": "nonpayable",
      "type": "function"
    },
    {
      "inputs": [
        {
          "internalType": "contract IERC20[]",
          "name": "path",
          "type": "address[]"
        }
      ],
      "name": "swap",
      "outputs": [],
      "stateMutability": "nonpayable",
      "type": "function"
    }
  ],
  "bytecode": "0x60e060405234801561001057600080fd5b506040516120b33803806120b38339818101604052606081101561003357600080fd5b5080516020820151604090920151909190828160006100506100c6565b600080546001600160a01b0319166001600160a01b0383169081178255604051929350917f8be0079c531659141344cd1fd0a4f28419497f9722a3daafe3b4186f6b6457e0908290a3506001600160601b0319606092831b811660805290821b811660a05292901b90911660c052506100ca9050565b3390565b60805160601c60a05160601c60c05160601c611f9b61011860003980610831528061085952806108dd5250806105cf52806111c152806113b55250806106af52806109015250611f9b6000f3fe6080604052600436106100b55760003560e01c80639b40a0c011610069578063ec9545941161004e578063ec954594146102b0578063f2fde38b146102c5578063f583adbc146102f857610111565b80639b40a0c0146101eb5780639ec5a8941461029b57610111565b8063715018a61161009a578063715018a61461019057806385731140146101a55780638da5cb5b146101d657610111565b80635e8c8bb714610116578063647a5f7c1461015d57610111565b36610111573332141561010f576040805162461bcd60e51b815260206004820152601660248201527f455448207472616e7366657220666f7262696464656e00000000000000000000604482015290519081900360640190fd5b005b600080fd5b34801561012257600080fd5b506101496004803603602081101561013957600080fd5b50356001600160a01b0316610333565b604080519115158252519081900360200190f35b34801561016957600080fd5b5061010f6004803603602081101561018057600080fd5b50356001600160a01b0316610348565b34801561019c57600080fd5b5061010f610501565b3480156101b157600080fd5b506101ba6105cd565b604080516001600160a01b039092168252519081900360200190f35b3480156101e257600080fd5b506101ba6105f1565b3480156101f757600080fd5b5061010f6004803603602081101561020e57600080fd5b81019060208101813564010000000081111561022957600080fd5b82018360208201111561023b57600080fd5b8035906020019184602083028401116401000000008311171561025d57600080fd5b919080806020026020016040519081016040528093929190818152602001838360200280828437600092019190915250929550610600945050505050565b3480156102a757600080fd5b506101ba6108db565b3480156102bc57600080fd5b506101ba6108ff565b3480156102d157600080fd5b5061010f600480360360208110156102e857600080fd5b50356001600160a01b0316610923565b34801561030457600080fd5b5061010f6004803603604081101561031b57600080fd5b506001600160a01b0381351690602001351515610a45565b60016020526000908152604090205460ff1681565b8061035281610af8565b6103a3576040805162461bcd60e51b815260206004820152601260248201527f53707265616420697320746f6f20686967680000000000000000000000000000604482015290519081900360640190fd5b604080517f70a0823100000000000000000000000000000000000000000000000000000000815230600482015290516001600160a01b03841691635915d8069183916370a08231916024808301926020929190829003018186803b15801561040a57600080fd5b505afa15801561041e573d6000803e3d6000fd5b505050506040513d602081101561043457600080fd5b50516040805160008082526020820190925290506040518363ffffffff1660e01b81526004018083815260200180602001828103825283818151815260200191508051906020019060200280838360005b8381101561049d578181015183820152602001610485565b5050505090500193505050506040805180830381600087803b1580156104c257600080fd5b505af11580156104d6573d6000803e3d6000fd5b505050506040513d601f19601f8201168201806040525060408110156104fb57600080fd5b50505050565b610509611102565b6000546001600160a01b0390811691161461056b576040805162461bcd60e51b815260206004820181905260248201527f4f776e61626c653a2063616c6c6572206973206e6f7420746865206f776e6572604482015290519081900360640190fd5b600080546040516001600160a01b03909116907f8be0079c531659141344cd1fd0a4f28419497f9722a3daafe3b4186f6b6457e0908390a3600080547fffffffffffffffffffffffff0000000000000000000000000000000000000000169055565b7f000000000000000000000000000000000000000000000000000000000000000081565b6000546001600160a01b031690565b806000815111610657576040805162461bcd60e51b815260206004820152601460248201527f4d696e2070617468206c656e6774682069732031000000000000000000000000604482015290519081900360640190fd5b60058151106106ad576040805162461bcd60e51b815260206004820152601460248201527f4d61782070617468206c656e6774682069732034000000000000000000000000604482015290519081900360640190fd5b7f00000000000000000000000000000000000000000000000000000000000000006001600160a01b0316816001835103815181106106e757fe5b60200260200101516001600160a01b03161461074a576040805162461bcd60e51b815260206004820152601b60248201527f53686f756c64207377617020746f2074617267657420746f6b656e0000000000604482015290519081900360640190fd5b60015b81518160010110156107e9576001600083838151811061076957fe5b6020908102919091018101516001600160a01b031682528101919091526040016000205460ff166107e1576040805162461bcd60e51b815260206004820152601860248201527f546f6b656e206973206e6f742077686974656c69737465640000000000000000604482015290519081900360640190fd5b60010161074d565b50600061082583610820308660008151811061080157fe5b60200260200101516001600160a01b031661110690919063ffffffff16565b6111a9565b509050600061085584837f00000000000000000000000000000000000000000000000000000000000000006113a1565b90507f00000000000000000000000000000000000000000000000000000000000000006001600160a01b0316633c6b16ab826040518263ffffffff1660e01b815260040180828152602001915050600060405180830381600087803b1580156108bd57600080fd5b505af11580156108d1573d6000803e3d6000fd5b5050505050505050565b7f000000000000000000000000000000000000000000000000000000000000000081565b7f000000000000000000000000000000000000000000000000000000000000000081565b61092b611102565b6000546001600160a01b0390811691161461098d576040805162461bcd60e51b815260206004820181905260248201527f4f776e61626c653a2063616c6c6572206973206e6f7420746865206f776e6572604482015290519081900360640190fd5b6001600160a01b0381166109d25760405162461bcd60e51b8152600401808060200182810382526026815260200180611ebf6026913960400191505060405180910390fd5b600080546040516001600160a01b03808516939216917f8be0079c531659141344cd1fd0a4f28419497f9722a3daafe3b4186f6b6457e091a3600080547fffffffffffffffffffffffff0000000000000000000000000000000000000000166001600160a01b0392909216919091179055565b610a4d611102565b6000546001600160a01b03908116911614610aaf576040805162461bcd60e51b815260206004820181905260248201527f4f776e61626c653a2063616c6c6572206973206e6f7420746865206f776e6572604482015290519081900360640190fd5b6001600160a01b0391909116600090815260016020526040902080547fffffffffffffffffffffffffffffffffffffffffffffffffffffffffffffff0016911515919091179055565b60006060826001600160a01b031663aa6ca8086040518163ffffffff1660e01b815260040160006040518083038186803b158015610b3557600080fd5b505afa158015610b49573d6000803e3d6000fd5b505050506040513d6000823e601f3d9081017fffffffffffffffffffffffffffffffffffffffffffffffffffffffffffffffe01682016040526020811015610b9057600080fd5b8101908080516040519392919084640100000000821115610bb057600080fd5b908301906020820185811115610bc557600080fd5b8251866020820283011164010000000082111715610be257600080fd5b82525081516020918201928201910280838360005b83811015610c0f578181015183820152602001610bf7565b505050509050016040525050509050600080600080610c35878660008151811061080157fe5b90506000610c4a888760018151811061080157fe5b90506000886001600160a01b03166348d67e1b6040518163ffffffff1660e01b815260040160206040518083038186803b158015610c8757600080fd5b505afa158015610c9b573d6000803e3d6000fd5b505050506040513d6020811015610cb157600080fd5b50519050610cbd611ea7565b896001600160a01b0316636edc2c0989600081518110610cd957fe5b60200260200101516040518263ffffffff1660e01b815260040180826001600160a01b03168152602001915050604080518083038186803b158015610d1d57600080fd5b505afa158015610d31573d6000803e3d6000fd5b505050506040513d6040811015610d4757600080fd5b50805160209182015164ffffffffff16918301919091527affffffffffffffffffffffffffffffffffffffffffffffffffffff1681526000610d93610d8d8385886117d2565b86611856565b90508a6001600160a01b0316636edc2c098a600181518110610db157fe5b60200260200101516040518263ffffffff1660e01b815260040180826001600160a01b03168152602001915050604080518083038186803b158015610df557600080fd5b505afa158015610e09573d6000803e3d6000fd5b505050506040513d6040811015610e1f57600080fd5b50805160209182015164ffffffffff16918401919091527affffffffffffffffffffffffffffffffffffffffffffffffffffff1682526000610e65610d8d8486886117d2565b90508b6001600160a01b0316635ed9156d8b600081518110610e8357fe5b60200260200101516040518263ffffffff1660e01b815260040180826001600160a01b03168152602001915050604080518083038186803b158015610ec757600080fd5b505afa158015610edb573d6000803e3d6000fd5b505050506040513d6040811015610ef157600080fd5b50805160209182015164ffffffffff16918501919091527affffffffffffffffffffffffffffffffffffffffffffffffffffff1683526000610f3d610f3785878a6117d2565b8861186d565b90508c6001600160a01b0316635ed9156d8c600181518110610f5b57fe5b60200260200101516040518263ffffffff1660e01b815260040180826001600160a01b03168152602001915050604080518083038186803b158015610f9f57600080fd5b505afa158015610fb3573d6000803e3d6000fd5b505050506040513d6040811015610fc957600080fd5b50805160209182015164ffffffffff16918601919091527affffffffffffffffffffffffffffffffffffffffffffffffffffff168452600061100f610f3786888a6117d2565b905061102d82611027670de0b6b3a76400008661187c565b906118d5565b9a5061104584611027670de0b6b3a76400008461187c565b995061105d88611027670de0b6b3a76400008a61187c565b985050505050505050506110e1816110db600a896001600160a01b031663ddca3f436040518163ffffffff1660e01b815260040160206040518083038186803b1580156110a957600080fd5b505afa1580156110bd573d6000803e3d6000fd5b505050506040513d60208110156110d357600080fd5b50519061187c565b9061187c565b6110f7670de0b6b3a76400006110db8686611917565b109695505050505050565b3390565b600061111183611959565b1561112757506001600160a01b038116316111a3565b826001600160a01b03166370a08231836040518263ffffffff1660e01b815260040180826001600160a01b0316815260200191505060206040518083038186803b15801561117457600080fd5b505afa158015611188573d6000803e3d6000fd5b505050506040513d602081101561119e57600080fd5b505190505b92915050565b81518190819060005b818160010110156113985760007f00000000000000000000000000000000000000000000000000000000000000006001600160a01b031663901754d78884815181106111fa57fe5b602002602001015189856001018151811061121157fe5b60200260200101516040518363ffffffff1660e01b815260040180836001600160a01b03168152602001826001600160a01b031681526020019250505060206040518083038186803b15801561126657600080fd5b505afa15801561127a573d6000803e3d6000fd5b505050506040513d602081101561129057600080fd5b505187519091506000906112b3906064906110279085908c908890811061080157fe5b9050848110156112d1576112cb85611027888461187c565b95508094505b816001600160a01b0316631e1401f88985815181106112ec57fe5b60200260200101518a866001018151811061130357fe5b6020026020010151886040518463ffffffff1660e01b815260040180846001600160a01b03168152602001836001600160a01b03168152602001828152602001935050505060206040518083038186803b15801561136057600080fd5b505afa158015611374573d6000803e3d6000fd5b505050506040513d602081101561138a57600080fd5b5051945050506001016111b2565b50509250929050565b8160005b84518160010110156117285760007f00000000000000000000000000000000000000000000000000000000000000006001600160a01b031663901754d78784815181106113ee57fe5b602002602001015188856001018151811061140557fe5b60200260200101516040518363ffffffff1660e01b815260040180836001600160a01b03168152602001826001600160a01b031681526020019250505060206040518083038186803b15801561145a57600080fd5b505afa15801561146e573d6000803e3d6000fd5b505050506040513d602081101561148457600080fd5b5051905061149181610af8565b6114e2576040805162461bcd60e51b815260206004820152601260248201527f53707265616420697320746f6f20686967680000000000000000000000000000604482015290519081900360640190fd5b600083905061150c8784815181106114f657fe5b60200260200101516001600160a01b0316611959565b61154557611541828589868151811061152157fe5b60200260200101516001600160a01b03166119669092919063ffffffff16565b5060005b865183600201101561163057816001600160a01b031663d5bcb9b58289868151811061156d57fe5b60200260200101518a876001018151811061158457fe5b6020026020010151886000806040518763ffffffff1660e01b815260040180866001600160a01b03168152602001856001600160a01b03168152602001848152602001838152602001826001600160a01b03168152602001955050505050506020604051808303818588803b1580156115fc57600080fd5b505af1158015611610573d6000803e3d6000fd5b50505050506040513d602081101561162757600080fd5b5051935061171e565b816001600160a01b031663e331d0398289868151811061164c57fe5b60200260200101518a876001018151811061166357fe5b602090810291909101810151604080517fffffffff0000000000000000000000000000000000000000000000000000000060e088901b1681526001600160a01b0394851660048201529184166024830152604482018b90526000606483018190526084830152928b1660a4820152915160c48084019382900301818588803b1580156116ee57600080fd5b505af1158015611702573d6000803e3d6000fd5b50505050506040513d602081101561171957600080fd5b505193505b50506001016113a5565b508351600114156117cb578360008151811061174057fe5b60200260200101516001600160a01b031663a9059cbb83836040518363ffffffff1660e01b815260040180836001600160a01b0316815260200182815260200192505050602060405180830381600087803b15801561179e57600080fd5b505af11580156117b2573d6000803e3d6000fd5b505050506040513d60208110156117c857600080fd5b50505b9392505050565b6000806117fc846117f7876020015164ffffffffff164261191790919063ffffffff16565b61186d565b9050600061180a8583611917565b905061184c8561102761181d878661187c565b8951611846907affffffffffffffffffffffffffffffffffffffffffffffffffffff168661187c565b90611ac5565b9695505050505050565b60008183101561186657816117cb565b5090919050565b600081831061186657816117cb565b60008261188b575060006111a3565b8282028284828161189857fe5b04146117cb5760405162461bcd60e51b8152600401808060200182810382526021815260200180611ee56021913960400191505060405180910390fd5b60006117cb83836040518060400160405280601a81526020017f536166654d6174683a206469766973696f6e206279207a65726f000000000000815250611b1f565b60006117cb83836040518060400160405280601e81526020017f536166654d6174683a207375627472616374696f6e206f766572666c6f770000815250611bc1565b6001600160a01b03161590565b801580611a055750604080517fdd62ed3e0000000000000000000000000000000000000000000000000000000081523060048201526001600160a01b03848116602483015291519185169163dd62ed3e91604480820192602092909190829003018186803b1580156119d757600080fd5b505afa1580156119eb573d6000803e3d6000fd5b505050506040513d6020811015611a0157600080fd5b5051155b611a405760405162461bcd60e51b8152600401808060200182810382526036815260200180611f306036913960400191505060405180910390fd5b604080516001600160a01b038416602482015260448082018490528251808303909101815260649091019091526020810180517bffffffffffffffffffffffffffffffffffffffffffffffffffffffff167f095ea7b300000000000000000000000000000000000000000000000000000000179052611ac0908490611c1b565b505050565b6000828201838110156117cb576040805162461bcd60e51b815260206004820152601b60248201527f536166654d6174683a206164646974696f6e206f766572666c6f770000000000604482015290519081900360640190fd5b60008183611bab5760405162461bcd60e51b81526004018080602001828103825283818151815260200191508051906020019080838360005b83811015611b70578181015183820152602001611b58565b50505050905090810190601f168015611b9d5780820380516001836020036101000a031916815260200191505b509250505060405180910390fd5b506000838581611bb757fe5b0495945050505050565b60008184841115611c135760405162461bcd60e51b8152602060048201818152835160248401528351909283926044909101919085019080838360008315611b70578181015183820152602001611b58565b505050900390565b6060611c70826040518060400160405280602081526020017f5361666545524332303a206c6f772d6c6576656c2063616c6c206661696c6564815250856001600160a01b0316611ccc9092919063ffffffff16565b805190915015611ac057808060200190516020811015611c8f57600080fd5b5051611ac05760405162461bcd60e51b815260040180806020018281038252602a815260200180611f06602a913960400191505060405180910390fd5b6060611cdb8484600085611ce3565b949350505050565b6060611cee85611e6e565b611d3f576040805162461bcd60e51b815260206004820152601d60248201527f416464726573733a2063616c6c20746f206e6f6e2d636f6e7472616374000000604482015290519081900360640190fd5b60006060866001600160a01b031685876040518082805190602001908083835b60208310611d9c57805182527fffffffffffffffffffffffffffffffffffffffffffffffffffffffffffffffe09092019160209182019101611d5f565b6001836020036101000a03801982511681845116808217855250505050505090500191505060006040518083038185875af1925050503d8060008114611dfe576040519150601f19603f3d011682016040523d82523d6000602084013e611e03565b606091505b50915091508115611e17579150611cdb9050565b805115611e275780518082602001fd5b60405162461bcd60e51b8152602060048201818152865160248401528651879391928392604401919085019080838360008315611b70578181015183820152602001611b58565b6000813f7fc5d2460186f7233c927e7db2dcc703c0e500b653ca82273b7bfad8045d85a470818114801590611cdb575050151592915050565b60408051808201909152600080825260208201529056fe4f776e61626c653a206e6577206f776e657220697320746865207a65726f2061646472657373536166654d6174683a206d756c7469706c69636174696f6e206f766572666c6f775361666545524332303a204552433230206f7065726174696f6e20646964206e6f7420737563636565645361666545524332303a20617070726f76652066726f6d206e6f6e2d7a65726f20746f206e6f6e2d7a65726f20616c6c6f77616e6365a2646970667358221220e04ecc95cad7db6d6f4b214ceae24e8bdf3e3cdc3d6d72a797f81a11a81c737b64736f6c634300060c0033",
  "immutableReferences": {
    "3193": [
      {
        "length": 32,
        "start": 2097
      },
      {
        "length": 32,
        "start": 2137
      },
      {
        "length": 32,
        "start": 2269
      }
    ],
    "8686": [
      {
        "length": 32,
        "start": 1711
      },
      {
        "length": 32,
        "start": 2305
      }
    ],
    "8688": [
      {
        "length": 32,
        "start": 1487
      },
      {
        "length": 32,
        "start": 4545
      },
      {
        "length": 32,
        "start": 5045
      }
    ]
  },
  "source": "// SPDX-License-Identifier: MIT\n\npragma solidity ^0.6.0;\n\nimport \"../utils/BaseRewards.sol\";\nimport \"../utils/Converter.sol\";\n\n\ncontract GovernanceFeeReceiver is Converter {\n    BaseRewards public immutable rewards;\n\n    constructor(IERC20 _inchToken, BaseRewards _rewards, IMooniswapFactory _mooniswapFactory)\n        public Converter(_inchToken, _mooniswapFactory)\n    {\n        rewards = _rewards;\n    }\n\n    function unwrapLPTokens(Mooniswap mooniswap) external validSpread(mooniswap) {\n        mooniswap.withdraw(mooniswap.balanceOf(address(this)), new uint256[](0));\n    }\n\n    function swap(IERC20[] memory path) external validPath(path) {\n        (uint256 amount,) = _maxAmountForSwap(path, path[0].uniBalanceOf(address(this)));\n        uint256 result = _swap(path, amount, payable(address(rewards)));\n        rewards.notifyRewardAmount(result);\n    }\n}\n",
  "sourcePath": "/Users/zumzoom/Projects/1inch/mooniswap-v2/contracts/governance/GovernanceFeeReceiver.sol",
  "compiler": {
    "name": "solc",
    "version": "0.6.12+commit.27d51765.Emscripten.clang"
  },
  "schemaVersion": "3.3.2",
  "updatedAt": "2020-12-17T12:14:22.056Z",
  "devdoc": {
    "kind": "dev",
    "methods": {
      "owner()": {
        "details": "Returns the address of the current owner."
      },
      "renounceOwnership()": {
        "details": "Leaves the contract without owner. It will not be possible to call `onlyOwner` functions anymore. Can only be called by the current owner. NOTE: Renouncing ownership will leave the contract without an owner, thereby removing any functionality that is only available to the owner."
      },
      "transferOwnership(address)": {
        "details": "Transfers ownership of the contract to a new account (`newOwner`). Can only be called by the current owner."
      }
    },
    "version": 1
  },
  "userdoc": {
    "kind": "user",
    "methods": {},
    "version": 1
  }
}