{
  "contractName": "GovernanceMothership",
  "abi": [
    {
      "inputs": [
        {
          "internalType": "contract IERC20",
          "name": "_inchToken",
          "type": "address"
        }
      ],
      "stateMutability": "nonpayable",
      "type": "constructor"
    },
    {
      "anonymous": false,
      "inputs": [
        {
          "indexed": true,
          "internalType": "address",
          "name": "module",
          "type": "address"
        }
      ],
      "name": "AddModule",
      "type": "event"
    },
    {
      "anonymous": false,
      "inputs": [
        {
          "indexed": true,
          "internalType": "address",
          "name": "previousOwner",
          "type": "address"
        },
        {
          "indexed": true,
          "internalType": "address",
          "name": "newOwner",
          "type": "address"
        }
      ],
      "name": "OwnershipTransferred",
      "type": "event"
    },
    {
      "anonymous": false,
      "inputs": [
        {
          "indexed": true,
          "internalType": "address",
          "name": "module",
          "type": "address"
        }
      ],
      "name": "RemoveModule",
      "type": "event"
    },
    {
      "anonymous": false,
      "inputs": [
        {
          "indexed": true,
          "internalType": "address",
          "name": "from",
          "type": "address"
        },
        {
          "indexed": true,
          "internalType": "address",
          "name": "to",
          "type": "address"
        },
        {
          "indexed": false,
          "internalType": "uint256",
          "name": "value",
          "type": "uint256"
        }
      ],
      "name": "Transfer",
      "type": "event"
    },
    {
      "inputs": [
        {
          "internalType": "address",
          "name": "account",
          "type": "address"
        }
      ],
      "name": "balanceOf",
      "outputs": [
        {
          "internalType": "uint256",
          "name": "",
          "type": "uint256"
        }
      ],
      "stateMutability": "view",
      "type": "function"
    },
    {
      "inputs": [],
      "name": "inchToken",
      "outputs": [
        {
          "internalType": "contract IERC20",
          "name": "",
          "type": "address"
        }
      ],
      "stateMutability": "view",
      "type": "function"
    },
    {
      "inputs": [],
      "name": "owner",
      "outputs": [
        {
          "internalType": "address",
          "name": "",
          "type": "address"
        }
      ],
      "stateMutability": "view",
      "type": "function"
    },
    {
      "inputs": [],
      "name": "renounceOwnership",
      "outputs": [],
      "stateMutability": "nonpayable",
      "type": "function"
    },
    {
      "inputs": [],
      "name": "totalSupply",
      "outputs": [
        {
          "internalType": "uint256",
          "name": "",
          "type": "uint256"
        }
      ],
      "stateMutability": "view",
      "type": "function"
    },
    {
      "inputs": [
        {
          "internalType": "address",
          "name": "newOwner",
          "type": "address"
        }
      ],
      "name": "transferOwnership",
      "outputs": [],
      "stateMutability": "nonpayable",
      "type": "function"
    },
    {
      "inputs": [],
      "name": "name",
      "outputs": [
        {
          "internalType": "string",
          "name": "",
          "type": "string"
        }
      ],
      "stateMutability": "pure",
      "type": "function"
    },
    {
      "inputs": [],
      "name": "symbol",
      "outputs": [
        {
          "internalType": "string",
          "name": "",
          "type": "string"
        }
      ],
      "stateMutability": "pure",
      "type": "function"
    },
    {
      "inputs": [],
      "name": "decimals",
      "outputs": [
        {
          "internalType": "uint8",
          "name": "",
          "type": "uint8"
        }
      ],
      "stateMutability": "pure",
      "type": "function"
    },
    {
      "inputs": [
        {
          "internalType": "uint256",
          "name": "amount",
          "type": "uint256"
        }
      ],
      "name": "stake",
      "outputs": [],
      "stateMutability": "nonpayable",
      "type": "function"
    },
    {
      "inputs": [
        {
          "internalType": "uint256",
          "name": "amount",
          "type": "uint256"
        }
      ],
      "name": "unstake",
      "outputs": [],
      "stateMutability": "nonpayable",
      "type": "function"
    },
    {
      "inputs": [],
      "name": "notify",
      "outputs": [],
      "stateMutability": "nonpayable",
      "type": "function"
    },
    {
      "inputs": [
        {
          "internalType": "address",
          "name": "account",
          "type": "address"
        }
      ],
      "name": "notifyFor",
      "outputs": [],
      "stateMutability": "nonpayable",
      "type": "function"
    },
    {
      "inputs": [
        {
          "internalType": "address[]",
          "name": "accounts",
          "type": "address[]"
        }
      ],
      "name": "batchNotifyFor",
      "outputs": [],
      "stateMutability": "nonpayable",
      "type": "function"
    },
    {
      "inputs": [
        {
          "internalType": "address",
          "name": "module",
          "type": "address"
        }
      ],
      "name": "addModule",
      "outputs": [],
      "stateMutability": "nonpayable",
      "type": "function"
    },
    {
      "inputs": [
        {
          "internalType": "address",
          "name": "module",
          "type": "address"
        }
      ],
      "name": "removeModule",
      "outputs": [],
      "stateMutability": "nonpayable",
      "type": "function"
    }
  ],
  "bytecode": "0x60a060405234801561001057600080fd5b506040516112dd3803806112dd8339818101604052602081101561003357600080fd5b5051600061003f61009e565b600080546001600160a01b0319166001600160a01b0383169081178255604051929350917f8be0079c531659141344cd1fd0a4f28419497f9722a3daafe3b4186f6b6457e0908290a35060601b6001600160601b0319166080526100a2565b3390565b60805160601c6112146100c9600039806105965280610ab85280610b8152506112146000f3fe608060405234801561001057600080fd5b50600436106101005760003560e01c8063715018a611610097578063a063246111610066578063a06324611461032a578063a694fc3a14610350578063ec9545941461036d578063f2fde38b1461037557610100565b8063715018a6146102ee578063899f5898146102f65780638da5cb5b146102fe57806395d89b411461032257610100565b80632e17de78116100d35780632e17de78146101ea578063313ce567146102075780635cf1cd2b1461022557806370a08231146102c857610100565b806306fdde0314610105578063132b4fc81461018257806318160ddd146101aa5780631ed86f19146101c4575b600080fd5b61010d61039b565b6040805160208082528351818301528351919283929083019185019080838360005b8381101561014757818101518382015260200161012f565b50505050905090810190601f1680156101745780820380516001836020036101000a031916815260200191505b509250505060405180910390f35b6101a86004803603602081101561019857600080fd5b50356001600160a01b03166103d2565b005b6101b26103e7565b60408051918252519081900360200190f35b6101a8600480360360208110156101da57600080fd5b50356001600160a01b03166103ed565b6101a86004803603602081101561020057600080fd5b50356104ea565b61020f610645565b6040805160ff9092168252519081900360200190f35b6101a86004803603602081101561023b57600080fd5b81019060208101813564010000000081111561025657600080fd5b82018360208201111561026857600080fd5b8035906020019184602083028401116401000000008311171561028a57600080fd5b91908080602002602001604051908101604052809392919081815260200183836020028082843760009201919091525092955061064a945050505050565b6101b2600480360360208110156102de57600080fd5b50356001600160a01b03166107ef565b6101a861080a565b6101a86108cb565b6103066108da565b604080516001600160a01b039092168252519081900360200190f35b61010d6108e9565b6101a86004803603602081101561034057600080fd5b50356001600160a01b0316610920565b6101a86004803603602081101561036657600080fd5b5035610a1d565b610306610b7f565b6101a86004803603602081101561038b57600080fd5b50356001600160a01b0316610ba3565b60408051808201909152601481527f31494e434820546f6b656e20285374616b656429000000000000000000000000602082015290565b6103e4816103df836107ef565b610cba565b50565b60015490565b6103f5610daa565b6000546001600160a01b03908116911614610457576040805162461bcd60e51b815260206004820181905260248201527f4f776e61626c653a2063616c6c6572206973206e6f7420746865206f776e6572604482015290519081900360640190fd5b610462600382610dae565b6104b3576040805162461bcd60e51b815260206004820152601960248201527f4d6f64756c6520616c7265616479207265676973746572656400000000000000604482015290519081900360640190fd5b6040516001600160a01b038216907f0e8ab0265c955b9584b70d255e316c63717f1fb52ba0acfff63bca74ca2e8fad90600090a250565b6000811161053f576040805162461bcd60e51b815260206004820152601c60248201527f456d70747920756e7374616b65206973206e6f7420616c6c6f77656400000000604482015290519081900360640190fd5b6105493382610dcc565b610556336103df336107ef565b604080517fa9059cbb0000000000000000000000000000000000000000000000000000000081523360048201526024810183905290516001600160a01b037f0000000000000000000000000000000000000000000000000000000000000000169163a9059cbb9160448083019260209291908290030181600087803b1580156105de57600080fd5b505af11580156105f2573d6000803e3d6000fd5b505050506040513d602081101561060857600080fd5b505060408051828152905160009133917fddf252ad1be2c89b69c2b068fc378daa952ba7f163c4a11628f55a4df523b3ef9181900360200190a350565b601290565b60006106566003610e54565b90506060825167ffffffffffffffff8111801561067257600080fd5b5060405190808252806020026020018201604052801561069c578160200160208202803683370190505b50905060005b83518110156106e6576106c78482815181106106ba57fe5b60200260200101516107ef565b8282815181106106d357fe5b60209081029190910101526001016106a2565b5060005b828110156107e9576106fd600382610e5f565b6001600160a01b031663ad33334885846040518363ffffffff1660e01b8152600401808060200180602001838103835285818151815260200191508051906020019060200280838360005b83811015610760578181015183820152602001610748565b50505050905001838103825284818151815260200191508051906020019060200280838360005b8381101561079f578181015183820152602001610787565b50505050905001945050505050600060405180830381600087803b1580156107c657600080fd5b505af11580156107da573d6000803e3d6000fd5b505050508060010190506106ea565b50505050565b6001600160a01b031660009081526002602052604090205490565b610812610daa565b6000546001600160a01b03908116911614610874576040805162461bcd60e51b815260206004820181905260248201527f4f776e61626c653a2063616c6c6572206973206e6f7420746865206f776e6572604482015290519081900360640190fd5b600080546040516001600160a01b03909116907f8be0079c531659141344cd1fd0a4f28419497f9722a3daafe3b4186f6b6457e0908390a36000805473ffffffffffffffffffffffffffffffffffffffff19169055565b6108d8336103df336107ef565b565b6000546001600160a01b031690565b60408051808201909152600781527f737431494e434800000000000000000000000000000000000000000000000000602082015290565b610928610daa565b6000546001600160a01b0390811691161461098a576040805162461bcd60e51b815260206004820181905260248201527f4f776e61626c653a2063616c6c6572206973206e6f7420746865206f776e6572604482015290519081900360640190fd5b610995600382610e6b565b6109e6576040805162461bcd60e51b815260206004820152601960248201527f4d6f64756c6520776173206e6f74207265676973746572656400000000000000604482015290519081900360640190fd5b6040516001600160a01b038216907f75f4e5771d2cdd015405ae76feb37f5792736e71ff18f8a9dd690772a48111a390600090a250565b60008111610a72576040805162461bcd60e51b815260206004820152601a60248201527f456d707479207374616b65206973206e6f7420616c6c6f776564000000000000604482015290519081900360640190fd5b604080517f23b872dd0000000000000000000000000000000000000000000000000000000081523360048201523060248201526044810183905290516001600160a01b037f000000000000000000000000000000000000000000000000000000000000000016916323b872dd9160648083019260209291908290030181600087803b158015610b0057600080fd5b505af1158015610b14573d6000803e3d6000fd5b505050506040513d6020811015610b2a57600080fd5b50610b3790503382610e80565b610b44336103df336107ef565b60408051828152905133916000917fddf252ad1be2c89b69c2b068fc378daa952ba7f163c4a11628f55a4df523b3ef9181900360200190a350565b7f000000000000000000000000000000000000000000000000000000000000000081565b610bab610daa565b6000546001600160a01b03908116911614610c0d576040805162461bcd60e51b815260206004820181905260248201527f4f776e61626c653a2063616c6c6572206973206e6f7420746865206f776e6572604482015290519081900360640190fd5b6001600160a01b038116610c525760405162461bcd60e51b81526004018080602001828103825260268152602001806111b96026913960400191505060405180910390fd5b600080546040516001600160a01b03808516939216917f8be0079c531659141344cd1fd0a4f28419497f9722a3daafe3b4186f6b6457e091a36000805473ffffffffffffffffffffffffffffffffffffffff19166001600160a01b0392909216919091179055565b600380546040805160208084028201810190925282815260609390929091830182828015610d0757602002820191906000526020600020905b815481526020019060010190808311610cf3575b5050505050905060005b81518110156107e957818181518110610d2657fe5b602002602001015160001c6001600160a01b03166327a2743385856040518363ffffffff1660e01b815260040180836001600160a01b0316815260200182815260200192505050600060405180830381600087803b158015610d8757600080fd5b505af1158015610d9b573d6000803e3d6000fd5b50505050806001019050610d11565b3390565b6000610dc3836001600160a01b038416610ed3565b90505b92915050565b604080518082018252601b81527f4275726e20616d6f756e7420657863656564732062616c616e636500000000006020808301919091526001600160a01b038516600090815260029091529190912054610e27918390610f1d565b6001600160a01b038316600090815260026020526040902055600154610e4d9082610fb4565b6001555050565b6000610dc682610ff6565b6000610dc38383610ffa565b6000610dc3836001600160a01b03841661105e565b600154610e8d9082611124565b6001556001600160a01b038216600090815260026020526040902054610eb39082611124565b6001600160a01b0390921660009081526002602052604090209190915550565b6000610edf838361117e565b610f1557508154600181810184556000848152602080822090930184905584548482528286019093526040902091909155610dc6565b506000610dc6565b60008184841115610fac5760405162461bcd60e51b81526004018080602001828103825283818151815260200191508051906020019080838360005b83811015610f71578181015183820152602001610f59565b50505050905090810190601f168015610f9e5780820380516001836020036101000a031916815260200191505b509250505060405180910390fd5b505050900390565b6000610dc383836040518060400160405280601e81526020017f536166654d6174683a207375627472616374696f6e206f766572666c6f770000815250610f1d565b5490565b8154600090821061103c5760405162461bcd60e51b81526004018080602001828103825260228152602001806111976022913960400191505060405180910390fd5b82600001828154811061104b57fe5b9060005260206000200154905092915050565b6000818152600183016020526040812054801561111a578354600019808301919081019060009087908390811061109157fe5b90600052602060002001549050808760000184815481106110ae57fe5b6000918252602080832090910192909255828152600189810190925260409020908401905586548790806110de57fe5b60019003818190600052602060002001600090559055866001016000878152602001908152602001600020600090556001945050505050610dc6565b6000915050610dc6565b600082820183811015610dc3576040805162461bcd60e51b815260206004820152601b60248201527f536166654d6174683a206164646974696f6e206f766572666c6f770000000000604482015290519081900360640190fd5b6000908152600191909101602052604090205415159056fe456e756d657261626c655365743a20696e646578206f7574206f6620626f756e64734f776e61626c653a206e6577206f776e657220697320746865207a65726f2061646472657373a264697066735822122053ab1ae128e1910f9c880ac1927ce0c9361c3313ec489a6956aa666c4e34834a64736f6c634300060c0033",
  "immutableReferences": {
    "6064": [
      {
        "length": 32,
        "start": 1430
      },
      {
        "length": 32,
        "start": 2744
      },
      {
        "length": 32,
        "start": 2945
      }
    ]
  },
  "source": "// SPDX-License-Identifier: MIT\n\npragma solidity ^0.6.0;\n\nimport \"@openzeppelin/contracts/access/Ownable.sol\";\nimport \"@openzeppelin/contracts/math/SafeMath.sol\";\nimport \"@openzeppelin/contracts/token/ERC20/IERC20.sol\";\nimport \"@openzeppelin/contracts/utils/EnumerableSet.sol\";\nimport \"../interfaces/IGovernanceModule.sol\";\nimport \"../utils/BalanceAccounting.sol\";\n\n\ncontract GovernanceMothership is Ownable, BalanceAccounting {\n    using SafeMath for uint256;\n    using EnumerableSet for EnumerableSet.AddressSet;\n\n    event Transfer(address indexed from, address indexed to, uint256 value);\n    event AddModule(address indexed module);\n    event RemoveModule(address indexed module);\n\n    IERC20 public immutable inchToken;\n\n    EnumerableSet.AddressSet private _modules;\n\n    constructor(IERC20 _inchToken) public {\n        inchToken = _inchToken;\n    }\n\n    function name() external pure returns(string memory) {\n        return \"1INCH Token (Staked)\";\n    }\n\n    function symbol() external pure returns(string memory) {\n        return \"st1INCH\";\n    }\n\n    function decimals() external pure returns(uint8) {\n        return 18;\n    }\n\n    function stake(uint256 amount) external {\n        require(amount > 0, \"Empty stake is not allowed\");\n\n        inchToken.transferFrom(msg.sender, address(this), amount);\n        _mint(msg.sender, amount);\n        _notifyFor(msg.sender, balanceOf(msg.sender));\n        emit Transfer(address(0), msg.sender, amount);\n    }\n\n    function unstake(uint256 amount) external {\n        require(amount > 0, \"Empty unstake is not allowed\");\n\n        _burn(msg.sender, amount);\n        _notifyFor(msg.sender, balanceOf(msg.sender));\n        inchToken.transfer(msg.sender, amount);\n        emit Transfer(msg.sender, address(0), amount);\n    }\n\n    function notify() external {\n        _notifyFor(msg.sender, balanceOf(msg.sender));\n    }\n\n    function notifyFor(address account) external {\n        _notifyFor(account, balanceOf(account));\n    }\n\n    function batchNotifyFor(address[] memory accounts) external {\n        uint256 modulesLength = _modules.length();\n        uint256[] memory balances = new uint256[](accounts.length);\n        for (uint256 j = 0; j < accounts.length; ++j) {\n            balances[j] = balanceOf(accounts[j]);\n        }\n        for (uint256 i = 0; i < modulesLength; ++i) {\n            IGovernanceModule(_modules.at(i)).notifyStakesChanged(accounts, balances);\n        }\n    }\n\n    function addModule(address module) external onlyOwner {\n        require(_modules.add(module), \"Module already registered\");\n        emit AddModule(module);\n    }\n\n    function removeModule(address module) external onlyOwner {\n        require(_modules.remove(module), \"Module was not registered\");\n        emit RemoveModule(module);\n    }\n\n    function _notifyFor(address account, uint256 balance) private {\n        bytes32[] memory cached = _modules._inner._values;\n        for (uint256 i = 0; i < cached.length; ++i) {\n            IGovernanceModule(address(uint256(cached[i]))).notifyStakeChanged(account, balance);\n        }\n    }\n}\n",
  "sourcePath": "/Users/k06a/Projects/mooniswap-v2/contracts/inch/GovernanceMothership.sol",
  "compiler": {
    "name": "solc",
    "version": "0.6.12+commit.27d51765.Emscripten.clang"
  },
  "schemaVersion": "3.3.3",
  "updatedAt": "2021-01-07T10:25:20.565Z",
  "devdoc": {
    "kind": "dev",
    "methods": {
      "owner()": {
        "details": "Returns the address of the current owner."
      },
      "renounceOwnership()": {
        "details": "Leaves the contract without owner. It will not be possible to call `onlyOwner` functions anymore. Can only be called by the current owner. NOTE: Renouncing ownership will leave the contract without an owner, thereby removing any functionality that is only available to the owner."
      },
      "transferOwnership(address)": {
        "details": "Transfers ownership of the contract to a new account (`newOwner`). Can only be called by the current owner."
      }
    },
    "version": 1
  },
  "userdoc": {
    "kind": "user",
    "methods": {},
    "version": 1
  }
}