{
  "contractName": "GovernanceRewards",
  "abi": [
    {
      "inputs": [
        {
          "internalType": "contract IERC20",
          "name": "_gift",
          "type": "address"
        },
        {
          "internalType": "address",
          "name": "_mothership",
          "type": "address"
        }
      ],
      "stateMutability": "nonpayable",
      "type": "constructor"
    },
    {
      "anonymous": false,
      "inputs": [
        {
          "indexed": true,
          "internalType": "address",
          "name": "previousOwner",
          "type": "address"
        },
        {
          "indexed": true,
          "internalType": "address",
          "name": "newOwner",
          "type": "address"
        }
      ],
      "name": "OwnershipTransferred",
      "type": "event"
    },
    {
      "anonymous": false,
      "inputs": [
        {
          "indexed": false,
          "internalType": "uint256",
          "name": "reward",
          "type": "uint256"
        }
      ],
      "name": "RewardAdded",
      "type": "event"
    },
    {
      "anonymous": false,
      "inputs": [
        {
          "indexed": true,
          "internalType": "address",
          "name": "user",
          "type": "address"
        },
        {
          "indexed": false,
          "internalType": "uint256",
          "name": "reward",
          "type": "uint256"
        }
      ],
      "name": "RewardPaid",
      "type": "event"
    },
    {
      "inputs": [],
      "name": "DURATION",
      "outputs": [
        {
          "internalType": "uint256",
          "name": "",
          "type": "uint256"
        }
      ],
      "stateMutability": "view",
      "type": "function"
    },
    {
      "inputs": [
        {
          "internalType": "address",
          "name": "account",
          "type": "address"
        }
      ],
      "name": "balanceOf",
      "outputs": [
        {
          "internalType": "uint256",
          "name": "",
          "type": "uint256"
        }
      ],
      "stateMutability": "view",
      "type": "function"
    },
    {
      "inputs": [
        {
          "internalType": "address",
          "name": "account",
          "type": "address"
        }
      ],
      "name": "earned",
      "outputs": [
        {
          "internalType": "uint256",
          "name": "",
          "type": "uint256"
        }
      ],
      "stateMutability": "view",
      "type": "function"
    },
    {
      "inputs": [],
      "name": "getReward",
      "outputs": [],
      "stateMutability": "nonpayable",
      "type": "function"
    },
    {
      "inputs": [],
      "name": "gift",
      "outputs": [
        {
          "internalType": "contract IERC20",
          "name": "",
          "type": "address"
        }
      ],
      "stateMutability": "view",
      "type": "function"
    },
    {
      "inputs": [],
      "name": "lastTimeRewardApplicable",
      "outputs": [
        {
          "internalType": "uint256",
          "name": "",
          "type": "uint256"
        }
      ],
      "stateMutability": "view",
      "type": "function"
    },
    {
      "inputs": [],
      "name": "lastUpdateTime",
      "outputs": [
        {
          "internalType": "uint256",
          "name": "",
          "type": "uint256"
        }
      ],
      "stateMutability": "view",
      "type": "function"
    },
    {
      "inputs": [],
      "name": "mothership",
      "outputs": [
        {
          "internalType": "address",
          "name": "",
          "type": "address"
        }
      ],
      "stateMutability": "view",
      "type": "function"
    },
    {
      "inputs": [
        {
          "internalType": "uint256",
          "name": "reward",
          "type": "uint256"
        }
      ],
      "name": "notifyRewardAmount",
      "outputs": [],
      "stateMutability": "nonpayable",
      "type": "function"
    },
    {
      "inputs": [
        {
          "internalType": "address",
          "name": "account",
          "type": "address"
        },
        {
          "internalType": "uint256",
          "name": "newBalance",
          "type": "uint256"
        }
      ],
      "name": "notifyStakeChanged",
      "outputs": [],
      "stateMutability": "nonpayable",
      "type": "function"
    },
    {
      "inputs": [
        {
          "internalType": "address[]",
          "name": "accounts",
          "type": "address[]"
        },
        {
          "internalType": "uint256[]",
          "name": "newBalances",
          "type": "uint256[]"
        }
      ],
      "name": "notifyStakesChanged",
      "outputs": [],
      "stateMutability": "nonpayable",
      "type": "function"
    },
    {
      "inputs": [],
      "name": "owner",
      "outputs": [
        {
          "internalType": "address",
          "name": "",
          "type": "address"
        }
      ],
      "stateMutability": "view",
      "type": "function"
    },
    {
      "inputs": [],
      "name": "periodFinish",
      "outputs": [
        {
          "internalType": "uint256",
          "name": "",
          "type": "uint256"
        }
      ],
      "stateMutability": "view",
      "type": "function"
    },
    {
      "inputs": [],
      "name": "renounceOwnership",
      "outputs": [],
      "stateMutability": "nonpayable",
      "type": "function"
    },
    {
      "inputs": [],
      "name": "rewardDistribution",
      "outputs": [
        {
          "internalType": "address",
          "name": "",
          "type": "address"
        }
      ],
      "stateMutability": "view",
      "type": "function"
    },
    {
      "inputs": [],
      "name": "rewardPerToken",
      "outputs": [
        {
          "internalType": "uint256",
          "name": "",
          "type": "uint256"
        }
      ],
      "stateMutability": "view",
      "type": "function"
    },
    {
      "inputs": [],
      "name": "rewardPerTokenStored",
      "outputs": [
        {
          "internalType": "uint256",
          "name": "",
          "type": "uint256"
        }
      ],
      "stateMutability": "view",
      "type": "function"
    },
    {
      "inputs": [],
      "name": "rewardRate",
      "outputs": [
        {
          "internalType": "uint256",
          "name": "",
          "type": "uint256"
        }
      ],
      "stateMutability": "view",
      "type": "function"
    },
    {
      "inputs": [
        {
          "internalType": "address",
          "name": "",
          "type": "address"
        }
      ],
      "name": "rewards",
      "outputs": [
        {
          "internalType": "uint256",
          "name": "",
          "type": "uint256"
        }
      ],
      "stateMutability": "view",
      "type": "function"
    },
    {
      "inputs": [
        {
          "internalType": "address",
          "name": "_rewardDistribution",
          "type": "address"
        }
      ],
      "name": "setRewardDistribution",
      "outputs": [],
      "stateMutability": "nonpayable",
      "type": "function"
    },
    {
      "inputs": [],
      "name": "totalSupply",
      "outputs": [
        {
          "internalType": "uint256",
          "name": "",
          "type": "uint256"
        }
      ],
      "stateMutability": "view",
      "type": "function"
    },
    {
      "inputs": [
        {
          "internalType": "address",
          "name": "newOwner",
          "type": "address"
        }
      ],
      "name": "transferOwnership",
      "outputs": [],
      "stateMutability": "nonpayable",
      "type": "function"
    },
    {
      "inputs": [
        {
          "internalType": "address",
          "name": "",
          "type": "address"
        }
      ],
      "name": "userRewardPerTokenPaid",
      "outputs": [
        {
          "internalType": "uint256",
          "name": "",
          "type": "uint256"
        }
      ],
      "stateMutability": "view",
      "type": "function"
    }
  ],
  "bytecode": "0x60c060405234801561001057600080fd5b506040516111473803806111478339818101604052604081101561003357600080fd5b5080516020909101516001600160601b0319606082901b166080528160006100596100bb565b600080546001600160a01b0319166001600160a01b0383169081178255604051929350917f8be0079c531659141344cd1fd0a4f28419497f9722a3daafe3b4186f6b6457e0908290a35060601b6001600160601b03191660a052506100bf9050565b3390565b60805160601c60a05160601c6110506100f760003980610558528061083752508061058552806108ec5280610a2f52506110506000f3fe608060405234801561001057600080fd5b506004361061018c5760003560e01c806370a08231116100e3578063ad3333481161008c578063df136d6511610066578063df136d65146103ea578063ebe2b12b146103f2578063f2fde38b146103fa5761018c565b8063ad33334814610318578063c8f33c91146103da578063cd3daf9d146103e25761018c565b806380faa57d116100bd57806380faa57d146102e25780638b876347146102ea5780638da5cb5b146103105761018c565b806370a08231146102ac578063715018a6146102d25780637b0a47ee146102da5761018c565b80631be05289116101455780633c6b16ab1161011f5780633c6b16ab1461027f5780633d18b9121461029c5780634187b7d6146102a45761018c565b80631be052891461024357806324b049051461024b57806327a27433146102535761018c565b80630d68b761116101765780630d68b761146101ef578063101114cf1461021757806318160ddd1461023b5761018c565b80628cc262146101915780630700037d146101c9575b600080fd5b6101b7600480360360208110156101a757600080fd5b50356001600160a01b0316610420565b60408051918252519081900360200190f35b6101b7600480360360208110156101df57600080fd5b50356001600160a01b031661048e565b6102156004803603602081101561020557600080fd5b50356001600160a01b03166104a0565b005b61021f610539565b604080516001600160a01b039092168252519081900360200190f35b6101b7610548565b6101b761054f565b61021f610556565b6102156004803603604081101561026957600080fd5b506001600160a01b03813516906020013561057a565b6102156004803603602081101561029557600080fd5b5035610605565b61021561077d565b61021f6108ea565b6101b7600480360360208110156102c257600080fd5b50356001600160a01b031661090e565b610215610929565b6101b76109ea565b6101b76109f0565b6101b76004803603602081101561030057600080fd5b50356001600160a01b0316610a03565b61021f610a15565b6102156004803603604081101561032e57600080fd5b81019060208101813564010000000081111561034957600080fd5b82018360208201111561035b57600080fd5b8035906020019184602083028401116401000000008311171561037d57600080fd5b91939092909160208101903564010000000081111561039b57600080fd5b8201836020820111156103ad57600080fd5b803590602001918460208302840111640100000000831117156103cf57600080fd5b509092509050610a24565b6101b7610b46565b6101b7610b4c565b6101b7610b9a565b6101b7610ba0565b6102156004803603602081101561041057600080fd5b50356001600160a01b0316610ba6565b6001600160a01b0381166000908152600960209081526040808320546008909252822054610488919061048290670de0b6b3a76400009061047c9061046d90610467610b4c565b90610cbd565b6104768861090e565b90610d06565b90610d5f565b90610da1565b92915050565b60096020526000908152604090205481565b6104a8610dfb565b6000546001600160a01b0390811691161461050a576040805162461bcd60e51b815260206004820181905260248201527f4f776e61626c653a2063616c6c6572206973206e6f7420746865206f776e6572604482015290519081900360640190fd5b6003805473ffffffffffffffffffffffffffffffffffffffff19166001600160a01b0392909216919091179055565b6003546001600160a01b031681565b6001545b90565b62093a8081565b7f000000000000000000000000000000000000000000000000000000000000000081565b336001600160a01b037f000000000000000000000000000000000000000000000000000000000000000016146105f7576040805162461bcd60e51b815260206004820152601f60248201527f416363657373207265737472696374656420746f206d6f746865727368697000604482015290519081900360640190fd5b6106018282610dff565b5050565b6003546001600160a01b0316610619610dfb565b6001600160a01b031614610674576040805162461bcd60e51b815260206004820152600d60248201527f4163636573732064656e69656400000000000000000000000000000000000000604482015290519081900360640190fd5b600061067e610b4c565b6007556106896109f0565b6006556001600160a01b038116156106d0576106a481610420565b6001600160a01b0382166000908152600960209081526040808320939093556007546008909152919020555b60045442106106ee576106e68262093a80610d5f565b600555610730565b6004546000906106fe9042610cbd565b9050600061071760055483610d0690919063ffffffff16565b905061072a62093a8061047c8684610da1565b60055550505b4260068190556107439062093a80610da1565b6004556040805183815290517fde88a922e0d3b88b24e9623efeb464919c6bf9f66857a65e2bfcf2ce87a9433d9181900360200190a15050565b33610786610b4c565b6007556107916109f0565b6006556001600160a01b038116156107d8576107ac81610420565b6001600160a01b0382166000908152600960209081526040808320939093556007546008909152919020555b60006107e333610420565b905080156106015733600081815260096020908152604080832083905580517fa9059cbb000000000000000000000000000000000000000000000000000000008152600481019490945260248401859052517f00000000000000000000000000000000000000000000000000000000000000006001600160a01b03169363a9059cbb9360448083019493928390030190829087803b15801561088457600080fd5b505af1158015610898573d6000803e3d6000fd5b505050506040513d60208110156108ae57600080fd5b505060408051828152905133917fe2403640ba68fed3a2f88b7557551d1993f84b99bb10ff833f0cf8db0c5e0486919081900360200190a25050565b7f000000000000000000000000000000000000000000000000000000000000000081565b6001600160a01b031660009081526002602052604090205490565b610931610dfb565b6000546001600160a01b03908116911614610993576040805162461bcd60e51b815260206004820181905260248201527f4f776e61626c653a2063616c6c6572206973206e6f7420746865206f776e6572604482015290519081900360640190fd5b600080546040516001600160a01b03909116907f8be0079c531659141344cd1fd0a4f28419497f9722a3daafe3b4186f6b6457e0908390a36000805473ffffffffffffffffffffffffffffffffffffffff19169055565b60055481565b60006109fe42600454610e6a565b905090565b60086020526000908152604090205481565b6000546001600160a01b031690565b336001600160a01b037f00000000000000000000000000000000000000000000000000000000000000001614610aa1576040805162461bcd60e51b815260206004820152601f60248201527f416363657373207265737472696374656420746f206d6f746865727368697000604482015290519081900360640190fd5b828114610af5576040805162461bcd60e51b815260206004820152601d60248201527f417272617973206c656e6774682073686f756c6420626520657175616c000000604482015290519081900360640190fd5b60005b83811015610b3f57610b37858583818110610b0f57fe5b905060200201356001600160a01b0316848484818110610b2b57fe5b90506020020135610dff565b600101610af8565b5050505050565b60065481565b6000610b56610548565b610b63575060075461054c565b6109fe610b91610b71610548565b61047c670de0b6b3a76400006104766005546104766006546104676109f0565b60075490610da1565b60075481565b60045481565b610bae610dfb565b6000546001600160a01b03908116911614610c10576040805162461bcd60e51b815260206004820181905260248201527f4f776e61626c653a2063616c6c6572206973206e6f7420746865206f776e6572604482015290519081900360640190fd5b6001600160a01b038116610c555760405162461bcd60e51b8152600401808060200182810382526026815260200180610fd46026913960400191505060405180910390fd5b600080546040516001600160a01b03808516939216917f8be0079c531659141344cd1fd0a4f28419497f9722a3daafe3b4186f6b6457e091a36000805473ffffffffffffffffffffffffffffffffffffffff19166001600160a01b0392909216919091179055565b6000610cff83836040518060400160405280601e81526020017f536166654d6174683a207375627472616374696f6e206f766572666c6f770000815250610e80565b9392505050565b600082610d1557506000610488565b82820282848281610d2257fe5b0414610cff5760405162461bcd60e51b8152600401808060200182810382526021815260200180610ffa6021913960400191505060405180910390fd5b6000610cff83836040518060400160405280601a81526020017f536166654d6174683a206469766973696f6e206279207a65726f000000000000815250610f17565b600082820183811015610cff576040805162461bcd60e51b815260206004820152601b60248201527f536166654d6174683a206164646974696f6e206f766572666c6f770000000000604482015290519081900360640190fd5b3390565b81610e08610b4c565b600755610e136109f0565b6006556001600160a01b03811615610e5a57610e2e81610420565b6001600160a01b0382166000908152600960209081526040808320939093556007546008909152919020555b610e648383610f7c565b50505050565b6000818310610e795781610cff565b5090919050565b60008184841115610f0f5760405162461bcd60e51b81526004018080602001828103825283818151815260200191508051906020019080838360005b83811015610ed4578181015183820152602001610ebc565b50505050905090810190601f168015610f015780820380516001836020036101000a031916815260200191505b509250505060405180910390fd5b505050900390565b60008183610f665760405162461bcd60e51b8152602060048201818152835160248401528351909283926044909101919085019080838360008315610ed4578181015183820152602001610ebc565b506000838581610f7257fe5b0495945050505050565b6001600160a01b038216600090815260026020526040902054818114610488576001600160a01b0383166000908152600260205260409020829055600154610fca9082906104679085610da1565b6001559291505056fe4f776e61626c653a206e6577206f776e657220697320746865207a65726f2061646472657373536166654d6174683a206d756c7469706c69636174696f6e206f766572666c6f77a2646970667358221220d67895de06b0385f24f339050438dfebf51f9a0760ff9b75e16faf7937b38bc064736f6c634300060c0033",
  "immutableReferences": {
    "3228": [
      {
        "length": 32,
        "start": 1413
      },
      {
        "length": 32,
        "start": 2284
      },
      {
        "length": 32,
        "start": 2607
      }
    ],
    "9661": [
      {
        "length": 32,
        "start": 1368
      },
      {
        "length": 32,
        "start": 2103
      }
    ]
  },
  "source": "// SPDX-License-Identifier: MIT\n\npragma solidity ^0.6.12;\n\nimport \"@openzeppelin/contracts/math/SafeMath.sol\";\nimport \"./BaseGovernanceModule.sol\";\nimport \"../utils/BaseRewards.sol\";\n\n\ncontract GovernanceRewards is BaseGovernanceModule, BaseRewards {\n    using SafeMath for uint256;\n\n    // solhint-disable-next-line no-empty-blocks\n    constructor(IERC20 _gift, address _mothership) public BaseGovernanceModule(_mothership) BaseRewards(_gift) {}\n\n    function _notifyStakeChanged(address account, uint256 newBalance) internal override updateReward(account) {\n        _set(account, newBalance);\n    }\n}\n",
  "sourcePath": "/Users/k06a/Projects/mooniswap-v2/contracts/governance/GovernanceRewards.sol",
  "compiler": {
    "name": "solc",
    "version": "0.6.12+commit.27d51765.Emscripten.clang"
  },
  "schemaVersion": "3.3.3",
  "updatedAt": "2021-01-07T10:25:20.545Z",
  "devdoc": {
    "kind": "dev",
    "methods": {
      "owner()": {
        "details": "Returns the address of the current owner."
      },
      "renounceOwnership()": {
        "details": "Leaves the contract without owner. It will not be possible to call `onlyOwner` functions anymore. Can only be called by the current owner. NOTE: Renouncing ownership will leave the contract without an owner, thereby removing any functionality that is only available to the owner."
      },
      "transferOwnership(address)": {
        "details": "Transfers ownership of the contract to a new account (`newOwner`). Can only be called by the current owner."
      }
    },
    "version": 1
  },
  "userdoc": {
    "kind": "user",
    "methods": {},
    "version": 1
  }
}