{
  "contractName": "GovernanceMothership",
  "abi": [
    {
      "inputs": [
        {
          "internalType": "contract IERC20",
          "name": "_inchToken",
          "type": "address"
        }
      ],
      "stateMutability": "nonpayable",
      "type": "constructor"
    },
    {
      "anonymous": false,
      "inputs": [
        {
          "indexed": true,
          "internalType": "address",
          "name": "module",
          "type": "address"
        }
      ],
      "name": "AddModule",
      "type": "event"
    },
    {
      "anonymous": false,
      "inputs": [
        {
          "indexed": true,
          "internalType": "address",
          "name": "previousOwner",
          "type": "address"
        },
        {
          "indexed": true,
          "internalType": "address",
          "name": "newOwner",
          "type": "address"
        }
      ],
      "name": "OwnershipTransferred",
      "type": "event"
    },
    {
      "anonymous": false,
      "inputs": [
        {
          "indexed": true,
          "internalType": "address",
          "name": "module",
          "type": "address"
        }
      ],
      "name": "RemoveModule",
      "type": "event"
    },
    {
      "inputs": [
        {
          "internalType": "address",
          "name": "account",
          "type": "address"
        }
      ],
      "name": "balanceOf",
      "outputs": [
        {
          "internalType": "uint256",
          "name": "",
          "type": "uint256"
        }
      ],
      "stateMutability": "view",
      "type": "function"
    },
    {
      "inputs": [],
      "name": "inchToken",
      "outputs": [
        {
          "internalType": "contract IERC20",
          "name": "",
          "type": "address"
        }
      ],
      "stateMutability": "view",
      "type": "function"
    },
    {
      "inputs": [],
      "name": "owner",
      "outputs": [
        {
          "internalType": "address",
          "name": "",
          "type": "address"
        }
      ],
      "stateMutability": "view",
      "type": "function"
    },
    {
      "inputs": [],
      "name": "renounceOwnership",
      "outputs": [],
      "stateMutability": "nonpayable",
      "type": "function"
    },
    {
      "inputs": [],
      "name": "totalSupply",
      "outputs": [
        {
          "internalType": "uint256",
          "name": "",
          "type": "uint256"
        }
      ],
      "stateMutability": "view",
      "type": "function"
    },
    {
      "inputs": [
        {
          "internalType": "address",
          "name": "newOwner",
          "type": "address"
        }
      ],
      "name": "transferOwnership",
      "outputs": [],
      "stateMutability": "nonpayable",
      "type": "function"
    },
    {
      "inputs": [
        {
          "internalType": "uint256",
          "name": "amount",
          "type": "uint256"
        }
      ],
      "name": "stake",
      "outputs": [],
      "stateMutability": "nonpayable",
      "type": "function"
    },
    {
      "inputs": [
        {
          "internalType": "uint256",
          "name": "amount",
          "type": "uint256"
        }
      ],
      "name": "unstake",
      "outputs": [],
      "stateMutability": "nonpayable",
      "type": "function"
    },
    {
      "inputs": [],
      "name": "notify",
      "outputs": [],
      "stateMutability": "nonpayable",
      "type": "function"
    },
    {
      "inputs": [
        {
          "internalType": "address",
          "name": "account",
          "type": "address"
        }
      ],
      "name": "notifyFor",
      "outputs": [],
      "stateMutability": "nonpayable",
      "type": "function"
    },
    {
      "inputs": [
        {
          "internalType": "address[]",
          "name": "accounts",
          "type": "address[]"
        }
      ],
      "name": "batchNotifyFor",
      "outputs": [],
      "stateMutability": "nonpayable",
      "type": "function"
    },
    {
      "inputs": [
        {
          "internalType": "address",
          "name": "module",
          "type": "address"
        }
      ],
      "name": "addModule",
      "outputs": [],
      "stateMutability": "nonpayable",
      "type": "function"
    },
    {
      "inputs": [
        {
          "internalType": "address",
          "name": "module",
          "type": "address"
        }
      ],
      "name": "removeModule",
      "outputs": [],
      "stateMutability": "nonpayable",
      "type": "function"
    }
  ],
  "bytecode": "0x60a060405234801561001057600080fd5b5060405161127e38038061127e8339818101604052602081101561003357600080fd5b5051600061003f61009e565b600080546001600160a01b0319166001600160a01b0383169081178255604051929350917f8be0079c531659141344cd1fd0a4f28419497f9722a3daafe3b4186f6b6457e0908290a35060601b6001600160601b0319166080526100a2565b3390565b60805160601c6111b56100c9600039806104f95280610a2f5280610ab052506111b56000f3fe608060405234801561001057600080fd5b50600436106100df5760003560e01c8063715018a61161008c578063a063246111610066578063a06324611461029a578063a694fc3a146102cd578063ec954594146102ea578063f2fde38b146102f2576100df565b8063715018a614610259578063899f5898146102615780638da5cb5b14610269576100df565b80632e17de78116100bd5780632e17de78146101665780635cf1cd2b1461018357806370a0823114610226576100df565b8063132b4fc8146100e457806318160ddd146101195780631ed86f1914610133575b600080fd5b610117600480360360208110156100fa57600080fd5b503573ffffffffffffffffffffffffffffffffffffffff16610325565b005b61012161033a565b60408051918252519081900360200190f35b6101176004803603602081101561014957600080fd5b503573ffffffffffffffffffffffffffffffffffffffff16610340565b6101176004803603602081101561017c57600080fd5b5035610457565b6101176004803603602081101561019957600080fd5b8101906020810181356401000000008111156101b457600080fd5b8201836020820111156101c657600080fd5b803590602001918460208302840111640100000000831117156101e857600080fd5b919080806020026020016040519081016040528093929190818152602001838360200280828437600092019190915250929550610585945050505050565b6101216004803603602081101561023c57600080fd5b503573ffffffffffffffffffffffffffffffffffffffff16610737565b61011761075f565b610117610845565b610271610854565b6040805173ffffffffffffffffffffffffffffffffffffffff9092168252519081900360200190f35b610117600480360360208110156102b057600080fd5b503573ffffffffffffffffffffffffffffffffffffffff16610870565b610117600480360360208110156102e357600080fd5b5035610987565b610271610aae565b6101176004803603602081101561030857600080fd5b503573ffffffffffffffffffffffffffffffffffffffff16610ad2565b6103378161033283610737565b610c28565b50565b60015490565b610348610cdf565b60005473ffffffffffffffffffffffffffffffffffffffff9081169116146103b7576040805162461bcd60e51b815260206004820181905260248201527f4f776e61626c653a2063616c6c6572206973206e6f7420746865206f776e6572604482015290519081900360640190fd5b6103c2600382610ce3565b610413576040805162461bcd60e51b815260206004820152601960248201527f4d6f64756c6520616c7265616479207265676973746572656400000000000000604482015290519081900360640190fd5b60405173ffffffffffffffffffffffffffffffffffffffff8216907f0e8ab0265c955b9584b70d255e316c63717f1fb52ba0acfff63bca74ca2e8fad90600090a250565b600081116104ac576040805162461bcd60e51b815260206004820152601c60248201527f456d70747920756e7374616b65206973206e6f7420616c6c6f77656400000000604482015290519081900360640190fd5b604080517fa9059cbb00000000000000000000000000000000000000000000000000000000815233600482015260248101839052905173ffffffffffffffffffffffffffffffffffffffff7f0000000000000000000000000000000000000000000000000000000000000000169163a9059cbb9160448083019260209291908290030181600087803b15801561054157600080fd5b505af1158015610555573d6000803e3d6000fd5b505050506040513d602081101561056b57600080fd5b5061057890503382610d0e565b6103373361033233610737565b60006105916003610db0565b90506060825167ffffffffffffffff811180156105ad57600080fd5b506040519080825280602002602001820160405280156105d7578160200160208202803683370190505b50905060005b8351811015610621576106028482815181106105f557fe5b6020026020010151610737565b82828151811061060e57fe5b60209081029190910101526001016105dd565b5060005b8281101561073157610638600382610dbb565b73ffffffffffffffffffffffffffffffffffffffff1663ad33334885846040518363ffffffff1660e01b8152600401808060200180602001838103835285818151815260200191508051906020019060200280838360005b838110156106a8578181015183820152602001610690565b50505050905001838103825284818151815260200191508051906020019060200280838360005b838110156106e75781810151838201526020016106cf565b50505050905001945050505050600060405180830381600087803b15801561070e57600080fd5b505af1158015610722573d6000803e3d6000fd5b50505050806001019050610625565b50505050565b73ffffffffffffffffffffffffffffffffffffffff1660009081526002602052604090205490565b610767610cdf565b60005473ffffffffffffffffffffffffffffffffffffffff9081169116146107d6576040805162461bcd60e51b815260206004820181905260248201527f4f776e61626c653a2063616c6c6572206973206e6f7420746865206f776e6572604482015290519081900360640190fd5b6000805460405173ffffffffffffffffffffffffffffffffffffffff909116907f8be0079c531659141344cd1fd0a4f28419497f9722a3daafe3b4186f6b6457e0908390a3600080547fffffffffffffffffffffffff0000000000000000000000000000000000000000169055565b6108523361033233610737565b565b60005473ffffffffffffffffffffffffffffffffffffffff1690565b610878610cdf565b60005473ffffffffffffffffffffffffffffffffffffffff9081169116146108e7576040805162461bcd60e51b815260206004820181905260248201527f4f776e61626c653a2063616c6c6572206973206e6f7420746865206f776e6572604482015290519081900360640190fd5b6108f2600382610dc7565b610943576040805162461bcd60e51b815260206004820152601960248201527f4d6f64756c6520776173206e6f74207265676973746572656400000000000000604482015290519081900360640190fd5b60405173ffffffffffffffffffffffffffffffffffffffff8216907f75f4e5771d2cdd015405ae76feb37f5792736e71ff18f8a9dd690772a48111a390600090a250565b600081116109dc576040805162461bcd60e51b815260206004820152601a60248201527f456d707479207374616b65206973206e6f7420616c6c6f776564000000000000604482015290519081900360640190fd5b604080517f23b872dd00000000000000000000000000000000000000000000000000000000815233600482015230602482015260448101839052905173ffffffffffffffffffffffffffffffffffffffff7f000000000000000000000000000000000000000000000000000000000000000016916323b872dd9160648083019260209291908290030181600087803b158015610a7757600080fd5b505af1158015610a8b573d6000803e3d6000fd5b505050506040513d6020811015610aa157600080fd5b5061057890503382610de9565b7f000000000000000000000000000000000000000000000000000000000000000081565b610ada610cdf565b60005473ffffffffffffffffffffffffffffffffffffffff908116911614610b49576040805162461bcd60e51b815260206004820181905260248201527f4f776e61626c653a2063616c6c6572206973206e6f7420746865206f776e6572604482015290519081900360640190fd5b73ffffffffffffffffffffffffffffffffffffffff8116610b9b5760405162461bcd60e51b815260040180806020018281038252602681526020018061115a6026913960400191505060405180910390fd5b6000805460405173ffffffffffffffffffffffffffffffffffffffff808516939216917f8be0079c531659141344cd1fd0a4f28419497f9722a3daafe3b4186f6b6457e091a3600080547fffffffffffffffffffffffff00000000000000000000000000000000000000001673ffffffffffffffffffffffffffffffffffffffff92909216919091179055565b6000610c346003610db0565b905060005b8181101561073157610c4c600382610dbb565b73ffffffffffffffffffffffffffffffffffffffff166327a2743385856040518363ffffffff1660e01b8152600401808373ffffffffffffffffffffffffffffffffffffffff16815260200182815260200192505050600060405180830381600087803b158015610cbc57600080fd5b505af1158015610cd0573d6000803e3d6000fd5b50505050806001019050610c39565b3390565b6000610d058373ffffffffffffffffffffffffffffffffffffffff8416610e56565b90505b92915050565b604080518082018252601b81527f4275726e20616d6f756e7420657863656564732062616c616e6365000000000060208083019190915273ffffffffffffffffffffffffffffffffffffffff8516600090815260029091529190912054610d76918390610ea0565b73ffffffffffffffffffffffffffffffffffffffff8316600090815260026020526040902055600154610da99082610f37565b6001555050565b6000610d0882610f79565b6000610d058383610f7d565b6000610d058373ffffffffffffffffffffffffffffffffffffffff8416610fe1565b600154610df690826110c5565b60015573ffffffffffffffffffffffffffffffffffffffff8216600090815260026020526040902054610e2990826110c5565b73ffffffffffffffffffffffffffffffffffffffff90921660009081526002602052604090209190915550565b6000610e62838361111f565b610e9857508154600181810184556000848152602080822090930184905584548482528286019093526040902091909155610d08565b506000610d08565b60008184841115610f2f5760405162461bcd60e51b81526004018080602001828103825283818151815260200191508051906020019080838360005b83811015610ef4578181015183820152602001610edc565b50505050905090810190601f168015610f215780820380516001836020036101000a031916815260200191505b509250505060405180910390fd5b505050900390565b6000610d0583836040518060400160405280601e81526020017f536166654d6174683a207375627472616374696f6e206f766572666c6f770000815250610ea0565b5490565b81546000908210610fbf5760405162461bcd60e51b81526004018080602001828103825260228152602001806111386022913960400191505060405180910390fd5b826000018281548110610fce57fe5b9060005260206000200154905092915050565b600081815260018301602052604081205480156110bb5783547fffffffffffffffffffffffffffffffffffffffffffffffffffffffffffffffff808301919081019060009087908390811061103257fe5b906000526020600020015490508087600001848154811061104f57fe5b60009182526020808320909101929092558281526001898101909252604090209084019055865487908061107f57fe5b60019003818190600052602060002001600090559055866001016000878152602001908152602001600020600090556001945050505050610d08565b6000915050610d08565b600082820183811015610d05576040805162461bcd60e51b815260206004820152601b60248201527f536166654d6174683a206164646974696f6e206f766572666c6f770000000000604482015290519081900360640190fd5b6000908152600191909101602052604090205415159056fe456e756d657261626c655365743a20696e646578206f7574206f6620626f756e64734f776e61626c653a206e6577206f776e657220697320746865207a65726f2061646472657373a2646970667358221220900bdd616cddd12cc4af2a71f5aa9440013d7a75b50863e6f25c7d1117e5994764736f6c634300060c0033",
  "immutableReferences": {
    "5139": [
      {
        "length": 32,
        "start": 1273
      },
      {
        "length": 32,
        "start": 2607
      },
      {
        "length": 32,
        "start": 2736
      }
    ]
  },
  "source": "// SPDX-License-Identifier: MIT\n\npragma solidity ^0.6.0;\n\nimport \"@openzeppelin/contracts/access/Ownable.sol\";\nimport \"@openzeppelin/contracts/math/SafeMath.sol\";\nimport \"@openzeppelin/contracts/token/ERC20/IERC20.sol\";\nimport \"@openzeppelin/contracts/utils/EnumerableSet.sol\";\nimport \"../interfaces/IGovernanceModule.sol\";\nimport \"../utils/BalanceAccounting.sol\";\n\n\ncontract GovernanceMothership is Ownable, BalanceAccounting {\n    using SafeMath for uint256;\n    using EnumerableSet for EnumerableSet.AddressSet;\n\n    event AddModule(address indexed module);\n    event RemoveModule(address indexed module);\n\n    IERC20 public immutable inchToken;\n\n    EnumerableSet.AddressSet private _modules;\n\n    constructor(IERC20 _inchToken) public {\n        inchToken = _inchToken;\n    }\n\n    function stake(uint256 amount) external {\n        require(amount > 0, \"Empty stake is not allowed\");\n\n        inchToken.transferFrom(msg.sender, address(this), amount);\n        _mint(msg.sender, amount);\n        _notifyFor(msg.sender, balanceOf(msg.sender));\n    }\n\n    function unstake(uint256 amount) external {\n        require(amount > 0, \"Empty unstake is not allowed\");\n\n        inchToken.transfer(msg.sender, amount);\n        _burn(msg.sender, amount);\n        _notifyFor(msg.sender, balanceOf(msg.sender));\n    }\n\n    function notify() external {\n        _notifyFor(msg.sender, balanceOf(msg.sender));\n    }\n\n    function notifyFor(address account) external {\n        _notifyFor(account, balanceOf(account));\n    }\n\n    function batchNotifyFor(address[] memory accounts) external {\n        uint256 modulesLength = _modules.length();\n        uint256[] memory balances = new uint256[](accounts.length);\n        for (uint256 j = 0; j < accounts.length; ++j) {\n            balances[j] = balanceOf(accounts[j]);\n        }\n        for (uint256 i = 0; i < modulesLength; ++i) {\n            IGovernanceModule(_modules.at(i)).notifyStakesChanged(accounts, balances);\n        }\n    }\n\n    function addModule(address module) external onlyOwner {\n        require(_modules.add(module), \"Module already registered\");\n        emit AddModule(module);\n    }\n\n    function removeModule(address module) external onlyOwner {\n        require(_modules.remove(module), \"Module was not registered\");\n        emit RemoveModule(module);\n    }\n\n    function _notifyFor(address account, uint256 balance) private {\n        uint256 modulesLength = _modules.length();\n        for (uint256 i = 0; i < modulesLength; ++i) {\n            IGovernanceModule(_modules.at(i)).notifyStakeChanged(account, balance);\n        }\n    }\n}\n",
  "sourcePath": "/Users/zumzoom/Projects/1inch/mooniswap-v2/contracts/inch/GovernanceMothership.sol",
  "compiler": {
    "name": "solc",
    "version": "0.6.12+commit.27d51765.Emscripten.clang"
  },
  "schemaVersion": "3.3.2",
  "updatedAt": "2020-12-17T09:38:26.394Z",
  "devdoc": {
    "kind": "dev",
    "methods": {
      "owner()": {
        "details": "Returns the address of the current owner."
      },
      "renounceOwnership()": {
        "details": "Leaves the contract without owner. It will not be possible to call `onlyOwner` functions anymore. Can only be called by the current owner. NOTE: Renouncing ownership will leave the contract without an owner, thereby removing any functionality that is only available to the owner."
      },
      "transferOwnership(address)": {
        "details": "Transfers ownership of the contract to a new account (`newOwner`). Can only be called by the current owner."
      }
    },
    "version": 1
  },
  "userdoc": {
    "kind": "user",
    "methods": {},
    "version": 1
  }
}