{
  "contractName": "GovernanceFeeReceiver",
  "abi": [
    {
      "inputs": [
        {
          "internalType": "contract IERC20",
          "name": "_targetToken",
          "type": "address"
        },
        {
          "internalType": "contract IRewardDistributionRecipient",
          "name": "_rewards",
          "type": "address"
        }
      ],
      "stateMutability": "nonpayable",
      "type": "constructor"
    },
    {
      "inputs": [],
      "name": "rewards",
      "outputs": [
        {
          "internalType": "contract IRewardDistributionRecipient",
          "name": "",
          "type": "address"
        }
      ],
      "stateMutability": "view",
      "type": "function"
    },
    {
      "inputs": [],
      "name": "targetToken",
      "outputs": [
        {
          "internalType": "contract IERC20",
          "name": "",
          "type": "address"
        }
      ],
      "stateMutability": "view",
      "type": "function"
    },
    {
      "stateMutability": "payable",
      "type": "receive"
    },
    {
      "inputs": [
        {
          "internalType": "contract Mooniswap",
          "name": "mooniswap",
          "type": "address"
        }
      ],
      "name": "unwrapLPTokens",
      "outputs": [],
      "stateMutability": "nonpayable",
      "type": "function"
    },
    {
      "inputs": [
        {
          "internalType": "contract IERC20[]",
          "name": "path",
          "type": "address[]"
        }
      ],
      "name": "swap",
      "outputs": [],
      "stateMutability": "nonpayable",
      "type": "function"
    }
  ],
  "bytecode": "0x60c060405234801561001057600080fd5b50604051611e63380380611e638339818101604052604081101561003357600080fd5b5080516020909101516001600160601b0319606092831b8116608052911b1660a05260805160601c60a05160601c611dd661008d600039806103c952806103f152806104645250806102035280610e0f5250611dd66000f3fe6080604052600436106100435760003560e01c8063327107f7146100be578063647a5f7c146100fc5780639b40a0c01461013c5780639ec5a894146101ec576100b9565b366100b957333214156100b757604080517f08c379a000000000000000000000000000000000000000000000000000000000815260206004820152601660248201527f455448207472616e7366657220666f7262696464656e00000000000000000000604482015290519081900360640190fd5b005b600080fd5b3480156100ca57600080fd5b506100d3610201565b6040805173ffffffffffffffffffffffffffffffffffffffff9092168252519081900360200190f35b34801561010857600080fd5b506100b76004803603602081101561011f57600080fd5b503573ffffffffffffffffffffffffffffffffffffffff16610225565b34801561014857600080fd5b506100b76004803603602081101561015f57600080fd5b81019060208101813564010000000081111561017a57600080fd5b82018360208201111561018c57600080fd5b803590602001918460208302840111640100000000831117156101ae57600080fd5b919080806020026020016040519081016040528093929190818152602001838360200280828437600092019190915250929550610378945050505050565b3480156101f857600080fd5b506100d3610462565b7f000000000000000000000000000000000000000000000000000000000000000081565b8061022f81610486565b604080517f70a08231000000000000000000000000000000000000000000000000000000008152306004820152905173ffffffffffffffffffffffffffffffffffffffff841691635915d8069183916370a08231916024808301926020929190829003018186803b1580156102a357600080fd5b505afa1580156102b7573d6000803e3d6000fd5b505050506040513d60208110156102cd57600080fd5b50516040805160008082526020820190925290506040518363ffffffff1660e01b81526004018083815260200180602001828103825283818151815260200191508051906020019060200280838360005b8381101561033657818101518382015260200161031e565b505050509050019350505050600060405180830381600087803b15801561035c57600080fd5b505af1158015610370573d6000803e3d6000fd5b505050505050565b60006103c0826103bb308560008151811061038f57fe5b602002602001015173ffffffffffffffffffffffffffffffffffffffff16610bd190919063ffffffff16565b610c9b565b90506103ed82827f0000000000000000000000000000000000000000000000000000000000000000610e0b565b90507f000000000000000000000000000000000000000000000000000000000000000073ffffffffffffffffffffffffffffffffffffffff16633c6b16ab826040518263ffffffff1660e01b815260040180828152602001915050600060405180830381600087803b15801561035c57600080fd5b7f000000000000000000000000000000000000000000000000000000000000000081565b60608173ffffffffffffffffffffffffffffffffffffffff1663aa6ca8086040518163ffffffff1660e01b815260040160006040518083038186803b1580156104ce57600080fd5b505afa1580156104e2573d6000803e3d6000fd5b505050506040513d6000823e601f3d9081017fffffffffffffffffffffffffffffffffffffffffffffffffffffffffffffffe0168201604052602081101561052957600080fd5b810190808051604051939291908464010000000082111561054957600080fd5b90830190602082018581111561055e57600080fd5b825186602082028301116401000000008211171561057b57600080fd5b82525081516020918201928201910280838360005b838110156105a8578181015183820152602001610590565b5050505090500160405250505090506000806000806105ce868660008151811061038f57fe5b905060006105e3878760018151811061038f57fe5b905060008773ffffffffffffffffffffffffffffffffffffffff166348d67e1b6040518163ffffffff1660e01b815260040160206040518083038186803b15801561062d57600080fd5b505afa158015610641573d6000803e3d6000fd5b505050506040513d602081101561065757600080fd5b50518751909150600090819073ffffffffffffffffffffffffffffffffffffffff8b1690636edc2c09908b90849061068b57fe5b60200260200101516040518263ffffffff1660e01b8152600401808273ffffffffffffffffffffffffffffffffffffffff168152602001915050604080518083038186803b1580156106dc57600080fd5b505afa1580156106f0573d6000803e3d6000fd5b505050506040513d604081101561070657600080fd5b508051602091820151604080518082019091527affffffffffffffffffffffffffffffffffffffffffffffffffffff8316815264ffffffffff82169381019390935290935091506000906107659061075f908689611537565b876115bb565b90508a73ffffffffffffffffffffffffffffffffffffffff16636edc2c098b60018151811061079057fe5b60200260200101516040518263ffffffff1660e01b8152600401808273ffffffffffffffffffffffffffffffffffffffff168152602001915050604080518083038186803b1580156107e157600080fd5b505afa1580156107f5573d6000803e3d6000fd5b505050506040513d604081101561080b57600080fd5b508051602091820151604080518082019091527affffffffffffffffffffffffffffffffffffffffffffffffffffff8316815264ffffffffff82169381019390935290945092506000906108649061075f908789611537565b90508b73ffffffffffffffffffffffffffffffffffffffff16635ed9156d8c60008151811061088f57fe5b60200260200101516040518263ffffffff1660e01b8152600401808273ffffffffffffffffffffffffffffffffffffffff168152602001915050604080518083038186803b1580156108e057600080fd5b505afa1580156108f4573d6000803e3d6000fd5b505050506040513d604081101561090a57600080fd5b508051602091820151604080518082019091527affffffffffffffffffffffffffffffffffffffffffffffffffffff8316815264ffffffffff82169381019390935290955093506000906109699061096390888b611537565b896115d4565b90508c73ffffffffffffffffffffffffffffffffffffffff16635ed9156d8d60018151811061099457fe5b60200260200101516040518263ffffffff1660e01b8152600401808273ffffffffffffffffffffffffffffffffffffffff168152602001915050604080518083038186803b1580156109e557600080fd5b505afa1580156109f9573d6000803e3d6000fd5b505050506040513d6040811015610a0f57600080fd5b508051602091820151604080518082019091527affffffffffffffffffffffffffffffffffffffffffffffffffffff8316815264ffffffffff8216938101939093529096509450600090610a689061096390898b611537565b9050610a8682610a80670de0b6b3a7640000866115e3565b90611656565b9b50610a9e84610a80670de0b6b3a7640000846115e3565b9a50610ab689610a80670de0b6b3a76400008b6115e3565b9950505050505050505050610b4881610b42600a8873ffffffffffffffffffffffffffffffffffffffff1663ddca3f436040518163ffffffff1660e01b815260040160206040518083038186803b158015610b1057600080fd5b505afa158015610b24573d6000803e3d6000fd5b505050506040513d6020811015610b3a57600080fd5b5051906115e3565b906115e3565b610b5e670de0b6b3a7640000610b428686611698565b10610bca57604080517f08c379a000000000000000000000000000000000000000000000000000000000815260206004820152601260248201527f53707265616420697320746f6f20686967680000000000000000000000000000604482015290519081900360640190fd5b5050505050565b6000610bdc836116da565b15610bff575073ffffffffffffffffffffffffffffffffffffffff811631610c95565b8273ffffffffffffffffffffffffffffffffffffffff166370a08231836040518263ffffffff1660e01b8152600401808273ffffffffffffffffffffffffffffffffffffffff16815260200191505060206040518083038186803b158015610c6657600080fd5b505afa158015610c7a573d6000803e3d6000fd5b505050506040513d6020811015610c9057600080fd5b505190505b92915050565b81518190819060015b81811015610e02576000868281518110610cba57fe5b60200260200101519050610ccd81610486565b6000610ce76064610a80848b600188038151811061038f57fe5b905084811015610d0557610cff85610a8088846115e3565b95508094505b83836002011015610df8578173ffffffffffffffffffffffffffffffffffffffff16631e1401f8896001860381518110610d3b57fe5b60200260200101518a8660010181518110610d5257fe5b6020026020010151886040518463ffffffff1660e01b8152600401808473ffffffffffffffffffffffffffffffffffffffff1681526020018373ffffffffffffffffffffffffffffffffffffffff168152602001828152602001935050505060206040518083038186803b158015610dc957600080fd5b505afa158015610ddd573d6000803e3d6000fd5b505050506040513d6020811015610df357600080fd5b505194505b5050600201610ca4565b50505092915050565b60007f000000000000000000000000000000000000000000000000000000000000000073ffffffffffffffffffffffffffffffffffffffff1684600186510381518110610e5457fe5b602002602001015173ffffffffffffffffffffffffffffffffffffffff1614610ede57604080517f08c379a000000000000000000000000000000000000000000000000000000000815260206004820152601b60248201527f53686f756c64207377617020746f2074617267657420746f6b656e0000000000604482015290519081900360640190fd5b508251829060015b818160020110156111c457610f26866001830381518110610f0357fe5b602002602001015173ffffffffffffffffffffffffffffffffffffffff166116da565b1561104457858181518110610f3757fe5b602002602001015173ffffffffffffffffffffffffffffffffffffffff1663d5bcb9b584886001850381518110610f6a57fe5b6020026020010151898560010181518110610f8157fe5b602090810291909101810151604080517fffffffff0000000000000000000000000000000000000000000000000000000060e088901b16815273ffffffffffffffffffffffffffffffffffffffff948516600482015293909116602484015260448301899052600060648401523060848401525160a48084019382900301818588803b15801561101057600080fd5b505af1158015611024573d6000803e3d6000fd5b50505050506040513d602081101561103b57600080fd5b505192506111bc565b61109886828151811061105357fe5b60200260200101518488600185038151811061106b57fe5b602002602001015173ffffffffffffffffffffffffffffffffffffffff166116f49092919063ffffffff16565b8581815181106110a457fe5b602002602001015173ffffffffffffffffffffffffffffffffffffffff1663d5bcb9b58760018403815181106110d657fe5b60200260200101518884600101815181106110ed57fe5b6020026020010151866000306040518663ffffffff1660e01b8152600401808673ffffffffffffffffffffffffffffffffffffffff1681526020018573ffffffffffffffffffffffffffffffffffffffff1681526020018481526020018381526020018273ffffffffffffffffffffffffffffffffffffffff16815260200195505050505050602060405180830381600087803b15801561118d57600080fd5b505af11580156111a1573d6000803e3d6000fd5b505050506040513d60208110156111b757600080fd5b505192505b600201610ee6565b50600181111561147d576111e0856003830381518110610f0357fe5b15611309578460028203815181106111f457fe5b602002602001015173ffffffffffffffffffffffffffffffffffffffff1663e331d0398387600385038151811061122757fe5b602002602001015188600186038151811061123e57fe5b602090810291909101810151604080517fffffffff0000000000000000000000000000000000000000000000000000000060e088901b16815273ffffffffffffffffffffffffffffffffffffffff94851660048201529184166024830152604482018990526000606483015230608483015292891660a4820152915160c48084019382900301818588803b1580156112d557600080fd5b505af11580156112e9573d6000803e3d6000fd5b50505050506040513d602081101561130057600080fd5b50519150611478565b61133385600283038151811061131b57fe5b60200260200101518387600385038151811061106b57fe5b84600282038151811061134257fe5b602002602001015173ffffffffffffffffffffffffffffffffffffffff1663e331d03986600384038151811061137457fe5b602002602001015187600185038151811061138b57fe5b602002602001015185600030896040518763ffffffff1660e01b8152600401808773ffffffffffffffffffffffffffffffffffffffff1681526020018673ffffffffffffffffffffffffffffffffffffffff1681526020018581526020018481526020018373ffffffffffffffffffffffffffffffffffffffff1681526020018273ffffffffffffffffffffffffffffffffffffffff1681526020019650505050505050602060405180830381600087803b15801561144957600080fd5b505af115801561145d573d6000803e3d6000fd5b505050506040513d602081101561147357600080fd5b505191505b61152f565b8460008151811061148a57fe5b602002602001015173ffffffffffffffffffffffffffffffffffffffff1663a9059cbb84846040518363ffffffff1660e01b8152600401808373ffffffffffffffffffffffffffffffffffffffff16815260200182815260200192505050602060405180830381600087803b15801561150257600080fd5b505af1158015611516573d6000803e3d6000fd5b505050506040513d602081101561152c57600080fd5b50505b509392505050565b6000806115618461155c876020015164ffffffffff164261169890919063ffffffff16565b6115d4565b9050600061156f8583611698565b90506115b185610a8061158287866115e3565b89516115ab907affffffffffffffffffffffffffffffffffffffffffffffffffffff16866115e3565b90611887565b9695505050505050565b6000818310156115cb57816115cd565b825b9392505050565b60008183106115cb57816115cd565b6000826115f257506000610c95565b828202828482816115ff57fe5b04146115cd576040517f08c379a0000000000000000000000000000000000000000000000000000000008152600401808060200182810382526021815260200180611d206021913960400191505060405180910390fd5b60006115cd83836040518060400160405280601a81526020017f536166654d6174683a206469766973696f6e206279207a65726f0000000000008152506118fb565b60006115cd83836040518060400160405280601e81526020017f536166654d6174683a207375627472616374696f6e206f766572666c6f7700008152506119b7565b73ffffffffffffffffffffffffffffffffffffffff161590565b8015806117a05750604080517fdd62ed3e00000000000000000000000000000000000000000000000000000000815230600482015273ffffffffffffffffffffffffffffffffffffffff848116602483015291519185169163dd62ed3e91604480820192602092909190829003018186803b15801561177257600080fd5b505afa158015611786573d6000803e3d6000fd5b505050506040513d602081101561179c57600080fd5b5051155b6117f5576040517f08c379a0000000000000000000000000000000000000000000000000000000008152600401808060200182810382526036815260200180611d6b6036913960400191505060405180910390fd5b6040805173ffffffffffffffffffffffffffffffffffffffff8416602482015260448082018490528251808303909101815260649091019091526020810180517bffffffffffffffffffffffffffffffffffffffffffffffffffffffff167f095ea7b300000000000000000000000000000000000000000000000000000000179052611882908490611a2b565b505050565b6000828201838110156115cd57604080517f08c379a000000000000000000000000000000000000000000000000000000000815260206004820152601b60248201527f536166654d6174683a206164646974696f6e206f766572666c6f770000000000604482015290519081900360640190fd5b600081836119a1576040517f08c379a00000000000000000000000000000000000000000000000000000000081526004018080602001828103825283818151815260200191508051906020019080838360005b8381101561196657818101518382015260200161194e565b50505050905090810190601f1680156119935780820380516001836020036101000a031916815260200191505b509250505060405180910390fd5b5060008385816119ad57fe5b0495945050505050565b60008184841115611a23576040517f08c379a000000000000000000000000000000000000000000000000000000000815260206004820181815283516024840152835190928392604490910191908501908083836000831561196657818101518382015260200161194e565b505050900390565b6060611a8d826040518060400160405280602081526020017f5361666545524332303a206c6f772d6c6576656c2063616c6c206661696c65648152508573ffffffffffffffffffffffffffffffffffffffff16611b039092919063ffffffff16565b80519091501561188257808060200190516020811015611aac57600080fd5b5051611882576040517f08c379a000000000000000000000000000000000000000000000000000000000815260040180806020018281038252602a815260200180611d41602a913960400191505060405180910390fd5b6060611b128484600085611b1a565b949350505050565b6060611b2585611ce6565b611b9057604080517f08c379a000000000000000000000000000000000000000000000000000000000815260206004820152601d60248201527f416464726573733a2063616c6c20746f206e6f6e2d636f6e7472616374000000604482015290519081900360640190fd5b600060608673ffffffffffffffffffffffffffffffffffffffff1685876040518082805190602001908083835b60208310611bfa57805182527fffffffffffffffffffffffffffffffffffffffffffffffffffffffffffffffe09092019160209182019101611bbd565b6001836020036101000a03801982511681845116808217855250505050505090500191505060006040518083038185875af1925050503d8060008114611c5c576040519150601f19603f3d011682016040523d82523d6000602084013e611c61565b606091505b50915091508115611c75579150611b129050565b805115611c855780518082602001fd5b6040517f08c379a000000000000000000000000000000000000000000000000000000000815260206004820181815286516024840152865187939192839260440191908501908083836000831561196657818101518382015260200161194e565b6000813f7fc5d2460186f7233c927e7db2dcc703c0e500b653ca82273b7bfad8045d85a470818114801590611b1257505015159291505056fe536166654d6174683a206d756c7469706c69636174696f6e206f766572666c6f775361666545524332303a204552433230206f7065726174696f6e20646964206e6f7420737563636565645361666545524332303a20617070726f76652066726f6d206e6f6e2d7a65726f20746f206e6f6e2d7a65726f20616c6c6f77616e6365a2646970667358221220abb1e0c21fa2f55dbb65e2361ade89629a49ac7d0ff6be1eed7d5b3a51c572b264736f6c634300060c0033",
  "immutableReferences": {
    "2911": [
      {
        "length": 32,
        "start": 969
      },
      {
        "length": 32,
        "start": 1009
      },
      {
        "length": 32,
        "start": 1124
      }
    ],
    "6643": [
      {
        "length": 32,
        "start": 515
      },
      {
        "length": 32,
        "start": 3599
      }
    ]
  },
  "source": "// SPDX-License-Identifier: MIT\n\npragma solidity ^0.6.0;\n\nimport \"../utils/Converter.sol\";\nimport \"./rewards/IRewardDistributionRecipient.sol\";\n\n\ncontract GovernanceFeeReceiver is Converter {\n    IRewardDistributionRecipient public immutable rewards;\n\n    receive() external payable {\n        // solhint-disable-next-line avoid-tx-origin\n        require(msg.sender != tx.origin, \"ETH transfer forbidden\");\n    }\n\n    constructor(IERC20 _targetToken, IRewardDistributionRecipient _rewards) public Converter(_targetToken) {\n        rewards = _rewards;\n    }\n\n    function unwrapLPTokens(Mooniswap mooniswap) external validSpread(mooniswap) {\n        mooniswap.withdraw(mooniswap.balanceOf(address(this)), new uint256[](0));\n    }\n\n    function swap(IERC20[] memory path) external {\n        uint256 amount = _maxAmountForSwap(path, path[0].uniBalanceOf(address(this)));\n        amount = _swap(path, amount, payable(address(rewards)));\n        rewards.notifyRewardAmount(amount);\n    }\n}\n",
  "sourcePath": "/Users/zumzoom/Projects/1inch/mooniswap-v2/contracts/governance/GovernanceFeeReceiver.sol",
  "compiler": {
    "name": "solc",
    "version": "0.6.12+commit.27d51765.Emscripten.clang"
  },
  "schemaVersion": "3.3.2",
  "updatedAt": "2020-11-30T14:06:38.046Z",
  "devdoc": {
    "kind": "dev",
    "methods": {},
    "version": 1
  },
  "userdoc": {
    "kind": "user",
    "methods": {},
    "version": 1
  }
}