{
  "contractName": "GovernanceMothership",
  "abi": [
    {
      "inputs": [
        {
          "internalType": "contract IERC20",
          "name": "_inchToken",
          "type": "address"
        }
      ],
      "stateMutability": "nonpayable",
      "type": "constructor"
    },
    {
      "anonymous": false,
      "inputs": [
        {
          "indexed": true,
          "internalType": "address",
          "name": "module",
          "type": "address"
        }
      ],
      "name": "AddModule",
      "type": "event"
    },
    {
      "anonymous": false,
      "inputs": [
        {
          "indexed": true,
          "internalType": "address",
          "name": "previousOwner",
          "type": "address"
        },
        {
          "indexed": true,
          "internalType": "address",
          "name": "newOwner",
          "type": "address"
        }
      ],
      "name": "OwnershipTransferred",
      "type": "event"
    },
    {
      "anonymous": false,
      "inputs": [
        {
          "indexed": true,
          "internalType": "address",
          "name": "module",
          "type": "address"
        }
      ],
      "name": "RemoveModule",
      "type": "event"
    },
    {
      "inputs": [
        {
          "internalType": "address",
          "name": "account",
          "type": "address"
        }
      ],
      "name": "balanceOf",
      "outputs": [
        {
          "internalType": "uint256",
          "name": "",
          "type": "uint256"
        }
      ],
      "stateMutability": "view",
      "type": "function"
    },
    {
      "inputs": [],
      "name": "inchToken",
      "outputs": [
        {
          "internalType": "contract IERC20",
          "name": "",
          "type": "address"
        }
      ],
      "stateMutability": "view",
      "type": "function"
    },
    {
      "inputs": [],
      "name": "owner",
      "outputs": [
        {
          "internalType": "address",
          "name": "",
          "type": "address"
        }
      ],
      "stateMutability": "view",
      "type": "function"
    },
    {
      "inputs": [],
      "name": "renounceOwnership",
      "outputs": [],
      "stateMutability": "nonpayable",
      "type": "function"
    },
    {
      "inputs": [],
      "name": "totalSupply",
      "outputs": [
        {
          "internalType": "uint256",
          "name": "",
          "type": "uint256"
        }
      ],
      "stateMutability": "view",
      "type": "function"
    },
    {
      "inputs": [
        {
          "internalType": "address",
          "name": "newOwner",
          "type": "address"
        }
      ],
      "name": "transferOwnership",
      "outputs": [],
      "stateMutability": "nonpayable",
      "type": "function"
    },
    {
      "inputs": [
        {
          "internalType": "uint256",
          "name": "amount",
          "type": "uint256"
        }
      ],
      "name": "stake",
      "outputs": [],
      "stateMutability": "nonpayable",
      "type": "function"
    },
    {
      "inputs": [
        {
          "internalType": "uint256",
          "name": "amount",
          "type": "uint256"
        }
      ],
      "name": "unstake",
      "outputs": [],
      "stateMutability": "nonpayable",
      "type": "function"
    },
    {
      "inputs": [],
      "name": "notify",
      "outputs": [],
      "stateMutability": "nonpayable",
      "type": "function"
    },
    {
      "inputs": [
        {
          "internalType": "address",
          "name": "account",
          "type": "address"
        }
      ],
      "name": "notifyFor",
      "outputs": [],
      "stateMutability": "nonpayable",
      "type": "function"
    },
    {
      "inputs": [
        {
          "internalType": "address",
          "name": "module",
          "type": "address"
        }
      ],
      "name": "addModule",
      "outputs": [],
      "stateMutability": "nonpayable",
      "type": "function"
    },
    {
      "inputs": [
        {
          "internalType": "address",
          "name": "module",
          "type": "address"
        }
      ],
      "name": "removeModule",
      "outputs": [],
      "stateMutability": "nonpayable",
      "type": "function"
    }
  ],
  "bytecode": "0x60a060405234801561001057600080fd5b50604051610f59380380610f598339818101604052602081101561003357600080fd5b5051600061003f61009e565b600080546001600160a01b0319166001600160a01b0383169081178255604051929350917f8be0079c531659141344cd1fd0a4f28419497f9722a3daafe3b4186f6b6457e0908290a35060601b6001600160601b0319166080526100a2565b3390565b60805160601c610e956100c460003980610709528061078a5250610e956000f3fe608060405234801561001057600080fd5b50600436106100d45760003560e01c8063899f589811610081578063a694fc3a1161005b578063a694fc3a1461021f578063ec9545941461023c578063f2fde38b14610244576100d4565b8063899f5898146101b35780638da5cb5b146101bb578063a0632461146101ec576100d4565b80632e17de78116100b25780632e17de781461015b57806370a0823114610178578063715018a6146101ab576100d4565b8063132b4fc8146100d957806318160ddd1461010e5780631ed86f1914610128575b600080fd5b61010c600480360360208110156100ef57600080fd5b503573ffffffffffffffffffffffffffffffffffffffff16610277565b005b61011661028c565b60408051918252519081900360200190f35b61010c6004803603602081101561013e57600080fd5b503573ffffffffffffffffffffffffffffffffffffffff16610292565b61010c6004803603602081101561017157600080fd5b50356103a9565b6101166004803603602081101561018e57600080fd5b503573ffffffffffffffffffffffffffffffffffffffff16610411565b61010c610439565b61010c61051f565b6101c361052e565b6040805173ffffffffffffffffffffffffffffffffffffffff9092168252519081900360200190f35b61010c6004803603602081101561020257600080fd5b503573ffffffffffffffffffffffffffffffffffffffff1661054a565b61010c6004803603602081101561023557600080fd5b5035610661565b6101c3610788565b61010c6004803603602081101561025a57600080fd5b503573ffffffffffffffffffffffffffffffffffffffff166107ac565b6102898161028433610411565b610902565b50565b60015490565b61029a6109bf565b60005473ffffffffffffffffffffffffffffffffffffffff908116911614610309576040805162461bcd60e51b815260206004820181905260248201527f4f776e61626c653a2063616c6c6572206973206e6f7420746865206f776e6572604482015290519081900360640190fd5b6103146003826109c3565b610365576040805162461bcd60e51b815260206004820152601960248201527f4d6f64756c6520616c7265616479207265676973746572656400000000000000604482015290519081900360640190fd5b60405173ffffffffffffffffffffffffffffffffffffffff8216907f0e8ab0265c955b9584b70d255e316c63717f1fb52ba0acfff63bca74ca2e8fad90600090a250565b600081116103fe576040805162461bcd60e51b815260206004820152601c60248201527f456d70747920756e7374616b65206973206e6f7420616c6c6f77656400000000604482015290519081900360640190fd5b61040833826109ee565b61028933610284335b73ffffffffffffffffffffffffffffffffffffffff1660009081526002602052604090205490565b6104416109bf565b60005473ffffffffffffffffffffffffffffffffffffffff9081169116146104b0576040805162461bcd60e51b815260206004820181905260248201527f4f776e61626c653a2063616c6c6572206973206e6f7420746865206f776e6572604482015290519081900360640190fd5b6000805460405173ffffffffffffffffffffffffffffffffffffffff909116907f8be0079c531659141344cd1fd0a4f28419497f9722a3daafe3b4186f6b6457e0908390a3600080547fffffffffffffffffffffffff0000000000000000000000000000000000000000169055565b61052c3361028433610411565b565b60005473ffffffffffffffffffffffffffffffffffffffff1690565b6105526109bf565b60005473ffffffffffffffffffffffffffffffffffffffff9081169116146105c1576040805162461bcd60e51b815260206004820181905260248201527f4f776e61626c653a2063616c6c6572206973206e6f7420746865206f776e6572604482015290519081900360640190fd5b6105cc600382610a90565b61061d576040805162461bcd60e51b815260206004820152601960248201527f4d6f64756c6520776173206e6f74207265676973746572656400000000000000604482015290519081900360640190fd5b60405173ffffffffffffffffffffffffffffffffffffffff8216907f75f4e5771d2cdd015405ae76feb37f5792736e71ff18f8a9dd690772a48111a390600090a250565b600081116106b6576040805162461bcd60e51b815260206004820152601a60248201527f456d707479207374616b65206973206e6f7420616c6c6f776564000000000000604482015290519081900360640190fd5b604080517f23b872dd00000000000000000000000000000000000000000000000000000000815233600482015230602482015260448101839052905173ffffffffffffffffffffffffffffffffffffffff7f000000000000000000000000000000000000000000000000000000000000000016916323b872dd9160648083019260209291908290030181600087803b15801561075157600080fd5b505af1158015610765573d6000803e3d6000fd5b505050506040513d602081101561077b57600080fd5b5061040890503382610ab2565b7f000000000000000000000000000000000000000000000000000000000000000081565b6107b46109bf565b60005473ffffffffffffffffffffffffffffffffffffffff908116911614610823576040805162461bcd60e51b815260206004820181905260248201527f4f776e61626c653a2063616c6c6572206973206e6f7420746865206f776e6572604482015290519081900360640190fd5b73ffffffffffffffffffffffffffffffffffffffff81166108755760405162461bcd60e51b8152600401808060200182810382526026815260200180610e3a6026913960400191505060405180910390fd5b6000805460405173ffffffffffffffffffffffffffffffffffffffff808516939216917f8be0079c531659141344cd1fd0a4f28419497f9722a3daafe3b4186f6b6457e091a3600080547fffffffffffffffffffffffff00000000000000000000000000000000000000001673ffffffffffffffffffffffffffffffffffffffff92909216919091179055565b600061090e6003610b1f565b905060005b818110156109b957610926600382610b2a565b73ffffffffffffffffffffffffffffffffffffffff166327a2743385856040518363ffffffff1660e01b8152600401808373ffffffffffffffffffffffffffffffffffffffff16815260200182815260200192505050600060405180830381600087803b15801561099657600080fd5b505af11580156109aa573d6000803e3d6000fd5b50505050806001019050610913565b50505050565b3390565b60006109e58373ffffffffffffffffffffffffffffffffffffffff8416610b36565b90505b92915050565b604080518082018252601b81527f4275726e20616d6f756e7420657863656564732062616c616e6365000000000060208083019190915273ffffffffffffffffffffffffffffffffffffffff8516600090815260029091529190912054610a56918390610b80565b73ffffffffffffffffffffffffffffffffffffffff8316600090815260026020526040902055600154610a899082610c17565b6001555050565b60006109e58373ffffffffffffffffffffffffffffffffffffffff8416610c59565b600154610abf9082610d3d565b60015573ffffffffffffffffffffffffffffffffffffffff8216600090815260026020526040902054610af29082610d3d565b73ffffffffffffffffffffffffffffffffffffffff90921660009081526002602052604090209190915550565b60006109e882610d97565b60006109e58383610d9b565b6000610b428383610dff565b610b78575081546001818101845560008481526020808220909301849055845484825282860190935260409020919091556109e8565b5060006109e8565b60008184841115610c0f5760405162461bcd60e51b81526004018080602001828103825283818151815260200191508051906020019080838360005b83811015610bd4578181015183820152602001610bbc565b50505050905090810190601f168015610c015780820380516001836020036101000a031916815260200191505b509250505060405180910390fd5b505050900390565b60006109e583836040518060400160405280601e81526020017f536166654d6174683a207375627472616374696f6e206f766572666c6f770000815250610b80565b60008181526001830160205260408120548015610d335783547fffffffffffffffffffffffffffffffffffffffffffffffffffffffffffffffff8083019190810190600090879083908110610caa57fe5b9060005260206000200154905080876000018481548110610cc757fe5b600091825260208083209091019290925582815260018981019092526040902090840190558654879080610cf757fe5b600190038181906000526020600020016000905590558660010160008781526020019081526020016000206000905560019450505050506109e8565b60009150506109e8565b6000828201838110156109e5576040805162461bcd60e51b815260206004820152601b60248201527f536166654d6174683a206164646974696f6e206f766572666c6f770000000000604482015290519081900360640190fd5b5490565b81546000908210610ddd5760405162461bcd60e51b8152600401808060200182810382526022815260200180610e186022913960400191505060405180910390fd5b826000018281548110610dec57fe5b9060005260206000200154905092915050565b6000908152600191909101602052604090205415159056fe456e756d657261626c655365743a20696e646578206f7574206f6620626f756e64734f776e61626c653a206e6577206f776e657220697320746865207a65726f2061646472657373a26469706673582212206f783bc335c609b5336fcc7e90a21cfbbabc4a85a58f0e06eb2d2cef042075be64736f6c634300060c0033",
  "immutableReferences": {
    "5072": [
      {
        "length": 32,
        "start": 1801
      },
      {
        "length": 32,
        "start": 1930
      }
    ]
  },
  "source": "// SPDX-License-Identifier: MIT\n\npragma solidity ^0.6.0;\n\nimport \"@openzeppelin/contracts/access/Ownable.sol\";\nimport \"@openzeppelin/contracts/math/SafeMath.sol\";\nimport \"@openzeppelin/contracts/token/ERC20/IERC20.sol\";\nimport \"@openzeppelin/contracts/utils/EnumerableSet.sol\";\nimport \"../interfaces/IGovernanceModule.sol\";\nimport \"../utils/BalanceAccounting.sol\";\n\n\ncontract GovernanceMothership is Ownable, BalanceAccounting {\n    using SafeMath for uint256;\n    using EnumerableSet for EnumerableSet.AddressSet;\n\n    event AddModule(address indexed module);\n    event RemoveModule(address indexed module);\n\n    IERC20 public immutable inchToken;\n\n    EnumerableSet.AddressSet private _modules;\n\n    constructor(IERC20 _inchToken) public {\n        inchToken = _inchToken;\n    }\n\n    function stake(uint256 amount) external {\n        require(amount > 0, \"Empty stake is not allowed\");\n\n        inchToken.transferFrom(msg.sender, address(this), amount);\n        _mint(msg.sender, amount);\n        _notifyFor(msg.sender, balanceOf(msg.sender));\n    }\n\n    function unstake(uint256 amount) external {\n        require(amount > 0, \"Empty unstake is not allowed\");\n\n        _burn(msg.sender, amount);\n        _notifyFor(msg.sender, balanceOf(msg.sender));\n    }\n\n    function notify() external {\n        _notifyFor(msg.sender, balanceOf(msg.sender));\n    }\n\n    function notifyFor(address account) external {\n        _notifyFor(account, balanceOf(msg.sender));\n    }\n\n    function addModule(address module) external onlyOwner {\n        require(_modules.add(module), \"Module already registered\");\n        emit AddModule(module);\n    }\n\n    function removeModule(address module) external onlyOwner {\n        require(_modules.remove(module), \"Module was not registered\");\n        emit RemoveModule(module);\n    }\n\n    function _notifyFor(address account, uint256 balance) private {\n        uint256 modulesLength = _modules.length();\n        for (uint256 i = 0; i < modulesLength; ++i) {\n            IGovernanceModule(_modules.at(i)).notifyStakeChanged(account, balance);\n        }\n    }\n}\n",
  "sourcePath": "/Users/zumzoom/Projects/1inch/mooniswap-v2/contracts/inch/GovernanceMothership.sol",
  "compiler": {
    "name": "solc",
    "version": "0.6.12+commit.27d51765.Emscripten.clang"
  },
  "schemaVersion": "3.3.2",
  "updatedAt": "2020-11-30T14:06:38.078Z",
  "devdoc": {
    "kind": "dev",
    "methods": {
      "owner()": {
        "details": "Returns the address of the current owner."
      },
      "renounceOwnership()": {
        "details": "Leaves the contract without owner. It will not be possible to call `onlyOwner` functions anymore. Can only be called by the current owner. NOTE: Renouncing ownership will leave the contract without an owner, thereby removing any functionality that is only available to the owner."
      },
      "transferOwnership(address)": {
        "details": "Transfers ownership of the contract to a new account (`newOwner`). Can only be called by the current owner."
      }
    },
    "version": 1
  },
  "userdoc": {
    "kind": "user",
    "methods": {},
    "version": 1
  }
}