{
  "contractName": "MooniswapFactory",
  "abi": [
    {
      "inputs": [
        {
          "internalType": "address",
          "name": "_poolOwner",
          "type": "address"
        },
        {
          "internalType": "contract IMooniswapDeployer",
          "name": "_mooniswapDeployer",
          "type": "address"
        },
        {
          "internalType": "address",
          "name": "_governanceMothership",
          "type": "address"
        }
      ],
      "stateMutability": "nonpayable",
      "type": "constructor"
    },
    {
      "anonymous": false,
      "inputs": [
        {
          "indexed": true,
          "internalType": "address",
          "name": "user",
          "type": "address"
        },
        {
          "indexed": false,
          "internalType": "uint256",
          "name": "decayPeriod",
          "type": "uint256"
        },
        {
          "indexed": false,
          "internalType": "bool",
          "name": "isDefault",
          "type": "bool"
        },
        {
          "indexed": false,
          "internalType": "uint256",
          "name": "amount",
          "type": "uint256"
        }
      ],
      "name": "DefaultDecayPeriodVoteUpdate",
      "type": "event"
    },
    {
      "anonymous": false,
      "inputs": [
        {
          "indexed": true,
          "internalType": "address",
          "name": "user",
          "type": "address"
        },
        {
          "indexed": false,
          "internalType": "uint256",
          "name": "fee",
          "type": "uint256"
        },
        {
          "indexed": false,
          "internalType": "bool",
          "name": "isDefault",
          "type": "bool"
        },
        {
          "indexed": false,
          "internalType": "uint256",
          "name": "amount",
          "type": "uint256"
        }
      ],
      "name": "DefaultFeeVoteUpdate",
      "type": "event"
    },
    {
      "anonymous": false,
      "inputs": [
        {
          "indexed": true,
          "internalType": "address",
          "name": "user",
          "type": "address"
        },
        {
          "indexed": false,
          "internalType": "uint256",
          "name": "slippageFee",
          "type": "uint256"
        },
        {
          "indexed": false,
          "internalType": "bool",
          "name": "isDefault",
          "type": "bool"
        },
        {
          "indexed": false,
          "internalType": "uint256",
          "name": "amount",
          "type": "uint256"
        }
      ],
      "name": "DefaultSlippageFeeVoteUpdate",
      "type": "event"
    },
    {
      "anonymous": false,
      "inputs": [
        {
          "indexed": true,
          "internalType": "address",
          "name": "mooniswap",
          "type": "address"
        },
        {
          "indexed": true,
          "internalType": "address",
          "name": "token1",
          "type": "address"
        },
        {
          "indexed": true,
          "internalType": "address",
          "name": "token2",
          "type": "address"
        }
      ],
      "name": "Deployed",
      "type": "event"
    },
    {
      "anonymous": false,
      "inputs": [
        {
          "indexed": false,
          "internalType": "address",
          "name": "governanceFeeReceiver",
          "type": "address"
        }
      ],
      "name": "GovernanceFeeReceiverUpdate",
      "type": "event"
    },
    {
      "anonymous": false,
      "inputs": [
        {
          "indexed": true,
          "internalType": "address",
          "name": "user",
          "type": "address"
        },
        {
          "indexed": false,
          "internalType": "uint256",
          "name": "governanceShare",
          "type": "uint256"
        },
        {
          "indexed": false,
          "internalType": "bool",
          "name": "isDefault",
          "type": "bool"
        },
        {
          "indexed": false,
          "internalType": "uint256",
          "name": "amount",
          "type": "uint256"
        }
      ],
      "name": "GovernanceShareVoteUpdate",
      "type": "event"
    },
    {
      "anonymous": false,
      "inputs": [
        {
          "indexed": true,
          "internalType": "address",
          "name": "previousOwner",
          "type": "address"
        },
        {
          "indexed": true,
          "internalType": "address",
          "name": "newOwner",
          "type": "address"
        }
      ],
      "name": "OwnershipTransferred",
      "type": "event"
    },
    {
      "anonymous": false,
      "inputs": [
        {
          "indexed": false,
          "internalType": "address",
          "name": "referralFeeReceiver",
          "type": "address"
        }
      ],
      "name": "ReferralFeeReceiverUpdate",
      "type": "event"
    },
    {
      "anonymous": false,
      "inputs": [
        {
          "indexed": true,
          "internalType": "address",
          "name": "user",
          "type": "address"
        },
        {
          "indexed": false,
          "internalType": "uint256",
          "name": "referralShare",
          "type": "uint256"
        },
        {
          "indexed": false,
          "internalType": "bool",
          "name": "isDefault",
          "type": "bool"
        },
        {
          "indexed": false,
          "internalType": "uint256",
          "name": "amount",
          "type": "uint256"
        }
      ],
      "name": "ReferralShareVoteUpdate",
      "type": "event"
    },
    {
      "inputs": [
        {
          "internalType": "uint256",
          "name": "",
          "type": "uint256"
        }
      ],
      "name": "allPools",
      "outputs": [
        {
          "internalType": "contract Mooniswap",
          "name": "",
          "type": "address"
        }
      ],
      "stateMutability": "view",
      "type": "function"
    },
    {
      "inputs": [
        {
          "internalType": "address",
          "name": "account",
          "type": "address"
        }
      ],
      "name": "balanceOf",
      "outputs": [
        {
          "internalType": "uint256",
          "name": "",
          "type": "uint256"
        }
      ],
      "stateMutability": "view",
      "type": "function"
    },
    {
      "inputs": [],
      "name": "defaultDecayPeriod",
      "outputs": [
        {
          "internalType": "uint256",
          "name": "",
          "type": "uint256"
        }
      ],
      "stateMutability": "view",
      "type": "function"
    },
    {
      "inputs": [
        {
          "internalType": "uint256",
          "name": "vote",
          "type": "uint256"
        }
      ],
      "name": "defaultDecayPeriodVote",
      "outputs": [],
      "stateMutability": "nonpayable",
      "type": "function"
    },
    {
      "inputs": [
        {
          "internalType": "address",
          "name": "user",
          "type": "address"
        }
      ],
      "name": "defaultDecayPeriodVotes",
      "outputs": [
        {
          "internalType": "uint256",
          "name": "",
          "type": "uint256"
        }
      ],
      "stateMutability": "view",
      "type": "function"
    },
    {
      "inputs": [],
      "name": "defaultFee",
      "outputs": [
        {
          "internalType": "uint256",
          "name": "",
          "type": "uint256"
        }
      ],
      "stateMutability": "view",
      "type": "function"
    },
    {
      "inputs": [
        {
          "internalType": "uint256",
          "name": "vote",
          "type": "uint256"
        }
      ],
      "name": "defaultFeeVote",
      "outputs": [],
      "stateMutability": "nonpayable",
      "type": "function"
    },
    {
      "inputs": [
        {
          "internalType": "address",
          "name": "user",
          "type": "address"
        }
      ],
      "name": "defaultFeeVotes",
      "outputs": [
        {
          "internalType": "uint256",
          "name": "",
          "type": "uint256"
        }
      ],
      "stateMutability": "view",
      "type": "function"
    },
    {
      "inputs": [],
      "name": "defaultSlippageFee",
      "outputs": [
        {
          "internalType": "uint256",
          "name": "",
          "type": "uint256"
        }
      ],
      "stateMutability": "view",
      "type": "function"
    },
    {
      "inputs": [
        {
          "internalType": "uint256",
          "name": "vote",
          "type": "uint256"
        }
      ],
      "name": "defaultSlippageFeeVote",
      "outputs": [],
      "stateMutability": "nonpayable",
      "type": "function"
    },
    {
      "inputs": [
        {
          "internalType": "address",
          "name": "user",
          "type": "address"
        }
      ],
      "name": "defaultSlippageFeeVotes",
      "outputs": [
        {
          "internalType": "uint256",
          "name": "",
          "type": "uint256"
        }
      ],
      "stateMutability": "view",
      "type": "function"
    },
    {
      "inputs": [],
      "name": "discardDefaultDecayPeriodVote",
      "outputs": [],
      "stateMutability": "nonpayable",
      "type": "function"
    },
    {
      "inputs": [],
      "name": "discardDefaultFeeVote",
      "outputs": [],
      "stateMutability": "nonpayable",
      "type": "function"
    },
    {
      "inputs": [],
      "name": "discardDefaultSlippageFeeVote",
      "outputs": [],
      "stateMutability": "nonpayable",
      "type": "function"
    },
    {
      "inputs": [],
      "name": "discardGovernanceShareVote",
      "outputs": [],
      "stateMutability": "nonpayable",
      "type": "function"
    },
    {
      "inputs": [],
      "name": "discardReferralShareVote",
      "outputs": [],
      "stateMutability": "nonpayable",
      "type": "function"
    },
    {
      "inputs": [],
      "name": "governanceFeeReceiver",
      "outputs": [
        {
          "internalType": "address",
          "name": "",
          "type": "address"
        }
      ],
      "stateMutability": "view",
      "type": "function"
    },
    {
      "inputs": [],
      "name": "governanceShare",
      "outputs": [
        {
          "internalType": "uint256",
          "name": "",
          "type": "uint256"
        }
      ],
      "stateMutability": "view",
      "type": "function"
    },
    {
      "inputs": [
        {
          "internalType": "uint256",
          "name": "vote",
          "type": "uint256"
        }
      ],
      "name": "governanceShareVote",
      "outputs": [],
      "stateMutability": "nonpayable",
      "type": "function"
    },
    {
      "inputs": [
        {
          "internalType": "address",
          "name": "user",
          "type": "address"
        }
      ],
      "name": "governanceShareVotes",
      "outputs": [
        {
          "internalType": "uint256",
          "name": "",
          "type": "uint256"
        }
      ],
      "stateMutability": "view",
      "type": "function"
    },
    {
      "inputs": [
        {
          "internalType": "contract Mooniswap",
          "name": "",
          "type": "address"
        }
      ],
      "name": "isPool",
      "outputs": [
        {
          "internalType": "bool",
          "name": "",
          "type": "bool"
        }
      ],
      "stateMutability": "view",
      "type": "function"
    },
    {
      "inputs": [],
      "name": "mooniswapDeployer",
      "outputs": [
        {
          "internalType": "contract IMooniswapDeployer",
          "name": "",
          "type": "address"
        }
      ],
      "stateMutability": "view",
      "type": "function"
    },
    {
      "inputs": [],
      "name": "mothership",
      "outputs": [
        {
          "internalType": "address",
          "name": "",
          "type": "address"
        }
      ],
      "stateMutability": "view",
      "type": "function"
    },
    {
      "inputs": [
        {
          "internalType": "address",
          "name": "account",
          "type": "address"
        },
        {
          "internalType": "uint256",
          "name": "newBalance",
          "type": "uint256"
        }
      ],
      "name": "notifyStakeChanged",
      "outputs": [],
      "stateMutability": "nonpayable",
      "type": "function"
    },
    {
      "inputs": [
        {
          "internalType": "address[]",
          "name": "accounts",
          "type": "address[]"
        },
        {
          "internalType": "uint256[]",
          "name": "newBalances",
          "type": "uint256[]"
        }
      ],
      "name": "notifyStakesChanged",
      "outputs": [],
      "stateMutability": "nonpayable",
      "type": "function"
    },
    {
      "inputs": [],
      "name": "owner",
      "outputs": [
        {
          "internalType": "address",
          "name": "",
          "type": "address"
        }
      ],
      "stateMutability": "view",
      "type": "function"
    },
    {
      "inputs": [],
      "name": "parameters",
      "outputs": [
        {
          "internalType": "uint256",
          "name": "",
          "type": "uint256"
        },
        {
          "internalType": "uint256",
          "name": "",
          "type": "uint256"
        },
        {
          "internalType": "address",
          "name": "",
          "type": "address"
        },
        {
          "internalType": "address",
          "name": "",
          "type": "address"
        }
      ],
      "stateMutability": "view",
      "type": "function"
    },
    {
      "inputs": [],
      "name": "poolOwner",
      "outputs": [
        {
          "internalType": "address",
          "name": "",
          "type": "address"
        }
      ],
      "stateMutability": "view",
      "type": "function"
    },
    {
      "inputs": [],
      "name": "referralFeeReceiver",
      "outputs": [
        {
          "internalType": "address",
          "name": "",
          "type": "address"
        }
      ],
      "stateMutability": "view",
      "type": "function"
    },
    {
      "inputs": [],
      "name": "referralShare",
      "outputs": [
        {
          "internalType": "uint256",
          "name": "",
          "type": "uint256"
        }
      ],
      "stateMutability": "view",
      "type": "function"
    },
    {
      "inputs": [
        {
          "internalType": "uint256",
          "name": "vote",
          "type": "uint256"
        }
      ],
      "name": "referralShareVote",
      "outputs": [],
      "stateMutability": "nonpayable",
      "type": "function"
    },
    {
      "inputs": [
        {
          "internalType": "address",
          "name": "user",
          "type": "address"
        }
      ],
      "name": "referralShareVotes",
      "outputs": [
        {
          "internalType": "uint256",
          "name": "",
          "type": "uint256"
        }
      ],
      "stateMutability": "view",
      "type": "function"
    },
    {
      "inputs": [],
      "name": "renounceOwnership",
      "outputs": [],
      "stateMutability": "nonpayable",
      "type": "function"
    },
    {
      "inputs": [
        {
          "internalType": "address",
          "name": "newGovernanceFeeReceiver",
          "type": "address"
        }
      ],
      "name": "setGovernanceFeeReceiver",
      "outputs": [],
      "stateMutability": "nonpayable",
      "type": "function"
    },
    {
      "inputs": [
        {
          "internalType": "address",
          "name": "newReferralFeeReceiver",
          "type": "address"
        }
      ],
      "name": "setReferralFeeReceiver",
      "outputs": [],
      "stateMutability": "nonpayable",
      "type": "function"
    },
    {
      "inputs": [],
      "name": "totalSupply",
      "outputs": [
        {
          "internalType": "uint256",
          "name": "",
          "type": "uint256"
        }
      ],
      "stateMutability": "view",
      "type": "function"
    },
    {
      "inputs": [
        {
          "internalType": "address",
          "name": "newOwner",
          "type": "address"
        }
      ],
      "name": "transferOwnership",
      "outputs": [],
      "stateMutability": "nonpayable",
      "type": "function"
    },
    {
      "inputs": [],
      "name": "virtualDefaultDecayPeriod",
      "outputs": [
        {
          "internalType": "uint104",
          "name": "",
          "type": "uint104"
        },
        {
          "internalType": "uint104",
          "name": "",
          "type": "uint104"
        },
        {
          "internalType": "uint48",
          "name": "",
          "type": "uint48"
        }
      ],
      "stateMutability": "view",
      "type": "function"
    },
    {
      "inputs": [],
      "name": "virtualDefaultFee",
      "outputs": [
        {
          "internalType": "uint104",
          "name": "",
          "type": "uint104"
        },
        {
          "internalType": "uint104",
          "name": "",
          "type": "uint104"
        },
        {
          "internalType": "uint48",
          "name": "",
          "type": "uint48"
        }
      ],
      "stateMutability": "view",
      "type": "function"
    },
    {
      "inputs": [],
      "name": "virtualDefaultSlippageFee",
      "outputs": [
        {
          "internalType": "uint104",
          "name": "",
          "type": "uint104"
        },
        {
          "internalType": "uint104",
          "name": "",
          "type": "uint104"
        },
        {
          "internalType": "uint48",
          "name": "",
          "type": "uint48"
        }
      ],
      "stateMutability": "view",
      "type": "function"
    },
    {
      "inputs": [],
      "name": "virtualGovernanceShare",
      "outputs": [
        {
          "internalType": "uint104",
          "name": "",
          "type": "uint104"
        },
        {
          "internalType": "uint104",
          "name": "",
          "type": "uint104"
        },
        {
          "internalType": "uint48",
          "name": "",
          "type": "uint48"
        }
      ],
      "stateMutability": "view",
      "type": "function"
    },
    {
      "inputs": [],
      "name": "virtualReferralShare",
      "outputs": [
        {
          "internalType": "uint104",
          "name": "",
          "type": "uint104"
        },
        {
          "internalType": "uint104",
          "name": "",
          "type": "uint104"
        },
        {
          "internalType": "uint48",
          "name": "",
          "type": "uint48"
        }
      ],
      "stateMutability": "view",
      "type": "function"
    },
    {
      "inputs": [],
      "name": "getAllPools",
      "outputs": [
        {
          "internalType": "contract Mooniswap[]",
          "name": "",
          "type": "address[]"
        }
      ],
      "stateMutability": "view",
      "type": "function"
    },
    {
      "inputs": [
        {
          "internalType": "contract IERC20",
          "name": "tokenA",
          "type": "address"
        },
        {
          "internalType": "contract IERC20",
          "name": "tokenB",
          "type": "address"
        }
      ],
      "name": "pools",
      "outputs": [
        {
          "internalType": "contract Mooniswap",
          "name": "pool",
          "type": "address"
        }
      ],
      "stateMutability": "view",
      "type": "function"
    },
    {
      "inputs": [
        {
          "internalType": "contract IERC20",
          "name": "tokenA",
          "type": "address"
        },
        {
          "internalType": "contract IERC20",
          "name": "tokenB",
          "type": "address"
        }
      ],
      "name": "deploy",
      "outputs": [
        {
          "internalType": "contract Mooniswap",
          "name": "pool",
          "type": "address"
        }
      ],
      "stateMutability": "nonpayable",
      "type": "function"
    },
    {
      "inputs": [
        {
          "internalType": "contract IERC20",
          "name": "tokenA",
          "type": "address"
        },
        {
          "internalType": "contract IERC20",
          "name": "tokenB",
          "type": "address"
        }
      ],
      "name": "sortTokens",
      "outputs": [
        {
          "internalType": "contract IERC20",
          "name": "",
          "type": "address"
        },
        {
          "internalType": "contract IERC20",
          "name": "",
          "type": "address"
        }
      ],
      "stateMutability": "pure",
      "type": "function"
    }
  ],
  "bytecode": "0x60e06040523480156200001157600080fd5b50604051620031d5380380620031d5833981810160405260608110156200003757600080fd5b50805160208201516040909201516001600160601b0319606082901b166080529091908060006200006762000128565b600280546001600160a01b0319166001600160a01b038316908117909155604051919250906000907f8be0079c531659141344cd1fd0a4f28419497f9722a3daafe3b4186f6b6457e0908290a3505060038054600160681b600160d01b031990811690915560078054821664b1a2bc2ec560791b179055600b80548216604b606a1b179055600f8054821664b1a2bc2ec560781b17905560138054909116905550606091821b6001600160601b031990811660c052911b1660a0526200012c565b3390565b60805160601c60a05160601c60c05160601c61305f62000176600039806111ac5280611b1e525080610f4752806119d9525080610b0f5280610cd052806118c0525061305f6000f3fe608060405234801561001057600080fd5b506004361061030a5760003560e01c8063865e45731161019c578063c7feefe8116100ee578063e859e56c11610097578063f2fde38b11610071578063f2fde38b1461084f578063f383033514610875578063fb20b7d01461087d5761030a565b8063e859e56c14610822578063e9f7e17b1461082a578063ef54244b146108475761030a565b8063d8f4e0eb116100c8578063d8f4e0eb146107f5578063e1ea255414610812578063e7a7b5a01461081a5761030a565b8063c7feefe81461078d578063cf0b227014610795578063d88ff1f41461079d5761030a565b80639725ff3511610150578063b0cb4b0a1161012a578063b0cb4b0a14610757578063b8ffca321461075f578063c5d5185a146107675761030a565b80639725ff351461065257806399fca7d91461066f578063ad333348146106955761030a565b80638d424127116101815780638d424127146106145780638da5cb5b1461061c578063901754d7146106245761030a565b8063865e4573146105b757806389035730146105dd5761030a565b80634187b7d6116102605780635b16ebb711610209578063715018a6116101e3578063715018a6146105815780637c4423a81461058957806385555934146105af5761030a565b80635b16ebb714610519578063612a9f761461055357806370a082311461055b5761030a565b8063544caa561161023a578063544caa5614610486578063545e7c61146104e35780635a6c72d0146105115761030a565b80634187b7d61461041f57806341d1de971461044357806346398144146104605761030a565b80631845f0db116102c257806327a274331161029c57806327a27433146103ce5780632ba653ec146103fa5780633eed75c3146104175761030a565b80631845f0db146103b657806322abd7b2146103be57806323662bb9146103c65761030a565b8063151359b4116102f3578063151359b41461036657806317901de31461036e57806318160ddd146103ae5761030a565b8063117036d11461030f57806314fd235a14610347575b600080fd5b6103356004803603602081101561032557600080fd5b50356001600160a01b03166108a3565b60408051918252519081900360200190f35b6103646004803603602081101561035d57600080fd5b50356108e2565b005b610364610988565b6103766109cf565b604080516cffffffffffffffffffffffffff948516815292909316602083015265ffffffffffff168183015290519081900360600190f35b610335610a0b565b610335610a11565b610376610a6f565b610335610aab565b610364600480360360408110156103e457600080fd5b506001600160a01b038135169060200135610b04565b6103646004803603602081101561041057600080fd5b5035610b8f565b610364610c83565b610427610cce565b604080516001600160a01b039092168252519081900360200190f35b6104276004803603602081101561045957600080fd5b5035610cf2565b6103646004803603602081101561047657600080fd5b50356001600160a01b0316610d19565b6104b46004803603604081101561049c57600080fd5b506001600160a01b0381358116916020013516610def565b60405180836001600160a01b03168152602001826001600160a01b031681526020019250505060405180910390f35b610427600480360360408110156104f957600080fd5b506001600160a01b0381358116916020013516610e23565b61033561141f565b61053f6004803603602081101561052f57600080fd5b50356001600160a01b0316611478565b604080519115158252519081900360200190f35b61036461148d565b6103356004803603602081101561057157600080fd5b50356001600160a01b03166114b9565b6103646114d4565b6103356004803603602081101561059f57600080fd5b50356001600160a01b03166115a0565b6103646115d2565b610335600480360360208110156105cd57600080fd5b50356001600160a01b03166115fe565b6105e561162e565b6040805194855260208501939093526001600160a01b0391821684840152166060830152519081900360800190f35b610364611704565b610427611750565b6104276004803603604081101561063a57600080fd5b506001600160a01b038135811691602001351661175f565b6103646004803603602081101561066857600080fd5b50356117a0565b6103356004803603602081101561068557600080fd5b50356001600160a01b0316611885565b610364600480360360408110156106ab57600080fd5b8101906020810181356401000000008111156106c657600080fd5b8201836020820111156106d857600080fd5b803590602001918460208302840111640100000000831117156106fa57600080fd5b91939092909160208101903564010000000081111561071857600080fd5b82018360208201111561072a57600080fd5b8035906020019184602083028401116401000000008311171561074c57600080fd5b5090925090506118b5565b6104276119d7565b6103766119fb565b6103646004803603602081101561077d57600080fd5b50356001600160a01b0316611a37565b610427611b0d565b610427611b1c565b6107a5611b40565b60408051602080825283518183015283519192839290830191858101910280838360005b838110156107e15781810151838201526020016107c9565b505050509050019250505060405180910390f35b6103646004803603602081101561080b57600080fd5b5035611ba2565b610427611c2c565b610376611c3b565b610335611c77565b6103646004803603602081101561084057600080fd5b5035611cd0565b610376611d5a565b6103646004803603602081101561086557600080fd5b50356001600160a01b0316611d96565b610335611eb9565b6103356004803603602081101561089357600080fd5b50356001600160a01b0316611f12565b6001600160a01b038116600090815260126020908152604080832081519283019091525481526108da9066b1a2bc2ec50000611f46565b90505b919050565b6703782dace9d9000081111561093f576040805162461bcd60e51b815260206004820152601a60248201527f476f7620736861726520766f746520697320746f6f2068696768000000000000604482015290519081900360640190fd5b33600081815260166020908152604091829020825191820190925290548152610985919061096c84611f80565b610975336114b9565b6013939291906000611f9f611ff2565b50565b336000818152600660209081526040918290208251918201909252905481526109cd91906109b461200b565b6109bd336114b9565b6003939291906000612026611ff2565b565b600f546cffffffffffffffffffffffffff808216926d0100000000000000000000000000830490911691600160d01b900465ffffffffffff1690565b60005490565b60408051606081018252600b546cffffffffffffffffffffffffff80821683526d01000000000000000000000000008204166020830152600160d01b900465ffffffffffff1691810191909152600090610a6a90612079565b905090565b6013546cffffffffffffffffffffffffff808216926d0100000000000000000000000000830490911691600160d01b900465ffffffffffff1690565b604080516060810182526007546cffffffffffffffffffffffffff80821683526d01000000000000000000000000008204166020830152600160d01b900465ffffffffffff1691810191909152600090610a6a90612079565b336001600160a01b037f00000000000000000000000000000000000000000000000000000000000000001614610b81576040805162461bcd60e51b815260206004820152601f60248201527f416363657373207265737472696374656420746f206d6f746865727368697000604482015290519081900360640190fd5b610b8b8282612119565b5050565b610e10811115610be6576040805162461bcd60e51b815260206004820152601d60248201527f446563617920706572696f6420766f746520697320746f6f2068696768000000604482015290519081900360640190fd5b600f811015610c3c576040805162461bcd60e51b815260206004820152601c60248201527f446563617920706572696f6420766f746520697320746f6f206c6f7700000000604482015290519081900360640190fd5b336000818152600e60209081526040918290208251918201909252905481526109859190610c6984611f80565b610c72336114b9565b600b9392919061012c612275611ff2565b336000818152601260209081526040918290208251918201909252905481526109cd9190610caf61200b565b610cb8336114b9565b600f9392919066b1a2bc2ec500006122c8611ff2565b7f000000000000000000000000000000000000000000000000000000000000000081565b60198181548110610cff57fe5b6000918252602090912001546001600160a01b0316905081565b610d2161231b565b6002546001600160a01b03908116911614610d83576040805162461bcd60e51b815260206004820181905260248201527f4f776e61626c653a2063616c6c6572206973206e6f7420746865206f776e6572604482015290519081900360640190fd5b601780546001600160a01b0383167fffffffffffffffffffffffff0000000000000000000000000000000000000000909116811790915560408051918252517f9870f2a0fa9bb3dac123818f30cafb067298f95c91b95615af8af970e0d4d6a39181900360200190a150565b600080826001600160a01b0316846001600160a01b03161015610e16575082905081610e1c565b50819050825b9250929050565b6000816001600160a01b0316836001600160a01b03161415610e8c576040805162461bcd60e51b815260206004820181905260248201527f466163746f72793a206e6f7420737570706f72742073616d6520746f6b656e73604482015290519081900360640190fd5b600080610e998585610def565b6001600160a01b038083166000908152601b6020908152604080832084861684529091529020549294509092501615610f19576040805162461bcd60e51b815260206004820152601c60248201527f466163746f72793a20706f6f6c20616c72656164792065786973747300000000604482015290519081900360640190fd5b6060610f2d836001600160a01b031661231f565b90506060610f43836001600160a01b031661231f565b90507f00000000000000000000000000000000000000000000000000000000000000006001600160a01b031663b92440b08585858560405160200180807f4d6f6f6e69737761702056322028000000000000000000000000000000000000815250600e0183805190602001908083835b60208310610fd25780518252601f199092019160209182019101610fb3565b6001836020036101000a038019825116818451168082178552505050505050905001807f2d0000000000000000000000000000000000000000000000000000000000000081525060010182805190602001908083835b602083106110475780518252601f199092019160209182019101611028565b6001836020036101000a038019825116818451168082178552505050505050905001807f290000000000000000000000000000000000000000000000000000000000000081525060010192505050604051602081830303815290604052868660405160200180807f4d4f4f4e2d56322d00000000000000000000000000000000000000000000000081525060080183805190602001908083835b602083106111005780518252601f1990920191602091820191016110e1565b6001836020036101000a038019825116818451168082178552505050505050905001807f2d0000000000000000000000000000000000000000000000000000000000000081525060010182805190602001908083835b602083106111755780518252601f199092019160209182019101611156565b6001836020036101000a038019825116818451168082178552505050505050905001925050506040516020818303038152906040527f00000000000000000000000000000000000000000000000000000000000000006040518663ffffffff1660e01b815260040180866001600160a01b03168152602001856001600160a01b031681526020018060200180602001846001600160a01b03168152602001838103835286818151815260200191508051906020019080838360005b83811015611248578181015183820152602001611230565b50505050905090810190601f1680156112755780820380516001836020036101000a031916815260200191505b50838103825285518152855160209182019187019080838360005b838110156112a8578181015183820152602001611290565b50505050905090810190601f1680156112d55780820380516001836020036101000a031916815260200191505b50975050505050505050602060405180830381600087803b1580156112f957600080fd5b505af115801561130d573d6000803e3d6000fd5b505050506040513d602081101561132357600080fd5b50516001600160a01b038086166000818152601b6020908152604080832089861680855290835281842080549688167fffffffffffffffffffffffff000000000000000000000000000000000000000097881681179091556019805460018181019092557f944998273e477b495144fb8794c914197f3ccb46be2900f4698fd0ef743c96950180549098168217909755808552601a90935281842080547fffffffffffffffffffffffffffffffffffffffffffffffffffffffffffffff00169096179095555194995092939192917fc95935a66d15e0da5e412aca0ad27ae891d20b2fb91cf3994b6a3bf2b81780829190a45050505092915050565b604080516060810182526003546cffffffffffffffffffffffffff80821683526d01000000000000000000000000008204166020830152600160d01b900465ffffffffffff1691810191909152600090610a6a90612079565b601a6020526000908152604090205460ff1681565b336000818152601660209081526040918290208251918201909252905481526109cd919061096c61200b565b6001600160a01b031660009081526001602052604090205490565b6114dc61231b565b6002546001600160a01b0390811691161461153e576040805162461bcd60e51b815260206004820181905260248201527f4f776e61626c653a2063616c6c6572206973206e6f7420746865206f776e6572604482015290519081900360640190fd5b6002546040516000916001600160a01b0316907f8be0079c531659141344cd1fd0a4f28419497f9722a3daafe3b4186f6b6457e0908390a3600280547fffffffffffffffffffffffff0000000000000000000000000000000000000000169055565b6001600160a01b0381166000908152600e6020908152604080832081519283019091525481526108da9061012c611f46565b336000818152600e60209081526040918290208251918201909252905481526109cd9190610c6961200b565b6001600160a01b038116600090815260166020908152604080832081519283019091525481526108da9082611f46565b60408051606081018252600f546cffffffffffffffffffffffffff80821683526d01000000000000000000000000008204166020830152600160d01b900465ffffffffffff169181019190915260009081908190819061168d90612079565b604080516060810182526013546cffffffffffffffffffffffffff80821683526d01000000000000000000000000008204166020830152600160d01b900465ffffffffffff16918101919091526116e390612079565b60175460185492979196506001600160a01b03908116955090911692509050565b336000818152600a60209081526040918290208251918201909252905481526109cd919061173061200b565b611739336114b9565b60079392919067016345785d8a0000612812611ff2565b6002546001600160a01b031690565b600080600061176e8585610def565b6001600160a01b039182166000908152601b602090815260408083209385168352929052205416925050505b92915050565b6703782dace9d900008111156117fd576040805162461bcd60e51b815260206004820152601f60248201527f526566657272616c20736861726520766f746520697320746f6f206869676800604482015290519081900360640190fd5b655af3107a4000811015611858576040805162461bcd60e51b815260206004820152601e60248201527f526566657272616c20736861726520766f746520697320746f6f206c6f770000604482015290519081900360640190fd5b336000818152601260209081526040918290208251918201909252905481526109859190610caf84611f80565b6001600160a01b038116600090815260066020908152604080832081519283019091525481526108da9082611f46565b336001600160a01b037f00000000000000000000000000000000000000000000000000000000000000001614611932576040805162461bcd60e51b815260206004820152601f60248201527f416363657373207265737472696374656420746f206d6f746865727368697000604482015290519081900360640190fd5b828114611986576040805162461bcd60e51b815260206004820152601d60248201527f417272617973206c656e6774682073686f756c6420626520657175616c000000604482015290519081900360640190fd5b60005b838110156119d0576119c88585838181106119a057fe5b905060200201356001600160a01b03168484848181106119bc57fe5b90506020020135612119565b600101611989565b5050505050565b7f000000000000000000000000000000000000000000000000000000000000000081565b6007546cffffffffffffffffffffffffff808216926d0100000000000000000000000000830490911691600160d01b900465ffffffffffff1690565b611a3f61231b565b6002546001600160a01b03908116911614611aa1576040805162461bcd60e51b815260206004820181905260248201527f4f776e61626c653a2063616c6c6572206973206e6f7420746865206f776e6572604482015290519081900360640190fd5b601880546001600160a01b0383167fffffffffffffffffffffffff0000000000000000000000000000000000000000909116811790915560408051918252517f538574f3b86945605ea4352f9e2f4b7e0627ed519e932c9c418c5e7507c4494d9181900360200190a150565b6018546001600160a01b031681565b7f000000000000000000000000000000000000000000000000000000000000000081565b60606019805480602002602001604051908101604052809291908181526020018280548015611b9857602002820191906000526020600020905b81546001600160a01b03168152600190910190602001808311611b7a575b5050505050905090565b67016345785d8a0000811115611bff576040805162461bcd60e51b815260206004820152601460248201527f46656520766f746520697320746f6f2068696768000000000000000000000000604482015290519081900360640190fd5b3360008181526006602090815260409182902082519182019092529054815261098591906109b484611f80565b6017546001600160a01b031681565b6003546cffffffffffffffffffffffffff808216926d0100000000000000000000000000830490911691600160d01b900465ffffffffffff1690565b60408051606081018252600f546cffffffffffffffffffffffffff80821683526d01000000000000000000000000008204166020830152600160d01b900465ffffffffffff1691810191909152600090610a6a90612079565b670de0b6b3a7640000811115611d2d576040805162461bcd60e51b815260206004820152601d60248201527f536c6970706167652066656520766f746520697320746f6f2068696768000000604482015290519081900360640190fd5b336000818152600a6020908152604091829020825191820190925290548152610985919061173084611f80565b600b546cffffffffffffffffffffffffff808216926d0100000000000000000000000000830490911691600160d01b900465ffffffffffff1690565b611d9e61231b565b6002546001600160a01b03908116911614611e00576040805162461bcd60e51b815260206004820181905260248201527f4f776e61626c653a2063616c6c6572206973206e6f7420746865206f776e6572604482015290519081900360640190fd5b6001600160a01b038116611e455760405162461bcd60e51b8152600401808060200182810382526026815260200180612fe36026913960400191505060405180910390fd5b6002546040516001600160a01b038084169216907f8be0079c531659141344cd1fd0a4f28419497f9722a3daafe3b4186f6b6457e090600090a3600280547fffffffffffffffffffffffff0000000000000000000000000000000000000000166001600160a01b0392909216919091179055565b604080516060810182526013546cffffffffffffffffffffffffff80821683526d01000000000000000000000000008204166020830152600160d01b900465ffffffffffff1691810191909152600090610a6a90612079565b6001600160a01b0381166000908152600a6020908152604080832081519283019091525481526108da9067016345785d8a00005b815160009015611f7a575081517fffffffffffffffffffffffffffffffffffffffffffffffffffffffffffffffff0161179a565b50919050565b611f88612faf565b506040805160208101909152600182018152919050565b60408051848152831515602082015280820183905290516001600160a01b038616917f02540a8a88261967ef1c1a4ed50fde9f0a0a493922c069129e21961198e1b439919081900360600190a250505050565b6120028787878787888888612865565b50505050505050565b612013612faf565b5060408051602081019091526000815290565b60408051848152831515602082015280820183905290516001600160a01b038616917f28eed64d01e23014333abef902958309592b3cf9ce9da390f224467cfcaaf5b2919081900360600190a250505050565b6000806120a7620151806120a2856040015165ffffffffffff1642612a8490919063ffffffff16565b612acd565b905060006120b86201518083612a84565b90506121116201518061210b6120ea8588602001516cffffffffffffffffffffffffff16612ae390919063ffffffff16565b8751612105906cffffffffffffffffffffffffff1686612ae3565b90612b3c565b90612b96565b949350505050565b60006121258383612bd8565b9050808214156121355750610b8b565b6001600160a01b0383166000908152600660209081526040808320815192830190915254815261217091600391869185908790612026612c33565b6001600160a01b0383166000908152600a60209081526040918290208251918201909252905481526121b4906007908590848667016345785d8a0000612812612c33565b6001600160a01b0383166000908152600e60209081526040918290208251918201909252905481526121f290600b908590848661012c612275612c33565b6001600160a01b03831660009081526012602090815260409182902082519182019092529054815261223590600f908590848666b1a2bc2ec500006122c8612c33565b6001600160a01b0383166000908152601660209081526040808320815192830190915254815261227091601391869185908790611f9f612c33565b505050565b60408051848152831515602082015280820183905290516001600160a01b038616917f2d2d732aa884d37295a1b5995321d502ebc228d25e644eef0a435d4e5f245acd919081900360600190a250505050565b60408051848152831515602082015280820183905290516001600160a01b038616917ffa67c3ef5d30b2838a61d783cb71a076e17984d05840f2dfa1521135df49557b919081900360600190a250505050565b3390565b606061232a82612c56565b15612369575060408051808201909152600381527f455448000000000000000000000000000000000000000000000000000000000060208201526108dd565b60408051600481526024810182526020810180517bffffffffffffffffffffffffffffffffffffffffffffffffffffffff167f95d89b4100000000000000000000000000000000000000000000000000000000178152915181516000936060936001600160a01b03881693614e2093919290918291908083835b602083106124025780518252601f1990920191602091820191016123e3565b6001836020036101000a0380198251168184511680821785525050505050509050019150506000604051808303818686fa925050503d8060008114612463576040519150601f19603f3d011682016040523d82523d6000602084013e612468565b606091505b5091509150816125705760408051600481526024810182526020810180517bffffffffffffffffffffffffffffffffffffffffffffffffffffffff167ff76f8d7800000000000000000000000000000000000000000000000000000000178152915181516001600160a01b03881693614e209392918291908083835b602083106125035780518252601f1990920191602091820191016124e4565b6001836020036101000a0380198251168184511680821785525050505050509050019150506000604051808303818686fa925050503d8060008114612564576040519150601f19603f3d011682016040523d82523d6000602084013e612569565b606091505b5090925090505b81801561257f57506060815110155b1561269e5760008082806020019051604081101561259c57600080fd5b5080516020918201519093509150821480156125b85750600081115b80156125c657506101008111155b1561269b578280602001905160208110156125e057600080fd5b810190808051604051939291908464010000000082111561260057600080fd5b90830190602082018581111561261557600080fd5b825164010000000081118282018810171561262f57600080fd5b82525081516020918201929091019080838360005b8381101561265c578181015183820152602001612644565b50505050905090810190601f1680156126895780820380516001836020036101000a031916815260200191505b506040525050509450505050506108dd565b50505b8180156126ac575080516020145b156128095760005b8151811080156126fa5750602060f81b8282815181106126d057fe5b01602001517fff000000000000000000000000000000000000000000000000000000000000001610155b801561273c5750607e60f81b82828151811061271257fe5b01602001517fff000000000000000000000000000000000000000000000000000000000000001611155b15612749576001016126b4565b80156128075760608167ffffffffffffffff8111801561276857600080fd5b506040519080825280601f01601f191660200182016040528015612793576020820181803683370190505b50905060005b828110156127fb578381815181106127ad57fe5b602001015160f81c60f81b8282815181106127c457fe5b60200101907effffffffffffffffffffffffffffffffffffffffffffffffffffffffffffff1916908160001a905350600101612799565b5093506108dd92505050565b505b61211184612c63565b60408051848152831515602082015280820183905290516001600160a01b038616917f214419d1bacc9564ca0fcf6552dad3ec0aa54c97de900de89dc202e6bbd9198a919081900360600190a250505050565b6001880154600289015481908061287b8a612c99565b6128ac5761289d61289661288f8c89611f46565b8a90612ae3565b8490612a84565b92506128a98289612a84565b90505b6128b589612c99565b6128e6576128d76128d06128c98b89611f46565b8990612ae3565b8490612b3c565b92506128e38288612b3c565b90505b8383146128f55760018c018390555b8181146129045760028c018190555b6000811561291b576129168483612b96565b61291d565b865b9050612927612fc2565b50604080516060810182528e546cffffffffffffffffffffffffff80821683526d010000000000000000000000000082041660208301819052600160d01b90910465ffffffffffff1692820192909252908214612a255761298781612079565b8e547fffffffffffffffffffffffffffffffffffffff00000000000000000000000000166cffffffffffffffffffffffffff918216177fffffffffffff00000000000000000000000000ffffffffffffffffffffffffff166d0100000000000000000000000000918416919091021779ffffffffffffffffffffffffffffffffffffffffffffffffffff16600160d01b4265ffffffffffff1602178e555b50612a329050898b612c9e565b612a55576001600160a01b038b16600090815260038d0160205260409020895190555b612a768b612a638b89611f46565b612a6c8c612c99565b8a8963ffffffff16565b505050505050505050505050565b6000612ac683836040518060400160405280601e81526020017f536166654d6174683a207375627472616374696f6e206f766572666c6f770000815250612ca5565b9392505050565b6000818310612adc5781612ac6565b5090919050565b600082612af25750600061179a565b82820282848281612aff57fe5b0414612ac65760405162461bcd60e51b81526004018080602001828103825260218152602001806130096021913960400191505060405180910390fd5b600082820183811015612ac6576040805162461bcd60e51b815260206004820152601b60248201527f536166654d6174683a206164646974696f6e206f766572666c6f770000000000604482015290519081900360640190fd5b6000612ac683836040518060400160405280601a81526020017f536166654d6174683a206469766973696f6e206279207a65726f000000000000815250612d3c565b6001600160a01b03821660009081526001602052604090205481811461179a576001600160a01b038316600090815260016020526040812083905554612c2a908290612c249085612b3c565b90612a84565b60005592915050565b6120028787878615612c455788612c4d565b612c4d61200b565b88888888612865565b6001600160a01b03161590565b60606108da8260405160200180826001600160a01b031660601b8152601401915050604051602081830303815290604052612da1565b511590565b5190511490565b60008184841115612d345760405162461bcd60e51b81526004018080602001828103825283818151815260200191508051906020019080838360005b83811015612cf9578181015183820152602001612ce1565b50505050905090810190601f168015612d265780820380516001836020036101000a031916815260200191505b509250505060405180910390fd5b505050900390565b60008183612d8b5760405162461bcd60e51b8152602060048201818152835160248401528351909283926044909101919085019080838360008315612cf9578181015183820152602001612ce1565b506000838581612d9757fe5b0495945050505050565b606080825160020260020167ffffffffffffffff81118015612dc257600080fd5b506040519080825280601f01601f191660200182016040528015612ded576020820181803683370190505b5090507f300000000000000000000000000000000000000000000000000000000000000081600081518110612e1e57fe5b60200101907effffffffffffffffffffffffffffffffffffffffffffffffffffffffffffff1916908160001a9053507f780000000000000000000000000000000000000000000000000000000000000081600181518110612e7b57fe5b60200101907effffffffffffffffffffffffffffffffffffffffffffffffffffffffffffff1916908160001a905350600260005b8451811015612fa65760006004868381518110612ec857fe5b602001015160f81c60f81b60f81c60ff16901c60ff1690506000868381518110612eee57fe5b60209101015160f81c600f169050600a8204602702826030010160f81b858580600101965081518110612f1d57fe5b60200101907effffffffffffffffffffffffffffffffffffffffffffffffffffffffffffff1916908160001a905350600a8104602702816030010160f81b858580600101965081518110612f6d57fe5b60200101907effffffffffffffffffffffffffffffffffffffffffffffffffffffffffffff1916908160001a9053505050600101612eaf565b50909392505050565b6040518060200160405280600081525090565b60408051606081018252600080825260208201819052918101919091529056fe4f776e61626c653a206e6577206f776e657220697320746865207a65726f2061646472657373536166654d6174683a206d756c7469706c69636174696f6e206f766572666c6f77a2646970667358221220ee8802dbe4f68a2a9c7fb72cfd193087eb8f6321bd893a7706a11cc5b2316a0464736f6c634300060c0033",
  "immutableReferences": {
    "1809": [
      {
        "length": 32,
        "start": 3911
      },
      {
        "length": 32,
        "start": 6617
      }
    ],
    "1811": [
      {
        "length": 32,
        "start": 4524
      },
      {
        "length": 32,
        "start": 6942
      }
    ],
    "3095": [
      {
        "length": 32,
        "start": 2831
      },
      {
        "length": 32,
        "start": 3280
      },
      {
        "length": 32,
        "start": 6336
      }
    ]
  },
  "source": "// SPDX-License-Identifier: MIT\n\npragma solidity ^0.6.0;\n\nimport \"./interfaces/IMooniswapDeployer.sol\";\nimport \"./interfaces/IMooniswapFactory.sol\";\nimport \"./libraries/UniERC20.sol\";\nimport \"./Mooniswap.sol\";\nimport \"./governance/MooniswapFactoryGovernance.sol\";\n\n\ncontract MooniswapFactory is IMooniswapFactory, MooniswapFactoryGovernance {\n    using UniERC20 for IERC20;\n\n    event Deployed(\n        address indexed mooniswap,\n        address indexed token1,\n        address indexed token2\n    );\n\n    IMooniswapDeployer public immutable mooniswapDeployer;\n    address public immutable poolOwner;\n    Mooniswap[] public allPools;\n    mapping(Mooniswap => bool) public isPool;\n    mapping(IERC20 => mapping(IERC20 => Mooniswap)) private _pools;\n\n    constructor (address _poolOwner, IMooniswapDeployer _mooniswapDeployer, address _governanceMothership) public MooniswapFactoryGovernance(_governanceMothership) {\n        poolOwner = _poolOwner;\n        mooniswapDeployer = _mooniswapDeployer;\n    }\n\n    function getAllPools() external view returns(Mooniswap[] memory) {\n        return allPools;\n    }\n\n    function pools(IERC20 tokenA, IERC20 tokenB) external view override returns (Mooniswap pool) {\n        (IERC20 token1, IERC20 token2) = sortTokens(tokenA, tokenB);\n        return _pools[token1][token2];\n    }\n\n    function deploy(IERC20 tokenA, IERC20 tokenB) public returns(Mooniswap pool) {\n        require(tokenA != tokenB, \"Factory: not support same tokens\");\n        (IERC20 token1, IERC20 token2) = sortTokens(tokenA, tokenB);\n        require(_pools[token1][token2] == Mooniswap(0), \"Factory: pool already exists\");\n\n        string memory symbol1 = token1.uniSymbol();\n        string memory symbol2 = token2.uniSymbol();\n\n        pool = mooniswapDeployer.deploy(\n            token1,\n            token2,\n            string(abi.encodePacked(\"Mooniswap V2 (\", symbol1, \"-\", symbol2, \")\")),\n            string(abi.encodePacked(\"MOON-V2-\", symbol1, \"-\", symbol2)),\n            poolOwner\n        );\n\n        _pools[token1][token2] = pool;\n        allPools.push(pool);\n        isPool[pool] = true;\n\n        emit Deployed(\n            address(pool),\n            address(token1),\n            address(token2)\n        );\n    }\n\n    function sortTokens(IERC20 tokenA, IERC20 tokenB) public pure returns(IERC20, IERC20) {\n        if (tokenA < tokenB) {\n            return (tokenA, tokenB);\n        }\n        return (tokenB, tokenA);\n    }\n}\n",
  "sourcePath": "/Users/zumzoom/Projects/1inch/mooniswap-v2/contracts/MooniswapFactory.sol",
  "compiler": {
    "name": "solc",
    "version": "0.6.12+commit.27d51765.Emscripten.clang"
  },
  "schemaVersion": "3.3.2",
  "updatedAt": "2020-12-17T09:38:26.347Z",
  "devdoc": {
    "kind": "dev",
    "methods": {
      "owner()": {
        "details": "Returns the address of the current owner."
      },
      "renounceOwnership()": {
        "details": "Leaves the contract without owner. It will not be possible to call `onlyOwner` functions anymore. Can only be called by the current owner. NOTE: Renouncing ownership will leave the contract without an owner, thereby removing any functionality that is only available to the owner."
      },
      "transferOwnership(address)": {
        "details": "Transfers ownership of the contract to a new account (`newOwner`). Can only be called by the current owner."
      }
    },
    "version": 1
  },
  "userdoc": {
    "kind": "user",
    "methods": {},
    "version": 1
  }
}