{
  "contractName": "Mooniswap",
  "abi": [
    {
      "inputs": [
        {
          "internalType": "contract IERC20",
          "name": "_token0",
          "type": "address"
        },
        {
          "internalType": "contract IERC20",
          "name": "_token1",
          "type": "address"
        },
        {
          "internalType": "string",
          "name": "name",
          "type": "string"
        },
        {
          "internalType": "string",
          "name": "symbol",
          "type": "string"
        },
        {
          "internalType": "contract IMooniswapFactoryGovernance",
          "name": "_mooniswapFactoryGovernance",
          "type": "address"
        }
      ],
      "stateMutability": "nonpayable",
      "type": "constructor"
    },
    {
      "anonymous": false,
      "inputs": [
        {
          "indexed": true,
          "internalType": "address",
          "name": "owner",
          "type": "address"
        },
        {
          "indexed": true,
          "internalType": "address",
          "name": "spender",
          "type": "address"
        },
        {
          "indexed": false,
          "internalType": "uint256",
          "name": "value",
          "type": "uint256"
        }
      ],
      "name": "Approval",
      "type": "event"
    },
    {
      "anonymous": false,
      "inputs": [
        {
          "indexed": true,
          "internalType": "address",
          "name": "user",
          "type": "address"
        },
        {
          "indexed": false,
          "internalType": "uint256",
          "name": "decayPeriod",
          "type": "uint256"
        },
        {
          "indexed": false,
          "internalType": "bool",
          "name": "isDefault",
          "type": "bool"
        },
        {
          "indexed": false,
          "internalType": "uint256",
          "name": "amount",
          "type": "uint256"
        }
      ],
      "name": "DecayPeriodVoteUpdate",
      "type": "event"
    },
    {
      "anonymous": false,
      "inputs": [
        {
          "indexed": true,
          "internalType": "address",
          "name": "sender",
          "type": "address"
        },
        {
          "indexed": true,
          "internalType": "address",
          "name": "receiver",
          "type": "address"
        },
        {
          "indexed": false,
          "internalType": "uint256",
          "name": "share",
          "type": "uint256"
        },
        {
          "indexed": false,
          "internalType": "uint256",
          "name": "token0Amount",
          "type": "uint256"
        },
        {
          "indexed": false,
          "internalType": "uint256",
          "name": "token1Amount",
          "type": "uint256"
        }
      ],
      "name": "Deposited",
      "type": "event"
    },
    {
      "anonymous": false,
      "inputs": [
        {
          "indexed": true,
          "internalType": "address",
          "name": "user",
          "type": "address"
        },
        {
          "indexed": false,
          "internalType": "uint256",
          "name": "fee",
          "type": "uint256"
        },
        {
          "indexed": false,
          "internalType": "bool",
          "name": "isDefault",
          "type": "bool"
        },
        {
          "indexed": false,
          "internalType": "uint256",
          "name": "amount",
          "type": "uint256"
        }
      ],
      "name": "FeeVoteUpdate",
      "type": "event"
    },
    {
      "anonymous": false,
      "inputs": [
        {
          "indexed": true,
          "internalType": "address",
          "name": "previousOwner",
          "type": "address"
        },
        {
          "indexed": true,
          "internalType": "address",
          "name": "newOwner",
          "type": "address"
        }
      ],
      "name": "OwnershipTransferred",
      "type": "event"
    },
    {
      "anonymous": false,
      "inputs": [
        {
          "indexed": true,
          "internalType": "address",
          "name": "user",
          "type": "address"
        },
        {
          "indexed": false,
          "internalType": "uint256",
          "name": "slippageFee",
          "type": "uint256"
        },
        {
          "indexed": false,
          "internalType": "bool",
          "name": "isDefault",
          "type": "bool"
        },
        {
          "indexed": false,
          "internalType": "uint256",
          "name": "amount",
          "type": "uint256"
        }
      ],
      "name": "SlippageFeeVoteUpdate",
      "type": "event"
    },
    {
      "anonymous": false,
      "inputs": [
        {
          "indexed": true,
          "internalType": "address",
          "name": "sender",
          "type": "address"
        },
        {
          "indexed": true,
          "internalType": "address",
          "name": "receiver",
          "type": "address"
        },
        {
          "indexed": true,
          "internalType": "address",
          "name": "srcToken",
          "type": "address"
        },
        {
          "indexed": false,
          "internalType": "address",
          "name": "dstToken",
          "type": "address"
        },
        {
          "indexed": false,
          "internalType": "uint256",
          "name": "amount",
          "type": "uint256"
        },
        {
          "indexed": false,
          "internalType": "uint256",
          "name": "result",
          "type": "uint256"
        },
        {
          "indexed": false,
          "internalType": "uint256",
          "name": "srcAdditionBalance",
          "type": "uint256"
        },
        {
          "indexed": false,
          "internalType": "uint256",
          "name": "dstRemovalBalance",
          "type": "uint256"
        },
        {
          "indexed": false,
          "internalType": "address",
          "name": "referral",
          "type": "address"
        }
      ],
      "name": "Swapped",
      "type": "event"
    },
    {
      "anonymous": false,
      "inputs": [
        {
          "indexed": false,
          "internalType": "uint256",
          "name": "srcBalance",
          "type": "uint256"
        },
        {
          "indexed": false,
          "internalType": "uint256",
          "name": "dstBalance",
          "type": "uint256"
        },
        {
          "indexed": false,
          "internalType": "uint256",
          "name": "fee",
          "type": "uint256"
        },
        {
          "indexed": false,
          "internalType": "uint256",
          "name": "slippageFee",
          "type": "uint256"
        },
        {
          "indexed": false,
          "internalType": "uint256",
          "name": "referralShare",
          "type": "uint256"
        },
        {
          "indexed": false,
          "internalType": "uint256",
          "name": "governanceShare",
          "type": "uint256"
        }
      ],
      "name": "Sync",
      "type": "event"
    },
    {
      "anonymous": false,
      "inputs": [
        {
          "indexed": true,
          "internalType": "address",
          "name": "from",
          "type": "address"
        },
        {
          "indexed": true,
          "internalType": "address",
          "name": "to",
          "type": "address"
        },
        {
          "indexed": false,
          "internalType": "uint256",
          "name": "value",
          "type": "uint256"
        }
      ],
      "name": "Transfer",
      "type": "event"
    },
    {
      "anonymous": false,
      "inputs": [
        {
          "indexed": true,
          "internalType": "address",
          "name": "sender",
          "type": "address"
        },
        {
          "indexed": true,
          "internalType": "address",
          "name": "receiver",
          "type": "address"
        },
        {
          "indexed": false,
          "internalType": "uint256",
          "name": "share",
          "type": "uint256"
        },
        {
          "indexed": false,
          "internalType": "uint256",
          "name": "token0Amount",
          "type": "uint256"
        },
        {
          "indexed": false,
          "internalType": "uint256",
          "name": "token1Amount",
          "type": "uint256"
        }
      ],
      "name": "Withdrawn",
      "type": "event"
    },
    {
      "inputs": [
        {
          "internalType": "address",
          "name": "owner",
          "type": "address"
        },
        {
          "internalType": "address",
          "name": "spender",
          "type": "address"
        }
      ],
      "name": "allowance",
      "outputs": [
        {
          "internalType": "uint256",
          "name": "",
          "type": "uint256"
        }
      ],
      "stateMutability": "view",
      "type": "function"
    },
    {
      "inputs": [
        {
          "internalType": "address",
          "name": "spender",
          "type": "address"
        },
        {
          "internalType": "uint256",
          "name": "amount",
          "type": "uint256"
        }
      ],
      "name": "approve",
      "outputs": [
        {
          "internalType": "bool",
          "name": "",
          "type": "bool"
        }
      ],
      "stateMutability": "nonpayable",
      "type": "function"
    },
    {
      "inputs": [
        {
          "internalType": "address",
          "name": "account",
          "type": "address"
        }
      ],
      "name": "balanceOf",
      "outputs": [
        {
          "internalType": "uint256",
          "name": "",
          "type": "uint256"
        }
      ],
      "stateMutability": "view",
      "type": "function"
    },
    {
      "inputs": [],
      "name": "decayPeriod",
      "outputs": [
        {
          "internalType": "uint256",
          "name": "",
          "type": "uint256"
        }
      ],
      "stateMutability": "view",
      "type": "function"
    },
    {
      "inputs": [
        {
          "internalType": "uint256",
          "name": "vote",
          "type": "uint256"
        }
      ],
      "name": "decayPeriodVote",
      "outputs": [],
      "stateMutability": "nonpayable",
      "type": "function"
    },
    {
      "inputs": [
        {
          "internalType": "address",
          "name": "user",
          "type": "address"
        }
      ],
      "name": "decayPeriodVotes",
      "outputs": [
        {
          "internalType": "uint256",
          "name": "",
          "type": "uint256"
        }
      ],
      "stateMutability": "view",
      "type": "function"
    },
    {
      "inputs": [],
      "name": "decimals",
      "outputs": [
        {
          "internalType": "uint8",
          "name": "",
          "type": "uint8"
        }
      ],
      "stateMutability": "view",
      "type": "function"
    },
    {
      "inputs": [
        {
          "internalType": "address",
          "name": "spender",
          "type": "address"
        },
        {
          "internalType": "uint256",
          "name": "subtractedValue",
          "type": "uint256"
        }
      ],
      "name": "decreaseAllowance",
      "outputs": [
        {
          "internalType": "bool",
          "name": "",
          "type": "bool"
        }
      ],
      "stateMutability": "nonpayable",
      "type": "function"
    },
    {
      "inputs": [],
      "name": "discardDecayPeriodVote",
      "outputs": [],
      "stateMutability": "nonpayable",
      "type": "function"
    },
    {
      "inputs": [],
      "name": "discardFeeVote",
      "outputs": [],
      "stateMutability": "nonpayable",
      "type": "function"
    },
    {
      "inputs": [],
      "name": "discardSlippageFeeVote",
      "outputs": [],
      "stateMutability": "nonpayable",
      "type": "function"
    },
    {
      "inputs": [],
      "name": "fee",
      "outputs": [
        {
          "internalType": "uint256",
          "name": "",
          "type": "uint256"
        }
      ],
      "stateMutability": "view",
      "type": "function"
    },
    {
      "inputs": [
        {
          "internalType": "uint256",
          "name": "vote",
          "type": "uint256"
        }
      ],
      "name": "feeVote",
      "outputs": [],
      "stateMutability": "nonpayable",
      "type": "function"
    },
    {
      "inputs": [
        {
          "internalType": "address",
          "name": "user",
          "type": "address"
        }
      ],
      "name": "feeVotes",
      "outputs": [
        {
          "internalType": "uint256",
          "name": "",
          "type": "uint256"
        }
      ],
      "stateMutability": "view",
      "type": "function"
    },
    {
      "inputs": [
        {
          "internalType": "address",
          "name": "spender",
          "type": "address"
        },
        {
          "internalType": "uint256",
          "name": "addedValue",
          "type": "uint256"
        }
      ],
      "name": "increaseAllowance",
      "outputs": [
        {
          "internalType": "bool",
          "name": "",
          "type": "bool"
        }
      ],
      "stateMutability": "nonpayable",
      "type": "function"
    },
    {
      "inputs": [],
      "name": "mooniswapFactoryGovernance",
      "outputs": [
        {
          "internalType": "contract IMooniswapFactoryGovernance",
          "name": "",
          "type": "address"
        }
      ],
      "stateMutability": "view",
      "type": "function"
    },
    {
      "inputs": [],
      "name": "name",
      "outputs": [
        {
          "internalType": "string",
          "name": "",
          "type": "string"
        }
      ],
      "stateMutability": "view",
      "type": "function"
    },
    {
      "inputs": [],
      "name": "owner",
      "outputs": [
        {
          "internalType": "address",
          "name": "",
          "type": "address"
        }
      ],
      "stateMutability": "view",
      "type": "function"
    },
    {
      "inputs": [],
      "name": "renounceOwnership",
      "outputs": [],
      "stateMutability": "nonpayable",
      "type": "function"
    },
    {
      "inputs": [],
      "name": "slippageFee",
      "outputs": [
        {
          "internalType": "uint256",
          "name": "",
          "type": "uint256"
        }
      ],
      "stateMutability": "view",
      "type": "function"
    },
    {
      "inputs": [
        {
          "internalType": "uint256",
          "name": "vote",
          "type": "uint256"
        }
      ],
      "name": "slippageFeeVote",
      "outputs": [],
      "stateMutability": "nonpayable",
      "type": "function"
    },
    {
      "inputs": [
        {
          "internalType": "address",
          "name": "user",
          "type": "address"
        }
      ],
      "name": "slippageFeeVotes",
      "outputs": [
        {
          "internalType": "uint256",
          "name": "",
          "type": "uint256"
        }
      ],
      "stateMutability": "view",
      "type": "function"
    },
    {
      "inputs": [],
      "name": "symbol",
      "outputs": [
        {
          "internalType": "string",
          "name": "",
          "type": "string"
        }
      ],
      "stateMutability": "view",
      "type": "function"
    },
    {
      "inputs": [],
      "name": "token0",
      "outputs": [
        {
          "internalType": "contract IERC20",
          "name": "",
          "type": "address"
        }
      ],
      "stateMutability": "view",
      "type": "function"
    },
    {
      "inputs": [],
      "name": "token1",
      "outputs": [
        {
          "internalType": "contract IERC20",
          "name": "",
          "type": "address"
        }
      ],
      "stateMutability": "view",
      "type": "function"
    },
    {
      "inputs": [],
      "name": "totalSupply",
      "outputs": [
        {
          "internalType": "uint256",
          "name": "",
          "type": "uint256"
        }
      ],
      "stateMutability": "view",
      "type": "function"
    },
    {
      "inputs": [
        {
          "internalType": "address",
          "name": "recipient",
          "type": "address"
        },
        {
          "internalType": "uint256",
          "name": "amount",
          "type": "uint256"
        }
      ],
      "name": "transfer",
      "outputs": [
        {
          "internalType": "bool",
          "name": "",
          "type": "bool"
        }
      ],
      "stateMutability": "nonpayable",
      "type": "function"
    },
    {
      "inputs": [
        {
          "internalType": "address",
          "name": "sender",
          "type": "address"
        },
        {
          "internalType": "address",
          "name": "recipient",
          "type": "address"
        },
        {
          "internalType": "uint256",
          "name": "amount",
          "type": "uint256"
        }
      ],
      "name": "transferFrom",
      "outputs": [
        {
          "internalType": "bool",
          "name": "",
          "type": "bool"
        }
      ],
      "stateMutability": "nonpayable",
      "type": "function"
    },
    {
      "inputs": [
        {
          "internalType": "address",
          "name": "newOwner",
          "type": "address"
        }
      ],
      "name": "transferOwnership",
      "outputs": [],
      "stateMutability": "nonpayable",
      "type": "function"
    },
    {
      "inputs": [
        {
          "internalType": "contract IERC20",
          "name": "",
          "type": "address"
        }
      ],
      "name": "virtualBalancesForAddition",
      "outputs": [
        {
          "internalType": "uint216",
          "name": "balance",
          "type": "uint216"
        },
        {
          "internalType": "uint40",
          "name": "time",
          "type": "uint40"
        }
      ],
      "stateMutability": "view",
      "type": "function"
    },
    {
      "inputs": [
        {
          "internalType": "contract IERC20",
          "name": "",
          "type": "address"
        }
      ],
      "name": "virtualBalancesForRemoval",
      "outputs": [
        {
          "internalType": "uint216",
          "name": "balance",
          "type": "uint216"
        },
        {
          "internalType": "uint40",
          "name": "time",
          "type": "uint40"
        }
      ],
      "stateMutability": "view",
      "type": "function"
    },
    {
      "inputs": [
        {
          "internalType": "contract IERC20",
          "name": "",
          "type": "address"
        }
      ],
      "name": "volumes",
      "outputs": [
        {
          "internalType": "uint128",
          "name": "confirmed",
          "type": "uint128"
        },
        {
          "internalType": "uint128",
          "name": "result",
          "type": "uint128"
        }
      ],
      "stateMutability": "view",
      "type": "function"
    },
    {
      "inputs": [],
      "name": "getTokens",
      "outputs": [
        {
          "internalType": "contract IERC20[]",
          "name": "tokens",
          "type": "address[]"
        }
      ],
      "stateMutability": "view",
      "type": "function"
    },
    {
      "inputs": [
        {
          "internalType": "uint256",
          "name": "i",
          "type": "uint256"
        }
      ],
      "name": "tokens",
      "outputs": [
        {
          "internalType": "contract IERC20",
          "name": "",
          "type": "address"
        }
      ],
      "stateMutability": "view",
      "type": "function"
    },
    {
      "inputs": [
        {
          "internalType": "contract IERC20",
          "name": "token",
          "type": "address"
        }
      ],
      "name": "getBalanceForAddition",
      "outputs": [
        {
          "internalType": "uint256",
          "name": "",
          "type": "uint256"
        }
      ],
      "stateMutability": "view",
      "type": "function"
    },
    {
      "inputs": [
        {
          "internalType": "contract IERC20",
          "name": "token",
          "type": "address"
        }
      ],
      "name": "getBalanceForRemoval",
      "outputs": [
        {
          "internalType": "uint256",
          "name": "",
          "type": "uint256"
        }
      ],
      "stateMutability": "view",
      "type": "function"
    },
    {
      "inputs": [
        {
          "internalType": "contract IERC20",
          "name": "src",
          "type": "address"
        },
        {
          "internalType": "contract IERC20",
          "name": "dst",
          "type": "address"
        },
        {
          "internalType": "uint256",
          "name": "amount",
          "type": "uint256"
        }
      ],
      "name": "getReturn",
      "outputs": [
        {
          "internalType": "uint256",
          "name": "",
          "type": "uint256"
        }
      ],
      "stateMutability": "view",
      "type": "function"
    },
    {
      "inputs": [
        {
          "internalType": "uint256[2]",
          "name": "maxAmounts",
          "type": "uint256[2]"
        },
        {
          "internalType": "uint256[2]",
          "name": "minAmounts",
          "type": "uint256[2]"
        }
      ],
      "name": "deposit",
      "outputs": [
        {
          "internalType": "uint256",
          "name": "fairSupply",
          "type": "uint256"
        },
        {
          "internalType": "uint256[2]",
          "name": "receivedAmounts",
          "type": "uint256[2]"
        }
      ],
      "stateMutability": "payable",
      "type": "function"
    },
    {
      "inputs": [
        {
          "internalType": "uint256[2]",
          "name": "maxAmounts",
          "type": "uint256[2]"
        },
        {
          "internalType": "uint256[2]",
          "name": "minAmounts",
          "type": "uint256[2]"
        },
        {
          "internalType": "address",
          "name": "target",
          "type": "address"
        }
      ],
      "name": "depositFor",
      "outputs": [
        {
          "internalType": "uint256",
          "name": "fairSupply",
          "type": "uint256"
        },
        {
          "internalType": "uint256[2]",
          "name": "receivedAmounts",
          "type": "uint256[2]"
        }
      ],
      "stateMutability": "payable",
      "type": "function"
    },
    {
      "inputs": [
        {
          "internalType": "uint256",
          "name": "amount",
          "type": "uint256"
        },
        {
          "internalType": "uint256[]",
          "name": "minReturns",
          "type": "uint256[]"
        }
      ],
      "name": "withdraw",
      "outputs": [
        {
          "internalType": "uint256[2]",
          "name": "withdrawnAmounts",
          "type": "uint256[2]"
        }
      ],
      "stateMutability": "nonpayable",
      "type": "function"
    },
    {
      "inputs": [
        {
          "internalType": "uint256",
          "name": "amount",
          "type": "uint256"
        },
        {
          "internalType": "uint256[]",
          "name": "minReturns",
          "type": "uint256[]"
        },
        {
          "internalType": "address payable",
          "name": "target",
          "type": "address"
        }
      ],
      "name": "withdrawFor",
      "outputs": [
        {
          "internalType": "uint256[2]",
          "name": "withdrawnAmounts",
          "type": "uint256[2]"
        }
      ],
      "stateMutability": "nonpayable",
      "type": "function"
    },
    {
      "inputs": [
        {
          "internalType": "contract IERC20",
          "name": "src",
          "type": "address"
        },
        {
          "internalType": "contract IERC20",
          "name": "dst",
          "type": "address"
        },
        {
          "internalType": "uint256",
          "name": "amount",
          "type": "uint256"
        },
        {
          "internalType": "uint256",
          "name": "minReturn",
          "type": "uint256"
        },
        {
          "internalType": "address",
          "name": "referral",
          "type": "address"
        }
      ],
      "name": "swap",
      "outputs": [
        {
          "internalType": "uint256",
          "name": "result",
          "type": "uint256"
        }
      ],
      "stateMutability": "payable",
      "type": "function"
    },
    {
      "inputs": [
        {
          "internalType": "contract IERC20",
          "name": "src",
          "type": "address"
        },
        {
          "internalType": "contract IERC20",
          "name": "dst",
          "type": "address"
        },
        {
          "internalType": "uint256",
          "name": "amount",
          "type": "uint256"
        },
        {
          "internalType": "uint256",
          "name": "minReturn",
          "type": "uint256"
        },
        {
          "internalType": "address",
          "name": "referral",
          "type": "address"
        },
        {
          "internalType": "address payable",
          "name": "receiver",
          "type": "address"
        }
      ],
      "name": "swapFor",
      "outputs": [
        {
          "internalType": "uint256",
          "name": "result",
          "type": "uint256"
        }
      ],
      "stateMutability": "payable",
      "type": "function"
    },
    {
      "inputs": [
        {
          "internalType": "contract IERC20",
          "name": "token",
          "type": "address"
        },
        {
          "internalType": "uint256",
          "name": "amount",
          "type": "uint256"
        }
      ],
      "name": "rescueFunds",
      "outputs": [],
      "stateMutability": "nonpayable",
      "type": "function"
    }
  ],
  "bytecode": "0x60e06040523480156200001157600080fd5b506040516200541b3803806200541b833981810160405260a08110156200003757600080fd5b815160208301516040808501805191519395929483019291846401000000008211156200006357600080fd5b9083019060208201858111156200007957600080fd5b82516401000000008111828201881017156200009457600080fd5b82525081516020918201929091019080838360005b83811015620000c3578181015183820152602001620000a9565b50505050905090810190601f168015620000f15780820380516001836020036101000a031916815260200191505b50604052602001805160405193929190846401000000008211156200011557600080fd5b9083019060208201858111156200012b57600080fd5b82516401000000008111828201881017156200014657600080fd5b82525081516020918201929091019080838360005b83811015620001755781810151838201526020016200015b565b50505050905090810190601f168015620001a35780820380516001836020036101000a031916815260200191505b50604052602090810151855190935083925085918591620001cb91600391908501906200056a565b508051620001e19060049060208401906200056a565b50506005805460ff191660121790555060016006556001600160601b0319606082901b16608052604080516305a6c72d60e41b815290516001600160a01b03831691635a6c72d0916004808301926020929190829003018186803b1580156200024957600080fd5b505afa1580156200025e573d6000803e3d6000fd5b505050506040513d60208110156200027557600080fd5b5051600780546001600160681b03909216600160681b02600160681b600160d01b0319909216919091179055604080516323662bb960e01b815290516001600160a01b038316916323662bb9916004808301926020929190829003018186803b158015620002e257600080fd5b505afa158015620002f7573d6000803e3d6000fd5b505050506040513d60208110156200030e57600080fd5b5051600b80546001600160681b03909216600160681b02600160681b600160d01b031990921691909117905560408051631845f0db60e01b815290516001600160a01b03831691631845f0db916004808301926020929190829003018186803b1580156200037b57600080fd5b505afa15801562000390573d6000803e3d6000fd5b505050506040513d6020811015620003a757600080fd5b5051600f80546001600160681b03909216600160681b02600160681b600160d01b0319909216919091179055506000620003e062000566565b601380546001600160a01b0319166001600160a01b038316908117909155604051919250906000907f8be0079c531659141344cd1fd0a4f28419497f9722a3daafe3b4186f6b6457e0908290a350600083511162000485576040805162461bcd60e51b815260206004820152601860248201527f4d6f6f6e69737761703a206e616d6520697320656d7074790000000000000000604482015290519081900360640190fd5b6000825111620004dc576040805162461bcd60e51b815260206004820152601a60248201527f4d6f6f6e69737761703a2073796d626f6c20697320656d707479000000000000604482015290519081900360640190fd5b836001600160a01b0316856001600160a01b0316141562000544576040805162461bcd60e51b815260206004820152601b60248201527f4d6f6f6e69737761703a206475706c696361746520746f6b656e730000000000604482015290519081900360640190fd5b5050506001600160601b0319606092831b811660a052911b1660c05262000606565b3390565b828054600181600116156101000203166002900490600052602060002090601f016020900481019282601f10620005ad57805160ff1916838001178555620005dd565b82800160010185558215620005dd579182015b82811115620005dd578251825591602001919060010190620005c0565b50620005eb929150620005ef565b5090565b5b80821115620005eb5760008155600101620005f0565b60805160601c60a05160601c60c05160601c614d67620006b46000398061136d5280611616528061196f5280611a405280611d9452806124c452806125515280612f2e525080610fc2528061134852806115e6528061193852806119b95280611d6f52806124765280612ef1525080610f0c52806110815280611b535280611be85280611cc152806126315280612b125280613c49528061427c52806142b952806142f65250614d676000f3fe6080604052600436106102e75760003560e01c80637e82a6f311610184578063d21220a7116100d6578063ddca3f431161008a578063eaadf84811610064578063eaadf84814610d49578063f2fde38b14610d73578063f76d13b414610da6576102e7565b8063ddca3f4314610cb7578063e331d03914610ccc578063e7ff42c914610d16576102e7565b8063d7d3aab5116100bb578063d7d3aab514610c34578063d9a0c21714610c67578063dd62ed3e14610c7c576102e7565b8063d21220a714610bdb578063d5bcb9b514610bf0576102e7565b80639aad141b11610138578063a9059cbb11610112578063a9059cbb14610ae0578063aa6ca80814610b19578063b1ec4c4014610b67576102e7565b80639aad141b146109f75780639ea5ce0a14610a2a578063a457c2d714610aa7576102e7565b806393028d831161016957806393028d831461099a57806395cad3c7146109af57806395d89b41146109e2576102e7565b80637e82a6f3146109525780638da5cb5b14610985576102e7565b8063395093511161023d5780635ed9156d116101f157806370a08231116101cb57806370a08231146108d1578063715018a61461090457806378e3214f14610919576102e7565b80635ed9156d146108195780636669302a146108895780636edc2c091461089e576102e7565b806348d67e1b1161022257806348d67e1b146107235780634f64b2be146107385780635915d80614610762576102e7565b806339509351146105ed5780633c6216a614610626576102e7565b806318160ddd1161029f5780633049105d116102795780633049105d146104f7578063313ce567146105ad5780633732b394146105d8576102e7565b806318160ddd1461044a5780631e1401f81461047157806323b872dd146104b4576102e7565b8063095ea7b3116102d0578063095ea7b3146103a25780630dfe1681146103ef57806311212d6614610420576102e7565b806306fdde03146102ec57806307a8007014610376575b600080fd5b3480156102f857600080fd5b50610301610dbb565b6040805160208082528351818301528351919283929083019185019080838360005b8381101561033b578181015183820152602001610323565b50505050905090810190601f1680156103685780820380516001836020036101000a031916815260200191505b509250505060405180910390f35b34801561038257600080fd5b506103a06004803603602081101561039957600080fd5b5035610e6f565b005b3480156103ae57600080fd5b506103db600480360360408110156103c557600080fd5b506001600160a01b038135169060200135610fa2565b604080519115158252519081900360200190f35b3480156103fb57600080fd5b50610404610fc0565b604080516001600160a01b039092168252519081900360200190f35b34801561042c57600080fd5b506103a06004803603602081101561044357600080fd5b5035610fe4565b34801561045657600080fd5b5061045f611114565b60408051918252519081900360200190f35b34801561047d57600080fd5b5061045f6004803603606081101561049457600080fd5b506001600160a01b0381358116916020810135909116906040013561111a565b3480156104c057600080fd5b506103db600480360360608110156104d757600080fd5b506001600160a01b03813581169160208101359091169060400135611153565b61056b6004803603608081101561050d57600080fd5b6040805180820182529183019291818301918390600290839083908082843760009201919091525050604080518082018252929594938181019392509060029083908390808284376000920191909152509194506111da9350505050565b6040518083815260200182600260200280838360005b83811015610599578181015183820152602001610581565b505050509050019250505060405180910390f35b3480156105b957600080fd5b506105c26111fa565b6040805160ff9092168252519081900360200190f35b3480156105e457600080fd5b5061045f611203565b3480156105f957600080fd5b506103db6004803603604081101561061057600080fd5b506001600160a01b038135169060200135611278565b34801561063257600080fd5b506106e86004803603606081101561064957600080fd5b8135919081019060408101602082013564010000000081111561066b57600080fd5b82018360208201111561067d57600080fd5b8035906020019184602083028401116401000000008311171561069f57600080fd5b919080806020026020016040519081016040528093929190818152602001838360200280828437600092019190915250929550505090356001600160a01b031691506112c69050565b6040518082600260200280838360005b838110156107105781810151838201526020016106f8565b5050505090500191505060405180910390f35b34801561072f57600080fd5b5061045f61156c565b34801561074457600080fd5b506104046004803603602081101561075b57600080fd5b50356115dc565b34801561076e57600080fd5b506106e86004803603604081101561078557600080fd5b813591908101906040810160208201356401000000008111156107a757600080fd5b8201836020820111156107b957600080fd5b803590602001918460208302840111640100000000831117156107db57600080fd5b91908080602002602001604051908101604052809392919081815260200183836020028082843760009201919091525092955061168c945050505050565b34801561082557600080fd5b5061084c6004803603602081101561083c57600080fd5b50356001600160a01b031661169f565b604080517affffffffffffffffffffffffffffffffffffffffffffffffffffff909316835264ffffffffff90911660208301528051918290030190f35b34801561089557600080fd5b506103a06116f6565b3480156108aa57600080fd5b5061084c600480360360208110156108c157600080fd5b50356001600160a01b0316611724565b3480156108dd57600080fd5b5061045f600480360360208110156108f457600080fd5b50356001600160a01b031661177b565b34801561091057600080fd5b506103a0611796565b34801561092557600080fd5b506103a06004803603604081101561093c57600080fd5b506001600160a01b038135169060200135611862565b34801561095e57600080fd5b5061045f6004803603602081101561097557600080fd5b50356001600160a01b0316611b23565b34801561099157600080fd5b50610404611b7d565b3480156109a657600080fd5b506103a0611b8c565b3480156109bb57600080fd5b5061045f600480360360208110156109d257600080fd5b50356001600160a01b0316611bb8565b3480156109ee57600080fd5b50610301611c12565b348015610a0357600080fd5b5061045f60048036036020811015610a1a57600080fd5b50356001600160a01b0316611c91565b61056b600480360360a0811015610a4057600080fd5b6040805180820182529183019291818301918390600290839083908082843760009201919091525050604080518082018252929594938181019392509060029083908390808284376000920191909152509194505050356001600160a01b03169050611ceb565b348015610ab357600080fd5b506103db60048036036040811015610aca57600080fd5b506001600160a01b0381351690602001356123d8565b348015610aec57600080fd5b506103db60048036036040811015610b0357600080fd5b506001600160a01b038135169060200135612440565b348015610b2557600080fd5b50610b2e612454565b60408051602080825283518183015283519192839290830191858101910280838360008315610599578181015183820152602001610581565b348015610b7357600080fd5b50610b9a60048036036020811015610b8a57600080fd5b50356001600160a01b0316612513565b60405180836fffffffffffffffffffffffffffffffff168152602001826fffffffffffffffffffffffffffffffff1681526020019250505060405180910390f35b348015610be757600080fd5b5061040461254f565b61045f600480360360a0811015610c0657600080fd5b506001600160a01b038135811691602081013582169160408201359160608101359160809091013516612573565b348015610c4057600080fd5b5061045f60048036036020811015610c5757600080fd5b50356001600160a01b031661258d565b348015610c7357600080fd5b5061040461262f565b348015610c8857600080fd5b5061045f60048036036040811015610c9f57600080fd5b506001600160a01b0381358116916020013516612653565b348015610cc357600080fd5b5061045f61267e565b61045f600480360360c0811015610ce257600080fd5b506001600160a01b0381358116916020810135821691604082013591606081013591608082013581169160a00135166126ee565b348015610d2257600080fd5b5061045f60048036036020811015610d3957600080fd5b50356001600160a01b0316612983565b348015610d5557600080fd5b506103a060048036036020811015610d6c57600080fd5b5035612a25565b348015610d7f57600080fd5b506103a060048036036020811015610d9657600080fd5b50356001600160a01b0316612ba5565b348015610db257600080fd5b506103a0612cc8565b60038054604080516020601f60027fffffffffffffffffffffffffffffffffffffffffffffffffffffffffffffffff610100600188161502019095169490940493840181900481028201810190925282815260609390929091830182828015610e655780601f10610e3a57610100808354040283529160200191610e65565b820191906000526020600020905b815481529060010190602001808311610e4857829003601f168201915b5050505050905090565b670de0b6b3a7640000811115610ecc576040805162461bcd60e51b815260206004820152601d60248201527f536c6970706167652066656520766f746520697320746f6f2068696768000000604482015290519081900360640190fd5b336000818152600e6020908152604091829020825191820190925290548152610f9f9190610ef984612cf4565b610f023361177b565b610f0a611114565b7f00000000000000000000000000000000000000000000000000000000000000006001600160a01b03166323662bb96040518163ffffffff1660e01b815260040160206040518083038186803b158015610f6357600080fd5b505afa158015610f77573d6000803e3d6000fd5b505050506040513d6020811015610f8d57600080fd5b5051600b959493929190612d13612d66565b50565b6000610fb6610faf612d81565b8484612d85565b5060015b92915050565b7f000000000000000000000000000000000000000000000000000000000000000081565b67016345785d8a0000811115611041576040805162461bcd60e51b815260206004820152601460248201527f46656520766f746520697320746f6f2068696768000000000000000000000000604482015290519081900360640190fd5b336000818152600a6020908152604091829020825191820190925290548152610f9f919061106e84612cf4565b6110773361177b565b61107f611114565b7f00000000000000000000000000000000000000000000000000000000000000006001600160a01b0316635a6c72d06040518163ffffffff1660e01b815260040160206040518083038186803b1580156110d857600080fd5b505afa1580156110ec573d6000803e3d6000fd5b505050506040513d602081101561110257600080fd5b50516007959493929190612e71612d66565b60025490565b600061114984848461112b8861258d565b61113488612983565b61113c61267e565b611144611203565b612ec4565b90505b9392505050565b6000611160848484613005565b6111d08461116c612d81565b6111cb85604051806060016040528060288152602001614c51602891396001600160a01b038a166000908152600160205260408120906111aa612d81565b6001600160a01b031681526020810191909152604001600020549190613160565b612d85565b5060019392505050565b60006111e4614ac9565b6111ef848433611ceb565b915091509250929050565b60055460ff1690565b60408051606081018252600b546cffffffffffffffffffffffffff80821683526d010000000000000000000000000082041660208301527a010000000000000000000000000000000000000000000000000000900465ffffffffffff1691810191909152600090611273906131f7565b905090565b6000610fb6611285612d81565b846111cb8560016000611296612d81565b6001600160a01b03908116825260208083019390935260409182016000908120918c168152925290205490613286565b6112ce614ac9565b60026006541415611326576040805162461bcd60e51b815260206004820152601f60248201527f5265656e7472616e637947756172643a207265656e7472616e742063616c6c00604482015290519081900360640190fd5b6002600655611333614ac9565b50604080518082019091526001600160a01b037f0000000000000000000000000000000000000000000000000000000000000000811682527f0000000000000000000000000000000000000000000000000000000000000000166020820152600061139c611114565b905060006113a861156c565b90506113b433886132e0565b60005b60028110156115095760008482600281106113ce57fe5b6020020151905060006113ea6001600160a01b038316306133dc565b90506000611402866113fc848e61347d565b906134d6565b90506114186001600160a01b0384168a83613518565b8088856002811061142557fe5b602002015289518410158061144d575089848151811061144157fe5b60200260200101518110155b61149e576040805162461bcd60e51b815260206004820152601f60248201527f4d6f6f6e69737761703a20726573756c74206973206e6f7420656e6f75676800604482015290519081900360640190fd5b6114ce85836114ad898f613581565b6001600160a01b03871660009081526015602052604090209291908a6135c3565b6114fe85836114dd898f613581565b6001600160a01b03871660009081526016602052604090209291908a6135c3565b5050506001016113b7565b508351602080860151604080518b8152928301939093528183015290516001600160a01b0387169133917f3cae9923fd3c2f468aa25a8ef687923e37f957459557c0380fd06526c0b8cdbc9181900360600190a350506001600655509392505050565b60408051606081018252600f546cffffffffffffffffffffffffff80821683526d010000000000000000000000000082041660208301527a010000000000000000000000000000000000000000000000000000900465ffffffffffff1691810191909152600090611273906131f7565b60008161160a57507f0000000000000000000000000000000000000000000000000000000000000000611687565b816001141561163a57507f0000000000000000000000000000000000000000000000000000000000000000611687565b6040805162461bcd60e51b815260206004820152601360248201527f506f6f6c206861732074776f20746f6b656e7300000000000000000000000000604482015290519081900360640190fd5b919050565b611694614ac9565b61114c8383336112c6565b6016602052600090815260409020547affffffffffffffffffffffffffffffffffffffffffffffffffffff8116907b01000000000000000000000000000000000000000000000000000000900464ffffffffff1682565b336000818152600e60209081526040918290208251918201909252905481526117229190610ef9613653565b565b6015602052600090815260409020547affffffffffffffffffffffffffffffffffffffffffffffffffffff8116907b01000000000000000000000000000000000000000000000000000000900464ffffffffff1682565b6001600160a01b031660009081526020819052604090205490565b61179e612d81565b6013546001600160a01b03908116911614611800576040805162461bcd60e51b815260206004820181905260248201527f4f776e61626c653a2063616c6c6572206973206e6f7420746865206f776e6572604482015290519081900360640190fd5b6013546040516000916001600160a01b0316907f8be0079c531659141344cd1fd0a4f28419497f9722a3daafe3b4186f6b6457e0908390a3601380547fffffffffffffffffffffffff0000000000000000000000000000000000000000169055565b600260065414156118ba576040805162461bcd60e51b815260206004820152601f60248201527f5265656e7472616e637947756172643a207265656e7472616e742063616c6c00604482015290519081900360640190fd5b60026006556118c7612d81565b6013546001600160a01b03908116911614611929576040805162461bcd60e51b815260206004820181905260248201527f4f776e61626c653a2063616c6c6572206973206e6f7420746865206f776e6572604482015290519081900360640190fd5b600061195e6001600160a01b037f000000000000000000000000000000000000000000000000000000000000000016306133dc565b905060006119956001600160a01b037f000000000000000000000000000000000000000000000000000000000000000016306133dc565b90506119ab6001600160a01b0385163385613518565b816119df6001600160a01b037f000000000000000000000000000000000000000000000000000000000000000016306133dc565b1015611a32576040805162461bcd60e51b815260206004820152601860248201527f4d6f6f6e69737761703a206163636573732064656e6965640000000000000000604482015290519081900360640190fd5b80611a666001600160a01b037f000000000000000000000000000000000000000000000000000000000000000016306133dc565b1015611ab9576040805162461bcd60e51b815260206004820152601860248201527f4d6f6f6e69737761703a206163636573732064656e6965640000000000000000604482015290519081900360640190fd5b6103e8611ac53061177b565b1015611b18576040805162461bcd60e51b815260206004820152601860248201527f4d6f6f6e69737761703a206163636573732064656e6965640000000000000000604482015290519081900360640190fd5b505060016006555050565b6001600160a01b03818116600090815260126020908152604080832081519283019091525481529091610fba91907f000000000000000000000000000000000000000000000000000000000000000016631845f0db61366e565b6013546001600160a01b031690565b336000818152600a6020908152604091829020825191820190925290548152611722919061106e613653565b6001600160a01b038181166000908152600e6020908152604080832081519283019091525481529091610fba91907f0000000000000000000000000000000000000000000000000000000000000000166323662bb961366e565b60048054604080516020601f60027fffffffffffffffffffffffffffffffffffffffffffffffffffffffffffffffff610100600188161502019095169490940493840181900481028201810190925282815260609390929091830182828015610e655780601f10610e3a57610100808354040283529160200191610e65565b6001600160a01b038181166000908152600a6020908152604080832081519283019091525481529091610fba91907f000000000000000000000000000000000000000000000000000000000000000016635a6c72d061366e565b6000611cf5614ac9565b60026006541415611d4d576040805162461bcd60e51b815260206004820152601f60248201527f5265656e7472616e637947756172643a207265656e7472616e742063616c6c00604482015290519081900360640190fd5b6002600655611d5a614ac9565b50604080518082019091526001600160a01b037f0000000000000000000000000000000000000000000000000000000000000000811682527f0000000000000000000000000000000000000000000000000000000000000000166020820152611dd38160005b60200201516001600160a01b0316613702565b611df857611de2816001611dc0565b611ded576000611df3565b60208601515b611dfb565b85515b3414611e4e576040805162461bcd60e51b815260206004820152601c60248201527f4d6f6f6e69737761703a2077726f6e672076616c756520757361676500000000604482015290519081900360640190fd5b6000611e58611114565b905080611fe457611e6c6103e8606361347d565b9350611e7a306103e861370f565b60005b6002811015611fde57611ea085898360028110611e9657fe5b60200201516137ff565b94506000888260028110611eb057fe5b602002015111611f07576040805162461bcd60e51b815260206004820152601960248201527f4d6f6f6e69737761703a20616d6f756e74206973207a65726f00000000000000604482015290519081900360640190fd5b868160028110611f1357fe5b6020020151888260028110611f2457fe5b60200201511015611f7c576040805162461bcd60e51b815260206004820181905260248201527f4d6f6f6e69737761703a206d696e416d6f756e74206e6f742072656163686564604482015290519081900360640190fd5b611fb433308a8460028110611f8d57fe5b6020020151868560028110611f9e57fe5b60200201516001600160a01b0316929190613816565b878160028110611fc057fe5b6020020151848260028110611fd157fe5b6020020152600101611e7d565b50612315565b611fec614ac9565b60005b600281101561205a5761204161200a858360028110611dc057fe5b612015576000612017565b345b61203b3087856002811061202757fe5b60200201516001600160a01b0316906133dc565b90613581565b82826002811061204d57fe5b6020020152600101611fef565b507fffffffffffffffffffffffffffffffffffffffffffffffffffffffffffffffff945060005b60028110156120cc576120c2866120bd84846002811061209d57fe5b60200201516113fc8d86600281106120b157fe5b6020020151889061347d565b6138e8565b9550600101612081565b508460005b60028110156122595760008a82600281106120e857fe5b60200201511161213f576040805162461bcd60e51b815260206004820152601960248201527f4d6f6f6e69737761703a20616d6f756e74206973207a65726f00000000000000604482015290519081900360640190fd5b600061216d856113fc600188036121678789886002811061215c57fe5b60200201519061347d565b90613286565b905089826002811061217b57fe5b60200201518110156121d4576040805162461bcd60e51b815260206004820181905260248201527f4d6f6f6e69737761703a206d696e416d6f756e74206e6f742072656163686564604482015290519081900360640190fd5b6121e6333083898660028110611f9e57fe5b61220a8483600281106121f557fe5b602002015161203b3089866002811061202757fe5b87836002811061221657fe5b602002015261224e886120bd86856002811061222e57fe5b60200201516113fc8b876002811061224257fe5b60200201518a9061347d565b9750506001016120d1565b50600061226461156c565b905060005b6002811015612310576122d88285836002811061228257fe5b6020020151612291888c613286565b88601660008c88600281106122a257fe5b60200201516001600160a01b03166001600160a01b031681526020019081526020016000206135c390949392919063ffffffff16565b612308828583600281106122e857fe5b60200201516122f7888c613286565b88601560008c88600281106122a257fe5b600101612269565b505050505b6000841161236a576040805162461bcd60e51b815260206004820152601f60248201527f4d6f6f6e69737761703a20726573756c74206973206e6f7420656e6f75676800604482015290519081900360640190fd5b612374858561370f565b825160208085015160408051888152928301939093528183015290516001600160a01b0387169133917f8bab6aed5a508937051a144e61d6e61336834a66aaee250a00613ae6f744c4229181900360600190a3505060016006559094909350915050565b6000610fb66123e5612d81565b846111cb85604051806060016040528060258152602001614d0d602591396001600061240f612d81565b6001600160a01b03908116825260208083019390935260409182016000908120918d16815292529020549190613160565b6000610fb661244d612d81565b8484613005565b60408051600280825260608083018452926020830190803683370190505090507f0000000000000000000000000000000000000000000000000000000000000000816000815181106124a257fe5b60200260200101906001600160a01b031690816001600160a01b0316815250507f0000000000000000000000000000000000000000000000000000000000000000816001815181106124f057fe5b60200260200101906001600160a01b031690816001600160a01b03168152505090565b6014602052600090815260409020546fffffffffffffffffffffffffffffffff8082169170010000000000000000000000000000000090041682565b7f000000000000000000000000000000000000000000000000000000000000000081565b60006125838686868686336126ee565b9695505050505050565b6000806125a36001600160a01b038416306133dc565b905061114c6126296125b361156c565b6001600160a01b0386166000908152601560209081526040918290208251808401909352547affffffffffffffffffffffffffffffffffffffffffffffffffffff811683527b01000000000000000000000000000000000000000000000000000000900464ffffffffff169082015290846138f7565b826137ff565b7f000000000000000000000000000000000000000000000000000000000000000081565b6001600160a01b03918216600090815260016020908152604080832093909416825291909152205490565b604080516060810182526007546cffffffffffffffffffffffffff80821683526d010000000000000000000000000082041660208301527a010000000000000000000000000000000000000000000000000000900465ffffffffffff1691810191909152600090611273906131f7565b600060026006541415612748576040805162461bcd60e51b815260206004820152601f60248201527f5265656e7472616e637947756172643a207265656e7472616e742063616c6c00604482015290519081900360640190fd5b600260065561275f6001600160a01b038816613702565b61276a57600061276c565b845b34146127bf576040805162461bcd60e51b815260206004820152601c60248201527f4d6f6f6e69737761703a2077726f6e672076616c756520757361676500000000604482015290519081900360640190fd5b6127c7614ae7565b60405180604001604052806128076127e78b6001600160a01b0316613702565b6127f25760006127f4565b345b61203b6001600160a01b038d16306133dc565b815260200161281f6001600160a01b038a16306133dc565b90529050600061282d614ae7565b612835614ae7565b604051806040016040528061284861267e565b8152602001612855611203565b905290506128688b8b8b8b8a8987613966565b909650909350915061287d8386898785613c41565b8151602080840151604080516001600160a01b038f811682529381018890528082018a90526060810194909452608084019190915289821660a084015251818e16929189169133917fbd99c6719f088aa0abd9e7b7a4a635d1f931601e9f304b538dc42be25d8c65c69181900360c00190a450506001600160a01b03909816600090815260146020526040902080547001000000000000000000000000000000006fffffffffffffffffffffffffffffffff808316909b018b167fffffffffffffffffffffffffffffffff00000000000000000000000000000000909216919091178181048b1685018b1690910299169890981790975560016006559695505050505050565b6000806129996001600160a01b038416306133dc565b905061114c612a1f6129a961156c565b6001600160a01b0386166000908152601660209081526040918290208251808401909352547affffffffffffffffffffffffffffffffffffffffffffffffffffff811683527b01000000000000000000000000000000000000000000000000000000900464ffffffffff169082015290846138f7565b826138e8565b610e10811115612a7c576040805162461bcd60e51b815260206004820152601d60248201527f446563617920706572696f6420766f746520697320746f6f2068696768000000604482015290519081900360640190fd5b600f811015612ad2576040805162461bcd60e51b815260206004820152601c60248201527f446563617920706572696f6420766f746520697320746f6f206c6f7700000000604482015290519081900360640190fd5b33600081815260126020908152604091829020825191820190925290548152610f9f9190612aff84612cf4565b612b083361177b565b612b10611114565b7f00000000000000000000000000000000000000000000000000000000000000006001600160a01b0316631845f0db6040518163ffffffff1660e01b815260040160206040518083038186803b158015612b6957600080fd5b505afa158015612b7d573d6000803e3d6000fd5b505050506040513d6020811015612b9357600080fd5b5051600f959493929190613edd612d66565b612bad612d81565b6013546001600160a01b03908116911614612c0f576040805162461bcd60e51b815260206004820181905260248201527f4f776e61626c653a2063616c6c6572206973206e6f7420746865206f776e6572604482015290519081900360640190fd5b6001600160a01b038116612c545760405162461bcd60e51b8152600401808060200182810382526026815260200180614bc26026913960400191505060405180910390fd5b6013546040516001600160a01b038084169216907f8be0079c531659141344cd1fd0a4f28419497f9722a3daafe3b4186f6b6457e090600090a3601380547fffffffffffffffffffffffff0000000000000000000000000000000000000000166001600160a01b0392909216919091179055565b336000818152601260209081526040918290208251918201909252905481526117229190612aff613653565b612cfc614b01565b506040805160208101909152600182018152919050565b60408051848152831515602082015280820183905290516001600160a01b038616917fce0cf859d853e1944032294143a1bf3ad799998ae77acbeb6c4d9b20d6910240919081900360600190a250505050565b612d77888888888889898989613f30565b5050505050505050565b3390565b6001600160a01b038316612dca5760405162461bcd60e51b8152600401808060200182810382526024815260200180614cbf6024913960400191505060405180910390fd5b6001600160a01b038216612e0f5760405162461bcd60e51b8152600401808060200182810382526022815260200180614be86022913960400191505060405180910390fd5b6001600160a01b03808416600081815260016020908152604080832094871680845294825291829020859055815185815291517f8c5be1e5ebec7d5bd14f71427d1e84f3dd0314c0f7b2291e5b200ac8c7c3b9259281900390910190a3505050565b60408051848152831515602082015280820183905290516001600160a01b038616917fe117cae46817b894b41a4412b73ae0ba746a5707b94e02d83b4c6502010b11ac919081900360600190a250505050565b6000866001600160a01b0316886001600160a01b03161115612ee4579596955b600086118015612f2557507f00000000000000000000000000000000000000000000000000000000000000006001600160a01b0316886001600160a01b0316145b8015612f6257507f00000000000000000000000000000000000000000000000000000000000000006001600160a01b0316876001600160a01b0316145b15612ffa576000612f89612f82670de0b6b3a76400006113fc8a8861347d565b8890613581565b90506000612f978783613286565b90506000612fa9826113fc858a61347d565b90506000612fcc612fba878661347d565b61203b670de0b6b3a76400008661347d565b90506000612fe2670de0b6b3a76400008561347d565b9050612ff2816113fc858561347d565b955050505050505b979650505050505050565b6001600160a01b03831661304a5760405162461bcd60e51b8152600401808060200182810382526025815260200180614c9a6025913960400191505060405180910390fd5b6001600160a01b03821661308f5760405162461bcd60e51b8152600401808060200182810382526023815260200180614b7d6023913960400191505060405180910390fd5b61309a8383836141a7565b6130d781604051806060016040528060268152602001614c0a602691396001600160a01b0386166000908152602081905260409020549190613160565b6001600160a01b0380851660009081526020819052604080822093909355908416815220546131069082613286565b6001600160a01b038084166000818152602081815260409182902094909455805185815290519193928716927fddf252ad1be2c89b69c2b068fc378daa952ba7f163c4a11628f55a4df523b3ef92918290030190a3505050565b600081848411156131ef5760405162461bcd60e51b81526004018080602001828103825283818151815260200191508051906020019080838360005b838110156131b457818101518382015260200161319c565b50505050905090810190601f1680156131e15780820380516001836020036101000a031916815260200191505b509250505060405180910390fd5b505050900390565b600080613220620151806120bd856040015165ffffffffffff164261358190919063ffffffff16565b905060006132316201518083613581565b905061327e620151806113fc6132638588602001516cffffffffffffffffffffffffff1661347d90919063ffffffff16565b8751612167906cffffffffffffffffffffffffff168661347d565b949350505050565b60008282018381101561114c576040805162461bcd60e51b815260206004820152601b60248201527f536166654d6174683a206164646974696f6e206f766572666c6f770000000000604482015290519081900360640190fd5b6001600160a01b0382166133255760405162461bcd60e51b8152600401808060200182810382526021815260200180614c796021913960400191505060405180910390fd5b613331826000836141a7565b61336e81604051806060016040528060228152602001614ba0602291396001600160a01b0385166000908152602081905260409020549190613160565b6001600160a01b0383166000908152602081905260409020556002546133949082613581565b6002556040805182815290516000916001600160a01b038516917fddf252ad1be2c89b69c2b068fc378daa952ba7f163c4a11628f55a4df523b3ef9181900360200190a35050565b60006133e783613702565b156133fd57506001600160a01b03811631610fba565b826001600160a01b03166370a08231836040518263ffffffff1660e01b815260040180826001600160a01b0316815260200191505060206040518083038186803b15801561344a57600080fd5b505afa15801561345e573d6000803e3d6000fd5b505050506040513d602081101561347457600080fd5b50519050610fba565b60008261348c57506000610fba565b8282028284828161349957fe5b041461114c5760405162461bcd60e51b8152600401808060200182810382526021815260200180614c306021913960400191505060405180910390fd5b600061114c83836040518060400160405280601a81526020017f536166654d6174683a206469766973696f6e206279207a65726f000000000000815250614336565b801561357c5761352783613702565b15613568576040516001600160a01b0383169082156108fc029083906000818181858888f19350505050158015613562573d6000803e3d6000fd5b5061357c565b61357c6001600160a01b038416838361439b565b505050565b600061114c83836040518060400160405280601e81526020017f536166654d6174683a207375627472616374696f6e206f766572666c6f770000815250613160565b61364c85613647836113fc6135d9826001613581565b604080518082019091528b547affffffffffffffffffffffffffffffffffffffffffffffffffffff811682527b01000000000000000000000000000000000000000000000000000000900464ffffffffff166020820152612167908990613641908d8d6138f7565b9061347d565b61441b565b5050505050565b61365b614b01565b5060408051602081019091526000815290565b8251600090156136a2575082517fffffffffffffffffffffffffffffffffffffffffffffffffffffffffffffffff0161114c565b82826040518163ffffffff1660e01b815260040160206040518083038186803b1580156136ce57600080fd5b505afa1580156136e2573d6000803e3d6000fd5b505050506040513d60208110156136f857600080fd5b5051949350505050565b6001600160a01b03161590565b6001600160a01b03821661376a576040805162461bcd60e51b815260206004820152601f60248201527f45524332303a206d696e7420746f20746865207a65726f206164647265737300604482015290519081900360640190fd5b613776600083836141a7565b6002546137839082613286565b6002556001600160a01b0382166000908152602081905260409020546137a99082613286565b6001600160a01b0383166000818152602081815260408083209490945583518581529351929391927fddf252ad1be2c89b69c2b068fc378daa952ba7f163c4a11628f55a4df523b3ef9281900390910190a35050565b60008183101561380f578161114c565b5090919050565b80156138e25761382584613702565b156138cd578034101561387f576040805162461bcd60e51b815260206004820152601a60248201527f556e6945524332303a206e6f7420656e6f7567682076616c7565000000000000604482015290519081900360640190fd5b803411156138c8576001600160a01b0383166108fc61389e3484613581565b6040518115909202916000818181858888f193505050501580156138c6573d6000803e3d6000fd5b505b6138e2565b6138e26001600160a01b03851684848461448b565b50505050565b600081831061380f578161114c565b60008061391c846120bd876020015164ffffffffff164261358190919063ffffffff16565b9050600061392a8583613581565b9050612583856113fc61393d878661347d565b8951612167907affffffffffffffffffffffffffffffffffffffffffffffffffffff168661347d565b600080613971614ae7565b600061397b61156c565b86516001600160a01b038d166000908152601560209081526040918290208251808401909352547affffffffffffffffffffffffffffffffffffffffffffffffffffff811683527b01000000000000000000000000000000000000000000000000000000900464ffffffffff16908201529192506139fb919083906138f7565b8083528651613a0a91906137ff565b82526020868101516001600160a01b038c166000908152601683526040908190208151808301909252547affffffffffffffffffffffffffffffffffffffffffffffffffffff811682527b01000000000000000000000000000000000000000000000000000000900464ffffffffff1692810192909252613a8d919083906138f7565b6020808401829052870151613aa291906138e8565b6020830152613abc6001600160a01b038c1633308c613816565b8551613ad59061203b6001600160a01b038e16306133dc565b9350613af68b8b86856000015186602001518a600001518b60200151612ec4565b9250600083118015613b085750878310155b613b59576040805162461bcd60e51b815260206004820152601f60248201527f4d6f6f6e69737761703a2072657475726e206973206e6f7420656e6f75676800604482015290519081900360640190fd5b613b6d6001600160a01b038b168885613518565b8551825114613ba4578151613ba490613b869086613286565b6001600160a01b038d1660009081526015602052604090209061441b565b8560200151826020015114613be4576020820151613be490613bc69085613581565b6001600160a01b038c1660009081526016602052604090209061441b565b85516001600160a01b038c166000908152601660205260409020613c09918390614513565b6020808701516001600160a01b038c16600090815260159092526040909120613c33918390614513565b509750975097945050505050565b6000806000807f00000000000000000000000000000000000000000000000000000000000000006001600160a01b031663890357306040518163ffffffff1660e01b815260040160806040518083038186803b158015613ca057600080fd5b505afa158015613cb4573d6000803e3d6000fd5b505050506040513d6080811015613cca57600080fd5b5080516020820151604083015160609093015189519297509095509193509091506ec097ce7bc90715b34b9f100000000090613d14906113fc613d0d828e613286565b849061347d565b6020880151909150613d2d906113fc613d0d828d613581565b90506ec097ce7bc90715b34b9f1000000000811115613e7357613d4f8161457b565b90506000613d74826113fc613d6c82670de0b6b3a7640000613581565b613641611114565b90506001600160a01b03891615613e3a57613d9b670de0b6b3a76400006113fc838961347d565b95508515613e3a576001600160a01b03831615613e3057613dbc838761370f565b826001600160a01b0316631a3991258a886040518363ffffffff1660e01b815260040180836001600160a01b0316815260200182815260200192505050600060405180830381600087803b158015613e1357600080fd5b505af1158015613e27573d6000803e3d6000fd5b50505050613e3a565b613e3a898761370f565b6001600160a01b03841615613e7157613e5f670de0b6b3a76400006113fc838861347d565b94508415613e7157613e71848661370f565b505b865160208089015188518983015160408051958652938501929092528383015260608301526080820187905260a08201869052517f2a368c7f33bb86e2d999940a3989d849031aff29b750f67947e6b8e8c3d2ffd69181900360c00190a150505050505050505050565b60408051848152831515602082015280820183905290516001600160a01b038616917fd0784d105a7412ffec29813ff8401f04f3d1cdbe6aca756974b1a31f830e5cb7919081900360600190a250505050565b600189015460028a0154819080613f45614b14565b50604080516060810182528e546cffffffffffffffffffffffffff80821683526d010000000000000000000000000082041660208301527a010000000000000000000000000000000000000000000000000000900465ffffffffffff1691810191909152613fb28c6145d5565b15613fc857613fc1828b613581565b9150613fe9565b613fe6613fdf613fd88e8a6145da565b8c9061347d565b8590613581565b93505b613ff28b6145d5565b1561400857614001828a613286565b9150614029565b61402661401f6140188d8a6145da565b8b9061347d565b8590613286565b93505b8484146140385760018e018490555b8282146140475760028e018290555b6000881561406c57614067896113fc614060868c61347d565b8890613286565b61406e565b875b905081602001516cffffffffffffffffffffffffff16811461414857614093826131f7565b8f547fffffffffffffffffffffffffffffffffffffff00000000000000000000000000166cffffffffffffffffffffffffff918216177fffffffffffff00000000000000000000000000ffffffffffffffffffffffffff166d0100000000000000000000000000918316919091021779ffffffffffffffffffffffffffffffffffffffffffffffffffff167a0100000000000000000000000000000000000000000000000000004265ffffffffffff1602178f555b506141538b8d614614565b614176576001600160a01b038d16600090815260038f01602052604090208b5190555b6141978d6141848d8a6145da565b61418d8e6145d5565b8c8a63ffffffff16565b5050505050505050505050505050565b60006001600160a01b0384166141be5760006141c7565b6141c78461177b565b905060006001600160a01b0385166141e05760006141e9565b6141e98461177b565b9050600061422b6001600160a01b03861615614206576000614208565b845b61203b6001600160a01b03891615614221576000614223565b865b612167611114565b9050614235614b34565b6040518060c00160405280886001600160a01b03168152602001876001600160a01b031681526020018681526020018581526020018481526020018381525090506142b3817f00000000000000000000000000000000000000000000000000000000000000006001600160a01b0316635a6c72d0612e71600761461b565b6142f0817f00000000000000000000000000000000000000000000000000000000000000006001600160a01b03166323662bb9612d13600b61461b565b61432d817f00000000000000000000000000000000000000000000000000000000000000006001600160a01b0316631845f0db613edd600f61461b565b50505050505050565b600081836143855760405162461bcd60e51b81526020600482018181528351602484015283519092839260449091019190850190808383600083156131b457818101518382015260200161319c565b50600083858161439157fe5b0495945050505050565b604080516001600160a01b038416602482015260448082018490528251808303909101815260649091019091526020810180517bffffffffffffffffffffffffffffffffffffffffffffffffffffffff167fa9059cbb0000000000000000000000000000000000000000000000000000000017905261357c908490614826565b81547fffffffffff000000000000000000000000000000000000000000000000000000167affffffffffffffffffffffffffffffffffffffffffffffffffffff91821617167b010000000000000000000000000000000000000000000000000000004264ffffffffff1602179055565b604080516001600160a01b0380861660248301528416604482015260648082018490528251808303909101815260849091019091526020810180517bffffffffffffffffffffffffffffffffffffffffffffffffffffffff167f23b872dd000000000000000000000000000000000000000000000000000000001790526138e2908590614826565b6040805180820190915283547affffffffffffffffffffffffffffffffffffffffffffffffffffff811682527b01000000000000000000000000000000000000000000000000000000900464ffffffffff16602082015261357c9084906136479085856138f7565b600060038211156145bf5781600160028204015b818110156145b7578091506002818286816145a657fe5b0401816145af57fe5b04905061458f565b509050611687565b81156145cd57506001611687565b506000611687565b511590565b81516000901561460e575081517fffffffffffffffffffffffffffffffffffffffffffffffffffffffffffffffff01610fba565b50919050565b5190511490565b614623614b01565b5084516001600160a01b03166000908152600382016020908152604091829020825191820190925290548152614657614b01565b506020808701516001600160a01b031660009081526003840182526040808220815180850183529054815281517fffffffff0000000000000000000000000000000000000000000000000000000060e08a901b168152915190938992899260048083019392829003018186803b1580156146d057600080fd5b505afa1580156146e4573d6000803e3d6000fd5b505050506040513d60208110156146fa57600080fd5b50519050614707836145d5565b80156147175750614717826145d5565b801561472c575087516001600160a01b031615155b8015614744575060208801516001600160a01b031615155b156147b257875161477e9061475985846145da565b614762866145d5565b60408c015160608d015161477591613581565b8963ffffffff16565b87516147aa9061478e84846145da565b614797866145d5565b60408c015160808d015161477591613286565b50505061364c565b87516001600160a01b0316156147f2578751606089015160408a01516147f2929186916147e0908290613581565b60a08d0151899493929190878c6148d7565b60208801516001600160a01b031615612d77576020880151608089015160408a0151612d77929185916147e0908290613286565b606061487b826040518060400160405280602081526020017f5361666545524332303a206c6f772d6c6576656c2063616c6c206661696c6564815250856001600160a01b03166148fb9092919063ffffffff16565b80519091501561357c5780806020019051602081101561489a57600080fd5b505161357c5760405162461bcd60e51b815260040180806020018281038252602a815260200180614ce3602a913960400191505060405180910390fd5b612d7788888887156148e957896148f1565b6148f1613653565b8989898989613f30565b60606111498484600085606061491085614a90565b614961576040805162461bcd60e51b815260206004820152601d60248201527f416464726573733a2063616c6c20746f206e6f6e2d636f6e7472616374000000604482015290519081900360640190fd5b60006060866001600160a01b031685876040518082805190602001908083835b602083106149be57805182527fffffffffffffffffffffffffffffffffffffffffffffffffffffffffffffffe09092019160209182019101614981565b6001836020036101000a03801982511681845116808217855250505050505090500191505060006040518083038185875af1925050503d8060008114614a20576040519150601f19603f3d011682016040523d82523d6000602084013e614a25565b606091505b50915091508115614a3957915061327e9050565b805115614a495780518082602001fd5b60405162461bcd60e51b81526020600482018181528651602484015286518793919283926044019190850190808383600083156131b457818101518382015260200161319c565b6000813f7fc5d2460186f7233c927e7db2dcc703c0e500b653ca82273b7bfad8045d85a47081811480159061327e575050151592915050565b60405180604001604052806002906020820280368337509192915050565b604051806040016040528060008152602001600081525090565b6040518060200160405280600081525090565b604080516060810182526000808252602082018190529181019190915290565b6040518060c0016040528060006001600160a01b0316815260200160006001600160a01b0316815260200160008152602001600081526020016000815260200160008152509056fe45524332303a207472616e7366657220746f20746865207a65726f206164647265737345524332303a206275726e20616d6f756e7420657863656564732062616c616e63654f776e61626c653a206e6577206f776e657220697320746865207a65726f206164647265737345524332303a20617070726f766520746f20746865207a65726f206164647265737345524332303a207472616e7366657220616d6f756e7420657863656564732062616c616e6365536166654d6174683a206d756c7469706c69636174696f6e206f766572666c6f7745524332303a207472616e7366657220616d6f756e74206578636565647320616c6c6f77616e636545524332303a206275726e2066726f6d20746865207a65726f206164647265737345524332303a207472616e736665722066726f6d20746865207a65726f206164647265737345524332303a20617070726f76652066726f6d20746865207a65726f20616464726573735361666545524332303a204552433230206f7065726174696f6e20646964206e6f74207375636365656445524332303a2064656372656173656420616c6c6f77616e63652062656c6f77207a65726fa2646970667358221220eaae24145063f0b989aa18198db7b77a3f77f9c10d60f6f7061ac1f61327dc0264736f6c634300060c0033",
  "immutableReferences": {
    "162": [
      {
        "length": 32,
        "start": 4034
      },
      {
        "length": 32,
        "start": 4936
      },
      {
        "length": 32,
        "start": 5606
      },
      {
        "length": 32,
        "start": 6456
      },
      {
        "length": 32,
        "start": 6585
      },
      {
        "length": 32,
        "start": 7535
      },
      {
        "length": 32,
        "start": 9334
      },
      {
        "length": 32,
        "start": 12017
      }
    ],
    "164": [
      {
        "length": 32,
        "start": 4973
      },
      {
        "length": 32,
        "start": 5654
      },
      {
        "length": 32,
        "start": 6511
      },
      {
        "length": 32,
        "start": 6720
      },
      {
        "length": 32,
        "start": 7572
      },
      {
        "length": 32,
        "start": 9412
      },
      {
        "length": 32,
        "start": 9553
      },
      {
        "length": 32,
        "start": 12078
      }
    ],
    "4177": [
      {
        "length": 32,
        "start": 3852
      },
      {
        "length": 32,
        "start": 4225
      },
      {
        "length": 32,
        "start": 6995
      },
      {
        "length": 32,
        "start": 7144
      },
      {
        "length": 32,
        "start": 7361
      },
      {
        "length": 32,
        "start": 9777
      },
      {
        "length": 32,
        "start": 11026
      },
      {
        "length": 32,
        "start": 15433
      },
      {
        "length": 32,
        "start": 17020
      },
      {
        "length": 32,
        "start": 17081
      },
      {
        "length": 32,
        "start": 17142
      }
    ]
  },
  "source": "// SPDX-License-Identifier: MIT\n\npragma solidity ^0.6.0;\n\nimport \"@openzeppelin/contracts/access/Ownable.sol\";\nimport \"@openzeppelin/contracts/math/Math.sol\";\nimport \"@openzeppelin/contracts/math/SafeMath.sol\";\nimport \"@openzeppelin/contracts/token/ERC20/ERC20.sol\";\nimport \"./interfaces/IReferralFeeReceiver.sol\";\nimport \"./libraries/UniERC20.sol\";\nimport \"./libraries/Sqrt.sol\";\nimport \"./libraries/VirtualBalance.sol\";\nimport \"./governance/MooniswapGovernance.sol\";\n\n\ncontract Mooniswap is MooniswapGovernance, Ownable {\n    using Sqrt for uint256;\n    using SafeMath for uint256;\n    using UniERC20 for IERC20;\n    using VirtualBalance for VirtualBalance.Data;\n\n    struct Balances {\n        uint256 src;\n        uint256 dst;\n    }\n\n    struct SwapVolumes {\n        uint128 confirmed;\n        uint128 result;\n    }\n\n    struct Fees {\n        uint256 fee;\n        uint256 slippageFee;\n    }\n\n    event Deposited(\n        address indexed sender,\n        address indexed receiver,\n        uint256 share,\n        uint256 token0Amount,\n        uint256 token1Amount\n    );\n\n    event Withdrawn(\n        address indexed sender,\n        address indexed receiver,\n        uint256 share,\n        uint256 token0Amount,\n        uint256 token1Amount\n    );\n\n    event Swapped(\n        address indexed sender,\n        address indexed receiver,\n        address indexed srcToken,\n        address dstToken,\n        uint256 amount,\n        uint256 result,\n        uint256 srcAdditionBalance,\n        uint256 dstRemovalBalance,\n        address referral\n    );\n\n    event Sync(\n        uint256 srcBalance,\n        uint256 dstBalance,\n        uint256 fee,\n        uint256 slippageFee,\n        uint256 referralShare,\n        uint256 governanceShare\n    );\n\n    uint256 private constant _BASE_SUPPLY = 1000;  // Total supply on first deposit\n\n    IERC20 public immutable token0;\n    IERC20 public immutable token1;\n    mapping(IERC20 => SwapVolumes) public volumes;\n    mapping(IERC20 => VirtualBalance.Data) public virtualBalancesForAddition;\n    mapping(IERC20 => VirtualBalance.Data) public virtualBalancesForRemoval;\n\n    constructor(\n        IERC20 _token0,\n        IERC20 _token1,\n        string memory name,\n        string memory symbol,\n        IMooniswapFactoryGovernance _mooniswapFactoryGovernance\n    )\n        public\n        ERC20(name, symbol)\n        MooniswapGovernance(_mooniswapFactoryGovernance)\n    {\n        require(bytes(name).length > 0, \"Mooniswap: name is empty\");\n        require(bytes(symbol).length > 0, \"Mooniswap: symbol is empty\");\n        require(_token0 != _token1, \"Mooniswap: duplicate tokens\");\n        token0 = _token0;\n        token1 = _token1;\n    }\n\n    function getTokens() external view returns(IERC20[] memory tokens) {\n        tokens = new IERC20[](2);\n        tokens[0] = token0;\n        tokens[1] = token1;\n    }\n\n    function tokens(uint256 i) external view returns(IERC20) {\n        if (i == 0) {\n            return token0;\n        } else if (i == 1) {\n            return token1;\n        } else {\n            revert(\"Pool has two tokens\");\n        }\n    }\n\n    function getBalanceForAddition(IERC20 token) public view returns(uint256) {\n        uint256 balance = token.uniBalanceOf(address(this));\n        return Math.max(virtualBalancesForAddition[token].current(decayPeriod(), balance), balance);\n    }\n\n    function getBalanceForRemoval(IERC20 token) public view returns(uint256) {\n        uint256 balance = token.uniBalanceOf(address(this));\n        return Math.min(virtualBalancesForRemoval[token].current(decayPeriod(), balance), balance);\n    }\n\n    function getReturn(IERC20 src, IERC20 dst, uint256 amount) external view returns(uint256) {\n        return _getReturn(src, dst, amount, getBalanceForAddition(src), getBalanceForRemoval(dst), fee(), slippageFee());\n    }\n\n    function deposit(uint256[2] memory maxAmounts, uint256[2] memory minAmounts) external payable returns(uint256 fairSupply, uint256[2] memory receivedAmounts) {\n        return depositFor(maxAmounts, minAmounts, msg.sender);\n    }\n\n    function depositFor(uint256[2] memory maxAmounts, uint256[2] memory minAmounts, address target) public payable nonReentrant returns(uint256 fairSupply, uint256[2] memory receivedAmounts) {\n        IERC20[2] memory _tokens = [token0, token1];\n        require(msg.value == (_tokens[0].isETH() ? maxAmounts[0] : (_tokens[1].isETH() ? maxAmounts[1] : 0)), \"Mooniswap: wrong value usage\");\n\n        uint256 totalSupply = totalSupply();\n\n        if (totalSupply == 0) {\n            fairSupply = _BASE_SUPPLY.mul(99);\n            _mint(address(this), _BASE_SUPPLY); // Donate up to 1%\n\n            for (uint i = 0; i < maxAmounts.length; i++) {\n                fairSupply = Math.max(fairSupply, maxAmounts[i]);\n\n                require(maxAmounts[i] > 0, \"Mooniswap: amount is zero\");\n                require(maxAmounts[i] >= minAmounts[i], \"Mooniswap: minAmount not reached\");\n\n                _tokens[i].uniTransferFrom(msg.sender, address(this), maxAmounts[i]);\n                receivedAmounts[i] = maxAmounts[i];\n            }\n        }\n        else {\n            uint256[2] memory realBalances;\n            for (uint i = 0; i < realBalances.length; i++) {\n                realBalances[i] = _tokens[i].uniBalanceOf(address(this)).sub(_tokens[i].isETH() ? msg.value : 0);\n            }\n\n            // Pre-compute fair supply\n            fairSupply = type(uint256).max;\n            for (uint i = 0; i < maxAmounts.length; i++) {\n                fairSupply = Math.min(fairSupply, totalSupply.mul(maxAmounts[i]).div(realBalances[i]));\n            }\n\n            uint256 fairSupplyCached = fairSupply;\n\n            for (uint i = 0; i < maxAmounts.length; i++) {\n                require(maxAmounts[i] > 0, \"Mooniswap: amount is zero\");\n                uint256 amount = realBalances[i].mul(fairSupplyCached).add(totalSupply - 1).div(totalSupply);\n                require(amount >= minAmounts[i], \"Mooniswap: minAmount not reached\");\n\n                _tokens[i].uniTransferFrom(msg.sender, address(this), amount);\n                receivedAmounts[i] = _tokens[i].uniBalanceOf(address(this)).sub(realBalances[i]);\n                fairSupply = Math.min(fairSupply, totalSupply.mul(receivedAmounts[i]).div(realBalances[i]));\n            }\n\n            uint256 _decayPeriod = decayPeriod();  // gas savings\n            for (uint i = 0; i < maxAmounts.length; i++) {\n                virtualBalancesForRemoval[_tokens[i]].scale(_decayPeriod, realBalances[i], totalSupply.add(fairSupply), totalSupply);\n                virtualBalancesForAddition[_tokens[i]].scale(_decayPeriod, realBalances[i], totalSupply.add(fairSupply), totalSupply);\n            }\n        }\n\n        require(fairSupply > 0, \"Mooniswap: result is not enough\");\n        _mint(target, fairSupply);\n\n        emit Deposited(msg.sender, target, fairSupply, receivedAmounts[0], receivedAmounts[1]);\n    }\n\n    function withdraw(uint256 amount, uint256[] memory minReturns) external returns(uint256[2] memory withdrawnAmounts) {\n        return withdrawFor(amount, minReturns, msg.sender);\n    }\n\n    function withdrawFor(uint256 amount, uint256[] memory minReturns, address payable target) public nonReentrant returns(uint256[2] memory withdrawnAmounts) {\n        IERC20[2] memory _tokens = [token0, token1];\n\n        uint256 totalSupply = totalSupply();\n        uint256 _decayPeriod = decayPeriod();  // gas savings\n        _burn(msg.sender, amount);\n\n        for (uint i = 0; i < _tokens.length; i++) {\n            IERC20 token = _tokens[i];\n\n            uint256 preBalance = token.uniBalanceOf(address(this));\n            uint256 value = preBalance.mul(amount).div(totalSupply);\n            token.uniTransfer(target, value);\n            withdrawnAmounts[i] = value;\n            require(i >= minReturns.length || value >= minReturns[i], \"Mooniswap: result is not enough\");\n\n            virtualBalancesForAddition[token].scale(_decayPeriod, preBalance, totalSupply.sub(amount), totalSupply);\n            virtualBalancesForRemoval[token].scale(_decayPeriod, preBalance, totalSupply.sub(amount), totalSupply);\n        }\n\n        emit Withdrawn(msg.sender, target, amount, withdrawnAmounts[0], withdrawnAmounts[1]);\n    }\n\n    function swap(IERC20 src, IERC20 dst, uint256 amount, uint256 minReturn, address referral) external payable returns(uint256 result) {\n        return swapFor(src, dst, amount, minReturn, referral, msg.sender);\n    }\n\n    function swapFor(IERC20 src, IERC20 dst, uint256 amount, uint256 minReturn, address referral, address payable receiver) public payable nonReentrant returns(uint256 result) {\n        require(msg.value == (src.isETH() ? amount : 0), \"Mooniswap: wrong value usage\");\n\n        Balances memory balances = Balances({\n            src: src.uniBalanceOf(address(this)).sub(src.isETH() ? msg.value : 0),\n            dst: dst.uniBalanceOf(address(this))\n        });\n        uint256 confirmed;\n        Balances memory virtualBalances;\n        Fees memory fees = Fees({\n            fee: fee(),\n            slippageFee: slippageFee()\n        });\n        (confirmed, result, virtualBalances) = _doTransfers(src, dst, amount, minReturn, receiver, balances, fees);\n        _mintRewards(confirmed, result, referral, balances, fees);\n        emit Swapped(msg.sender, receiver, address(src), address(dst), confirmed, result, virtualBalances.src, virtualBalances.dst, referral);\n\n        // Overflow of uint128 is desired\n        volumes[src].confirmed += uint128(confirmed);\n        volumes[src].result += uint128(result);\n    }\n\n    function _doTransfers(IERC20 src, IERC20 dst, uint256 amount, uint256 minReturn, address payable receiver, Balances memory balances, Fees memory fees)\n        private returns(uint256 confirmed, uint256 result, Balances memory virtualBalances)\n    {\n        uint256 _decayPeriod = decayPeriod();\n        virtualBalances.src = virtualBalancesForAddition[src].current(_decayPeriod, balances.src);\n        virtualBalances.src = Math.max(virtualBalances.src, balances.src);\n        virtualBalances.dst = virtualBalancesForRemoval[dst].current(_decayPeriod, balances.dst);\n        virtualBalances.dst = Math.min(virtualBalances.dst, balances.dst);\n        src.uniTransferFrom(msg.sender, address(this), amount);\n        confirmed = src.uniBalanceOf(address(this)).sub(balances.src);\n        result = _getReturn(src, dst, confirmed, virtualBalances.src, virtualBalances.dst, fees.fee, fees.slippageFee);\n        require(result > 0 && result >= minReturn, \"Mooniswap: return is not enough\");\n        dst.uniTransfer(receiver, result);\n\n        // Update virtual balances to the same direction only at imbalanced state\n        if (virtualBalances.src != balances.src) {\n            virtualBalancesForAddition[src].set(virtualBalances.src.add(confirmed));\n        }\n        if (virtualBalances.dst != balances.dst) {\n            virtualBalancesForRemoval[dst].set(virtualBalances.dst.sub(result));\n        }\n        // Update virtual balances to the opposite direction\n        virtualBalancesForRemoval[src].update(_decayPeriod, balances.src);\n        virtualBalancesForAddition[dst].update(_decayPeriod, balances.dst);\n    }\n\n    function _mintRewards(uint256 confirmed, uint256 result, address referral, Balances memory balances, Fees memory fees) private {\n        (uint256 referralShare, uint256 governanceShare, address governanceFeeReceiver, address referralFeeReceiver) = mooniswapFactoryGovernance.parameters();\n\n        uint256 invariantRatio = uint256(1e36);\n        invariantRatio = invariantRatio.mul(balances.src.add(confirmed)).div(balances.src);\n        invariantRatio = invariantRatio.mul(balances.dst.sub(result)).div(balances.dst);\n        if (invariantRatio > 1e36) {\n            // calculate share only if invariant increased\n            invariantRatio = invariantRatio.sqrt();\n            uint256 invIncrease = totalSupply().mul(invariantRatio.sub(1e18)).div(invariantRatio);\n\n            if (referral != address(0)) {\n                referralShare = invIncrease.mul(referralShare).div(_FEE_DENOMINATOR);\n                if (referralShare > 0) {\n                    if (referralFeeReceiver != address(0)) {\n                        _mint(referralFeeReceiver, referralShare);\n                        IReferralFeeReceiver(referralFeeReceiver).updateReward(referral, referralShare);\n                    } else {\n                        _mint(referral, referralShare);\n                    }\n                }\n            }\n\n            if (governanceFeeReceiver != address(0)) {\n                governanceShare = invIncrease.mul(governanceShare).div(_FEE_DENOMINATOR);\n                if (governanceShare > 0) {\n                    _mint(governanceFeeReceiver, governanceShare);\n                }\n            }\n        }\n\n        emit Sync(balances.src, balances.dst, fees.fee, fees.slippageFee, referralShare, governanceShare);\n    }\n\n    /*\n        spot_ret = dx * y / x\n        uni_ret = dx * y / (x + dx)\n        slippage = (spot_ret - uni_ret) / spot_ret\n        slippage = dx * dx * y / (x * (x + dx)) / (dx * y / x)\n        slippage = dx / (x + dx)\n        ret = uni_ret * (1 - fee_percentage * slippage)\n        ret = dx * y / (x + dx) * (1 - slip_fee * dx / (x + dx))\n        ret = dx * y / (x + dx) * (x + dx - slip_fee * dx) / (x + dx)\n\n        x = amount * denominator\n        dx = amount * (denominator - fee)\n    */\n    function _getReturn(IERC20 src, IERC20 dst, uint256 amount, uint256 srcBalance, uint256 dstBalance, uint256 fee, uint256 slippageFee) internal view returns(uint256) {\n        if (src > dst) {\n            (src, dst) = (dst, src);\n        }\n        if (amount > 0 && src == token0 && dst == token1) {\n            uint256 taxedAmount = amount.sub(amount.mul(fee).div(_FEE_DENOMINATOR));\n            uint256 taxedSrcBalance = srcBalance.add(taxedAmount);\n            uint256 ret = taxedAmount.mul(dstBalance).div(taxedSrcBalance);\n            uint256 feeNumerator = _FEE_DENOMINATOR.mul(taxedSrcBalance).sub(slippageFee.mul(taxedAmount));\n            uint256 feeDenominator = _FEE_DENOMINATOR.mul(taxedSrcBalance);\n            return ret.mul(feeNumerator).div(feeDenominator);\n        }\n    }\n\n    function rescueFunds(IERC20 token, uint256 amount) external nonReentrant onlyOwner {\n        uint256 balance0 = token0.uniBalanceOf(address(this));\n        uint256 balance1 = token1.uniBalanceOf(address(this));\n\n        token.uniTransfer(msg.sender, amount);\n\n        require(token0.uniBalanceOf(address(this)) >= balance0, \"Mooniswap: access denied\");\n        require(token1.uniBalanceOf(address(this)) >= balance1, \"Mooniswap: access denied\");\n        require(balanceOf(address(this)) >= _BASE_SUPPLY, \"Mooniswap: access denied\");\n    }\n}\n",
  "sourcePath": "/Users/zumzoom/Projects/1inch/mooniswap-v2/contracts/Mooniswap.sol",
  "compiler": {
    "name": "solc",
    "version": "0.6.12+commit.27d51765.Emscripten.clang"
  },
  "schemaVersion": "3.3.2",
  "updatedAt": "2020-12-07T09:34:53.690Z",
  "devdoc": {
    "kind": "dev",
    "methods": {
      "allowance(address,address)": {
        "details": "See {IERC20-allowance}."
      },
      "approve(address,uint256)": {
        "details": "See {IERC20-approve}. Requirements: - `spender` cannot be the zero address."
      },
      "balanceOf(address)": {
        "details": "See {IERC20-balanceOf}."
      },
      "decimals()": {
        "details": "Returns the number of decimals used to get its user representation. For example, if `decimals` equals `2`, a balance of `505` tokens should be displayed to a user as `5,05` (`505 / 10 ** 2`). Tokens usually opt for a value of 18, imitating the relationship between Ether and Wei. This is the value {ERC20} uses, unless {_setupDecimals} is called. NOTE: This information is only used for _display_ purposes: it in no way affects any of the arithmetic of the contract, including {IERC20-balanceOf} and {IERC20-transfer}."
      },
      "decreaseAllowance(address,uint256)": {
        "details": "Atomically decreases the allowance granted to `spender` by the caller. This is an alternative to {approve} that can be used as a mitigation for problems described in {IERC20-approve}. Emits an {Approval} event indicating the updated allowance. Requirements: - `spender` cannot be the zero address. - `spender` must have allowance for the caller of at least `subtractedValue`."
      },
      "increaseAllowance(address,uint256)": {
        "details": "Atomically increases the allowance granted to `spender` by the caller. This is an alternative to {approve} that can be used as a mitigation for problems described in {IERC20-approve}. Emits an {Approval} event indicating the updated allowance. Requirements: - `spender` cannot be the zero address."
      },
      "name()": {
        "details": "Returns the name of the token."
      },
      "owner()": {
        "details": "Returns the address of the current owner."
      },
      "renounceOwnership()": {
        "details": "Leaves the contract without owner. It will not be possible to call `onlyOwner` functions anymore. Can only be called by the current owner. NOTE: Renouncing ownership will leave the contract without an owner, thereby removing any functionality that is only available to the owner."
      },
      "symbol()": {
        "details": "Returns the symbol of the token, usually a shorter version of the name."
      },
      "totalSupply()": {
        "details": "See {IERC20-totalSupply}."
      },
      "transfer(address,uint256)": {
        "details": "See {IERC20-transfer}. Requirements: - `recipient` cannot be the zero address. - the caller must have a balance of at least `amount`."
      },
      "transferFrom(address,address,uint256)": {
        "details": "See {IERC20-transferFrom}. Emits an {Approval} event indicating the updated allowance. This is not required by the EIP. See the note at the beginning of {ERC20}; Requirements: - `sender` and `recipient` cannot be the zero address. - `sender` must have a balance of at least `amount`. - the caller must have allowance for ``sender``'s tokens of at least `amount`."
      },
      "transferOwnership(address)": {
        "details": "Transfers ownership of the contract to a new account (`newOwner`). Can only be called by the current owner."
      }
    },
    "version": 1
  },
  "userdoc": {
    "kind": "user",
    "methods": {},
    "version": 1
  }
}