{
  "contractName": "Mooniswap",
  "abi": [
    {
      "inputs": [
        {
          "internalType": "contract IERC20",
          "name": "_token0",
          "type": "address"
        },
        {
          "internalType": "contract IERC20",
          "name": "_token1",
          "type": "address"
        },
        {
          "internalType": "string",
          "name": "name",
          "type": "string"
        },
        {
          "internalType": "string",
          "name": "symbol",
          "type": "string"
        },
        {
          "internalType": "contract IMooniswapFactoryGovernance",
          "name": "_mooniswapFactoryGovernance",
          "type": "address"
        }
      ],
      "stateMutability": "nonpayable",
      "type": "constructor"
    },
    {
      "anonymous": false,
      "inputs": [
        {
          "indexed": true,
          "internalType": "address",
          "name": "owner",
          "type": "address"
        },
        {
          "indexed": true,
          "internalType": "address",
          "name": "spender",
          "type": "address"
        },
        {
          "indexed": false,
          "internalType": "uint256",
          "name": "value",
          "type": "uint256"
        }
      ],
      "name": "Approval",
      "type": "event"
    },
    {
      "anonymous": false,
      "inputs": [
        {
          "indexed": true,
          "internalType": "address",
          "name": "user",
          "type": "address"
        },
        {
          "indexed": false,
          "internalType": "uint256",
          "name": "decayPeriod",
          "type": "uint256"
        },
        {
          "indexed": false,
          "internalType": "bool",
          "name": "isDefault",
          "type": "bool"
        },
        {
          "indexed": false,
          "internalType": "uint256",
          "name": "amount",
          "type": "uint256"
        }
      ],
      "name": "DecayPeriodVoteUpdate",
      "type": "event"
    },
    {
      "anonymous": false,
      "inputs": [
        {
          "indexed": true,
          "internalType": "address",
          "name": "sender",
          "type": "address"
        },
        {
          "indexed": true,
          "internalType": "address",
          "name": "receiver",
          "type": "address"
        },
        {
          "indexed": false,
          "internalType": "uint256",
          "name": "share",
          "type": "uint256"
        },
        {
          "indexed": false,
          "internalType": "uint256",
          "name": "token0Amount",
          "type": "uint256"
        },
        {
          "indexed": false,
          "internalType": "uint256",
          "name": "token1Amount",
          "type": "uint256"
        }
      ],
      "name": "Deposited",
      "type": "event"
    },
    {
      "anonymous": false,
      "inputs": [
        {
          "indexed": false,
          "internalType": "string",
          "name": "reason",
          "type": "string"
        }
      ],
      "name": "Error",
      "type": "event"
    },
    {
      "anonymous": false,
      "inputs": [
        {
          "indexed": true,
          "internalType": "address",
          "name": "user",
          "type": "address"
        },
        {
          "indexed": false,
          "internalType": "uint256",
          "name": "fee",
          "type": "uint256"
        },
        {
          "indexed": false,
          "internalType": "bool",
          "name": "isDefault",
          "type": "bool"
        },
        {
          "indexed": false,
          "internalType": "uint256",
          "name": "amount",
          "type": "uint256"
        }
      ],
      "name": "FeeVoteUpdate",
      "type": "event"
    },
    {
      "anonymous": false,
      "inputs": [
        {
          "indexed": true,
          "internalType": "address",
          "name": "previousOwner",
          "type": "address"
        },
        {
          "indexed": true,
          "internalType": "address",
          "name": "newOwner",
          "type": "address"
        }
      ],
      "name": "OwnershipTransferred",
      "type": "event"
    },
    {
      "anonymous": false,
      "inputs": [
        {
          "indexed": true,
          "internalType": "address",
          "name": "user",
          "type": "address"
        },
        {
          "indexed": false,
          "internalType": "uint256",
          "name": "slippageFee",
          "type": "uint256"
        },
        {
          "indexed": false,
          "internalType": "bool",
          "name": "isDefault",
          "type": "bool"
        },
        {
          "indexed": false,
          "internalType": "uint256",
          "name": "amount",
          "type": "uint256"
        }
      ],
      "name": "SlippageFeeVoteUpdate",
      "type": "event"
    },
    {
      "anonymous": false,
      "inputs": [
        {
          "indexed": true,
          "internalType": "address",
          "name": "sender",
          "type": "address"
        },
        {
          "indexed": true,
          "internalType": "address",
          "name": "receiver",
          "type": "address"
        },
        {
          "indexed": true,
          "internalType": "address",
          "name": "srcToken",
          "type": "address"
        },
        {
          "indexed": false,
          "internalType": "address",
          "name": "dstToken",
          "type": "address"
        },
        {
          "indexed": false,
          "internalType": "uint256",
          "name": "amount",
          "type": "uint256"
        },
        {
          "indexed": false,
          "internalType": "uint256",
          "name": "result",
          "type": "uint256"
        },
        {
          "indexed": false,
          "internalType": "uint256",
          "name": "srcAdditionBalance",
          "type": "uint256"
        },
        {
          "indexed": false,
          "internalType": "uint256",
          "name": "dstRemovalBalance",
          "type": "uint256"
        },
        {
          "indexed": false,
          "internalType": "address",
          "name": "referral",
          "type": "address"
        }
      ],
      "name": "Swapped",
      "type": "event"
    },
    {
      "anonymous": false,
      "inputs": [
        {
          "indexed": false,
          "internalType": "uint256",
          "name": "srcBalance",
          "type": "uint256"
        },
        {
          "indexed": false,
          "internalType": "uint256",
          "name": "dstBalance",
          "type": "uint256"
        },
        {
          "indexed": false,
          "internalType": "uint256",
          "name": "fee",
          "type": "uint256"
        },
        {
          "indexed": false,
          "internalType": "uint256",
          "name": "slippageFee",
          "type": "uint256"
        },
        {
          "indexed": false,
          "internalType": "uint256",
          "name": "referralShare",
          "type": "uint256"
        },
        {
          "indexed": false,
          "internalType": "uint256",
          "name": "governanceShare",
          "type": "uint256"
        }
      ],
      "name": "Sync",
      "type": "event"
    },
    {
      "anonymous": false,
      "inputs": [
        {
          "indexed": true,
          "internalType": "address",
          "name": "from",
          "type": "address"
        },
        {
          "indexed": true,
          "internalType": "address",
          "name": "to",
          "type": "address"
        },
        {
          "indexed": false,
          "internalType": "uint256",
          "name": "value",
          "type": "uint256"
        }
      ],
      "name": "Transfer",
      "type": "event"
    },
    {
      "anonymous": false,
      "inputs": [
        {
          "indexed": true,
          "internalType": "address",
          "name": "sender",
          "type": "address"
        },
        {
          "indexed": true,
          "internalType": "address",
          "name": "receiver",
          "type": "address"
        },
        {
          "indexed": false,
          "internalType": "uint256",
          "name": "share",
          "type": "uint256"
        },
        {
          "indexed": false,
          "internalType": "uint256",
          "name": "token0Amount",
          "type": "uint256"
        },
        {
          "indexed": false,
          "internalType": "uint256",
          "name": "token1Amount",
          "type": "uint256"
        }
      ],
      "name": "Withdrawn",
      "type": "event"
    },
    {
      "inputs": [
        {
          "internalType": "address",
          "name": "owner",
          "type": "address"
        },
        {
          "internalType": "address",
          "name": "spender",
          "type": "address"
        }
      ],
      "name": "allowance",
      "outputs": [
        {
          "internalType": "uint256",
          "name": "",
          "type": "uint256"
        }
      ],
      "stateMutability": "view",
      "type": "function"
    },
    {
      "inputs": [
        {
          "internalType": "address",
          "name": "spender",
          "type": "address"
        },
        {
          "internalType": "uint256",
          "name": "amount",
          "type": "uint256"
        }
      ],
      "name": "approve",
      "outputs": [
        {
          "internalType": "bool",
          "name": "",
          "type": "bool"
        }
      ],
      "stateMutability": "nonpayable",
      "type": "function"
    },
    {
      "inputs": [
        {
          "internalType": "address",
          "name": "account",
          "type": "address"
        }
      ],
      "name": "balanceOf",
      "outputs": [
        {
          "internalType": "uint256",
          "name": "",
          "type": "uint256"
        }
      ],
      "stateMutability": "view",
      "type": "function"
    },
    {
      "inputs": [],
      "name": "decayPeriod",
      "outputs": [
        {
          "internalType": "uint256",
          "name": "",
          "type": "uint256"
        }
      ],
      "stateMutability": "view",
      "type": "function"
    },
    {
      "inputs": [
        {
          "internalType": "uint256",
          "name": "vote",
          "type": "uint256"
        }
      ],
      "name": "decayPeriodVote",
      "outputs": [],
      "stateMutability": "nonpayable",
      "type": "function"
    },
    {
      "inputs": [
        {
          "internalType": "address",
          "name": "user",
          "type": "address"
        }
      ],
      "name": "decayPeriodVotes",
      "outputs": [
        {
          "internalType": "uint256",
          "name": "",
          "type": "uint256"
        }
      ],
      "stateMutability": "view",
      "type": "function"
    },
    {
      "inputs": [],
      "name": "decimals",
      "outputs": [
        {
          "internalType": "uint8",
          "name": "",
          "type": "uint8"
        }
      ],
      "stateMutability": "view",
      "type": "function"
    },
    {
      "inputs": [
        {
          "internalType": "address",
          "name": "spender",
          "type": "address"
        },
        {
          "internalType": "uint256",
          "name": "subtractedValue",
          "type": "uint256"
        }
      ],
      "name": "decreaseAllowance",
      "outputs": [
        {
          "internalType": "bool",
          "name": "",
          "type": "bool"
        }
      ],
      "stateMutability": "nonpayable",
      "type": "function"
    },
    {
      "inputs": [],
      "name": "discardDecayPeriodVote",
      "outputs": [],
      "stateMutability": "nonpayable",
      "type": "function"
    },
    {
      "inputs": [],
      "name": "discardFeeVote",
      "outputs": [],
      "stateMutability": "nonpayable",
      "type": "function"
    },
    {
      "inputs": [],
      "name": "discardSlippageFeeVote",
      "outputs": [],
      "stateMutability": "nonpayable",
      "type": "function"
    },
    {
      "inputs": [],
      "name": "fee",
      "outputs": [
        {
          "internalType": "uint256",
          "name": "",
          "type": "uint256"
        }
      ],
      "stateMutability": "view",
      "type": "function"
    },
    {
      "inputs": [
        {
          "internalType": "uint256",
          "name": "vote",
          "type": "uint256"
        }
      ],
      "name": "feeVote",
      "outputs": [],
      "stateMutability": "nonpayable",
      "type": "function"
    },
    {
      "inputs": [
        {
          "internalType": "address",
          "name": "user",
          "type": "address"
        }
      ],
      "name": "feeVotes",
      "outputs": [
        {
          "internalType": "uint256",
          "name": "",
          "type": "uint256"
        }
      ],
      "stateMutability": "view",
      "type": "function"
    },
    {
      "inputs": [
        {
          "internalType": "address",
          "name": "spender",
          "type": "address"
        },
        {
          "internalType": "uint256",
          "name": "addedValue",
          "type": "uint256"
        }
      ],
      "name": "increaseAllowance",
      "outputs": [
        {
          "internalType": "bool",
          "name": "",
          "type": "bool"
        }
      ],
      "stateMutability": "nonpayable",
      "type": "function"
    },
    {
      "inputs": [],
      "name": "mooniswapFactoryGovernance",
      "outputs": [
        {
          "internalType": "contract IMooniswapFactoryGovernance",
          "name": "",
          "type": "address"
        }
      ],
      "stateMutability": "view",
      "type": "function"
    },
    {
      "inputs": [],
      "name": "name",
      "outputs": [
        {
          "internalType": "string",
          "name": "",
          "type": "string"
        }
      ],
      "stateMutability": "view",
      "type": "function"
    },
    {
      "inputs": [],
      "name": "owner",
      "outputs": [
        {
          "internalType": "address",
          "name": "",
          "type": "address"
        }
      ],
      "stateMutability": "view",
      "type": "function"
    },
    {
      "inputs": [],
      "name": "renounceOwnership",
      "outputs": [],
      "stateMutability": "nonpayable",
      "type": "function"
    },
    {
      "inputs": [
        {
          "internalType": "contract IMooniswapFactoryGovernance",
          "name": "newMooniswapFactoryGovernance",
          "type": "address"
        }
      ],
      "name": "setMooniswapFactoryGovernance",
      "outputs": [],
      "stateMutability": "nonpayable",
      "type": "function"
    },
    {
      "inputs": [],
      "name": "slippageFee",
      "outputs": [
        {
          "internalType": "uint256",
          "name": "",
          "type": "uint256"
        }
      ],
      "stateMutability": "view",
      "type": "function"
    },
    {
      "inputs": [
        {
          "internalType": "uint256",
          "name": "vote",
          "type": "uint256"
        }
      ],
      "name": "slippageFeeVote",
      "outputs": [],
      "stateMutability": "nonpayable",
      "type": "function"
    },
    {
      "inputs": [
        {
          "internalType": "address",
          "name": "user",
          "type": "address"
        }
      ],
      "name": "slippageFeeVotes",
      "outputs": [
        {
          "internalType": "uint256",
          "name": "",
          "type": "uint256"
        }
      ],
      "stateMutability": "view",
      "type": "function"
    },
    {
      "inputs": [],
      "name": "symbol",
      "outputs": [
        {
          "internalType": "string",
          "name": "",
          "type": "string"
        }
      ],
      "stateMutability": "view",
      "type": "function"
    },
    {
      "inputs": [],
      "name": "token0",
      "outputs": [
        {
          "internalType": "contract IERC20",
          "name": "",
          "type": "address"
        }
      ],
      "stateMutability": "view",
      "type": "function"
    },
    {
      "inputs": [],
      "name": "token1",
      "outputs": [
        {
          "internalType": "contract IERC20",
          "name": "",
          "type": "address"
        }
      ],
      "stateMutability": "view",
      "type": "function"
    },
    {
      "inputs": [],
      "name": "totalSupply",
      "outputs": [
        {
          "internalType": "uint256",
          "name": "",
          "type": "uint256"
        }
      ],
      "stateMutability": "view",
      "type": "function"
    },
    {
      "inputs": [
        {
          "internalType": "address",
          "name": "recipient",
          "type": "address"
        },
        {
          "internalType": "uint256",
          "name": "amount",
          "type": "uint256"
        }
      ],
      "name": "transfer",
      "outputs": [
        {
          "internalType": "bool",
          "name": "",
          "type": "bool"
        }
      ],
      "stateMutability": "nonpayable",
      "type": "function"
    },
    {
      "inputs": [
        {
          "internalType": "address",
          "name": "sender",
          "type": "address"
        },
        {
          "internalType": "address",
          "name": "recipient",
          "type": "address"
        },
        {
          "internalType": "uint256",
          "name": "amount",
          "type": "uint256"
        }
      ],
      "name": "transferFrom",
      "outputs": [
        {
          "internalType": "bool",
          "name": "",
          "type": "bool"
        }
      ],
      "stateMutability": "nonpayable",
      "type": "function"
    },
    {
      "inputs": [
        {
          "internalType": "address",
          "name": "newOwner",
          "type": "address"
        }
      ],
      "name": "transferOwnership",
      "outputs": [],
      "stateMutability": "nonpayable",
      "type": "function"
    },
    {
      "inputs": [
        {
          "internalType": "contract IERC20",
          "name": "",
          "type": "address"
        }
      ],
      "name": "virtualBalancesForAddition",
      "outputs": [
        {
          "internalType": "uint216",
          "name": "balance",
          "type": "uint216"
        },
        {
          "internalType": "uint40",
          "name": "time",
          "type": "uint40"
        }
      ],
      "stateMutability": "view",
      "type": "function"
    },
    {
      "inputs": [
        {
          "internalType": "contract IERC20",
          "name": "",
          "type": "address"
        }
      ],
      "name": "virtualBalancesForRemoval",
      "outputs": [
        {
          "internalType": "uint216",
          "name": "balance",
          "type": "uint216"
        },
        {
          "internalType": "uint40",
          "name": "time",
          "type": "uint40"
        }
      ],
      "stateMutability": "view",
      "type": "function"
    },
    {
      "inputs": [],
      "name": "virtualDecayPeriod",
      "outputs": [
        {
          "internalType": "uint104",
          "name": "",
          "type": "uint104"
        },
        {
          "internalType": "uint104",
          "name": "",
          "type": "uint104"
        },
        {
          "internalType": "uint48",
          "name": "",
          "type": "uint48"
        }
      ],
      "stateMutability": "view",
      "type": "function"
    },
    {
      "inputs": [],
      "name": "virtualFee",
      "outputs": [
        {
          "internalType": "uint104",
          "name": "",
          "type": "uint104"
        },
        {
          "internalType": "uint104",
          "name": "",
          "type": "uint104"
        },
        {
          "internalType": "uint48",
          "name": "",
          "type": "uint48"
        }
      ],
      "stateMutability": "view",
      "type": "function"
    },
    {
      "inputs": [],
      "name": "virtualSlippageFee",
      "outputs": [
        {
          "internalType": "uint104",
          "name": "",
          "type": "uint104"
        },
        {
          "internalType": "uint104",
          "name": "",
          "type": "uint104"
        },
        {
          "internalType": "uint48",
          "name": "",
          "type": "uint48"
        }
      ],
      "stateMutability": "view",
      "type": "function"
    },
    {
      "inputs": [
        {
          "internalType": "contract IERC20",
          "name": "",
          "type": "address"
        }
      ],
      "name": "volumes",
      "outputs": [
        {
          "internalType": "uint128",
          "name": "confirmed",
          "type": "uint128"
        },
        {
          "internalType": "uint128",
          "name": "result",
          "type": "uint128"
        }
      ],
      "stateMutability": "view",
      "type": "function"
    },
    {
      "inputs": [],
      "name": "getTokens",
      "outputs": [
        {
          "internalType": "contract IERC20[]",
          "name": "tokens",
          "type": "address[]"
        }
      ],
      "stateMutability": "view",
      "type": "function"
    },
    {
      "inputs": [
        {
          "internalType": "uint256",
          "name": "i",
          "type": "uint256"
        }
      ],
      "name": "tokens",
      "outputs": [
        {
          "internalType": "contract IERC20",
          "name": "",
          "type": "address"
        }
      ],
      "stateMutability": "view",
      "type": "function"
    },
    {
      "inputs": [
        {
          "internalType": "contract IERC20",
          "name": "token",
          "type": "address"
        }
      ],
      "name": "getBalanceForAddition",
      "outputs": [
        {
          "internalType": "uint256",
          "name": "",
          "type": "uint256"
        }
      ],
      "stateMutability": "view",
      "type": "function"
    },
    {
      "inputs": [
        {
          "internalType": "contract IERC20",
          "name": "token",
          "type": "address"
        }
      ],
      "name": "getBalanceForRemoval",
      "outputs": [
        {
          "internalType": "uint256",
          "name": "",
          "type": "uint256"
        }
      ],
      "stateMutability": "view",
      "type": "function"
    },
    {
      "inputs": [
        {
          "internalType": "contract IERC20",
          "name": "src",
          "type": "address"
        },
        {
          "internalType": "contract IERC20",
          "name": "dst",
          "type": "address"
        },
        {
          "internalType": "uint256",
          "name": "amount",
          "type": "uint256"
        }
      ],
      "name": "getReturn",
      "outputs": [
        {
          "internalType": "uint256",
          "name": "",
          "type": "uint256"
        }
      ],
      "stateMutability": "view",
      "type": "function"
    },
    {
      "inputs": [
        {
          "internalType": "uint256[2]",
          "name": "maxAmounts",
          "type": "uint256[2]"
        },
        {
          "internalType": "uint256[2]",
          "name": "minAmounts",
          "type": "uint256[2]"
        }
      ],
      "name": "deposit",
      "outputs": [
        {
          "internalType": "uint256",
          "name": "fairSupply",
          "type": "uint256"
        },
        {
          "internalType": "uint256[2]",
          "name": "receivedAmounts",
          "type": "uint256[2]"
        }
      ],
      "stateMutability": "payable",
      "type": "function"
    },
    {
      "inputs": [
        {
          "internalType": "uint256[2]",
          "name": "maxAmounts",
          "type": "uint256[2]"
        },
        {
          "internalType": "uint256[2]",
          "name": "minAmounts",
          "type": "uint256[2]"
        },
        {
          "internalType": "address",
          "name": "target",
          "type": "address"
        }
      ],
      "name": "depositFor",
      "outputs": [
        {
          "internalType": "uint256",
          "name": "fairSupply",
          "type": "uint256"
        },
        {
          "internalType": "uint256[2]",
          "name": "receivedAmounts",
          "type": "uint256[2]"
        }
      ],
      "stateMutability": "payable",
      "type": "function"
    },
    {
      "inputs": [
        {
          "internalType": "uint256",
          "name": "amount",
          "type": "uint256"
        },
        {
          "internalType": "uint256[]",
          "name": "minReturns",
          "type": "uint256[]"
        }
      ],
      "name": "withdraw",
      "outputs": [
        {
          "internalType": "uint256[2]",
          "name": "withdrawnAmounts",
          "type": "uint256[2]"
        }
      ],
      "stateMutability": "nonpayable",
      "type": "function"
    },
    {
      "inputs": [
        {
          "internalType": "uint256",
          "name": "amount",
          "type": "uint256"
        },
        {
          "internalType": "uint256[]",
          "name": "minReturns",
          "type": "uint256[]"
        },
        {
          "internalType": "address payable",
          "name": "target",
          "type": "address"
        }
      ],
      "name": "withdrawFor",
      "outputs": [
        {
          "internalType": "uint256[2]",
          "name": "withdrawnAmounts",
          "type": "uint256[2]"
        }
      ],
      "stateMutability": "nonpayable",
      "type": "function"
    },
    {
      "inputs": [
        {
          "internalType": "contract IERC20",
          "name": "src",
          "type": "address"
        },
        {
          "internalType": "contract IERC20",
          "name": "dst",
          "type": "address"
        },
        {
          "internalType": "uint256",
          "name": "amount",
          "type": "uint256"
        },
        {
          "internalType": "uint256",
          "name": "minReturn",
          "type": "uint256"
        },
        {
          "internalType": "address",
          "name": "referral",
          "type": "address"
        }
      ],
      "name": "swap",
      "outputs": [
        {
          "internalType": "uint256",
          "name": "result",
          "type": "uint256"
        }
      ],
      "stateMutability": "payable",
      "type": "function"
    },
    {
      "inputs": [
        {
          "internalType": "contract IERC20",
          "name": "src",
          "type": "address"
        },
        {
          "internalType": "contract IERC20",
          "name": "dst",
          "type": "address"
        },
        {
          "internalType": "uint256",
          "name": "amount",
          "type": "uint256"
        },
        {
          "internalType": "uint256",
          "name": "minReturn",
          "type": "uint256"
        },
        {
          "internalType": "address",
          "name": "referral",
          "type": "address"
        },
        {
          "internalType": "address payable",
          "name": "receiver",
          "type": "address"
        }
      ],
      "name": "swapFor",
      "outputs": [
        {
          "internalType": "uint256",
          "name": "result",
          "type": "uint256"
        }
      ],
      "stateMutability": "payable",
      "type": "function"
    },
    {
      "inputs": [
        {
          "internalType": "contract IERC20",
          "name": "token",
          "type": "address"
        },
        {
          "internalType": "uint256",
          "name": "amount",
          "type": "uint256"
        }
      ],
      "name": "rescueFunds",
      "outputs": [],
      "stateMutability": "nonpayable",
      "type": "function"
    }
  ],
  "bytecode": "0x60c06040523480156200001157600080fd5b50604051620059e8380380620059e8833981810160405260a08110156200003757600080fd5b815160208301516040808501805191519395929483019291846401000000008211156200006357600080fd5b9083019060208201858111156200007957600080fd5b82516401000000008111828201881017156200009457600080fd5b82525081516020918201929091019080838360005b83811015620000c3578181015183820152602001620000a9565b50505050905090810190601f168015620000f15780820380516001836020036101000a031916815260200191505b50604052602001805160405193929190846401000000008211156200011557600080fd5b9083019060208201858111156200012b57600080fd5b82516401000000008111828201881017156200014657600080fd5b82525081516020918201929091019080838360005b83811015620001755781810151838201526020016200015b565b50505050905090810190601f168015620001a35780820380516001836020036101000a031916815260200191505b50604052602090810151855190935083925085918591620001cb91600391908501906200058a565b508051620001e19060049060208401906200058a565b50506005805460ff19166012179055506000620001fd62000527565b60058054610100600160a81b0319166101006001600160a01b03841690810291909117909155604051919250906000907f8be0079c531659141344cd1fd0a4f28419497f9722a3daafe3b4186f6b6457e0908290a3506001600655600780546001600160a01b0319166001600160a01b038316908117909155604080516305a6c72d60e41b81529051620002f29291635a6c72d0916004808301926020929190829003018186803b158015620002b257600080fd5b505afa158015620002c7573d6000803e3d6000fd5b505050506040513d6020811015620002de57600080fd5b50516200052b602090811b62002ee817901c565b6008600001600001600d6101000a8154816001600160681b0302191690836001600160681b031602179055506200035c816001600160a01b03166323662bb96040518163ffffffff1660e01b815260040160206040518083038186803b158015620002b257600080fd5b600c600001600001600d6101000a8154816001600160681b0302191690836001600160681b03160217905550620003c6816001600160a01b0316631845f0db6040518163ffffffff1660e01b815260040160206040518083038186803b158015620002b257600080fd5b601080546001600160681b0392909216600160681b02600160681b600160d01b031990921691909117905550825162000446576040805162461bcd60e51b815260206004820152601860248201527f4d6f6f6e69737761703a206e616d6520697320656d7074790000000000000000604482015290519081900360640190fd5b60008251116200049d576040805162461bcd60e51b815260206004820152601a60248201527f4d6f6f6e69737761703a2073796d626f6c20697320656d707479000000000000604482015290519081900360640190fd5b836001600160a01b0316856001600160a01b0316141562000505576040805162461bcd60e51b815260206004820152601b60248201527f4d6f6f6e69737761703a206475706c696361746520746f6b656e730000000000604482015290519081900360640190fd5b5050506001600160601b0319606092831b8116608052911b1660a0526200061c565b3390565b6000600160681b821062000586576040805162461bcd60e51b815260206004820152601e60248201527f76616c756520646f6573206e6f742066697420696e2031303420626974730000604482015290519081900360640190fd5b5090565b828054600181600116156101000203166002900490600052602060002090601f016020900481019282601f10620005cd57805160ff1916838001178555620005fd565b82800160010185558215620005fd579182015b82811115620005fd578251825591602001919060010190620005e0565b50620005869291505b8082111562000586576000815560010162000606565b60805160601c60a05160601c61535c6200068c6000398061142552806116a752806119ad5280611a7e5280611d5c528061246e52806126af528061318052508061108152806114005280611677528061197652806119f75280611d3752806124205280613143525061535c6000f3fe6080604052600436106103135760003560e01c80637e82a6f31161019a578063d21220a7116100e1578063e331d0391161008a578063f1ea604211610064578063f1ea604214610e1a578063f2fde38b14610e2f578063f76d13b414610e6257610313565b8063e331d03914610d73578063e7ff42c914610dbd578063eaadf84814610df057610313565b8063d9a0c217116100bb578063d9a0c21714610d0e578063dd62ed3e14610d23578063ddca3f4314610d5e57610313565b8063d21220a714610c82578063d5bcb9b514610c97578063d7d3aab514610cdb57610313565b80639ea5ce0a11610143578063aa6ca8081161011d578063aa6ca80814610b8d578063b1ec4c4014610bdb578063c40d4d6614610c4f57610313565b80639ea5ce0a14610a9e578063a457c2d714610b1b578063a9059cbb14610b5457610313565b806395cad3c71161017457806395cad3c714610a2357806395d89b4114610a565780639aad141b14610a6b57610313565b80637e82a6f3146109c65780638da5cb5b146109f957806393028d8314610a0e57610313565b80633732b3941161025e5780635ed9156d1161020757806370a08231116101e157806370a0823114610945578063715018a61461097857806378e3214f1461098d57610313565b80635ed9156d146108a15780636669302a146108fd5780636edc2c091461091257610313565b806348d67e1b1161023857806348d67e1b146107ab5780634f64b2be146107c05780635915d806146107ea57610313565b80633732b3941461066057806339509351146106755780633c6216a6146106ae57610313565b806318160ddd116102c057806323e8cae11161029a57806323e8cae11461056a5780633049105d1461057f578063313ce5671461063557610313565b806318160ddd146104bd5780631e1401f8146104e457806323b872dd1461052757610313565b8063095ea7b3116102f1578063095ea7b3146104155780630dfe16811461046257806311212d661461049357610313565b80630146081f1461031857806306fdde031461035f57806307a80070146103e9575b600080fd5b34801561032457600080fd5b5061032d610e77565b604080516001600160681b03948516815292909316602083015265ffffffffffff168183015290519081900360600190f35b34801561036b57600080fd5b50610374610ea3565b6040805160208082528351818301528351919283929083019185019080838360005b838110156103ae578181015183820152602001610396565b50505050905090810190601f1680156103db5780820380516001836020036101000a031916815260200191505b509250505060405180910390f35b3480156103f557600080fd5b506104136004803603602081101561040c57600080fd5b5035610f39565b005b34801561042157600080fd5b5061044e6004803603604081101561043857600080fd5b506001600160a01b038135169060200135611061565b604080519115158252519081900360200190f35b34801561046e57600080fd5b5061047761107f565b604080516001600160a01b039092168252519081900360200190f35b34801561049f57600080fd5b50610413600480360360208110156104b657600080fd5b50356110a3565b3480156104c957600080fd5b506104d26111c7565b60408051918252519081900360200190f35b3480156104f057600080fd5b506104d26004803603606081101561050757600080fd5b506001600160a01b038135811691602081013590911690604001356111cd565b34801561053357600080fd5b5061044e6004803603606081101561054a57600080fd5b506001600160a01b03813581169160208101359091169060400135611206565b34801561057657600080fd5b5061032d61128d565b6105f36004803603608081101561059557600080fd5b6040805180820182529183019291818301918390600290839083908082843760009201919091525050604080518082018252929594938181019392509060029083908390808284376000920191909152509194506112b99350505050565b6040518083815260200182600260200280838360005b83811015610621578181015183820152602001610609565b505050509050019250505060405180910390f35b34801561064157600080fd5b5061064a6112d9565b6040805160ff9092168252519081900360200190f35b34801561066c57600080fd5b506104d26112e2565b34801561068157600080fd5b5061044e6004803603604081101561069857600080fd5b506001600160a01b038135169060200135611330565b3480156106ba57600080fd5b50610770600480360360608110156106d157600080fd5b813591908101906040810160208201356401000000008111156106f357600080fd5b82018360208201111561070557600080fd5b8035906020019184602083028401116401000000008311171561072757600080fd5b919080806020026020016040519081016040528093929190818152602001838360200280828437600092019190915250929550505090356001600160a01b0316915061137e9050565b6040518082600260200280838360005b83811015610798578181015183820152602001610780565b5050505090500191505060405180910390f35b3480156107b757600080fd5b506104d2611624565b3480156107cc57600080fd5b50610477600480360360208110156107e357600080fd5b503561166d565b3480156107f657600080fd5b506107706004803603604081101561080d57600080fd5b8135919081019060408101602082013564010000000081111561082f57600080fd5b82018360208201111561084157600080fd5b8035906020019184602083028401116401000000008311171561086357600080fd5b91908080602002602001604051908101604052809392919081815260200183836020028082843760009201919091525092955061171d945050505050565b3480156108ad57600080fd5b506108d4600480360360208110156108c457600080fd5b50356001600160a01b0316611730565b604080516001600160d81b03909316835264ffffffffff90911660208301528051918290030190f35b34801561090957600080fd5b5061041361175b565b34801561091e57600080fd5b506108d46004803603602081101561093557600080fd5b50356001600160a01b0316611789565b34801561095157600080fd5b506104d26004803603602081101561096857600080fd5b50356001600160a01b03166117b4565b34801561098457600080fd5b506104136117cf565b34801561099957600080fd5b50610413600480360360408110156109b057600080fd5b506001600160a01b03813516906020013561189b565b3480156109d257600080fd5b506104d2600480360360208110156109e957600080fd5b50356001600160a01b0316611b61565b348015610a0557600080fd5b50610477611b9c565b348015610a1a57600080fd5b50610413611bb0565b348015610a2f57600080fd5b506104d260048036036020811015610a4657600080fd5b50356001600160a01b0316611bdc565b348015610a6257600080fd5b50610374611c17565b348015610a7757600080fd5b506104d260048036036020811015610a8e57600080fd5b50356001600160a01b0316611c78565b6105f3600480360360a0811015610ab457600080fd5b6040805180820182529183019291818301918390600290839083908082843760009201919091525050604080518082018252929594938181019392509060029083908390808284376000920191909152509194505050356001600160a01b03169050611cb3565b348015610b2757600080fd5b5061044e60048036036040811015610b3e57600080fd5b506001600160a01b038135169060200135612382565b348015610b6057600080fd5b5061044e60048036036040811015610b7757600080fd5b506001600160a01b0381351690602001356123ea565b348015610b9957600080fd5b50610ba26123fe565b60408051602080825283518183015283519192839290830191858101910280838360008315610621578181015183820152602001610609565b348015610be757600080fd5b50610c0e60048036036020811015610bfe57600080fd5b50356001600160a01b03166124bd565b60405180836fffffffffffffffffffffffffffffffff168152602001826fffffffffffffffffffffffffffffffff1681526020019250505060405180910390f35b348015610c5b57600080fd5b5061041360048036036020811015610c7257600080fd5b50356001600160a01b03166124f9565b348015610c8e57600080fd5b506104776126ad565b6104d2600480360360a0811015610cad57600080fd5b506001600160a01b0381358116916020810135821691604082013591606081013591608090910135166126d1565b348015610ce757600080fd5b506104d260048036036020811015610cfe57600080fd5b50356001600160a01b03166126eb565b348015610d1a57600080fd5b50610477612761565b348015610d2f57600080fd5b506104d260048036036040811015610d4657600080fd5b506001600160a01b0381358116916020013516612770565b348015610d6a57600080fd5b506104d261279b565b6104d2600480360360c0811015610d8957600080fd5b506001600160a01b0381358116916020810135821691604082013591606081013591608082013581169160a00135166127e4565b348015610dc957600080fd5b506104d260048036036020811015610de057600080fd5b50356001600160a01b0316612b7d565b348015610dfc57600080fd5b5061041360048036036020811015610e1357600080fd5b5035612bf3565b348015610e2657600080fd5b5061032d612d68565b348015610e3b57600080fd5b5061041360048036036020811015610e5257600080fd5b50356001600160a01b0316612d94565b348015610e6e57600080fd5b50610413612ebc565b6010546001600160681b0380821692600160681b830490911691600160d01b900465ffffffffffff1690565b60038054604080516020601f6002600019610100600188161502019095169490940493840181900481028201810190925282815260609390929091830182828015610f2f5780601f10610f0457610100808354040283529160200191610f2f565b820191906000526020600020905b815481529060010190602001808311610f1257829003601f168201915b5050505050905090565b670de0b6b3a7640000811115610f96576040805162461bcd60e51b815260206004820152601d60248201527f536c6970706167652066656520766f746520697320746f6f2068696768000000604482015290519081900360640190fd5b336000818152600f602090815260409182902082519182019092529054815261105e9190610fc384612f46565b610fcc336117b4565b610fd46111c7565b600760009054906101000a90046001600160a01b03166001600160a01b03166323662bb96040518163ffffffff1660e01b815260040160206040518083038186803b15801561102257600080fd5b505afa158015611036573d6000803e3d6000fd5b505050506040513d602081101561104c57600080fd5b5051600c959493929190612f65612fb8565b50565b600061107561106e612fd3565b8484612fd7565b5060015b92915050565b7f000000000000000000000000000000000000000000000000000000000000000081565b662386f26fc100008111156110ff576040805162461bcd60e51b815260206004820152601460248201527f46656520766f746520697320746f6f2068696768000000000000000000000000604482015290519081900360640190fd5b336000818152600b602090815260409182902082519182019092529054815261105e919061112c84612f46565b611135336117b4565b61113d6111c7565b600760009054906101000a90046001600160a01b03166001600160a01b0316635a6c72d06040518163ffffffff1660e01b815260040160206040518083038186803b15801561118b57600080fd5b505afa15801561119f573d6000803e3d6000fd5b505050506040513d60208110156111b557600080fd5b505160089594939291906130c3612fb8565b60025490565b60006111fc8484846111de886126eb565b6111e788612b7d565b6111ef61279b565b6111f76112e2565b613116565b90505b9392505050565b6000611213848484613257565b6112838461121f612fd3565b61127e85604051806060016040528060288152602001615246602891396001600160a01b038a1660009081526001602052604081209061125d612fd3565b6001600160a01b0316815260208101919091526040016000205491906133b2565b612fd7565b5060019392505050565b600c546001600160681b0380821692600160681b830490911691600160d01b900465ffffffffffff1690565b60006112c36150ab565b6112ce848433611cb3565b915091509250929050565b60055460ff1690565b60408051606081018252600c546001600160681b038082168352600160681b8204166020830152600160d01b900465ffffffffffff169181019190915260009061132b90613449565b905090565b600061107561133d612fd3565b8461127e856001600061134e612fd3565b6001600160a01b03908116825260208083019390935260409182016000908120918c1681529252902054906134cc565b6113866150ab565b600260065414156113de576040805162461bcd60e51b815260206004820152601f60248201527f5265656e7472616e637947756172643a207265656e7472616e742063616c6c00604482015290519081900360640190fd5b60026006556113eb6150ab565b50604080518082019091526001600160a01b037f0000000000000000000000000000000000000000000000000000000000000000811682527f000000000000000000000000000000000000000000000000000000000000000016602082015260006114546111c7565b90506000611460611624565b905061146c3388613526565b60005b60028110156115c157600084826002811061148657fe5b6020020151905060006114a26001600160a01b03831630613622565b905060006114ba866114b4848e6136c3565b9061371c565b90506114d06001600160a01b0384168a8361375e565b808885600281106114dd57fe5b602002015289518410158061150557508984815181106114f957fe5b60200260200101518110155b611556576040805162461bcd60e51b815260206004820152601f60248201527f4d6f6f6e69737761703a20726573756c74206973206e6f7420656e6f75676800604482015290519081900360640190fd5b6115868583611565898f6137c7565b6001600160a01b03871660009081526015602052604090209291908a613809565b6115b68583611595898f6137c7565b6001600160a01b03871660009081526016602052604090209291908a613809565b50505060010161146f565b508351602080860151604080518b8152928301939093528183015290516001600160a01b0387169133917f3cae9923fd3c2f468aa25a8ef687923e37f957459557c0380fd06526c0b8cdbc9181900360600190a350506001600655509392505050565b604080516060810182526010546001600160681b038082168352600160681b8204166020830152600160d01b900465ffffffffffff169181019190915260009061132b90613449565b60008161169b57507f0000000000000000000000000000000000000000000000000000000000000000611718565b81600114156116cb57507f0000000000000000000000000000000000000000000000000000000000000000611718565b6040805162461bcd60e51b815260206004820152601360248201527f506f6f6c206861732074776f20746f6b656e7300000000000000000000000000604482015290519081900360640190fd5b919050565b6117256150ab565b6111ff83833361137e565b6016602052600090815260409020546001600160d81b03811690600160d81b900464ffffffffff1682565b336000818152600f60209081526040918290208251918201909252905481526117879190610fc3613866565b565b6015602052600090815260409020546001600160d81b03811690600160d81b900464ffffffffff1682565b6001600160a01b031660009081526020819052604090205490565b6117d7612fd3565b60055461010090046001600160a01b0390811691161461183e576040805162461bcd60e51b815260206004820181905260248201527f4f776e61626c653a2063616c6c6572206973206e6f7420746865206f776e6572604482015290519081900360640190fd5b60055460405160009161010090046001600160a01b0316907f8be0079c531659141344cd1fd0a4f28419497f9722a3daafe3b4186f6b6457e0908390a36005805474ffffffffffffffffffffffffffffffffffffffff0019169055565b600260065414156118f3576040805162461bcd60e51b815260206004820152601f60248201527f5265656e7472616e637947756172643a207265656e7472616e742063616c6c00604482015290519081900360640190fd5b6002600655611900612fd3565b60055461010090046001600160a01b03908116911614611967576040805162461bcd60e51b815260206004820181905260248201527f4f776e61626c653a2063616c6c6572206973206e6f7420746865206f776e6572604482015290519081900360640190fd5b600061199c6001600160a01b037f00000000000000000000000000000000000000000000000000000000000000001630613622565b905060006119d36001600160a01b037f00000000000000000000000000000000000000000000000000000000000000001630613622565b90506119e96001600160a01b038516338561375e565b81611a1d6001600160a01b037f00000000000000000000000000000000000000000000000000000000000000001630613622565b1015611a70576040805162461bcd60e51b815260206004820152601860248201527f4d6f6f6e69737761703a206163636573732064656e6965640000000000000000604482015290519081900360640190fd5b80611aa46001600160a01b037f00000000000000000000000000000000000000000000000000000000000000001630613622565b1015611af7576040805162461bcd60e51b815260206004820152601860248201527f4d6f6f6e69737761703a206163636573732064656e6965640000000000000000604482015290519081900360640190fd5b6103e8611b03306117b4565b1015611b56576040805162461bcd60e51b815260206004820152601860248201527f4d6f6f6e69737761703a206163636573732064656e6965640000000000000000604482015290519081900360640190fd5b505060016006555050565b6007546001600160a01b038281166000908152601360209081526040808320815192830190915254815290926110799216631845f0db613881565b60055461010090046001600160a01b031690565b336000818152600b6020908152604091829020825191820190925290548152611787919061112c613866565b6007546001600160a01b038281166000908152600f602090815260408083208151928301909152548152909261107992166323662bb9613881565b60048054604080516020601f6002600019610100600188161502019095169490940493840181900481028201810190925282815260609390929091830182828015610f2f5780601f10610f0457610100808354040283529160200191610f2f565b6007546001600160a01b038281166000908152600b60209081526040808320815192830190915254815290926110799216635a6c72d0613881565b6000611cbd6150ab565b60026006541415611d15576040805162461bcd60e51b815260206004820152601f60248201527f5265656e7472616e637947756172643a207265656e7472616e742063616c6c00604482015290519081900360640190fd5b6002600655611d226150ab565b50604080518082019091526001600160a01b037f0000000000000000000000000000000000000000000000000000000000000000811682527f0000000000000000000000000000000000000000000000000000000000000000166020820152611d9b8160005b60200201516001600160a01b03166138f7565b611dc057611daa816001611d88565b611db5576000611dbb565b60208601515b611dc3565b85515b3414611e16576040805162461bcd60e51b815260206004820152601c60248201527f4d6f6f6e69737761703a2077726f6e672076616c756520757361676500000000604482015290519081900360640190fd5b6000611e206111c7565b905080611fac57611e346103e860636136c3565b9350611e42306103e8613904565b60005b6002811015611fa657611e6885898360028110611e5e57fe5b60200201516139f4565b94506000888260028110611e7857fe5b602002015111611ecf576040805162461bcd60e51b815260206004820152601960248201527f4d6f6f6e69737761703a20616d6f756e74206973207a65726f00000000000000604482015290519081900360640190fd5b868160028110611edb57fe5b6020020151888260028110611eec57fe5b60200201511015611f44576040805162461bcd60e51b815260206004820181905260248201527f4d6f6f6e69737761703a206d696e416d6f756e74206e6f742072656163686564604482015290519081900360640190fd5b611f7c33308a8460028110611f5557fe5b6020020151868560028110611f6657fe5b60200201516001600160a01b0316929190613a0b565b878160028110611f8857fe5b6020020151848260028110611f9957fe5b6020020152600101611e45565b506122bf565b611fb46150ab565b60005b600281101561202257612009611fd2858360028110611d8857fe5b611fdd576000611fdf565b345b61200330878560028110611fef57fe5b60200201516001600160a01b031690613622565b906137c7565b82826002811061201557fe5b6020020152600101611fb7565b50600019945060005b60028110156120765761206c8661206784846002811061204757fe5b60200201516114b48d866002811061205b57fe5b602002015188906136c3565b613b97565b955060010161202b565b508460005b60028110156122035760008a826002811061209257fe5b6020020151116120e9576040805162461bcd60e51b815260206004820152601960248201527f4d6f6f6e69737761703a20616d6f756e74206973207a65726f00000000000000604482015290519081900360640190fd5b6000612117856114b4600188036121118789886002811061210657fe5b6020020151906136c3565b906134cc565b905089826002811061212557fe5b602002015181101561217e576040805162461bcd60e51b815260206004820181905260248201527f4d6f6f6e69737761703a206d696e416d6f756e74206e6f742072656163686564604482015290519081900360640190fd5b612190333083898660028110611f6657fe5b6121b484836002811061219f57fe5b602002015161200330898660028110611fef57fe5b8783600281106121c057fe5b60200201526121f8886120678685600281106121d857fe5b60200201516114b48b87600281106121ec57fe5b60200201518a906136c3565b97505060010161207b565b50600061220e611624565b905060005b60028110156122ba576122828285836002811061222c57fe5b602002015161223b888c6134cc565b88601660008c886002811061224c57fe5b60200201516001600160a01b03166001600160a01b0316815260200190815260200160002061380990949392919063ffffffff16565b6122b28285836002811061229257fe5b60200201516122a1888c6134cc565b88601560008c886002811061224c57fe5b600101612213565b505050505b60008411612314576040805162461bcd60e51b815260206004820152601f60248201527f4d6f6f6e69737761703a20726573756c74206973206e6f7420656e6f75676800604482015290519081900360640190fd5b61231e8585613904565b825160208085015160408051888152928301939093528183015290516001600160a01b0387169133917f8bab6aed5a508937051a144e61d6e61336834a66aaee250a00613ae6f744c4229181900360600190a3505060016006559094909350915050565b600061107561238f612fd3565b8461127e8560405180606001604052806025815260200161530260259139600160006123b9612fd3565b6001600160a01b03908116825260208083019390935260409182016000908120918d168152925290205491906133b2565b60006110756123f7612fd3565b8484613257565b60408051600280825260608083018452926020830190803683370190505090507f00000000000000000000000000000000000000000000000000000000000000008160008151811061244c57fe5b60200260200101906001600160a01b031690816001600160a01b0316815250507f00000000000000000000000000000000000000000000000000000000000000008160018151811061249a57fe5b60200260200101906001600160a01b031690816001600160a01b03168152505090565b6014602052600090815260409020546fffffffffffffffffffffffffffffffff8082169170010000000000000000000000000000000090041682565b612501612fd3565b60055461010090046001600160a01b03908116911614612568576040805162461bcd60e51b815260206004820181905260248201527f4f776e61626c653a2063616c6c6572206973206e6f7420746865206f776e6572604482015290519081900360640190fd5b600780547fffffffffffffffffffffffff0000000000000000000000000000000000000000166001600160a01b038316179055604080517f93028d83000000000000000000000000000000000000000000000000000000008152905130916393028d8391600480830192600092919082900301818387803b1580156125ec57600080fd5b505af1158015612600573d6000803e3d6000fd5b50505050306001600160a01b0316636669302a6040518163ffffffff1660e01b8152600401600060405180830381600087803b15801561263f57600080fd5b505af1158015612653573d6000803e3d6000fd5b50505050306001600160a01b031663f76d13b46040518163ffffffff1660e01b8152600401600060405180830381600087803b15801561269257600080fd5b505af11580156126a6573d6000803e3d6000fd5b5050505050565b7f000000000000000000000000000000000000000000000000000000000000000081565b60006126e18686868686336127e4565b9695505050505050565b6000806127016001600160a01b03841630613622565b90506111ff61275b612711611624565b6001600160a01b0386166000908152601560209081526040918290208251808401909352546001600160d81b0381168352600160d81b900464ffffffffff16908201529084613ba6565b826139f4565b6007546001600160a01b031681565b6001600160a01b03918216600090815260016020908152604080832093909416825291909152205490565b604080516060810182526008546001600160681b038082168352600160681b8204166020830152600160d01b900465ffffffffffff169181019190915260009061132b90613449565b60006002600654141561283e576040805162461bcd60e51b815260206004820152601f60248201527f5265656e7472616e637947756172643a207265656e7472616e742063616c6c00604482015290519081900360640190fd5b6002600655600754604080517f22f3e2d400000000000000000000000000000000000000000000000000000000815290516001600160a01b03909216916322f3e2d491600480820192602092909190829003018186803b1580156128a157600080fd5b505afa1580156128b5573d6000803e3d6000fd5b505050506040513d60208110156128cb57600080fd5b505161291e576040805162461bcd60e51b815260206004820152601b60248201527f4d6f6f6e69737761703a20666163746f72792073687574646f776e0000000000604482015290519081900360640190fd5b612930876001600160a01b03166138f7565b61293b57600061293d565b845b3414612990576040805162461bcd60e51b815260206004820152601c60248201527f4d6f6f6e69737761703a2077726f6e672076616c756520757361676500000000604482015290519081900360640190fd5b6129986150c9565b60405180604001604052806129d86129b88b6001600160a01b03166138f7565b6129c35760006129c5565b345b6120036001600160a01b038d1630613622565b81526020016129f06001600160a01b038a1630613622565b9052905060006129fe6150c9565b612a066150c9565b6040518060400160405280612a1961279b565b8152602001612a266112e2565b90529050612a398b8b8b8b8a8987613c01565b8094508197508295505050508a6001600160a01b0316866001600160a01b0316336001600160a01b03167fbd99c6719f088aa0abd9e7b7a4a635d1f931601e9f304b538dc42be25d8c65c68d878a886000015189602001518f60405180876001600160a01b03168152602001868152602001858152602001848152602001838152602001826001600160a01b03168152602001965050505050505060405180910390a4612ae98386898785613e84565b50506001600160a01b03909816600090815260146020526040902080547001000000000000000000000000000000006fffffffffffffffffffffffffffffffff808316909b018b167fffffffffffffffffffffffffffffffff00000000000000000000000000000000909216919091178181048b1685018b1690910299169890981790975560016006559695505050505050565b600080612b936001600160a01b03841630613622565b90506111ff612bed612ba3611624565b6001600160a01b0386166000908152601660209081526040918290208251808401909352546001600160d81b0381168352600160d81b900464ffffffffff16908201529084613ba6565b82613b97565b61012c811115612c4a576040805162461bcd60e51b815260206004820152601d60248201527f446563617920706572696f6420766f746520697320746f6f2068696768000000604482015290519081900360640190fd5b603c811015612ca0576040805162461bcd60e51b815260206004820152601c60248201527f446563617920706572696f6420766f746520697320746f6f206c6f7700000000604482015290519081900360640190fd5b3360008181526013602090815260409182902082519182019092529054815261105e9190612ccd84612f46565b612cd6336117b4565b612cde6111c7565b600760009054906101000a90046001600160a01b03166001600160a01b0316631845f0db6040518163ffffffff1660e01b815260040160206040518083038186803b158015612d2c57600080fd5b505afa158015612d40573d6000803e3d6000fd5b505050506040513d6020811015612d5657600080fd5b505160109594939291906143af612fb8565b6008546001600160681b0380821692600160681b830490911691600160d01b900465ffffffffffff1690565b612d9c612fd3565b60055461010090046001600160a01b03908116911614612e03576040805162461bcd60e51b815260206004820181905260248201527f4f776e61626c653a2063616c6c6572206973206e6f7420746865206f776e6572604482015290519081900360640190fd5b6001600160a01b038116612e485760405162461bcd60e51b81526004018080602001828103825260268152602001806151b76026913960400191505060405180910390fd5b6005546040516001600160a01b0380841692610100900416907f8be0079c531659141344cd1fd0a4f28419497f9722a3daafe3b4186f6b6457e090600090a3600580546001600160a01b039092166101000274ffffffffffffffffffffffffffffffffffffffff0019909216919091179055565b336000818152601360209081526040918290208251918201909252905481526117879190612ccd613866565b6000600160681b8210612f42576040805162461bcd60e51b815260206004820152601e60248201527f76616c756520646f6573206e6f742066697420696e2031303420626974730000604482015290519081900360640190fd5b5090565b612f4e6150e3565b506040805160208101909152600182018152919050565b60408051848152831515602082015280820183905290516001600160a01b038616917fce0cf859d853e1944032294143a1bf3ad799998ae77acbeb6c4d9b20d6910240919081900360600190a250505050565b612fc9888888888889898989614402565b5050505050505050565b3390565b6001600160a01b03831661301c5760405162461bcd60e51b81526004018080602001828103825260248152602001806152b46024913960400191505060405180910390fd5b6001600160a01b0382166130615760405162461bcd60e51b81526004018080602001828103825260228152602001806151dd6022913960400191505060405180910390fd5b6001600160a01b03808416600081815260016020908152604080832094871680845294825291829020859055815185815291517f8c5be1e5ebec7d5bd14f71427d1e84f3dd0314c0f7b2291e5b200ac8c7c3b9259281900390910190a3505050565b60408051848152831515602082015280820183905290516001600160a01b038616917fe117cae46817b894b41a4412b73ae0ba746a5707b94e02d83b4c6502010b11ac919081900360600190a250505050565b6000866001600160a01b0316886001600160a01b03161115613136579596955b60008611801561317757507f00000000000000000000000000000000000000000000000000000000000000006001600160a01b0316886001600160a01b0316145b80156131b457507f00000000000000000000000000000000000000000000000000000000000000006001600160a01b0316876001600160a01b0316145b1561324c5760006131db6131d4670de0b6b3a76400006114b48a886136c3565b88906137c7565b905060006131e987836134cc565b905060006131fb826114b4858a6136c3565b9050600061321e61320c87866136c3565b612003670de0b6b3a7640000866136c3565b90506000613234670de0b6b3a7640000856136c3565b9050613244816114b485856136c3565b955050505050505b979650505050505050565b6001600160a01b03831661329c5760405162461bcd60e51b815260040180806020018281038252602581526020018061528f6025913960400191505060405180910390fd5b6001600160a01b0382166132e15760405162461bcd60e51b81526004018080602001828103825260238152602001806151726023913960400191505060405180910390fd5b6132ec838383614626565b613329816040518060600160405280602681526020016151ff602691396001600160a01b03861660009081526020819052604090205491906133b2565b6001600160a01b03808516600090815260208190526040808220939093559084168152205461335890826134cc565b6001600160a01b038084166000818152602081815260409182902094909455805185815290519193928716927fddf252ad1be2c89b69c2b068fc378daa952ba7f163c4a11628f55a4df523b3ef92918290030190a3505050565b600081848411156134415760405162461bcd60e51b81526004018080602001828103825283818151815260200191508051906020019080838360005b838110156134065781810151838201526020016133ee565b50505050905090810190601f1680156134335780820380516001836020036101000a031916815260200191505b509250505060405180910390fd5b505050900390565b60008061347262015180612067856040015165ffffffffffff16426137c790919063ffffffff16565b9050600061348362015180836137c7565b90506134c4620151806114b46134af8588602001516001600160681b03166136c390919063ffffffff16565b8751612111906001600160681b0316866136c3565b949350505050565b6000828201838110156111ff576040805162461bcd60e51b815260206004820152601b60248201527f536166654d6174683a206164646974696f6e206f766572666c6f770000000000604482015290519081900360640190fd5b6001600160a01b03821661356b5760405162461bcd60e51b815260040180806020018281038252602181526020018061526e6021913960400191505060405180910390fd5b61357782600083614626565b6135b481604051806060016040528060228152602001615195602291396001600160a01b03851660009081526020819052604090205491906133b2565b6001600160a01b0383166000908152602081905260409020556002546135da90826137c7565b6002556040805182815290516000916001600160a01b038516917fddf252ad1be2c89b69c2b068fc378daa952ba7f163c4a11628f55a4df523b3ef9181900360200190a35050565b600061362d836138f7565b1561364357506001600160a01b03811631611079565b826001600160a01b03166370a08231836040518263ffffffff1660e01b815260040180826001600160a01b0316815260200191505060206040518083038186803b15801561369057600080fd5b505afa1580156136a4573d6000803e3d6000fd5b505050506040513d60208110156136ba57600080fd5b50519050611079565b6000826136d257506000611079565b828202828482816136df57fe5b04146111ff5760405162461bcd60e51b81526004018080602001828103825260218152602001806152256021913960400191505060405180910390fd5b60006111ff83836040518060400160405280601a81526020017f536166654d6174683a206469766973696f6e206279207a65726f000000000000815250614911565b80156137c25761376d836138f7565b156137ae576040516001600160a01b0383169082156108fc029083906000818181858888f193505050501580156137a8573d6000803e3d6000fd5b506137c2565b6137c26001600160a01b0384168383614976565b505050565b60006111ff83836040518060400160405280601e81526020017f536166654d6174683a207375627472616374696f6e206f766572666c6f7700008152506133b2565b6126a685613861836114b461381f8260016137c7565b604080518082019091528b546001600160d81b0381168252600160d81b900464ffffffffff16602082015261211190899061385b908d8d613ba6565b906136c3565b6149f6565b61386e6150e3565b5060408051602081019091526000815290565b82516000901561389757508251600019016111ff565b82826040518163ffffffff1660e01b815260040160206040518083038186803b1580156138c357600080fd5b505afa1580156138d7573d6000803e3d6000fd5b505050506040513d60208110156138ed57600080fd5b5051949350505050565b6001600160a01b03161590565b6001600160a01b03821661395f576040805162461bcd60e51b815260206004820152601f60248201527f45524332303a206d696e7420746f20746865207a65726f206164647265737300604482015290519081900360640190fd5b61396b60008383614626565b60025461397890826134cc565b6002556001600160a01b03821660009081526020819052604090205461399e90826134cc565b6001600160a01b0383166000818152602081815260408083209490945583518581529351929391927fddf252ad1be2c89b69c2b068fc378daa952ba7f163c4a11628f55a4df523b3ef9281900390910190a35050565b600081831015613a0457816111ff565b5090919050565b8015613b9157613a1a846138f7565b15613b7c5780341015613a74576040805162461bcd60e51b815260206004820152601a60248201527f556e6945524332303a206e6f7420656e6f7567682076616c7565000000000000604482015290519081900360640190fd5b6001600160a01b0383163314613ad1576040805162461bcd60e51b815260206004820152601660248201527f66726f6d206973206e6f74206d73672e73656e64657200000000000000000000604482015290519081900360640190fd5b6001600160a01b0382163014613b2e576040805162461bcd60e51b815260206004820152600e60248201527f746f206973206e6f742074686973000000000000000000000000000000000000604482015290519081900360640190fd5b80341115613b77576001600160a01b0383166108fc613b4d34846137c7565b6040518115909202916000818181858888f19350505050158015613b75573d6000803e3d6000fd5b505b613b91565b613b916001600160a01b038516848484614a53565b50505050565b6000818310613a0457816111ff565b600080613bcb84612067876020015164ffffffffff16426137c790919063ffffffff16565b90506000613bd985836137c7565b90506126e1856114b4613bec87866136c3565b8951612111906001600160d81b0316866136c3565b600080613c0c6150c9565b6000613c16611624565b86516001600160a01b038d166000908152601560209081526040918290208251808401909352546001600160d81b0381168352600160d81b900464ffffffffff1690820152919250613c6a91908390613ba6565b8083528651613c7991906139f4565b82526020868101516001600160a01b038c166000908152601683526040908190208151808301909252546001600160d81b0381168252600160d81b900464ffffffffff1692810192909252613cd091908390613ba6565b6020808401829052870151613ce59190613b97565b6020830152613cff6001600160a01b038c1633308c613a0b565b8551613d18906120036001600160a01b038e1630613622565b9350613d398b8b86856000015186602001518a600001518b60200151613116565b9250600083118015613d4b5750878310155b613d9c576040805162461bcd60e51b815260206004820152601f60248201527f4d6f6f6e69737761703a2072657475726e206973206e6f7420656e6f75676800604482015290519081900360640190fd5b613db06001600160a01b038b16888561375e565b8551825114613de7578151613de790613dc990866134cc565b6001600160a01b038d166000908152601560205260409020906149f6565b8560200151826020015114613e27576020820151613e2790613e0990856137c7565b6001600160a01b038c166000908152601660205260409020906149f6565b85516001600160a01b038c166000908152601660205260409020613e4c918390614adb565b6020808701516001600160a01b038c16600090815260159092526040909120613e76918390614adb565b509750975097945050505050565b600080600080600760009054906101000a90046001600160a01b03166001600160a01b031663172886e76040518163ffffffff1660e01b815260040160806040518083038186803b158015613ed857600080fd5b505afa158015613eec573d6000803e3d6000fd5b505050506040513d6080811015613f0257600080fd5b8101908080519060200190929190805190602001909291908051906020019092919080519060200190929190505050935093509350935060008060006ec097ce7bc90715b34b9f10000000009050613f7989600001516114b4613f728f8d600001516134cc90919063ffffffff16565b84906136c3565b60208a0151909150613f92906114b4613f72828f6137c7565b90506ec097ce7bc90715b34b9f100000000081111561434357613fb481614b17565b90506000613fd9826114b4613fd182670de0b6b3a76400006137c7565b61385b6111c7565b90506001600160a01b038b16613ff0576000614006565b614006670de0b6b3a76400006114b4838b6136c3565b93506001600160a01b03861661401d576000614033565b614033670de0b6b3a76400006114b4838a6136c3565b92506001600160a01b038516614068578315614053576140538b85613904565b8215614063576140638684613904565b614341565b60008411806140775750600083115b1561434157600080841161408c57600061408f565b60015b6000861161409e5760006140a1565b60015b0160ff16905060608167ffffffffffffffff811180156140c057600080fd5b506040519080825280602002602001820160405280156140ea578160200160208202803683370190505b50905060608267ffffffffffffffff8111801561410657600080fd5b50604051908082528060200260200182016040528015614130578160200160208202803683370190505b5090508d8260008151811061414157fe5b60200260200101906001600160a01b031690816001600160a01b031681525050868160008151811061416f57fe5b602090810291909101015285156141cd578882600185038151811061419057fe5b60200260200101906001600160a01b031690816001600160a01b031681525050858160018503815181106141c057fe5b6020026020010181815250505b604080517f0931753c000000000000000000000000000000000000000000000000000000008152600481019182528351604482015283516001600160a01b038b1692630931753c92869286929182916024820191606401906020808801910280838360005b8381101561424a578181015183820152602001614232565b50505050905001838103825284818151815260200191508051906020019060200280838360005b83811015614289578181015183820152602001614271565b50505050905001945050505050600060405180830381600087803b1580156142b057600080fd5b505af19250505080156142c1575060015b61432a576040805160208082526016908201527f757064617465526577617264732829206661696c6564000000000000000000008183015290517f08c379a0afcc32b1a39302f7cb8073359698411ab5fd6e3edb2c02c0b5fba8aa9181900360600190a161433d565b61433d8861433889896134cc565b613904565b5050505b505b88516020808b01518a518b83015160408051958652938501929092528383015260608301526080820185905260a08201849052517f2a368c7f33bb86e2d999940a3989d849031aff29b750f67947e6b8e8c3d2ffd69181900360c00190a1505050505050505050505050565b60408051848152831515602082015280820183905290516001600160a01b038616917fd0784d105a7412ffec29813ff8401f04f3d1cdbe6aca756974b1a31f830e5cb7919081900360600190a250505050565b600189015460028a01548190806144188b614b71565b1561442e57614427818a6137c7565b905061444f565b61444c61444561443e8d89614b76565b8b906136c3565b84906137c7565b92505b6144588a614b71565b1561446e5761446781896134cc565b905061448f565b61448c61448561447e8c89614b76565b8a906136c3565b84906134cc565b92505b83831461449e5760018d018390555b8181146144ad5760028d018190555b600087156144d2576144cd886114b46144c6858b6136c3565b87906134cc565b6144d4565b865b90506144de6150f6565b50604080516060810182528f546001600160681b038082168352600160681b82041660208301819052600160d01b90910465ffffffffffff16928201929092529082146145c6578e61453761453283613449565b612ee8565b61454084612ee8565b61454942614b92565b835479ffffffffffffffffffffffffffffffffffffffffffffffffffff16600160d01b65ffffffffffff9290921691909102177fffffffffffff00000000000000000000000000ffffffffffffffffffffffffff16600160681b6001600160681b0392831602176cffffffffffffffffffffffffff191691161790555b506145d390508a8c614bef565b6145f6576001600160a01b038c16600090815260038e01602052604090208a5190555b6146178c6146048c89614b76565b61460d8d614b71565b8b8963ffffffff16565b50505050505050505050505050565b816001600160a01b0316836001600160a01b03161415614645576137c2565b6007546001600160a01b0390811690600090851615806146da5750816001600160a01b0316633b90b9bf866040518263ffffffff1660e01b815260040180826001600160a01b0316815260200191505060206040518083038186803b1580156146ad57600080fd5b505afa1580156146c1573d6000803e3d6000fd5b505050506040513d60208110156146d757600080fd5b50515b15905060006001600160a01b038516158061476a5750826001600160a01b0316633b90b9bf866040518263ffffffff1660e01b815260040180826001600160a01b0316815260200191505060206040518083038186803b15801561473d57600080fd5b505afa158015614751573d6000803e3d6000fd5b505050506040513d602081101561476757600080fd5b50515b15905081158015614779575080155b15614786575050506137c2565b60006001600160a01b03871661479d5760006147a6565b6147a6876117b4565b905060006001600160a01b0387166147bf5760006147c8565b6147c8876117b4565b9050600061480a6001600160a01b038916156147e55760006147e7565b875b6120036001600160a01b038c1615614800576000614802565b895b6121116111c7565b9050614814615116565b6040518061010001604052808b6001600160a01b031681526020018a6001600160a01b03168152602001871515815260200186151581526020018981526020018581526020018481526020018381525090506000806000896001600160a01b031663edb7a6fa6040518163ffffffff1660e01b815260040160606040518083038186803b1580156148a457600080fd5b505afa1580156148b8573d6000803e3d6000fd5b505050506040513d60608110156148ce57600080fd5b508051602082015160409092015190945090925090506148f384846130c36008614bf6565b6149028483612f65600c614bf6565b61461784826143af6010614bf6565b600081836149605760405162461bcd60e51b81526020600482018181528351602484015283519092839260449091019190850190808383600083156134065781810151838201526020016133ee565b50600083858161496c57fe5b0495945050505050565b604080516001600160a01b038416602482015260448082018490528251808303909101815260649091019091526020810180517bffffffffffffffffffffffffffffffffffffffffffffffffffffffff167fa9059cbb000000000000000000000000000000000000000000000000000000001790526137c2908490614d70565b6149ff81614e21565b614a0842614e7b565b83546001600160d81b0392831664ffffffffff909216600160d81b029216919091177fffffffffff000000000000000000000000000000000000000000000000000000161790915550565b604080516001600160a01b0380861660248301528416604482015260648082018490528251808303909101815260849091019091526020810180517bffffffffffffffffffffffffffffffffffffffffffffffffffffffff167f23b872dd00000000000000000000000000000000000000000000000000000000179052613b91908590614d70565b6040805180820190915283546001600160d81b0381168252600160d81b900464ffffffffff1660208201526137c2908490613861908585613ba6565b60006003821115614b5b5781600160028204015b81811015614b5357809150600281828681614b4257fe5b040181614b4b57fe5b049050614b2b565b509050611718565b8115614b6957506001611718565b506000611718565b511590565b815160009015614b8c5750815160001901611079565b50919050565b600066010000000000008210612f42576040805162461bcd60e51b815260206004820152601d60248201527f76616c756520646f6573206e6f742066697420696e2034382062697473000000604482015290519081900360640190fd5b5190511490565b614bfe6150e3565b5083516001600160a01b03166000908152600382016020908152604091829020825191820190925290548152614c326150e3565b506020808601516001600160a01b031660009081526003840182526040908190208151928301909152548152614c6782614b71565b8015614c775750614c7781614b71565b8015614c84575085604001515b8015614c91575085606001515b15614d03578551614ccc90614ca68488614b76565b6001614cc38a608001518b60a001516137c790919063ffffffff16565b8863ffffffff16565b6020860151614cfc90614cdf8388614b76565b6001614cc38a608001518b60c001516134cc90919063ffffffff16565b5050613b91565b856040015115614d3d57855160a08701516080880151614d3d92918591614d2b9082906137c7565b60e08b01518894939291908b8b614ed7565b856060015115614d6857602086015160c08701516080880151614d6892918491614d2b9082906134cc565b505050505050565b6060614dc5826040518060400160405280602081526020017f5361666545524332303a206c6f772d6c6576656c2063616c6c206661696c6564815250856001600160a01b0316614efb9092919063ffffffff16565b8051909150156137c257808060200190516020811015614de457600080fd5b50516137c25760405162461bcd60e51b815260040180806020018281038252602a8152602001806152d8602a913960400191505060405180910390fd5b6000600160d81b8210612f42576040805162461bcd60e51b815260206004820152601e60248201527f76616c756520646f6573206e6f742066697420696e2032313620626974730000604482015290519081900360640190fd5b6000650100000000008210612f42576040805162461bcd60e51b815260206004820152601d60248201527f76616c756520646f6573206e6f742066697420696e2034302062697473000000604482015290519081900360640190fd5b612fc98888888715614ee95789614ef1565b614ef1613866565b8989898989614402565b60606111fc84846000856060614f1085615072565b614f61576040805162461bcd60e51b815260206004820152601d60248201527f416464726573733a2063616c6c20746f206e6f6e2d636f6e7472616374000000604482015290519081900360640190fd5b60006060866001600160a01b031685876040518082805190602001908083835b60208310614fa05780518252601f199092019160209182019101614f81565b6001836020036101000a03801982511681845116808217855250505050505090500191505060006040518083038185875af1925050503d8060008114615002576040519150601f19603f3d011682016040523d82523d6000602084013e615007565b606091505b5091509150811561501b5791506134c49050565b80511561502b5780518082602001fd5b60405162461bcd60e51b81526020600482018181528651602484015286518793919283926044019190850190808383600083156134065781810151838201526020016133ee565b6000813f7fc5d2460186f7233c927e7db2dcc703c0e500b653ca82273b7bfad8045d85a4708181148015906134c4575050151592915050565b60405180604001604052806002906020820280368337509192915050565b604051806040016040528060008152602001600081525090565b6040518060200160405280600081525090565b604080516060810182526000808252602082018190529181019190915290565b60405180610100016040528060006001600160a01b0316815260200160006001600160a01b0316815260200160001515815260200160001515815260200160008152602001600081526020016000815260200160008152509056fe45524332303a207472616e7366657220746f20746865207a65726f206164647265737345524332303a206275726e20616d6f756e7420657863656564732062616c616e63654f776e61626c653a206e6577206f776e657220697320746865207a65726f206164647265737345524332303a20617070726f766520746f20746865207a65726f206164647265737345524332303a207472616e7366657220616d6f756e7420657863656564732062616c616e6365536166654d6174683a206d756c7469706c69636174696f6e206f766572666c6f7745524332303a207472616e7366657220616d6f756e74206578636565647320616c6c6f77616e636545524332303a206275726e2066726f6d20746865207a65726f206164647265737345524332303a207472616e736665722066726f6d20746865207a65726f206164647265737345524332303a20617070726f76652066726f6d20746865207a65726f20616464726573735361666545524332303a204552433230206f7065726174696f6e20646964206e6f74207375636365656445524332303a2064656372656173656420616c6c6f77616e63652062656c6f77207a65726fa2646970667358221220f5acfd09e87c0e0c91649c917b687b73362797cc26a1c21a7d92ee5d568457a464736f6c634300060c0033",
  "immutableReferences": {
    "163": [
      {
        "length": 32,
        "start": 4225
      },
      {
        "length": 32,
        "start": 5120
      },
      {
        "length": 32,
        "start": 5751
      },
      {
        "length": 32,
        "start": 6518
      },
      {
        "length": 32,
        "start": 6647
      },
      {
        "length": 32,
        "start": 7479
      },
      {
        "length": 32,
        "start": 9248
      },
      {
        "length": 32,
        "start": 12611
      }
    ],
    "165": [
      {
        "length": 32,
        "start": 5157
      },
      {
        "length": 32,
        "start": 5799
      },
      {
        "length": 32,
        "start": 6573
      },
      {
        "length": 32,
        "start": 6782
      },
      {
        "length": 32,
        "start": 7516
      },
      {
        "length": 32,
        "start": 9326
      },
      {
        "length": 32,
        "start": 9903
      },
      {
        "length": 32,
        "start": 12672
      }
    ]
  },
  "source": "// SPDX-License-Identifier: MIT\n\npragma solidity ^0.6.0;\n\nimport \"@openzeppelin/contracts/math/Math.sol\";\nimport \"@openzeppelin/contracts/math/SafeMath.sol\";\nimport \"@openzeppelin/contracts/token/ERC20/ERC20.sol\";\nimport \"./interfaces/IFeeCollector.sol\";\nimport \"./libraries/UniERC20.sol\";\nimport \"./libraries/Sqrt.sol\";\nimport \"./libraries/VirtualBalance.sol\";\nimport \"./governance/MooniswapGovernance.sol\";\n\n\ncontract Mooniswap is MooniswapGovernance {\n    using Sqrt for uint256;\n    using SafeMath for uint256;\n    using UniERC20 for IERC20;\n    using VirtualBalance for VirtualBalance.Data;\n\n    struct Balances {\n        uint256 src;\n        uint256 dst;\n    }\n\n    struct SwapVolumes {\n        uint128 confirmed;\n        uint128 result;\n    }\n\n    struct Fees {\n        uint256 fee;\n        uint256 slippageFee;\n    }\n\n    event Error(string reason);\n\n    event Deposited(\n        address indexed sender,\n        address indexed receiver,\n        uint256 share,\n        uint256 token0Amount,\n        uint256 token1Amount\n    );\n\n    event Withdrawn(\n        address indexed sender,\n        address indexed receiver,\n        uint256 share,\n        uint256 token0Amount,\n        uint256 token1Amount\n    );\n\n    event Swapped(\n        address indexed sender,\n        address indexed receiver,\n        address indexed srcToken,\n        address dstToken,\n        uint256 amount,\n        uint256 result,\n        uint256 srcAdditionBalance,\n        uint256 dstRemovalBalance,\n        address referral\n    );\n\n    event Sync(\n        uint256 srcBalance,\n        uint256 dstBalance,\n        uint256 fee,\n        uint256 slippageFee,\n        uint256 referralShare,\n        uint256 governanceShare\n    );\n\n    uint256 private constant _BASE_SUPPLY = 1000;  // Total supply on first deposit\n\n    IERC20 public immutable token0;\n    IERC20 public immutable token1;\n    mapping(IERC20 => SwapVolumes) public volumes;\n    mapping(IERC20 => VirtualBalance.Data) public virtualBalancesForAddition;\n    mapping(IERC20 => VirtualBalance.Data) public virtualBalancesForRemoval;\n\n    modifier whenNotShutdown {\n        require(mooniswapFactoryGovernance.isActive(), \"Mooniswap: factory shutdown\");\n        _;\n    }\n\n    constructor(\n        IERC20 _token0,\n        IERC20 _token1,\n        string memory name,\n        string memory symbol,\n        IMooniswapFactoryGovernance _mooniswapFactoryGovernance\n    )\n        public\n        ERC20(name, symbol)\n        MooniswapGovernance(_mooniswapFactoryGovernance)\n    {\n        require(bytes(name).length > 0, \"Mooniswap: name is empty\");\n        require(bytes(symbol).length > 0, \"Mooniswap: symbol is empty\");\n        require(_token0 != _token1, \"Mooniswap: duplicate tokens\");\n        token0 = _token0;\n        token1 = _token1;\n    }\n\n    function getTokens() external view returns(IERC20[] memory tokens) {\n        tokens = new IERC20[](2);\n        tokens[0] = token0;\n        tokens[1] = token1;\n    }\n\n    function tokens(uint256 i) external view returns(IERC20) {\n        if (i == 0) {\n            return token0;\n        } else if (i == 1) {\n            return token1;\n        } else {\n            revert(\"Pool has two tokens\");\n        }\n    }\n\n    function getBalanceForAddition(IERC20 token) public view returns(uint256) {\n        uint256 balance = token.uniBalanceOf(address(this));\n        return Math.max(virtualBalancesForAddition[token].current(decayPeriod(), balance), balance);\n    }\n\n    function getBalanceForRemoval(IERC20 token) public view returns(uint256) {\n        uint256 balance = token.uniBalanceOf(address(this));\n        return Math.min(virtualBalancesForRemoval[token].current(decayPeriod(), balance), balance);\n    }\n\n    function getReturn(IERC20 src, IERC20 dst, uint256 amount) external view returns(uint256) {\n        return _getReturn(src, dst, amount, getBalanceForAddition(src), getBalanceForRemoval(dst), fee(), slippageFee());\n    }\n\n    function deposit(uint256[2] memory maxAmounts, uint256[2] memory minAmounts) external payable returns(uint256 fairSupply, uint256[2] memory receivedAmounts) {\n        return depositFor(maxAmounts, minAmounts, msg.sender);\n    }\n\n    function depositFor(uint256[2] memory maxAmounts, uint256[2] memory minAmounts, address target) public payable nonReentrant returns(uint256 fairSupply, uint256[2] memory receivedAmounts) {\n        IERC20[2] memory _tokens = [token0, token1];\n        require(msg.value == (_tokens[0].isETH() ? maxAmounts[0] : (_tokens[1].isETH() ? maxAmounts[1] : 0)), \"Mooniswap: wrong value usage\");\n\n        uint256 totalSupply = totalSupply();\n\n        if (totalSupply == 0) {\n            fairSupply = _BASE_SUPPLY.mul(99);\n            _mint(address(this), _BASE_SUPPLY); // Donate up to 1%\n\n            for (uint i = 0; i < maxAmounts.length; i++) {\n                fairSupply = Math.max(fairSupply, maxAmounts[i]);\n\n                require(maxAmounts[i] > 0, \"Mooniswap: amount is zero\");\n                require(maxAmounts[i] >= minAmounts[i], \"Mooniswap: minAmount not reached\");\n\n                _tokens[i].uniTransferFrom(msg.sender, address(this), maxAmounts[i]);\n                receivedAmounts[i] = maxAmounts[i];\n            }\n        }\n        else {\n            uint256[2] memory realBalances;\n            for (uint i = 0; i < realBalances.length; i++) {\n                realBalances[i] = _tokens[i].uniBalanceOf(address(this)).sub(_tokens[i].isETH() ? msg.value : 0);\n            }\n\n            // Pre-compute fair supply\n            fairSupply = type(uint256).max;\n            for (uint i = 0; i < maxAmounts.length; i++) {\n                fairSupply = Math.min(fairSupply, totalSupply.mul(maxAmounts[i]).div(realBalances[i]));\n            }\n\n            uint256 fairSupplyCached = fairSupply;\n\n            for (uint i = 0; i < maxAmounts.length; i++) {\n                require(maxAmounts[i] > 0, \"Mooniswap: amount is zero\");\n                uint256 amount = realBalances[i].mul(fairSupplyCached).add(totalSupply - 1).div(totalSupply);\n                require(amount >= minAmounts[i], \"Mooniswap: minAmount not reached\");\n\n                _tokens[i].uniTransferFrom(msg.sender, address(this), amount);\n                receivedAmounts[i] = _tokens[i].uniBalanceOf(address(this)).sub(realBalances[i]);\n                fairSupply = Math.min(fairSupply, totalSupply.mul(receivedAmounts[i]).div(realBalances[i]));\n            }\n\n            uint256 _decayPeriod = decayPeriod();  // gas savings\n            for (uint i = 0; i < maxAmounts.length; i++) {\n                virtualBalancesForRemoval[_tokens[i]].scale(_decayPeriod, realBalances[i], totalSupply.add(fairSupply), totalSupply);\n                virtualBalancesForAddition[_tokens[i]].scale(_decayPeriod, realBalances[i], totalSupply.add(fairSupply), totalSupply);\n            }\n        }\n\n        require(fairSupply > 0, \"Mooniswap: result is not enough\");\n        _mint(target, fairSupply);\n\n        emit Deposited(msg.sender, target, fairSupply, receivedAmounts[0], receivedAmounts[1]);\n    }\n\n    function withdraw(uint256 amount, uint256[] memory minReturns) external returns(uint256[2] memory withdrawnAmounts) {\n        return withdrawFor(amount, minReturns, msg.sender);\n    }\n\n    function withdrawFor(uint256 amount, uint256[] memory minReturns, address payable target) public nonReentrant returns(uint256[2] memory withdrawnAmounts) {\n        IERC20[2] memory _tokens = [token0, token1];\n\n        uint256 totalSupply = totalSupply();\n        uint256 _decayPeriod = decayPeriod();  // gas savings\n        _burn(msg.sender, amount);\n\n        for (uint i = 0; i < _tokens.length; i++) {\n            IERC20 token = _tokens[i];\n\n            uint256 preBalance = token.uniBalanceOf(address(this));\n            uint256 value = preBalance.mul(amount).div(totalSupply);\n            token.uniTransfer(target, value);\n            withdrawnAmounts[i] = value;\n            require(i >= minReturns.length || value >= minReturns[i], \"Mooniswap: result is not enough\");\n\n            virtualBalancesForAddition[token].scale(_decayPeriod, preBalance, totalSupply.sub(amount), totalSupply);\n            virtualBalancesForRemoval[token].scale(_decayPeriod, preBalance, totalSupply.sub(amount), totalSupply);\n        }\n\n        emit Withdrawn(msg.sender, target, amount, withdrawnAmounts[0], withdrawnAmounts[1]);\n    }\n\n    function swap(IERC20 src, IERC20 dst, uint256 amount, uint256 minReturn, address referral) external payable returns(uint256 result) {\n        return swapFor(src, dst, amount, minReturn, referral, msg.sender);\n    }\n\n    function swapFor(IERC20 src, IERC20 dst, uint256 amount, uint256 minReturn, address referral, address payable receiver) public payable nonReentrant whenNotShutdown returns(uint256 result) {\n        require(msg.value == (src.isETH() ? amount : 0), \"Mooniswap: wrong value usage\");\n\n        Balances memory balances = Balances({\n            src: src.uniBalanceOf(address(this)).sub(src.isETH() ? msg.value : 0),\n            dst: dst.uniBalanceOf(address(this))\n        });\n        uint256 confirmed;\n        Balances memory virtualBalances;\n        Fees memory fees = Fees({\n            fee: fee(),\n            slippageFee: slippageFee()\n        });\n        (confirmed, result, virtualBalances) = _doTransfers(src, dst, amount, minReturn, receiver, balances, fees);\n        emit Swapped(msg.sender, receiver, address(src), address(dst), confirmed, result, virtualBalances.src, virtualBalances.dst, referral);\n        _mintRewards(confirmed, result, referral, balances, fees);\n\n        // Overflow of uint128 is desired\n        volumes[src].confirmed += uint128(confirmed);\n        volumes[src].result += uint128(result);\n    }\n\n    function _doTransfers(IERC20 src, IERC20 dst, uint256 amount, uint256 minReturn, address payable receiver, Balances memory balances, Fees memory fees)\n        private returns(uint256 confirmed, uint256 result, Balances memory virtualBalances)\n    {\n        uint256 _decayPeriod = decayPeriod();\n        virtualBalances.src = virtualBalancesForAddition[src].current(_decayPeriod, balances.src);\n        virtualBalances.src = Math.max(virtualBalances.src, balances.src);\n        virtualBalances.dst = virtualBalancesForRemoval[dst].current(_decayPeriod, balances.dst);\n        virtualBalances.dst = Math.min(virtualBalances.dst, balances.dst);\n        src.uniTransferFrom(msg.sender, address(this), amount);\n        confirmed = src.uniBalanceOf(address(this)).sub(balances.src);\n        result = _getReturn(src, dst, confirmed, virtualBalances.src, virtualBalances.dst, fees.fee, fees.slippageFee);\n        require(result > 0 && result >= minReturn, \"Mooniswap: return is not enough\");\n        dst.uniTransfer(receiver, result);\n\n        // Update virtual balances to the same direction only at imbalanced state\n        if (virtualBalances.src != balances.src) {\n            virtualBalancesForAddition[src].set(virtualBalances.src.add(confirmed));\n        }\n        if (virtualBalances.dst != balances.dst) {\n            virtualBalancesForRemoval[dst].set(virtualBalances.dst.sub(result));\n        }\n        // Update virtual balances to the opposite direction\n        virtualBalancesForRemoval[src].update(_decayPeriod, balances.src);\n        virtualBalancesForAddition[dst].update(_decayPeriod, balances.dst);\n    }\n\n    function _mintRewards(uint256 confirmed, uint256 result, address referral, Balances memory balances, Fees memory fees) private {\n        (uint256 referralShare, uint256 governanceShare, address govWallet, address feeCollector) = mooniswapFactoryGovernance.shareParameters();\n\n        uint256 refReward;\n        uint256 govReward;\n\n        uint256 invariantRatio = uint256(1e36);\n        invariantRatio = invariantRatio.mul(balances.src.add(confirmed)).div(balances.src);\n        invariantRatio = invariantRatio.mul(balances.dst.sub(result)).div(balances.dst);\n        if (invariantRatio > 1e36) {\n            // calculate share only if invariant increased\n            invariantRatio = invariantRatio.sqrt();\n            uint256 invIncrease = totalSupply().mul(invariantRatio.sub(1e18)).div(invariantRatio);\n\n            refReward = (referral != address(0)) ? invIncrease.mul(referralShare).div(MooniswapConstants._FEE_DENOMINATOR) : 0;\n            govReward = (govWallet != address(0)) ? invIncrease.mul(governanceShare).div(MooniswapConstants._FEE_DENOMINATOR) : 0;\n\n            if (feeCollector == address(0)) {\n                if (refReward > 0) {\n                    _mint(referral, refReward);\n                }\n                if (govReward > 0) {\n                    _mint(govWallet, govReward);\n                }\n            }\n            else if (refReward > 0 || govReward > 0) {\n                uint256 len = (refReward > 0 ? 1 : 0) + (govReward > 0 ? 1 : 0);\n                address[] memory wallets = new address[](len);\n                uint256[] memory rewards = new uint256[](len);\n\n                wallets[0] = referral;\n                rewards[0] = refReward;\n                if (govReward > 0) {\n                    wallets[len - 1] = govWallet;\n                    rewards[len - 1] = govReward;\n                }\n\n                try IFeeCollector(feeCollector).updateRewards(wallets, rewards) {\n                    _mint(feeCollector, refReward.add(govReward));\n                }\n                catch {\n                    emit Error(\"updateRewards() failed\");\n                }\n            }\n        }\n\n        emit Sync(balances.src, balances.dst, fees.fee, fees.slippageFee, refReward, govReward);\n    }\n\n    /*\n        spot_ret = dx * y / x\n        uni_ret = dx * y / (x + dx)\n        slippage = (spot_ret - uni_ret) / spot_ret\n        slippage = dx * dx * y / (x * (x + dx)) / (dx * y / x)\n        slippage = dx / (x + dx)\n        ret = uni_ret * (1 - slip_fee * slippage)\n        ret = dx * y / (x + dx) * (1 - slip_fee * dx / (x + dx))\n        ret = dx * y / (x + dx) * (x + dx - slip_fee * dx) / (x + dx)\n\n        x = amount * denominator\n        dx = amount * (denominator - fee)\n    */\n    function _getReturn(IERC20 src, IERC20 dst, uint256 amount, uint256 srcBalance, uint256 dstBalance, uint256 fee, uint256 slippageFee) internal view returns(uint256) {\n        if (src > dst) {\n            (src, dst) = (dst, src);\n        }\n        if (amount > 0 && src == token0 && dst == token1) {\n            uint256 taxedAmount = amount.sub(amount.mul(fee).div(MooniswapConstants._FEE_DENOMINATOR));\n            uint256 srcBalancePlusTaxedAmount = srcBalance.add(taxedAmount);\n            uint256 ret = taxedAmount.mul(dstBalance).div(srcBalancePlusTaxedAmount);\n            uint256 feeNumerator = MooniswapConstants._FEE_DENOMINATOR.mul(srcBalancePlusTaxedAmount).sub(slippageFee.mul(taxedAmount));\n            uint256 feeDenominator = MooniswapConstants._FEE_DENOMINATOR.mul(srcBalancePlusTaxedAmount);\n            return ret.mul(feeNumerator).div(feeDenominator);\n        }\n    }\n\n    function rescueFunds(IERC20 token, uint256 amount) external nonReentrant onlyOwner {\n        uint256 balance0 = token0.uniBalanceOf(address(this));\n        uint256 balance1 = token1.uniBalanceOf(address(this));\n\n        token.uniTransfer(msg.sender, amount);\n\n        require(token0.uniBalanceOf(address(this)) >= balance0, \"Mooniswap: access denied\");\n        require(token1.uniBalanceOf(address(this)) >= balance1, \"Mooniswap: access denied\");\n        require(balanceOf(address(this)) >= _BASE_SUPPLY, \"Mooniswap: access denied\");\n    }\n}\n",
  "sourcePath": "/Users/k06a/Projects/mooniswap-v2/contracts/Mooniswap.sol",
  "compiler": {
    "name": "solc",
    "version": "0.6.12+commit.27d51765.Emscripten.clang"
  },
  "schemaVersion": "3.3.3",
  "updatedAt": "2021-01-07T10:25:20.501Z",
  "devdoc": {
    "kind": "dev",
    "methods": {
      "allowance(address,address)": {
        "details": "See {IERC20-allowance}."
      },
      "approve(address,uint256)": {
        "details": "See {IERC20-approve}. Requirements: - `spender` cannot be the zero address."
      },
      "balanceOf(address)": {
        "details": "See {IERC20-balanceOf}."
      },
      "decimals()": {
        "details": "Returns the number of decimals used to get its user representation. For example, if `decimals` equals `2`, a balance of `505` tokens should be displayed to a user as `5,05` (`505 / 10 ** 2`). Tokens usually opt for a value of 18, imitating the relationship between Ether and Wei. This is the value {ERC20} uses, unless {_setupDecimals} is called. NOTE: This information is only used for _display_ purposes: it in no way affects any of the arithmetic of the contract, including {IERC20-balanceOf} and {IERC20-transfer}."
      },
      "decreaseAllowance(address,uint256)": {
        "details": "Atomically decreases the allowance granted to `spender` by the caller. This is an alternative to {approve} that can be used as a mitigation for problems described in {IERC20-approve}. Emits an {Approval} event indicating the updated allowance. Requirements: - `spender` cannot be the zero address. - `spender` must have allowance for the caller of at least `subtractedValue`."
      },
      "increaseAllowance(address,uint256)": {
        "details": "Atomically increases the allowance granted to `spender` by the caller. This is an alternative to {approve} that can be used as a mitigation for problems described in {IERC20-approve}. Emits an {Approval} event indicating the updated allowance. Requirements: - `spender` cannot be the zero address."
      },
      "name()": {
        "details": "Returns the name of the token."
      },
      "owner()": {
        "details": "Returns the address of the current owner."
      },
      "renounceOwnership()": {
        "details": "Leaves the contract without owner. It will not be possible to call `onlyOwner` functions anymore. Can only be called by the current owner. NOTE: Renouncing ownership will leave the contract without an owner, thereby removing any functionality that is only available to the owner."
      },
      "symbol()": {
        "details": "Returns the symbol of the token, usually a shorter version of the name."
      },
      "totalSupply()": {
        "details": "See {IERC20-totalSupply}."
      },
      "transfer(address,uint256)": {
        "details": "See {IERC20-transfer}. Requirements: - `recipient` cannot be the zero address. - the caller must have a balance of at least `amount`."
      },
      "transferFrom(address,address,uint256)": {
        "details": "See {IERC20-transferFrom}. Emits an {Approval} event indicating the updated allowance. This is not required by the EIP. See the note at the beginning of {ERC20}; Requirements: - `sender` and `recipient` cannot be the zero address. - `sender` must have a balance of at least `amount`. - the caller must have allowance for ``sender``'s tokens of at least `amount`."
      },
      "transferOwnership(address)": {
        "details": "Transfers ownership of the contract to a new account (`newOwner`). Can only be called by the current owner."
      }
    },
    "version": 1
  },
  "userdoc": {
    "kind": "user",
    "methods": {},
    "version": 1
  }
}