{
  "contractName": "Mooniswap",
  "abi": [
    {
      "inputs": [
        {
          "internalType": "contract IERC20",
          "name": "_token0",
          "type": "address"
        },
        {
          "internalType": "contract IERC20",
          "name": "_token1",
          "type": "address"
        },
        {
          "internalType": "string",
          "name": "name",
          "type": "string"
        },
        {
          "internalType": "string",
          "name": "symbol",
          "type": "string"
        },
        {
          "internalType": "contract IMooniswapFactoryGovernance",
          "name": "_mooniswapFactoryGovernance",
          "type": "address"
        }
      ],
      "stateMutability": "nonpayable",
      "type": "constructor"
    },
    {
      "anonymous": false,
      "inputs": [
        {
          "indexed": true,
          "internalType": "address",
          "name": "owner",
          "type": "address"
        },
        {
          "indexed": true,
          "internalType": "address",
          "name": "spender",
          "type": "address"
        },
        {
          "indexed": false,
          "internalType": "uint256",
          "name": "value",
          "type": "uint256"
        }
      ],
      "name": "Approval",
      "type": "event"
    },
    {
      "anonymous": false,
      "inputs": [
        {
          "indexed": true,
          "internalType": "address",
          "name": "user",
          "type": "address"
        },
        {
          "indexed": false,
          "internalType": "uint256",
          "name": "decayPeriod",
          "type": "uint256"
        },
        {
          "indexed": false,
          "internalType": "bool",
          "name": "isDefault",
          "type": "bool"
        },
        {
          "indexed": false,
          "internalType": "uint256",
          "name": "amount",
          "type": "uint256"
        }
      ],
      "name": "DecayPeriodVoteUpdate",
      "type": "event"
    },
    {
      "anonymous": false,
      "inputs": [
        {
          "indexed": true,
          "internalType": "address",
          "name": "sender",
          "type": "address"
        },
        {
          "indexed": true,
          "internalType": "address",
          "name": "receiver",
          "type": "address"
        },
        {
          "indexed": false,
          "internalType": "uint256",
          "name": "share",
          "type": "uint256"
        },
        {
          "indexed": false,
          "internalType": "uint256",
          "name": "token0Amount",
          "type": "uint256"
        },
        {
          "indexed": false,
          "internalType": "uint256",
          "name": "token1Amount",
          "type": "uint256"
        }
      ],
      "name": "Deposited",
      "type": "event"
    },
    {
      "anonymous": false,
      "inputs": [
        {
          "indexed": true,
          "internalType": "address",
          "name": "user",
          "type": "address"
        },
        {
          "indexed": false,
          "internalType": "uint256",
          "name": "fee",
          "type": "uint256"
        },
        {
          "indexed": false,
          "internalType": "bool",
          "name": "isDefault",
          "type": "bool"
        },
        {
          "indexed": false,
          "internalType": "uint256",
          "name": "amount",
          "type": "uint256"
        }
      ],
      "name": "FeeVoteUpdate",
      "type": "event"
    },
    {
      "anonymous": false,
      "inputs": [
        {
          "indexed": true,
          "internalType": "address",
          "name": "previousOwner",
          "type": "address"
        },
        {
          "indexed": true,
          "internalType": "address",
          "name": "newOwner",
          "type": "address"
        }
      ],
      "name": "OwnershipTransferred",
      "type": "event"
    },
    {
      "anonymous": false,
      "inputs": [
        {
          "indexed": true,
          "internalType": "address",
          "name": "user",
          "type": "address"
        },
        {
          "indexed": false,
          "internalType": "uint256",
          "name": "slippageFee",
          "type": "uint256"
        },
        {
          "indexed": false,
          "internalType": "bool",
          "name": "isDefault",
          "type": "bool"
        },
        {
          "indexed": false,
          "internalType": "uint256",
          "name": "amount",
          "type": "uint256"
        }
      ],
      "name": "SlippageFeeVoteUpdate",
      "type": "event"
    },
    {
      "anonymous": false,
      "inputs": [
        {
          "indexed": true,
          "internalType": "address",
          "name": "sender",
          "type": "address"
        },
        {
          "indexed": true,
          "internalType": "address",
          "name": "receiver",
          "type": "address"
        },
        {
          "indexed": true,
          "internalType": "address",
          "name": "srcToken",
          "type": "address"
        },
        {
          "indexed": false,
          "internalType": "address",
          "name": "dstToken",
          "type": "address"
        },
        {
          "indexed": false,
          "internalType": "uint256",
          "name": "amount",
          "type": "uint256"
        },
        {
          "indexed": false,
          "internalType": "uint256",
          "name": "result",
          "type": "uint256"
        },
        {
          "indexed": false,
          "internalType": "uint256",
          "name": "srcAdditionBalance",
          "type": "uint256"
        },
        {
          "indexed": false,
          "internalType": "uint256",
          "name": "dstRemovalBalance",
          "type": "uint256"
        },
        {
          "indexed": false,
          "internalType": "address",
          "name": "referral",
          "type": "address"
        }
      ],
      "name": "Swapped",
      "type": "event"
    },
    {
      "anonymous": false,
      "inputs": [
        {
          "indexed": false,
          "internalType": "uint256",
          "name": "srcBalance",
          "type": "uint256"
        },
        {
          "indexed": false,
          "internalType": "uint256",
          "name": "dstBalance",
          "type": "uint256"
        },
        {
          "indexed": false,
          "internalType": "uint256",
          "name": "fee",
          "type": "uint256"
        },
        {
          "indexed": false,
          "internalType": "uint256",
          "name": "slippageFee",
          "type": "uint256"
        },
        {
          "indexed": false,
          "internalType": "uint256",
          "name": "referralShare",
          "type": "uint256"
        },
        {
          "indexed": false,
          "internalType": "uint256",
          "name": "governanceShare",
          "type": "uint256"
        }
      ],
      "name": "Sync",
      "type": "event"
    },
    {
      "anonymous": false,
      "inputs": [
        {
          "indexed": true,
          "internalType": "address",
          "name": "from",
          "type": "address"
        },
        {
          "indexed": true,
          "internalType": "address",
          "name": "to",
          "type": "address"
        },
        {
          "indexed": false,
          "internalType": "uint256",
          "name": "value",
          "type": "uint256"
        }
      ],
      "name": "Transfer",
      "type": "event"
    },
    {
      "anonymous": false,
      "inputs": [
        {
          "indexed": true,
          "internalType": "address",
          "name": "sender",
          "type": "address"
        },
        {
          "indexed": true,
          "internalType": "address",
          "name": "receiver",
          "type": "address"
        },
        {
          "indexed": false,
          "internalType": "uint256",
          "name": "share",
          "type": "uint256"
        },
        {
          "indexed": false,
          "internalType": "uint256",
          "name": "token0Amount",
          "type": "uint256"
        },
        {
          "indexed": false,
          "internalType": "uint256",
          "name": "token1Amount",
          "type": "uint256"
        }
      ],
      "name": "Withdrawn",
      "type": "event"
    },
    {
      "inputs": [
        {
          "internalType": "address",
          "name": "owner",
          "type": "address"
        },
        {
          "internalType": "address",
          "name": "spender",
          "type": "address"
        }
      ],
      "name": "allowance",
      "outputs": [
        {
          "internalType": "uint256",
          "name": "",
          "type": "uint256"
        }
      ],
      "stateMutability": "view",
      "type": "function"
    },
    {
      "inputs": [
        {
          "internalType": "address",
          "name": "spender",
          "type": "address"
        },
        {
          "internalType": "uint256",
          "name": "amount",
          "type": "uint256"
        }
      ],
      "name": "approve",
      "outputs": [
        {
          "internalType": "bool",
          "name": "",
          "type": "bool"
        }
      ],
      "stateMutability": "nonpayable",
      "type": "function"
    },
    {
      "inputs": [
        {
          "internalType": "address",
          "name": "account",
          "type": "address"
        }
      ],
      "name": "balanceOf",
      "outputs": [
        {
          "internalType": "uint256",
          "name": "",
          "type": "uint256"
        }
      ],
      "stateMutability": "view",
      "type": "function"
    },
    {
      "inputs": [],
      "name": "decayPeriod",
      "outputs": [
        {
          "internalType": "uint256",
          "name": "",
          "type": "uint256"
        }
      ],
      "stateMutability": "view",
      "type": "function"
    },
    {
      "inputs": [
        {
          "internalType": "uint256",
          "name": "vote",
          "type": "uint256"
        }
      ],
      "name": "decayPeriodVote",
      "outputs": [],
      "stateMutability": "nonpayable",
      "type": "function"
    },
    {
      "inputs": [
        {
          "internalType": "address",
          "name": "user",
          "type": "address"
        }
      ],
      "name": "decayPeriodVotes",
      "outputs": [
        {
          "internalType": "uint256",
          "name": "",
          "type": "uint256"
        }
      ],
      "stateMutability": "view",
      "type": "function"
    },
    {
      "inputs": [],
      "name": "decimals",
      "outputs": [
        {
          "internalType": "uint8",
          "name": "",
          "type": "uint8"
        }
      ],
      "stateMutability": "view",
      "type": "function"
    },
    {
      "inputs": [
        {
          "internalType": "address",
          "name": "spender",
          "type": "address"
        },
        {
          "internalType": "uint256",
          "name": "subtractedValue",
          "type": "uint256"
        }
      ],
      "name": "decreaseAllowance",
      "outputs": [
        {
          "internalType": "bool",
          "name": "",
          "type": "bool"
        }
      ],
      "stateMutability": "nonpayable",
      "type": "function"
    },
    {
      "inputs": [],
      "name": "discardDecayPeriodVote",
      "outputs": [],
      "stateMutability": "nonpayable",
      "type": "function"
    },
    {
      "inputs": [],
      "name": "discardFeeVote",
      "outputs": [],
      "stateMutability": "nonpayable",
      "type": "function"
    },
    {
      "inputs": [],
      "name": "discardSlippageFeeVote",
      "outputs": [],
      "stateMutability": "nonpayable",
      "type": "function"
    },
    {
      "inputs": [],
      "name": "fee",
      "outputs": [
        {
          "internalType": "uint256",
          "name": "",
          "type": "uint256"
        }
      ],
      "stateMutability": "view",
      "type": "function"
    },
    {
      "inputs": [
        {
          "internalType": "uint256",
          "name": "vote",
          "type": "uint256"
        }
      ],
      "name": "feeVote",
      "outputs": [],
      "stateMutability": "nonpayable",
      "type": "function"
    },
    {
      "inputs": [
        {
          "internalType": "address",
          "name": "user",
          "type": "address"
        }
      ],
      "name": "feeVotes",
      "outputs": [
        {
          "internalType": "uint256",
          "name": "",
          "type": "uint256"
        }
      ],
      "stateMutability": "view",
      "type": "function"
    },
    {
      "inputs": [
        {
          "internalType": "address",
          "name": "spender",
          "type": "address"
        },
        {
          "internalType": "uint256",
          "name": "addedValue",
          "type": "uint256"
        }
      ],
      "name": "increaseAllowance",
      "outputs": [
        {
          "internalType": "bool",
          "name": "",
          "type": "bool"
        }
      ],
      "stateMutability": "nonpayable",
      "type": "function"
    },
    {
      "inputs": [],
      "name": "mooniswapFactoryGovernance",
      "outputs": [
        {
          "internalType": "contract IMooniswapFactoryGovernance",
          "name": "",
          "type": "address"
        }
      ],
      "stateMutability": "view",
      "type": "function"
    },
    {
      "inputs": [],
      "name": "name",
      "outputs": [
        {
          "internalType": "string",
          "name": "",
          "type": "string"
        }
      ],
      "stateMutability": "view",
      "type": "function"
    },
    {
      "inputs": [],
      "name": "owner",
      "outputs": [
        {
          "internalType": "address",
          "name": "",
          "type": "address"
        }
      ],
      "stateMutability": "view",
      "type": "function"
    },
    {
      "inputs": [],
      "name": "renounceOwnership",
      "outputs": [],
      "stateMutability": "nonpayable",
      "type": "function"
    },
    {
      "inputs": [],
      "name": "slippageFee",
      "outputs": [
        {
          "internalType": "uint256",
          "name": "",
          "type": "uint256"
        }
      ],
      "stateMutability": "view",
      "type": "function"
    },
    {
      "inputs": [
        {
          "internalType": "uint256",
          "name": "vote",
          "type": "uint256"
        }
      ],
      "name": "slippageFeeVote",
      "outputs": [],
      "stateMutability": "nonpayable",
      "type": "function"
    },
    {
      "inputs": [
        {
          "internalType": "address",
          "name": "user",
          "type": "address"
        }
      ],
      "name": "slippageFeeVotes",
      "outputs": [
        {
          "internalType": "uint256",
          "name": "",
          "type": "uint256"
        }
      ],
      "stateMutability": "view",
      "type": "function"
    },
    {
      "inputs": [],
      "name": "symbol",
      "outputs": [
        {
          "internalType": "string",
          "name": "",
          "type": "string"
        }
      ],
      "stateMutability": "view",
      "type": "function"
    },
    {
      "inputs": [],
      "name": "token0",
      "outputs": [
        {
          "internalType": "contract IERC20",
          "name": "",
          "type": "address"
        }
      ],
      "stateMutability": "view",
      "type": "function"
    },
    {
      "inputs": [],
      "name": "token1",
      "outputs": [
        {
          "internalType": "contract IERC20",
          "name": "",
          "type": "address"
        }
      ],
      "stateMutability": "view",
      "type": "function"
    },
    {
      "inputs": [],
      "name": "totalSupply",
      "outputs": [
        {
          "internalType": "uint256",
          "name": "",
          "type": "uint256"
        }
      ],
      "stateMutability": "view",
      "type": "function"
    },
    {
      "inputs": [
        {
          "internalType": "address",
          "name": "recipient",
          "type": "address"
        },
        {
          "internalType": "uint256",
          "name": "amount",
          "type": "uint256"
        }
      ],
      "name": "transfer",
      "outputs": [
        {
          "internalType": "bool",
          "name": "",
          "type": "bool"
        }
      ],
      "stateMutability": "nonpayable",
      "type": "function"
    },
    {
      "inputs": [
        {
          "internalType": "address",
          "name": "sender",
          "type": "address"
        },
        {
          "internalType": "address",
          "name": "recipient",
          "type": "address"
        },
        {
          "internalType": "uint256",
          "name": "amount",
          "type": "uint256"
        }
      ],
      "name": "transferFrom",
      "outputs": [
        {
          "internalType": "bool",
          "name": "",
          "type": "bool"
        }
      ],
      "stateMutability": "nonpayable",
      "type": "function"
    },
    {
      "inputs": [
        {
          "internalType": "address",
          "name": "newOwner",
          "type": "address"
        }
      ],
      "name": "transferOwnership",
      "outputs": [],
      "stateMutability": "nonpayable",
      "type": "function"
    },
    {
      "inputs": [
        {
          "internalType": "contract IERC20",
          "name": "",
          "type": "address"
        }
      ],
      "name": "virtualBalancesForAddition",
      "outputs": [
        {
          "internalType": "uint216",
          "name": "balance",
          "type": "uint216"
        },
        {
          "internalType": "uint40",
          "name": "time",
          "type": "uint40"
        }
      ],
      "stateMutability": "view",
      "type": "function"
    },
    {
      "inputs": [
        {
          "internalType": "contract IERC20",
          "name": "",
          "type": "address"
        }
      ],
      "name": "virtualBalancesForRemoval",
      "outputs": [
        {
          "internalType": "uint216",
          "name": "balance",
          "type": "uint216"
        },
        {
          "internalType": "uint40",
          "name": "time",
          "type": "uint40"
        }
      ],
      "stateMutability": "view",
      "type": "function"
    },
    {
      "inputs": [],
      "name": "virtualDecayPeriod",
      "outputs": [
        {
          "internalType": "uint104",
          "name": "",
          "type": "uint104"
        },
        {
          "internalType": "uint104",
          "name": "",
          "type": "uint104"
        },
        {
          "internalType": "uint48",
          "name": "",
          "type": "uint48"
        }
      ],
      "stateMutability": "view",
      "type": "function"
    },
    {
      "inputs": [],
      "name": "virtualFee",
      "outputs": [
        {
          "internalType": "uint104",
          "name": "",
          "type": "uint104"
        },
        {
          "internalType": "uint104",
          "name": "",
          "type": "uint104"
        },
        {
          "internalType": "uint48",
          "name": "",
          "type": "uint48"
        }
      ],
      "stateMutability": "view",
      "type": "function"
    },
    {
      "inputs": [],
      "name": "virtualSlippageFee",
      "outputs": [
        {
          "internalType": "uint104",
          "name": "",
          "type": "uint104"
        },
        {
          "internalType": "uint104",
          "name": "",
          "type": "uint104"
        },
        {
          "internalType": "uint48",
          "name": "",
          "type": "uint48"
        }
      ],
      "stateMutability": "view",
      "type": "function"
    },
    {
      "inputs": [
        {
          "internalType": "contract IERC20",
          "name": "",
          "type": "address"
        }
      ],
      "name": "volumes",
      "outputs": [
        {
          "internalType": "uint128",
          "name": "confirmed",
          "type": "uint128"
        },
        {
          "internalType": "uint128",
          "name": "result",
          "type": "uint128"
        }
      ],
      "stateMutability": "view",
      "type": "function"
    },
    {
      "inputs": [],
      "name": "getTokens",
      "outputs": [
        {
          "internalType": "contract IERC20[]",
          "name": "tokens",
          "type": "address[]"
        }
      ],
      "stateMutability": "view",
      "type": "function"
    },
    {
      "inputs": [
        {
          "internalType": "uint256",
          "name": "i",
          "type": "uint256"
        }
      ],
      "name": "tokens",
      "outputs": [
        {
          "internalType": "contract IERC20",
          "name": "",
          "type": "address"
        }
      ],
      "stateMutability": "view",
      "type": "function"
    },
    {
      "inputs": [
        {
          "internalType": "contract IERC20",
          "name": "token",
          "type": "address"
        }
      ],
      "name": "getBalanceForAddition",
      "outputs": [
        {
          "internalType": "uint256",
          "name": "",
          "type": "uint256"
        }
      ],
      "stateMutability": "view",
      "type": "function"
    },
    {
      "inputs": [
        {
          "internalType": "contract IERC20",
          "name": "token",
          "type": "address"
        }
      ],
      "name": "getBalanceForRemoval",
      "outputs": [
        {
          "internalType": "uint256",
          "name": "",
          "type": "uint256"
        }
      ],
      "stateMutability": "view",
      "type": "function"
    },
    {
      "inputs": [
        {
          "internalType": "contract IERC20",
          "name": "src",
          "type": "address"
        },
        {
          "internalType": "contract IERC20",
          "name": "dst",
          "type": "address"
        },
        {
          "internalType": "uint256",
          "name": "amount",
          "type": "uint256"
        }
      ],
      "name": "getReturn",
      "outputs": [
        {
          "internalType": "uint256",
          "name": "",
          "type": "uint256"
        }
      ],
      "stateMutability": "view",
      "type": "function"
    },
    {
      "inputs": [
        {
          "internalType": "uint256[2]",
          "name": "maxAmounts",
          "type": "uint256[2]"
        },
        {
          "internalType": "uint256[2]",
          "name": "minAmounts",
          "type": "uint256[2]"
        }
      ],
      "name": "deposit",
      "outputs": [
        {
          "internalType": "uint256",
          "name": "fairSupply",
          "type": "uint256"
        },
        {
          "internalType": "uint256[2]",
          "name": "receivedAmounts",
          "type": "uint256[2]"
        }
      ],
      "stateMutability": "payable",
      "type": "function"
    },
    {
      "inputs": [
        {
          "internalType": "uint256[2]",
          "name": "maxAmounts",
          "type": "uint256[2]"
        },
        {
          "internalType": "uint256[2]",
          "name": "minAmounts",
          "type": "uint256[2]"
        },
        {
          "internalType": "address",
          "name": "target",
          "type": "address"
        }
      ],
      "name": "depositFor",
      "outputs": [
        {
          "internalType": "uint256",
          "name": "fairSupply",
          "type": "uint256"
        },
        {
          "internalType": "uint256[2]",
          "name": "receivedAmounts",
          "type": "uint256[2]"
        }
      ],
      "stateMutability": "payable",
      "type": "function"
    },
    {
      "inputs": [
        {
          "internalType": "uint256",
          "name": "amount",
          "type": "uint256"
        },
        {
          "internalType": "uint256[]",
          "name": "minReturns",
          "type": "uint256[]"
        }
      ],
      "name": "withdraw",
      "outputs": [
        {
          "internalType": "uint256[2]",
          "name": "withdrawnAmounts",
          "type": "uint256[2]"
        }
      ],
      "stateMutability": "nonpayable",
      "type": "function"
    },
    {
      "inputs": [
        {
          "internalType": "uint256",
          "name": "amount",
          "type": "uint256"
        },
        {
          "internalType": "uint256[]",
          "name": "minReturns",
          "type": "uint256[]"
        },
        {
          "internalType": "address payable",
          "name": "target",
          "type": "address"
        }
      ],
      "name": "withdrawFor",
      "outputs": [
        {
          "internalType": "uint256[2]",
          "name": "withdrawnAmounts",
          "type": "uint256[2]"
        }
      ],
      "stateMutability": "nonpayable",
      "type": "function"
    },
    {
      "inputs": [
        {
          "internalType": "contract IERC20",
          "name": "src",
          "type": "address"
        },
        {
          "internalType": "contract IERC20",
          "name": "dst",
          "type": "address"
        },
        {
          "internalType": "uint256",
          "name": "amount",
          "type": "uint256"
        },
        {
          "internalType": "uint256",
          "name": "minReturn",
          "type": "uint256"
        },
        {
          "internalType": "address",
          "name": "referral",
          "type": "address"
        }
      ],
      "name": "swap",
      "outputs": [
        {
          "internalType": "uint256",
          "name": "result",
          "type": "uint256"
        }
      ],
      "stateMutability": "payable",
      "type": "function"
    },
    {
      "inputs": [
        {
          "internalType": "contract IERC20",
          "name": "src",
          "type": "address"
        },
        {
          "internalType": "contract IERC20",
          "name": "dst",
          "type": "address"
        },
        {
          "internalType": "uint256",
          "name": "amount",
          "type": "uint256"
        },
        {
          "internalType": "uint256",
          "name": "minReturn",
          "type": "uint256"
        },
        {
          "internalType": "address",
          "name": "referral",
          "type": "address"
        },
        {
          "internalType": "address payable",
          "name": "receiver",
          "type": "address"
        }
      ],
      "name": "swapFor",
      "outputs": [
        {
          "internalType": "uint256",
          "name": "result",
          "type": "uint256"
        }
      ],
      "stateMutability": "payable",
      "type": "function"
    },
    {
      "inputs": [
        {
          "internalType": "contract IERC20",
          "name": "token",
          "type": "address"
        },
        {
          "internalType": "uint256",
          "name": "amount",
          "type": "uint256"
        }
      ],
      "name": "rescueFunds",
      "outputs": [],
      "stateMutability": "nonpayable",
      "type": "function"
    }
  ],
  "bytecode": "0x60e06040523480156200001157600080fd5b50604051620055af380380620055af833981810160405260a08110156200003757600080fd5b815160208301516040808501805191519395929483019291846401000000008211156200006357600080fd5b9083019060208201858111156200007957600080fd5b82516401000000008111828201881017156200009457600080fd5b82525081516020918201929091019080838360005b83811015620000c3578181015183820152602001620000a9565b50505050905090810190601f168015620000f15780820380516001836020036101000a031916815260200191505b50604052602001805160405193929190846401000000008211156200011557600080fd5b9083019060208201858111156200012b57600080fd5b82516401000000008111828201881017156200014657600080fd5b82525081516020918201929091019080838360005b83811015620001755781810151838201526020016200015b565b50505050905090810190601f168015620001a35780820380516001836020036101000a031916815260200191505b50604052602090810151855190935083925085918591620001cb91600391908501906200056a565b508051620001e19060049060208401906200056a565b50506005805460ff191660121790555060016006556001600160601b0319606082901b16608052604080516305a6c72d60e41b815290516001600160a01b03831691635a6c72d0916004808301926020929190829003018186803b1580156200024957600080fd5b505afa1580156200025e573d6000803e3d6000fd5b505050506040513d60208110156200027557600080fd5b5051600780546001600160681b03909216600160681b02600160681b600160d01b0319909216919091179055604080516323662bb960e01b815290516001600160a01b038316916323662bb9916004808301926020929190829003018186803b158015620002e257600080fd5b505afa158015620002f7573d6000803e3d6000fd5b505050506040513d60208110156200030e57600080fd5b5051600b80546001600160681b03909216600160681b02600160681b600160d01b031990921691909117905560408051631845f0db60e01b815290516001600160a01b03831691631845f0db916004808301926020929190829003018186803b1580156200037b57600080fd5b505afa15801562000390573d6000803e3d6000fd5b505050506040513d6020811015620003a757600080fd5b5051600f80546001600160681b03909216600160681b02600160681b600160d01b0319909216919091179055506000620003e062000566565b601380546001600160a01b0319166001600160a01b038316908117909155604051919250906000907f8be0079c531659141344cd1fd0a4f28419497f9722a3daafe3b4186f6b6457e0908290a350600083511162000485576040805162461bcd60e51b815260206004820152601860248201527f4d6f6f6e69737761703a206e616d6520697320656d7074790000000000000000604482015290519081900360640190fd5b6000825111620004dc576040805162461bcd60e51b815260206004820152601a60248201527f4d6f6f6e69737761703a2073796d626f6c20697320656d707479000000000000604482015290519081900360640190fd5b836001600160a01b0316856001600160a01b0316141562000544576040805162461bcd60e51b815260206004820152601b60248201527f4d6f6f6e69737761703a206475706c696361746520746f6b656e730000000000604482015290519081900360640190fd5b5050506001600160601b0319606092831b811660a052911b1660c05262000606565b3390565b828054600181600116156101000203166002900490600052602060002090601f016020900481019282601f10620005ad57805160ff1916838001178555620005dd565b82800160010185558215620005dd579182015b82811115620005dd578251825591602001919060010190620005c0565b50620005eb929150620005ef565b5090565b5b80821115620005eb5760008155600101620005f0565b60805160601c60a05160601c60c05160601c614efb620006b4600039806114ab52806117545280611aad5280611b7e5280611ed25280612602528061268f52806130bf5250806110ad528061148652806117245280611a765280611af75280611ead52806125b45280613082525080610ff7528061116c5280611c915280611d265280611dff528061276f5280612c505280613dda528061440d528061444a52806144875250614efb6000f3fe6080604052600436106103085760003560e01c806378e3214f1161019a578063d21220a7116100e1578063e331d0391161008a578063f1ea604211610064578063f1ea604214610df6578063f2fde38b14610e0b578063f76d13b414610e3e57610308565b8063e331d03914610d4f578063e7ff42c914610d99578063eaadf84814610dcc57610308565b8063d9a0c217116100bb578063d9a0c21714610cea578063dd62ed3e14610cff578063ddca3f4314610d3a57610308565b8063d21220a714610c5e578063d5bcb9b514610c73578063d7d3aab514610cb757610308565b80639aad141b11610143578063a9059cbb1161011d578063a9059cbb14610b63578063aa6ca80814610b9c578063b1ec4c4014610bea57610308565b80639aad141b14610a7a5780639ea5ce0a14610aad578063a457c2d714610b2a57610308565b806393028d831161017457806393028d8314610a1d57806395cad3c714610a3257806395d89b4114610a6557610308565b806378e3214f1461099c5780637e82a6f3146109d55780638da5cb5b14610a0857610308565b8063313ce5671161025e5780635915d806116102075780636edc2c09116101e15780636edc2c091461092157806370a0823114610954578063715018a61461098757610308565b80635915d806146107e55780635ed9156d1461089c5780636669302a1461090c57610308565b80633c6216a6116102385780633c6216a6146106a957806348d67e1b146107a65780634f64b2be146107bb57610308565b8063313ce567146106305780633732b3941461065b578063395093511461067057610308565b806311212d66116102c057806323b872dd1161029a57806323b872dd1461052257806323e8cae1146105655780633049105d1461057a57610308565b806311212d661461048e57806318160ddd146104b85780631e1401f8146104df57610308565b806307a80070116102f157806307a80070146103e4578063095ea7b3146104105780630dfe16811461045d57610308565b80630146081f1461030d57806306fdde031461035a575b600080fd5b34801561031957600080fd5b50610322610e53565b604080516cffffffffffffffffffffffffff948516815292909316602083015265ffffffffffff168183015290519081900360600190f35b34801561036657600080fd5b5061036f610ea6565b6040805160208082528351818301528351919283929083019185019080838360005b838110156103a9578181015183820152602001610391565b50505050905090810190601f1680156103d65780820380516001836020036101000a031916815260200191505b509250505060405180910390f35b3480156103f057600080fd5b5061040e6004803603602081101561040757600080fd5b5035610f5a565b005b34801561041c57600080fd5b506104496004803603604081101561043357600080fd5b506001600160a01b03813516906020013561108d565b604080519115158252519081900360200190f35b34801561046957600080fd5b506104726110ab565b604080516001600160a01b039092168252519081900360200190f35b34801561049a57600080fd5b5061040e600480360360208110156104b157600080fd5b50356110cf565b3480156104c457600080fd5b506104cd6111ff565b60408051918252519081900360200190f35b3480156104eb57600080fd5b506104cd6004803603606081101561050257600080fd5b506001600160a01b03813581169160208101359091169060400135611205565b34801561052e57600080fd5b506104496004803603606081101561054557600080fd5b506001600160a01b0381358116916020810135909116906040013561123e565b34801561057157600080fd5b506103226112c5565b6105ee6004803603608081101561059057600080fd5b6040805180820182529183019291818301918390600290839083908082843760009201919091525050604080518082018252929594938181019392509060029083908390808284376000920191909152509194506113189350505050565b6040518083815260200182600260200280838360005b8381101561061c578181015183820152602001610604565b505050509050019250505060405180910390f35b34801561063c57600080fd5b50610645611338565b6040805160ff9092168252519081900360200190f35b34801561066757600080fd5b506104cd611341565b34801561067c57600080fd5b506104496004803603604081101561069357600080fd5b506001600160a01b0381351690602001356113b6565b3480156106b557600080fd5b5061076b600480360360608110156106cc57600080fd5b813591908101906040810160208201356401000000008111156106ee57600080fd5b82018360208201111561070057600080fd5b8035906020019184602083028401116401000000008311171561072257600080fd5b919080806020026020016040519081016040528093929190818152602001838360200280828437600092019190915250929550505090356001600160a01b031691506114049050565b6040518082600260200280838360005b8381101561079357818101518382015260200161077b565b5050505090500191505060405180910390f35b3480156107b257600080fd5b506104cd6116aa565b3480156107c757600080fd5b50610472600480360360208110156107de57600080fd5b503561171a565b3480156107f157600080fd5b5061076b6004803603604081101561080857600080fd5b8135919081019060408101602082013564010000000081111561082a57600080fd5b82018360208201111561083c57600080fd5b8035906020019184602083028401116401000000008311171561085e57600080fd5b9190808060200260200160405190810160405280939291908181526020018383602002808284376000920191909152509295506117ca945050505050565b3480156108a857600080fd5b506108cf600480360360208110156108bf57600080fd5b50356001600160a01b03166117dd565b604080517affffffffffffffffffffffffffffffffffffffffffffffffffffff909316835264ffffffffff90911660208301528051918290030190f35b34801561091857600080fd5b5061040e611834565b34801561092d57600080fd5b506108cf6004803603602081101561094457600080fd5b50356001600160a01b0316611862565b34801561096057600080fd5b506104cd6004803603602081101561097757600080fd5b50356001600160a01b03166118b9565b34801561099357600080fd5b5061040e6118d4565b3480156109a857600080fd5b5061040e600480360360408110156109bf57600080fd5b506001600160a01b0381351690602001356119a0565b3480156109e157600080fd5b506104cd600480360360208110156109f857600080fd5b50356001600160a01b0316611c61565b348015610a1457600080fd5b50610472611cbb565b348015610a2957600080fd5b5061040e611cca565b348015610a3e57600080fd5b506104cd60048036036020811015610a5557600080fd5b50356001600160a01b0316611cf6565b348015610a7157600080fd5b5061036f611d50565b348015610a8657600080fd5b506104cd60048036036020811015610a9d57600080fd5b50356001600160a01b0316611dcf565b6105ee600480360360a0811015610ac357600080fd5b6040805180820182529183019291818301918390600290839083908082843760009201919091525050604080518082018252929594938181019392509060029083908390808284376000920191909152509194505050356001600160a01b03169050611e29565b348015610b3657600080fd5b5061044960048036036040811015610b4d57600080fd5b506001600160a01b038135169060200135612516565b348015610b6f57600080fd5b5061044960048036036040811015610b8657600080fd5b506001600160a01b03813516906020013561257e565b348015610ba857600080fd5b50610bb1612592565b6040805160208082528351818301528351919283929083019185810191028083836000831561061c578181015183820152602001610604565b348015610bf657600080fd5b50610c1d60048036036020811015610c0d57600080fd5b50356001600160a01b0316612651565b60405180836fffffffffffffffffffffffffffffffff168152602001826fffffffffffffffffffffffffffffffff1681526020019250505060405180910390f35b348015610c6a57600080fd5b5061047261268d565b6104cd600480360360a0811015610c8957600080fd5b506001600160a01b0381358116916020810135821691604082013591606081013591608090910135166126b1565b348015610cc357600080fd5b506104cd60048036036020811015610cda57600080fd5b50356001600160a01b03166126cb565b348015610cf657600080fd5b5061047261276d565b348015610d0b57600080fd5b506104cd60048036036040811015610d2257600080fd5b506001600160a01b0381358116916020013516612791565b348015610d4657600080fd5b506104cd6127bc565b6104cd600480360360c0811015610d6557600080fd5b506001600160a01b0381358116916020810135821691604082013591606081013591608082013581169160a001351661282c565b348015610da557600080fd5b506104cd60048036036020811015610dbc57600080fd5b50356001600160a01b0316612ac1565b348015610dd857600080fd5b5061040e60048036036020811015610def57600080fd5b5035612b63565b348015610e0257600080fd5b50610322612ce3565b348015610e1757600080fd5b5061040e60048036036020811015610e2e57600080fd5b50356001600160a01b0316612d36565b348015610e4a57600080fd5b5061040e612e59565b600f546cffffffffffffffffffffffffff808216926d01000000000000000000000000008304909116917a010000000000000000000000000000000000000000000000000000900465ffffffffffff1690565b60038054604080516020601f60027fffffffffffffffffffffffffffffffffffffffffffffffffffffffffffffffff610100600188161502019095169490940493840181900481028201810190925282815260609390929091830182828015610f505780601f10610f2557610100808354040283529160200191610f50565b820191906000526020600020905b815481529060010190602001808311610f3357829003601f168201915b5050505050905090565b670de0b6b3a7640000811115610fb7576040805162461bcd60e51b815260206004820152601d60248201527f536c6970706167652066656520766f746520697320746f6f2068696768000000604482015290519081900360640190fd5b336000818152600e602090815260409182902082519182019092529054815261108a9190610fe484612e85565b610fed336118b9565b610ff56111ff565b7f00000000000000000000000000000000000000000000000000000000000000006001600160a01b03166323662bb96040518163ffffffff1660e01b815260040160206040518083038186803b15801561104e57600080fd5b505afa158015611062573d6000803e3d6000fd5b505050506040513d602081101561107857600080fd5b5051600b959493929190612ea4612ef7565b50565b60006110a161109a612f12565b8484612f16565b5060015b92915050565b7f000000000000000000000000000000000000000000000000000000000000000081565b67016345785d8a000081111561112c576040805162461bcd60e51b815260206004820152601460248201527f46656520766f746520697320746f6f2068696768000000000000000000000000604482015290519081900360640190fd5b336000818152600a602090815260409182902082519182019092529054815261108a919061115984612e85565b611162336118b9565b61116a6111ff565b7f00000000000000000000000000000000000000000000000000000000000000006001600160a01b0316635a6c72d06040518163ffffffff1660e01b815260040160206040518083038186803b1580156111c357600080fd5b505afa1580156111d7573d6000803e3d6000fd5b505050506040513d60208110156111ed57600080fd5b50516007959493929190613002612ef7565b60025490565b6000611234848484611216886126cb565b61121f88612ac1565b6112276127bc565b61122f611341565b613055565b90505b9392505050565b600061124b848484613196565b6112bb84611257612f12565b6112b685604051806060016040528060288152602001614de5602891396001600160a01b038a16600090815260016020526040812090611295612f12565b6001600160a01b0316815260208101919091526040016000205491906132f1565b612f16565b5060019392505050565b600b546cffffffffffffffffffffffffff808216926d01000000000000000000000000008304909116917a010000000000000000000000000000000000000000000000000000900465ffffffffffff1690565b6000611322614c5d565b61132d848433611e29565b915091509250929050565b60055460ff1690565b60408051606081018252600b546cffffffffffffffffffffffffff80821683526d010000000000000000000000000082041660208301527a010000000000000000000000000000000000000000000000000000900465ffffffffffff16918101919091526000906113b190613388565b905090565b60006110a16113c3612f12565b846112b685600160006113d4612f12565b6001600160a01b03908116825260208083019390935260409182016000908120918c168152925290205490613417565b61140c614c5d565b60026006541415611464576040805162461bcd60e51b815260206004820152601f60248201527f5265656e7472616e637947756172643a207265656e7472616e742063616c6c00604482015290519081900360640190fd5b6002600655611471614c5d565b50604080518082019091526001600160a01b037f0000000000000000000000000000000000000000000000000000000000000000811682527f000000000000000000000000000000000000000000000000000000000000000016602082015260006114da6111ff565b905060006114e66116aa565b90506114f23388613471565b60005b600281101561164757600084826002811061150c57fe5b6020020151905060006115286001600160a01b0383163061356d565b905060006115408661153a848e61360e565b90613667565b90506115566001600160a01b0384168a836136a9565b8088856002811061156357fe5b602002015289518410158061158b575089848151811061157f57fe5b60200260200101518110155b6115dc576040805162461bcd60e51b815260206004820152601f60248201527f4d6f6f6e69737761703a20726573756c74206973206e6f7420656e6f75676800604482015290519081900360640190fd5b61160c85836115eb898f613712565b6001600160a01b03871660009081526015602052604090209291908a613754565b61163c858361161b898f613712565b6001600160a01b03871660009081526016602052604090209291908a613754565b5050506001016114f5565b508351602080860151604080518b8152928301939093528183015290516001600160a01b0387169133917f3cae9923fd3c2f468aa25a8ef687923e37f957459557c0380fd06526c0b8cdbc9181900360600190a350506001600655509392505050565b60408051606081018252600f546cffffffffffffffffffffffffff80821683526d010000000000000000000000000082041660208301527a010000000000000000000000000000000000000000000000000000900465ffffffffffff16918101919091526000906113b190613388565b60008161174857507f00000000000000000000000000000000000000000000000000000000000000006117c5565b816001141561177857507f00000000000000000000000000000000000000000000000000000000000000006117c5565b6040805162461bcd60e51b815260206004820152601360248201527f506f6f6c206861732074776f20746f6b656e7300000000000000000000000000604482015290519081900360640190fd5b919050565b6117d2614c5d565b611237838333611404565b6016602052600090815260409020547affffffffffffffffffffffffffffffffffffffffffffffffffffff8116907b01000000000000000000000000000000000000000000000000000000900464ffffffffff1682565b336000818152600e60209081526040918290208251918201909252905481526118609190610fe46137e4565b565b6015602052600090815260409020547affffffffffffffffffffffffffffffffffffffffffffffffffffff8116907b01000000000000000000000000000000000000000000000000000000900464ffffffffff1682565b6001600160a01b031660009081526020819052604090205490565b6118dc612f12565b6013546001600160a01b0390811691161461193e576040805162461bcd60e51b815260206004820181905260248201527f4f776e61626c653a2063616c6c6572206973206e6f7420746865206f776e6572604482015290519081900360640190fd5b6013546040516000916001600160a01b0316907f8be0079c531659141344cd1fd0a4f28419497f9722a3daafe3b4186f6b6457e0908390a3601380547fffffffffffffffffffffffff0000000000000000000000000000000000000000169055565b600260065414156119f8576040805162461bcd60e51b815260206004820152601f60248201527f5265656e7472616e637947756172643a207265656e7472616e742063616c6c00604482015290519081900360640190fd5b6002600655611a05612f12565b6013546001600160a01b03908116911614611a67576040805162461bcd60e51b815260206004820181905260248201527f4f776e61626c653a2063616c6c6572206973206e6f7420746865206f776e6572604482015290519081900360640190fd5b6000611a9c6001600160a01b037f0000000000000000000000000000000000000000000000000000000000000000163061356d565b90506000611ad36001600160a01b037f0000000000000000000000000000000000000000000000000000000000000000163061356d565b9050611ae96001600160a01b03851633856136a9565b81611b1d6001600160a01b037f0000000000000000000000000000000000000000000000000000000000000000163061356d565b1015611b70576040805162461bcd60e51b815260206004820152601860248201527f4d6f6f6e69737761703a206163636573732064656e6965640000000000000000604482015290519081900360640190fd5b80611ba46001600160a01b037f0000000000000000000000000000000000000000000000000000000000000000163061356d565b1015611bf7576040805162461bcd60e51b815260206004820152601860248201527f4d6f6f6e69737761703a206163636573732064656e6965640000000000000000604482015290519081900360640190fd5b6103e8611c03306118b9565b1015611c56576040805162461bcd60e51b815260206004820152601860248201527f4d6f6f6e69737761703a206163636573732064656e6965640000000000000000604482015290519081900360640190fd5b505060016006555050565b6001600160a01b038181166000908152601260209081526040808320815192830190915254815290916110a591907f000000000000000000000000000000000000000000000000000000000000000016631845f0db6137ff565b6013546001600160a01b031690565b336000818152600a602090815260409182902082519182019092529054815261186091906111596137e4565b6001600160a01b038181166000908152600e60209081526040808320815192830190915254815290916110a591907f0000000000000000000000000000000000000000000000000000000000000000166323662bb96137ff565b60048054604080516020601f60027fffffffffffffffffffffffffffffffffffffffffffffffffffffffffffffffff610100600188161502019095169490940493840181900481028201810190925282815260609390929091830182828015610f505780601f10610f2557610100808354040283529160200191610f50565b6001600160a01b038181166000908152600a60209081526040808320815192830190915254815290916110a591907f000000000000000000000000000000000000000000000000000000000000000016635a6c72d06137ff565b6000611e33614c5d565b60026006541415611e8b576040805162461bcd60e51b815260206004820152601f60248201527f5265656e7472616e637947756172643a207265656e7472616e742063616c6c00604482015290519081900360640190fd5b6002600655611e98614c5d565b50604080518082019091526001600160a01b037f0000000000000000000000000000000000000000000000000000000000000000811682527f0000000000000000000000000000000000000000000000000000000000000000166020820152611f118160005b60200201516001600160a01b0316613893565b611f3657611f20816001611efe565b611f2b576000611f31565b60208601515b611f39565b85515b3414611f8c576040805162461bcd60e51b815260206004820152601c60248201527f4d6f6f6e69737761703a2077726f6e672076616c756520757361676500000000604482015290519081900360640190fd5b6000611f966111ff565b90508061212257611faa6103e8606361360e565b9350611fb8306103e86138a0565b60005b600281101561211c57611fde85898360028110611fd457fe5b6020020151613990565b94506000888260028110611fee57fe5b602002015111612045576040805162461bcd60e51b815260206004820152601960248201527f4d6f6f6e69737761703a20616d6f756e74206973207a65726f00000000000000604482015290519081900360640190fd5b86816002811061205157fe5b602002015188826002811061206257fe5b602002015110156120ba576040805162461bcd60e51b815260206004820181905260248201527f4d6f6f6e69737761703a206d696e416d6f756e74206e6f742072656163686564604482015290519081900360640190fd5b6120f233308a84600281106120cb57fe5b60200201518685600281106120dc57fe5b60200201516001600160a01b03169291906139a7565b8781600281106120fe57fe5b602002015184826002811061210f57fe5b6020020152600101611fbb565b50612453565b61212a614c5d565b60005b60028110156121985761217f612148858360028110611efe57fe5b612153576000612155565b345b6121793087856002811061216557fe5b60200201516001600160a01b03169061356d565b90613712565b82826002811061218b57fe5b602002015260010161212d565b507fffffffffffffffffffffffffffffffffffffffffffffffffffffffffffffffff945060005b600281101561220a57612200866121fb8484600281106121db57fe5b602002015161153a8d86600281106121ef57fe5b6020020151889061360e565b613a79565b95506001016121bf565b508460005b60028110156123975760008a826002811061222657fe5b60200201511161227d576040805162461bcd60e51b815260206004820152601960248201527f4d6f6f6e69737761703a20616d6f756e74206973207a65726f00000000000000604482015290519081900360640190fd5b60006122ab8561153a600188036122a58789886002811061229a57fe5b60200201519061360e565b90613417565b90508982600281106122b957fe5b6020020151811015612312576040805162461bcd60e51b815260206004820181905260248201527f4d6f6f6e69737761703a206d696e416d6f756e74206e6f742072656163686564604482015290519081900360640190fd5b6123243330838986600281106120dc57fe5b61234884836002811061233357fe5b60200201516121793089866002811061216557fe5b87836002811061235457fe5b602002015261238c886121fb86856002811061236c57fe5b602002015161153a8b876002811061238057fe5b60200201518a9061360e565b97505060010161220f565b5060006123a26116aa565b905060005b600281101561244e57612416828583600281106123c057fe5b60200201516123cf888c613417565b88601660008c88600281106123e057fe5b60200201516001600160a01b03166001600160a01b0316815260200190815260200160002061375490949392919063ffffffff16565b6124468285836002811061242657fe5b6020020151612435888c613417565b88601560008c88600281106123e057fe5b6001016123a7565b505050505b600084116124a8576040805162461bcd60e51b815260206004820152601f60248201527f4d6f6f6e69737761703a20726573756c74206973206e6f7420656e6f75676800604482015290519081900360640190fd5b6124b285856138a0565b825160208085015160408051888152928301939093528183015290516001600160a01b0387169133917f8bab6aed5a508937051a144e61d6e61336834a66aaee250a00613ae6f744c4229181900360600190a3505060016006559094909350915050565b60006110a1612523612f12565b846112b685604051806060016040528060258152602001614ea1602591396001600061254d612f12565b6001600160a01b03908116825260208083019390935260409182016000908120918d168152925290205491906132f1565b60006110a161258b612f12565b8484613196565b60408051600280825260608083018452926020830190803683370190505090507f0000000000000000000000000000000000000000000000000000000000000000816000815181106125e057fe5b60200260200101906001600160a01b031690816001600160a01b0316815250507f00000000000000000000000000000000000000000000000000000000000000008160018151811061262e57fe5b60200260200101906001600160a01b031690816001600160a01b03168152505090565b6014602052600090815260409020546fffffffffffffffffffffffffffffffff8082169170010000000000000000000000000000000090041682565b7f000000000000000000000000000000000000000000000000000000000000000081565b60006126c186868686863361282c565b9695505050505050565b6000806126e16001600160a01b0384163061356d565b90506112376127676126f16116aa565b6001600160a01b0386166000908152601560209081526040918290208251808401909352547affffffffffffffffffffffffffffffffffffffffffffffffffffff811683527b01000000000000000000000000000000000000000000000000000000900464ffffffffff16908201529084613a88565b82613990565b7f000000000000000000000000000000000000000000000000000000000000000081565b6001600160a01b03918216600090815260016020908152604080832093909416825291909152205490565b604080516060810182526007546cffffffffffffffffffffffffff80821683526d010000000000000000000000000082041660208301527a010000000000000000000000000000000000000000000000000000900465ffffffffffff16918101919091526000906113b190613388565b600060026006541415612886576040805162461bcd60e51b815260206004820152601f60248201527f5265656e7472616e637947756172643a207265656e7472616e742063616c6c00604482015290519081900360640190fd5b600260065561289d6001600160a01b038816613893565b6128a85760006128aa565b845b34146128fd576040805162461bcd60e51b815260206004820152601c60248201527f4d6f6f6e69737761703a2077726f6e672076616c756520757361676500000000604482015290519081900360640190fd5b612905614c7b565b60405180604001604052806129456129258b6001600160a01b0316613893565b612930576000612932565b345b6121796001600160a01b038d163061356d565b815260200161295d6001600160a01b038a163061356d565b90529050600061296b614c7b565b612973614c7b565b60405180604001604052806129866127bc565b8152602001612993611341565b905290506129a68b8b8b8b8a8987613af7565b90965090935091506129bb8386898785613dd2565b8151602080840151604080516001600160a01b038f811682529381018890528082018a90526060810194909452608084019190915289821660a084015251818e16929189169133917fbd99c6719f088aa0abd9e7b7a4a635d1f931601e9f304b538dc42be25d8c65c69181900360c00190a450506001600160a01b03909816600090815260146020526040902080547001000000000000000000000000000000006fffffffffffffffffffffffffffffffff808316909b018b167fffffffffffffffffffffffffffffffff00000000000000000000000000000000909216919091178181048b1685018b1690910299169890981790975560016006559695505050505050565b600080612ad76001600160a01b0384163061356d565b9050611237612b5d612ae76116aa565b6001600160a01b0386166000908152601660209081526040918290208251808401909352547affffffffffffffffffffffffffffffffffffffffffffffffffffff811683527b01000000000000000000000000000000000000000000000000000000900464ffffffffff16908201529084613a88565b82613a79565b610e10811115612bba576040805162461bcd60e51b815260206004820152601d60248201527f446563617920706572696f6420766f746520697320746f6f2068696768000000604482015290519081900360640190fd5b600f811015612c10576040805162461bcd60e51b815260206004820152601c60248201527f446563617920706572696f6420766f746520697320746f6f206c6f7700000000604482015290519081900360640190fd5b3360008181526012602090815260409182902082519182019092529054815261108a9190612c3d84612e85565b612c46336118b9565b612c4e6111ff565b7f00000000000000000000000000000000000000000000000000000000000000006001600160a01b0316631845f0db6040518163ffffffff1660e01b815260040160206040518083038186803b158015612ca757600080fd5b505afa158015612cbb573d6000803e3d6000fd5b505050506040513d6020811015612cd157600080fd5b5051600f95949392919061406e612ef7565b6007546cffffffffffffffffffffffffff808216926d01000000000000000000000000008304909116917a010000000000000000000000000000000000000000000000000000900465ffffffffffff1690565b612d3e612f12565b6013546001600160a01b03908116911614612da0576040805162461bcd60e51b815260206004820181905260248201527f4f776e61626c653a2063616c6c6572206973206e6f7420746865206f776e6572604482015290519081900360640190fd5b6001600160a01b038116612de55760405162461bcd60e51b8152600401808060200182810382526026815260200180614d566026913960400191505060405180910390fd5b6013546040516001600160a01b038084169216907f8be0079c531659141344cd1fd0a4f28419497f9722a3daafe3b4186f6b6457e090600090a3601380547fffffffffffffffffffffffff0000000000000000000000000000000000000000166001600160a01b0392909216919091179055565b336000818152601260209081526040918290208251918201909252905481526118609190612c3d6137e4565b612e8d614c95565b506040805160208101909152600182018152919050565b60408051848152831515602082015280820183905290516001600160a01b038616917fce0cf859d853e1944032294143a1bf3ad799998ae77acbeb6c4d9b20d6910240919081900360600190a250505050565b612f088888888888898989896140c1565b5050505050505050565b3390565b6001600160a01b038316612f5b5760405162461bcd60e51b8152600401808060200182810382526024815260200180614e536024913960400191505060405180910390fd5b6001600160a01b038216612fa05760405162461bcd60e51b8152600401808060200182810382526022815260200180614d7c6022913960400191505060405180910390fd5b6001600160a01b03808416600081815260016020908152604080832094871680845294825291829020859055815185815291517f8c5be1e5ebec7d5bd14f71427d1e84f3dd0314c0f7b2291e5b200ac8c7c3b9259281900390910190a3505050565b60408051848152831515602082015280820183905290516001600160a01b038616917fe117cae46817b894b41a4412b73ae0ba746a5707b94e02d83b4c6502010b11ac919081900360600190a250505050565b6000866001600160a01b0316886001600160a01b03161115613075579596955b6000861180156130b657507f00000000000000000000000000000000000000000000000000000000000000006001600160a01b0316886001600160a01b0316145b80156130f357507f00000000000000000000000000000000000000000000000000000000000000006001600160a01b0316876001600160a01b0316145b1561318b57600061311a613113670de0b6b3a764000061153a8a8861360e565b8890613712565b905060006131288783613417565b9050600061313a8261153a858a61360e565b9050600061315d61314b878661360e565b612179670de0b6b3a76400008661360e565b90506000613173670de0b6b3a76400008561360e565b90506131838161153a858561360e565b955050505050505b979650505050505050565b6001600160a01b0383166131db5760405162461bcd60e51b8152600401808060200182810382526025815260200180614e2e6025913960400191505060405180910390fd5b6001600160a01b0382166132205760405162461bcd60e51b8152600401808060200182810382526023815260200180614d116023913960400191505060405180910390fd5b61322b838383614338565b61326881604051806060016040528060268152602001614d9e602691396001600160a01b03861660009081526020819052604090205491906132f1565b6001600160a01b0380851660009081526020819052604080822093909355908416815220546132979082613417565b6001600160a01b038084166000818152602081815260409182902094909455805185815290519193928716927fddf252ad1be2c89b69c2b068fc378daa952ba7f163c4a11628f55a4df523b3ef92918290030190a3505050565b600081848411156133805760405162461bcd60e51b81526004018080602001828103825283818151815260200191508051906020019080838360005b8381101561334557818101518382015260200161332d565b50505050905090810190601f1680156133725780820380516001836020036101000a031916815260200191505b509250505060405180910390fd5b505050900390565b6000806133b1620151806121fb856040015165ffffffffffff164261371290919063ffffffff16565b905060006133c26201518083613712565b905061340f6201518061153a6133f48588602001516cffffffffffffffffffffffffff1661360e90919063ffffffff16565b87516122a5906cffffffffffffffffffffffffff168661360e565b949350505050565b600082820183811015611237576040805162461bcd60e51b815260206004820152601b60248201527f536166654d6174683a206164646974696f6e206f766572666c6f770000000000604482015290519081900360640190fd5b6001600160a01b0382166134b65760405162461bcd60e51b8152600401808060200182810382526021815260200180614e0d6021913960400191505060405180910390fd5b6134c282600083614338565b6134ff81604051806060016040528060228152602001614d34602291396001600160a01b03851660009081526020819052604090205491906132f1565b6001600160a01b0383166000908152602081905260409020556002546135259082613712565b6002556040805182815290516000916001600160a01b038516917fddf252ad1be2c89b69c2b068fc378daa952ba7f163c4a11628f55a4df523b3ef9181900360200190a35050565b600061357883613893565b1561358e57506001600160a01b038116316110a5565b826001600160a01b03166370a08231836040518263ffffffff1660e01b815260040180826001600160a01b0316815260200191505060206040518083038186803b1580156135db57600080fd5b505afa1580156135ef573d6000803e3d6000fd5b505050506040513d602081101561360557600080fd5b505190506110a5565b60008261361d575060006110a5565b8282028284828161362a57fe5b04146112375760405162461bcd60e51b8152600401808060200182810382526021815260200180614dc46021913960400191505060405180910390fd5b600061123783836040518060400160405280601a81526020017f536166654d6174683a206469766973696f6e206279207a65726f0000000000008152506144c7565b801561370d576136b883613893565b156136f9576040516001600160a01b0383169082156108fc029083906000818181858888f193505050501580156136f3573d6000803e3d6000fd5b5061370d565b61370d6001600160a01b038416838361452c565b505050565b600061123783836040518060400160405280601e81526020017f536166654d6174683a207375627472616374696f6e206f766572666c6f7700008152506132f1565b6137dd856137d88361153a61376a826001613712565b604080518082019091528b547affffffffffffffffffffffffffffffffffffffffffffffffffffff811682527b01000000000000000000000000000000000000000000000000000000900464ffffffffff1660208201526122a59089906137d2908d8d613a88565b9061360e565b6145ac565b5050505050565b6137ec614c95565b5060408051602081019091526000815290565b825160009015613833575082517fffffffffffffffffffffffffffffffffffffffffffffffffffffffffffffffff01611237565b82826040518163ffffffff1660e01b815260040160206040518083038186803b15801561385f57600080fd5b505afa158015613873573d6000803e3d6000fd5b505050506040513d602081101561388957600080fd5b5051949350505050565b6001600160a01b03161590565b6001600160a01b0382166138fb576040805162461bcd60e51b815260206004820152601f60248201527f45524332303a206d696e7420746f20746865207a65726f206164647265737300604482015290519081900360640190fd5b61390760008383614338565b6002546139149082613417565b6002556001600160a01b03821660009081526020819052604090205461393a9082613417565b6001600160a01b0383166000818152602081815260408083209490945583518581529351929391927fddf252ad1be2c89b69c2b068fc378daa952ba7f163c4a11628f55a4df523b3ef9281900390910190a35050565b6000818310156139a05781611237565b5090919050565b8015613a73576139b684613893565b15613a5e5780341015613a10576040805162461bcd60e51b815260206004820152601a60248201527f556e6945524332303a206e6f7420656e6f7567682076616c7565000000000000604482015290519081900360640190fd5b80341115613a59576001600160a01b0383166108fc613a2f3484613712565b6040518115909202916000818181858888f19350505050158015613a57573d6000803e3d6000fd5b505b613a73565b613a736001600160a01b03851684848461461c565b50505050565b60008183106139a05781611237565b600080613aad846121fb876020015164ffffffffff164261371290919063ffffffff16565b90506000613abb8583613712565b90506126c18561153a613ace878661360e565b89516122a5907affffffffffffffffffffffffffffffffffffffffffffffffffffff168661360e565b600080613b02614c7b565b6000613b0c6116aa565b86516001600160a01b038d166000908152601560209081526040918290208251808401909352547affffffffffffffffffffffffffffffffffffffffffffffffffffff811683527b01000000000000000000000000000000000000000000000000000000900464ffffffffff1690820152919250613b8c91908390613a88565b8083528651613b9b9190613990565b82526020868101516001600160a01b038c166000908152601683526040908190208151808301909252547affffffffffffffffffffffffffffffffffffffffffffffffffffff811682527b01000000000000000000000000000000000000000000000000000000900464ffffffffff1692810192909252613c1e91908390613a88565b6020808401829052870151613c339190613a79565b6020830152613c4d6001600160a01b038c1633308c6139a7565b8551613c66906121796001600160a01b038e163061356d565b9350613c878b8b86856000015186602001518a600001518b60200151613055565b9250600083118015613c995750878310155b613cea576040805162461bcd60e51b815260206004820152601f60248201527f4d6f6f6e69737761703a2072657475726e206973206e6f7420656e6f75676800604482015290519081900360640190fd5b613cfe6001600160a01b038b1688856136a9565b8551825114613d35578151613d3590613d179086613417565b6001600160a01b038d166000908152601560205260409020906145ac565b8560200151826020015114613d75576020820151613d7590613d579085613712565b6001600160a01b038c166000908152601660205260409020906145ac565b85516001600160a01b038c166000908152601660205260409020613d9a9183906146a4565b6020808701516001600160a01b038c16600090815260159092526040909120613dc49183906146a4565b509750975097945050505050565b6000806000807f00000000000000000000000000000000000000000000000000000000000000006001600160a01b031663890357306040518163ffffffff1660e01b815260040160806040518083038186803b158015613e3157600080fd5b505afa158015613e45573d6000803e3d6000fd5b505050506040513d6080811015613e5b57600080fd5b5080516020820151604083015160609093015189519297509095509193509091506ec097ce7bc90715b34b9f100000000090613ea59061153a613e9e828e613417565b849061360e565b6020880151909150613ebe9061153a613e9e828d613712565b90506ec097ce7bc90715b34b9f100000000081111561400457613ee08161470c565b90506000613f058261153a613efd82670de0b6b3a7640000613712565b6137d26111ff565b90506001600160a01b03891615613fcb57613f2c670de0b6b3a764000061153a838961360e565b95508515613fcb576001600160a01b03831615613fc157613f4d83876138a0565b826001600160a01b0316631a3991258a886040518363ffffffff1660e01b815260040180836001600160a01b0316815260200182815260200192505050600060405180830381600087803b158015613fa457600080fd5b505af1158015613fb8573d6000803e3d6000fd5b50505050613fcb565b613fcb89876138a0565b6001600160a01b0384161561400257613ff0670de0b6b3a764000061153a838861360e565b945084156140025761400284866138a0565b505b865160208089015188518983015160408051958652938501929092528383015260608301526080820187905260a08201869052517f2a368c7f33bb86e2d999940a3989d849031aff29b750f67947e6b8e8c3d2ffd69181900360c00190a150505050505050505050565b60408051848152831515602082015280820183905290516001600160a01b038616917fd0784d105a7412ffec29813ff8401f04f3d1cdbe6aca756974b1a31f830e5cb7919081900360600190a250505050565b600189015460028a01548190806140d6614ca8565b50604080516060810182528e546cffffffffffffffffffffffffff80821683526d010000000000000000000000000082041660208301527a010000000000000000000000000000000000000000000000000000900465ffffffffffff16918101919091526141438c614766565b1561415957614152828b613712565b915061417a565b6141776141706141698e8a61476b565b8c9061360e565b8590613712565b93505b6141838b614766565b1561419957614192828a613417565b91506141ba565b6141b76141b06141a98d8a61476b565b8b9061360e565b8590613417565b93505b8484146141c95760018e018490555b8282146141d85760028e018290555b600088156141fd576141f88961153a6141f1868c61360e565b8890613417565b6141ff565b875b905081602001516cffffffffffffffffffffffffff1681146142d95761422482613388565b8f547fffffffffffffffffffffffffffffffffffffff00000000000000000000000000166cffffffffffffffffffffffffff918216177fffffffffffff00000000000000000000000000ffffffffffffffffffffffffff166d0100000000000000000000000000918316919091021779ffffffffffffffffffffffffffffffffffffffffffffffffffff167a0100000000000000000000000000000000000000000000000000004265ffffffffffff1602178f555b506142e48b8d6147a5565b614307576001600160a01b038d16600090815260038f01602052604090208b5190555b6143288d6143158d8a61476b565b61431e8e614766565b8c8a63ffffffff16565b5050505050505050505050505050565b60006001600160a01b03841661434f576000614358565b614358846118b9565b905060006001600160a01b03851661437157600061437a565b61437a846118b9565b905060006143bc6001600160a01b03861615614397576000614399565b845b6121796001600160a01b038916156143b25760006143b4565b865b6122a56111ff565b90506143c6614cc8565b6040518060c00160405280886001600160a01b03168152602001876001600160a01b03168152602001868152602001858152602001848152602001838152509050614444817f00000000000000000000000000000000000000000000000000000000000000006001600160a01b0316635a6c72d061300260076147ac565b614481817f00000000000000000000000000000000000000000000000000000000000000006001600160a01b03166323662bb9612ea4600b6147ac565b6144be817f00000000000000000000000000000000000000000000000000000000000000006001600160a01b0316631845f0db61406e600f6147ac565b50505050505050565b600081836145165760405162461bcd60e51b815260206004820181815283516024840152835190928392604490910191908501908083836000831561334557818101518382015260200161332d565b50600083858161452257fe5b0495945050505050565b604080516001600160a01b038416602482015260448082018490528251808303909101815260649091019091526020810180517bffffffffffffffffffffffffffffffffffffffffffffffffffffffff167fa9059cbb0000000000000000000000000000000000000000000000000000000017905261370d9084906149ba565b81547fffffffffff000000000000000000000000000000000000000000000000000000167affffffffffffffffffffffffffffffffffffffffffffffffffffff91821617167b010000000000000000000000000000000000000000000000000000004264ffffffffff1602179055565b604080516001600160a01b0380861660248301528416604482015260648082018490528251808303909101815260849091019091526020810180517bffffffffffffffffffffffffffffffffffffffffffffffffffffffff167f23b872dd00000000000000000000000000000000000000000000000000000000179052613a739085906149ba565b6040805180820190915283547affffffffffffffffffffffffffffffffffffffffffffffffffffff811682527b01000000000000000000000000000000000000000000000000000000900464ffffffffff16602082015261370d9084906137d8908585613a88565b600060038211156147505781600160028204015b818110156147485780915060028182868161473757fe5b04018161474057fe5b049050614720565b5090506117c5565b811561475e575060016117c5565b5060006117c5565b511590565b81516000901561479f575081517fffffffffffffffffffffffffffffffffffffffffffffffffffffffffffffffff016110a5565b50919050565b5190511490565b6147b4614c95565b5084516001600160a01b031660009081526003820160209081526040918290208251918201909252905481526147e8614c95565b506020808701516001600160a01b031660009081526003840182526040808220815180850183529054815281517fffffffff0000000000000000000000000000000000000000000000000000000060e08a901b168152915190938992899260048083019392829003018186803b15801561486157600080fd5b505afa158015614875573d6000803e3d6000fd5b505050506040513d602081101561488b57600080fd5b5051905061489883614766565b80156148a857506148a882614766565b80156148bd575087516001600160a01b031615155b80156148d5575060208801516001600160a01b031615155b1561494657875161490f906148ea858461476b565b6148f386614766565b60408c015160608d015161490691613712565b8963ffffffff16565b602088015161493e90614922848461476b565b61492b85614766565b60408c015160808d015161490691613417565b5050506137dd565b87516001600160a01b031615614986578751606089015160408a015161498692918691614974908290613712565b60a08d0151899493929190878c614a6b565b60208801516001600160a01b031615612f08576020880151608089015160408a0151612f0892918591614974908290613417565b6060614a0f826040518060400160405280602081526020017f5361666545524332303a206c6f772d6c6576656c2063616c6c206661696c6564815250856001600160a01b0316614a8f9092919063ffffffff16565b80519091501561370d57808060200190516020811015614a2e57600080fd5b505161370d5760405162461bcd60e51b815260040180806020018281038252602a815260200180614e77602a913960400191505060405180910390fd5b612f088888888715614a7d5789614a85565b614a856137e4565b89898989896140c1565b606061123484846000856060614aa485614c24565b614af5576040805162461bcd60e51b815260206004820152601d60248201527f416464726573733a2063616c6c20746f206e6f6e2d636f6e7472616374000000604482015290519081900360640190fd5b60006060866001600160a01b031685876040518082805190602001908083835b60208310614b5257805182527fffffffffffffffffffffffffffffffffffffffffffffffffffffffffffffffe09092019160209182019101614b15565b6001836020036101000a03801982511681845116808217855250505050505090500191505060006040518083038185875af1925050503d8060008114614bb4576040519150601f19603f3d011682016040523d82523d6000602084013e614bb9565b606091505b50915091508115614bcd57915061340f9050565b805115614bdd5780518082602001fd5b60405162461bcd60e51b815260206004820181815286516024840152865187939192839260440191908501908083836000831561334557818101518382015260200161332d565b6000813f7fc5d2460186f7233c927e7db2dcc703c0e500b653ca82273b7bfad8045d85a47081811480159061340f575050151592915050565b60405180604001604052806002906020820280368337509192915050565b604051806040016040528060008152602001600081525090565b6040518060200160405280600081525090565b604080516060810182526000808252602082018190529181019190915290565b6040518060c0016040528060006001600160a01b0316815260200160006001600160a01b0316815260200160008152602001600081526020016000815260200160008152509056fe45524332303a207472616e7366657220746f20746865207a65726f206164647265737345524332303a206275726e20616d6f756e7420657863656564732062616c616e63654f776e61626c653a206e6577206f776e657220697320746865207a65726f206164647265737345524332303a20617070726f766520746f20746865207a65726f206164647265737345524332303a207472616e7366657220616d6f756e7420657863656564732062616c616e6365536166654d6174683a206d756c7469706c69636174696f6e206f766572666c6f7745524332303a207472616e7366657220616d6f756e74206578636565647320616c6c6f77616e636545524332303a206275726e2066726f6d20746865207a65726f206164647265737345524332303a207472616e736665722066726f6d20746865207a65726f206164647265737345524332303a20617070726f76652066726f6d20746865207a65726f20616464726573735361666545524332303a204552433230206f7065726174696f6e20646964206e6f74207375636365656445524332303a2064656372656173656420616c6c6f77616e63652062656c6f77207a65726fa264697066735822122029780fc8cbb7ebfab0810e7251e0f0c84ad2cc8107ccdfae433c73f3710aa2bf64736f6c634300060c0033",
  "immutableReferences": {
    "162": [
      {
        "length": 32,
        "start": 4269
      },
      {
        "length": 32,
        "start": 5254
      },
      {
        "length": 32,
        "start": 5924
      },
      {
        "length": 32,
        "start": 6774
      },
      {
        "length": 32,
        "start": 6903
      },
      {
        "length": 32,
        "start": 7853
      },
      {
        "length": 32,
        "start": 9652
      },
      {
        "length": 32,
        "start": 12418
      }
    ],
    "164": [
      {
        "length": 32,
        "start": 5291
      },
      {
        "length": 32,
        "start": 5972
      },
      {
        "length": 32,
        "start": 6829
      },
      {
        "length": 32,
        "start": 7038
      },
      {
        "length": 32,
        "start": 7890
      },
      {
        "length": 32,
        "start": 9730
      },
      {
        "length": 32,
        "start": 9871
      },
      {
        "length": 32,
        "start": 12479
      }
    ],
    "4699": [
      {
        "length": 32,
        "start": 4087
      },
      {
        "length": 32,
        "start": 4460
      },
      {
        "length": 32,
        "start": 7313
      },
      {
        "length": 32,
        "start": 7462
      },
      {
        "length": 32,
        "start": 7679
      },
      {
        "length": 32,
        "start": 10095
      },
      {
        "length": 32,
        "start": 11344
      },
      {
        "length": 32,
        "start": 15834
      },
      {
        "length": 32,
        "start": 17421
      },
      {
        "length": 32,
        "start": 17482
      },
      {
        "length": 32,
        "start": 17543
      }
    ]
  },
  "source": "// SPDX-License-Identifier: MIT\n\npragma solidity ^0.6.0;\n\nimport \"@openzeppelin/contracts/access/Ownable.sol\";\nimport \"@openzeppelin/contracts/math/Math.sol\";\nimport \"@openzeppelin/contracts/math/SafeMath.sol\";\nimport \"@openzeppelin/contracts/token/ERC20/ERC20.sol\";\nimport \"./interfaces/IReferralFeeReceiver.sol\";\nimport \"./libraries/UniERC20.sol\";\nimport \"./libraries/Sqrt.sol\";\nimport \"./libraries/VirtualBalance.sol\";\nimport \"./governance/MooniswapGovernance.sol\";\n\n\ncontract Mooniswap is MooniswapGovernance, Ownable {\n    using Sqrt for uint256;\n    using SafeMath for uint256;\n    using UniERC20 for IERC20;\n    using VirtualBalance for VirtualBalance.Data;\n\n    struct Balances {\n        uint256 src;\n        uint256 dst;\n    }\n\n    struct SwapVolumes {\n        uint128 confirmed;\n        uint128 result;\n    }\n\n    struct Fees {\n        uint256 fee;\n        uint256 slippageFee;\n    }\n\n    event Deposited(\n        address indexed sender,\n        address indexed receiver,\n        uint256 share,\n        uint256 token0Amount,\n        uint256 token1Amount\n    );\n\n    event Withdrawn(\n        address indexed sender,\n        address indexed receiver,\n        uint256 share,\n        uint256 token0Amount,\n        uint256 token1Amount\n    );\n\n    event Swapped(\n        address indexed sender,\n        address indexed receiver,\n        address indexed srcToken,\n        address dstToken,\n        uint256 amount,\n        uint256 result,\n        uint256 srcAdditionBalance,\n        uint256 dstRemovalBalance,\n        address referral\n    );\n\n    event Sync(\n        uint256 srcBalance,\n        uint256 dstBalance,\n        uint256 fee,\n        uint256 slippageFee,\n        uint256 referralShare,\n        uint256 governanceShare\n    );\n\n    uint256 private constant _BASE_SUPPLY = 1000;  // Total supply on first deposit\n\n    IERC20 public immutable token0;\n    IERC20 public immutable token1;\n    mapping(IERC20 => SwapVolumes) public volumes;\n    mapping(IERC20 => VirtualBalance.Data) public virtualBalancesForAddition;\n    mapping(IERC20 => VirtualBalance.Data) public virtualBalancesForRemoval;\n\n    constructor(\n        IERC20 _token0,\n        IERC20 _token1,\n        string memory name,\n        string memory symbol,\n        IMooniswapFactoryGovernance _mooniswapFactoryGovernance\n    )\n        public\n        ERC20(name, symbol)\n        MooniswapGovernance(_mooniswapFactoryGovernance)\n    {\n        require(bytes(name).length > 0, \"Mooniswap: name is empty\");\n        require(bytes(symbol).length > 0, \"Mooniswap: symbol is empty\");\n        require(_token0 != _token1, \"Mooniswap: duplicate tokens\");\n        token0 = _token0;\n        token1 = _token1;\n    }\n\n    function getTokens() external view returns(IERC20[] memory tokens) {\n        tokens = new IERC20[](2);\n        tokens[0] = token0;\n        tokens[1] = token1;\n    }\n\n    function tokens(uint256 i) external view returns(IERC20) {\n        if (i == 0) {\n            return token0;\n        } else if (i == 1) {\n            return token1;\n        } else {\n            revert(\"Pool has two tokens\");\n        }\n    }\n\n    function getBalanceForAddition(IERC20 token) public view returns(uint256) {\n        uint256 balance = token.uniBalanceOf(address(this));\n        return Math.max(virtualBalancesForAddition[token].current(decayPeriod(), balance), balance);\n    }\n\n    function getBalanceForRemoval(IERC20 token) public view returns(uint256) {\n        uint256 balance = token.uniBalanceOf(address(this));\n        return Math.min(virtualBalancesForRemoval[token].current(decayPeriod(), balance), balance);\n    }\n\n    function getReturn(IERC20 src, IERC20 dst, uint256 amount) external view returns(uint256) {\n        return _getReturn(src, dst, amount, getBalanceForAddition(src), getBalanceForRemoval(dst), fee(), slippageFee());\n    }\n\n    function deposit(uint256[2] memory maxAmounts, uint256[2] memory minAmounts) external payable returns(uint256 fairSupply, uint256[2] memory receivedAmounts) {\n        return depositFor(maxAmounts, minAmounts, msg.sender);\n    }\n\n    function depositFor(uint256[2] memory maxAmounts, uint256[2] memory minAmounts, address target) public payable nonReentrant returns(uint256 fairSupply, uint256[2] memory receivedAmounts) {\n        IERC20[2] memory _tokens = [token0, token1];\n        require(msg.value == (_tokens[0].isETH() ? maxAmounts[0] : (_tokens[1].isETH() ? maxAmounts[1] : 0)), \"Mooniswap: wrong value usage\");\n\n        uint256 totalSupply = totalSupply();\n\n        if (totalSupply == 0) {\n            fairSupply = _BASE_SUPPLY.mul(99);\n            _mint(address(this), _BASE_SUPPLY); // Donate up to 1%\n\n            for (uint i = 0; i < maxAmounts.length; i++) {\n                fairSupply = Math.max(fairSupply, maxAmounts[i]);\n\n                require(maxAmounts[i] > 0, \"Mooniswap: amount is zero\");\n                require(maxAmounts[i] >= minAmounts[i], \"Mooniswap: minAmount not reached\");\n\n                _tokens[i].uniTransferFrom(msg.sender, address(this), maxAmounts[i]);\n                receivedAmounts[i] = maxAmounts[i];\n            }\n        }\n        else {\n            uint256[2] memory realBalances;\n            for (uint i = 0; i < realBalances.length; i++) {\n                realBalances[i] = _tokens[i].uniBalanceOf(address(this)).sub(_tokens[i].isETH() ? msg.value : 0);\n            }\n\n            // Pre-compute fair supply\n            fairSupply = type(uint256).max;\n            for (uint i = 0; i < maxAmounts.length; i++) {\n                fairSupply = Math.min(fairSupply, totalSupply.mul(maxAmounts[i]).div(realBalances[i]));\n            }\n\n            uint256 fairSupplyCached = fairSupply;\n\n            for (uint i = 0; i < maxAmounts.length; i++) {\n                require(maxAmounts[i] > 0, \"Mooniswap: amount is zero\");\n                uint256 amount = realBalances[i].mul(fairSupplyCached).add(totalSupply - 1).div(totalSupply);\n                require(amount >= minAmounts[i], \"Mooniswap: minAmount not reached\");\n\n                _tokens[i].uniTransferFrom(msg.sender, address(this), amount);\n                receivedAmounts[i] = _tokens[i].uniBalanceOf(address(this)).sub(realBalances[i]);\n                fairSupply = Math.min(fairSupply, totalSupply.mul(receivedAmounts[i]).div(realBalances[i]));\n            }\n\n            uint256 _decayPeriod = decayPeriod();  // gas savings\n            for (uint i = 0; i < maxAmounts.length; i++) {\n                virtualBalancesForRemoval[_tokens[i]].scale(_decayPeriod, realBalances[i], totalSupply.add(fairSupply), totalSupply);\n                virtualBalancesForAddition[_tokens[i]].scale(_decayPeriod, realBalances[i], totalSupply.add(fairSupply), totalSupply);\n            }\n        }\n\n        require(fairSupply > 0, \"Mooniswap: result is not enough\");\n        _mint(target, fairSupply);\n\n        emit Deposited(msg.sender, target, fairSupply, receivedAmounts[0], receivedAmounts[1]);\n    }\n\n    function withdraw(uint256 amount, uint256[] memory minReturns) external returns(uint256[2] memory withdrawnAmounts) {\n        return withdrawFor(amount, minReturns, msg.sender);\n    }\n\n    function withdrawFor(uint256 amount, uint256[] memory minReturns, address payable target) public nonReentrant returns(uint256[2] memory withdrawnAmounts) {\n        IERC20[2] memory _tokens = [token0, token1];\n\n        uint256 totalSupply = totalSupply();\n        uint256 _decayPeriod = decayPeriod();  // gas savings\n        _burn(msg.sender, amount);\n\n        for (uint i = 0; i < _tokens.length; i++) {\n            IERC20 token = _tokens[i];\n\n            uint256 preBalance = token.uniBalanceOf(address(this));\n            uint256 value = preBalance.mul(amount).div(totalSupply);\n            token.uniTransfer(target, value);\n            withdrawnAmounts[i] = value;\n            require(i >= minReturns.length || value >= minReturns[i], \"Mooniswap: result is not enough\");\n\n            virtualBalancesForAddition[token].scale(_decayPeriod, preBalance, totalSupply.sub(amount), totalSupply);\n            virtualBalancesForRemoval[token].scale(_decayPeriod, preBalance, totalSupply.sub(amount), totalSupply);\n        }\n\n        emit Withdrawn(msg.sender, target, amount, withdrawnAmounts[0], withdrawnAmounts[1]);\n    }\n\n    function swap(IERC20 src, IERC20 dst, uint256 amount, uint256 minReturn, address referral) external payable returns(uint256 result) {\n        return swapFor(src, dst, amount, minReturn, referral, msg.sender);\n    }\n\n    function swapFor(IERC20 src, IERC20 dst, uint256 amount, uint256 minReturn, address referral, address payable receiver) public payable nonReentrant returns(uint256 result) {\n        require(msg.value == (src.isETH() ? amount : 0), \"Mooniswap: wrong value usage\");\n\n        Balances memory balances = Balances({\n            src: src.uniBalanceOf(address(this)).sub(src.isETH() ? msg.value : 0),\n            dst: dst.uniBalanceOf(address(this))\n        });\n        uint256 confirmed;\n        Balances memory virtualBalances;\n        Fees memory fees = Fees({\n            fee: fee(),\n            slippageFee: slippageFee()\n        });\n        (confirmed, result, virtualBalances) = _doTransfers(src, dst, amount, minReturn, receiver, balances, fees);\n        _mintRewards(confirmed, result, referral, balances, fees);\n        emit Swapped(msg.sender, receiver, address(src), address(dst), confirmed, result, virtualBalances.src, virtualBalances.dst, referral);\n\n        // Overflow of uint128 is desired\n        volumes[src].confirmed += uint128(confirmed);\n        volumes[src].result += uint128(result);\n    }\n\n    function _doTransfers(IERC20 src, IERC20 dst, uint256 amount, uint256 minReturn, address payable receiver, Balances memory balances, Fees memory fees)\n        private returns(uint256 confirmed, uint256 result, Balances memory virtualBalances)\n    {\n        uint256 _decayPeriod = decayPeriod();\n        virtualBalances.src = virtualBalancesForAddition[src].current(_decayPeriod, balances.src);\n        virtualBalances.src = Math.max(virtualBalances.src, balances.src);\n        virtualBalances.dst = virtualBalancesForRemoval[dst].current(_decayPeriod, balances.dst);\n        virtualBalances.dst = Math.min(virtualBalances.dst, balances.dst);\n        src.uniTransferFrom(msg.sender, address(this), amount);\n        confirmed = src.uniBalanceOf(address(this)).sub(balances.src);\n        result = _getReturn(src, dst, confirmed, virtualBalances.src, virtualBalances.dst, fees.fee, fees.slippageFee);\n        require(result > 0 && result >= minReturn, \"Mooniswap: return is not enough\");\n        dst.uniTransfer(receiver, result);\n\n        // Update virtual balances to the same direction only at imbalanced state\n        if (virtualBalances.src != balances.src) {\n            virtualBalancesForAddition[src].set(virtualBalances.src.add(confirmed));\n        }\n        if (virtualBalances.dst != balances.dst) {\n            virtualBalancesForRemoval[dst].set(virtualBalances.dst.sub(result));\n        }\n        // Update virtual balances to the opposite direction\n        virtualBalancesForRemoval[src].update(_decayPeriod, balances.src);\n        virtualBalancesForAddition[dst].update(_decayPeriod, balances.dst);\n    }\n\n    function _mintRewards(uint256 confirmed, uint256 result, address referral, Balances memory balances, Fees memory fees) private {\n        (uint256 referralShare, uint256 governanceShare, address governanceFeeReceiver, address referralFeeReceiver) = mooniswapFactoryGovernance.parameters();\n\n        uint256 invariantRatio = uint256(1e36);\n        invariantRatio = invariantRatio.mul(balances.src.add(confirmed)).div(balances.src);\n        invariantRatio = invariantRatio.mul(balances.dst.sub(result)).div(balances.dst);\n        if (invariantRatio > 1e36) {\n            // calculate share only if invariant increased\n            invariantRatio = invariantRatio.sqrt();\n            uint256 invIncrease = totalSupply().mul(invariantRatio.sub(1e18)).div(invariantRatio);\n\n            if (referral != address(0)) {\n                referralShare = invIncrease.mul(referralShare).div(_FEE_DENOMINATOR);\n                if (referralShare > 0) {\n                    if (referralFeeReceiver != address(0)) {\n                        _mint(referralFeeReceiver, referralShare);\n                        IReferralFeeReceiver(referralFeeReceiver).updateReward(referral, referralShare);\n                    } else {\n                        _mint(referral, referralShare);\n                    }\n                }\n            }\n\n            if (governanceFeeReceiver != address(0)) {\n                governanceShare = invIncrease.mul(governanceShare).div(_FEE_DENOMINATOR);\n                if (governanceShare > 0) {\n                    _mint(governanceFeeReceiver, governanceShare);\n                }\n            }\n        }\n\n        emit Sync(balances.src, balances.dst, fees.fee, fees.slippageFee, referralShare, governanceShare);\n    }\n\n    /*\n        spot_ret = dx * y / x\n        uni_ret = dx * y / (x + dx)\n        slippage = (spot_ret - uni_ret) / spot_ret\n        slippage = dx * dx * y / (x * (x + dx)) / (dx * y / x)\n        slippage = dx / (x + dx)\n        ret = uni_ret * (1 - fee_percentage * slippage)\n        ret = dx * y / (x + dx) * (1 - slip_fee * dx / (x + dx))\n        ret = dx * y / (x + dx) * (x + dx - slip_fee * dx) / (x + dx)\n\n        x = amount * denominator\n        dx = amount * (denominator - fee)\n    */\n    function _getReturn(IERC20 src, IERC20 dst, uint256 amount, uint256 srcBalance, uint256 dstBalance, uint256 fee, uint256 slippageFee) internal view returns(uint256) {\n        if (src > dst) {\n            (src, dst) = (dst, src);\n        }\n        if (amount > 0 && src == token0 && dst == token1) {\n            uint256 taxedAmount = amount.sub(amount.mul(fee).div(_FEE_DENOMINATOR));\n            uint256 taxedSrcBalance = srcBalance.add(taxedAmount);\n            uint256 ret = taxedAmount.mul(dstBalance).div(taxedSrcBalance);\n            uint256 feeNumerator = _FEE_DENOMINATOR.mul(taxedSrcBalance).sub(slippageFee.mul(taxedAmount));\n            uint256 feeDenominator = _FEE_DENOMINATOR.mul(taxedSrcBalance);\n            return ret.mul(feeNumerator).div(feeDenominator);\n        }\n    }\n\n    function rescueFunds(IERC20 token, uint256 amount) external nonReentrant onlyOwner {\n        uint256 balance0 = token0.uniBalanceOf(address(this));\n        uint256 balance1 = token1.uniBalanceOf(address(this));\n\n        token.uniTransfer(msg.sender, amount);\n\n        require(token0.uniBalanceOf(address(this)) >= balance0, \"Mooniswap: access denied\");\n        require(token1.uniBalanceOf(address(this)) >= balance1, \"Mooniswap: access denied\");\n        require(balanceOf(address(this)) >= _BASE_SUPPLY, \"Mooniswap: access denied\");\n    }\n}\n",
  "sourcePath": "/Users/zumzoom/Projects/1inch/mooniswap-v2/contracts/Mooniswap.sol",
  "compiler": {
    "name": "solc",
    "version": "0.6.12+commit.27d51765.Emscripten.clang"
  },
  "schemaVersion": "3.3.2",
  "updatedAt": "2020-12-14T18:27:09.436Z",
  "devdoc": {
    "kind": "dev",
    "methods": {
      "allowance(address,address)": {
        "details": "See {IERC20-allowance}."
      },
      "approve(address,uint256)": {
        "details": "See {IERC20-approve}. Requirements: - `spender` cannot be the zero address."
      },
      "balanceOf(address)": {
        "details": "See {IERC20-balanceOf}."
      },
      "decimals()": {
        "details": "Returns the number of decimals used to get its user representation. For example, if `decimals` equals `2`, a balance of `505` tokens should be displayed to a user as `5,05` (`505 / 10 ** 2`). Tokens usually opt for a value of 18, imitating the relationship between Ether and Wei. This is the value {ERC20} uses, unless {_setupDecimals} is called. NOTE: This information is only used for _display_ purposes: it in no way affects any of the arithmetic of the contract, including {IERC20-balanceOf} and {IERC20-transfer}."
      },
      "decreaseAllowance(address,uint256)": {
        "details": "Atomically decreases the allowance granted to `spender` by the caller. This is an alternative to {approve} that can be used as a mitigation for problems described in {IERC20-approve}. Emits an {Approval} event indicating the updated allowance. Requirements: - `spender` cannot be the zero address. - `spender` must have allowance for the caller of at least `subtractedValue`."
      },
      "increaseAllowance(address,uint256)": {
        "details": "Atomically increases the allowance granted to `spender` by the caller. This is an alternative to {approve} that can be used as a mitigation for problems described in {IERC20-approve}. Emits an {Approval} event indicating the updated allowance. Requirements: - `spender` cannot be the zero address."
      },
      "name()": {
        "details": "Returns the name of the token."
      },
      "owner()": {
        "details": "Returns the address of the current owner."
      },
      "renounceOwnership()": {
        "details": "Leaves the contract without owner. It will not be possible to call `onlyOwner` functions anymore. Can only be called by the current owner. NOTE: Renouncing ownership will leave the contract without an owner, thereby removing any functionality that is only available to the owner."
      },
      "symbol()": {
        "details": "Returns the symbol of the token, usually a shorter version of the name."
      },
      "totalSupply()": {
        "details": "See {IERC20-totalSupply}."
      },
      "transfer(address,uint256)": {
        "details": "See {IERC20-transfer}. Requirements: - `recipient` cannot be the zero address. - the caller must have a balance of at least `amount`."
      },
      "transferFrom(address,address,uint256)": {
        "details": "See {IERC20-transferFrom}. Emits an {Approval} event indicating the updated allowance. This is not required by the EIP. See the note at the beginning of {ERC20}; Requirements: - `sender` and `recipient` cannot be the zero address. - `sender` must have a balance of at least `amount`. - the caller must have allowance for ``sender``'s tokens of at least `amount`."
      },
      "transferOwnership(address)": {
        "details": "Transfers ownership of the contract to a new account (`newOwner`). Can only be called by the current owner."
      }
    },
    "version": 1
  },
  "userdoc": {
    "kind": "user",
    "methods": {},
    "version": 1
  }
}