{
  "contractName": "MooniswapFactory",
  "abi": [
    {
      "inputs": [
        {
          "internalType": "address",
          "name": "_poolOwner",
          "type": "address"
        },
        {
          "internalType": "contract IMooniswapDeployer",
          "name": "_mooniswapDeployer",
          "type": "address"
        },
        {
          "internalType": "address",
          "name": "_governanceMothership",
          "type": "address"
        }
      ],
      "stateMutability": "nonpayable",
      "type": "constructor"
    },
    {
      "anonymous": false,
      "inputs": [
        {
          "indexed": true,
          "internalType": "address",
          "name": "user",
          "type": "address"
        },
        {
          "indexed": false,
          "internalType": "uint256",
          "name": "decayPeriod",
          "type": "uint256"
        },
        {
          "indexed": false,
          "internalType": "bool",
          "name": "isDefault",
          "type": "bool"
        },
        {
          "indexed": false,
          "internalType": "uint256",
          "name": "amount",
          "type": "uint256"
        }
      ],
      "name": "DefaultDecayPeriodVoteUpdate",
      "type": "event"
    },
    {
      "anonymous": false,
      "inputs": [
        {
          "indexed": true,
          "internalType": "address",
          "name": "user",
          "type": "address"
        },
        {
          "indexed": false,
          "internalType": "uint256",
          "name": "fee",
          "type": "uint256"
        },
        {
          "indexed": false,
          "internalType": "bool",
          "name": "isDefault",
          "type": "bool"
        },
        {
          "indexed": false,
          "internalType": "uint256",
          "name": "amount",
          "type": "uint256"
        }
      ],
      "name": "DefaultFeeVoteUpdate",
      "type": "event"
    },
    {
      "anonymous": false,
      "inputs": [
        {
          "indexed": true,
          "internalType": "address",
          "name": "user",
          "type": "address"
        },
        {
          "indexed": false,
          "internalType": "uint256",
          "name": "slippageFee",
          "type": "uint256"
        },
        {
          "indexed": false,
          "internalType": "bool",
          "name": "isDefault",
          "type": "bool"
        },
        {
          "indexed": false,
          "internalType": "uint256",
          "name": "amount",
          "type": "uint256"
        }
      ],
      "name": "DefaultSlippageFeeVoteUpdate",
      "type": "event"
    },
    {
      "anonymous": false,
      "inputs": [
        {
          "indexed": true,
          "internalType": "contract Mooniswap",
          "name": "mooniswap",
          "type": "address"
        },
        {
          "indexed": true,
          "internalType": "contract IERC20",
          "name": "token1",
          "type": "address"
        },
        {
          "indexed": true,
          "internalType": "contract IERC20",
          "name": "token2",
          "type": "address"
        }
      ],
      "name": "Deployed",
      "type": "event"
    },
    {
      "anonymous": false,
      "inputs": [
        {
          "indexed": false,
          "internalType": "address",
          "name": "governanceFeeReceiver",
          "type": "address"
        }
      ],
      "name": "GovernanceFeeReceiverUpdate",
      "type": "event"
    },
    {
      "anonymous": false,
      "inputs": [
        {
          "indexed": true,
          "internalType": "address",
          "name": "user",
          "type": "address"
        },
        {
          "indexed": false,
          "internalType": "uint256",
          "name": "governanceShare",
          "type": "uint256"
        },
        {
          "indexed": false,
          "internalType": "bool",
          "name": "isDefault",
          "type": "bool"
        },
        {
          "indexed": false,
          "internalType": "uint256",
          "name": "amount",
          "type": "uint256"
        }
      ],
      "name": "GovernanceShareVoteUpdate",
      "type": "event"
    },
    {
      "anonymous": false,
      "inputs": [
        {
          "indexed": true,
          "internalType": "address",
          "name": "previousOwner",
          "type": "address"
        },
        {
          "indexed": true,
          "internalType": "address",
          "name": "newOwner",
          "type": "address"
        }
      ],
      "name": "OwnershipTransferred",
      "type": "event"
    },
    {
      "anonymous": false,
      "inputs": [
        {
          "indexed": false,
          "internalType": "address",
          "name": "referralFeeReceiver",
          "type": "address"
        }
      ],
      "name": "ReferralFeeReceiverUpdate",
      "type": "event"
    },
    {
      "anonymous": false,
      "inputs": [
        {
          "indexed": true,
          "internalType": "address",
          "name": "user",
          "type": "address"
        },
        {
          "indexed": false,
          "internalType": "uint256",
          "name": "referralShare",
          "type": "uint256"
        },
        {
          "indexed": false,
          "internalType": "bool",
          "name": "isDefault",
          "type": "bool"
        },
        {
          "indexed": false,
          "internalType": "uint256",
          "name": "amount",
          "type": "uint256"
        }
      ],
      "name": "ReferralShareVoteUpdate",
      "type": "event"
    },
    {
      "inputs": [
        {
          "internalType": "uint256",
          "name": "",
          "type": "uint256"
        }
      ],
      "name": "allPools",
      "outputs": [
        {
          "internalType": "contract Mooniswap",
          "name": "",
          "type": "address"
        }
      ],
      "stateMutability": "view",
      "type": "function"
    },
    {
      "inputs": [
        {
          "internalType": "address",
          "name": "account",
          "type": "address"
        }
      ],
      "name": "balanceOf",
      "outputs": [
        {
          "internalType": "uint256",
          "name": "",
          "type": "uint256"
        }
      ],
      "stateMutability": "view",
      "type": "function"
    },
    {
      "inputs": [],
      "name": "defaultDecayPeriod",
      "outputs": [
        {
          "internalType": "uint256",
          "name": "",
          "type": "uint256"
        }
      ],
      "stateMutability": "view",
      "type": "function"
    },
    {
      "inputs": [
        {
          "internalType": "uint256",
          "name": "vote",
          "type": "uint256"
        }
      ],
      "name": "defaultDecayPeriodVote",
      "outputs": [],
      "stateMutability": "nonpayable",
      "type": "function"
    },
    {
      "inputs": [
        {
          "internalType": "address",
          "name": "user",
          "type": "address"
        }
      ],
      "name": "defaultDecayPeriodVotes",
      "outputs": [
        {
          "internalType": "uint256",
          "name": "",
          "type": "uint256"
        }
      ],
      "stateMutability": "view",
      "type": "function"
    },
    {
      "inputs": [],
      "name": "defaultFee",
      "outputs": [
        {
          "internalType": "uint256",
          "name": "",
          "type": "uint256"
        }
      ],
      "stateMutability": "view",
      "type": "function"
    },
    {
      "inputs": [
        {
          "internalType": "uint256",
          "name": "vote",
          "type": "uint256"
        }
      ],
      "name": "defaultFeeVote",
      "outputs": [],
      "stateMutability": "nonpayable",
      "type": "function"
    },
    {
      "inputs": [
        {
          "internalType": "address",
          "name": "user",
          "type": "address"
        }
      ],
      "name": "defaultFeeVotes",
      "outputs": [
        {
          "internalType": "uint256",
          "name": "",
          "type": "uint256"
        }
      ],
      "stateMutability": "view",
      "type": "function"
    },
    {
      "inputs": [],
      "name": "defaultSlippageFee",
      "outputs": [
        {
          "internalType": "uint256",
          "name": "",
          "type": "uint256"
        }
      ],
      "stateMutability": "view",
      "type": "function"
    },
    {
      "inputs": [
        {
          "internalType": "uint256",
          "name": "vote",
          "type": "uint256"
        }
      ],
      "name": "defaultSlippageFeeVote",
      "outputs": [],
      "stateMutability": "nonpayable",
      "type": "function"
    },
    {
      "inputs": [
        {
          "internalType": "address",
          "name": "user",
          "type": "address"
        }
      ],
      "name": "defaultSlippageFeeVotes",
      "outputs": [
        {
          "internalType": "uint256",
          "name": "",
          "type": "uint256"
        }
      ],
      "stateMutability": "view",
      "type": "function"
    },
    {
      "inputs": [],
      "name": "defaults",
      "outputs": [
        {
          "internalType": "uint256",
          "name": "",
          "type": "uint256"
        },
        {
          "internalType": "uint256",
          "name": "",
          "type": "uint256"
        },
        {
          "internalType": "uint256",
          "name": "",
          "type": "uint256"
        }
      ],
      "stateMutability": "view",
      "type": "function"
    },
    {
      "inputs": [],
      "name": "discardDefaultDecayPeriodVote",
      "outputs": [],
      "stateMutability": "nonpayable",
      "type": "function"
    },
    {
      "inputs": [],
      "name": "discardDefaultFeeVote",
      "outputs": [],
      "stateMutability": "nonpayable",
      "type": "function"
    },
    {
      "inputs": [],
      "name": "discardDefaultSlippageFeeVote",
      "outputs": [],
      "stateMutability": "nonpayable",
      "type": "function"
    },
    {
      "inputs": [],
      "name": "discardGovernanceShareVote",
      "outputs": [],
      "stateMutability": "nonpayable",
      "type": "function"
    },
    {
      "inputs": [],
      "name": "discardReferralShareVote",
      "outputs": [],
      "stateMutability": "nonpayable",
      "type": "function"
    },
    {
      "inputs": [],
      "name": "governanceFeeReceiver",
      "outputs": [
        {
          "internalType": "address",
          "name": "",
          "type": "address"
        }
      ],
      "stateMutability": "view",
      "type": "function"
    },
    {
      "inputs": [],
      "name": "governanceShare",
      "outputs": [
        {
          "internalType": "uint256",
          "name": "",
          "type": "uint256"
        }
      ],
      "stateMutability": "view",
      "type": "function"
    },
    {
      "inputs": [
        {
          "internalType": "uint256",
          "name": "vote",
          "type": "uint256"
        }
      ],
      "name": "governanceShareVote",
      "outputs": [],
      "stateMutability": "nonpayable",
      "type": "function"
    },
    {
      "inputs": [
        {
          "internalType": "address",
          "name": "user",
          "type": "address"
        }
      ],
      "name": "governanceShareVotes",
      "outputs": [
        {
          "internalType": "uint256",
          "name": "",
          "type": "uint256"
        }
      ],
      "stateMutability": "view",
      "type": "function"
    },
    {
      "inputs": [
        {
          "internalType": "address",
          "name": "",
          "type": "address"
        }
      ],
      "name": "isFeeReceiver",
      "outputs": [
        {
          "internalType": "bool",
          "name": "",
          "type": "bool"
        }
      ],
      "stateMutability": "view",
      "type": "function"
    },
    {
      "inputs": [
        {
          "internalType": "contract Mooniswap",
          "name": "",
          "type": "address"
        }
      ],
      "name": "isPool",
      "outputs": [
        {
          "internalType": "bool",
          "name": "",
          "type": "bool"
        }
      ],
      "stateMutability": "view",
      "type": "function"
    },
    {
      "inputs": [],
      "name": "mooniswapDeployer",
      "outputs": [
        {
          "internalType": "contract IMooniswapDeployer",
          "name": "",
          "type": "address"
        }
      ],
      "stateMutability": "view",
      "type": "function"
    },
    {
      "inputs": [],
      "name": "mothership",
      "outputs": [
        {
          "internalType": "address",
          "name": "",
          "type": "address"
        }
      ],
      "stateMutability": "view",
      "type": "function"
    },
    {
      "inputs": [
        {
          "internalType": "address",
          "name": "account",
          "type": "address"
        },
        {
          "internalType": "uint256",
          "name": "newBalance",
          "type": "uint256"
        }
      ],
      "name": "notifyStakeChanged",
      "outputs": [],
      "stateMutability": "nonpayable",
      "type": "function"
    },
    {
      "inputs": [
        {
          "internalType": "address[]",
          "name": "accounts",
          "type": "address[]"
        },
        {
          "internalType": "uint256[]",
          "name": "newBalances",
          "type": "uint256[]"
        }
      ],
      "name": "notifyStakesChanged",
      "outputs": [],
      "stateMutability": "nonpayable",
      "type": "function"
    },
    {
      "inputs": [],
      "name": "owner",
      "outputs": [
        {
          "internalType": "address",
          "name": "",
          "type": "address"
        }
      ],
      "stateMutability": "view",
      "type": "function"
    },
    {
      "inputs": [],
      "name": "poolOwner",
      "outputs": [
        {
          "internalType": "address",
          "name": "",
          "type": "address"
        }
      ],
      "stateMutability": "view",
      "type": "function"
    },
    {
      "inputs": [],
      "name": "referralFeeReceiver",
      "outputs": [
        {
          "internalType": "address",
          "name": "",
          "type": "address"
        }
      ],
      "stateMutability": "view",
      "type": "function"
    },
    {
      "inputs": [],
      "name": "referralShare",
      "outputs": [
        {
          "internalType": "uint256",
          "name": "",
          "type": "uint256"
        }
      ],
      "stateMutability": "view",
      "type": "function"
    },
    {
      "inputs": [
        {
          "internalType": "uint256",
          "name": "vote",
          "type": "uint256"
        }
      ],
      "name": "referralShareVote",
      "outputs": [],
      "stateMutability": "nonpayable",
      "type": "function"
    },
    {
      "inputs": [
        {
          "internalType": "address",
          "name": "user",
          "type": "address"
        }
      ],
      "name": "referralShareVotes",
      "outputs": [
        {
          "internalType": "uint256",
          "name": "",
          "type": "uint256"
        }
      ],
      "stateMutability": "view",
      "type": "function"
    },
    {
      "inputs": [],
      "name": "renounceOwnership",
      "outputs": [],
      "stateMutability": "nonpayable",
      "type": "function"
    },
    {
      "inputs": [
        {
          "internalType": "address",
          "name": "newGovernanceFeeReceiver",
          "type": "address"
        }
      ],
      "name": "setGovernanceFeeReceiver",
      "outputs": [],
      "stateMutability": "nonpayable",
      "type": "function"
    },
    {
      "inputs": [
        {
          "internalType": "address",
          "name": "newReferralFeeReceiver",
          "type": "address"
        }
      ],
      "name": "setReferralFeeReceiver",
      "outputs": [],
      "stateMutability": "nonpayable",
      "type": "function"
    },
    {
      "inputs": [],
      "name": "shareParameters",
      "outputs": [
        {
          "internalType": "uint256",
          "name": "",
          "type": "uint256"
        },
        {
          "internalType": "uint256",
          "name": "",
          "type": "uint256"
        },
        {
          "internalType": "address",
          "name": "",
          "type": "address"
        },
        {
          "internalType": "address",
          "name": "",
          "type": "address"
        }
      ],
      "stateMutability": "view",
      "type": "function"
    },
    {
      "inputs": [],
      "name": "totalSupply",
      "outputs": [
        {
          "internalType": "uint256",
          "name": "",
          "type": "uint256"
        }
      ],
      "stateMutability": "view",
      "type": "function"
    },
    {
      "inputs": [
        {
          "internalType": "address",
          "name": "newOwner",
          "type": "address"
        }
      ],
      "name": "transferOwnership",
      "outputs": [],
      "stateMutability": "nonpayable",
      "type": "function"
    },
    {
      "inputs": [],
      "name": "virtualDefaultDecayPeriod",
      "outputs": [
        {
          "internalType": "uint104",
          "name": "",
          "type": "uint104"
        },
        {
          "internalType": "uint104",
          "name": "",
          "type": "uint104"
        },
        {
          "internalType": "uint48",
          "name": "",
          "type": "uint48"
        }
      ],
      "stateMutability": "view",
      "type": "function"
    },
    {
      "inputs": [],
      "name": "virtualDefaultFee",
      "outputs": [
        {
          "internalType": "uint104",
          "name": "",
          "type": "uint104"
        },
        {
          "internalType": "uint104",
          "name": "",
          "type": "uint104"
        },
        {
          "internalType": "uint48",
          "name": "",
          "type": "uint48"
        }
      ],
      "stateMutability": "view",
      "type": "function"
    },
    {
      "inputs": [],
      "name": "virtualDefaultSlippageFee",
      "outputs": [
        {
          "internalType": "uint104",
          "name": "",
          "type": "uint104"
        },
        {
          "internalType": "uint104",
          "name": "",
          "type": "uint104"
        },
        {
          "internalType": "uint48",
          "name": "",
          "type": "uint48"
        }
      ],
      "stateMutability": "view",
      "type": "function"
    },
    {
      "inputs": [],
      "name": "virtualGovernanceShare",
      "outputs": [
        {
          "internalType": "uint104",
          "name": "",
          "type": "uint104"
        },
        {
          "internalType": "uint104",
          "name": "",
          "type": "uint104"
        },
        {
          "internalType": "uint48",
          "name": "",
          "type": "uint48"
        }
      ],
      "stateMutability": "view",
      "type": "function"
    },
    {
      "inputs": [],
      "name": "virtualReferralShare",
      "outputs": [
        {
          "internalType": "uint104",
          "name": "",
          "type": "uint104"
        },
        {
          "internalType": "uint104",
          "name": "",
          "type": "uint104"
        },
        {
          "internalType": "uint48",
          "name": "",
          "type": "uint48"
        }
      ],
      "stateMutability": "view",
      "type": "function"
    },
    {
      "inputs": [],
      "name": "getAllPools",
      "outputs": [
        {
          "internalType": "contract Mooniswap[]",
          "name": "",
          "type": "address[]"
        }
      ],
      "stateMutability": "view",
      "type": "function"
    },
    {
      "inputs": [
        {
          "internalType": "contract IERC20",
          "name": "tokenA",
          "type": "address"
        },
        {
          "internalType": "contract IERC20",
          "name": "tokenB",
          "type": "address"
        }
      ],
      "name": "pools",
      "outputs": [
        {
          "internalType": "contract Mooniswap",
          "name": "pool",
          "type": "address"
        }
      ],
      "stateMutability": "view",
      "type": "function"
    },
    {
      "inputs": [
        {
          "internalType": "contract IERC20",
          "name": "tokenA",
          "type": "address"
        },
        {
          "internalType": "contract IERC20",
          "name": "tokenB",
          "type": "address"
        }
      ],
      "name": "deploy",
      "outputs": [
        {
          "internalType": "contract Mooniswap",
          "name": "pool",
          "type": "address"
        }
      ],
      "stateMutability": "nonpayable",
      "type": "function"
    },
    {
      "inputs": [
        {
          "internalType": "contract IERC20",
          "name": "tokenA",
          "type": "address"
        },
        {
          "internalType": "contract IERC20",
          "name": "tokenB",
          "type": "address"
        }
      ],
      "name": "sortTokens",
      "outputs": [
        {
          "internalType": "contract IERC20",
          "name": "",
          "type": "address"
        },
        {
          "internalType": "contract IERC20",
          "name": "",
          "type": "address"
        }
      ],
      "stateMutability": "pure",
      "type": "function"
    }
  ],
  "bytecode": "0x60e06040523480156200001157600080fd5b506040516200363938038062003639833981810160405260608110156200003757600080fd5b50805160208201516040909201516001600160601b0319606082901b166080529091908060006200006762000232565b600280546001600160a01b0319166001600160a01b038316908117909155604051919250906000907f8be0079c531659141344cd1fd0a4f28419497f9722a3daafe3b4186f6b6457e0908290a350620000cc60006200023660201b620021471760201c565b6003600001600001600d6101000a8154816001600160681b0302191690836001600160681b0316021790555062000116670de0b6b3a76400006200023660201b620021471760201c565b6007600001600001600d6101000a8154816001600160681b0302191690836001600160681b0316021790555062000159603c6200023660201b620021471760201c565b600b600001600001600d6101000a8154816001600160681b0302191690836001600160681b03160217905550620001a367016345785d8a00006200023660201b620021471760201c565b600f600001600001600d6101000a8154816001600160681b0302191690836001600160681b03160217905550620001e660006200023660201b620021471760201c565b601380546001600160681b0392909216600160681b02600160681b600160d01b031990921691909117905550506001600160601b0319606092831b811660c052911b1660a05262000295565b3390565b6000600160681b821062000291576040805162461bcd60e51b815260206004820152601e60248201527f76616c756520646f6573206e6f742066697420696e2031303420626974730000604482015290519081900360640190fd5b5090565b60805160601c60a05160601c60c05160601c61335a620002df6000398061131e5280611c085250806110b95280611a75525080610c485280610e09528061195c525061335a6000f3fe608060405234801561001057600080fd5b50600436106103205760003560e01c8063865e4573116101a7578063cf0b2270116100ee578063e9f7e17b11610097578063f2fde38b11610071578063f2fde38b146108b1578063f3830335146108d7578063fb20b7d0146108df57610320565b8063e9f7e17b14610866578063edb7a6fa14610883578063ef54244b146108a957610320565b8063e1ea2554116100c8578063e1ea25541461084e578063e7a7b5a014610856578063e859e56c1461085e57610320565b8063cf0b2270146107d1578063d88ff1f4146107d9578063d8f4e0eb1461083157610320565b8063ad33334811610150578063b8ffca321161012a578063b8ffca321461079b578063c5d5185a146107a3578063c7feefe8146107c957610320565b8063ad333348146106ab578063b0cb4b0a1461076d578063b278110f1461077557610320565b8063901754d711610181578063901754d71461063a5780639725ff351461066857806399fca7d91461068557610320565b8063865e4573146106045780638d4241271461062a5780638da5cb5b1461063257610320565b80634187b7d61161026b5780635b16ebb711610214578063715018a6116101ee578063715018a6146105ce5780637c4423a8146105d657806385555934146105fc57610320565b80635b16ebb714610566578063612a9f76146105a057806370a08231146105a857610320565b8063544caa5611610245578063544caa56146104d3578063545e7c61146105305780635a6c72d01461055e57610320565b80634187b7d61461046c57806341d1de971461049057806346398144146104ad57610320565b80631845f0db116102cd57806327a27433116102a757806327a274331461041b5780632ba653ec146104475780633eed75c31461046457610320565b80631845f0db1461040357806322abd7b21461040b57806323662bb91461041357610320565b8063172886e7116102fe578063172886e71461038457806317901de3146103bb57806318160ddd146103fb57610320565b8063117036d11461032557806314fd235a1461035d578063151359b41461037c575b600080fd5b61034b6004803603602081101561033b57600080fd5b50356001600160a01b0316610905565b60408051918252519081900360200190f35b61037a6004803603602081101561037357600080fd5b5035610945565b005b61037a6109eb565b61038c610a32565b6040805194855260208501939093526001600160a01b0391821684840152166060830152519081900360800190f35b6103c3610b08565b604080516cffffffffffffffffffffffffff948516815292909316602083015265ffffffffffff168183015290519081900360600190f35b61034b610b44565b61034b610b4a565b6103c3610ba8565b61034b610be4565b61037a6004803603604081101561043157600080fd5b506001600160a01b038135169060200135610c3d565b61037a6004803603602081101561045d57600080fd5b5035610cc8565b61037a610dbb565b610474610e07565b604080516001600160a01b039092168252519081900360200190f35b610474600480360360208110156104a657600080fd5b5035610e2b565b61037a600480360360208110156104c357600080fd5b50356001600160a01b0316610e52565b610501600480360360408110156104e957600080fd5b506001600160a01b0381358116916020013516610f61565b60405180836001600160a01b03168152602001826001600160a01b031681526020019250505060405180910390f35b6104746004803603604081101561054657600080fd5b506001600160a01b0381358116916020013516610f95565b61034b611591565b61058c6004803603602081101561057c57600080fd5b50356001600160a01b03166115ea565b604080519115158252519081900360200190f35b61037a6115ff565b61034b600480360360208110156105be57600080fd5b50356001600160a01b031661162b565b61037a611646565b61034b600480360360208110156105ec57600080fd5b50356001600160a01b0316611712565b61037a611743565b61034b6004803603602081101561061a57600080fd5b50356001600160a01b031661176f565b61037a61179f565b6104746117eb565b6104746004803603604081101561065057600080fd5b506001600160a01b03813581169160200135166117fa565b61037a6004803603602081101561067e57600080fd5b503561183b565b61034b6004803603602081101561069b57600080fd5b50356001600160a01b0316611921565b61037a600480360360408110156106c157600080fd5b8101906020810181356401000000008111156106dc57600080fd5b8201836020820111156106ee57600080fd5b8035906020019184602083028401116401000000008311171561071057600080fd5b91939092909160208101903564010000000081111561072e57600080fd5b82018360208201111561074057600080fd5b8035906020019184602083028401116401000000008311171561076257600080fd5b509092509050611951565b610474611a73565b61058c6004803603602081101561078b57600080fd5b50356001600160a01b0316611a97565b6103c3611aac565b61037a600480360360208110156107b957600080fd5b50356001600160a01b0316611ae8565b610474611bf7565b610474611c06565b6107e1611c2a565b60408051602080825283518183015283519192839290830191858101910280838360005b8381101561081d578181015183820152602001610805565b505050509050019250505060405180910390f35b61037a6004803603602081101561084757600080fd5b5035611c8c565b610474611d15565b6103c3611d24565b61034b611d60565b61037a6004803603602081101561087c57600080fd5b5035611db9565b61088b611e43565b60408051938452602084019290925282820152519081900360600190f35b6103c3611f57565b61037a600480360360208110156108c757600080fd5b50356001600160a01b0316611f93565b61034b6120b6565b61034b600480360360208110156108f557600080fd5b50356001600160a01b031661210f565b6001600160a01b0381166000908152601260209081526040808320815192830190915254815261093d9067016345785d8a00006121af565b90505b919050565b67016345785d8a00008111156109a2576040805162461bcd60e51b815260206004820152601a60248201527f476f7620736861726520766f746520697320746f6f2068696768000000000000604482015290519081900360640190fd5b336000818152601660209081526040918290208251918201909252905481526109e891906109cf846121e9565b6109d83361162b565b601393929190600061220861225b565b50565b33600081815260066020908152604091829020825191820190925290548152610a309190610a17612274565b610a203361162b565b600393929190600061228f61225b565b565b60408051606081018252600f546cffffffffffffffffffffffffff80821683526d01000000000000000000000000008204166020830152600160d01b900465ffffffffffff1691810191909152600090819081908190610a91906122e2565b604080516060810182526013546cffffffffffffffffffffffffff80821683526d01000000000000000000000000008204166020830152600160d01b900465ffffffffffff1691810191909152610ae7906122e2565b60175460185492979196506001600160a01b03908116955090911692509050565b600f546cffffffffffffffffffffffffff808216926d0100000000000000000000000000830490911691600160d01b900465ffffffffffff1690565b60005490565b60408051606081018252600b546cffffffffffffffffffffffffff80821683526d01000000000000000000000000008204166020830152600160d01b900465ffffffffffff1691810191909152600090610ba3906122e2565b905090565b6013546cffffffffffffffffffffffffff808216926d0100000000000000000000000000830490911691600160d01b900465ffffffffffff1690565b604080516060810182526007546cffffffffffffffffffffffffff80821683526d01000000000000000000000000008204166020830152600160d01b900465ffffffffffff1691810191909152600090610ba3906122e2565b336001600160a01b037f00000000000000000000000000000000000000000000000000000000000000001614610cba576040805162461bcd60e51b815260206004820152601f60248201527f416363657373207265737472696374656420746f206d6f746865727368697000604482015290519081900360640190fd5b610cc48282612382565b5050565b61012c811115610d1f576040805162461bcd60e51b815260206004820152601d60248201527f446563617920706572696f6420766f746520697320746f6f2068696768000000604482015290519081900360640190fd5b603c811015610d75576040805162461bcd60e51b815260206004820152601c60248201527f446563617920706572696f6420766f746520697320746f6f206c6f7700000000604482015290519081900360640190fd5b336000818152600e60209081526040918290208251918201909252905481526109e89190610da2846121e9565b610dab3361162b565b600b93929190603c6124de61225b565b33600081815260126020908152604091829020825191820190925290548152610a309190610de7612274565b610df03361162b565b600f9392919067016345785d8a000061253161225b565b7f000000000000000000000000000000000000000000000000000000000000000081565b601a8181548110610e3857fe5b6000918252602090912001546001600160a01b0316905081565b610e5a612584565b6002546001600160a01b03908116911614610ebc576040805162461bcd60e51b815260206004820181905260248201527f4f776e61626c653a2063616c6c6572206973206e6f7420746865206f776e6572604482015290519081900360640190fd5b601780547fffffffffffffffffffffffff0000000000000000000000000000000000000000166001600160a01b03831690811790915560008181526019602090815260409182902080547fffffffffffffffffffffffffffffffffffffffffffffffffffffffffffffff00166001179055815192835290517f9870f2a0fa9bb3dac123818f30cafb067298f95c91b95615af8af970e0d4d6a39281900390910190a150565b600080826001600160a01b0316846001600160a01b03161015610f88575082905081610f8e565b50819050825b9250929050565b6000816001600160a01b0316836001600160a01b03161415610ffe576040805162461bcd60e51b815260206004820181905260248201527f466163746f72793a206e6f7420737570706f72742073616d6520746f6b656e73604482015290519081900360640190fd5b60008061100b8585610f61565b6001600160a01b038083166000908152601c602090815260408083208486168452909152902054929450909250161561108b576040805162461bcd60e51b815260206004820152601c60248201527f466163746f72793a20706f6f6c20616c72656164792065786973747300000000604482015290519081900360640190fd5b606061109f836001600160a01b0316612588565b905060606110b5836001600160a01b0316612588565b90507f00000000000000000000000000000000000000000000000000000000000000006001600160a01b031663b92440b08585858560405160200180807f4d6f6f6e69737761702056322028000000000000000000000000000000000000815250600e0183805190602001908083835b602083106111445780518252601f199092019160209182019101611125565b6001836020036101000a038019825116818451168082178552505050505050905001807f2d0000000000000000000000000000000000000000000000000000000000000081525060010182805190602001908083835b602083106111b95780518252601f19909201916020918201910161119a565b6001836020036101000a038019825116818451168082178552505050505050905001807f290000000000000000000000000000000000000000000000000000000000000081525060010192505050604051602081830303815290604052868660405160200180807f4d4f4f4e2d56322d00000000000000000000000000000000000000000000000081525060080183805190602001908083835b602083106112725780518252601f199092019160209182019101611253565b6001836020036101000a038019825116818451168082178552505050505050905001807f2d0000000000000000000000000000000000000000000000000000000000000081525060010182805190602001908083835b602083106112e75780518252601f1990920191602091820191016112c8565b6001836020036101000a038019825116818451168082178552505050505050905001925050506040516020818303038152906040527f00000000000000000000000000000000000000000000000000000000000000006040518663ffffffff1660e01b815260040180866001600160a01b03168152602001856001600160a01b031681526020018060200180602001846001600160a01b03168152602001838103835286818151815260200191508051906020019080838360005b838110156113ba5781810151838201526020016113a2565b50505050905090810190601f1680156113e75780820380516001836020036101000a031916815260200191505b50838103825285518152855160209182019187019080838360005b8381101561141a578181015183820152602001611402565b50505050905090810190601f1680156114475780820380516001836020036101000a031916815260200191505b50975050505050505050602060405180830381600087803b15801561146b57600080fd5b505af115801561147f573d6000803e3d6000fd5b505050506040513d602081101561149557600080fd5b50516001600160a01b038086166000818152601c6020908152604080832089861680855290835281842080549688167fffffffffffffffffffffffff00000000000000000000000000000000000000009788168117909155601a805460018181019092557f057c384a7d1c54f3a1b2e5e67b2617b8224fdfd1ea7234eea573a6ff665ff63e0180549098168217909755808552601b90935281842080547fffffffffffffffffffffffffffffffffffffffffffffffffffffffffffffff00169096179095555194995092939192917fc95935a66d15e0da5e412aca0ad27ae891d20b2fb91cf3994b6a3bf2b81780829190a45050505092915050565b604080516060810182526003546cffffffffffffffffffffffffff80821683526d01000000000000000000000000008204166020830152600160d01b900465ffffffffffff1691810191909152600090610ba3906122e2565b601b6020526000908152604090205460ff1681565b33600081815260166020908152604091829020825191820190925290548152610a3091906109cf612274565b6001600160a01b031660009081526001602052604090205490565b61164e612584565b6002546001600160a01b039081169116146116b0576040805162461bcd60e51b815260206004820181905260248201527f4f776e61626c653a2063616c6c6572206973206e6f7420746865206f776e6572604482015290519081900360640190fd5b6002546040516000916001600160a01b0316907f8be0079c531659141344cd1fd0a4f28419497f9722a3daafe3b4186f6b6457e0908390a3600280547fffffffffffffffffffffffff0000000000000000000000000000000000000000169055565b6001600160a01b0381166000908152600e60209081526040808320815192830190915254815261093d90603c6121af565b336000818152600e6020908152604091829020825191820190925290548152610a309190610da2612274565b6001600160a01b0381166000908152601660209081526040808320815192830190915254815261093d90826121af565b336000818152600a6020908152604091829020825191820190925290548152610a3091906117cb612274565b6117d43361162b565b600793929190670de0b6b3a7640000612a7b61225b565b6002546001600160a01b031690565b60008060006118098585610f61565b6001600160a01b039182166000908152601c602090815260408083209385168352929052205416925050505b92915050565b67016345785d8a0000811115611898576040805162461bcd60e51b815260206004820152601f60248201527f526566657272616c20736861726520766f746520697320746f6f206869676800604482015290519081900360640190fd5b66b1a2bc2ec500008110156118f4576040805162461bcd60e51b815260206004820152601e60248201527f526566657272616c20736861726520766f746520697320746f6f206c6f770000604482015290519081900360640190fd5b336000818152601260209081526040918290208251918201909252905481526109e89190610de7846121e9565b6001600160a01b0381166000908152600660209081526040808320815192830190915254815261093d90826121af565b336001600160a01b037f000000000000000000000000000000000000000000000000000000000000000016146119ce576040805162461bcd60e51b815260206004820152601f60248201527f416363657373207265737472696374656420746f206d6f746865727368697000604482015290519081900360640190fd5b828114611a22576040805162461bcd60e51b815260206004820152601d60248201527f417272617973206c656e6774682073686f756c6420626520657175616c000000604482015290519081900360640190fd5b60005b83811015611a6c57611a64858583818110611a3c57fe5b905060200201356001600160a01b0316848484818110611a5857fe5b90506020020135612382565b600101611a25565b5050505050565b7f000000000000000000000000000000000000000000000000000000000000000081565b60196020526000908152604090205460ff1681565b6007546cffffffffffffffffffffffffff808216926d0100000000000000000000000000830490911691600160d01b900465ffffffffffff1690565b611af0612584565b6002546001600160a01b03908116911614611b52576040805162461bcd60e51b815260206004820181905260248201527f4f776e61626c653a2063616c6c6572206973206e6f7420746865206f776e6572604482015290519081900360640190fd5b601880547fffffffffffffffffffffffff0000000000000000000000000000000000000000166001600160a01b03831690811790915560008181526019602090815260409182902080547fffffffffffffffffffffffffffffffffffffffffffffffffffffffffffffff00166001179055815192835290517f538574f3b86945605ea4352f9e2f4b7e0627ed519e932c9c418c5e7507c4494d9281900390910190a150565b6018546001600160a01b031681565b7f000000000000000000000000000000000000000000000000000000000000000081565b6060601a805480602002602001604051908101604052809291908181526020018280548015611c8257602002820191906000526020600020905b81546001600160a01b03168152600190910190602001808311611c64575b5050505050905090565b662386f26fc10000811115611ce8576040805162461bcd60e51b815260206004820152601460248201527f46656520766f746520697320746f6f2068696768000000000000000000000000604482015290519081900360640190fd5b336000818152600660209081526040918290208251918201909252905481526109e89190610a17846121e9565b6017546001600160a01b031681565b6003546cffffffffffffffffffffffffff808216926d0100000000000000000000000000830490911691600160d01b900465ffffffffffff1690565b60408051606081018252600f546cffffffffffffffffffffffffff80821683526d01000000000000000000000000008204166020830152600160d01b900465ffffffffffff1691810191909152600090610ba3906122e2565b670de0b6b3a7640000811115611e16576040805162461bcd60e51b815260206004820152601d60248201527f536c6970706167652066656520766f746520697320746f6f2068696768000000604482015290519081900360640190fd5b336000818152600a60209081526040918290208251918201909252905481526109e891906117cb846121e9565b604080516060810182526003546cffffffffffffffffffffffffff80821683526d01000000000000000000000000008204166020830152600160d01b900465ffffffffffff169181019190915260009081908190611ea0906122e2565b604080516060810182526007546cffffffffffffffffffffffffff80821683526d01000000000000000000000000008204166020830152600160d01b900465ffffffffffff1691810191909152611ef6906122e2565b60408051606081018252600b546cffffffffffffffffffffffffff80821683526d01000000000000000000000000008204166020830152600160d01b900465ffffffffffff1691810191909152611f4c906122e2565b925092509250909192565b600b546cffffffffffffffffffffffffff808216926d0100000000000000000000000000830490911691600160d01b900465ffffffffffff1690565b611f9b612584565b6002546001600160a01b03908116911614611ffd576040805162461bcd60e51b815260206004820181905260248201527f4f776e61626c653a2063616c6c6572206973206e6f7420746865206f776e6572604482015290519081900360640190fd5b6001600160a01b0381166120425760405162461bcd60e51b81526004018080602001828103825260268152602001806132de6026913960400191505060405180910390fd5b6002546040516001600160a01b038084169216907f8be0079c531659141344cd1fd0a4f28419497f9722a3daafe3b4186f6b6457e090600090a3600280547fffffffffffffffffffffffff0000000000000000000000000000000000000000166001600160a01b0392909216919091179055565b604080516060810182526013546cffffffffffffffffffffffffff80821683526d01000000000000000000000000008204166020830152600160d01b900465ffffffffffff1691810191909152600090610ba3906122e2565b6001600160a01b0381166000908152600a60209081526040808320815192830190915254815261093d90670de0b6b3a76400006121af565b60006d010000000000000000000000000082106121ab576040805162461bcd60e51b815260206004820152601e60248201527f76616c756520646f6573206e6f742066697420696e2031303420626974730000604482015290519081900360640190fd5b5090565b8151600090156121e3575081517fffffffffffffffffffffffffffffffffffffffffffffffffffffffffffffffff01611835565b50919050565b6121f16132aa565b506040805160208101909152600182018152919050565b60408051848152831515602082015280820183905290516001600160a01b038616917f02540a8a88261967ef1c1a4ed50fde9f0a0a493922c069129e21961198e1b439919081900360600190a250505050565b61226b8787878787888888612ace565b50505050505050565b61227c6132aa565b5060408051602081019091526000815290565b60408051848152831515602082015280820183905290516001600160a01b038616917f28eed64d01e23014333abef902958309592b3cf9ce9da390f224467cfcaaf5b2919081900360600190a250505050565b6000806123106201518061230b856040015165ffffffffffff1642612d2290919063ffffffff16565b612d6b565b905060006123216201518083612d22565b905061237a620151806123746123538588602001516cffffffffffffffffffffffffff16612d8190919063ffffffff16565b875161236e906cffffffffffffffffffffffffff1686612d81565b90612dda565b90612e34565b949350505050565b600061238e8383612e76565b90508082141561239e5750610cc4565b6001600160a01b038316600090815260066020908152604080832081519283019091525481526123d99160039186918590879061228f612ed1565b6001600160a01b0383166000908152600a602090815260409182902082519182019092529054815261241d9060079085908486670de0b6b3a7640000612a7b612ed1565b6001600160a01b0383166000908152600e602090815260409182902082519182019092529054815261245a90600b9085908486603c6124de612ed1565b6001600160a01b03831660009081526012602090815260409182902082519182019092529054815261249e90600f908590848667016345785d8a0000612531612ed1565b6001600160a01b038316600090815260166020908152604080832081519283019091525481526124d991601391869185908790612208612ed1565b505050565b60408051848152831515602082015280820183905290516001600160a01b038616917f2d2d732aa884d37295a1b5995321d502ebc228d25e644eef0a435d4e5f245acd919081900360600190a250505050565b60408051848152831515602082015280820183905290516001600160a01b038616917ffa67c3ef5d30b2838a61d783cb71a076e17984d05840f2dfa1521135df49557b919081900360600190a250505050565b3390565b606061259382612ef4565b156125d2575060408051808201909152600381527f45544800000000000000000000000000000000000000000000000000000000006020820152610940565b60408051600481526024810182526020810180517bffffffffffffffffffffffffffffffffffffffffffffffffffffffff167f95d89b4100000000000000000000000000000000000000000000000000000000178152915181516000936060936001600160a01b03881693614e2093919290918291908083835b6020831061266b5780518252601f19909201916020918201910161264c565b6001836020036101000a0380198251168184511680821785525050505050509050019150506000604051808303818686fa925050503d80600081146126cc576040519150601f19603f3d011682016040523d82523d6000602084013e6126d1565b606091505b5091509150816127d95760408051600481526024810182526020810180517bffffffffffffffffffffffffffffffffffffffffffffffffffffffff167ff76f8d7800000000000000000000000000000000000000000000000000000000178152915181516001600160a01b03881693614e209392918291908083835b6020831061276c5780518252601f19909201916020918201910161274d565b6001836020036101000a0380198251168184511680821785525050505050509050019150506000604051808303818686fa925050503d80600081146127cd576040519150601f19603f3d011682016040523d82523d6000602084013e6127d2565b606091505b5090925090505b8180156127e857506060815110155b156129075760008082806020019051604081101561280557600080fd5b5080516020918201519093509150821480156128215750600081115b801561282f57506101008111155b156129045782806020019051602081101561284957600080fd5b810190808051604051939291908464010000000082111561286957600080fd5b90830190602082018581111561287e57600080fd5b825164010000000081118282018810171561289857600080fd5b82525081516020918201929091019080838360005b838110156128c55781810151838201526020016128ad565b50505050905090810190601f1680156128f25780820380516001836020036101000a031916815260200191505b50604052505050945050505050610940565b50505b818015612915575080516020145b15612a725760005b8151811080156129635750602060f81b82828151811061293957fe5b01602001517fff000000000000000000000000000000000000000000000000000000000000001610155b80156129a55750607e60f81b82828151811061297b57fe5b01602001517fff000000000000000000000000000000000000000000000000000000000000001611155b156129b25760010161291d565b8015612a705760608167ffffffffffffffff811180156129d157600080fd5b506040519080825280601f01601f1916602001820160405280156129fc576020820181803683370190505b50905060005b82811015612a6457838181518110612a1657fe5b602001015160f81c60f81b828281518110612a2d57fe5b60200101907effffffffffffffffffffffffffffffffffffffffffffffffffffffffffffff1916908160001a905350600101612a02565b50935061094092505050565b505b61237a84612f01565b60408051848152831515602082015280820183905290516001600160a01b038616917f214419d1bacc9564ca0fcf6552dad3ec0aa54c97de900de89dc202e6bbd9198a919081900360600190a250505050565b60018801546002890154819080612ae48a612f37565b612b1557612b06612aff612af88c896121af565b8a90612d81565b8490612d22565b9250612b128289612d22565b90505b612b1e89612f37565b612b4f57612b40612b39612b328b896121af565b8990612d81565b8490612dda565b9250612b4c8288612dda565b90505b838314612b5e5760018c018390555b818114612b6d5760028c018190555b60008115612b8457612b7f8483612e34565b612b86565b865b9050612b906132bd565b50604080516060810182528e546cffffffffffffffffffffffffff80821683526d010000000000000000000000000082041660208301819052600160d01b90910465ffffffffffff1692820192909252908214612cc357612bf8612bf3826122e2565b612147565b8e547fffffffffffffffffffffffffffffffffffffff00000000000000000000000000166cffffffffffffffffffffffffff91909116178e55612c3a82612147565b8e546cffffffffffffffffffffffffff919091166d0100000000000000000000000000027fffffffffffff00000000000000000000000000ffffffffffffffffffffffffff909116178e55612c8e42612f3c565b8e5465ffffffffffff91909116600160d01b0279ffffffffffffffffffffffffffffffffffffffffffffffffffff909116178e555b50612cd09050898b612f99565b612cf3576001600160a01b038b16600090815260038d0160205260409020895190555b612d148b612d018b896121af565b612d0a8c612f37565b8a8963ffffffff16565b505050505050505050505050565b6000612d6483836040518060400160405280601e81526020017f536166654d6174683a207375627472616374696f6e206f766572666c6f770000815250612fa0565b9392505050565b6000818310612d7a5781612d64565b5090919050565b600082612d9057506000611835565b82820282848281612d9d57fe5b0414612d645760405162461bcd60e51b81526004018080602001828103825260218152602001806133046021913960400191505060405180910390fd5b600082820183811015612d64576040805162461bcd60e51b815260206004820152601b60248201527f536166654d6174683a206164646974696f6e206f766572666c6f770000000000604482015290519081900360640190fd5b6000612d6483836040518060400160405280601a81526020017f536166654d6174683a206469766973696f6e206279207a65726f000000000000815250613037565b6001600160a01b038216600090815260016020526040902054818114611835576001600160a01b038316600090815260016020526040812083905554612ec8908290612ec29085612dda565b90612d22565b60005592915050565b61226b8787878615612ee35788612eeb565b612eeb612274565b88888888612ace565b6001600160a01b03161590565b606061093d8260405160200180826001600160a01b031660601b815260140191505060405160208183030381529060405261309c565b511590565b6000660100000000000082106121ab576040805162461bcd60e51b815260206004820152601d60248201527f76616c756520646f6573206e6f742066697420696e2034382062697473000000604482015290519081900360640190fd5b5190511490565b6000818484111561302f5760405162461bcd60e51b81526004018080602001828103825283818151815260200191508051906020019080838360005b83811015612ff4578181015183820152602001612fdc565b50505050905090810190601f1680156130215780820380516001836020036101000a031916815260200191505b509250505060405180910390fd5b505050900390565b600081836130865760405162461bcd60e51b8152602060048201818152835160248401528351909283926044909101919085019080838360008315612ff4578181015183820152602001612fdc565b50600083858161309257fe5b0495945050505050565b606080825160020260020167ffffffffffffffff811180156130bd57600080fd5b506040519080825280601f01601f1916602001820160405280156130e8576020820181803683370190505b5090507f30000000000000000000000000000000000000000000000000000000000000008160008151811061311957fe5b60200101907effffffffffffffffffffffffffffffffffffffffffffffffffffffffffffff1916908160001a9053507f78000000000000000000000000000000000000000000000000000000000000008160018151811061317657fe5b60200101907effffffffffffffffffffffffffffffffffffffffffffffffffffffffffffff1916908160001a905350600260005b84518110156132a157600060048683815181106131c357fe5b602001015160f81c60f81b60f81c60ff16901c60ff16905060008683815181106131e957fe5b60209101015160f81c600f169050600a8204602702826030010160f81b85858060010196508151811061321857fe5b60200101907effffffffffffffffffffffffffffffffffffffffffffffffffffffffffffff1916908160001a905350600a8104602702816030010160f81b85858060010196508151811061326857fe5b60200101907effffffffffffffffffffffffffffffffffffffffffffffffffffffffffffff1916908160001a90535050506001016131aa565b50909392505050565b6040518060200160405280600081525090565b60408051606081018252600080825260208201819052918101919091529056fe4f776e61626c653a206e6577206f776e657220697320746865207a65726f2061646472657373536166654d6174683a206d756c7469706c69636174696f6e206f766572666c6f77a2646970667358221220a56f1d52fbff19feab13801adcb5df835d75d44590918b2617b2d1cb92a67d1464736f6c634300060c0033",
  "immutableReferences": {
    "1775": [
      {
        "length": 32,
        "start": 4281
      },
      {
        "length": 32,
        "start": 6773
      }
    ],
    "1777": [
      {
        "length": 32,
        "start": 4894
      },
      {
        "length": 32,
        "start": 7176
      }
    ],
    "3052": [
      {
        "length": 32,
        "start": 3144
      },
      {
        "length": 32,
        "start": 3593
      },
      {
        "length": 32,
        "start": 6492
      }
    ]
  },
  "source": "// SPDX-License-Identifier: MIT\n\npragma solidity ^0.6.0;\n\nimport \"./interfaces/IMooniswapDeployer.sol\";\nimport \"./interfaces/IMooniswapFactory.sol\";\nimport \"./libraries/UniERC20.sol\";\nimport \"./Mooniswap.sol\";\nimport \"./governance/MooniswapFactoryGovernance.sol\";\n\n\ncontract MooniswapFactory is IMooniswapFactory, MooniswapFactoryGovernance {\n    using UniERC20 for IERC20;\n\n    event Deployed(\n        Mooniswap indexed mooniswap,\n        IERC20 indexed token1,\n        IERC20 indexed token2\n    );\n\n    IMooniswapDeployer public immutable mooniswapDeployer;\n    address public immutable poolOwner;\n    Mooniswap[] public allPools;\n    mapping(Mooniswap => bool) public isPool;\n    mapping(IERC20 => mapping(IERC20 => Mooniswap)) private _pools;\n\n    constructor (address _poolOwner, IMooniswapDeployer _mooniswapDeployer, address _governanceMothership) public MooniswapFactoryGovernance(_governanceMothership) {\n        poolOwner = _poolOwner;\n        mooniswapDeployer = _mooniswapDeployer;\n    }\n\n    function getAllPools() external view returns(Mooniswap[] memory) {\n        return allPools;\n    }\n\n    function pools(IERC20 tokenA, IERC20 tokenB) external view override returns (Mooniswap pool) {\n        (IERC20 token1, IERC20 token2) = sortTokens(tokenA, tokenB);\n        return _pools[token1][token2];\n    }\n\n    function deploy(IERC20 tokenA, IERC20 tokenB) public returns(Mooniswap pool) {\n        require(tokenA != tokenB, \"Factory: not support same tokens\");\n        (IERC20 token1, IERC20 token2) = sortTokens(tokenA, tokenB);\n        require(_pools[token1][token2] == Mooniswap(0), \"Factory: pool already exists\");\n\n        string memory symbol1 = token1.uniSymbol();\n        string memory symbol2 = token2.uniSymbol();\n\n        pool = mooniswapDeployer.deploy(\n            token1,\n            token2,\n            string(abi.encodePacked(\"Mooniswap V2 (\", symbol1, \"-\", symbol2, \")\")),\n            string(abi.encodePacked(\"MOON-V2-\", symbol1, \"-\", symbol2)),\n            poolOwner\n        );\n\n        _pools[token1][token2] = pool;\n        allPools.push(pool);\n        isPool[pool] = true;\n\n        emit Deployed(pool, token1, token2);\n    }\n\n    function sortTokens(IERC20 tokenA, IERC20 tokenB) public pure returns(IERC20, IERC20) {\n        if (tokenA < tokenB) {\n            return (tokenA, tokenB);\n        }\n        return (tokenB, tokenA);\n    }\n}\n",
  "sourcePath": "/Users/zumzoom/Projects/1inch/mooniswap-v2/contracts/MooniswapFactory.sol",
  "compiler": {
    "name": "solc",
    "version": "0.6.12+commit.27d51765.Emscripten.clang"
  },
  "schemaVersion": "3.3.3",
  "updatedAt": "2020-12-22T09:26:43.326Z",
  "devdoc": {
    "kind": "dev",
    "methods": {
      "owner()": {
        "details": "Returns the address of the current owner."
      },
      "renounceOwnership()": {
        "details": "Leaves the contract without owner. It will not be possible to call `onlyOwner` functions anymore. Can only be called by the current owner. NOTE: Renouncing ownership will leave the contract without an owner, thereby removing any functionality that is only available to the owner."
      },
      "transferOwnership(address)": {
        "details": "Transfers ownership of the contract to a new account (`newOwner`). Can only be called by the current owner."
      }
    },
    "version": 1
  },
  "userdoc": {
    "kind": "user",
    "methods": {},
    "version": 1
  }
}