{
  "contractName": "Mooniswap",
  "abi": [
    {
      "inputs": [
        {
          "internalType": "contract IERC20",
          "name": "_token0",
          "type": "address"
        },
        {
          "internalType": "contract IERC20",
          "name": "_token1",
          "type": "address"
        },
        {
          "internalType": "string",
          "name": "name",
          "type": "string"
        },
        {
          "internalType": "string",
          "name": "symbol",
          "type": "string"
        },
        {
          "internalType": "contract IMooniswapFactoryGovernance",
          "name": "_mooniswapFactoryGovernance",
          "type": "address"
        }
      ],
      "stateMutability": "nonpayable",
      "type": "constructor"
    },
    {
      "anonymous": false,
      "inputs": [
        {
          "indexed": true,
          "internalType": "address",
          "name": "owner",
          "type": "address"
        },
        {
          "indexed": true,
          "internalType": "address",
          "name": "spender",
          "type": "address"
        },
        {
          "indexed": false,
          "internalType": "uint256",
          "name": "value",
          "type": "uint256"
        }
      ],
      "name": "Approval",
      "type": "event"
    },
    {
      "anonymous": false,
      "inputs": [
        {
          "indexed": true,
          "internalType": "address",
          "name": "user",
          "type": "address"
        },
        {
          "indexed": false,
          "internalType": "uint256",
          "name": "decayPeriod",
          "type": "uint256"
        },
        {
          "indexed": false,
          "internalType": "bool",
          "name": "isDefault",
          "type": "bool"
        },
        {
          "indexed": false,
          "internalType": "uint256",
          "name": "amount",
          "type": "uint256"
        }
      ],
      "name": "DecayPeriodVoteUpdate",
      "type": "event"
    },
    {
      "anonymous": false,
      "inputs": [
        {
          "indexed": true,
          "internalType": "address",
          "name": "sender",
          "type": "address"
        },
        {
          "indexed": true,
          "internalType": "address",
          "name": "receiver",
          "type": "address"
        },
        {
          "indexed": false,
          "internalType": "uint256",
          "name": "share",
          "type": "uint256"
        },
        {
          "indexed": false,
          "internalType": "uint256",
          "name": "token0Amount",
          "type": "uint256"
        },
        {
          "indexed": false,
          "internalType": "uint256",
          "name": "token1Amount",
          "type": "uint256"
        }
      ],
      "name": "Deposited",
      "type": "event"
    },
    {
      "anonymous": false,
      "inputs": [
        {
          "indexed": true,
          "internalType": "address",
          "name": "user",
          "type": "address"
        },
        {
          "indexed": false,
          "internalType": "uint256",
          "name": "fee",
          "type": "uint256"
        },
        {
          "indexed": false,
          "internalType": "bool",
          "name": "isDefault",
          "type": "bool"
        },
        {
          "indexed": false,
          "internalType": "uint256",
          "name": "amount",
          "type": "uint256"
        }
      ],
      "name": "FeeVoteUpdate",
      "type": "event"
    },
    {
      "anonymous": false,
      "inputs": [
        {
          "indexed": true,
          "internalType": "address",
          "name": "previousOwner",
          "type": "address"
        },
        {
          "indexed": true,
          "internalType": "address",
          "name": "newOwner",
          "type": "address"
        }
      ],
      "name": "OwnershipTransferred",
      "type": "event"
    },
    {
      "anonymous": false,
      "inputs": [
        {
          "indexed": true,
          "internalType": "address",
          "name": "user",
          "type": "address"
        },
        {
          "indexed": false,
          "internalType": "uint256",
          "name": "slippageFee",
          "type": "uint256"
        },
        {
          "indexed": false,
          "internalType": "bool",
          "name": "isDefault",
          "type": "bool"
        },
        {
          "indexed": false,
          "internalType": "uint256",
          "name": "amount",
          "type": "uint256"
        }
      ],
      "name": "SlippageFeeVoteUpdate",
      "type": "event"
    },
    {
      "anonymous": false,
      "inputs": [
        {
          "indexed": true,
          "internalType": "address",
          "name": "sender",
          "type": "address"
        },
        {
          "indexed": true,
          "internalType": "address",
          "name": "receiver",
          "type": "address"
        },
        {
          "indexed": true,
          "internalType": "address",
          "name": "srcToken",
          "type": "address"
        },
        {
          "indexed": false,
          "internalType": "address",
          "name": "dstToken",
          "type": "address"
        },
        {
          "indexed": false,
          "internalType": "uint256",
          "name": "amount",
          "type": "uint256"
        },
        {
          "indexed": false,
          "internalType": "uint256",
          "name": "result",
          "type": "uint256"
        },
        {
          "indexed": false,
          "internalType": "uint256",
          "name": "srcAdditionBalance",
          "type": "uint256"
        },
        {
          "indexed": false,
          "internalType": "uint256",
          "name": "dstRemovalBalance",
          "type": "uint256"
        },
        {
          "indexed": false,
          "internalType": "address",
          "name": "referral",
          "type": "address"
        }
      ],
      "name": "Swapped",
      "type": "event"
    },
    {
      "anonymous": false,
      "inputs": [
        {
          "indexed": false,
          "internalType": "uint256",
          "name": "srcBalance",
          "type": "uint256"
        },
        {
          "indexed": false,
          "internalType": "uint256",
          "name": "dstBalance",
          "type": "uint256"
        },
        {
          "indexed": false,
          "internalType": "uint256",
          "name": "fee",
          "type": "uint256"
        },
        {
          "indexed": false,
          "internalType": "uint256",
          "name": "slippageFee",
          "type": "uint256"
        },
        {
          "indexed": false,
          "internalType": "uint256",
          "name": "referralShare",
          "type": "uint256"
        },
        {
          "indexed": false,
          "internalType": "uint256",
          "name": "governanceShare",
          "type": "uint256"
        }
      ],
      "name": "Sync",
      "type": "event"
    },
    {
      "anonymous": false,
      "inputs": [
        {
          "indexed": true,
          "internalType": "address",
          "name": "from",
          "type": "address"
        },
        {
          "indexed": true,
          "internalType": "address",
          "name": "to",
          "type": "address"
        },
        {
          "indexed": false,
          "internalType": "uint256",
          "name": "value",
          "type": "uint256"
        }
      ],
      "name": "Transfer",
      "type": "event"
    },
    {
      "anonymous": false,
      "inputs": [
        {
          "indexed": true,
          "internalType": "address",
          "name": "sender",
          "type": "address"
        },
        {
          "indexed": true,
          "internalType": "address",
          "name": "receiver",
          "type": "address"
        },
        {
          "indexed": false,
          "internalType": "uint256",
          "name": "share",
          "type": "uint256"
        },
        {
          "indexed": false,
          "internalType": "uint256",
          "name": "token0Amount",
          "type": "uint256"
        },
        {
          "indexed": false,
          "internalType": "uint256",
          "name": "token1Amount",
          "type": "uint256"
        }
      ],
      "name": "Withdrawn",
      "type": "event"
    },
    {
      "inputs": [
        {
          "internalType": "address",
          "name": "owner",
          "type": "address"
        },
        {
          "internalType": "address",
          "name": "spender",
          "type": "address"
        }
      ],
      "name": "allowance",
      "outputs": [
        {
          "internalType": "uint256",
          "name": "",
          "type": "uint256"
        }
      ],
      "stateMutability": "view",
      "type": "function"
    },
    {
      "inputs": [
        {
          "internalType": "address",
          "name": "spender",
          "type": "address"
        },
        {
          "internalType": "uint256",
          "name": "amount",
          "type": "uint256"
        }
      ],
      "name": "approve",
      "outputs": [
        {
          "internalType": "bool",
          "name": "",
          "type": "bool"
        }
      ],
      "stateMutability": "nonpayable",
      "type": "function"
    },
    {
      "inputs": [
        {
          "internalType": "address",
          "name": "account",
          "type": "address"
        }
      ],
      "name": "balanceOf",
      "outputs": [
        {
          "internalType": "uint256",
          "name": "",
          "type": "uint256"
        }
      ],
      "stateMutability": "view",
      "type": "function"
    },
    {
      "inputs": [],
      "name": "decayPeriod",
      "outputs": [
        {
          "internalType": "uint256",
          "name": "",
          "type": "uint256"
        }
      ],
      "stateMutability": "view",
      "type": "function"
    },
    {
      "inputs": [
        {
          "internalType": "uint256",
          "name": "vote",
          "type": "uint256"
        }
      ],
      "name": "decayPeriodVote",
      "outputs": [],
      "stateMutability": "nonpayable",
      "type": "function"
    },
    {
      "inputs": [
        {
          "internalType": "address",
          "name": "user",
          "type": "address"
        }
      ],
      "name": "decayPeriodVotes",
      "outputs": [
        {
          "internalType": "uint256",
          "name": "",
          "type": "uint256"
        }
      ],
      "stateMutability": "view",
      "type": "function"
    },
    {
      "inputs": [],
      "name": "decimals",
      "outputs": [
        {
          "internalType": "uint8",
          "name": "",
          "type": "uint8"
        }
      ],
      "stateMutability": "view",
      "type": "function"
    },
    {
      "inputs": [
        {
          "internalType": "address",
          "name": "spender",
          "type": "address"
        },
        {
          "internalType": "uint256",
          "name": "subtractedValue",
          "type": "uint256"
        }
      ],
      "name": "decreaseAllowance",
      "outputs": [
        {
          "internalType": "bool",
          "name": "",
          "type": "bool"
        }
      ],
      "stateMutability": "nonpayable",
      "type": "function"
    },
    {
      "inputs": [],
      "name": "discardDecayPeriodVote",
      "outputs": [],
      "stateMutability": "nonpayable",
      "type": "function"
    },
    {
      "inputs": [],
      "name": "discardFeeVote",
      "outputs": [],
      "stateMutability": "nonpayable",
      "type": "function"
    },
    {
      "inputs": [],
      "name": "discardSlippageFeeVote",
      "outputs": [],
      "stateMutability": "nonpayable",
      "type": "function"
    },
    {
      "inputs": [],
      "name": "fee",
      "outputs": [
        {
          "internalType": "uint256",
          "name": "",
          "type": "uint256"
        }
      ],
      "stateMutability": "view",
      "type": "function"
    },
    {
      "inputs": [
        {
          "internalType": "uint256",
          "name": "vote",
          "type": "uint256"
        }
      ],
      "name": "feeVote",
      "outputs": [],
      "stateMutability": "nonpayable",
      "type": "function"
    },
    {
      "inputs": [
        {
          "internalType": "address",
          "name": "user",
          "type": "address"
        }
      ],
      "name": "feeVotes",
      "outputs": [
        {
          "internalType": "uint256",
          "name": "",
          "type": "uint256"
        }
      ],
      "stateMutability": "view",
      "type": "function"
    },
    {
      "inputs": [
        {
          "internalType": "address",
          "name": "spender",
          "type": "address"
        },
        {
          "internalType": "uint256",
          "name": "addedValue",
          "type": "uint256"
        }
      ],
      "name": "increaseAllowance",
      "outputs": [
        {
          "internalType": "bool",
          "name": "",
          "type": "bool"
        }
      ],
      "stateMutability": "nonpayable",
      "type": "function"
    },
    {
      "inputs": [],
      "name": "mooniswapFactoryGovernance",
      "outputs": [
        {
          "internalType": "contract IMooniswapFactoryGovernance",
          "name": "",
          "type": "address"
        }
      ],
      "stateMutability": "view",
      "type": "function"
    },
    {
      "inputs": [],
      "name": "name",
      "outputs": [
        {
          "internalType": "string",
          "name": "",
          "type": "string"
        }
      ],
      "stateMutability": "view",
      "type": "function"
    },
    {
      "inputs": [],
      "name": "owner",
      "outputs": [
        {
          "internalType": "address",
          "name": "",
          "type": "address"
        }
      ],
      "stateMutability": "view",
      "type": "function"
    },
    {
      "inputs": [],
      "name": "renounceOwnership",
      "outputs": [],
      "stateMutability": "nonpayable",
      "type": "function"
    },
    {
      "inputs": [],
      "name": "slippageFee",
      "outputs": [
        {
          "internalType": "uint256",
          "name": "",
          "type": "uint256"
        }
      ],
      "stateMutability": "view",
      "type": "function"
    },
    {
      "inputs": [
        {
          "internalType": "uint256",
          "name": "vote",
          "type": "uint256"
        }
      ],
      "name": "slippageFeeVote",
      "outputs": [],
      "stateMutability": "nonpayable",
      "type": "function"
    },
    {
      "inputs": [
        {
          "internalType": "address",
          "name": "user",
          "type": "address"
        }
      ],
      "name": "slippageFeeVotes",
      "outputs": [
        {
          "internalType": "uint256",
          "name": "",
          "type": "uint256"
        }
      ],
      "stateMutability": "view",
      "type": "function"
    },
    {
      "inputs": [],
      "name": "symbol",
      "outputs": [
        {
          "internalType": "string",
          "name": "",
          "type": "string"
        }
      ],
      "stateMutability": "view",
      "type": "function"
    },
    {
      "inputs": [],
      "name": "token0",
      "outputs": [
        {
          "internalType": "contract IERC20",
          "name": "",
          "type": "address"
        }
      ],
      "stateMutability": "view",
      "type": "function"
    },
    {
      "inputs": [],
      "name": "token1",
      "outputs": [
        {
          "internalType": "contract IERC20",
          "name": "",
          "type": "address"
        }
      ],
      "stateMutability": "view",
      "type": "function"
    },
    {
      "inputs": [],
      "name": "totalSupply",
      "outputs": [
        {
          "internalType": "uint256",
          "name": "",
          "type": "uint256"
        }
      ],
      "stateMutability": "view",
      "type": "function"
    },
    {
      "inputs": [
        {
          "internalType": "address",
          "name": "recipient",
          "type": "address"
        },
        {
          "internalType": "uint256",
          "name": "amount",
          "type": "uint256"
        }
      ],
      "name": "transfer",
      "outputs": [
        {
          "internalType": "bool",
          "name": "",
          "type": "bool"
        }
      ],
      "stateMutability": "nonpayable",
      "type": "function"
    },
    {
      "inputs": [
        {
          "internalType": "address",
          "name": "sender",
          "type": "address"
        },
        {
          "internalType": "address",
          "name": "recipient",
          "type": "address"
        },
        {
          "internalType": "uint256",
          "name": "amount",
          "type": "uint256"
        }
      ],
      "name": "transferFrom",
      "outputs": [
        {
          "internalType": "bool",
          "name": "",
          "type": "bool"
        }
      ],
      "stateMutability": "nonpayable",
      "type": "function"
    },
    {
      "inputs": [
        {
          "internalType": "address",
          "name": "newOwner",
          "type": "address"
        }
      ],
      "name": "transferOwnership",
      "outputs": [],
      "stateMutability": "nonpayable",
      "type": "function"
    },
    {
      "inputs": [
        {
          "internalType": "contract IERC20",
          "name": "",
          "type": "address"
        }
      ],
      "name": "virtualBalancesForAddition",
      "outputs": [
        {
          "internalType": "uint216",
          "name": "balance",
          "type": "uint216"
        },
        {
          "internalType": "uint40",
          "name": "time",
          "type": "uint40"
        }
      ],
      "stateMutability": "view",
      "type": "function"
    },
    {
      "inputs": [
        {
          "internalType": "contract IERC20",
          "name": "",
          "type": "address"
        }
      ],
      "name": "virtualBalancesForRemoval",
      "outputs": [
        {
          "internalType": "uint216",
          "name": "balance",
          "type": "uint216"
        },
        {
          "internalType": "uint40",
          "name": "time",
          "type": "uint40"
        }
      ],
      "stateMutability": "view",
      "type": "function"
    },
    {
      "inputs": [],
      "name": "virtualDecayPeriod",
      "outputs": [
        {
          "internalType": "uint104",
          "name": "",
          "type": "uint104"
        },
        {
          "internalType": "uint104",
          "name": "",
          "type": "uint104"
        },
        {
          "internalType": "uint48",
          "name": "",
          "type": "uint48"
        }
      ],
      "stateMutability": "view",
      "type": "function"
    },
    {
      "inputs": [],
      "name": "virtualFee",
      "outputs": [
        {
          "internalType": "uint104",
          "name": "",
          "type": "uint104"
        },
        {
          "internalType": "uint104",
          "name": "",
          "type": "uint104"
        },
        {
          "internalType": "uint48",
          "name": "",
          "type": "uint48"
        }
      ],
      "stateMutability": "view",
      "type": "function"
    },
    {
      "inputs": [],
      "name": "virtualSlippageFee",
      "outputs": [
        {
          "internalType": "uint104",
          "name": "",
          "type": "uint104"
        },
        {
          "internalType": "uint104",
          "name": "",
          "type": "uint104"
        },
        {
          "internalType": "uint48",
          "name": "",
          "type": "uint48"
        }
      ],
      "stateMutability": "view",
      "type": "function"
    },
    {
      "inputs": [
        {
          "internalType": "contract IERC20",
          "name": "",
          "type": "address"
        }
      ],
      "name": "volumes",
      "outputs": [
        {
          "internalType": "uint128",
          "name": "confirmed",
          "type": "uint128"
        },
        {
          "internalType": "uint128",
          "name": "result",
          "type": "uint128"
        }
      ],
      "stateMutability": "view",
      "type": "function"
    },
    {
      "inputs": [],
      "name": "getTokens",
      "outputs": [
        {
          "internalType": "contract IERC20[]",
          "name": "tokens",
          "type": "address[]"
        }
      ],
      "stateMutability": "view",
      "type": "function"
    },
    {
      "inputs": [
        {
          "internalType": "uint256",
          "name": "i",
          "type": "uint256"
        }
      ],
      "name": "tokens",
      "outputs": [
        {
          "internalType": "contract IERC20",
          "name": "",
          "type": "address"
        }
      ],
      "stateMutability": "view",
      "type": "function"
    },
    {
      "inputs": [
        {
          "internalType": "contract IERC20",
          "name": "token",
          "type": "address"
        }
      ],
      "name": "getBalanceForAddition",
      "outputs": [
        {
          "internalType": "uint256",
          "name": "",
          "type": "uint256"
        }
      ],
      "stateMutability": "view",
      "type": "function"
    },
    {
      "inputs": [
        {
          "internalType": "contract IERC20",
          "name": "token",
          "type": "address"
        }
      ],
      "name": "getBalanceForRemoval",
      "outputs": [
        {
          "internalType": "uint256",
          "name": "",
          "type": "uint256"
        }
      ],
      "stateMutability": "view",
      "type": "function"
    },
    {
      "inputs": [
        {
          "internalType": "contract IERC20",
          "name": "src",
          "type": "address"
        },
        {
          "internalType": "contract IERC20",
          "name": "dst",
          "type": "address"
        },
        {
          "internalType": "uint256",
          "name": "amount",
          "type": "uint256"
        }
      ],
      "name": "getReturn",
      "outputs": [
        {
          "internalType": "uint256",
          "name": "",
          "type": "uint256"
        }
      ],
      "stateMutability": "view",
      "type": "function"
    },
    {
      "inputs": [
        {
          "internalType": "uint256[2]",
          "name": "maxAmounts",
          "type": "uint256[2]"
        },
        {
          "internalType": "uint256[2]",
          "name": "minAmounts",
          "type": "uint256[2]"
        }
      ],
      "name": "deposit",
      "outputs": [
        {
          "internalType": "uint256",
          "name": "fairSupply",
          "type": "uint256"
        },
        {
          "internalType": "uint256[2]",
          "name": "receivedAmounts",
          "type": "uint256[2]"
        }
      ],
      "stateMutability": "payable",
      "type": "function"
    },
    {
      "inputs": [
        {
          "internalType": "uint256[2]",
          "name": "maxAmounts",
          "type": "uint256[2]"
        },
        {
          "internalType": "uint256[2]",
          "name": "minAmounts",
          "type": "uint256[2]"
        },
        {
          "internalType": "address",
          "name": "target",
          "type": "address"
        }
      ],
      "name": "depositFor",
      "outputs": [
        {
          "internalType": "uint256",
          "name": "fairSupply",
          "type": "uint256"
        },
        {
          "internalType": "uint256[2]",
          "name": "receivedAmounts",
          "type": "uint256[2]"
        }
      ],
      "stateMutability": "payable",
      "type": "function"
    },
    {
      "inputs": [
        {
          "internalType": "uint256",
          "name": "amount",
          "type": "uint256"
        },
        {
          "internalType": "uint256[]",
          "name": "minReturns",
          "type": "uint256[]"
        }
      ],
      "name": "withdraw",
      "outputs": [
        {
          "internalType": "uint256[2]",
          "name": "withdrawnAmounts",
          "type": "uint256[2]"
        }
      ],
      "stateMutability": "nonpayable",
      "type": "function"
    },
    {
      "inputs": [
        {
          "internalType": "uint256",
          "name": "amount",
          "type": "uint256"
        },
        {
          "internalType": "uint256[]",
          "name": "minReturns",
          "type": "uint256[]"
        },
        {
          "internalType": "address payable",
          "name": "target",
          "type": "address"
        }
      ],
      "name": "withdrawFor",
      "outputs": [
        {
          "internalType": "uint256[2]",
          "name": "withdrawnAmounts",
          "type": "uint256[2]"
        }
      ],
      "stateMutability": "nonpayable",
      "type": "function"
    },
    {
      "inputs": [
        {
          "internalType": "contract IERC20",
          "name": "src",
          "type": "address"
        },
        {
          "internalType": "contract IERC20",
          "name": "dst",
          "type": "address"
        },
        {
          "internalType": "uint256",
          "name": "amount",
          "type": "uint256"
        },
        {
          "internalType": "uint256",
          "name": "minReturn",
          "type": "uint256"
        },
        {
          "internalType": "address",
          "name": "referral",
          "type": "address"
        }
      ],
      "name": "swap",
      "outputs": [
        {
          "internalType": "uint256",
          "name": "result",
          "type": "uint256"
        }
      ],
      "stateMutability": "payable",
      "type": "function"
    },
    {
      "inputs": [
        {
          "internalType": "contract IERC20",
          "name": "src",
          "type": "address"
        },
        {
          "internalType": "contract IERC20",
          "name": "dst",
          "type": "address"
        },
        {
          "internalType": "uint256",
          "name": "amount",
          "type": "uint256"
        },
        {
          "internalType": "uint256",
          "name": "minReturn",
          "type": "uint256"
        },
        {
          "internalType": "address",
          "name": "referral",
          "type": "address"
        },
        {
          "internalType": "address payable",
          "name": "receiver",
          "type": "address"
        }
      ],
      "name": "swapFor",
      "outputs": [
        {
          "internalType": "uint256",
          "name": "result",
          "type": "uint256"
        }
      ],
      "stateMutability": "payable",
      "type": "function"
    },
    {
      "inputs": [
        {
          "internalType": "contract IERC20",
          "name": "token",
          "type": "address"
        },
        {
          "internalType": "uint256",
          "name": "amount",
          "type": "uint256"
        }
      ],
      "name": "rescueFunds",
      "outputs": [],
      "stateMutability": "nonpayable",
      "type": "function"
    }
  ],
  "bytecode": "0x60e06040523480156200001157600080fd5b50604051620059d3380380620059d3833981810160405260a08110156200003757600080fd5b815160208301516040808501805191519395929483019291846401000000008211156200006357600080fd5b9083019060208201858111156200007957600080fd5b82516401000000008111828201881017156200009457600080fd5b82525081516020918201929091019080838360005b83811015620000c3578181015183820152602001620000a9565b50505050905090810190601f168015620000f15780820380516001836020036101000a031916815260200191505b50604052602001805160405193929190846401000000008211156200011557600080fd5b9083019060208201858111156200012b57600080fd5b82516401000000008111828201881017156200014657600080fd5b82525081516020918201929091019080838360005b83811015620001755781810151838201526020016200015b565b50505050905090810190601f168015620001a35780820380516001836020036101000a031916815260200191505b50604052602090810151855190935083925085918591620001cb916003919085019062000584565b508051620001e190600490602084019062000584565b50506005805460ff191660121790555060016006556001600160601b0319606082901b16608052604080516305a6c72d60e41b815290516200028f916001600160a01b03841691635a6c72d091600480820192602092909190829003018186803b1580156200024f57600080fd5b505afa15801562000264573d6000803e3d6000fd5b505050506040513d60208110156200027b57600080fd5b505162000521602090811b62002ead17901c565b6007600001600001600d6101000a8154816001600160681b0302191690836001600160681b03160217905550620002f9816001600160a01b03166323662bb96040518163ffffffff1660e01b815260040160206040518083038186803b1580156200024f57600080fd5b600b600001600001600d6101000a8154816001600160681b0302191690836001600160681b0316021790555062000363816001600160a01b0316631845f0db6040518163ffffffff1660e01b815260040160206040518083038186803b1580156200024f57600080fd5b600f80546001600160681b0392909216600160681b02600160681b600160d01b03199092169190911790555060006200039b62000580565b601380546001600160a01b0319166001600160a01b038316908117909155604051919250906000907f8be0079c531659141344cd1fd0a4f28419497f9722a3daafe3b4186f6b6457e0908290a350600083511162000440576040805162461bcd60e51b815260206004820152601860248201527f4d6f6f6e69737761703a206e616d6520697320656d7074790000000000000000604482015290519081900360640190fd5b600082511162000497576040805162461bcd60e51b815260206004820152601a60248201527f4d6f6f6e69737761703a2073796d626f6c20697320656d707479000000000000604482015290519081900360640190fd5b836001600160a01b0316856001600160a01b03161415620004ff576040805162461bcd60e51b815260206004820152601b60248201527f4d6f6f6e69737761703a206475706c696361746520746f6b656e730000000000604482015290519081900360640190fd5b5050506001600160601b0319606092831b811660a052911b1660c05262000616565b6000600160681b82106200057c576040805162461bcd60e51b815260206004820152601e60248201527f76616c756520646f6573206e6f742066697420696e2031303420626974730000604482015290519081900360640190fd5b5090565b3390565b828054600181600116156101000203166002900490600052602060002090601f016020900481019282601f10620005c757805160ff1916838001178555620005f7565b82800160010185558215620005f7579182015b82811115620005f7578251825591602001919060010190620005da565b506200057c9291505b808211156200057c576000815560010162000600565b60805160601c60a05160601c60c05160601c61530f620006c4600039806114aa52806117535280611aac5280611b7d5280611ed15280612601528061268e528061314f5250806110ad528061148552806117235280611a755280611af65280611eac52806125b35280613112525080610ff7528061116b5280611c905280611d255280611dfe528061276e5280612c785280613f2452806144dc528061458c5280614726525061530f6000f3fe6080604052600436106103085760003560e01c806378e3214f1161019a578063d21220a7116100e1578063e331d0391161008a578063f1ea604211610064578063f1ea604214610df6578063f2fde38b14610e0b578063f76d13b414610e3e57610308565b8063e331d03914610d4f578063e7ff42c914610d99578063eaadf84814610dcc57610308565b8063d9a0c217116100bb578063d9a0c21714610cea578063dd62ed3e14610cff578063ddca3f4314610d3a57610308565b8063d21220a714610c5e578063d5bcb9b514610c73578063d7d3aab514610cb757610308565b80639aad141b11610143578063a9059cbb1161011d578063a9059cbb14610b63578063aa6ca80814610b9c578063b1ec4c4014610bea57610308565b80639aad141b14610a7a5780639ea5ce0a14610aad578063a457c2d714610b2a57610308565b806393028d831161017457806393028d8314610a1d57806395cad3c714610a3257806395d89b4114610a6557610308565b806378e3214f1461099c5780637e82a6f3146109d55780638da5cb5b14610a0857610308565b8063313ce5671161025e5780635915d806116102075780636edc2c09116101e15780636edc2c091461092157806370a0823114610954578063715018a61461098757610308565b80635915d806146107e55780635ed9156d1461089c5780636669302a1461090c57610308565b80633c6216a6116102385780633c6216a6146106a957806348d67e1b146107a65780634f64b2be146107bb57610308565b8063313ce567146106305780633732b3941461065b578063395093511461067057610308565b806311212d66116102c057806323b872dd1161029a57806323b872dd1461052257806323e8cae1146105655780633049105d1461057a57610308565b806311212d661461048e57806318160ddd146104b85780631e1401f8146104df57610308565b806307a80070116102f157806307a80070146103e4578063095ea7b3146104105780630dfe16811461045d57610308565b80630146081f1461030d57806306fdde031461035a575b600080fd5b34801561031957600080fd5b50610322610e53565b604080516cffffffffffffffffffffffffff948516815292909316602083015265ffffffffffff168183015290519081900360600190f35b34801561036657600080fd5b5061036f610ea6565b6040805160208082528351818301528351919283929083019185019080838360005b838110156103a9578181015183820152602001610391565b50505050905090810190601f1680156103d65780820380516001836020036101000a031916815260200191505b509250505060405180910390f35b3480156103f057600080fd5b5061040e6004803603602081101561040757600080fd5b5035610f5a565b005b34801561041c57600080fd5b506104496004803603604081101561043357600080fd5b506001600160a01b03813516906020013561108d565b604080519115158252519081900360200190f35b34801561046957600080fd5b506104726110ab565b604080516001600160a01b039092168252519081900360200190f35b34801561049a57600080fd5b5061040e600480360360208110156104b157600080fd5b50356110cf565b3480156104c457600080fd5b506104cd6111fe565b60408051918252519081900360200190f35b3480156104eb57600080fd5b506104cd6004803603606081101561050257600080fd5b506001600160a01b03813581169160208101359091169060400135611204565b34801561052e57600080fd5b506104496004803603606081101561054557600080fd5b506001600160a01b0381358116916020810135909116906040013561123d565b34801561057157600080fd5b506103226112c4565b6105ee6004803603608081101561059057600080fd5b6040805180820182529183019291818301918390600290839083908082843760009201919091525050604080518082018252929594938181019392509060029083908390808284376000920191909152509194506113179350505050565b6040518083815260200182600260200280838360005b8381101561061c578181015183820152602001610604565b505050509050019250505060405180910390f35b34801561063c57600080fd5b50610645611337565b6040805160ff9092168252519081900360200190f35b34801561066757600080fd5b506104cd611340565b34801561067c57600080fd5b506104496004803603604081101561069357600080fd5b506001600160a01b0381351690602001356113b5565b3480156106b557600080fd5b5061076b600480360360608110156106cc57600080fd5b813591908101906040810160208201356401000000008111156106ee57600080fd5b82018360208201111561070057600080fd5b8035906020019184602083028401116401000000008311171561072257600080fd5b919080806020026020016040519081016040528093929190818152602001838360200280828437600092019190915250929550505090356001600160a01b031691506114039050565b6040518082600260200280838360005b8381101561079357818101518382015260200161077b565b5050505090500191505060405180910390f35b3480156107b257600080fd5b506104cd6116a9565b3480156107c757600080fd5b50610472600480360360208110156107de57600080fd5b5035611719565b3480156107f157600080fd5b5061076b6004803603604081101561080857600080fd5b8135919081019060408101602082013564010000000081111561082a57600080fd5b82018360208201111561083c57600080fd5b8035906020019184602083028401116401000000008311171561085e57600080fd5b9190808060200260200160405190810160405280939291908181526020018383602002808284376000920191909152509295506117c9945050505050565b3480156108a857600080fd5b506108cf600480360360208110156108bf57600080fd5b50356001600160a01b03166117dc565b604080517affffffffffffffffffffffffffffffffffffffffffffffffffffff909316835264ffffffffff90911660208301528051918290030190f35b34801561091857600080fd5b5061040e611833565b34801561092d57600080fd5b506108cf6004803603602081101561094457600080fd5b50356001600160a01b0316611861565b34801561096057600080fd5b506104cd6004803603602081101561097757600080fd5b50356001600160a01b03166118b8565b34801561099357600080fd5b5061040e6118d3565b3480156109a857600080fd5b5061040e600480360360408110156109bf57600080fd5b506001600160a01b03813516906020013561199f565b3480156109e157600080fd5b506104cd600480360360208110156109f857600080fd5b50356001600160a01b0316611c60565b348015610a1457600080fd5b50610472611cba565b348015610a2957600080fd5b5061040e611cc9565b348015610a3e57600080fd5b506104cd60048036036020811015610a5557600080fd5b50356001600160a01b0316611cf5565b348015610a7157600080fd5b5061036f611d4f565b348015610a8657600080fd5b506104cd60048036036020811015610a9d57600080fd5b50356001600160a01b0316611dce565b6105ee600480360360a0811015610ac357600080fd5b6040805180820182529183019291818301918390600290839083908082843760009201919091525050604080518082018252929594938181019392509060029083908390808284376000920191909152509194505050356001600160a01b03169050611e28565b348015610b3657600080fd5b5061044960048036036040811015610b4d57600080fd5b506001600160a01b038135169060200135612515565b348015610b6f57600080fd5b5061044960048036036040811015610b8657600080fd5b506001600160a01b03813516906020013561257d565b348015610ba857600080fd5b50610bb1612591565b6040805160208082528351818301528351919283929083019185810191028083836000831561061c578181015183820152602001610604565b348015610bf657600080fd5b50610c1d60048036036020811015610c0d57600080fd5b50356001600160a01b0316612650565b60405180836fffffffffffffffffffffffffffffffff168152602001826fffffffffffffffffffffffffffffffff1681526020019250505060405180910390f35b348015610c6a57600080fd5b5061047261268c565b6104cd600480360360a0811015610c8957600080fd5b506001600160a01b0381358116916020810135821691604082013591606081013591608090910135166126b0565b348015610cc357600080fd5b506104cd60048036036020811015610cda57600080fd5b50356001600160a01b03166126ca565b348015610cf657600080fd5b5061047261276c565b348015610d0b57600080fd5b506104cd60048036036040811015610d2257600080fd5b506001600160a01b0381358116916020013516612790565b348015610d4657600080fd5b506104cd6127bb565b6104cd600480360360c0811015610d6557600080fd5b506001600160a01b0381358116916020810135821691604082013591606081013591608082013581169160a001351661282b565b348015610da557600080fd5b506104cd60048036036020811015610dbc57600080fd5b50356001600160a01b0316612ae9565b348015610dd857600080fd5b5061040e60048036036020811015610def57600080fd5b5035612b8b565b348015610e0257600080fd5b50610322612d0b565b348015610e1757600080fd5b5061040e60048036036020811015610e2e57600080fd5b50356001600160a01b0316612d5e565b348015610e4a57600080fd5b5061040e612e81565b600f546cffffffffffffffffffffffffff808216926d01000000000000000000000000008304909116917a010000000000000000000000000000000000000000000000000000900465ffffffffffff1690565b60038054604080516020601f60027fffffffffffffffffffffffffffffffffffffffffffffffffffffffffffffffff610100600188161502019095169490940493840181900481028201810190925282815260609390929091830182828015610f505780601f10610f2557610100808354040283529160200191610f50565b820191906000526020600020905b815481529060010190602001808311610f3357829003601f168201915b5050505050905090565b670de0b6b3a7640000811115610fb7576040805162461bcd60e51b815260206004820152601d60248201527f536c6970706167652066656520766f746520697320746f6f2068696768000000604482015290519081900360640190fd5b336000818152600e602090815260409182902082519182019092529054815261108a9190610fe484612f15565b610fed336118b8565b610ff56111fe565b7f00000000000000000000000000000000000000000000000000000000000000006001600160a01b03166323662bb96040518163ffffffff1660e01b815260040160206040518083038186803b15801561104e57600080fd5b505afa158015611062573d6000803e3d6000fd5b505050506040513d602081101561107857600080fd5b5051600b959493929190612f34612f87565b50565b60006110a161109a612fa2565b8484612fa6565b5060015b92915050565b7f000000000000000000000000000000000000000000000000000000000000000081565b662386f26fc1000081111561112b576040805162461bcd60e51b815260206004820152601460248201527f46656520766f746520697320746f6f2068696768000000000000000000000000604482015290519081900360640190fd5b336000818152600a602090815260409182902082519182019092529054815261108a919061115884612f15565b611161336118b8565b6111696111fe565b7f00000000000000000000000000000000000000000000000000000000000000006001600160a01b0316635a6c72d06040518163ffffffff1660e01b815260040160206040518083038186803b1580156111c257600080fd5b505afa1580156111d6573d6000803e3d6000fd5b505050506040513d60208110156111ec57600080fd5b50516007959493929190613092612f87565b60025490565b6000611233848484611215886126ca565b61121e88612ae9565b6112266127bb565b61122e611340565b6130e5565b90505b9392505050565b600061124a848484613226565b6112ba84611256612fa2565b6112b5856040518060600160405280602881526020016151f9602891396001600160a01b038a16600090815260016020526040812090611294612fa2565b6001600160a01b031681526020810191909152604001600020549190613381565b612fa6565b5060019392505050565b600b546cffffffffffffffffffffffffff808216926d01000000000000000000000000008304909116917a010000000000000000000000000000000000000000000000000000900465ffffffffffff1690565b600061132161505e565b61132c848433611e28565b915091509250929050565b60055460ff1690565b60408051606081018252600b546cffffffffffffffffffffffffff80821683526d010000000000000000000000000082041660208301527a010000000000000000000000000000000000000000000000000000900465ffffffffffff16918101919091526000906113b090613418565b905090565b60006110a16113c2612fa2565b846112b585600160006113d3612fa2565b6001600160a01b03908116825260208083019390935260409182016000908120918c1681529252902054906134a7565b61140b61505e565b60026006541415611463576040805162461bcd60e51b815260206004820152601f60248201527f5265656e7472616e637947756172643a207265656e7472616e742063616c6c00604482015290519081900360640190fd5b600260065561147061505e565b50604080518082019091526001600160a01b037f0000000000000000000000000000000000000000000000000000000000000000811682527f000000000000000000000000000000000000000000000000000000000000000016602082015260006114d96111fe565b905060006114e56116a9565b90506114f13388613501565b60005b600281101561164657600084826002811061150b57fe5b6020020151905060006115276001600160a01b038316306135fd565b9050600061153f86611539848e61369e565b906136f7565b90506115556001600160a01b0384168a83613739565b8088856002811061156257fe5b602002015289518410158061158a575089848151811061157e57fe5b60200260200101518110155b6115db576040805162461bcd60e51b815260206004820152601f60248201527f4d6f6f6e69737761703a20726573756c74206973206e6f7420656e6f75676800604482015290519081900360640190fd5b61160b85836115ea898f6137a2565b6001600160a01b03871660009081526015602052604090209291908a6137e4565b61163b858361161a898f6137a2565b6001600160a01b03871660009081526016602052604090209291908a6137e4565b5050506001016114f4565b508351602080860151604080518b8152928301939093528183015290516001600160a01b0387169133917f3cae9923fd3c2f468aa25a8ef687923e37f957459557c0380fd06526c0b8cdbc9181900360600190a350506001600655509392505050565b60408051606081018252600f546cffffffffffffffffffffffffff80821683526d010000000000000000000000000082041660208301527a010000000000000000000000000000000000000000000000000000900465ffffffffffff16918101919091526000906113b090613418565b60008161174757507f00000000000000000000000000000000000000000000000000000000000000006117c4565b816001141561177757507f00000000000000000000000000000000000000000000000000000000000000006117c4565b6040805162461bcd60e51b815260206004820152601360248201527f506f6f6c206861732074776f20746f6b656e7300000000000000000000000000604482015290519081900360640190fd5b919050565b6117d161505e565b611236838333611403565b6016602052600090815260409020547affffffffffffffffffffffffffffffffffffffffffffffffffffff8116907b01000000000000000000000000000000000000000000000000000000900464ffffffffff1682565b336000818152600e602090815260409182902082519182019092529054815261185f9190610fe4613874565b565b6015602052600090815260409020547affffffffffffffffffffffffffffffffffffffffffffffffffffff8116907b01000000000000000000000000000000000000000000000000000000900464ffffffffff1682565b6001600160a01b031660009081526020819052604090205490565b6118db612fa2565b6013546001600160a01b0390811691161461193d576040805162461bcd60e51b815260206004820181905260248201527f4f776e61626c653a2063616c6c6572206973206e6f7420746865206f776e6572604482015290519081900360640190fd5b6013546040516000916001600160a01b0316907f8be0079c531659141344cd1fd0a4f28419497f9722a3daafe3b4186f6b6457e0908390a3601380547fffffffffffffffffffffffff0000000000000000000000000000000000000000169055565b600260065414156119f7576040805162461bcd60e51b815260206004820152601f60248201527f5265656e7472616e637947756172643a207265656e7472616e742063616c6c00604482015290519081900360640190fd5b6002600655611a04612fa2565b6013546001600160a01b03908116911614611a66576040805162461bcd60e51b815260206004820181905260248201527f4f776e61626c653a2063616c6c6572206973206e6f7420746865206f776e6572604482015290519081900360640190fd5b6000611a9b6001600160a01b037f000000000000000000000000000000000000000000000000000000000000000016306135fd565b90506000611ad26001600160a01b037f000000000000000000000000000000000000000000000000000000000000000016306135fd565b9050611ae86001600160a01b0385163385613739565b81611b1c6001600160a01b037f000000000000000000000000000000000000000000000000000000000000000016306135fd565b1015611b6f576040805162461bcd60e51b815260206004820152601860248201527f4d6f6f6e69737761703a206163636573732064656e6965640000000000000000604482015290519081900360640190fd5b80611ba36001600160a01b037f000000000000000000000000000000000000000000000000000000000000000016306135fd565b1015611bf6576040805162461bcd60e51b815260206004820152601860248201527f4d6f6f6e69737761703a206163636573732064656e6965640000000000000000604482015290519081900360640190fd5b6103e8611c02306118b8565b1015611c55576040805162461bcd60e51b815260206004820152601860248201527f4d6f6f6e69737761703a206163636573732064656e6965640000000000000000604482015290519081900360640190fd5b505060016006555050565b6001600160a01b038181166000908152601260209081526040808320815192830190915254815290916110a591907f000000000000000000000000000000000000000000000000000000000000000016631845f0db61388f565b6013546001600160a01b031690565b336000818152600a602090815260409182902082519182019092529054815261185f9190611158613874565b6001600160a01b038181166000908152600e60209081526040808320815192830190915254815290916110a591907f0000000000000000000000000000000000000000000000000000000000000000166323662bb961388f565b60048054604080516020601f60027fffffffffffffffffffffffffffffffffffffffffffffffffffffffffffffffff610100600188161502019095169490940493840181900481028201810190925282815260609390929091830182828015610f505780601f10610f2557610100808354040283529160200191610f50565b6001600160a01b038181166000908152600a60209081526040808320815192830190915254815290916110a591907f000000000000000000000000000000000000000000000000000000000000000016635a6c72d061388f565b6000611e3261505e565b60026006541415611e8a576040805162461bcd60e51b815260206004820152601f60248201527f5265656e7472616e637947756172643a207265656e7472616e742063616c6c00604482015290519081900360640190fd5b6002600655611e9761505e565b50604080518082019091526001600160a01b037f0000000000000000000000000000000000000000000000000000000000000000811682527f0000000000000000000000000000000000000000000000000000000000000000166020820152611f108160005b60200201516001600160a01b0316613923565b611f3557611f1f816001611efd565b611f2a576000611f30565b60208601515b611f38565b85515b3414611f8b576040805162461bcd60e51b815260206004820152601c60248201527f4d6f6f6e69737761703a2077726f6e672076616c756520757361676500000000604482015290519081900360640190fd5b6000611f956111fe565b90508061212157611fa96103e8606361369e565b9350611fb7306103e8613930565b60005b600281101561211b57611fdd85898360028110611fd357fe5b6020020151613a20565b94506000888260028110611fed57fe5b602002015111612044576040805162461bcd60e51b815260206004820152601960248201527f4d6f6f6e69737761703a20616d6f756e74206973207a65726f00000000000000604482015290519081900360640190fd5b86816002811061205057fe5b602002015188826002811061206157fe5b602002015110156120b9576040805162461bcd60e51b815260206004820181905260248201527f4d6f6f6e69737761703a206d696e416d6f756e74206e6f742072656163686564604482015290519081900360640190fd5b6120f133308a84600281106120ca57fe5b60200201518685600281106120db57fe5b60200201516001600160a01b0316929190613a37565b8781600281106120fd57fe5b602002015184826002811061210e57fe5b6020020152600101611fba565b50612452565b61212961505e565b60005b60028110156121975761217e612147858360028110611efd57fe5b612152576000612154565b345b6121783087856002811061216457fe5b60200201516001600160a01b0316906135fd565b906137a2565b82826002811061218a57fe5b602002015260010161212c565b507fffffffffffffffffffffffffffffffffffffffffffffffffffffffffffffffff945060005b6002811015612209576121ff866121fa8484600281106121da57fe5b60200201516115398d86600281106121ee57fe5b6020020151889061369e565b613bc3565b95506001016121be565b508460005b60028110156123965760008a826002811061222557fe5b60200201511161227c576040805162461bcd60e51b815260206004820152601960248201527f4d6f6f6e69737761703a20616d6f756e74206973207a65726f00000000000000604482015290519081900360640190fd5b60006122aa85611539600188036122a48789886002811061229957fe5b60200201519061369e565b906134a7565b90508982600281106122b857fe5b6020020151811015612311576040805162461bcd60e51b815260206004820181905260248201527f4d6f6f6e69737761703a206d696e416d6f756e74206e6f742072656163686564604482015290519081900360640190fd5b6123233330838986600281106120db57fe5b61234784836002811061233257fe5b60200201516121783089866002811061216457fe5b87836002811061235357fe5b602002015261238b886121fa86856002811061236b57fe5b60200201516115398b876002811061237f57fe5b60200201518a9061369e565b97505060010161220e565b5060006123a16116a9565b905060005b600281101561244d57612415828583600281106123bf57fe5b60200201516123ce888c6134a7565b88601660008c88600281106123df57fe5b60200201516001600160a01b03166001600160a01b031681526020019081526020016000206137e490949392919063ffffffff16565b6124458285836002811061242557fe5b6020020151612434888c6134a7565b88601560008c88600281106123df57fe5b6001016123a6565b505050505b600084116124a7576040805162461bcd60e51b815260206004820152601f60248201527f4d6f6f6e69737761703a20726573756c74206973206e6f7420656e6f75676800604482015290519081900360640190fd5b6124b18585613930565b825160208085015160408051888152928301939093528183015290516001600160a01b0387169133917f8bab6aed5a508937051a144e61d6e61336834a66aaee250a00613ae6f744c4229181900360600190a3505060016006559094909350915050565b60006110a1612522612fa2565b846112b5856040518060600160405280602581526020016152b5602591396001600061254c612fa2565b6001600160a01b03908116825260208083019390935260409182016000908120918d16815292529020549190613381565b60006110a161258a612fa2565b8484613226565b60408051600280825260608083018452926020830190803683370190505090507f0000000000000000000000000000000000000000000000000000000000000000816000815181106125df57fe5b60200260200101906001600160a01b031690816001600160a01b0316815250507f00000000000000000000000000000000000000000000000000000000000000008160018151811061262d57fe5b60200260200101906001600160a01b031690816001600160a01b03168152505090565b6014602052600090815260409020546fffffffffffffffffffffffffffffffff8082169170010000000000000000000000000000000090041682565b7f000000000000000000000000000000000000000000000000000000000000000081565b60006126c086868686863361282b565b9695505050505050565b6000806126e06001600160a01b038416306135fd565b90506112366127666126f06116a9565b6001600160a01b0386166000908152601560209081526040918290208251808401909352547affffffffffffffffffffffffffffffffffffffffffffffffffffff811683527b01000000000000000000000000000000000000000000000000000000900464ffffffffff16908201529084613bd2565b82613a20565b7f000000000000000000000000000000000000000000000000000000000000000081565b6001600160a01b03918216600090815260016020908152604080832093909416825291909152205490565b604080516060810182526007546cffffffffffffffffffffffffff80821683526d010000000000000000000000000082041660208301527a010000000000000000000000000000000000000000000000000000900465ffffffffffff16918101919091526000906113b090613418565b600060026006541415612885576040805162461bcd60e51b815260206004820152601f60248201527f5265656e7472616e637947756172643a207265656e7472616e742063616c6c00604482015290519081900360640190fd5b600260065561289c6001600160a01b038816613923565b6128a75760006128a9565b845b34146128fc576040805162461bcd60e51b815260206004820152601c60248201527f4d6f6f6e69737761703a2077726f6e672076616c756520757361676500000000604482015290519081900360640190fd5b61290461507c565b60405180604001604052806129446129248b6001600160a01b0316613923565b61292f576000612931565b345b6121786001600160a01b038d16306135fd565b815260200161295c6001600160a01b038a16306135fd565b90529050600061296a61507c565b61297261507c565b60405180604001604052806129856127bb565b8152602001612992611340565b905290506129a58b8b8b8b8a8987613c41565b8094508197508295505050508a6001600160a01b0316866001600160a01b0316336001600160a01b03167fbd99c6719f088aa0abd9e7b7a4a635d1f931601e9f304b538dc42be25d8c65c68d878a886000015189602001518f60405180876001600160a01b03168152602001868152602001858152602001848152602001838152602001826001600160a01b03168152602001965050505050505060405180910390a4612a558386898785613f1c565b50506001600160a01b03909816600090815260146020526040902080547001000000000000000000000000000000006fffffffffffffffffffffffffffffffff808316909b018b167fffffffffffffffffffffffffffffffff00000000000000000000000000000000909216919091178181048b1685018b1690910299169890981790975560016006559695505050505050565b600080612aff6001600160a01b038416306135fd565b9050611236612b85612b0f6116a9565b6001600160a01b0386166000908152601660209081526040918290208251808401909352547affffffffffffffffffffffffffffffffffffffffffffffffffffff811683527b01000000000000000000000000000000000000000000000000000000900464ffffffffff16908201529084613bd2565b82613bc3565b61012c811115612be2576040805162461bcd60e51b815260206004820152601d60248201527f446563617920706572696f6420766f746520697320746f6f2068696768000000604482015290519081900360640190fd5b603c811015612c38576040805162461bcd60e51b815260206004820152601c60248201527f446563617920706572696f6420766f746520697320746f6f206c6f7700000000604482015290519081900360640190fd5b3360008181526012602090815260409182902082519182019092529054815261108a9190612c6584612f15565b612c6e336118b8565b612c766111fe565b7f00000000000000000000000000000000000000000000000000000000000000006001600160a01b0316631845f0db6040518163ffffffff1660e01b815260040160206040518083038186803b158015612ccf57600080fd5b505afa158015612ce3573d6000803e3d6000fd5b505050506040513d6020811015612cf957600080fd5b5051600f9594939291906141b8612f87565b6007546cffffffffffffffffffffffffff808216926d01000000000000000000000000008304909116917a010000000000000000000000000000000000000000000000000000900465ffffffffffff1690565b612d66612fa2565b6013546001600160a01b03908116911614612dc8576040805162461bcd60e51b815260206004820181905260248201527f4f776e61626c653a2063616c6c6572206973206e6f7420746865206f776e6572604482015290519081900360640190fd5b6001600160a01b038116612e0d5760405162461bcd60e51b815260040180806020018281038252602681526020018061516a6026913960400191505060405180910390fd5b6013546040516001600160a01b038084169216907f8be0079c531659141344cd1fd0a4f28419497f9722a3daafe3b4186f6b6457e090600090a3601380547fffffffffffffffffffffffff0000000000000000000000000000000000000000166001600160a01b0392909216919091179055565b3360008181526012602090815260409182902082519182019092529054815261185f9190612c65613874565b60006d01000000000000000000000000008210612f11576040805162461bcd60e51b815260206004820152601e60248201527f76616c756520646f6573206e6f742066697420696e2031303420626974730000604482015290519081900360640190fd5b5090565b612f1d615096565b506040805160208101909152600182018152919050565b60408051848152831515602082015280820183905290516001600160a01b038616917fce0cf859d853e1944032294143a1bf3ad799998ae77acbeb6c4d9b20d6910240919081900360600190a250505050565b612f9888888888888989898961420b565b5050505050505050565b3390565b6001600160a01b038316612feb5760405162461bcd60e51b81526004018080602001828103825260248152602001806152676024913960400191505060405180910390fd5b6001600160a01b0382166130305760405162461bcd60e51b81526004018080602001828103825260228152602001806151906022913960400191505060405180910390fd5b6001600160a01b03808416600081815260016020908152604080832094871680845294825291829020859055815185815291517f8c5be1e5ebec7d5bd14f71427d1e84f3dd0314c0f7b2291e5b200ac8c7c3b9259281900390910190a3505050565b60408051848152831515602082015280820183905290516001600160a01b038616917fe117cae46817b894b41a4412b73ae0ba746a5707b94e02d83b4c6502010b11ac919081900360600190a250505050565b6000866001600160a01b0316886001600160a01b03161115613105579596955b60008611801561314657507f00000000000000000000000000000000000000000000000000000000000000006001600160a01b0316886001600160a01b0316145b801561318357507f00000000000000000000000000000000000000000000000000000000000000006001600160a01b0316876001600160a01b0316145b1561321b5760006131aa6131a3670de0b6b3a76400006115398a8861369e565b88906137a2565b905060006131b887836134a7565b905060006131ca82611539858a61369e565b905060006131ed6131db878661369e565b612178670de0b6b3a76400008661369e565b90506000613203670de0b6b3a76400008561369e565b905061321381611539858561369e565b955050505050505b979650505050505050565b6001600160a01b03831661326b5760405162461bcd60e51b81526004018080602001828103825260258152602001806152426025913960400191505060405180910390fd5b6001600160a01b0382166132b05760405162461bcd60e51b81526004018080602001828103825260238152602001806151256023913960400191505060405180910390fd5b6132bb8383836144a8565b6132f8816040518060600160405280602681526020016151b2602691396001600160a01b0386166000908152602081905260409020549190613381565b6001600160a01b03808516600090815260208190526040808220939093559084168152205461332790826134a7565b6001600160a01b038084166000818152602081815260409182902094909455805185815290519193928716927fddf252ad1be2c89b69c2b068fc378daa952ba7f163c4a11628f55a4df523b3ef92918290030190a3505050565b600081848411156134105760405162461bcd60e51b81526004018080602001828103825283818151815260200191508051906020019080838360005b838110156133d55781810151838201526020016133bd565b50505050905090810190601f1680156134025780820380516001836020036101000a031916815260200191505b509250505060405180910390fd5b505050900390565b600080613441620151806121fa856040015165ffffffffffff16426137a290919063ffffffff16565b9050600061345262015180836137a2565b905061349f620151806115396134848588602001516cffffffffffffffffffffffffff1661369e90919063ffffffff16565b87516122a4906cffffffffffffffffffffffffff168661369e565b949350505050565b600082820183811015611236576040805162461bcd60e51b815260206004820152601b60248201527f536166654d6174683a206164646974696f6e206f766572666c6f770000000000604482015290519081900360640190fd5b6001600160a01b0382166135465760405162461bcd60e51b81526004018080602001828103825260218152602001806152216021913960400191505060405180910390fd5b613552826000836144a8565b61358f81604051806060016040528060228152602001615148602291396001600160a01b0385166000908152602081905260409020549190613381565b6001600160a01b0383166000908152602081905260409020556002546135b590826137a2565b6002556040805182815290516000916001600160a01b038516917fddf252ad1be2c89b69c2b068fc378daa952ba7f163c4a11628f55a4df523b3ef9181900360200190a35050565b600061360883613923565b1561361e57506001600160a01b038116316110a5565b826001600160a01b03166370a08231836040518263ffffffff1660e01b815260040180826001600160a01b0316815260200191505060206040518083038186803b15801561366b57600080fd5b505afa15801561367f573d6000803e3d6000fd5b505050506040513d602081101561369557600080fd5b505190506110a5565b6000826136ad575060006110a5565b828202828482816136ba57fe5b04146112365760405162461bcd60e51b81526004018080602001828103825260218152602001806151d86021913960400191505060405180910390fd5b600061123683836040518060400160405280601a81526020017f536166654d6174683a206469766973696f6e206279207a65726f0000000000008152506147f8565b801561379d5761374883613923565b15613789576040516001600160a01b0383169082156108fc029083906000818181858888f19350505050158015613783573d6000803e3d6000fd5b5061379d565b61379d6001600160a01b038416838361485d565b505050565b600061123683836040518060400160405280601e81526020017f536166654d6174683a207375627472616374696f6e206f766572666c6f770000815250613381565b61386d85613868836115396137fa8260016137a2565b604080518082019091528b547affffffffffffffffffffffffffffffffffffffffffffffffffffff811682527b01000000000000000000000000000000000000000000000000000000900464ffffffffff1660208201526122a4908990613862908d8d613bd2565b9061369e565b6148dd565b5050505050565b61387c615096565b5060408051602081019091526000815290565b8251600090156138c3575082517fffffffffffffffffffffffffffffffffffffffffffffffffffffffffffffffff01611236565b82826040518163ffffffff1660e01b815260040160206040518083038186803b1580156138ef57600080fd5b505afa158015613903573d6000803e3d6000fd5b505050506040513d602081101561391957600080fd5b5051949350505050565b6001600160a01b03161590565b6001600160a01b03821661398b576040805162461bcd60e51b815260206004820152601f60248201527f45524332303a206d696e7420746f20746865207a65726f206164647265737300604482015290519081900360640190fd5b613997600083836144a8565b6002546139a490826134a7565b6002556001600160a01b0382166000908152602081905260409020546139ca90826134a7565b6001600160a01b0383166000818152602081815260408083209490945583518581529351929391927fddf252ad1be2c89b69c2b068fc378daa952ba7f163c4a11628f55a4df523b3ef9281900390910190a35050565b600081831015613a305781611236565b5090919050565b8015613bbd57613a4684613923565b15613ba85780341015613aa0576040805162461bcd60e51b815260206004820152601a60248201527f556e6945524332303a206e6f7420656e6f7567682076616c7565000000000000604482015290519081900360640190fd5b6001600160a01b0383163314613afd576040805162461bcd60e51b815260206004820152601660248201527f66726f6d206973206e6f74206d73672e73656e64657200000000000000000000604482015290519081900360640190fd5b6001600160a01b0382163014613b5a576040805162461bcd60e51b815260206004820152600e60248201527f746f206973206e6f742074686973000000000000000000000000000000000000604482015290519081900360640190fd5b80341115613ba3576001600160a01b0383166108fc613b7934846137a2565b6040518115909202916000818181858888f19350505050158015613ba1573d6000803e3d6000fd5b505b613bbd565b613bbd6001600160a01b038516848484614986565b50505050565b6000818310613a305781611236565b600080613bf7846121fa876020015164ffffffffff16426137a290919063ffffffff16565b90506000613c0585836137a2565b90506126c085611539613c18878661369e565b89516122a4907affffffffffffffffffffffffffffffffffffffffffffffffffffff168661369e565b600080613c4c61507c565b6000613c566116a9565b86516001600160a01b038d166000908152601560209081526040918290208251808401909352547affffffffffffffffffffffffffffffffffffffffffffffffffffff811683527b01000000000000000000000000000000000000000000000000000000900464ffffffffff1690820152919250613cd691908390613bd2565b8083528651613ce59190613a20565b82526020868101516001600160a01b038c166000908152601683526040908190208151808301909252547affffffffffffffffffffffffffffffffffffffffffffffffffffff811682527b01000000000000000000000000000000000000000000000000000000900464ffffffffff1692810192909252613d6891908390613bd2565b6020808401829052870151613d7d9190613bc3565b6020830152613d976001600160a01b038c1633308c613a37565b8551613db0906121786001600160a01b038e16306135fd565b9350613dd18b8b86856000015186602001518a600001518b602001516130e5565b9250600083118015613de35750878310155b613e34576040805162461bcd60e51b815260206004820152601f60248201527f4d6f6f6e69737761703a2072657475726e206973206e6f7420656e6f75676800604482015290519081900360640190fd5b613e486001600160a01b038b168885613739565b8551825114613e7f578151613e7f90613e6190866134a7565b6001600160a01b038d166000908152601560205260409020906148dd565b8560200151826020015114613ebf576020820151613ebf90613ea190856137a2565b6001600160a01b038c166000908152601660205260409020906148dd565b85516001600160a01b038c166000908152601660205260409020613ee4918390614a0e565b6020808701516001600160a01b038c16600090815260159092526040909120613f0e918390614a0e565b509750975097945050505050565b6000806000807f00000000000000000000000000000000000000000000000000000000000000006001600160a01b031663172886e76040518163ffffffff1660e01b815260040160806040518083038186803b158015613f7b57600080fd5b505afa158015613f8f573d6000803e3d6000fd5b505050506040513d6080811015613fa557600080fd5b5080516020820151604083015160609093015189519297509095509193509091506ec097ce7bc90715b34b9f100000000090613fef90611539613fe8828e6134a7565b849061369e565b602088015190915061400890611539613fe8828d6137a2565b90506ec097ce7bc90715b34b9f100000000081111561414e5761402a81614a76565b9050600061404f8261153961404782670de0b6b3a76400006137a2565b6138626111fe565b90506001600160a01b0389161561411557614076670de0b6b3a7640000611539838961369e565b95508515614115576001600160a01b0383161561410b576140978387613930565b826001600160a01b0316631a3991258a886040518363ffffffff1660e01b815260040180836001600160a01b0316815260200182815260200192505050600060405180830381600087803b1580156140ee57600080fd5b505af1158015614102573d6000803e3d6000fd5b50505050614115565b6141158987613930565b6001600160a01b0384161561414c5761413a670de0b6b3a7640000611539838861369e565b9450841561414c5761414c8486613930565b505b865160208089015188518983015160408051958652938501929092528383015260608301526080820187905260a08201869052517f2a368c7f33bb86e2d999940a3989d849031aff29b750f67947e6b8e8c3d2ffd69181900360c00190a150505050505050505050565b60408051848152831515602082015280820183905290516001600160a01b038616917fd0784d105a7412ffec29813ff8401f04f3d1cdbe6aca756974b1a31f830e5cb7919081900360600190a250505050565b600189015460028a01548190806142218b614ad0565b1561423757614230818a6137a2565b9050614258565b61425561424e6142478d89614ad5565b8b9061369e565b84906137a2565b92505b6142618a614ad0565b156142775761427081896134a7565b9050614298565b61429561428e6142878c89614ad5565b8a9061369e565b84906134a7565b92505b8383146142a75760018d018390555b8181146142b65760028d018190555b600087156142db576142d6886115396142cf858b61369e565b87906134a7565b6142dd565b865b90506142e76150a9565b50604080516060810182528f546cffffffffffffffffffffffffff80821683526d0100000000000000000000000000820416602083018190527a01000000000000000000000000000000000000000000000000000090910465ffffffffffff16928201929092529082146144485761436661436182613418565b612ead565b8f547fffffffffffffffffffffffffffffffffffffff00000000000000000000000000166cffffffffffffffffffffffffff91909116178f556143a882612ead565b8f546cffffffffffffffffffffffffff919091166d0100000000000000000000000000027fffffffffffff00000000000000000000000000ffffffffffffffffffffffffff909116178f556143fc42614b0f565b8f5465ffffffffffff919091167a0100000000000000000000000000000000000000000000000000000279ffffffffffffffffffffffffffffffffffffffffffffffffffff909116178f555b5061445590508a8c614b6c565b614478576001600160a01b038c16600090815260038e01602052604090208a5190555b6144998c6144868c89614ad5565b61448f8d614ad0565b8b8963ffffffff16565b50505050505050505050505050565b816001600160a01b0316836001600160a01b031614156144c75761379d565b60006001600160a01b038416158061457457507f00000000000000000000000000000000000000000000000000000000000000006001600160a01b031663b278110f856040518263ffffffff1660e01b815260040180826001600160a01b0316815260200191505060206040518083038186803b15801561454757600080fd5b505afa15801561455b573d6000803e3d6000fd5b505050506040513d602081101561457157600080fd5b50515b15905060006001600160a01b038416158061462457507f00000000000000000000000000000000000000000000000000000000000000006001600160a01b031663b278110f856040518263ffffffff1660e01b815260040180826001600160a01b0316815260200191505060206040518083038186803b1580156145f757600080fd5b505afa15801561460b573d6000803e3d6000fd5b505050506040513d602081101561462157600080fd5b50515b15905081158015614633575080155b1561463f57505061379d565b60006001600160a01b03861661465657600061465f565b61465f866118b8565b905060006001600160a01b038616614678576000614681565b614681866118b8565b905060006146c36001600160a01b0388161561469e5760006146a0565b865b6121786001600160a01b038b16156146b95760006146bb565b885b6122a46111fe565b90506146cd6150c9565b6040518061010001604052808a6001600160a01b03168152602001896001600160a01b031681526020018715158152602001861515815260200188815260200185815260200184815260200183815250905060008060007f00000000000000000000000000000000000000000000000000000000000000006001600160a01b031663edb7a6fa6040518163ffffffff1660e01b815260040160606040518083038186803b15801561477d57600080fd5b505afa158015614791573d6000803e3d6000fd5b505050506040513d60608110156147a757600080fd5b508051602082015160409092015190945090925090506147cc84846130926007614b73565b6147db8483612f34600b614b73565b6147ea84826141b8600f614b73565b505050505050505050505050565b600081836148475760405162461bcd60e51b81526020600482018181528351602484015283519092839260449091019190850190808383600083156133d55781810151838201526020016133bd565b50600083858161485357fe5b0495945050505050565b604080516001600160a01b038416602482015260448082018490528251808303909101815260649091019091526020810180517bffffffffffffffffffffffffffffffffffffffffffffffffffffffff167fa9059cbb0000000000000000000000000000000000000000000000000000000017905261379d908490614ced565b6148e681614d9e565b82547fffffffffff000000000000000000000000000000000000000000000000000000167affffffffffffffffffffffffffffffffffffffffffffffffffffff9190911617825561493642614e10565b825464ffffffffff919091167b01000000000000000000000000000000000000000000000000000000027affffffffffffffffffffffffffffffffffffffffffffffffffffff9091161790915550565b604080516001600160a01b0380861660248301528416604482015260648082018490528251808303909101815260849091019091526020810180517bffffffffffffffffffffffffffffffffffffffffffffffffffffffff167f23b872dd00000000000000000000000000000000000000000000000000000000179052613bbd908590614ced565b6040805180820190915283547affffffffffffffffffffffffffffffffffffffffffffffffffffff811682527b01000000000000000000000000000000000000000000000000000000900464ffffffffff16602082015261379d908490613868908585613bd2565b60006003821115614aba5781600160028204015b81811015614ab257809150600281828681614aa157fe5b040181614aaa57fe5b049050614a8a565b5090506117c4565b8115614ac8575060016117c4565b5060006117c4565b511590565b815160009015614b09575081517fffffffffffffffffffffffffffffffffffffffffffffffffffffffffffffffff016110a5565b50919050565b600066010000000000008210612f11576040805162461bcd60e51b815260206004820152601d60248201527f76616c756520646f6573206e6f742066697420696e2034382062697473000000604482015290519081900360640190fd5b5190511490565b614b7b615096565b5083516001600160a01b03166000908152600382016020908152604091829020825191820190925290548152614baf615096565b506020808601516001600160a01b031660009081526003840182526040908190208151928301909152548152614be482614ad0565b8015614bf45750614bf481614ad0565b8015614c01575085604001515b8015614c0e575085606001515b15614c80578551614c4990614c238488614ad5565b6001614c408a608001518b60a001516137a290919063ffffffff16565b8863ffffffff16565b6020860151614c7990614c5c8388614ad5565b6001614c408a608001518b60c001516134a790919063ffffffff16565b5050613bbd565b856040015115614cba57855160a08701516080880151614cba92918591614ca89082906137a2565b60e08b01518894939291908b8b614e6c565b856060015115614ce557602086015160c08701516080880151614ce592918491614ca89082906134a7565b505050505050565b6060614d42826040518060400160405280602081526020017f5361666545524332303a206c6f772d6c6576656c2063616c6c206661696c6564815250856001600160a01b0316614e909092919063ffffffff16565b80519091501561379d57808060200190516020811015614d6157600080fd5b505161379d5760405162461bcd60e51b815260040180806020018281038252602a81526020018061528b602a913960400191505060405180910390fd5b60007b010000000000000000000000000000000000000000000000000000008210612f11576040805162461bcd60e51b815260206004820152601e60248201527f76616c756520646f6573206e6f742066697420696e2032313620626974730000604482015290519081900360640190fd5b6000650100000000008210612f11576040805162461bcd60e51b815260206004820152601d60248201527f76616c756520646f6573206e6f742066697420696e2034302062697473000000604482015290519081900360640190fd5b612f988888888715614e7e5789614e86565b614e86613874565b898989898961420b565b606061123384846000856060614ea585615025565b614ef6576040805162461bcd60e51b815260206004820152601d60248201527f416464726573733a2063616c6c20746f206e6f6e2d636f6e7472616374000000604482015290519081900360640190fd5b60006060866001600160a01b031685876040518082805190602001908083835b60208310614f5357805182527fffffffffffffffffffffffffffffffffffffffffffffffffffffffffffffffe09092019160209182019101614f16565b6001836020036101000a03801982511681845116808217855250505050505090500191505060006040518083038185875af1925050503d8060008114614fb5576040519150601f19603f3d011682016040523d82523d6000602084013e614fba565b606091505b50915091508115614fce57915061349f9050565b805115614fde5780518082602001fd5b60405162461bcd60e51b81526020600482018181528651602484015286518793919283926044019190850190808383600083156133d55781810151838201526020016133bd565b6000813f7fc5d2460186f7233c927e7db2dcc703c0e500b653ca82273b7bfad8045d85a47081811480159061349f575050151592915050565b60405180604001604052806002906020820280368337509192915050565b604051806040016040528060008152602001600081525090565b6040518060200160405280600081525090565b604080516060810182526000808252602082018190529181019190915290565b60405180610100016040528060006001600160a01b0316815260200160006001600160a01b0316815260200160001515815260200160001515815260200160008152602001600081526020016000815260200160008152509056fe45524332303a207472616e7366657220746f20746865207a65726f206164647265737345524332303a206275726e20616d6f756e7420657863656564732062616c616e63654f776e61626c653a206e6577206f776e657220697320746865207a65726f206164647265737345524332303a20617070726f766520746f20746865207a65726f206164647265737345524332303a207472616e7366657220616d6f756e7420657863656564732062616c616e6365536166654d6174683a206d756c7469706c69636174696f6e206f766572666c6f7745524332303a207472616e7366657220616d6f756e74206578636565647320616c6c6f77616e636545524332303a206275726e2066726f6d20746865207a65726f206164647265737345524332303a207472616e736665722066726f6d20746865207a65726f206164647265737345524332303a20617070726f76652066726f6d20746865207a65726f20616464726573735361666545524332303a204552433230206f7065726174696f6e20646964206e6f74207375636365656445524332303a2064656372656173656420616c6c6f77616e63652062656c6f77207a65726fa2646970667358221220361f8f18ad7494ab6ba6cb7355f74042c1c861bce0efce5a2e7f4c1b1661a24764736f6c634300060c0033",
  "immutableReferences": {
    "162": [
      {
        "length": 32,
        "start": 4269
      },
      {
        "length": 32,
        "start": 5253
      },
      {
        "length": 32,
        "start": 5923
      },
      {
        "length": 32,
        "start": 6773
      },
      {
        "length": 32,
        "start": 6902
      },
      {
        "length": 32,
        "start": 7852
      },
      {
        "length": 32,
        "start": 9651
      },
      {
        "length": 32,
        "start": 12562
      }
    ],
    "164": [
      {
        "length": 32,
        "start": 5290
      },
      {
        "length": 32,
        "start": 5971
      },
      {
        "length": 32,
        "start": 6828
      },
      {
        "length": 32,
        "start": 7037
      },
      {
        "length": 32,
        "start": 7889
      },
      {
        "length": 32,
        "start": 9729
      },
      {
        "length": 32,
        "start": 9870
      },
      {
        "length": 32,
        "start": 12623
      }
    ],
    "4632": [
      {
        "length": 32,
        "start": 4087
      },
      {
        "length": 32,
        "start": 4459
      },
      {
        "length": 32,
        "start": 7312
      },
      {
        "length": 32,
        "start": 7461
      },
      {
        "length": 32,
        "start": 7678
      },
      {
        "length": 32,
        "start": 10094
      },
      {
        "length": 32,
        "start": 11384
      },
      {
        "length": 32,
        "start": 16164
      },
      {
        "length": 32,
        "start": 17628
      },
      {
        "length": 32,
        "start": 17804
      },
      {
        "length": 32,
        "start": 18214
      }
    ]
  },
  "source": "// SPDX-License-Identifier: MIT\n\npragma solidity ^0.6.0;\n\nimport \"@openzeppelin/contracts/access/Ownable.sol\";\nimport \"@openzeppelin/contracts/math/Math.sol\";\nimport \"@openzeppelin/contracts/math/SafeMath.sol\";\nimport \"@openzeppelin/contracts/token/ERC20/ERC20.sol\";\nimport \"./interfaces/IReferralFeeReceiver.sol\";\nimport \"./libraries/UniERC20.sol\";\nimport \"./libraries/Sqrt.sol\";\nimport \"./libraries/VirtualBalance.sol\";\nimport \"./governance/MooniswapGovernance.sol\";\n\n\ncontract Mooniswap is MooniswapGovernance, Ownable {\n    using Sqrt for uint256;\n    using SafeMath for uint256;\n    using UniERC20 for IERC20;\n    using VirtualBalance for VirtualBalance.Data;\n\n    struct Balances {\n        uint256 src;\n        uint256 dst;\n    }\n\n    struct SwapVolumes {\n        uint128 confirmed;\n        uint128 result;\n    }\n\n    struct Fees {\n        uint256 fee;\n        uint256 slippageFee;\n    }\n\n    event Deposited(\n        address indexed sender,\n        address indexed receiver,\n        uint256 share,\n        uint256 token0Amount,\n        uint256 token1Amount\n    );\n\n    event Withdrawn(\n        address indexed sender,\n        address indexed receiver,\n        uint256 share,\n        uint256 token0Amount,\n        uint256 token1Amount\n    );\n\n    event Swapped(\n        address indexed sender,\n        address indexed receiver,\n        address indexed srcToken,\n        address dstToken,\n        uint256 amount,\n        uint256 result,\n        uint256 srcAdditionBalance,\n        uint256 dstRemovalBalance,\n        address referral\n    );\n\n    event Sync(\n        uint256 srcBalance,\n        uint256 dstBalance,\n        uint256 fee,\n        uint256 slippageFee,\n        uint256 referralShare,\n        uint256 governanceShare\n    );\n\n    uint256 private constant _BASE_SUPPLY = 1000;  // Total supply on first deposit\n\n    IERC20 public immutable token0;\n    IERC20 public immutable token1;\n    mapping(IERC20 => SwapVolumes) public volumes;\n    mapping(IERC20 => VirtualBalance.Data) public virtualBalancesForAddition;\n    mapping(IERC20 => VirtualBalance.Data) public virtualBalancesForRemoval;\n\n    constructor(\n        IERC20 _token0,\n        IERC20 _token1,\n        string memory name,\n        string memory symbol,\n        IMooniswapFactoryGovernance _mooniswapFactoryGovernance\n    )\n        public\n        ERC20(name, symbol)\n        MooniswapGovernance(_mooniswapFactoryGovernance)\n    {\n        require(bytes(name).length > 0, \"Mooniswap: name is empty\");\n        require(bytes(symbol).length > 0, \"Mooniswap: symbol is empty\");\n        require(_token0 != _token1, \"Mooniswap: duplicate tokens\");\n        token0 = _token0;\n        token1 = _token1;\n    }\n\n    function getTokens() external view returns(IERC20[] memory tokens) {\n        tokens = new IERC20[](2);\n        tokens[0] = token0;\n        tokens[1] = token1;\n    }\n\n    function tokens(uint256 i) external view returns(IERC20) {\n        if (i == 0) {\n            return token0;\n        } else if (i == 1) {\n            return token1;\n        } else {\n            revert(\"Pool has two tokens\");\n        }\n    }\n\n    function getBalanceForAddition(IERC20 token) public view returns(uint256) {\n        uint256 balance = token.uniBalanceOf(address(this));\n        return Math.max(virtualBalancesForAddition[token].current(decayPeriod(), balance), balance);\n    }\n\n    function getBalanceForRemoval(IERC20 token) public view returns(uint256) {\n        uint256 balance = token.uniBalanceOf(address(this));\n        return Math.min(virtualBalancesForRemoval[token].current(decayPeriod(), balance), balance);\n    }\n\n    function getReturn(IERC20 src, IERC20 dst, uint256 amount) external view returns(uint256) {\n        return _getReturn(src, dst, amount, getBalanceForAddition(src), getBalanceForRemoval(dst), fee(), slippageFee());\n    }\n\n    function deposit(uint256[2] memory maxAmounts, uint256[2] memory minAmounts) external payable returns(uint256 fairSupply, uint256[2] memory receivedAmounts) {\n        return depositFor(maxAmounts, minAmounts, msg.sender);\n    }\n\n    function depositFor(uint256[2] memory maxAmounts, uint256[2] memory minAmounts, address target) public payable nonReentrant returns(uint256 fairSupply, uint256[2] memory receivedAmounts) {\n        IERC20[2] memory _tokens = [token0, token1];\n        require(msg.value == (_tokens[0].isETH() ? maxAmounts[0] : (_tokens[1].isETH() ? maxAmounts[1] : 0)), \"Mooniswap: wrong value usage\");\n\n        uint256 totalSupply = totalSupply();\n\n        if (totalSupply == 0) {\n            fairSupply = _BASE_SUPPLY.mul(99);\n            _mint(address(this), _BASE_SUPPLY); // Donate up to 1%\n\n            for (uint i = 0; i < maxAmounts.length; i++) {\n                fairSupply = Math.max(fairSupply, maxAmounts[i]);\n\n                require(maxAmounts[i] > 0, \"Mooniswap: amount is zero\");\n                require(maxAmounts[i] >= minAmounts[i], \"Mooniswap: minAmount not reached\");\n\n                _tokens[i].uniTransferFrom(msg.sender, address(this), maxAmounts[i]);\n                receivedAmounts[i] = maxAmounts[i];\n            }\n        }\n        else {\n            uint256[2] memory realBalances;\n            for (uint i = 0; i < realBalances.length; i++) {\n                realBalances[i] = _tokens[i].uniBalanceOf(address(this)).sub(_tokens[i].isETH() ? msg.value : 0);\n            }\n\n            // Pre-compute fair supply\n            fairSupply = type(uint256).max;\n            for (uint i = 0; i < maxAmounts.length; i++) {\n                fairSupply = Math.min(fairSupply, totalSupply.mul(maxAmounts[i]).div(realBalances[i]));\n            }\n\n            uint256 fairSupplyCached = fairSupply;\n\n            for (uint i = 0; i < maxAmounts.length; i++) {\n                require(maxAmounts[i] > 0, \"Mooniswap: amount is zero\");\n                uint256 amount = realBalances[i].mul(fairSupplyCached).add(totalSupply - 1).div(totalSupply);\n                require(amount >= minAmounts[i], \"Mooniswap: minAmount not reached\");\n\n                _tokens[i].uniTransferFrom(msg.sender, address(this), amount);\n                receivedAmounts[i] = _tokens[i].uniBalanceOf(address(this)).sub(realBalances[i]);\n                fairSupply = Math.min(fairSupply, totalSupply.mul(receivedAmounts[i]).div(realBalances[i]));\n            }\n\n            uint256 _decayPeriod = decayPeriod();  // gas savings\n            for (uint i = 0; i < maxAmounts.length; i++) {\n                virtualBalancesForRemoval[_tokens[i]].scale(_decayPeriod, realBalances[i], totalSupply.add(fairSupply), totalSupply);\n                virtualBalancesForAddition[_tokens[i]].scale(_decayPeriod, realBalances[i], totalSupply.add(fairSupply), totalSupply);\n            }\n        }\n\n        require(fairSupply > 0, \"Mooniswap: result is not enough\");\n        _mint(target, fairSupply);\n\n        emit Deposited(msg.sender, target, fairSupply, receivedAmounts[0], receivedAmounts[1]);\n    }\n\n    function withdraw(uint256 amount, uint256[] memory minReturns) external returns(uint256[2] memory withdrawnAmounts) {\n        return withdrawFor(amount, minReturns, msg.sender);\n    }\n\n    function withdrawFor(uint256 amount, uint256[] memory minReturns, address payable target) public nonReentrant returns(uint256[2] memory withdrawnAmounts) {\n        IERC20[2] memory _tokens = [token0, token1];\n\n        uint256 totalSupply = totalSupply();\n        uint256 _decayPeriod = decayPeriod();  // gas savings\n        _burn(msg.sender, amount);\n\n        for (uint i = 0; i < _tokens.length; i++) {\n            IERC20 token = _tokens[i];\n\n            uint256 preBalance = token.uniBalanceOf(address(this));\n            uint256 value = preBalance.mul(amount).div(totalSupply);\n            token.uniTransfer(target, value);\n            withdrawnAmounts[i] = value;\n            require(i >= minReturns.length || value >= minReturns[i], \"Mooniswap: result is not enough\");\n\n            virtualBalancesForAddition[token].scale(_decayPeriod, preBalance, totalSupply.sub(amount), totalSupply);\n            virtualBalancesForRemoval[token].scale(_decayPeriod, preBalance, totalSupply.sub(amount), totalSupply);\n        }\n\n        emit Withdrawn(msg.sender, target, amount, withdrawnAmounts[0], withdrawnAmounts[1]);\n    }\n\n    function swap(IERC20 src, IERC20 dst, uint256 amount, uint256 minReturn, address referral) external payable returns(uint256 result) {\n        return swapFor(src, dst, amount, minReturn, referral, msg.sender);\n    }\n\n    function swapFor(IERC20 src, IERC20 dst, uint256 amount, uint256 minReturn, address referral, address payable receiver) public payable nonReentrant returns(uint256 result) {\n        require(msg.value == (src.isETH() ? amount : 0), \"Mooniswap: wrong value usage\");\n\n        Balances memory balances = Balances({\n            src: src.uniBalanceOf(address(this)).sub(src.isETH() ? msg.value : 0),\n            dst: dst.uniBalanceOf(address(this))\n        });\n        uint256 confirmed;\n        Balances memory virtualBalances;\n        Fees memory fees = Fees({\n            fee: fee(),\n            slippageFee: slippageFee()\n        });\n        (confirmed, result, virtualBalances) = _doTransfers(src, dst, amount, minReturn, receiver, balances, fees);\n        emit Swapped(msg.sender, receiver, address(src), address(dst), confirmed, result, virtualBalances.src, virtualBalances.dst, referral);\n        _mintRewards(confirmed, result, referral, balances, fees);\n\n        // Overflow of uint128 is desired\n        volumes[src].confirmed += uint128(confirmed);\n        volumes[src].result += uint128(result);\n    }\n\n    function _doTransfers(IERC20 src, IERC20 dst, uint256 amount, uint256 minReturn, address payable receiver, Balances memory balances, Fees memory fees)\n        private returns(uint256 confirmed, uint256 result, Balances memory virtualBalances)\n    {\n        uint256 _decayPeriod = decayPeriod();\n        virtualBalances.src = virtualBalancesForAddition[src].current(_decayPeriod, balances.src);\n        virtualBalances.src = Math.max(virtualBalances.src, balances.src);\n        virtualBalances.dst = virtualBalancesForRemoval[dst].current(_decayPeriod, balances.dst);\n        virtualBalances.dst = Math.min(virtualBalances.dst, balances.dst);\n        src.uniTransferFrom(msg.sender, address(this), amount);\n        confirmed = src.uniBalanceOf(address(this)).sub(balances.src);\n        result = _getReturn(src, dst, confirmed, virtualBalances.src, virtualBalances.dst, fees.fee, fees.slippageFee);\n        require(result > 0 && result >= minReturn, \"Mooniswap: return is not enough\");\n        dst.uniTransfer(receiver, result);\n\n        // Update virtual balances to the same direction only at imbalanced state\n        if (virtualBalances.src != balances.src) {\n            virtualBalancesForAddition[src].set(virtualBalances.src.add(confirmed));\n        }\n        if (virtualBalances.dst != balances.dst) {\n            virtualBalancesForRemoval[dst].set(virtualBalances.dst.sub(result));\n        }\n        // Update virtual balances to the opposite direction\n        virtualBalancesForRemoval[src].update(_decayPeriod, balances.src);\n        virtualBalancesForAddition[dst].update(_decayPeriod, balances.dst);\n    }\n\n    function _mintRewards(uint256 confirmed, uint256 result, address referral, Balances memory balances, Fees memory fees) private {\n        (uint256 referralShare, uint256 governanceShare, address governanceFeeReceiver, address referralFeeReceiver) = mooniswapFactoryGovernance.shareParameters();\n\n        uint256 invariantRatio = uint256(1e36);\n        invariantRatio = invariantRatio.mul(balances.src.add(confirmed)).div(balances.src);\n        invariantRatio = invariantRatio.mul(balances.dst.sub(result)).div(balances.dst);\n        if (invariantRatio > 1e36) {\n            // calculate share only if invariant increased\n            invariantRatio = invariantRatio.sqrt();\n            uint256 invIncrease = totalSupply().mul(invariantRatio.sub(1e18)).div(invariantRatio);\n\n            if (referral != address(0)) {\n                referralShare = invIncrease.mul(referralShare).div(MooniswapConstants._FEE_DENOMINATOR);\n                if (referralShare > 0) {\n                    if (referralFeeReceiver != address(0)) {\n                        _mint(referralFeeReceiver, referralShare);\n                        IReferralFeeReceiver(referralFeeReceiver).updateReward(referral, referralShare);\n                    } else {\n                        _mint(referral, referralShare);\n                    }\n                }\n            }\n\n            if (governanceFeeReceiver != address(0)) {\n                governanceShare = invIncrease.mul(governanceShare).div(MooniswapConstants._FEE_DENOMINATOR);\n                if (governanceShare > 0) {\n                    _mint(governanceFeeReceiver, governanceShare);\n                }\n            }\n        }\n\n        emit Sync(balances.src, balances.dst, fees.fee, fees.slippageFee, referralShare, governanceShare);\n    }\n\n    /*\n        spot_ret = dx * y / x\n        uni_ret = dx * y / (x + dx)\n        slippage = (spot_ret - uni_ret) / spot_ret\n        slippage = dx * dx * y / (x * (x + dx)) / (dx * y / x)\n        slippage = dx / (x + dx)\n        ret = uni_ret * (1 - fee_percentage * slippage)\n        ret = dx * y / (x + dx) * (1 - slip_fee * dx / (x + dx))\n        ret = dx * y / (x + dx) * (x + dx - slip_fee * dx) / (x + dx)\n\n        x = amount * denominator\n        dx = amount * (denominator - fee)\n    */\n    function _getReturn(IERC20 src, IERC20 dst, uint256 amount, uint256 srcBalance, uint256 dstBalance, uint256 fee, uint256 slippageFee) internal view returns(uint256) {\n        if (src > dst) {\n            (src, dst) = (dst, src);\n        }\n        if (amount > 0 && src == token0 && dst == token1) {\n            uint256 taxedAmount = amount.sub(amount.mul(fee).div(MooniswapConstants._FEE_DENOMINATOR));\n            uint256 srcBalancePlusTaxedAmount = srcBalance.add(taxedAmount);\n            uint256 ret = taxedAmount.mul(dstBalance).div(srcBalancePlusTaxedAmount);\n            uint256 feeNumerator = MooniswapConstants._FEE_DENOMINATOR.mul(srcBalancePlusTaxedAmount).sub(slippageFee.mul(taxedAmount));\n            uint256 feeDenominator = MooniswapConstants._FEE_DENOMINATOR.mul(srcBalancePlusTaxedAmount);\n            return ret.mul(feeNumerator).div(feeDenominator);\n        }\n    }\n\n    function rescueFunds(IERC20 token, uint256 amount) external nonReentrant onlyOwner {\n        uint256 balance0 = token0.uniBalanceOf(address(this));\n        uint256 balance1 = token1.uniBalanceOf(address(this));\n\n        token.uniTransfer(msg.sender, amount);\n\n        require(token0.uniBalanceOf(address(this)) >= balance0, \"Mooniswap: access denied\");\n        require(token1.uniBalanceOf(address(this)) >= balance1, \"Mooniswap: access denied\");\n        require(balanceOf(address(this)) >= _BASE_SUPPLY, \"Mooniswap: access denied\");\n    }\n}\n",
  "sourcePath": "/Users/zumzoom/Projects/1inch/mooniswap-v2/contracts/Mooniswap.sol",
  "compiler": {
    "name": "solc",
    "version": "0.6.12+commit.27d51765.Emscripten.clang"
  },
  "schemaVersion": "3.3.3",
  "updatedAt": "2020-12-22T09:26:43.298Z",
  "devdoc": {
    "kind": "dev",
    "methods": {
      "allowance(address,address)": {
        "details": "See {IERC20-allowance}."
      },
      "approve(address,uint256)": {
        "details": "See {IERC20-approve}. Requirements: - `spender` cannot be the zero address."
      },
      "balanceOf(address)": {
        "details": "See {IERC20-balanceOf}."
      },
      "decimals()": {
        "details": "Returns the number of decimals used to get its user representation. For example, if `decimals` equals `2`, a balance of `505` tokens should be displayed to a user as `5,05` (`505 / 10 ** 2`). Tokens usually opt for a value of 18, imitating the relationship between Ether and Wei. This is the value {ERC20} uses, unless {_setupDecimals} is called. NOTE: This information is only used for _display_ purposes: it in no way affects any of the arithmetic of the contract, including {IERC20-balanceOf} and {IERC20-transfer}."
      },
      "decreaseAllowance(address,uint256)": {
        "details": "Atomically decreases the allowance granted to `spender` by the caller. This is an alternative to {approve} that can be used as a mitigation for problems described in {IERC20-approve}. Emits an {Approval} event indicating the updated allowance. Requirements: - `spender` cannot be the zero address. - `spender` must have allowance for the caller of at least `subtractedValue`."
      },
      "increaseAllowance(address,uint256)": {
        "details": "Atomically increases the allowance granted to `spender` by the caller. This is an alternative to {approve} that can be used as a mitigation for problems described in {IERC20-approve}. Emits an {Approval} event indicating the updated allowance. Requirements: - `spender` cannot be the zero address."
      },
      "name()": {
        "details": "Returns the name of the token."
      },
      "owner()": {
        "details": "Returns the address of the current owner."
      },
      "renounceOwnership()": {
        "details": "Leaves the contract without owner. It will not be possible to call `onlyOwner` functions anymore. Can only be called by the current owner. NOTE: Renouncing ownership will leave the contract without an owner, thereby removing any functionality that is only available to the owner."
      },
      "symbol()": {
        "details": "Returns the symbol of the token, usually a shorter version of the name."
      },
      "totalSupply()": {
        "details": "See {IERC20-totalSupply}."
      },
      "transfer(address,uint256)": {
        "details": "See {IERC20-transfer}. Requirements: - `recipient` cannot be the zero address. - the caller must have a balance of at least `amount`."
      },
      "transferFrom(address,address,uint256)": {
        "details": "See {IERC20-transferFrom}. Emits an {Approval} event indicating the updated allowance. This is not required by the EIP. See the note at the beginning of {ERC20}; Requirements: - `sender` and `recipient` cannot be the zero address. - `sender` must have a balance of at least `amount`. - the caller must have allowance for ``sender``'s tokens of at least `amount`."
      },
      "transferOwnership(address)": {
        "details": "Transfers ownership of the contract to a new account (`newOwner`). Can only be called by the current owner."
      }
    },
    "version": 1
  },
  "userdoc": {
    "kind": "user",
    "methods": {},
    "version": 1
  }
}