{
  "contractName": "MooniswapFactory",
  "abi": [
    {
      "inputs": [
        {
          "internalType": "address",
          "name": "_poolOwner",
          "type": "address"
        },
        {
          "internalType": "contract IMooniswapDeployer",
          "name": "_mooniswapDeployer",
          "type": "address"
        },
        {
          "internalType": "address",
          "name": "_governanceMothership",
          "type": "address"
        }
      ],
      "stateMutability": "nonpayable",
      "type": "constructor"
    },
    {
      "anonymous": false,
      "inputs": [
        {
          "indexed": true,
          "internalType": "address",
          "name": "user",
          "type": "address"
        },
        {
          "indexed": false,
          "internalType": "uint256",
          "name": "decayPeriod",
          "type": "uint256"
        },
        {
          "indexed": false,
          "internalType": "bool",
          "name": "isDefault",
          "type": "bool"
        },
        {
          "indexed": false,
          "internalType": "uint256",
          "name": "amount",
          "type": "uint256"
        }
      ],
      "name": "DefaultDecayPeriodVoteUpdate",
      "type": "event"
    },
    {
      "anonymous": false,
      "inputs": [
        {
          "indexed": true,
          "internalType": "address",
          "name": "user",
          "type": "address"
        },
        {
          "indexed": false,
          "internalType": "uint256",
          "name": "fee",
          "type": "uint256"
        },
        {
          "indexed": false,
          "internalType": "bool",
          "name": "isDefault",
          "type": "bool"
        },
        {
          "indexed": false,
          "internalType": "uint256",
          "name": "amount",
          "type": "uint256"
        }
      ],
      "name": "DefaultFeeVoteUpdate",
      "type": "event"
    },
    {
      "anonymous": false,
      "inputs": [
        {
          "indexed": true,
          "internalType": "address",
          "name": "user",
          "type": "address"
        },
        {
          "indexed": false,
          "internalType": "uint256",
          "name": "slippageFee",
          "type": "uint256"
        },
        {
          "indexed": false,
          "internalType": "bool",
          "name": "isDefault",
          "type": "bool"
        },
        {
          "indexed": false,
          "internalType": "uint256",
          "name": "amount",
          "type": "uint256"
        }
      ],
      "name": "DefaultSlippageFeeVoteUpdate",
      "type": "event"
    },
    {
      "anonymous": false,
      "inputs": [
        {
          "indexed": true,
          "internalType": "address",
          "name": "mooniswap",
          "type": "address"
        },
        {
          "indexed": true,
          "internalType": "address",
          "name": "token1",
          "type": "address"
        },
        {
          "indexed": true,
          "internalType": "address",
          "name": "token2",
          "type": "address"
        }
      ],
      "name": "Deployed",
      "type": "event"
    },
    {
      "anonymous": false,
      "inputs": [
        {
          "indexed": false,
          "internalType": "address",
          "name": "governanceFeeReceiver",
          "type": "address"
        }
      ],
      "name": "GovernanceFeeReceiverUpdate",
      "type": "event"
    },
    {
      "anonymous": false,
      "inputs": [
        {
          "indexed": true,
          "internalType": "address",
          "name": "user",
          "type": "address"
        },
        {
          "indexed": false,
          "internalType": "uint256",
          "name": "governanceShare",
          "type": "uint256"
        },
        {
          "indexed": false,
          "internalType": "bool",
          "name": "isDefault",
          "type": "bool"
        },
        {
          "indexed": false,
          "internalType": "uint256",
          "name": "amount",
          "type": "uint256"
        }
      ],
      "name": "GovernanceShareVoteUpdate",
      "type": "event"
    },
    {
      "anonymous": false,
      "inputs": [
        {
          "indexed": true,
          "internalType": "address",
          "name": "previousOwner",
          "type": "address"
        },
        {
          "indexed": true,
          "internalType": "address",
          "name": "newOwner",
          "type": "address"
        }
      ],
      "name": "OwnershipTransferred",
      "type": "event"
    },
    {
      "anonymous": false,
      "inputs": [
        {
          "indexed": false,
          "internalType": "address",
          "name": "referralFeeReceiver",
          "type": "address"
        }
      ],
      "name": "ReferralFeeReceiverUpdate",
      "type": "event"
    },
    {
      "anonymous": false,
      "inputs": [
        {
          "indexed": true,
          "internalType": "address",
          "name": "user",
          "type": "address"
        },
        {
          "indexed": false,
          "internalType": "uint256",
          "name": "referralShare",
          "type": "uint256"
        },
        {
          "indexed": false,
          "internalType": "bool",
          "name": "isDefault",
          "type": "bool"
        },
        {
          "indexed": false,
          "internalType": "uint256",
          "name": "amount",
          "type": "uint256"
        }
      ],
      "name": "ReferralShareVoteUpdate",
      "type": "event"
    },
    {
      "inputs": [
        {
          "internalType": "uint256",
          "name": "",
          "type": "uint256"
        }
      ],
      "name": "allPools",
      "outputs": [
        {
          "internalType": "contract Mooniswap",
          "name": "",
          "type": "address"
        }
      ],
      "stateMutability": "view",
      "type": "function"
    },
    {
      "inputs": [
        {
          "internalType": "address",
          "name": "account",
          "type": "address"
        }
      ],
      "name": "balanceOf",
      "outputs": [
        {
          "internalType": "uint256",
          "name": "",
          "type": "uint256"
        }
      ],
      "stateMutability": "view",
      "type": "function"
    },
    {
      "inputs": [],
      "name": "defaultDecayPeriod",
      "outputs": [
        {
          "internalType": "uint256",
          "name": "",
          "type": "uint256"
        }
      ],
      "stateMutability": "view",
      "type": "function"
    },
    {
      "inputs": [
        {
          "internalType": "uint256",
          "name": "vote",
          "type": "uint256"
        }
      ],
      "name": "defaultDecayPeriodVote",
      "outputs": [],
      "stateMutability": "nonpayable",
      "type": "function"
    },
    {
      "inputs": [
        {
          "internalType": "address",
          "name": "user",
          "type": "address"
        }
      ],
      "name": "defaultDecayPeriodVotes",
      "outputs": [
        {
          "internalType": "uint256",
          "name": "",
          "type": "uint256"
        }
      ],
      "stateMutability": "view",
      "type": "function"
    },
    {
      "inputs": [],
      "name": "defaultFee",
      "outputs": [
        {
          "internalType": "uint256",
          "name": "",
          "type": "uint256"
        }
      ],
      "stateMutability": "view",
      "type": "function"
    },
    {
      "inputs": [
        {
          "internalType": "uint256",
          "name": "vote",
          "type": "uint256"
        }
      ],
      "name": "defaultFeeVote",
      "outputs": [],
      "stateMutability": "nonpayable",
      "type": "function"
    },
    {
      "inputs": [
        {
          "internalType": "address",
          "name": "user",
          "type": "address"
        }
      ],
      "name": "defaultFeeVotes",
      "outputs": [
        {
          "internalType": "uint256",
          "name": "",
          "type": "uint256"
        }
      ],
      "stateMutability": "view",
      "type": "function"
    },
    {
      "inputs": [],
      "name": "defaultSlippageFee",
      "outputs": [
        {
          "internalType": "uint256",
          "name": "",
          "type": "uint256"
        }
      ],
      "stateMutability": "view",
      "type": "function"
    },
    {
      "inputs": [
        {
          "internalType": "uint256",
          "name": "vote",
          "type": "uint256"
        }
      ],
      "name": "defaultSlippageFeeVote",
      "outputs": [],
      "stateMutability": "nonpayable",
      "type": "function"
    },
    {
      "inputs": [
        {
          "internalType": "address",
          "name": "user",
          "type": "address"
        }
      ],
      "name": "defaultSlippageFeeVotes",
      "outputs": [
        {
          "internalType": "uint256",
          "name": "",
          "type": "uint256"
        }
      ],
      "stateMutability": "view",
      "type": "function"
    },
    {
      "inputs": [],
      "name": "discardDefaultDecayPeriodVote",
      "outputs": [],
      "stateMutability": "nonpayable",
      "type": "function"
    },
    {
      "inputs": [],
      "name": "discardDefaultFeeVote",
      "outputs": [],
      "stateMutability": "nonpayable",
      "type": "function"
    },
    {
      "inputs": [],
      "name": "discardDefaultSlippageFeeVote",
      "outputs": [],
      "stateMutability": "nonpayable",
      "type": "function"
    },
    {
      "inputs": [],
      "name": "discardGovernanceShareVote",
      "outputs": [],
      "stateMutability": "nonpayable",
      "type": "function"
    },
    {
      "inputs": [],
      "name": "discardReferralShareVote",
      "outputs": [],
      "stateMutability": "nonpayable",
      "type": "function"
    },
    {
      "inputs": [],
      "name": "governanceFeeReceiver",
      "outputs": [
        {
          "internalType": "address",
          "name": "",
          "type": "address"
        }
      ],
      "stateMutability": "view",
      "type": "function"
    },
    {
      "inputs": [],
      "name": "governanceShare",
      "outputs": [
        {
          "internalType": "uint256",
          "name": "",
          "type": "uint256"
        }
      ],
      "stateMutability": "view",
      "type": "function"
    },
    {
      "inputs": [
        {
          "internalType": "uint256",
          "name": "vote",
          "type": "uint256"
        }
      ],
      "name": "governanceShareVote",
      "outputs": [],
      "stateMutability": "nonpayable",
      "type": "function"
    },
    {
      "inputs": [
        {
          "internalType": "address",
          "name": "user",
          "type": "address"
        }
      ],
      "name": "governanceShareVotes",
      "outputs": [
        {
          "internalType": "uint256",
          "name": "",
          "type": "uint256"
        }
      ],
      "stateMutability": "view",
      "type": "function"
    },
    {
      "inputs": [
        {
          "internalType": "contract Mooniswap",
          "name": "",
          "type": "address"
        }
      ],
      "name": "isPool",
      "outputs": [
        {
          "internalType": "bool",
          "name": "",
          "type": "bool"
        }
      ],
      "stateMutability": "view",
      "type": "function"
    },
    {
      "inputs": [],
      "name": "mooniswapDeployer",
      "outputs": [
        {
          "internalType": "contract IMooniswapDeployer",
          "name": "",
          "type": "address"
        }
      ],
      "stateMutability": "view",
      "type": "function"
    },
    {
      "inputs": [],
      "name": "mothership",
      "outputs": [
        {
          "internalType": "address",
          "name": "",
          "type": "address"
        }
      ],
      "stateMutability": "view",
      "type": "function"
    },
    {
      "inputs": [
        {
          "internalType": "address",
          "name": "account",
          "type": "address"
        },
        {
          "internalType": "uint256",
          "name": "newBalance",
          "type": "uint256"
        }
      ],
      "name": "notifyStakeChanged",
      "outputs": [],
      "stateMutability": "nonpayable",
      "type": "function"
    },
    {
      "inputs": [
        {
          "internalType": "address[]",
          "name": "accounts",
          "type": "address[]"
        },
        {
          "internalType": "uint256[]",
          "name": "newBalances",
          "type": "uint256[]"
        }
      ],
      "name": "notifyStakesChanged",
      "outputs": [],
      "stateMutability": "nonpayable",
      "type": "function"
    },
    {
      "inputs": [],
      "name": "owner",
      "outputs": [
        {
          "internalType": "address",
          "name": "",
          "type": "address"
        }
      ],
      "stateMutability": "view",
      "type": "function"
    },
    {
      "inputs": [],
      "name": "parameters",
      "outputs": [
        {
          "internalType": "uint256",
          "name": "",
          "type": "uint256"
        },
        {
          "internalType": "uint256",
          "name": "",
          "type": "uint256"
        },
        {
          "internalType": "address",
          "name": "",
          "type": "address"
        },
        {
          "internalType": "address",
          "name": "",
          "type": "address"
        }
      ],
      "stateMutability": "view",
      "type": "function"
    },
    {
      "inputs": [],
      "name": "poolOwner",
      "outputs": [
        {
          "internalType": "address",
          "name": "",
          "type": "address"
        }
      ],
      "stateMutability": "view",
      "type": "function"
    },
    {
      "inputs": [],
      "name": "referralFeeReceiver",
      "outputs": [
        {
          "internalType": "address",
          "name": "",
          "type": "address"
        }
      ],
      "stateMutability": "view",
      "type": "function"
    },
    {
      "inputs": [],
      "name": "referralShare",
      "outputs": [
        {
          "internalType": "uint256",
          "name": "",
          "type": "uint256"
        }
      ],
      "stateMutability": "view",
      "type": "function"
    },
    {
      "inputs": [
        {
          "internalType": "uint256",
          "name": "vote",
          "type": "uint256"
        }
      ],
      "name": "referralShareVote",
      "outputs": [],
      "stateMutability": "nonpayable",
      "type": "function"
    },
    {
      "inputs": [
        {
          "internalType": "address",
          "name": "user",
          "type": "address"
        }
      ],
      "name": "referralShareVotes",
      "outputs": [
        {
          "internalType": "uint256",
          "name": "",
          "type": "uint256"
        }
      ],
      "stateMutability": "view",
      "type": "function"
    },
    {
      "inputs": [],
      "name": "renounceOwnership",
      "outputs": [],
      "stateMutability": "nonpayable",
      "type": "function"
    },
    {
      "inputs": [
        {
          "internalType": "address",
          "name": "newGovernanceFeeReceiver",
          "type": "address"
        }
      ],
      "name": "setGovernanceFeeReceiver",
      "outputs": [],
      "stateMutability": "nonpayable",
      "type": "function"
    },
    {
      "inputs": [
        {
          "internalType": "address",
          "name": "newReferralFeeReceiver",
          "type": "address"
        }
      ],
      "name": "setReferralFeeReceiver",
      "outputs": [],
      "stateMutability": "nonpayable",
      "type": "function"
    },
    {
      "inputs": [],
      "name": "totalSupply",
      "outputs": [
        {
          "internalType": "uint256",
          "name": "",
          "type": "uint256"
        }
      ],
      "stateMutability": "view",
      "type": "function"
    },
    {
      "inputs": [
        {
          "internalType": "address",
          "name": "newOwner",
          "type": "address"
        }
      ],
      "name": "transferOwnership",
      "outputs": [],
      "stateMutability": "nonpayable",
      "type": "function"
    },
    {
      "inputs": [],
      "name": "getAllPools",
      "outputs": [
        {
          "internalType": "contract Mooniswap[]",
          "name": "",
          "type": "address[]"
        }
      ],
      "stateMutability": "view",
      "type": "function"
    },
    {
      "inputs": [
        {
          "internalType": "contract IERC20",
          "name": "tokenA",
          "type": "address"
        },
        {
          "internalType": "contract IERC20",
          "name": "tokenB",
          "type": "address"
        }
      ],
      "name": "pools",
      "outputs": [
        {
          "internalType": "contract Mooniswap",
          "name": "pool",
          "type": "address"
        }
      ],
      "stateMutability": "view",
      "type": "function"
    },
    {
      "inputs": [
        {
          "internalType": "contract IERC20",
          "name": "tokenA",
          "type": "address"
        },
        {
          "internalType": "contract IERC20",
          "name": "tokenB",
          "type": "address"
        }
      ],
      "name": "deploy",
      "outputs": [
        {
          "internalType": "contract Mooniswap",
          "name": "pool",
          "type": "address"
        }
      ],
      "stateMutability": "nonpayable",
      "type": "function"
    },
    {
      "inputs": [
        {
          "internalType": "contract IERC20",
          "name": "tokenA",
          "type": "address"
        },
        {
          "internalType": "contract IERC20",
          "name": "tokenB",
          "type": "address"
        }
      ],
      "name": "sortTokens",
      "outputs": [
        {
          "internalType": "contract IERC20",
          "name": "",
          "type": "address"
        },
        {
          "internalType": "contract IERC20",
          "name": "",
          "type": "address"
        }
      ],
      "stateMutability": "pure",
      "type": "function"
    }
  ],
  "bytecode": "0x60e06040523480156200001157600080fd5b506040516200320338038062003203833981810160405260608110156200003757600080fd5b50805160208201516040909201516001600160601b0319606082901b166080529091908060006200006762000128565b600280546001600160a01b0319166001600160a01b038316908117909155604051919250906000907f8be0079c531659141344cd1fd0a4f28419497f9722a3daafe3b4186f6b6457e0908290a3505060038054600160681b600160d01b031990811690915560078054821664b1a2bc2ec560791b179055600b80548216604b606a1b179055600f8054821664b1a2bc2ec560781b17905560138054909116905550606091821b6001600160601b031990811660c052911b1660a0526200012c565b3390565b60805160601c60a05160601c60c05160601c61308d62000176600039806110ef5280611a73525080610e8a528061196a525080610a405280610c135280611851525061308d6000f3fe608060405234801561001057600080fd5b50600436106102d35760003560e01c80638555593411610186578063c5d5185a116100e3578063e1ea255411610097578063f2fde38b11610071578063f2fde38b146107b8578063f3830335146107de578063fb20b7d0146107e6576102d3565b8063e1ea25541461078b578063e859e56c14610793578063e9f7e17b1461079b576102d3565b8063cf0b2270116100c8578063cf0b22701461070e578063d88ff1f414610716578063d8f4e0eb1461076e576102d3565b8063c5d5185a146106e0578063c7feefe814610706576102d3565b8063901754d71161013a57806399fca7d91161011f57806399fca7d9146105f0578063ad33334814610616578063b0cb4b0a146106d8576102d3565b8063901754d7146105a55780639725ff35146105d3576102d3565b8063890357301161016b578063890357301461055e5780638d424127146105955780638da5cb5b1461059d576102d3565b80638555593414610530578063865e457314610538576102d3565b806341d1de97116102345780635b16ebb7116101e857806370a08231116101cd57806370a08231146104dc578063715018a6146105025780637c4423a81461050a576102d3565b80635b16ebb71461049a578063612a9f76146104d4576102d3565b8063544caa5611610219578063544caa5614610407578063545e7c61146104645780635a6c72d014610492576102d3565b806341d1de97146103c457806346398144146103e1576102d3565b806323662bb91161028b5780632ba653ec116102705780632ba653ec1461037b5780633eed75c3146103985780634187b7d6146103a0576102d3565b806323662bb91461034757806327a274331461034f576102d3565b8063151359b4116102bc578063151359b41461032f57806318160ddd146103375780631845f0db1461033f576102d3565b8063117036d1146102d857806314fd235a14610310575b600080fd5b6102fe600480360360208110156102ee57600080fd5b50356001600160a01b031661080c565b60408051918252519081900360200190f35b61032d6004803603602081101561032657600080fd5b503561084b565b005b61032d6108fa565b6102fe61094a565b6102fe610950565b6102fe6109c5565b61032d6004803603604081101561036557600080fd5b506001600160a01b038135169060200135610a35565b61032d6004803603602081101561039157600080fd5b5035610ac0565b61032d610bbd565b6103a8610c11565b604080516001600160a01b039092168252519081900360200190f35b6103a8600480360360208110156103da57600080fd5b5035610c35565b61032d600480360360208110156103f757600080fd5b50356001600160a01b0316610c5c565b6104356004803603604081101561041d57600080fd5b506001600160a01b0381358116916020013516610d32565b60405180836001600160a01b03168152602001826001600160a01b031681526020019250505060405180910390f35b6103a86004803603604081101561047a57600080fd5b506001600160a01b0381358116916020013516610d66565b6102fe611362565b6104c0600480360360208110156104b057600080fd5b50356001600160a01b03166113d2565b604080519115158252519081900360200190f35b61032d6113e7565b6102fe600480360360208110156104f257600080fd5b50356001600160a01b0316611413565b61032d61142e565b6102fe6004803603602081101561052057600080fd5b50356001600160a01b03166114fa565b61032d61152c565b6102fe6004803603602081101561054e57600080fd5b50356001600160a01b0316611558565b610566611588565b6040805194855260208501939093526001600160a01b0391821684840152166060830152519081900360800190f35b61032d61168c565b6103a86116e1565b6103a8600480360360408110156105bb57600080fd5b506001600160a01b03813581169160200135166116f0565b61032d600480360360208110156105e957600080fd5b5035611731565b6102fe6004803603602081101561060657600080fd5b50356001600160a01b0316611816565b61032d6004803603604081101561062c57600080fd5b81019060208101813564010000000081111561064757600080fd5b82018360208201111561065957600080fd5b8035906020019184602083028401116401000000008311171561067b57600080fd5b91939092909160208101903564010000000081111561069957600080fd5b8201836020820111156106ab57600080fd5b803590602001918460208302840111640100000000831117156106cd57600080fd5b509092509050611846565b6103a8611968565b61032d600480360360208110156106f657600080fd5b50356001600160a01b031661198c565b6103a8611a62565b6103a8611a71565b61071e611a95565b60408051602080825283518183015283519192839290830191858101910280838360005b8381101561075a578181015183820152602001610742565b505050509050019250505060405180910390f35b61032d6004803603602081101561078457600080fd5b5035611af7565b6103a8611b81565b6102fe611b90565b61032d600480360360208110156107b157600080fd5b5035611c00565b61032d600480360360208110156107ce57600080fd5b50356001600160a01b0316611c8a565b6102fe611dad565b6102fe600480360360208110156107fc57600080fd5b50356001600160a01b0316611e1d565b6001600160a01b038116600090815260126020908152604080832081519283019091525481526108439066b1a2bc2ec50000611e51565b90505b919050565b6703782dace9d900008111156108a8576040805162461bcd60e51b815260206004820152601a60248201527f476f7620736861726520766f746520697320746f6f2068696768000000000000604482015290519081900360640190fd5b336000818152601660209081526040918290208251918201909252905481526108f791906108d584611e8b565b6108de33611413565b6108e661094a565b601394939291906000611eaa611efd565b50565b336000818152600660209081526040918290208251918201909252905481526109489190610926611f18565b61092f33611413565b61093761094a565b600394939291906000611f33611efd565b565b60005490565b60408051606081018252600b546cffffffffffffffffffffffffff80821683526d010000000000000000000000000082041660208301527a010000000000000000000000000000000000000000000000000000900465ffffffffffff16918101919091526000906109c090611f86565b905090565b604080516060810182526007546cffffffffffffffffffffffffff80821683526d010000000000000000000000000082041660208301527a010000000000000000000000000000000000000000000000000000900465ffffffffffff16918101919091526000906109c090611f86565b336001600160a01b037f00000000000000000000000000000000000000000000000000000000000000001614610ab2576040805162461bcd60e51b815260206004820152601f60248201527f416363657373207265737472696374656420746f206d6f746865727368697000604482015290519081900360640190fd5b610abc8282612026565b5050565b610e10811115610b17576040805162461bcd60e51b815260206004820152601d60248201527f446563617920706572696f6420766f746520697320746f6f2068696768000000604482015290519081900360640190fd5b600f811015610b6d576040805162461bcd60e51b815260206004820152601c60248201527f446563617920706572696f6420766f746520697320746f6f206c6f7700000000604482015290519081900360640190fd5b336000818152600e60209081526040918290208251918201909252905481526108f79190610b9a84611e8b565b610ba333611413565b610bab61094a565b600b949392919061012c6121ca611efd565b336000818152601260209081526040918290208251918201909252905481526109489190610be9611f18565b610bf233611413565b610bfa61094a565b600f949392919066b1a2bc2ec5000061221d611efd565b7f000000000000000000000000000000000000000000000000000000000000000081565b60198181548110610c4257fe5b6000918252602090912001546001600160a01b0316905081565b610c64612270565b6002546001600160a01b03908116911614610cc6576040805162461bcd60e51b815260206004820181905260248201527f4f776e61626c653a2063616c6c6572206973206e6f7420746865206f776e6572604482015290519081900360640190fd5b601780546001600160a01b0383167fffffffffffffffffffffffff0000000000000000000000000000000000000000909116811790915560408051918252517f9870f2a0fa9bb3dac123818f30cafb067298f95c91b95615af8af970e0d4d6a39181900360200190a150565b600080826001600160a01b0316846001600160a01b03161015610d59575082905081610d5f565b50819050825b9250929050565b6000816001600160a01b0316836001600160a01b03161415610dcf576040805162461bcd60e51b815260206004820181905260248201527f466163746f72793a206e6f7420737570706f72742073616d6520746f6b656e73604482015290519081900360640190fd5b600080610ddc8585610d32565b6001600160a01b038083166000908152601b6020908152604080832084861684529091529020549294509092501615610e5c576040805162461bcd60e51b815260206004820152601c60248201527f466163746f72793a20706f6f6c20616c72656164792065786973747300000000604482015290519081900360640190fd5b6060610e70836001600160a01b0316612274565b90506060610e86836001600160a01b0316612274565b90507f00000000000000000000000000000000000000000000000000000000000000006001600160a01b031663b92440b08585858560405160200180807f4d6f6f6e69737761702056322028000000000000000000000000000000000000815250600e0183805190602001908083835b60208310610f155780518252601f199092019160209182019101610ef6565b6001836020036101000a038019825116818451168082178552505050505050905001807f2d0000000000000000000000000000000000000000000000000000000000000081525060010182805190602001908083835b60208310610f8a5780518252601f199092019160209182019101610f6b565b6001836020036101000a038019825116818451168082178552505050505050905001807f290000000000000000000000000000000000000000000000000000000000000081525060010192505050604051602081830303815290604052868660405160200180807f4d4f4f4e2d56322d00000000000000000000000000000000000000000000000081525060080183805190602001908083835b602083106110435780518252601f199092019160209182019101611024565b6001836020036101000a038019825116818451168082178552505050505050905001807f2d0000000000000000000000000000000000000000000000000000000000000081525060010182805190602001908083835b602083106110b85780518252601f199092019160209182019101611099565b6001836020036101000a038019825116818451168082178552505050505050905001925050506040516020818303038152906040527f00000000000000000000000000000000000000000000000000000000000000006040518663ffffffff1660e01b815260040180866001600160a01b03168152602001856001600160a01b031681526020018060200180602001846001600160a01b03168152602001838103835286818151815260200191508051906020019080838360005b8381101561118b578181015183820152602001611173565b50505050905090810190601f1680156111b85780820380516001836020036101000a031916815260200191505b50838103825285518152855160209182019187019080838360005b838110156111eb5781810151838201526020016111d3565b50505050905090810190601f1680156112185780820380516001836020036101000a031916815260200191505b50975050505050505050602060405180830381600087803b15801561123c57600080fd5b505af1158015611250573d6000803e3d6000fd5b505050506040513d602081101561126657600080fd5b50516001600160a01b038086166000818152601b6020908152604080832089861680855290835281842080549688167fffffffffffffffffffffffff000000000000000000000000000000000000000097881681179091556019805460018181019092557f944998273e477b495144fb8794c914197f3ccb46be2900f4698fd0ef743c96950180549098168217909755808552601a90935281842080547fffffffffffffffffffffffffffffffffffffffffffffffffffffffffffffff00169096179095555194995092939192917fc95935a66d15e0da5e412aca0ad27ae891d20b2fb91cf3994b6a3bf2b81780829190a45050505092915050565b604080516060810182526003546cffffffffffffffffffffffffff80821683526d010000000000000000000000000082041660208301527a010000000000000000000000000000000000000000000000000000900465ffffffffffff16918101919091526000906109c090611f86565b601a6020526000908152604090205460ff1681565b3360008181526016602090815260409182902082519182019092529054815261094891906108d5611f18565b6001600160a01b031660009081526001602052604090205490565b611436612270565b6002546001600160a01b03908116911614611498576040805162461bcd60e51b815260206004820181905260248201527f4f776e61626c653a2063616c6c6572206973206e6f7420746865206f776e6572604482015290519081900360640190fd5b6002546040516000916001600160a01b0316907f8be0079c531659141344cd1fd0a4f28419497f9722a3daafe3b4186f6b6457e0908390a3600280547fffffffffffffffffffffffff0000000000000000000000000000000000000000169055565b6001600160a01b0381166000908152600e6020908152604080832081519283019091525481526108439061012c611e51565b336000818152600e60209081526040918290208251918201909252905481526109489190610b9a611f18565b6001600160a01b038116600090815260166020908152604080832081519283019091525481526108439082611e51565b60408051606081018252600f546cffffffffffffffffffffffffff80821683526d010000000000000000000000000082041660208301527a010000000000000000000000000000000000000000000000000000900465ffffffffffff16918101919091526000908190819081906115fe90611f86565b604080516060810182526013546cffffffffffffffffffffffffff80821683526d010000000000000000000000000082041660208301527a010000000000000000000000000000000000000000000000000000900465ffffffffffff169181019190915261166b90611f86565b60175460185492979196506001600160a01b03908116955090911692509050565b336000818152600a602090815260409182902082519182019092529054815261094891906116b8611f18565b6116c133611413565b6116c961094a565b6007949392919067016345785d8a0000612767611efd565b6002546001600160a01b031690565b60008060006116ff8585610d32565b6001600160a01b039182166000908152601b602090815260408083209385168352929052205416925050505b92915050565b6703782dace9d9000081111561178e576040805162461bcd60e51b815260206004820152601f60248201527f526566657272616c20736861726520766f746520697320746f6f206869676800604482015290519081900360640190fd5b655af3107a40008110156117e9576040805162461bcd60e51b815260206004820152601e60248201527f526566657272616c20736861726520766f746520697320746f6f206c6f770000604482015290519081900360640190fd5b336000818152601260209081526040918290208251918201909252905481526108f79190610be984611e8b565b6001600160a01b038116600090815260066020908152604080832081519283019091525481526108439082611e51565b336001600160a01b037f000000000000000000000000000000000000000000000000000000000000000016146118c3576040805162461bcd60e51b815260206004820152601f60248201527f416363657373207265737472696374656420746f206d6f746865727368697000604482015290519081900360640190fd5b828114611917576040805162461bcd60e51b815260206004820152601d60248201527f417272617973206c656e6774682073686f756c6420626520657175616c000000604482015290519081900360640190fd5b60005b838110156119615761195985858381811061193157fe5b905060200201356001600160a01b031684848481811061194d57fe5b90506020020135612026565b60010161191a565b5050505050565b7f000000000000000000000000000000000000000000000000000000000000000081565b611994612270565b6002546001600160a01b039081169116146119f6576040805162461bcd60e51b815260206004820181905260248201527f4f776e61626c653a2063616c6c6572206973206e6f7420746865206f776e6572604482015290519081900360640190fd5b601880546001600160a01b0383167fffffffffffffffffffffffff0000000000000000000000000000000000000000909116811790915560408051918252517f538574f3b86945605ea4352f9e2f4b7e0627ed519e932c9c418c5e7507c4494d9181900360200190a150565b6018546001600160a01b031681565b7f000000000000000000000000000000000000000000000000000000000000000081565b60606019805480602002602001604051908101604052809291908181526020018280548015611aed57602002820191906000526020600020905b81546001600160a01b03168152600190910190602001808311611acf575b5050505050905090565b67016345785d8a0000811115611b54576040805162461bcd60e51b815260206004820152601460248201527f46656520766f746520697320746f6f2068696768000000000000000000000000604482015290519081900360640190fd5b336000818152600660209081526040918290208251918201909252905481526108f7919061092684611e8b565b6017546001600160a01b031681565b60408051606081018252600f546cffffffffffffffffffffffffff80821683526d010000000000000000000000000082041660208301527a010000000000000000000000000000000000000000000000000000900465ffffffffffff16918101919091526000906109c090611f86565b670de0b6b3a7640000811115611c5d576040805162461bcd60e51b815260206004820152601d60248201527f536c6970706167652066656520766f746520697320746f6f2068696768000000604482015290519081900360640190fd5b336000818152600a60209081526040918290208251918201909252905481526108f791906116b884611e8b565b611c92612270565b6002546001600160a01b03908116911614611cf4576040805162461bcd60e51b815260206004820181905260248201527f4f776e61626c653a2063616c6c6572206973206e6f7420746865206f776e6572604482015290519081900360640190fd5b6001600160a01b038116611d395760405162461bcd60e51b81526004018080602001828103825260268152602001806130116026913960400191505060405180910390fd5b6002546040516001600160a01b038084169216907f8be0079c531659141344cd1fd0a4f28419497f9722a3daafe3b4186f6b6457e090600090a3600280547fffffffffffffffffffffffff0000000000000000000000000000000000000000166001600160a01b0392909216919091179055565b604080516060810182526013546cffffffffffffffffffffffffff80821683526d010000000000000000000000000082041660208301527a010000000000000000000000000000000000000000000000000000900465ffffffffffff16918101919091526000906109c090611f86565b6001600160a01b0381166000908152600a6020908152604080832081519283019091525481526108439067016345785d8a00005b815160009015611e85575081517fffffffffffffffffffffffffffffffffffffffffffffffffffffffffffffffff0161172b565b50919050565b611e93612fdd565b506040805160208101909152600182018152919050565b60408051848152831515602082015280820183905290516001600160a01b038616917f02540a8a88261967ef1c1a4ed50fde9f0a0a493922c069129e21961198e1b439919081900360600190a250505050565b611f0e8888888888898989896127ba565b5050505050505050565b611f20612fdd565b5060408051602081019091526000815290565b60408051848152831515602082015280820183905290516001600160a01b038616917f28eed64d01e23014333abef902958309592b3cf9ce9da390f224467cfcaaf5b2919081900360600190a250505050565b600080611fb462015180611faf856040015165ffffffffffff1642612a3190919063ffffffff16565b612a7a565b90506000611fc56201518083612a31565b905061201e62015180612018611ff78588602001516cffffffffffffffffffffffffff16612a9090919063ffffffff16565b8751612012906cffffffffffffffffffffffffff1686612a90565b90612ae9565b90612b43565b949350505050565b600061203183611413565b9050808211156120535761204e836120498484612a31565b612b85565b612074565b8082101561206e5761204e836120698385612a31565b612bd7565b50610abc565b600061207e61094a565b6001600160a01b038516600090815260066020908152604080832081519283019091525481529192506120bf91600391879190869088908790611f33612c60565b6001600160a01b0384166000908152600a602090815260409182902082519182019092529054815261210490600790869085878667016345785d8a0000612767612c60565b6001600160a01b0384166000908152600e602090815260409182902082519182019092529054815261214390600b90869085878661012c6121ca612c60565b6001600160a01b03841660009081526012602090815260409182902082519182019092529054815261218790600f90869085878666b1a2bc2ec5000061221d612c60565b6001600160a01b038416600090815260166020908152604080832081519283019091525481526121c4916013918791869088908790611eaa612c60565b50505050565b60408051848152831515602082015280820183905290516001600160a01b038616917f2d2d732aa884d37295a1b5995321d502ebc228d25e644eef0a435d4e5f245acd919081900360600190a250505050565b60408051848152831515602082015280820183905290516001600160a01b038616917ffa67c3ef5d30b2838a61d783cb71a076e17984d05840f2dfa1521135df49557b919081900360600190a250505050565b3390565b606061227f82612c84565b156122be575060408051808201909152600381527f45544800000000000000000000000000000000000000000000000000000000006020820152610846565b60408051600481526024810182526020810180517bffffffffffffffffffffffffffffffffffffffffffffffffffffffff167f95d89b4100000000000000000000000000000000000000000000000000000000178152915181516000936060936001600160a01b03881693614e2093919290918291908083835b602083106123575780518252601f199092019160209182019101612338565b6001836020036101000a0380198251168184511680821785525050505050509050019150506000604051808303818686fa925050503d80600081146123b8576040519150601f19603f3d011682016040523d82523d6000602084013e6123bd565b606091505b5091509150816124c55760408051600481526024810182526020810180517bffffffffffffffffffffffffffffffffffffffffffffffffffffffff167ff76f8d7800000000000000000000000000000000000000000000000000000000178152915181516001600160a01b03881693614e209392918291908083835b602083106124585780518252601f199092019160209182019101612439565b6001836020036101000a0380198251168184511680821785525050505050509050019150506000604051808303818686fa925050503d80600081146124b9576040519150601f19603f3d011682016040523d82523d6000602084013e6124be565b606091505b5090925090505b8180156124d457506060815110155b156125f3576000808280602001905160408110156124f157600080fd5b50805160209182015190935091508214801561250d5750600081115b801561251b57506101008111155b156125f05782806020019051602081101561253557600080fd5b810190808051604051939291908464010000000082111561255557600080fd5b90830190602082018581111561256a57600080fd5b825164010000000081118282018810171561258457600080fd5b82525081516020918201929091019080838360005b838110156125b1578181015183820152602001612599565b50505050905090810190601f1680156125de5780820380516001836020036101000a031916815260200191505b50604052505050945050505050610846565b50505b818015612601575080516020145b1561275e5760005b81518110801561264f5750602060f81b82828151811061262557fe5b01602001517fff000000000000000000000000000000000000000000000000000000000000001610155b80156126915750607e60f81b82828151811061266757fe5b01602001517fff000000000000000000000000000000000000000000000000000000000000001611155b1561269e57600101612609565b801561275c5760608167ffffffffffffffff811180156126bd57600080fd5b506040519080825280601f01601f1916602001820160405280156126e8576020820181803683370190505b50905060005b828110156127505783818151811061270257fe5b602001015160f81c60f81b82828151811061271957fe5b60200101907effffffffffffffffffffffffffffffffffffffffffffffffffffffffffffff1916908160001a9053506001016126ee565b50935061084692505050565b505b61201e84612c91565b60408051848152831515602082015280820183905290516001600160a01b038616917f214419d1bacc9564ca0fcf6552dad3ec0aa54c97de900de89dc202e6bbd9198a919081900360600190a250505050565b600189015460028a01548190806127cf612ff0565b50604080516060810182528e546cffffffffffffffffffffffffff80821683526d010000000000000000000000000082041660208301527a010000000000000000000000000000000000000000000000000000900465ffffffffffff169181019190915261283c8c612cc7565b156128525761284b828b612a31565b9150612873565b6128706128696128628e8a611e51565b8c90612a90565b8590612a31565b93505b61287c8b612cc7565b156128925761288b828a612ae9565b91506128b3565b6128b06128a96128a28d8a611e51565b8b90612a90565b8590612ae9565b93505b8484146128c25760018e018490555b8282146128d15760028e018290555b600088156128f6576128f1896120186128ea868c612a90565b8890612ae9565b6128f8565b875b905081602001516cffffffffffffffffffffffffff1681146129d25761291d82611f86565b8f547fffffffffffffffffffffffffffffffffffffff00000000000000000000000000166cffffffffffffffffffffffffff918216177fffffffffffff00000000000000000000000000ffffffffffffffffffffffffff166d0100000000000000000000000000918316919091021779ffffffffffffffffffffffffffffffffffffffffffffffffffff167a0100000000000000000000000000000000000000000000000000004265ffffffffffff1602178f555b506129dd8b8d612ccc565b612a00576001600160a01b038d16600090815260038f01602052604090208b5190555b612a218d612a0e8d8a611e51565b612a178e612cc7565b8c8a63ffffffff16565b5050505050505050505050505050565b6000612a7383836040518060400160405280601e81526020017f536166654d6174683a207375627472616374696f6e206f766572666c6f770000815250612cd3565b9392505050565b6000818310612a895781612a73565b5090919050565b600082612a9f5750600061172b565b82820282848281612aac57fe5b0414612a735760405162461bcd60e51b81526004018080602001828103825260218152602001806130376021913960400191505060405180910390fd5b600082820183811015612a73576040805162461bcd60e51b815260206004820152601b60248201527f536166654d6174683a206164646974696f6e206f766572666c6f770000000000604482015290519081900360640190fd5b6000612a7383836040518060400160405280601a81526020017f536166654d6174683a206469766973696f6e206279207a65726f000000000000815250612d6a565b600054612b929082612ae9565b60009081556001600160a01b038316815260016020526040902054612bb79082612ae9565b6001600160a01b0390921660009081526001602052604090209190915550565b604080518082018252601b81527f4275726e20616d6f756e7420657863656564732062616c616e636500000000006020808301919091526001600160a01b038516600090815260019091529190912054612c32918390612cd3565b6001600160a01b03831660009081526001602052604081209190915554612c599082612a31565b6000555050565b611f0e8888888715612c725789612c7a565b612c7a611f18565b89898989896127ba565b6001600160a01b03161590565b60606108438260405160200180826001600160a01b031660601b8152601401915050604051602081830303815290604052612dcf565b511590565b5190511490565b60008184841115612d625760405162461bcd60e51b81526004018080602001828103825283818151815260200191508051906020019080838360005b83811015612d27578181015183820152602001612d0f565b50505050905090810190601f168015612d545780820380516001836020036101000a031916815260200191505b509250505060405180910390fd5b505050900390565b60008183612db95760405162461bcd60e51b8152602060048201818152835160248401528351909283926044909101919085019080838360008315612d27578181015183820152602001612d0f565b506000838581612dc557fe5b0495945050505050565b606080825160020260020167ffffffffffffffff81118015612df057600080fd5b506040519080825280601f01601f191660200182016040528015612e1b576020820181803683370190505b5090507f300000000000000000000000000000000000000000000000000000000000000081600081518110612e4c57fe5b60200101907effffffffffffffffffffffffffffffffffffffffffffffffffffffffffffff1916908160001a9053507f780000000000000000000000000000000000000000000000000000000000000081600181518110612ea957fe5b60200101907effffffffffffffffffffffffffffffffffffffffffffffffffffffffffffff1916908160001a905350600260005b8451811015612fd45760006004868381518110612ef657fe5b602001015160f81c60f81b60f81c60ff16901c60ff1690506000868381518110612f1c57fe5b60209101015160f81c600f169050600a8204602702826030010160f81b858580600101965081518110612f4b57fe5b60200101907effffffffffffffffffffffffffffffffffffffffffffffffffffffffffffff1916908160001a905350600a8104602702816030010160f81b858580600101965081518110612f9b57fe5b60200101907effffffffffffffffffffffffffffffffffffffffffffffffffffffffffffff1916908160001a9053505050600101612edd565b50909392505050565b6040518060200160405280600081525090565b60408051606081018252600080825260208201819052918101919091529056fe4f776e61626c653a206e6577206f776e657220697320746865207a65726f2061646472657373536166654d6174683a206d756c7469706c69636174696f6e206f766572666c6f77a2646970667358221220191c562026facea4f5cdd583a28a4aa27dde80f50c839bd90b8890fa9b37a74164736f6c634300060c0033",
  "immutableReferences": {
    "1809": [
      {
        "length": 32,
        "start": 3722
      },
      {
        "length": 32,
        "start": 6506
      }
    ],
    "1811": [
      {
        "length": 32,
        "start": 4335
      },
      {
        "length": 32,
        "start": 6771
      }
    ],
    "3079": [
      {
        "length": 32,
        "start": 2624
      },
      {
        "length": 32,
        "start": 3091
      },
      {
        "length": 32,
        "start": 6225
      }
    ]
  },
  "source": "// SPDX-License-Identifier: MIT\n\npragma solidity ^0.6.0;\n\nimport \"./interfaces/IMooniswapDeployer.sol\";\nimport \"./interfaces/IMooniswapFactory.sol\";\nimport \"./libraries/UniERC20.sol\";\nimport \"./Mooniswap.sol\";\nimport \"./governance/MooniswapFactoryGovernance.sol\";\n\n\ncontract MooniswapFactory is IMooniswapFactory, MooniswapFactoryGovernance {\n    using UniERC20 for IERC20;\n\n    event Deployed(\n        address indexed mooniswap,\n        address indexed token1,\n        address indexed token2\n    );\n\n    IMooniswapDeployer public immutable mooniswapDeployer;\n    address public immutable poolOwner;\n    Mooniswap[] public allPools;\n    mapping(Mooniswap => bool) public isPool;\n    mapping(IERC20 => mapping(IERC20 => Mooniswap)) private _pools;\n\n    constructor (address _poolOwner, IMooniswapDeployer _mooniswapDeployer, address _governanceMothership) public MooniswapFactoryGovernance(_governanceMothership) {\n        poolOwner = _poolOwner;\n        mooniswapDeployer = _mooniswapDeployer;\n    }\n\n    function getAllPools() external view returns(Mooniswap[] memory) {\n        return allPools;\n    }\n\n    function pools(IERC20 tokenA, IERC20 tokenB) external view override returns (Mooniswap pool) {\n        (IERC20 token1, IERC20 token2) = sortTokens(tokenA, tokenB);\n        return _pools[token1][token2];\n    }\n\n    function deploy(IERC20 tokenA, IERC20 tokenB) public returns(Mooniswap pool) {\n        require(tokenA != tokenB, \"Factory: not support same tokens\");\n        (IERC20 token1, IERC20 token2) = sortTokens(tokenA, tokenB);\n        require(_pools[token1][token2] == Mooniswap(0), \"Factory: pool already exists\");\n\n        string memory symbol1 = token1.uniSymbol();\n        string memory symbol2 = token2.uniSymbol();\n\n        pool = mooniswapDeployer.deploy(\n            token1,\n            token2,\n            string(abi.encodePacked(\"Mooniswap V2 (\", symbol1, \"-\", symbol2, \")\")),\n            string(abi.encodePacked(\"MOON-V2-\", symbol1, \"-\", symbol2)),\n            poolOwner\n        );\n\n        _pools[token1][token2] = pool;\n        allPools.push(pool);\n        isPool[pool] = true;\n\n        emit Deployed(\n            address(pool),\n            address(token1),\n            address(token2)\n        );\n    }\n\n    function sortTokens(IERC20 tokenA, IERC20 tokenB) public pure returns(IERC20, IERC20) {\n        if (tokenA < tokenB) {\n            return (tokenA, tokenB);\n        }\n        return (tokenB, tokenA);\n    }\n}\n",
  "sourcePath": "/Users/zumzoom/Projects/1inch/mooniswap-v2/contracts/MooniswapFactory.sol",
  "compiler": {
    "name": "solc",
    "version": "0.6.12+commit.27d51765.Emscripten.clang"
  },
  "schemaVersion": "3.3.2",
  "updatedAt": "2020-12-10T10:45:22.126Z",
  "devdoc": {
    "kind": "dev",
    "methods": {
      "owner()": {
        "details": "Returns the address of the current owner."
      },
      "renounceOwnership()": {
        "details": "Leaves the contract without owner. It will not be possible to call `onlyOwner` functions anymore. Can only be called by the current owner. NOTE: Renouncing ownership will leave the contract without an owner, thereby removing any functionality that is only available to the owner."
      },
      "transferOwnership(address)": {
        "details": "Transfers ownership of the contract to a new account (`newOwner`). Can only be called by the current owner."
      }
    },
    "version": 1
  },
  "userdoc": {
    "kind": "user",
    "methods": {},
    "version": 1
  }
}