{
  "contractName": "ReferralFeeReceiver",
  "abi": [
    {
      "inputs": [
        {
          "internalType": "contract IERC20",
          "name": "_targetToken",
          "type": "address"
        }
      ],
      "stateMutability": "nonpayable",
      "type": "constructor"
    },
    {
      "inputs": [],
      "name": "targetToken",
      "outputs": [
        {
          "internalType": "contract IERC20",
          "name": "",
          "type": "address"
        }
      ],
      "stateMutability": "view",
      "type": "function"
    },
    {
      "inputs": [
        {
          "internalType": "contract IERC20",
          "name": "",
          "type": "address"
        }
      ],
      "name": "tokenInfo",
      "outputs": [
        {
          "internalType": "uint256",
          "name": "lastUnprocessedEpoch",
          "type": "uint256"
        },
        {
          "internalType": "uint256",
          "name": "currentEpoch",
          "type": "uint256"
        }
      ],
      "stateMutability": "view",
      "type": "function"
    },
    {
      "inputs": [
        {
          "internalType": "address",
          "name": "",
          "type": "address"
        }
      ],
      "name": "userInfo",
      "outputs": [
        {
          "internalType": "uint256",
          "name": "balance",
          "type": "uint256"
        }
      ],
      "stateMutability": "view",
      "type": "function"
    },
    {
      "inputs": [
        {
          "internalType": "address",
          "name": "referral",
          "type": "address"
        },
        {
          "internalType": "uint256",
          "name": "referralShare",
          "type": "uint256"
        }
      ],
      "name": "updateReward",
      "outputs": [],
      "stateMutability": "nonpayable",
      "type": "function"
    },
    {
      "inputs": [
        {
          "internalType": "contract Mooniswap",
          "name": "mooniswap",
          "type": "address"
        }
      ],
      "name": "freezeEpoch",
      "outputs": [],
      "stateMutability": "nonpayable",
      "type": "function"
    },
    {
      "inputs": [
        {
          "internalType": "contract Mooniswap",
          "name": "mooniswap",
          "type": "address"
        },
        {
          "internalType": "contract IERC20[]",
          "name": "path",
          "type": "address[]"
        }
      ],
      "name": "trade",
      "outputs": [],
      "stateMutability": "nonpayable",
      "type": "function"
    },
    {
      "inputs": [
        {
          "internalType": "contract Mooniswap[]",
          "name": "updates",
          "type": "address[]"
        }
      ],
      "name": "claim",
      "outputs": [],
      "stateMutability": "nonpayable",
      "type": "function"
    },
    {
      "inputs": [
        {
          "internalType": "contract Mooniswap",
          "name": "mooniswap",
          "type": "address"
        }
      ],
      "name": "claimCurrentEpoch",
      "outputs": [],
      "stateMutability": "nonpayable",
      "type": "function"
    },
    {
      "inputs": [
        {
          "internalType": "contract Mooniswap",
          "name": "mooniswap",
          "type": "address"
        }
      ],
      "name": "claimFrozenEpoch",
      "outputs": [],
      "stateMutability": "nonpayable",
      "type": "function"
    }
  ],
  "bytecode": "0x60a060405234801561001057600080fd5b50604051612a88380380612a888339818101604052602081101561003357600080fd5b5051606081901b6001600160601b0319166080526001600160a01b0316612a17610071600039806104f252806105705280611db55250612a176000f3fe608060405234801561001057600080fd5b50600436106100a35760003560e01c806371646f98116100765780639e96b2ce1161005b5780639e96b2ce14610221578063f3aafa8014610247578063f5dab711146102fa576100a3565b806371646f98146101d5578063946e1a62146101fb576100a3565b80631959a002146100a85780631a399125146100e0578063318d9e5d1461010e578063327107f7146101b1575b600080fd5b6100ce600480360360208110156100be57600080fd5b50356001600160a01b0316610339565b60408051918252519081900360200190f35b61010c600480360360408110156100f657600080fd5b506001600160a01b03813516906020013561034b565b005b61010c6004803603602081101561012457600080fd5b81019060208101813564010000000081111561013f57600080fd5b82018360208201111561015157600080fd5b8035906020019184602083028401116401000000008311171561017357600080fd5b91908080602002602001604051908101604052809392919081815260200183836020028082843760009201919091525092955061041e945050505050565b6101b961056e565b604080516001600160a01b039092168252519081900360200190f35b61010c600480360360208110156101eb57600080fd5b50356001600160a01b0316610592565b61010c6004803603602081101561021157600080fd5b50356001600160a01b0316610ace565b61010c6004803603602081101561023757600080fd5b50356001600160a01b0316610ea0565b61010c6004803603604081101561025d57600080fd5b6001600160a01b03823516919081019060408101602082013564010000000081111561028857600080fd5b82018360208201111561029a57600080fd5b803590602001918460208302840111640100000000831117156102bc57600080fd5b919080806020026020016040519081016040528093929190818152602001838360200280828437600092019190915250929550610fc1945050505050565b6103206004803603602081101561031057600080fd5b50356001600160a01b0316611339565b6040805192835260208301919091528051918290030190f35b60006020819052908152604090205481565b3360008181526001602090815260408083206001600160a01b03871684529183905282206004820154919290919061038584848488611355565b9050801561039c57825461039990826113f2565b83555b6001600160a01b038516600090815260018401602090815260408083208584529091529020546103cc90876113f2565b6001600160a01b03861660009081526001850160209081526040808320868452825280832093909355869052205461040490876113f2565b600092835260209490945250604090209190915550505050565b336000908152602081905260408120805490915b83518110156104a657600084828151811061044957fe5b6020908102919091018101516001600160a01b038116600090815260019092526040822060048101549193509161048283888487611355565b905080156104975761049486826113f2565b95505b50505050806001019050610432565b508015610569576000808355604080517fa9059cbb0000000000000000000000000000000000000000000000000000000081523360048201526024810184905290516001600160a01b037f0000000000000000000000000000000000000000000000000000000000000000169263a9059cbb92604480820193602093909283900390910190829087803b15801561053c57600080fd5b505af1158015610550573d6000803e3d6000fd5b505050506040513d602081101561056657600080fd5b50505b505050565b7f000000000000000000000000000000000000000000000000000000000000000081565b6001600160a01b03811660009081526001602081815260408084203385529184905290922060038301546004840154919290919081906105d39084906113f2565b14610625576040805162461bcd60e51b815260206004820152601760248201527f45706f636820616c72656164792066696e616c697a6564000000000000000000604482015290519081900360640190fd5b6001600160a01b03851660009081526002840160205260409020548214610693576040805162461bcd60e51b815260206004820152601c60248201527f45706f63682066756e63647320616c726561647920636c61696d656400000000604482015290519081900360640190fd5b6001600160a01b0385166000908152600284016020908152604080832084905560018601825280832085845282528083205491879052909120548115610ac5576001600160a01b038716600090815260018601602090815260408083208784529091528120556107038183611455565b6000858152602088905260408082209290925581517faa6ca80800000000000000000000000000000000000000000000000000000000815291516060926001600160a01b038b169263aa6ca80892600480840193829003018186803b15801561076b57600080fd5b505afa15801561077f573d6000803e3d6000fd5b505050506040513d6000823e601f3d9081017fffffffffffffffffffffffffffffffffffffffffffffffffffffffffffffffe016820160405260208110156107c657600080fd5b81019080805160405193929190846401000000008211156107e657600080fd5b9083019060208201858111156107fb57600080fd5b825186602082028301116401000000008211171561081857600080fd5b82525081516020918201928201910280838360005b8381101561084557818101518382015260200161082d565b5050505091909101604090815260008b815260028e0160205290812080549697509594509250610883915086905061087d8489611497565b906114f0565b9050801561092f576108958282611455565b8355835184906000906108a457fe5b60200260200101516001600160a01b031663a9059cbb33836040518363ffffffff1660e01b815260040180836001600160a01b0316815260200182815260200192505050602060405180830381600087803b15801561090257600080fd5b505af1158015610916573d6000803e3d6000fd5b505050506040513d602081101561092c57600080fd5b50505b5050600181015460006109468561087d8489611497565b905080156109f8576109588282611455565b83600101819055508360018151811061096d57fe5b60200260200101516001600160a01b031663a9059cbb33836040518363ffffffff1660e01b815260040180836001600160a01b0316815260200182815260200192505050602060405180830381600087803b1580156109cb57600080fd5b505af11580156109df573d6000803e3d6000fd5b505050506040513d60208110156109f557600080fd5b50505b505060028101546000610a0f8561087d8489611497565b90508015610ac057610a218282611455565b6002840155835184906001908110610a3557fe5b60200260200101516001600160a01b031663a9059cbb33836040518363ffffffff1660e01b815260040180836001600160a01b0316815260200182815260200192505050602060405180830381600087803b158015610a9357600080fd5b505af1158015610aa7573d6000803e3d6000fd5b505050506040513d6020811015610abd57600080fd5b50505b505050505b50505050505050565b80610ad881611532565b6001600160a01b0382166000908152600160205260409020600481015460038201548114610b4d576040805162461bcd60e51b815260206004820152601e60248201527f50726576696f75732065706f6368206973206e6f742066696e6c617a65640000604482015290519081900360640190fd5b610b588160016113f2565b6001600160a01b03851660008181526001602052604080822060049081019490945580517faa6ca808000000000000000000000000000000000000000000000000000000008152905160609463aa6ca808938382019390929190829003018186803b158015610bc657600080fd5b505afa158015610bda573d6000803e3d6000fd5b505050506040513d6000823e601f3d9081017fffffffffffffffffffffffffffffffffffffffffffffffffffffffffffffffe01682016040526020811015610c2157600080fd5b8101908080516040519392919084640100000000821115610c4157600080fd5b908301906020820185811115610c5657600080fd5b8251866020820283011164010000000082111715610c7357600080fd5b82525081516020918201928201910280838360005b83811015610ca0578181015183820152602001610c88565b5050505090500160405250505090506000610ce13083600081518110610cc257fe5b60200260200101516001600160a01b0316611bc790919063ffffffff16565b90506000610cf63084600181518110610cc257fe5b9050866001600160a01b0316635915d806886001600160a01b03166370a08231306040518263ffffffff1660e01b815260040180826001600160a01b0316815260200191505060206040518083038186803b158015610d5457600080fd5b505afa158015610d68573d6000803e3d6000fd5b505050506040513d6020811015610d7e57600080fd5b50516040805160008082526020820190925290506040518363ffffffff1660e01b81526004018083815260200180602001828103825283818151815260200191508051906020019060200280838360005b83811015610de7578181015183820152602001610dcf565b505050509050019350505050600060405180830381600087803b158015610e0d57600080fd5b505af1158015610e21573d6000803e3d6000fd5b505050506040518060600160405280610e4b84610e453088600081518110610cc257fe5b90611455565b8152602001610e6583610e453088600181518110610cc257fe5b815260006020918201819052958652600296870181526040958690208251815590820151600182015594015193909401929092555050505050565b6001600160a01b03811660008181526001602081815260408084203385528483528185206004820154968652938401835281852086865290925290922054919290918015610566576001600160a01b03851660009081526001840160209081526040808320858452825280832083905590869052902054610f219082611455565b6000838152602086815260408083209390935582517fa9059cbb0000000000000000000000000000000000000000000000000000000081523360048201526024810185905292516001600160a01b0389169363a9059cbb9360448083019493928390030190829087803b158015610f9757600080fd5b505af1158015610fab573d6000803e3d6000fd5b505050506040513d6020811015610ac557600080fd5b6001600160a01b0382166000908152600160208190526040909120600381015460048201549192909190610ff69083906113f2565b14611048576040805162461bcd60e51b815260206004820152601c60248201527f507265762065706f636820616c72656164792066696e616c697a656400000000604482015290519081900360640190fd5b600082600201600083815260200190815260200160002090506060856001600160a01b031663aa6ca8086040518163ffffffff1660e01b815260040160006040518083038186803b15801561109c57600080fd5b505afa1580156110b0573d6000803e3d6000fd5b505050506040513d6000823e601f3d9081017fffffffffffffffffffffffffffffffffffffffffffffffffffffffffffffffe016820160405260208110156110f757600080fd5b810190808051604051939291908464010000000082111561111757600080fd5b90830190602082018581111561112c57600080fd5b825186602082028301116401000000008211171561114957600080fd5b82525081516020918201928201910280838360005b8381101561117657818101518382015260200161115e565b50505050905001604052505050905060008160008151811061119457fe5b60200260200101516001600160a01b0316866000815181106111b257fe5b60200260200101516001600160a01b031614156111d15750815461126b565b816001815181106111de57fe5b60200260200101516001600160a01b0316866000815181106111fc57fe5b60200260200101516001600160a01b0316141561121e5750600182015461126b565b6040805162461bcd60e51b815260206004820152601360248201527f496e76616c696420666972737420746f6b656e00000000000000000000000000604482015290519081900360640190fd5b60006112778783611c68565b90506000611286888330611db1565b600286015490915061129890826113f2565b6002860155835184906000906112aa57fe5b60200260200101516001600160a01b0316886000815181106112c857fe5b60200260200101516001600160a01b031614156112f25784546112eb9083611455565b8555611307565b60018501546113019083611455565b60018601555b845415801561131857506001850154155b1561132e576113288660016113f2565b60038801555b505050505050505050565b6001602052600090815260409020600381015460049091015482565b6001600160a01b038116600090815260028401602052604081205460038601548110156113e957600081815260208781526040808320546001600160a01b03871684526001890183528184208585528352818420546002808c0190945291909320909101546113c9929161087d9190611497565b6001600160a01b0384166000908152600287016020526040902085905591505b50949350505050565b60008282018381101561144c576040805162461bcd60e51b815260206004820152601b60248201527f536166654d6174683a206164646974696f6e206f766572666c6f770000000000604482015290519081900360640190fd5b90505b92915050565b600061144c83836040518060400160405280601e81526020017f536166654d6174683a207375627472616374696f6e206f766572666c6f7700008152506123cc565b6000826114a65750600061144f565b828202828482816114b357fe5b041461144c5760405162461bcd60e51b81526004018080602001828103825260218152602001806129616021913960400191505060405180910390fd5b600061144c83836040518060400160405280601a81526020017f536166654d6174683a206469766973696f6e206279207a65726f000000000000815250612463565b6060816001600160a01b031663aa6ca8086040518163ffffffff1660e01b815260040160006040518083038186803b15801561156d57600080fd5b505afa158015611581573d6000803e3d6000fd5b505050506040513d6000823e601f3d9081017fffffffffffffffffffffffffffffffffffffffffffffffffffffffffffffffe016820160405260208110156115c857600080fd5b81019080805160405193929190846401000000008211156115e857600080fd5b9083019060208201858111156115fd57600080fd5b825186602082028301116401000000008211171561161a57600080fd5b82525081516020918201928201910280838360005b8381101561164757818101518382015260200161162f565b50505050905001604052505050905060008060008061166d8686600081518110610cc257fe5b905060006116828787600181518110610cc257fe5b90506000876001600160a01b03166348d67e1b6040518163ffffffff1660e01b815260040160206040518083038186803b1580156116bf57600080fd5b505afa1580156116d3573d6000803e3d6000fd5b505050506040513d60208110156116e957600080fd5b5051875190915060009081906001600160a01b038b1690636edc2c09908b90849061171057fe5b60200260200101516040518263ffffffff1660e01b815260040180826001600160a01b03168152602001915050604080518083038186803b15801561175457600080fd5b505afa158015611768573d6000803e3d6000fd5b505050506040513d604081101561177e57600080fd5b508051602091820151604080518082019091527affffffffffffffffffffffffffffffffffffffffffffffffffffff8316815264ffffffffff82169381019390935290935091506000906117dd906117d79086896124c8565b8761254c565b90508a6001600160a01b0316636edc2c098b6001815181106117fb57fe5b60200260200101516040518263ffffffff1660e01b815260040180826001600160a01b03168152602001915050604080518083038186803b15801561183f57600080fd5b505afa158015611853573d6000803e3d6000fd5b505050506040513d604081101561186957600080fd5b508051602091820151604080518082019091527affffffffffffffffffffffffffffffffffffffffffffffffffffff8316815264ffffffffff82169381019390935290945092506000906118c2906117d79087896124c8565b90508b6001600160a01b0316635ed9156d8c6000815181106118e057fe5b60200260200101516040518263ffffffff1660e01b815260040180826001600160a01b03168152602001915050604080518083038186803b15801561192457600080fd5b505afa158015611938573d6000803e3d6000fd5b505050506040513d604081101561194e57600080fd5b508051602091820151604080518082019091527affffffffffffffffffffffffffffffffffffffffffffffffffffff8316815264ffffffffff82169381019390935290955093506000906119ad906119a790888b6124c8565b89612563565b90508c6001600160a01b0316635ed9156d8d6001815181106119cb57fe5b60200260200101516040518263ffffffff1660e01b815260040180826001600160a01b03168152602001915050604080518083038186803b158015611a0f57600080fd5b505afa158015611a23573d6000803e3d6000fd5b505050506040513d6040811015611a3957600080fd5b508051602091820151604080518082019091527affffffffffffffffffffffffffffffffffffffffffffffffffffff8316815264ffffffffff8216938101939093529096509450600090611a92906119a790898b6124c8565b9050611aaa8261087d670de0b6b3a764000086611497565b9b50611ac28461087d670de0b6b3a764000084611497565b9a50611ada8961087d670de0b6b3a76400008b611497565b9950505050505050505050611b5f81611b59600a886001600160a01b031663ddca3f436040518163ffffffff1660e01b815260040160206040518083038186803b158015611b2757600080fd5b505afa158015611b3b573d6000803e3d6000fd5b505050506040513d6020811015611b5157600080fd5b505190611497565b90611497565b611b75670de0b6b3a7640000611b598686611455565b10610566576040805162461bcd60e51b815260206004820152601260248201527f53707265616420697320746f6f20686967680000000000000000000000000000604482015290519081900360640190fd5b6000611bd283612572565b15611be857506001600160a01b0381163161144f565b826001600160a01b03166370a08231836040518263ffffffff1660e01b815260040180826001600160a01b0316815260200191505060206040518083038186803b158015611c3557600080fd5b505afa158015611c49573d6000803e3d6000fd5b505050506040513d6020811015611c5f57600080fd5b5051905061144f565b81518190819060015b81811015611da8576000868281518110611c8757fe5b60200260200101519050611c9a81611532565b6000611cb4606461087d848b6001880381518110610cc257fe5b905084811015611cd257611ccc8561087d8884611497565b95508094505b83836002011015611d9e57816001600160a01b0316631e1401f8896001860381518110611cfb57fe5b60200260200101518a8660010181518110611d1257fe5b6020026020010151886040518463ffffffff1660e01b815260040180846001600160a01b03168152602001836001600160a01b03168152602001828152602001935050505060206040518083038186803b158015611d6f57600080fd5b505afa158015611d83573d6000803e3d6000fd5b505050506040513d6020811015611d9957600080fd5b505194505b5050600201611c71565b50505092915050565b60007f00000000000000000000000000000000000000000000000000000000000000006001600160a01b031684600186510381518110611ded57fe5b60200260200101516001600160a01b031614611e50576040805162461bcd60e51b815260206004820152601b60248201527f53686f756c64207377617020746f2074617267657420746f6b656e0000000000604482015290519081900360640190fd5b508251829060015b818160020110156120ce57611e8b866001830381518110611e7557fe5b60200260200101516001600160a01b0316612572565b15611f8f57858181518110611e9c57fe5b60200260200101516001600160a01b031663d5bcb9b584886001850381518110611ec257fe5b6020026020010151898560010181518110611ed957fe5b602090810291909101810151604080517fffffffff0000000000000000000000000000000000000000000000000000000060e088901b1681526001600160a01b03948516600482015293909116602484015260448301899052600060648401523060848401525160a48084019382900301818588803b158015611f5b57600080fd5b505af1158015611f6f573d6000803e3d6000fd5b50505050506040513d6020811015611f8657600080fd5b505192506120c6565b611fd6868281518110611f9e57fe5b602002602001015184886001850381518110611fb657fe5b60200260200101516001600160a01b031661257f9092919063ffffffff16565b858181518110611fe257fe5b60200260200101516001600160a01b031663d5bcb9b587600184038151811061200757fe5b602002602001015188846001018151811061201e57fe5b6020026020010151866000306040518663ffffffff1660e01b815260040180866001600160a01b03168152602001856001600160a01b03168152602001848152602001838152602001826001600160a01b0316815260200195505050505050602060405180830381600087803b15801561209757600080fd5b505af11580156120ab573d6000803e3d6000fd5b505050506040513d60208110156120c157600080fd5b505192505b600201611e58565b50600181111561232c576120ea856003830381518110611e7557fe5b156121f9578460028203815181106120fe57fe5b60200260200101516001600160a01b031663e331d0398387600385038151811061212457fe5b602002602001015188600186038151811061213b57fe5b602090810291909101810151604080517fffffffff0000000000000000000000000000000000000000000000000000000060e088901b1681526001600160a01b0394851660048201529184166024830152604482018990526000606483015230608483015292891660a4820152915160c48084019382900301818588803b1580156121c557600080fd5b505af11580156121d9573d6000803e3d6000fd5b50505050506040513d60208110156121f057600080fd5b50519150612327565b61222385600283038151811061220b57fe5b602002602001015183876003850381518110611fb657fe5b84600282038151811061223257fe5b60200260200101516001600160a01b031663e331d03986600384038151811061225757fe5b602002602001015187600185038151811061226e57fe5b602002602001015185600030896040518763ffffffff1660e01b815260040180876001600160a01b03168152602001866001600160a01b03168152602001858152602001848152602001836001600160a01b03168152602001826001600160a01b031681526020019650505050505050602060405180830381600087803b1580156122f857600080fd5b505af115801561230c573d6000803e3d6000fd5b505050506040513d602081101561232257600080fd5b505191505b6123c4565b8460008151811061233957fe5b60200260200101516001600160a01b031663a9059cbb84846040518363ffffffff1660e01b815260040180836001600160a01b0316815260200182815260200192505050602060405180830381600087803b15801561239757600080fd5b505af11580156123ab573d6000803e3d6000fd5b505050506040513d60208110156123c157600080fd5b50505b509392505050565b6000818484111561245b5760405162461bcd60e51b81526004018080602001828103825283818151815260200191508051906020019080838360005b83811015612420578181015183820152602001612408565b50505050905090810190601f16801561244d5780820380516001836020036101000a031916815260200191505b509250505060405180910390fd5b505050900390565b600081836124b25760405162461bcd60e51b8152602060048201818152835160248401528351909283926044909101919085019080838360008315612420578181015183820152602001612408565b5060008385816124be57fe5b0495945050505050565b6000806124f2846124ed876020015164ffffffffff164261145590919063ffffffff16565b612563565b905060006125008583611455565b90506125428561087d6125138786611497565b895161253c907affffffffffffffffffffffffffffffffffffffffffffffffffffff1686611497565b906113f2565b9695505050505050565b60008183101561255c578161144c565b5090919050565b600081831061255c578161144c565b6001600160a01b03161590565b80158061261e5750604080517fdd62ed3e0000000000000000000000000000000000000000000000000000000081523060048201526001600160a01b03848116602483015291519185169163dd62ed3e91604480820192602092909190829003018186803b1580156125f057600080fd5b505afa158015612604573d6000803e3d6000fd5b505050506040513d602081101561261a57600080fd5b5051155b6126595760405162461bcd60e51b81526004018080602001828103825260368152602001806129ac6036913960400191505060405180910390fd5b604080516001600160a01b038416602482015260448082018490528251808303909101815260649091019091526020810180517bffffffffffffffffffffffffffffffffffffffffffffffffffffffff167f095ea7b3000000000000000000000000000000000000000000000000000000001790526105699084906060612729826040518060400160405280602081526020017f5361666545524332303a206c6f772d6c6576656c2063616c6c206661696c6564815250856001600160a01b03166127859092919063ffffffff16565b8051909150156105695780806020019051602081101561274857600080fd5b50516105695760405162461bcd60e51b815260040180806020018281038252602a815260200180612982602a913960400191505060405180910390fd5b6060612794848460008561279c565b949350505050565b60606127a785612927565b6127f8576040805162461bcd60e51b815260206004820152601d60248201527f416464726573733a2063616c6c20746f206e6f6e2d636f6e7472616374000000604482015290519081900360640190fd5b60006060866001600160a01b031685876040518082805190602001908083835b6020831061285557805182527fffffffffffffffffffffffffffffffffffffffffffffffffffffffffffffffe09092019160209182019101612818565b6001836020036101000a03801982511681845116808217855250505050505090500191505060006040518083038185875af1925050503d80600081146128b7576040519150601f19603f3d011682016040523d82523d6000602084013e6128bc565b606091505b509150915081156128d05791506127949050565b8051156128e05780518082602001fd5b60405162461bcd60e51b8152602060048201818152865160248401528651879391928392604401919085019080838360008315612420578181015183820152602001612408565b6000813f7fc5d2460186f7233c927e7db2dcc703c0e500b653ca82273b7bfad8045d85a47081811480159061279457505015159291505056fe536166654d6174683a206d756c7469706c69636174696f6e206f766572666c6f775361666545524332303a204552433230206f7065726174696f6e20646964206e6f7420737563636565645361666545524332303a20617070726f76652066726f6d206e6f6e2d7a65726f20746f206e6f6e2d7a65726f20616c6c6f77616e6365a264697066735822122047ed88d346b3c4ad34e80a2f88effcfca07d034c2aa2ab21ebbf1b5fb744f24c64736f6c634300060c0033",
  "immutableReferences": {
    "6643": [
      {
        "length": 32,
        "start": 1266
      },
      {
        "length": 32,
        "start": 1392
      },
      {
        "length": 32,
        "start": 7605
      }
    ]
  },
  "source": "// SPDX-License-Identifier: MIT\n\npragma solidity ^0.6.0;\n\nimport \"./interfaces/IReferralFeeReceiver.sol\";\nimport \"./utils/Converter.sol\";\n\n\ncontract ReferralFeeReceiver is IReferralFeeReceiver, Converter {\n    struct UserInfo {\n        uint256 balance;\n        mapping(IERC20 => mapping(uint256 => uint256)) share;\n        mapping(IERC20 => uint256) lastUnprocessedEpoch;\n    }\n\n    struct EpochBalance {\n        uint256 token0Balance;\n        uint256 token1Balance;\n        uint256 inchBalance;\n    }\n\n    struct TokenInfo {\n        mapping(uint256 => uint256) totalSupply;\n        mapping(uint256 => uint256) amount;\n        mapping(uint256 => EpochBalance) epochBalance;\n        uint256 lastUnprocessedEpoch;\n        uint256 currentEpoch;\n    }\n\n    mapping(address => UserInfo) public userInfo;\n    mapping(IERC20 => TokenInfo) public tokenInfo;\n\n    // solhint-disable-next-line no-empty-blocks\n    constructor(IERC20 _targetToken) public Converter(_targetToken) {}\n\n    function updateReward(address referral, uint256 referralShare) external override {\n        Mooniswap mooniswap = Mooniswap(msg.sender);\n        TokenInfo storage _tokenInfo = tokenInfo[mooniswap];\n        UserInfo storage _userInfo = userInfo[referral];\n        uint256 currentEpoch = _tokenInfo.currentEpoch;\n        uint256 unclaimedTokens = _claimOldEpoch(_tokenInfo, _userInfo, currentEpoch, mooniswap);\n        if (unclaimedTokens > 0) {\n            _userInfo.balance = _userInfo.balance.add(unclaimedTokens);\n        }\n        _userInfo.share[mooniswap][currentEpoch] = _userInfo.share[mooniswap][currentEpoch].add(referralShare);\n        _tokenInfo.totalSupply[currentEpoch] = _tokenInfo.totalSupply[currentEpoch].add(referralShare);\n    }\n\n    function freezeEpoch(Mooniswap mooniswap) external validSpread(mooniswap) {\n        TokenInfo storage info = tokenInfo[mooniswap];\n        uint256 currentEpoch = info.currentEpoch;\n\n        require(info.lastUnprocessedEpoch == currentEpoch, \"Previous epoch is not finlazed\");\n\n        tokenInfo[mooniswap].currentEpoch = currentEpoch.add(1);\n\n        IERC20[] memory tokens = mooniswap.getTokens();\n        uint256 token0Balance = tokens[0].uniBalanceOf(address(this));\n        uint256 token1Balance = tokens[1].uniBalanceOf(address(this));\n\n        mooniswap.withdraw(mooniswap.balanceOf(address(this)), new uint256[](0));\n\n        info.epochBalance[currentEpoch] = EpochBalance({\n            token0Balance: tokens[0].uniBalanceOf(address(this)).sub(token0Balance),\n            token1Balance: tokens[1].uniBalanceOf(address(this)).sub(token1Balance),\n            inchBalance: 0\n        });\n    }\n\n    function trade(Mooniswap mooniswap, IERC20[] memory path) external {\n        TokenInfo storage info = tokenInfo[mooniswap];\n        uint256 lastUnprocessedEpoch = info.lastUnprocessedEpoch;\n        require(lastUnprocessedEpoch.add(1) == info.currentEpoch, \"Prev epoch already finalized\");\n\n        EpochBalance storage epochBalance = info.epochBalance[lastUnprocessedEpoch];\n\n        IERC20[] memory tokens = mooniswap.getTokens();\n        uint256 availableBalance;\n        if (path[0] == tokens[0]) {\n            availableBalance = epochBalance.token0Balance;\n        } else if (path[0] == tokens[1]) {\n            availableBalance = epochBalance.token1Balance;\n        } else {\n            revert(\"Invalid first token\");\n        }\n\n        uint256 amount = _maxAmountForSwap(path, availableBalance);\n        uint256 receivedAmount = _swap(path, amount, payable(address(this)));\n        epochBalance.inchBalance = epochBalance.inchBalance.add(receivedAmount);\n        if (path[0] == tokens[0]) {\n            epochBalance.token0Balance = epochBalance.token0Balance.sub(amount);\n        } else {\n            epochBalance.token1Balance = epochBalance.token1Balance.sub(amount);\n        }\n\n        if (epochBalance.token0Balance == 0 && epochBalance.token1Balance == 0) {\n            info.lastUnprocessedEpoch = lastUnprocessedEpoch.add(1);\n        }\n    }\n\n    function claim(Mooniswap[] memory updates) external {\n        UserInfo storage _userInfo = userInfo[msg.sender];\n        uint256 balance = _userInfo.balance;\n        for (uint256 i = 0; i < updates.length; ++ i) {\n            Mooniswap mooniswap = updates[i];\n            TokenInfo storage _tokenInfo = tokenInfo[mooniswap];\n            uint256 currentEpoch = _tokenInfo.currentEpoch;\n            uint256 unclaimedTokens = _claimOldEpoch(_tokenInfo, _userInfo, currentEpoch, mooniswap);\n            if (unclaimedTokens > 0) {\n                balance = balance.add(unclaimedTokens);\n            }\n        }\n        if (balance > 0) {\n            _userInfo.balance = 0;\n            targetToken.transfer(msg.sender, balance);\n        }\n    }\n\n    function claimCurrentEpoch(Mooniswap mooniswap) external {\n        TokenInfo storage _tokenInfo = tokenInfo[mooniswap];\n        UserInfo storage _userInfo = userInfo[msg.sender];\n        uint256 currentEpoch = _tokenInfo.currentEpoch;\n        uint256 balance = _userInfo.share[mooniswap][currentEpoch];\n        if (balance > 0) {\n            _userInfo.share[mooniswap][currentEpoch] = 0;\n            _tokenInfo.totalSupply[currentEpoch] = _tokenInfo.totalSupply[currentEpoch].sub(balance);\n            mooniswap.transfer(msg.sender, balance);\n        }\n    }\n\n    function claimFrozenEpoch(Mooniswap mooniswap) external {\n        TokenInfo storage _tokenInfo = tokenInfo[mooniswap];\n        UserInfo storage _userInfo = userInfo[msg.sender];\n        uint256 lastUnprocessedEpoch = _tokenInfo.lastUnprocessedEpoch;\n        uint256 currentEpoch = _tokenInfo.currentEpoch;\n\n        require(lastUnprocessedEpoch.add(1) == currentEpoch, \"Epoch already finalized\");\n        require(_userInfo.lastUnprocessedEpoch[mooniswap] == lastUnprocessedEpoch, \"Epoch funcds already claimed\");\n\n        _userInfo.lastUnprocessedEpoch[mooniswap] = currentEpoch;\n        uint256 share = _userInfo.share[mooniswap][lastUnprocessedEpoch];\n        uint256 totalSupply = _tokenInfo.totalSupply[lastUnprocessedEpoch];\n\n        if (share > 0) {\n            _userInfo.share[mooniswap][lastUnprocessedEpoch] = 0;\n            _tokenInfo.totalSupply[lastUnprocessedEpoch] = totalSupply.sub(share);\n\n            IERC20[] memory tokens = mooniswap.getTokens();\n            EpochBalance storage epochBalance = _tokenInfo.epochBalance[lastUnprocessedEpoch];\n            {\n                uint256 token0Balance = epochBalance.token0Balance;\n                uint256 token0Amount = token0Balance.mul(share).div(totalSupply);\n                if (token0Amount > 0) {\n                    epochBalance.token0Balance = token0Balance.sub(token0Amount);\n                    tokens[0].transfer(msg.sender, token0Amount);\n                }\n            }\n            {\n                uint256 token1Balance = epochBalance.token1Balance;\n                uint256 token1Amount = token1Balance.mul(share).div(totalSupply);\n                if (token1Amount > 0) {\n                    epochBalance.token1Balance = token1Balance.sub(token1Amount);\n                    tokens[1].transfer(msg.sender, token1Amount);\n                }\n            }\n            {\n                uint256 inchBalance = epochBalance.inchBalance;\n                uint256 inchAmount = inchBalance.mul(share).div(totalSupply);\n                if (inchAmount > 0) {\n                    epochBalance.inchBalance = inchBalance.sub(inchAmount);\n                    tokens[1].transfer(msg.sender, inchAmount);\n                }\n            }\n        }\n    }\n\n    function _claimOldEpoch(TokenInfo storage _tokenInfo, UserInfo storage _userInfo, uint256 currentEpoch, Mooniswap mooniswap) private returns (uint256 unclaimedTokens) {\n        uint256 lastUserEpoch = _userInfo.lastUnprocessedEpoch[mooniswap];\n        if (lastUserEpoch < _tokenInfo.lastUnprocessedEpoch) {\n            unclaimedTokens =\n                _tokenInfo.epochBalance[lastUserEpoch].inchBalance\n                .mul(_userInfo.share[mooniswap][lastUserEpoch])\n                .div(_tokenInfo.totalSupply[lastUserEpoch]);\n\n            _userInfo.lastUnprocessedEpoch[mooniswap] = currentEpoch;\n        }\n    }\n}\n",
  "sourcePath": "/Users/zumzoom/Projects/1inch/mooniswap-v2/contracts/ReferralFeeReceiver.sol",
  "compiler": {
    "name": "solc",
    "version": "0.6.12+commit.27d51765.Emscripten.clang"
  },
  "schemaVersion": "3.3.2",
  "updatedAt": "2020-11-30T14:06:38.031Z",
  "devdoc": {
    "kind": "dev",
    "methods": {},
    "version": 1
  },
  "userdoc": {
    "kind": "user",
    "methods": {},
    "version": 1
  }
}