{
  "contractName": "ReferralFeeReceiver",
  "abi": [
    {
      "inputs": [
        {
          "internalType": "contract IERC20",
          "name": "_inchToken",
          "type": "address"
        },
        {
          "internalType": "contract IMooniswapFactory",
          "name": "_mooniswapFactory",
          "type": "address"
        }
      ],
      "stateMutability": "nonpayable",
      "type": "constructor"
    },
    {
      "anonymous": false,
      "inputs": [
        {
          "indexed": true,
          "internalType": "address",
          "name": "previousOwner",
          "type": "address"
        },
        {
          "indexed": true,
          "internalType": "address",
          "name": "newOwner",
          "type": "address"
        }
      ],
      "name": "OwnershipTransferred",
      "type": "event"
    },
    {
      "inputs": [],
      "name": "inchToken",
      "outputs": [
        {
          "internalType": "contract IERC20",
          "name": "",
          "type": "address"
        }
      ],
      "stateMutability": "view",
      "type": "function"
    },
    {
      "inputs": [],
      "name": "mooniswapFactory",
      "outputs": [
        {
          "internalType": "contract IMooniswapFactory",
          "name": "",
          "type": "address"
        }
      ],
      "stateMutability": "view",
      "type": "function"
    },
    {
      "inputs": [],
      "name": "owner",
      "outputs": [
        {
          "internalType": "address",
          "name": "",
          "type": "address"
        }
      ],
      "stateMutability": "view",
      "type": "function"
    },
    {
      "inputs": [
        {
          "internalType": "contract IERC20",
          "name": "",
          "type": "address"
        }
      ],
      "name": "pathWhitelist",
      "outputs": [
        {
          "internalType": "bool",
          "name": "",
          "type": "bool"
        }
      ],
      "stateMutability": "view",
      "type": "function"
    },
    {
      "inputs": [],
      "name": "renounceOwnership",
      "outputs": [],
      "stateMutability": "nonpayable",
      "type": "function"
    },
    {
      "inputs": [
        {
          "internalType": "contract IERC20",
          "name": "",
          "type": "address"
        }
      ],
      "name": "tokenInfo",
      "outputs": [
        {
          "internalType": "uint256",
          "name": "firstUnprocessedEpoch",
          "type": "uint256"
        },
        {
          "internalType": "uint256",
          "name": "currentEpoch",
          "type": "uint256"
        }
      ],
      "stateMutability": "view",
      "type": "function"
    },
    {
      "inputs": [
        {
          "internalType": "address",
          "name": "newOwner",
          "type": "address"
        }
      ],
      "name": "transferOwnership",
      "outputs": [],
      "stateMutability": "nonpayable",
      "type": "function"
    },
    {
      "inputs": [
        {
          "internalType": "contract IERC20",
          "name": "token",
          "type": "address"
        },
        {
          "internalType": "bool",
          "name": "whitelisted",
          "type": "bool"
        }
      ],
      "name": "updatePathWhitelist",
      "outputs": [],
      "stateMutability": "nonpayable",
      "type": "function"
    },
    {
      "inputs": [
        {
          "internalType": "address",
          "name": "",
          "type": "address"
        }
      ],
      "name": "userInfo",
      "outputs": [
        {
          "internalType": "uint256",
          "name": "balance",
          "type": "uint256"
        }
      ],
      "stateMutability": "view",
      "type": "function"
    },
    {
      "stateMutability": "payable",
      "type": "receive"
    },
    {
      "inputs": [
        {
          "internalType": "address[]",
          "name": "receivers",
          "type": "address[]"
        },
        {
          "internalType": "uint256[]",
          "name": "amounts",
          "type": "uint256[]"
        }
      ],
      "name": "updateRewards",
      "outputs": [],
      "stateMutability": "nonpayable",
      "type": "function"
    },
    {
      "inputs": [
        {
          "internalType": "address",
          "name": "referral",
          "type": "address"
        },
        {
          "internalType": "uint256",
          "name": "amount",
          "type": "uint256"
        }
      ],
      "name": "updateReward",
      "outputs": [],
      "stateMutability": "nonpayable",
      "type": "function"
    },
    {
      "inputs": [
        {
          "internalType": "contract Mooniswap",
          "name": "mooniswap",
          "type": "address"
        }
      ],
      "name": "freezeEpoch",
      "outputs": [],
      "stateMutability": "nonpayable",
      "type": "function"
    },
    {
      "inputs": [
        {
          "internalType": "contract Mooniswap",
          "name": "mooniswap",
          "type": "address"
        },
        {
          "internalType": "contract IERC20[]",
          "name": "path",
          "type": "address[]"
        }
      ],
      "name": "trade",
      "outputs": [],
      "stateMutability": "nonpayable",
      "type": "function"
    },
    {
      "inputs": [
        {
          "internalType": "contract Mooniswap[]",
          "name": "pools",
          "type": "address[]"
        }
      ],
      "name": "claim",
      "outputs": [],
      "stateMutability": "nonpayable",
      "type": "function"
    },
    {
      "inputs": [
        {
          "internalType": "contract Mooniswap",
          "name": "mooniswap",
          "type": "address"
        }
      ],
      "name": "claimCurrentEpoch",
      "outputs": [],
      "stateMutability": "nonpayable",
      "type": "function"
    },
    {
      "inputs": [
        {
          "internalType": "contract Mooniswap",
          "name": "mooniswap",
          "type": "address"
        }
      ],
      "name": "claimFrozenEpoch",
      "outputs": [],
      "stateMutability": "nonpayable",
      "type": "function"
    }
  ],
  "bytecode": "0x60c06040523480156200001157600080fd5b506040516200376938038062003769833981810160405260408110156200003757600080fd5b508051602090910151818160006200004e620000be565b600080546001600160a01b0319166001600160a01b0383169081178255604051929350917f8be0079c531659141344cd1fd0a4f28419497f9722a3daafe3b4186f6b6457e0908290a3506001600160601b0319606092831b8116608052911b1660a05250506001600255620000c2565b3390565b60805160601c60a05160601c61364b6200011e600039806109a65280610d835280610e33528061134d52806116d75280611c7e52806127f45280612a5c5250806107da5280610d40528061151f528061183d525061364b6000f3fe6080604052600436106100f75760003560e01c80638da5cb5b1161008a578063f2fde38b11610059578063f2fde38b146104a5578063f3aafa80146104d8578063f583adbc14610598578063f5dab711146105d357610153565b80638da5cb5b14610415578063946e1a621461042a5780639e96b2ce1461045d578063ec9545941461049057610153565b80635e8c8bb7116100c65780635e8c8bb714610355578063715018a61461039c57806371646f98146103b157806385731140146103e457610153565b80630931753c146101585780631959a002146102275780631a3991251461026c578063318d9e5d146102a557610153565b366101535733321415610151576040805162461bcd60e51b815260206004820152601660248201527f455448207472616e7366657220666f7262696464656e00000000000000000000604482015290519081900360640190fd5b005b600080fd5b34801561016457600080fd5b506101516004803603604081101561017b57600080fd5b81019060208101813564010000000081111561019657600080fd5b8201836020820111156101a857600080fd5b803590602001918460208302840111640100000000831117156101ca57600080fd5b9193909290916020810190356401000000008111156101e857600080fd5b8201836020820111156101fa57600080fd5b8035906020019184602083028401116401000000008311171561021c57600080fd5b50909250905061061f565b34801561023357600080fd5b5061025a6004803603602081101561024a57600080fd5b50356001600160a01b0316610670565b60408051918252519081900360200190f35b34801561027857600080fd5b506101516004803603604081101561028f57600080fd5b506001600160a01b038135169060200135610682565b3480156102b157600080fd5b50610151600480360360208110156102c857600080fd5b8101906020810181356401000000008111156102e357600080fd5b8201836020820111156102f557600080fd5b8035906020019184602083028401116401000000008311171561031757600080fd5b91908080602002602001604051908101604052809392919081815260200183836020028082843760009201919091525092955061072b945050505050565b34801561036157600080fd5b506103886004803603602081101561037857600080fd5b50356001600160a01b0316610851565b604080519115158252519081900360200190f35b3480156103a857600080fd5b50610151610866565b3480156103bd57600080fd5b50610151600480360360208110156103d457600080fd5b50356001600160a01b0316610927565b3480156103f057600080fd5b506103f9610d81565b604080516001600160a01b039092168252519081900360200190f35b34801561042157600080fd5b506103f9610da5565b34801561043657600080fd5b506101516004803603602081101561044d57600080fd5b50356001600160a01b0316610db4565b34801561046957600080fd5b506101516004803603602081101561048057600080fd5b50356001600160a01b03166112ce565b34801561049c57600080fd5b506103f961151d565b3480156104b157600080fd5b50610151600480360360208110156104c857600080fd5b50356001600160a01b0316611541565b3480156104e457600080fd5b50610151600480360360408110156104fb57600080fd5b6001600160a01b03823516919081019060408101602082013564010000000081111561052657600080fd5b82018360208201111561053857600080fd5b8035906020019184602083028401116401000000008311171561055a57600080fd5b919080806020026020016040519081016040528093929190818152602001838360200280828437600092019190915250929550611658945050505050565b3480156105a457600080fd5b50610151600480360360408110156105bb57600080fd5b506001600160a01b0381351690602001351515611f11565b3480156105df57600080fd5b50610606600480360360208110156105f657600080fd5b50356001600160a01b0316611fa6565b6040805192835260208301919091528051918290030190f35b60005b838110156106695761066185858381811061063957fe5b905060200201356001600160a01b031684848481811061065557fe5b90506020020135610682565b600101610622565b5050505050565b60036020526000908152604090205481565b3360008181526004602090815260408083206001600160a01b038716845260038352818420600282015486865260018201855283862081875290945291909320549091906106d09086611fc2565b6001600160a01b0385166000908152600184016020908152604080832085845282528083209390935585905220546107089086611fc2565b60008281526020859052604090205561072382848684612025565b505050505050565b336000908152600360205260408120905b82518110156107a057600083828151811061075357fe5b60200260200101519050600060046000836001600160a01b03166001600160a01b0316815260200190815260200160002090506107968482848460020154612025565b505060010161073c565b508054600181111561084c57600182556040805163a9059cbb60e01b81523360048201526000198301602482015290516001600160a01b037f0000000000000000000000000000000000000000000000000000000000000000169163a9059cbb9160448083019260209291908290030181600087803b15801561082257600080fd5b505af1158015610836573d6000803e3d6000fd5b505050506040513d602081101561066957600080fd5b505050565b60016020526000908152604090205460ff1681565b61086e612170565b6000546001600160a01b039081169116146108d0576040805162461bcd60e51b815260206004820181905260248201527f4f776e61626c653a2063616c6c6572206973206e6f7420746865206f776e6572604482015290519081900360640190fd5b600080546040516001600160a01b03909116907f8be0079c531659141344cd1fd0a4f28419497f9722a3daafe3b4186f6b6457e0908390a36000805473ffffffffffffffffffffffffffffffffffffffff19169055565b60028054141561097e576040805162461bcd60e51b815260206004820152601f60248201527f5265656e7472616e637947756172643a207265656e7472616e742063616c6c00604482015290519081900360640190fd5b6002805560408051635b16ebb760e01b81526001600160a01b038084166004830152915183927f00000000000000000000000000000000000000000000000000000000000000001691635b16ebb7916024808301926020929190829003018186803b1580156109ec57600080fd5b505afa158015610a00573d6000803e3d6000fd5b505050506040513d6020811015610a1657600080fd5b5051610a5d576040805162461bcd60e51b81526020600482015260116024820152700496e76616c6964206d6f6f6e697377617607c1b604482015290519081900360640190fd5b6001600160a01b03821660009081526004602090815260408083203384526003909252909120600180830154600284015490918190610a9d908490611fc2565b14610aef576040805162461bcd60e51b815260206004820152601760248201527f45706f636820616c72656164792066696e616c697a6564000000000000000000604482015290519081900360640190fd5b6001600160a01b03861660009081526002840160205260409020548214610b5d576040805162461bcd60e51b815260206004820152601b60248201527f45706f63682066756e647320616c726561647920636c61696d65640000000000604482015290519081900360640190fd5b6001600160a01b038616600090815260028401602090815260408083208490556001860182528083208584529091529020548015610d735760008381526020868152604080832080546001600160a01b038c16855260018901845282852088865290935290832092909255610bd28184612174565b82600001819055506060896001600160a01b031663aa6ca8086040518163ffffffff1660e01b815260040160006040518083038186803b158015610c1557600080fd5b505afa158015610c29573d6000803e3d6000fd5b505050506040513d6000823e601f3d908101601f191682016040526020811015610c5257600080fd5b8101908080516040519392919084640100000000821115610c7257600080fd5b908301906020820185811115610c8757600080fd5b8251866020820283011164010000000082111715610ca457600080fd5b82525081516020918201928201910280838360005b83811015610cd1578181015183820152602001610cb9565b505050509050016040525050509050610d0481600081518110610cf057fe5b6020026020010151846001015486856121b6565b8360010181905550610d3081600181518110610d1c57fe5b6020026020010151846002015486856121b6565b60028401556003830154610d67907f00000000000000000000000000000000000000000000000000000000000000009086856121b6565b83600301819055505050505b505060016002555050505050565b7f000000000000000000000000000000000000000000000000000000000000000081565b6000546001600160a01b031690565b600280541415610e0b576040805162461bcd60e51b815260206004820152601f60248201527f5265656e7472616e637947756172643a207265656e7472616e742063616c6c00604482015290519081900360640190fd5b6002805560408051635b16ebb760e01b81526001600160a01b038084166004830152915183927f00000000000000000000000000000000000000000000000000000000000000001691635b16ebb7916024808301926020929190829003018186803b158015610e7957600080fd5b505afa158015610e8d573d6000803e3d6000fd5b505050506040513d6020811015610ea357600080fd5b5051610eea576040805162461bcd60e51b81526020600482015260116024820152700496e76616c6964206d6f6f6e697377617607c1b604482015290519081900360640190fd5b81610ef4816121ff565b610f3a576040805162461bcd60e51b81526020600482015260126024820152710a6e0e4cac2c840d2e640e8dede40d0d2ced60731b604482015290519081900360640190fd5b6001600160a01b0383166000908152600460205260409020600281015460018201548114610faf576040805162461bcd60e51b815260206004820152601f60248201527f50726576696f75732065706f6368206973206e6f742066696e616c697a656400604482015290519081900360640190fd5b6060856001600160a01b031663aa6ca8086040518163ffffffff1660e01b815260040160006040518083038186803b158015610fea57600080fd5b505afa158015610ffe573d6000803e3d6000fd5b505050506040513d6000823e601f3d908101601f19168201604052602081101561102757600080fd5b810190808051604051939291908464010000000082111561104757600080fd5b90830190602082018581111561105c57600080fd5b825186602082028301116401000000008211171561107957600080fd5b82525081516020918201928201910280838360005b838110156110a657818101518382015260200161108e565b50505050905001604052505050905060006110e730836000815181106110c857fe5b60200260200101516001600160a01b031661273b90919063ffffffff16565b905060006110fc30846001815181106110c857fe5b9050876001600160a01b0316635915d806896001600160a01b03166370a08231306040518263ffffffff1660e01b815260040180826001600160a01b0316815260200191505060206040518083038186803b15801561115a57600080fd5b505afa15801561116e573d6000803e3d6000fd5b505050506040513d602081101561118457600080fd5b50516040805160008082526020820190925290506040518363ffffffff1660e01b81526004018083815260200180602001828103825283818151815260200191508051906020019060200280838360005b838110156111ed5781810151838201526020016111d5565b5050505090500193505050506040805180830381600087803b15801561121257600080fd5b505af1158015611226573d6000803e3d6000fd5b505050506040513d601f19601f82011682018060405250604081101561124b57600080fd5b5050825161126c90839061126690309087906000906110c857fe5b90612174565b8560000160008681526020019081526020016000206001018190555061129d8161126630866001815181106110c857fe5b6000858152602087905260409020600201556112ba846001611fc2565b600295860155505060019092555050505050565b600280541415611325576040805162461bcd60e51b815260206004820152601f60248201527f5265656e7472616e637947756172643a207265656e7472616e742063616c6c00604482015290519081900360640190fd5b6002805560408051635b16ebb760e01b81526001600160a01b038084166004830152915183927f00000000000000000000000000000000000000000000000000000000000000001691635b16ebb7916024808301926020929190829003018186803b15801561139357600080fd5b505afa1580156113a7573d6000803e3d6000fd5b505050506040513d60208110156113bd57600080fd5b5051611404576040805162461bcd60e51b81526020600482015260116024820152700496e76616c6964206d6f6f6e697377617607c1b604482015290519081900360640190fd5b6001600160a01b0382166000818152600460209081526040808320338452600383528184206002820154958552600181018452828520868652909352922054919290918015611510576001600160a01b038616600090815260018401602090815260408083208584528252808320839055908690529020546114869082612174565b60008381526020868152604080832093909355825163a9059cbb60e01b81523360048201526024810185905292516001600160a01b038a169363a9059cbb9360448083019493928390030190829087803b1580156114e357600080fd5b505af11580156114f7573d6000803e3d6000fd5b505050506040513d602081101561150d57600080fd5b50505b5050600160025550505050565b7f000000000000000000000000000000000000000000000000000000000000000081565b611549612170565b6000546001600160a01b039081169116146115ab576040805162461bcd60e51b815260206004820181905260248201527f4f776e61626c653a2063616c6c6572206973206e6f7420746865206f776e6572604482015290519081900360640190fd5b6001600160a01b0381166115f05760405162461bcd60e51b815260040180806020018281038252602681526020018061356f6026913960400191505060405180910390fd5b600080546040516001600160a01b03808516939216917f8be0079c531659141344cd1fd0a4f28419497f9722a3daafe3b4186f6b6457e091a36000805473ffffffffffffffffffffffffffffffffffffffff19166001600160a01b0392909216919091179055565b6002805414156116af576040805162461bcd60e51b815260206004820152601f60248201527f5265656e7472616e637947756172643a207265656e7472616e742063616c6c00604482015290519081900360640190fd5b6002805560408051635b16ebb760e01b81526001600160a01b038085166004830152915184927f00000000000000000000000000000000000000000000000000000000000000001691635b16ebb7916024808301926020929190829003018186803b15801561171d57600080fd5b505afa158015611731573d6000803e3d6000fd5b505050506040513d602081101561174757600080fd5b505161178e576040805162461bcd60e51b81526020600482015260116024820152700496e76616c6964206d6f6f6e697377617607c1b604482015290519081900360640190fd5b8160008151116117e5576040805162461bcd60e51b815260206004820152601460248201527f4d696e2070617468206c656e6774682069732031000000000000000000000000604482015290519081900360640190fd5b600581511061183b576040805162461bcd60e51b815260206004820152601460248201527f4d61782070617468206c656e6774682069732034000000000000000000000000604482015290519081900360640190fd5b7f00000000000000000000000000000000000000000000000000000000000000006001600160a01b03168160018351038151811061187557fe5b60200260200101516001600160a01b0316146118d8576040805162461bcd60e51b815260206004820152601b60248201527f53686f756c64207377617020746f2074617267657420746f6b656e0000000000604482015290519081900360640190fd5b60015b815181600101101561197757600160008383815181106118f757fe5b6020908102919091018101516001600160a01b031682528101919091526040016000205460ff1661196f576040805162461bcd60e51b815260206004820152601860248201527f546f6b656e206973206e6f742077686974656c69737465640000000000000000604482015290519081900360640190fd5b6001016118db565b506001600160a01b03841660009081526004602090815260408083206001808201548086529382905291909320600284015490916119b6908490611fc2565b14611a08576040805162461bcd60e51b815260206004820152601c60248201527f507265762065706f636820616c72656164792066696e616c697a656400000000604482015290519081900360640190fd5b6060876001600160a01b031663aa6ca8086040518163ffffffff1660e01b815260040160006040518083038186803b158015611a4357600080fd5b505afa158015611a57573d6000803e3d6000fd5b505050506040513d6000823e601f3d908101601f191682016040526020811015611a8057600080fd5b8101908080516040519392919084640100000000821115611aa057600080fd5b908301906020820185811115611ab557600080fd5b8251866020820283011164010000000082111715611ad257600080fd5b82525081516020918201928201910280838360005b83811015611aff578181015183820152602001611ae7565b505050509050016040525050509050600081600081518110611b1d57fe5b60200260200101516001600160a01b031688600081518110611b3b57fe5b60200260200101516001600160a01b03161415611b5d57506001820154611bf7565b81600181518110611b6a57fe5b60200260200101516001600160a01b031688600081518110611b8857fe5b60200260200101516001600160a01b03161415611baa57506002820154611bf7565b6040805162461bcd60e51b815260206004820152601360248201527f496e76616c696420666972737420746f6b656e00000000000000000000000000604482015290519081900360640190fd5b600080611c048a846127dc565b915091508060001415611e3f578215611e3a57818314611c6b576040805162461bcd60e51b815260206004820152601c60248201527f617661696c61626c6542616c616e6365206973206e6f74206475737400000000604482015290519081900360640190fd5b60005b8a51816001011015611da95760007f00000000000000000000000000000000000000000000000000000000000000006001600160a01b031663901754d78d8481518110611cb757fe5b60200260200101518e8560010181518110611cce57fe5b60200260200101516040518363ffffffff1660e01b815260040180836001600160a01b03168152602001826001600160a01b031681526020019250505060206040518083038186803b158015611d2357600080fd5b505afa158015611d37573d6000803e3d6000fd5b505050506040513d6020811015611d4d57600080fd5b50519050611d5a816121ff565b611da0576040805162461bcd60e51b81526020600482015260126024820152710a6e0e4cac2c840d2e640e8dede40d0d2ced60731b604482015290519081900360640190fd5b50600101611c6e565b50611dd08a600081518110611dba57fe5b60200260200101516001600160a01b03166129d4565b15611e0857604051329084156108fc029085906000818181858888f19350505050158015611e02573d6000803e3d6000fd5b50611e3a565b611e3a8b848c600081518110611e1a57fe5b60200260200101516001600160a01b03166129e19092919063ffffffff16565b611e65565b6000611e4c8b8430612a48565b6003870154909150611e5e9082611fc2565b6003870155505b83600081518110611e7257fe5b60200260200101516001600160a01b03168a600081518110611e9057fe5b60200260200101516001600160a01b03161415611ec0576001850154611eb69083612174565b6001860155611ed5565b6002850154611ecf9083612174565b60028601555b6001850154158015611ee957506002850154155b15611eff57611ef9866001611fc2565b60018801555b50506001600255505050505050505050565b611f19612170565b6000546001600160a01b03908116911614611f7b576040805162461bcd60e51b815260206004820181905260248201527f4f776e61626c653a2063616c6c6572206973206e6f7420746865206f776e6572604482015290519081900360640190fd5b6001600160a01b03919091166000908152600160205260409020805460ff1916911515919091179055565b6004602052600090815260409020600181015460029091015482565b60008282018381101561201c576040805162461bcd60e51b815260206004820152601b60248201527f536166654d6174683a206164646974696f6e206f766572666c6f770000000000604482015290519081900360640190fd5b90505b92915050565b6001600160a01b0382166000908152600185016020908152604080832060028801835281842054845290915290205461207a576001600160a01b0382166000908152600285016020526040902081905561216a565b6001600160a01b0382166000908152600280860160205260408220546001860154909290916120b2906120ad8486612174565b612e58565b9050806120c15750505061216a565b60006120cf88888887612e6e565b905060018211156120f6576120f36120ec89898988600101612e6e565b8290611fc2565b90505b87546121029082611fc2565b88556001600160a01b03861660009081526001808a0160209081526040808420928801845291905290205415600283148061213a5750805b6121475784600101612149565b855b6001600160a01b038816600090815260028b01602052604090205550505050505b50505050565b3390565b600061201c83836040518060400160405280601e81526020017f536166654d6174683a207375627472616374696f6e206f766572666c6f770000815250612f26565b6000806121cd836121c78787612fbd565b90613016565b905080156121e9576121e96001600160a01b0387163383613058565b6121f38582612174565b9150505b949350505050565b60006060826001600160a01b031663aa6ca8086040518163ffffffff1660e01b815260040160006040518083038186803b15801561223c57600080fd5b505afa158015612250573d6000803e3d6000fd5b505050506040513d6000823e601f3d908101601f19168201604052602081101561227957600080fd5b810190808051604051939291908464010000000082111561229957600080fd5b9083019060208201858111156122ae57600080fd5b82518660208202830111640100000000821117156122cb57600080fd5b82525081516020918201928201910280838360005b838110156122f85781810151838201526020016122e0565b50505050905001604052505050905060008060008061231e87866000815181106110c857fe5b9050600061233388876001815181106110c857fe5b90506000886001600160a01b03166348d67e1b6040518163ffffffff1660e01b815260040160206040518083038186803b15801561237057600080fd5b505afa158015612384573d6000803e3d6000fd5b505050506040513d602081101561239a57600080fd5b505190506123a6613557565b896001600160a01b0316636edc2c09896000815181106123c257fe5b60200260200101516040518263ffffffff1660e01b815260040180826001600160a01b03168152602001915050604080518083038186803b15801561240657600080fd5b505afa15801561241a573d6000803e3d6000fd5b505050506040513d604081101561243057600080fd5b50805160209182015164ffffffffff16918301919091526001600160d81b0316815260006124686124628385886130bc565b86613127565b90508a6001600160a01b0316636edc2c098a60018151811061248657fe5b60200260200101516040518263ffffffff1660e01b815260040180826001600160a01b03168152602001915050604080518083038186803b1580156124ca57600080fd5b505afa1580156124de573d6000803e3d6000fd5b505050506040513d60408110156124f457600080fd5b50805160209182015164ffffffffff16918401919091526001600160d81b0316825260006125266124628486886130bc565b90508b6001600160a01b0316635ed9156d8b60008151811061254457fe5b60200260200101516040518263ffffffff1660e01b815260040180826001600160a01b03168152602001915050604080518083038186803b15801561258857600080fd5b505afa15801561259c573d6000803e3d6000fd5b505050506040513d60408110156125b257600080fd5b50805160209182015164ffffffffff16918501919091526001600160d81b0316835260006125ea6125e485878a6130bc565b88612e58565b90508c6001600160a01b0316635ed9156d8c60018151811061260857fe5b60200260200101516040518263ffffffff1660e01b815260040180826001600160a01b03168152602001915050604080518083038186803b15801561264c57600080fd5b505afa158015612660573d6000803e3d6000fd5b505050506040513d604081101561267657600080fd5b50805160209182015164ffffffffff16918601919091526001600160d81b0316845260006126a86125e486888a6130bc565b90506126c0826121c7670de0b6b3a764000086612fbd565b9a506126d8846121c7670de0b6b3a764000084612fbd565b99506126f0886121c7670de0b6b3a76400008a612fbd565b9850505050505050505061271481662386f26fc10000612fbd90919063ffffffff16565b612730670de0b6b3a764000061272a8686612174565b90612fbd565b109695505050505050565b6000612746836129d4565b1561275c57506001600160a01b0381163161201f565b826001600160a01b03166370a08231836040518263ffffffff1660e01b815260040180826001600160a01b0316815260200191505060206040518083038186803b1580156127a957600080fd5b505afa1580156127bd573d6000803e3d6000fd5b505050506040513d60208110156127d357600080fd5b5051905061201f565b81518190819060005b818160010110156129cb5760007f00000000000000000000000000000000000000000000000000000000000000006001600160a01b031663901754d788848151811061282d57fe5b602002602001015189856001018151811061284457fe5b60200260200101516040518363ffffffff1660e01b815260040180836001600160a01b03168152602001826001600160a01b031681526020019250505060206040518083038186803b15801561289957600080fd5b505afa1580156128ad573d6000803e3d6000fd5b505050506040513d60208110156128c357600080fd5b505187519091506000906128e6906064906121c79085908c90889081106110c857fe5b905084811015612904576128fe856121c78884612fbd565b95508094505b816001600160a01b0316631e1401f889858151811061291f57fe5b60200260200101518a866001018151811061293657fe5b6020026020010151886040518463ffffffff1660e01b815260040180846001600160a01b03168152602001836001600160a01b03168152602001828152602001935050505060206040518083038186803b15801561299357600080fd5b505afa1580156129a7573d6000803e3d6000fd5b505050506040513d60208110156129bd57600080fd5b5051945050506001016127e5565b50509250929050565b6001600160a01b03161590565b604080516001600160a01b038416602482015260448082018490528251808303909101815260649091019091526020810180517bffffffffffffffffffffffffffffffffffffffffffffffffffffffff1663a9059cbb60e01b17905261084c908490613137565b8160005b8451816001011015612dae5760007f00000000000000000000000000000000000000000000000000000000000000006001600160a01b031663901754d7878481518110612a9557fe5b6020026020010151888560010181518110612aac57fe5b60200260200101516040518363ffffffff1660e01b815260040180836001600160a01b03168152602001826001600160a01b031681526020019250505060206040518083038186803b158015612b0157600080fd5b505afa158015612b15573d6000803e3d6000fd5b505050506040513d6020811015612b2b57600080fd5b50519050612b38816121ff565b612b7e576040805162461bcd60e51b81526020600482015260126024820152710a6e0e4cac2c840d2e640e8dede40d0d2ced60731b604482015290519081900360640190fd5b6000839050612b92878481518110611dba57fe5b612bcb57612bc78285898681518110612ba757fe5b60200260200101516001600160a01b03166131e89092919063ffffffff16565b5060005b8651836002011015612cb657816001600160a01b031663d5bcb9b582898681518110612bf357fe5b60200260200101518a8760010181518110612c0a57fe5b6020026020010151886000806040518763ffffffff1660e01b815260040180866001600160a01b03168152602001856001600160a01b03168152602001848152602001838152602001826001600160a01b03168152602001955050505050506020604051808303818588803b158015612c8257600080fd5b505af1158015612c96573d6000803e3d6000fd5b50505050506040513d6020811015612cad57600080fd5b50519350612da4565b816001600160a01b031663e331d03982898681518110612cd257fe5b60200260200101518a8760010181518110612ce957fe5b602090810291909101810151604080517fffffffff0000000000000000000000000000000000000000000000000000000060e088901b1681526001600160a01b0394851660048201529184166024830152604482018b90526000606483018190526084830152928b1660a4820152915160c48084019382900301818588803b158015612d7457600080fd5b505af1158015612d88573d6000803e3d6000fd5b50505050506040513d6020811015612d9f57600080fd5b505193505b5050600101612a4c565b50835160011415612e515783600081518110612dc657fe5b60200260200101516001600160a01b031663a9059cbb83836040518363ffffffff1660e01b815260040180836001600160a01b0316815260200182815260200192505050602060405180830381600087803b158015612e2457600080fd5b505af1158015612e38573d6000803e3d6000fd5b505050506040513d6020811015612e4e57600080fd5b50505b9392505050565b6000818310612e67578161201c565b5090919050565b6001600160a01b038216600090815260018501602090815260408083208484529091528120548015612f1d57600083815260208690526040902060038101549054612ebd816121c78486612fbd565b6001600160a01b038716600090815260018a01602090815260408083208984529091528120559350612eef8184612174565b600086815260208990526040902055612f088285612174565b60008681526020899052604090206003015550505b50949350505050565b60008184841115612fb55760405162461bcd60e51b81526004018080602001828103825283818151815260200191508051906020019080838360005b83811015612f7a578181015183820152602001612f62565b50505050905090810190601f168015612fa75780820380516001836020036101000a031916815260200191505b509250505060405180910390fd5b505050900390565b600082612fcc5750600061201f565b82820282848281612fd957fe5b041461201c5760405162461bcd60e51b81526004018080602001828103825260218152602001806135956021913960400191505060405180910390fd5b600061201c83836040518060400160405280601a81526020017f536166654d6174683a206469766973696f6e206279207a65726f000000000000815250613342565b801561084c57613067836129d4565b156130a8576040516001600160a01b0383169082156108fc029083906000818181858888f193505050501580156130a2573d6000803e3d6000fd5b5061084c565b61084c6001600160a01b03841683836129e1565b6000806130e1846120ad876020015164ffffffffff164261217490919063ffffffff16565b905060006130ef8583612174565b905061311d856121c76131028786612fbd565b8951613117906001600160d81b031686612fbd565b90611fc2565b9695505050505050565b600081831015612e67578161201c565b606061318c826040518060400160405280602081526020017f5361666545524332303a206c6f772d6c6576656c2063616c6c206661696c6564815250856001600160a01b03166133a79092919063ffffffff16565b80519091501561084c578080602001905160208110156131ab57600080fd5b505161084c5760405162461bcd60e51b815260040180806020018281038252602a8152602001806135b6602a913960400191505060405180910390fd5b8015806132875750604080517fdd62ed3e0000000000000000000000000000000000000000000000000000000081523060048201526001600160a01b03848116602483015291519185169163dd62ed3e91604480820192602092909190829003018186803b15801561325957600080fd5b505afa15801561326d573d6000803e3d6000fd5b505050506040513d602081101561328357600080fd5b5051155b6132c25760405162461bcd60e51b81526004018080602001828103825260368152602001806135e06036913960400191505060405180910390fd5b604080516001600160a01b038416602482015260448082018490528251808303909101815260649091019091526020810180517bffffffffffffffffffffffffffffffffffffffffffffffffffffffff167f095ea7b30000000000000000000000000000000000000000000000000000000017905261084c908490613137565b600081836133915760405162461bcd60e51b8152602060048201818152835160248401528351909283926044909101919085019080838360008315612f7a578181015183820152602001612f62565b50600083858161339d57fe5b0495945050505050565b60606121f7848460008560606133bc8561351e565b61340d576040805162461bcd60e51b815260206004820152601d60248201527f416464726573733a2063616c6c20746f206e6f6e2d636f6e7472616374000000604482015290519081900360640190fd5b60006060866001600160a01b031685876040518082805190602001908083835b6020831061344c5780518252601f19909201916020918201910161342d565b6001836020036101000a03801982511681845116808217855250505050505090500191505060006040518083038185875af1925050503d80600081146134ae576040519150601f19603f3d011682016040523d82523d6000602084013e6134b3565b606091505b509150915081156134c75791506121f79050565b8051156134d75780518082602001fd5b60405162461bcd60e51b8152602060048201818152865160248401528651879391928392604401919085019080838360008315612f7a578181015183820152602001612f62565b6000813f7fc5d2460186f7233c927e7db2dcc703c0e500b653ca82273b7bfad8045d85a4708181148015906121f7575050151592915050565b60408051808201909152600080825260208201529056fe4f776e61626c653a206e6577206f776e657220697320746865207a65726f2061646472657373536166654d6174683a206d756c7469706c69636174696f6e206f766572666c6f775361666545524332303a204552433230206f7065726174696f6e20646964206e6f7420737563636565645361666545524332303a20617070726f76652066726f6d206e6f6e2d7a65726f20746f206e6f6e2d7a65726f20616c6c6f77616e6365a26469706673582212208bcd324180ccac527f5ef98c8f32ab81e2c80d4fb2bb23713aa6afdde13cf68a64736f6c634300060c0033",
  "immutableReferences": {
    "9970": [
      {
        "length": 32,
        "start": 2010
      },
      {
        "length": 32,
        "start": 3392
      },
      {
        "length": 32,
        "start": 5407
      },
      {
        "length": 32,
        "start": 6205
      }
    ],
    "9972": [
      {
        "length": 32,
        "start": 2470
      },
      {
        "length": 32,
        "start": 3459
      },
      {
        "length": 32,
        "start": 3635
      },
      {
        "length": 32,
        "start": 4941
      },
      {
        "length": 32,
        "start": 5847
      },
      {
        "length": 32,
        "start": 7294
      },
      {
        "length": 32,
        "start": 10228
      },
      {
        "length": 32,
        "start": 10844
      }
    ]
  },
  "source": "// SPDX-License-Identifier: MIT\n\npragma solidity ^0.6.0;\n\nimport \"@openzeppelin/contracts/utils/ReentrancyGuard.sol\";\nimport \"./interfaces/IFeeCollector.sol\";\nimport \"./libraries/UniERC20.sol\";\nimport \"./utils/Converter.sol\";\n\n\ncontract ReferralFeeReceiver is IFeeCollector, Converter, ReentrancyGuard {\n    using UniERC20 for IERC20;\n\n    struct UserInfo {\n        uint256 balance;\n        mapping(IERC20 => mapping(uint256 => uint256)) share;\n        mapping(IERC20 => uint256) firstUnprocessedEpoch;\n    }\n\n    struct EpochBalance {\n        uint256 totalSupply;\n        uint256 token0Balance;\n        uint256 token1Balance;\n        uint256 inchBalance;\n    }\n\n    struct TokenInfo {\n        mapping(uint256 => EpochBalance) epochBalance;\n        uint256 firstUnprocessedEpoch;\n        uint256 currentEpoch;\n    }\n\n    mapping(address => UserInfo) public userInfo;\n    mapping(IERC20 => TokenInfo) public tokenInfo;\n\n    // solhint-disable-next-line no-empty-blocks\n    constructor(IERC20 _inchToken, IMooniswapFactory _mooniswapFactory) public Converter(_inchToken, _mooniswapFactory) {}\n\n    function updateRewards(address[] calldata receivers, uint256[] calldata amounts) external override {\n        for (uint i = 0; i < receivers.length; i++) {\n            updateReward(receivers[i], amounts[i]);\n        }\n    }\n\n    function updateReward(address referral, uint256 amount) public override {\n        Mooniswap mooniswap = Mooniswap(msg.sender);\n        TokenInfo storage token = tokenInfo[mooniswap];\n        UserInfo storage user = userInfo[referral];\n        uint256 currentEpoch = token.currentEpoch;\n\n        // Add new reward to current epoch\n        user.share[mooniswap][currentEpoch] = user.share[mooniswap][currentEpoch].add(amount);\n        token.epochBalance[currentEpoch].totalSupply = token.epochBalance[currentEpoch].totalSupply.add(amount);\n\n        // Collect all processed epochs and advance user token epoch\n        _collectProcessedEpochs(user, token, mooniswap, currentEpoch);\n    }\n\n    function freezeEpoch(Mooniswap mooniswap) external nonReentrant validPool(mooniswap) validSpread(mooniswap) {\n        TokenInfo storage token = tokenInfo[mooniswap];\n        uint256 currentEpoch = token.currentEpoch;\n        require(token.firstUnprocessedEpoch == currentEpoch, \"Previous epoch is not finalized\");\n\n        IERC20[] memory tokens = mooniswap.getTokens();\n        uint256 token0Balance = tokens[0].uniBalanceOf(address(this));\n        uint256 token1Balance = tokens[1].uniBalanceOf(address(this));\n        mooniswap.withdraw(mooniswap.balanceOf(address(this)), new uint256[](0));\n        token.epochBalance[currentEpoch].token0Balance = tokens[0].uniBalanceOf(address(this)).sub(token0Balance);\n        token.epochBalance[currentEpoch].token1Balance = tokens[1].uniBalanceOf(address(this)).sub(token1Balance);\n        token.currentEpoch = currentEpoch.add(1);\n    }\n\n    function trade(Mooniswap mooniswap, IERC20[] memory path) external nonReentrant validPool(mooniswap) validPath(path) {\n        TokenInfo storage token = tokenInfo[mooniswap];\n        uint256 firstUnprocessedEpoch = token.firstUnprocessedEpoch;\n        EpochBalance storage epochBalance = token.epochBalance[firstUnprocessedEpoch];\n        require(firstUnprocessedEpoch.add(1) == token.currentEpoch, \"Prev epoch already finalized\");\n\n        IERC20[] memory tokens = mooniswap.getTokens();\n        uint256 availableBalance;\n        if (path[0] == tokens[0]) {\n            availableBalance = epochBalance.token0Balance;\n        } else if (path[0] == tokens[1]) {\n            availableBalance = epochBalance.token1Balance;\n        } else {\n            revert(\"Invalid first token\");\n        }\n\n        (uint256 amount, uint256 returnAmount) = _maxAmountForSwap(path, availableBalance);\n        if (returnAmount == 0) {\n            // get rid of dust\n            if (availableBalance > 0) {\n                require(availableBalance == amount, \"availableBalance is not dust\");\n                for (uint256 i = 0; i + 1 < path.length; i += 1) {\n                    Mooniswap _mooniswap = mooniswapFactory.pools(path[i], path[i+1]);\n                    require(_validateSpread(_mooniswap), \"Spread is too high\");\n                }\n                if (path[0].isETH()) {\n                    tx.origin.transfer(availableBalance);  // solhint-disable-line avoid-tx-origin\n                } else {\n                    path[0].safeTransfer(address(mooniswap), availableBalance);\n                }\n            }\n        } else {\n            uint256 receivedAmount = _swap(path, amount, payable(address(this)));\n            epochBalance.inchBalance = epochBalance.inchBalance.add(receivedAmount);\n        }\n\n        if (path[0] == tokens[0]) {\n            epochBalance.token0Balance = epochBalance.token0Balance.sub(amount);\n        } else {\n            epochBalance.token1Balance = epochBalance.token1Balance.sub(amount);\n        }\n\n        if (epochBalance.token0Balance == 0 && epochBalance.token1Balance == 0) {\n            token.firstUnprocessedEpoch = firstUnprocessedEpoch.add(1);\n        }\n    }\n\n    function claim(Mooniswap[] memory pools) external {\n        UserInfo storage user = userInfo[msg.sender];\n        for (uint256 i = 0; i < pools.length; ++i) {\n            Mooniswap mooniswap = pools[i];\n            TokenInfo storage token = tokenInfo[mooniswap];\n            _collectProcessedEpochs(user, token, mooniswap, token.currentEpoch);\n        }\n\n        uint256 balance = user.balance;\n        if (balance > 1) {\n            // Avoid erasing storage to decrease gas footprint for referral payments\n            user.balance = 1;\n            inchToken.transfer(msg.sender, balance - 1);\n        }\n    }\n\n    function claimCurrentEpoch(Mooniswap mooniswap) external nonReentrant validPool(mooniswap) {\n        TokenInfo storage token = tokenInfo[mooniswap];\n        UserInfo storage user = userInfo[msg.sender];\n        uint256 currentEpoch = token.currentEpoch;\n        uint256 balance = user.share[mooniswap][currentEpoch];\n        if (balance > 0) {\n            user.share[mooniswap][currentEpoch] = 0;\n            token.epochBalance[currentEpoch].totalSupply = token.epochBalance[currentEpoch].totalSupply.sub(balance);\n            mooniswap.transfer(msg.sender, balance);\n        }\n    }\n\n    function claimFrozenEpoch(Mooniswap mooniswap) external nonReentrant validPool(mooniswap) {\n        TokenInfo storage token = tokenInfo[mooniswap];\n        UserInfo storage user = userInfo[msg.sender];\n        uint256 firstUnprocessedEpoch = token.firstUnprocessedEpoch;\n        uint256 currentEpoch = token.currentEpoch;\n\n        require(firstUnprocessedEpoch.add(1) == currentEpoch, \"Epoch already finalized\");\n        require(user.firstUnprocessedEpoch[mooniswap] == firstUnprocessedEpoch, \"Epoch funds already claimed\");\n\n        user.firstUnprocessedEpoch[mooniswap] = currentEpoch;\n        uint256 share = user.share[mooniswap][firstUnprocessedEpoch];\n\n        if (share > 0) {\n            EpochBalance storage epochBalance = token.epochBalance[firstUnprocessedEpoch];\n            uint256 totalSupply = epochBalance.totalSupply;\n            user.share[mooniswap][firstUnprocessedEpoch] = 0;\n            epochBalance.totalSupply = totalSupply.sub(share);\n\n            IERC20[] memory tokens = mooniswap.getTokens();\n            epochBalance.token0Balance = _transferTokenShare(tokens[0], epochBalance.token0Balance, share, totalSupply);\n            epochBalance.token1Balance = _transferTokenShare(tokens[1], epochBalance.token1Balance, share, totalSupply);\n            epochBalance.inchBalance = _transferTokenShare(inchToken, epochBalance.inchBalance, share, totalSupply);\n        }\n    }\n\n    function _transferTokenShare(IERC20 token, uint256 balance, uint256 share, uint256 totalSupply) private returns(uint256 newBalance) {\n        uint256 amount = balance.mul(share).div(totalSupply);\n        if (amount > 0) {\n            token.uniTransfer(msg.sender, amount);\n        }\n        return balance.sub(amount);\n    }\n\n    function _collectProcessedEpochs(UserInfo storage user, TokenInfo storage token, Mooniswap mooniswap, uint256 currentEpoch) private {\n        // Early return for the new users\n        if (user.share[mooniswap][user.firstUnprocessedEpoch[mooniswap]] == 0) {\n            user.firstUnprocessedEpoch[mooniswap] = currentEpoch;\n            return;\n        }\n\n        uint256 userEpoch = user.firstUnprocessedEpoch[mooniswap];\n        uint256 tokenEpoch = token.firstUnprocessedEpoch;\n        uint256 epochCount = Math.min(2, tokenEpoch.sub(userEpoch)); // 0, 1 or 2 epochs\n        if (epochCount == 0) {\n            return;\n        }\n\n        // Claim 1 or 2 processed epochs for the user\n        uint256 collected = _collectEpoch(user, token, mooniswap, userEpoch);\n        if (epochCount > 1) {\n            collected = collected.add(_collectEpoch(user, token, mooniswap, userEpoch + 1));\n        }\n        user.balance = user.balance.add(collected);\n\n        // Update user token epoch counter\n        bool emptySecondEpoch = user.share[mooniswap][userEpoch + 1] == 0;\n        user.firstUnprocessedEpoch[mooniswap] = (epochCount == 2 || emptySecondEpoch) ? currentEpoch : userEpoch + 1;\n    }\n\n    function _collectEpoch(UserInfo storage user, TokenInfo storage token, Mooniswap mooniswap, uint256 epoch) private returns(uint256 collected) {\n        uint256 share = user.share[mooniswap][epoch];\n        if (share > 0) {\n            uint256 inchBalance = token.epochBalance[epoch].inchBalance;\n            uint256 totalSupply = token.epochBalance[epoch].totalSupply;\n\n            collected = inchBalance.mul(share).div(totalSupply);\n\n            user.share[mooniswap][epoch] = 0;\n            token.epochBalance[epoch].totalSupply = totalSupply.sub(share);\n            token.epochBalance[epoch].inchBalance = inchBalance.sub(collected);\n        }\n    }\n}\n",
  "sourcePath": "/Users/k06a/Projects/mooniswap-v2/contracts/ReferralFeeReceiver.sol",
  "compiler": {
    "name": "solc",
    "version": "0.6.12+commit.27d51765.Emscripten.clang"
  },
  "schemaVersion": "3.3.3",
  "updatedAt": "2021-01-07T10:25:20.526Z",
  "devdoc": {
    "kind": "dev",
    "methods": {
      "owner()": {
        "details": "Returns the address of the current owner."
      },
      "renounceOwnership()": {
        "details": "Leaves the contract without owner. It will not be possible to call `onlyOwner` functions anymore. Can only be called by the current owner. NOTE: Renouncing ownership will leave the contract without an owner, thereby removing any functionality that is only available to the owner."
      },
      "transferOwnership(address)": {
        "details": "Transfers ownership of the contract to a new account (`newOwner`). Can only be called by the current owner."
      }
    },
    "version": 1
  },
  "userdoc": {
    "kind": "user",
    "methods": {},
    "version": 1
  }
}