{
  "contractName": "ReferralFeeReceiver",
  "abi": [
    {
      "inputs": [
        {
          "internalType": "contract IERC20",
          "name": "_inchToken",
          "type": "address"
        },
        {
          "internalType": "contract IMooniswapFactory",
          "name": "_mooniswapFactory",
          "type": "address"
        }
      ],
      "stateMutability": "nonpayable",
      "type": "constructor"
    },
    {
      "anonymous": false,
      "inputs": [
        {
          "indexed": true,
          "internalType": "address",
          "name": "previousOwner",
          "type": "address"
        },
        {
          "indexed": true,
          "internalType": "address",
          "name": "newOwner",
          "type": "address"
        }
      ],
      "name": "OwnershipTransferred",
      "type": "event"
    },
    {
      "inputs": [],
      "name": "inchToken",
      "outputs": [
        {
          "internalType": "contract IERC20",
          "name": "",
          "type": "address"
        }
      ],
      "stateMutability": "view",
      "type": "function"
    },
    {
      "inputs": [],
      "name": "mooniswapFactory",
      "outputs": [
        {
          "internalType": "contract IMooniswapFactory",
          "name": "",
          "type": "address"
        }
      ],
      "stateMutability": "view",
      "type": "function"
    },
    {
      "inputs": [],
      "name": "owner",
      "outputs": [
        {
          "internalType": "address",
          "name": "",
          "type": "address"
        }
      ],
      "stateMutability": "view",
      "type": "function"
    },
    {
      "inputs": [
        {
          "internalType": "contract IERC20",
          "name": "",
          "type": "address"
        }
      ],
      "name": "pathWhitelist",
      "outputs": [
        {
          "internalType": "bool",
          "name": "",
          "type": "bool"
        }
      ],
      "stateMutability": "view",
      "type": "function"
    },
    {
      "inputs": [],
      "name": "renounceOwnership",
      "outputs": [],
      "stateMutability": "nonpayable",
      "type": "function"
    },
    {
      "inputs": [
        {
          "internalType": "contract IERC20",
          "name": "",
          "type": "address"
        }
      ],
      "name": "tokenInfo",
      "outputs": [
        {
          "internalType": "uint256",
          "name": "firstUnprocessedEpoch",
          "type": "uint256"
        },
        {
          "internalType": "uint256",
          "name": "currentEpoch",
          "type": "uint256"
        }
      ],
      "stateMutability": "view",
      "type": "function"
    },
    {
      "inputs": [
        {
          "internalType": "address",
          "name": "newOwner",
          "type": "address"
        }
      ],
      "name": "transferOwnership",
      "outputs": [],
      "stateMutability": "nonpayable",
      "type": "function"
    },
    {
      "inputs": [
        {
          "internalType": "contract IERC20",
          "name": "token",
          "type": "address"
        },
        {
          "internalType": "bool",
          "name": "whitelisted",
          "type": "bool"
        }
      ],
      "name": "updatePathWhitelist",
      "outputs": [],
      "stateMutability": "nonpayable",
      "type": "function"
    },
    {
      "inputs": [
        {
          "internalType": "address",
          "name": "",
          "type": "address"
        }
      ],
      "name": "userInfo",
      "outputs": [
        {
          "internalType": "uint256",
          "name": "balance",
          "type": "uint256"
        }
      ],
      "stateMutability": "view",
      "type": "function"
    },
    {
      "stateMutability": "payable",
      "type": "receive"
    },
    {
      "inputs": [
        {
          "internalType": "address",
          "name": "referral",
          "type": "address"
        },
        {
          "internalType": "uint256",
          "name": "amount",
          "type": "uint256"
        }
      ],
      "name": "updateReward",
      "outputs": [],
      "stateMutability": "nonpayable",
      "type": "function"
    },
    {
      "inputs": [
        {
          "internalType": "contract Mooniswap",
          "name": "mooniswap",
          "type": "address"
        },
        {
          "internalType": "contract IERC20[]",
          "name": "token0Path",
          "type": "address[]"
        },
        {
          "internalType": "contract IERC20[]",
          "name": "token1Path",
          "type": "address[]"
        }
      ],
      "name": "freezeEpoch",
      "outputs": [],
      "stateMutability": "nonpayable",
      "type": "function"
    },
    {
      "inputs": [
        {
          "internalType": "contract Mooniswap",
          "name": "mooniswap",
          "type": "address"
        },
        {
          "internalType": "contract IERC20[]",
          "name": "path",
          "type": "address[]"
        }
      ],
      "name": "trade",
      "outputs": [],
      "stateMutability": "nonpayable",
      "type": "function"
    },
    {
      "inputs": [
        {
          "internalType": "contract Mooniswap[]",
          "name": "pools",
          "type": "address[]"
        }
      ],
      "name": "claim",
      "outputs": [],
      "stateMutability": "nonpayable",
      "type": "function"
    },
    {
      "inputs": [
        {
          "internalType": "contract Mooniswap",
          "name": "mooniswap",
          "type": "address"
        }
      ],
      "name": "claimCurrentEpoch",
      "outputs": [],
      "stateMutability": "nonpayable",
      "type": "function"
    },
    {
      "inputs": [
        {
          "internalType": "contract Mooniswap",
          "name": "mooniswap",
          "type": "address"
        }
      ],
      "name": "claimFrozenEpoch",
      "outputs": [],
      "stateMutability": "nonpayable",
      "type": "function"
    }
  ],
  "bytecode": "0x60c06040523480156200001157600080fd5b506040516200369b3803806200369b833981810160405260408110156200003757600080fd5b508051602090910151818160006200004e620000ba565b600080546001600160a01b0319166001600160a01b0383169081178255604051929350917f8be0079c531659141344cd1fd0a4f28419497f9722a3daafe3b4186f6b6457e0908290a3506001600160601b0319606092831b8116608052911b1660a05250620000be9050565b3390565b60805160601c60a05160601c6135906200010b60003980610c905280611e4152806122235250806107f75280610c545280610dee528061148052806115ca52806120d252506135906000f3fe6080604052600436106100ec5760003560e01c80638da5cb5b1161008a578063f3aafa8011610059578063f3aafa80146103cb578063f583adbc1461048b578063f5dab711146104c6578063fd6758f61461051257610148565b80638da5cb5b1461033b5780639e96b2ce14610350578063ec95459414610383578063f2fde38b1461039857610148565b80635e8c8bb7116100c65780635e8c8bb71461027b578063715018a6146102c257806371646f98146102d7578063857311401461030a57610148565b80631959a0021461014d5780631a39912514610192578063318d9e5d146101cb57610148565b366101485733321415610146576040805162461bcd60e51b815260206004820152601660248201527f455448207472616e7366657220666f7262696464656e00000000000000000000604482015290519081900360640190fd5b005b600080fd5b34801561015957600080fd5b506101806004803603602081101561017057600080fd5b50356001600160a01b0316610656565b60408051918252519081900360200190f35b34801561019e57600080fd5b50610146600480360360408110156101b557600080fd5b506001600160a01b038135169060200135610668565b3480156101d757600080fd5b50610146600480360360208110156101ee57600080fd5b81019060208101813564010000000081111561020957600080fd5b82018360208201111561021b57600080fd5b8035906020019184602083028401116401000000008311171561023d57600080fd5b919080806020026020016040519081016040528093929190818152602001838360200280828437600092019190915250929550610711945050505050565b34801561028757600080fd5b506102ae6004803603602081101561029e57600080fd5b50356001600160a01b0316610871565b604080519115158252519081900360200190f35b3480156102ce57600080fd5b50610146610886565b3480156102e357600080fd5b50610146600480360360208110156102fa57600080fd5b50356001600160a01b0316610952565b34801561031657600080fd5b5061031f610c8e565b604080516001600160a01b039092168252519081900360200190f35b34801561034757600080fd5b5061031f610cb2565b34801561035c57600080fd5b506101466004803603602081101561037357600080fd5b50356001600160a01b0316610cc1565b34801561038f57600080fd5b5061031f610dec565b3480156103a457600080fd5b50610146600480360360208110156103bb57600080fd5b50356001600160a01b0316610e10565b3480156103d757600080fd5b50610146600480360360408110156103ee57600080fd5b6001600160a01b03823516919081019060408101602082013564010000000081111561041957600080fd5b82018360208201111561042b57600080fd5b8035906020019184602083028401116401000000008311171561044d57600080fd5b919080806020026020016040519081016040528093929190818152602001838360200280828437600092019190915250929550610f32945050505050565b34801561049757600080fd5b50610146600480360360408110156104ae57600080fd5b506001600160a01b03813516906020013515156112a7565b3480156104d257600080fd5b506104f9600480360360208110156104e957600080fd5b50356001600160a01b031661135a565b6040805192835260208301919091528051918290030190f35b34801561051e57600080fd5b506101466004803603606081101561053557600080fd5b6001600160a01b03823516919081019060408101602082013564010000000081111561056057600080fd5b82018360208201111561057257600080fd5b8035906020019184602083028401116401000000008311171561059457600080fd5b91908080602002602001604051908101604052809392919081815260200183836020028082843760009201919091525092959493602081019350359150506401000000008111156105e457600080fd5b8201836020820111156105f657600080fd5b8035906020019184602083028401116401000000008311171561061857600080fd5b919080806020026020016040519081016040528093929190818152602001838360200280828437600092019190915250929550611376945050505050565b60026020526000908152604090205481565b3360008181526003602090815260408083206001600160a01b038716845260028084528285209082015486865260018201855283862081875290945291909320549091906106b69086611bec565b6001600160a01b0385166000908152600184016020908152604080832085845282528083209390935585905220546106ee9086611bec565b60008281526020859052604090205561070982848684611c4f565b505050505050565b336000908152600260205260408120905b825181101561078657600083828151811061073957fe5b60200260200101519050600060036000836001600160a01b03166001600160a01b03168152602001908152602001600020905061077c8482848460020154611c4f565b5050600101610722565b508054600181111561086c5760018255604080517fa9059cbb0000000000000000000000000000000000000000000000000000000081523360048201527fffffffffffffffffffffffffffffffffffffffffffffffffffffffffffffffff8301602482015290516001600160a01b037f0000000000000000000000000000000000000000000000000000000000000000169163a9059cbb9160448083019260209291908290030181600087803b15801561083f57600080fd5b505af1158015610853573d6000803e3d6000fd5b505050506040513d602081101561086957600080fd5b50505b505050565b60016020526000908152604090205460ff1681565b61088e611d9a565b6000546001600160a01b039081169116146108f0576040805162461bcd60e51b815260206004820181905260248201527f4f776e61626c653a2063616c6c6572206973206e6f7420746865206f776e6572604482015290519081900360640190fd5b600080546040516001600160a01b03909116907f8be0079c531659141344cd1fd0a4f28419497f9722a3daafe3b4186f6b6457e0908390a3600080547fffffffffffffffffffffffff0000000000000000000000000000000000000000169055565b6001600160a01b0381166000908152600360209081526040808320338452600292839052922060018084015492840154919291908190610993908490611bec565b146109e5576040805162461bcd60e51b815260206004820152601760248201527f45706f636820616c72656164792066696e616c697a6564000000000000000000604482015290519081900360640190fd5b6001600160a01b03851660009081526002840160205260409020548214610a53576040805162461bcd60e51b815260206004820152601b60248201527f45706f63682066756e647320616c726561647920636c61696d65640000000000604482015290519081900360640190fd5b6001600160a01b0385166000908152600284016020908152604080832084905560018601825280832085845290915290205480156107095760008381526020868152604080832080546001600160a01b038b16855260018901845282852088865290935290832092909255610ac88184611d9e565b82600001819055506060886001600160a01b031663aa6ca8086040518163ffffffff1660e01b815260040160006040518083038186803b158015610b0b57600080fd5b505afa158015610b1f573d6000803e3d6000fd5b505050506040513d6000823e601f3d9081017fffffffffffffffffffffffffffffffffffffffffffffffffffffffffffffffe01682016040526020811015610b6657600080fd5b8101908080516040519392919084640100000000821115610b8657600080fd5b908301906020820185811115610b9b57600080fd5b8251866020820283011164010000000082111715610bb857600080fd5b82525081516020918201928201910280838360005b83811015610be5578181015183820152602001610bcd565b505050509050016040525050509050610c1881600081518110610c0457fe5b602002602001015184600101548685611de0565b8360010181905550610c4481600181518110610c3057fe5b602002602001015184600201548685611de0565b60028401556003830154610c7b907f0000000000000000000000000000000000000000000000000000000000000000908685611de0565b8360030181905550505050505050505050565b7f000000000000000000000000000000000000000000000000000000000000000081565b6000546001600160a01b031690565b6001600160a01b0381166000818152600360209081526040808320338452600280845282852090820154958552600181018452828520868652909352922054919290918015610869576001600160a01b03851660009081526001840160209081526040808320858452825280832083905590869052902054610d439082611d9e565b6000838152602086815260408083209390935582517fa9059cbb0000000000000000000000000000000000000000000000000000000081523360048201526024810185905292516001600160a01b0389169363a9059cbb9360448083019493928390030190829087803b158015610db957600080fd5b505af1158015610dcd573d6000803e3d6000fd5b505050506040513d6020811015610de357600080fd5b50505050505050565b7f000000000000000000000000000000000000000000000000000000000000000081565b610e18611d9a565b6000546001600160a01b03908116911614610e7a576040805162461bcd60e51b815260206004820181905260248201527f4f776e61626c653a2063616c6c6572206973206e6f7420746865206f776e6572604482015290519081900360640190fd5b6001600160a01b038116610ebf5760405162461bcd60e51b81526004018080602001828103825260268152602001806134b46026913960400191505060405180910390fd5b600080546040516001600160a01b03808516939216917f8be0079c531659141344cd1fd0a4f28419497f9722a3daafe3b4186f6b6457e091a3600080547fffffffffffffffffffffffff0000000000000000000000000000000000000000166001600160a01b0392909216919091179055565b6001600160a01b0382166000908152600360209081526040808320600180820154808652938290529190932060028401549091610f70908490611bec565b14610fc2576040805162461bcd60e51b815260206004820152601c60248201527f507265762065706f636820616c72656164792066696e616c697a656400000000604482015290519081900360640190fd5b6060856001600160a01b031663aa6ca8086040518163ffffffff1660e01b815260040160006040518083038186803b158015610ffd57600080fd5b505afa158015611011573d6000803e3d6000fd5b505050506040513d6000823e601f3d9081017fffffffffffffffffffffffffffffffffffffffffffffffffffffffffffffffe0168201604052602081101561105857600080fd5b810190808051604051939291908464010000000082111561107857600080fd5b90830190602082018581111561108d57600080fd5b82518660208202830111640100000000821117156110aa57600080fd5b82525081516020918201928201910280838360005b838110156110d75781810151838201526020016110bf565b5050505090500160405250505090506000816000815181106110f557fe5b60200260200101516001600160a01b03168660008151811061111357fe5b60200260200101516001600160a01b03161415611135575060018201546111cf565b8160018151811061114257fe5b60200260200101516001600160a01b03168660008151811061116057fe5b60200260200101516001600160a01b03161415611182575060028201546111cf565b6040805162461bcd60e51b815260206004820152601360248201527f496e76616c696420666972737420746f6b656e00000000000000000000000000604482015290519081900360640190fd5b60006111db8783611e29565b50905060006111eb888330612021565b60038601549091506111fd9082611bec565b60038601558351849060009061120f57fe5b60200260200101516001600160a01b03168860008151811061122d57fe5b60200260200101516001600160a01b0316141561125d5760018501546112539083611d9e565b6001860155611272565b600285015461126c9083611d9e565b60028601555b600185015415801561128657506002850154155b1561129c57611296866001611bec565b60018801555b505050505050505050565b6112af611d9a565b6000546001600160a01b03908116911614611311576040805162461bcd60e51b815260206004820181905260248201527f4f776e61626c653a2063616c6c6572206973206e6f7420746865206f776e6572604482015290519081900360640190fd5b6001600160a01b0391909116600090815260016020526040902080547fffffffffffffffffffffffffffffffffffffffffffffffffffffffffffffff0016911515919091179055565b6003602052600090815260409020600181015460029091015482565b8261138081612641565b6113d1576040805162461bcd60e51b815260206004820152601260248201527f53707265616420697320746f6f20686967680000000000000000000000000000604482015290519081900360640190fd5b826000815111611428576040805162461bcd60e51b815260206004820152601460248201527f4d696e2070617468206c656e6774682069732031000000000000000000000000604482015290519081900360640190fd5b600581511061147e576040805162461bcd60e51b815260206004820152601460248201527f4d61782070617468206c656e6774682069732034000000000000000000000000604482015290519081900360640190fd5b7f00000000000000000000000000000000000000000000000000000000000000006001600160a01b0316816001835103815181106114b857fe5b60200260200101516001600160a01b03161461151b576040805162461bcd60e51b815260206004820152601b60248201527f53686f756c64207377617020746f2074617267657420746f6b656e0000000000604482015290519081900360640190fd5b826000815111611572576040805162461bcd60e51b815260206004820152601460248201527f4d696e2070617468206c656e6774682069732031000000000000000000000000604482015290519081900360640190fd5b60058151106115c8576040805162461bcd60e51b815260206004820152601460248201527f4d61782070617468206c656e6774682069732034000000000000000000000000604482015290519081900360640190fd5b7f00000000000000000000000000000000000000000000000000000000000000006001600160a01b03168160018351038151811061160257fe5b60200260200101516001600160a01b031614611665576040805162461bcd60e51b815260206004820152601b60248201527f53686f756c64207377617020746f2074617267657420746f6b656e0000000000604482015290519081900360640190fd5b6001600160a01b03861660009081526003602052604090206002810154600182015481146116da576040805162461bcd60e51b815260206004820152601f60248201527f50726576696f75732065706f6368206973206e6f742066696e616c697a656400604482015290519081900360640190fd5b6060886001600160a01b031663aa6ca8086040518163ffffffff1660e01b815260040160006040518083038186803b15801561171557600080fd5b505afa158015611729573d6000803e3d6000fd5b505050506040513d6000823e601f3d9081017fffffffffffffffffffffffffffffffffffffffffffffffffffffffffffffffe0168201604052602081101561177057600080fd5b810190808051604051939291908464010000000082111561179057600080fd5b9083019060208201858111156117a557600080fd5b82518660208202830111640100000000821117156117c257600080fd5b82525081516020918201928201910280838360005b838110156117ef5781810151838201526020016117d7565b5050505090500160405250505090508060008151811061180b57fe5b60200260200101516001600160a01b03168860008151811061182957fe5b60200260200101516001600160a01b03161461188c576040805162461bcd60e51b815260206004820152601860248201527f696e76616c696420746f6b656e30506174682073746172740000000000000000604482015290519081900360640190fd5b8060018151811061189957fe5b60200260200101516001600160a01b0316876000815181106118b757fe5b60200260200101516001600160a01b03161461191a576040805162461bcd60e51b815260206004820152601860248201527f696e76616c696420746f6b656e31506174682073746172740000000000000000604482015290519081900360640190fd5b600061194c308360008151811061192d57fe5b60200260200101516001600160a01b0316612c4590919063ffffffff16565b90506000611961308460018151811061192d57fe5b90508a6001600160a01b0316635915d8068c6001600160a01b03166370a08231306040518263ffffffff1660e01b815260040180826001600160a01b0316815260200191505060206040518083038186803b1580156119bf57600080fd5b505afa1580156119d3573d6000803e3d6000fd5b505050506040513d60208110156119e957600080fd5b50516040805160008082526020820190925290506040518363ffffffff1660e01b81526004018083815260200180602001828103825283818151815260200191508051906020019060200280838360005b83811015611a52578181015183820152602001611a3a565b5050505090500193505050506040805180830381600087803b158015611a7757600080fd5b505af1158015611a8b573d6000803e3d6000fd5b505050506040513d601f19601f820116820180604052506040811015611ab057600080fd5b50508251611ad1908390611acb903090879060009061192d57fe5b90611d9e565b9150611ae881611acb308660018151811061192d57fe5b90506000611af68b84611e29565b91505060008111611b4e576040805162461bcd60e51b815260206004820152601e60248201527f52657761726420666f7220746f6b656e3020697320746f6f20736d616c6c0000604482015290519081900360640190fd5b611b588a83611e29565b91505080611bad576040805162461bcd60e51b815260206004820152601e60248201527f52657761726420666f7220746f6b656e3120697320746f6f20736d616c6c0000604482015290519081900360640190fd5b600085815260208790526040902060018082018590556002909101839055611bd6908690611bec565b8660020181905550505050505050505050505050565b600082820183811015611c46576040805162461bcd60e51b815260206004820152601b60248201527f536166654d6174683a206164646974696f6e206f766572666c6f770000000000604482015290519081900360640190fd5b90505b92915050565b6001600160a01b03821660009081526001850160209081526040808320600288018352818420548452909152902054611ca4576001600160a01b03821660009081526002850160205260409020819055611d94565b6001600160a01b038216600090815260028086016020526040822054600186015490929091611cdc90611cd78486611d9e565b612ce6565b905080611ceb57505050611d94565b6000611cf988888887612cfc565b90506001821115611d2057611d1d611d1689898988600101612cfc565b8290611bec565b90505b8754611d2c9082611bec565b88556001600160a01b03861660009081526001808a01602090815260408084209288018452919052902054156002831480611d645750805b611d715784600101611d73565b855b6001600160a01b038816600090815260028b01602052604090205550505050505b50505050565b3390565b6000611c4683836040518060400160405280601e81526020017f536166654d6174683a207375627472616374696f6e206f766572666c6f770000815250612db0565b600080611df783611df18787612e47565b90612ea0565b90508015611e1357611e136001600160a01b0387163383612ee2565b611e1d8582611d9e565b9150505b949350505050565b81518190819060005b818160010110156120185760007f00000000000000000000000000000000000000000000000000000000000000006001600160a01b031663901754d7888481518110611e7a57fe5b6020026020010151898560010181518110611e9157fe5b60200260200101516040518363ffffffff1660e01b815260040180836001600160a01b03168152602001826001600160a01b031681526020019250505060206040518083038186803b158015611ee657600080fd5b505afa158015611efa573d6000803e3d6000fd5b505050506040513d6020811015611f1057600080fd5b50518751909150600090611f3390606490611df19085908c908890811061192d57fe5b905084811015611f5157611f4b85611df18884612e47565b95508094505b816001600160a01b0316631e1401f8898581518110611f6c57fe5b60200260200101518a8660010181518110611f8357fe5b6020026020010151886040518463ffffffff1660e01b815260040180846001600160a01b03168152602001836001600160a01b03168152602001828152602001935050505060206040518083038186803b158015611fe057600080fd5b505afa158015611ff4573d6000803e3d6000fd5b505050506040513d602081101561200a57600080fd5b505194505050600101611e32565b50509250929050565b600083600081511161207a576040805162461bcd60e51b815260206004820152601460248201527f4d696e2070617468206c656e6774682069732031000000000000000000000000604482015290519081900360640190fd5b60058151106120d0576040805162461bcd60e51b815260206004820152601460248201527f4d61782070617468206c656e6774682069732034000000000000000000000000604482015290519081900360640190fd5b7f00000000000000000000000000000000000000000000000000000000000000006001600160a01b03168160018351038151811061210a57fe5b60200260200101516001600160a01b03161461216d576040805162461bcd60e51b815260206004820152601b60248201527f53686f756c64207377617020746f2074617267657420746f6b656e0000000000604482015290519081900360640190fd5b83915060015b855181600101101561220f576001600087838151811061218f57fe5b6020908102919091018101516001600160a01b031682528101919091526040016000205460ff16612207576040805162461bcd60e51b815260206004820152601860248201527f546f6b656e206973206e6f742077686974656c69737465640000000000000000604482015290519081900360640190fd5b600101612173565b5060005b85518160010110156125965760007f00000000000000000000000000000000000000000000000000000000000000006001600160a01b031663901754d788848151811061225c57fe5b602002602001015189856001018151811061227357fe5b60200260200101516040518363ffffffff1660e01b815260040180836001600160a01b03168152602001826001600160a01b031681526020019250505060206040518083038186803b1580156122c857600080fd5b505afa1580156122dc573d6000803e3d6000fd5b505050506040513d60208110156122f257600080fd5b505190506122ff81612641565b612350576040805162461bcd60e51b815260206004820152601260248201527f53707265616420697320746f6f20686967680000000000000000000000000000604482015290519081900360640190fd5b600084905061237a88848151811061236457fe5b60200260200101516001600160a01b0316612f46565b6123b3576123af82868a868151811061238f57fe5b60200260200101516001600160a01b0316612f539092919063ffffffff16565b5060005b875183600201101561249e57816001600160a01b031663d5bcb9b5828a86815181106123db57fe5b60200260200101518b87600101815181106123f257fe5b6020026020010151896000806040518763ffffffff1660e01b815260040180866001600160a01b03168152602001856001600160a01b03168152602001848152602001838152602001826001600160a01b03168152602001955050505050506020604051808303818588803b15801561246a57600080fd5b505af115801561247e573d6000803e3d6000fd5b50505050506040513d602081101561249557600080fd5b5051945061258c565b816001600160a01b031663e331d039828a86815181106124ba57fe5b60200260200101518b87600101815181106124d157fe5b602090810291909101810151604080517fffffffff0000000000000000000000000000000000000000000000000000000060e088901b1681526001600160a01b0394851660048201529184166024830152604482018c90526000606483018190526084830152928c1660a4820152915160c48084019382900301818588803b15801561255c57600080fd5b505af1158015612570573d6000803e3d6000fd5b50505050506040513d602081101561258757600080fd5b505194505b5050600101612213565b5084516001141561263957846000815181106125ae57fe5b60200260200101516001600160a01b031663a9059cbb84846040518363ffffffff1660e01b815260040180836001600160a01b0316815260200182815260200192505050602060405180830381600087803b15801561260c57600080fd5b505af1158015612620573d6000803e3d6000fd5b505050506040513d602081101561263657600080fd5b50505b509392505050565b60006060826001600160a01b031663aa6ca8086040518163ffffffff1660e01b815260040160006040518083038186803b15801561267e57600080fd5b505afa158015612692573d6000803e3d6000fd5b505050506040513d6000823e601f3d9081017fffffffffffffffffffffffffffffffffffffffffffffffffffffffffffffffe016820160405260208110156126d957600080fd5b81019080805160405193929190846401000000008211156126f957600080fd5b90830190602082018581111561270e57600080fd5b825186602082028301116401000000008211171561272b57600080fd5b82525081516020918201928201910280838360005b83811015612758578181015183820152602001612740565b50505050905001604052505050905060008060008061277e878660008151811061192d57fe5b90506000612793888760018151811061192d57fe5b90506000886001600160a01b03166348d67e1b6040518163ffffffff1660e01b815260040160206040518083038186803b1580156127d057600080fd5b505afa1580156127e4573d6000803e3d6000fd5b505050506040513d60208110156127fa57600080fd5b5051905061280661349c565b896001600160a01b0316636edc2c098960008151811061282257fe5b60200260200101516040518263ffffffff1660e01b815260040180826001600160a01b03168152602001915050604080518083038186803b15801561286657600080fd5b505afa15801561287a573d6000803e3d6000fd5b505050506040513d604081101561289057600080fd5b50805160209182015164ffffffffff16918301919091527affffffffffffffffffffffffffffffffffffffffffffffffffffff16815260006128dc6128d68385886130ad565b8661312c565b90508a6001600160a01b0316636edc2c098a6001815181106128fa57fe5b60200260200101516040518263ffffffff1660e01b815260040180826001600160a01b03168152602001915050604080518083038186803b15801561293e57600080fd5b505afa158015612952573d6000803e3d6000fd5b505050506040513d604081101561296857600080fd5b50805160209182015164ffffffffff16918401919091527affffffffffffffffffffffffffffffffffffffffffffffffffffff16825260006129ae6128d68486886130ad565b90508b6001600160a01b0316635ed9156d8b6000815181106129cc57fe5b60200260200101516040518263ffffffff1660e01b815260040180826001600160a01b03168152602001915050604080518083038186803b158015612a1057600080fd5b505afa158015612a24573d6000803e3d6000fd5b505050506040513d6040811015612a3a57600080fd5b50805160209182015164ffffffffff16918501919091527affffffffffffffffffffffffffffffffffffffffffffffffffffff1683526000612a86612a8085878a6130ad565b88612ce6565b90508c6001600160a01b0316635ed9156d8c600181518110612aa457fe5b60200260200101516040518263ffffffff1660e01b815260040180826001600160a01b03168152602001915050604080518083038186803b158015612ae857600080fd5b505afa158015612afc573d6000803e3d6000fd5b505050506040513d6040811015612b1257600080fd5b50805160209182015164ffffffffff16918601919091527affffffffffffffffffffffffffffffffffffffffffffffffffffff1684526000612b58612a8086888a6130ad565b9050612b7082611df1670de0b6b3a764000086612e47565b9a50612b8884611df1670de0b6b3a764000084612e47565b9950612ba088611df1670de0b6b3a76400008a612e47565b98505050505050505050612c2481612c1e600a896001600160a01b031663ddca3f436040518163ffffffff1660e01b815260040160206040518083038186803b158015612bec57600080fd5b505afa158015612c00573d6000803e3d6000fd5b505050506040513d6020811015612c1657600080fd5b505190612e47565b90612e47565b612c3a670de0b6b3a7640000612c1e8686611d9e565b109695505050505050565b6000612c5083612f46565b15612c6657506001600160a01b03811631611c49565b826001600160a01b03166370a08231836040518263ffffffff1660e01b815260040180826001600160a01b0316815260200191505060206040518083038186803b158015612cb357600080fd5b505afa158015612cc7573d6000803e3d6000fd5b505050506040513d6020811015612cdd57600080fd5b50519050611c49565b6000818310612cf55781611c46565b5090919050565b60008181526020848152604080832060038101546001600160a01b03871685526001890184528285208686528452918420549287905254909190612d4481611df18585612e47565b6001600160a01b038716600090815260018a01602090815260408083208984529091528120559350612d768183611d9e565b600086815260208990526040902055612d8f8385611d9e565b60009586526020979097525050604090922060030193909355509092915050565b60008184841115612e3f5760405162461bcd60e51b81526004018080602001828103825283818151815260200191508051906020019080838360005b83811015612e04578181015183820152602001612dec565b50505050905090810190601f168015612e315780820380516001836020036101000a031916815260200191505b509250505060405180910390fd5b505050900390565b600082612e5657506000611c49565b82820282848281612e6357fe5b0414611c465760405162461bcd60e51b81526004018080602001828103825260218152602001806134da6021913960400191505060405180910390fd5b6000611c4683836040518060400160405280601a81526020017f536166654d6174683a206469766973696f6e206279207a65726f00000000000081525061313c565b801561086c57612ef183612f46565b15612f32576040516001600160a01b0383169082156108fc029083906000818181858888f19350505050158015612f2c573d6000803e3d6000fd5b5061086c565b61086c6001600160a01b03841683836131a1565b6001600160a01b03161590565b801580612ff25750604080517fdd62ed3e0000000000000000000000000000000000000000000000000000000081523060048201526001600160a01b03848116602483015291519185169163dd62ed3e91604480820192602092909190829003018186803b158015612fc457600080fd5b505afa158015612fd8573d6000803e3d6000fd5b505050506040513d6020811015612fee57600080fd5b5051155b61302d5760405162461bcd60e51b81526004018080602001828103825260368152602001806135256036913960400191505060405180910390fd5b604080516001600160a01b038416602482015260448082018490528251808303909101815260649091019091526020810180517bffffffffffffffffffffffffffffffffffffffffffffffffffffffff167f095ea7b30000000000000000000000000000000000000000000000000000000017905261086c90849061321d565b6000806130d284611cd7876020015164ffffffffff1642611d9e90919063ffffffff16565b905060006130e08583611d9e565b905061312285611df16130f38786612e47565b895161311c907affffffffffffffffffffffffffffffffffffffffffffffffffffff1686612e47565b90611bec565b9695505050505050565b600081831015612cf55781611c46565b6000818361318b5760405162461bcd60e51b8152602060048201818152835160248401528351909283926044909101919085019080838360008315612e04578181015183820152602001612dec565b50600083858161319757fe5b0495945050505050565b604080516001600160a01b038416602482015260448082018490528251808303909101815260649091019091526020810180517bffffffffffffffffffffffffffffffffffffffffffffffffffffffff167fa9059cbb0000000000000000000000000000000000000000000000000000000017905261086c9084905b6060613272826040518060400160405280602081526020017f5361666545524332303a206c6f772d6c6576656c2063616c6c206661696c6564815250856001600160a01b03166132ce9092919063ffffffff16565b80519091501561086c5780806020019051602081101561329157600080fd5b505161086c5760405162461bcd60e51b815260040180806020018281038252602a8152602001806134fb602a913960400191505060405180910390fd5b6060611e21848460008560606132e385613463565b613334576040805162461bcd60e51b815260206004820152601d60248201527f416464726573733a2063616c6c20746f206e6f6e2d636f6e7472616374000000604482015290519081900360640190fd5b60006060866001600160a01b031685876040518082805190602001908083835b6020831061339157805182527fffffffffffffffffffffffffffffffffffffffffffffffffffffffffffffffe09092019160209182019101613354565b6001836020036101000a03801982511681845116808217855250505050505090500191505060006040518083038185875af1925050503d80600081146133f3576040519150601f19603f3d011682016040523d82523d6000602084013e6133f8565b606091505b5091509150811561340c579150611e219050565b80511561341c5780518082602001fd5b60405162461bcd60e51b8152602060048201818152865160248401528651879391928392604401919085019080838360008315612e04578181015183820152602001612dec565b6000813f7fc5d2460186f7233c927e7db2dcc703c0e500b653ca82273b7bfad8045d85a470818114801590611e21575050151592915050565b60408051808201909152600080825260208201529056fe4f776e61626c653a206e6577206f776e657220697320746865207a65726f2061646472657373536166654d6174683a206d756c7469706c69636174696f6e206f766572666c6f775361666545524332303a204552433230206f7065726174696f6e20646964206e6f7420737563636565645361666545524332303a20617070726f76652066726f6d206e6f6e2d7a65726f20746f206e6f6e2d7a65726f20616c6c6f77616e6365a26469706673582212209373e0d193ed57532412fbe0035af820fb5b589b41826cc9438b0e1c6eb90af164736f6c634300060c0033",
  "immutableReferences": {
    "8457": [
      {
        "length": 32,
        "start": 2039
      },
      {
        "length": 32,
        "start": 3156
      },
      {
        "length": 32,
        "start": 3566
      },
      {
        "length": 32,
        "start": 5248
      },
      {
        "length": 32,
        "start": 5578
      },
      {
        "length": 32,
        "start": 8402
      }
    ],
    "8459": [
      {
        "length": 32,
        "start": 3216
      },
      {
        "length": 32,
        "start": 7745
      },
      {
        "length": 32,
        "start": 8739
      }
    ]
  },
  "source": "// SPDX-License-Identifier: MIT\n\npragma solidity ^0.6.0;\n\nimport \"./interfaces/IReferralFeeReceiver.sol\";\nimport \"./libraries/UniERC20.sol\";\nimport \"./utils/Converter.sol\";\n\n\ncontract ReferralFeeReceiver is IReferralFeeReceiver, Converter {\n    using UniERC20 for IERC20;\n\n    struct UserInfo {\n        uint256 balance;\n        mapping(IERC20 => mapping(uint256 => uint256)) share;\n        mapping(IERC20 => uint256) firstUnprocessedEpoch;\n    }\n\n    struct EpochBalance {\n        uint256 totalSupply;\n        uint256 token0Balance;\n        uint256 token1Balance;\n        uint256 inchBalance;\n    }\n\n    struct TokenInfo {\n        mapping(uint256 => EpochBalance) epochBalance;\n        uint256 firstUnprocessedEpoch;\n        uint256 currentEpoch;\n    }\n\n    mapping(address => UserInfo) public userInfo;\n    mapping(IERC20 => TokenInfo) public tokenInfo;\n\n    // solhint-disable-next-line no-empty-blocks\n    constructor(IERC20 _inchToken, IMooniswapFactory _mooniswapFactory) public Converter(_inchToken, _mooniswapFactory) {}\n\n    function updateReward(address referral, uint256 amount) external override {\n        Mooniswap mooniswap = Mooniswap(msg.sender);\n        TokenInfo storage token = tokenInfo[mooniswap];\n        UserInfo storage user = userInfo[referral];\n        uint256 currentEpoch = token.currentEpoch;\n\n        // Add new reward to current epoch\n        user.share[mooniswap][currentEpoch] = user.share[mooniswap][currentEpoch].add(amount);\n        token.epochBalance[currentEpoch].totalSupply = token.epochBalance[currentEpoch].totalSupply.add(amount);\n\n        // Collect all processed epochs and advance user token epoch\n        _collectProcessedEpochs(user, token, mooniswap, currentEpoch);\n    }\n\n    function freezeEpoch(Mooniswap mooniswap, IERC20[] memory token0Path, IERC20[] memory token1Path)\n        external validSpread(mooniswap) validPath(token0Path) validPath(token1Path)\n    {\n        TokenInfo storage token = tokenInfo[mooniswap];\n        uint256 currentEpoch = token.currentEpoch;\n        require(token.firstUnprocessedEpoch == currentEpoch, \"Previous epoch is not finalized\");\n\n        IERC20[] memory tokens = mooniswap.getTokens();\n        require(token0Path[0] == tokens[0], \"invalid token0Path start\");\n        require(token1Path[0] == tokens[1], \"invalid token1Path start\");\n\n        uint256 token0Balance = tokens[0].uniBalanceOf(address(this));\n        uint256 token1Balance = tokens[1].uniBalanceOf(address(this));\n        mooniswap.withdraw(mooniswap.balanceOf(address(this)), new uint256[](0));\n        token0Balance = tokens[0].uniBalanceOf(address(this)).sub(token0Balance);\n        token1Balance = tokens[1].uniBalanceOf(address(this)).sub(token1Balance);\n\n        (,uint256 inchReward) = _maxAmountForSwap(token0Path, token0Balance);\n        require(inchReward > 0, \"Reward for token0 is too small\");\n        (,inchReward) = _maxAmountForSwap(token1Path, token1Balance);\n        require(inchReward > 0, \"Reward for token1 is too small\");\n\n        token.epochBalance[currentEpoch].token0Balance = token0Balance;\n        token.epochBalance[currentEpoch].token1Balance = token1Balance;\n        token.currentEpoch = currentEpoch.add(1);\n    }\n\n    function trade(Mooniswap mooniswap, IERC20[] memory path) external {\n        TokenInfo storage token = tokenInfo[mooniswap];\n        uint256 firstUnprocessedEpoch = token.firstUnprocessedEpoch;\n        EpochBalance storage epochBalance = token.epochBalance[firstUnprocessedEpoch];\n        require(firstUnprocessedEpoch.add(1) == token.currentEpoch, \"Prev epoch already finalized\");\n\n        IERC20[] memory tokens = mooniswap.getTokens();\n        uint256 availableBalance;\n        if (path[0] == tokens[0]) {\n            availableBalance = epochBalance.token0Balance;\n        } else if (path[0] == tokens[1]) {\n            availableBalance = epochBalance.token1Balance;\n        } else {\n            revert(\"Invalid first token\");\n        }\n\n        (uint256 amount,) = _maxAmountForSwap(path, availableBalance);\n        uint256 receivedAmount = _swap(path, amount, payable(address(this)));\n        epochBalance.inchBalance = epochBalance.inchBalance.add(receivedAmount);\n        if (path[0] == tokens[0]) {\n            epochBalance.token0Balance = epochBalance.token0Balance.sub(amount);\n        } else {\n            epochBalance.token1Balance = epochBalance.token1Balance.sub(amount);\n        }\n\n        if (epochBalance.token0Balance == 0 && epochBalance.token1Balance == 0) {\n            token.firstUnprocessedEpoch = firstUnprocessedEpoch.add(1);\n        }\n    }\n\n    function claim(Mooniswap[] memory pools) external {\n        UserInfo storage user = userInfo[msg.sender];\n        for (uint256 i = 0; i < pools.length; ++i) {\n            Mooniswap mooniswap = pools[i];\n            TokenInfo storage token = tokenInfo[mooniswap];\n            _collectProcessedEpochs(user, token, mooniswap, token.currentEpoch);\n        }\n\n        uint256 balance = user.balance;\n        if (balance > 1) {\n            // Avoid erasing storage to decrease gas footprint for referral payments\n            user.balance = 1;\n            inchToken.transfer(msg.sender, balance - 1);\n        }\n    }\n\n    function claimCurrentEpoch(Mooniswap mooniswap) external {\n        TokenInfo storage token = tokenInfo[mooniswap];\n        UserInfo storage user = userInfo[msg.sender];\n        uint256 currentEpoch = token.currentEpoch;\n        uint256 balance = user.share[mooniswap][currentEpoch];\n        if (balance > 0) {\n            user.share[mooniswap][currentEpoch] = 0;\n            token.epochBalance[currentEpoch].totalSupply = token.epochBalance[currentEpoch].totalSupply.sub(balance);\n            mooniswap.transfer(msg.sender, balance);\n        }\n    }\n\n    function claimFrozenEpoch(Mooniswap mooniswap) external {\n        TokenInfo storage token = tokenInfo[mooniswap];\n        UserInfo storage user = userInfo[msg.sender];\n        uint256 firstUnprocessedEpoch = token.firstUnprocessedEpoch;\n        uint256 currentEpoch = token.currentEpoch;\n\n        require(firstUnprocessedEpoch.add(1) == currentEpoch, \"Epoch already finalized\");\n        require(user.firstUnprocessedEpoch[mooniswap] == firstUnprocessedEpoch, \"Epoch funds already claimed\");\n\n        user.firstUnprocessedEpoch[mooniswap] = currentEpoch;\n        uint256 share = user.share[mooniswap][firstUnprocessedEpoch];\n\n        if (share > 0) {\n            EpochBalance storage epochBalance = token.epochBalance[firstUnprocessedEpoch];\n            uint256 totalSupply = epochBalance.totalSupply;\n            user.share[mooniswap][firstUnprocessedEpoch] = 0;\n            epochBalance.totalSupply = totalSupply.sub(share);\n\n            IERC20[] memory tokens = mooniswap.getTokens();\n            epochBalance.token0Balance = _transferTokenShare(tokens[0], epochBalance.token0Balance, share, totalSupply);\n            epochBalance.token1Balance = _transferTokenShare(tokens[1], epochBalance.token1Balance, share, totalSupply);\n            epochBalance.inchBalance = _transferTokenShare(inchToken, epochBalance.inchBalance, share, totalSupply);\n        }\n    }\n\n    function _transferTokenShare(IERC20 token, uint256 balance, uint256 share, uint256 totalSupply) private returns(uint256 newBalance) {\n        uint256 amount = balance.mul(share).div(totalSupply);\n        if (amount > 0) {\n            token.uniTransfer(msg.sender, amount);\n        }\n        return balance.sub(amount);\n    }\n\n    function _collectProcessedEpochs(UserInfo storage user, TokenInfo storage token, Mooniswap mooniswap, uint256 currentEpoch) private {\n        // Early return for the new users\n        if (user.share[mooniswap][user.firstUnprocessedEpoch[mooniswap]] == 0) {\n            user.firstUnprocessedEpoch[mooniswap] = currentEpoch;\n            return;\n        }\n\n        uint256 userEpoch = user.firstUnprocessedEpoch[mooniswap];\n        uint256 tokenEpoch = token.firstUnprocessedEpoch;\n        uint256 epochCount = Math.min(2, tokenEpoch.sub(userEpoch)); // 0, 1 or 2 epochs\n        if (epochCount == 0) {\n            return;\n        }\n\n        // Claim 1 or 2 processed epochs for the user\n        uint256 collected = _collectEpoch(user, token, mooniswap, userEpoch);\n        if (epochCount > 1) {\n            collected = collected.add(_collectEpoch(user, token, mooniswap, userEpoch + 1));\n        }\n        user.balance = user.balance.add(collected);\n\n        // Update user token epoch counter\n        bool emptySecondEpoch = user.share[mooniswap][userEpoch + 1] == 0;\n        user.firstUnprocessedEpoch[mooniswap] = (epochCount == 2 || emptySecondEpoch) ? currentEpoch : userEpoch + 1;\n    }\n\n    function _collectEpoch(UserInfo storage user, TokenInfo storage token, Mooniswap mooniswap, uint256 epoch) private returns(uint256 collected) {\n        uint256 inchBalance = token.epochBalance[epoch].inchBalance;\n        uint256 share = user.share[mooniswap][epoch];\n        uint256 totalSupply = token.epochBalance[epoch].totalSupply;\n\n        collected = inchBalance.mul(share).div(totalSupply);\n\n        user.share[mooniswap][epoch] = 0;\n        token.epochBalance[epoch].totalSupply = totalSupply.sub(share);\n        token.epochBalance[epoch].inchBalance = inchBalance.sub(collected);\n    }\n}\n",
  "sourcePath": "/Users/zumzoom/Projects/1inch/mooniswap-v2/contracts/ReferralFeeReceiver.sol",
  "compiler": {
    "name": "solc",
    "version": "0.6.12+commit.27d51765.Emscripten.clang"
  },
  "schemaVersion": "3.3.2",
  "updatedAt": "2020-12-10T10:45:22.130Z",
  "devdoc": {
    "kind": "dev",
    "methods": {
      "owner()": {
        "details": "Returns the address of the current owner."
      },
      "renounceOwnership()": {
        "details": "Leaves the contract without owner. It will not be possible to call `onlyOwner` functions anymore. Can only be called by the current owner. NOTE: Renouncing ownership will leave the contract without an owner, thereby removing any functionality that is only available to the owner."
      },
      "transferOwnership(address)": {
        "details": "Transfers ownership of the contract to a new account (`newOwner`). Can only be called by the current owner."
      }
    },
    "version": 1
  },
  "userdoc": {
    "kind": "user",
    "methods": {},
    "version": 1
  }
}