{
  "contractName": "ReferralFeeReceiver",
  "abi": [
    {
      "inputs": [
        {
          "internalType": "contract IERC20",
          "name": "_inchToken",
          "type": "address"
        },
        {
          "internalType": "contract IMooniswapFactory",
          "name": "_mooniswapFactory",
          "type": "address"
        }
      ],
      "stateMutability": "nonpayable",
      "type": "constructor"
    },
    {
      "anonymous": false,
      "inputs": [
        {
          "indexed": true,
          "internalType": "address",
          "name": "previousOwner",
          "type": "address"
        },
        {
          "indexed": true,
          "internalType": "address",
          "name": "newOwner",
          "type": "address"
        }
      ],
      "name": "OwnershipTransferred",
      "type": "event"
    },
    {
      "inputs": [],
      "name": "inchToken",
      "outputs": [
        {
          "internalType": "contract IERC20",
          "name": "",
          "type": "address"
        }
      ],
      "stateMutability": "view",
      "type": "function"
    },
    {
      "inputs": [],
      "name": "mooniswapFactory",
      "outputs": [
        {
          "internalType": "contract IMooniswapFactory",
          "name": "",
          "type": "address"
        }
      ],
      "stateMutability": "view",
      "type": "function"
    },
    {
      "inputs": [],
      "name": "owner",
      "outputs": [
        {
          "internalType": "address",
          "name": "",
          "type": "address"
        }
      ],
      "stateMutability": "view",
      "type": "function"
    },
    {
      "inputs": [
        {
          "internalType": "contract IERC20",
          "name": "",
          "type": "address"
        }
      ],
      "name": "pathWhitelist",
      "outputs": [
        {
          "internalType": "bool",
          "name": "",
          "type": "bool"
        }
      ],
      "stateMutability": "view",
      "type": "function"
    },
    {
      "inputs": [],
      "name": "renounceOwnership",
      "outputs": [],
      "stateMutability": "nonpayable",
      "type": "function"
    },
    {
      "inputs": [
        {
          "internalType": "contract IERC20",
          "name": "",
          "type": "address"
        }
      ],
      "name": "tokenInfo",
      "outputs": [
        {
          "internalType": "uint256",
          "name": "firstUnprocessedEpoch",
          "type": "uint256"
        },
        {
          "internalType": "uint256",
          "name": "currentEpoch",
          "type": "uint256"
        }
      ],
      "stateMutability": "view",
      "type": "function"
    },
    {
      "inputs": [
        {
          "internalType": "address",
          "name": "newOwner",
          "type": "address"
        }
      ],
      "name": "transferOwnership",
      "outputs": [],
      "stateMutability": "nonpayable",
      "type": "function"
    },
    {
      "inputs": [
        {
          "internalType": "contract IERC20",
          "name": "token",
          "type": "address"
        },
        {
          "internalType": "bool",
          "name": "whitelisted",
          "type": "bool"
        }
      ],
      "name": "updatePathWhitelist",
      "outputs": [],
      "stateMutability": "nonpayable",
      "type": "function"
    },
    {
      "inputs": [
        {
          "internalType": "address",
          "name": "",
          "type": "address"
        }
      ],
      "name": "userInfo",
      "outputs": [
        {
          "internalType": "uint256",
          "name": "balance",
          "type": "uint256"
        }
      ],
      "stateMutability": "view",
      "type": "function"
    },
    {
      "inputs": [
        {
          "internalType": "address",
          "name": "referral",
          "type": "address"
        },
        {
          "internalType": "uint256",
          "name": "amount",
          "type": "uint256"
        }
      ],
      "name": "updateReward",
      "outputs": [],
      "stateMutability": "nonpayable",
      "type": "function"
    },
    {
      "inputs": [
        {
          "internalType": "contract Mooniswap",
          "name": "mooniswap",
          "type": "address"
        }
      ],
      "name": "freezeEpoch",
      "outputs": [],
      "stateMutability": "nonpayable",
      "type": "function"
    },
    {
      "inputs": [
        {
          "internalType": "contract Mooniswap",
          "name": "mooniswap",
          "type": "address"
        },
        {
          "internalType": "contract IERC20[]",
          "name": "path",
          "type": "address[]"
        }
      ],
      "name": "trade",
      "outputs": [],
      "stateMutability": "nonpayable",
      "type": "function"
    },
    {
      "inputs": [
        {
          "internalType": "contract Mooniswap[]",
          "name": "pools",
          "type": "address[]"
        }
      ],
      "name": "claim",
      "outputs": [],
      "stateMutability": "nonpayable",
      "type": "function"
    },
    {
      "inputs": [
        {
          "internalType": "contract Mooniswap",
          "name": "mooniswap",
          "type": "address"
        }
      ],
      "name": "claimCurrentEpoch",
      "outputs": [],
      "stateMutability": "nonpayable",
      "type": "function"
    },
    {
      "inputs": [
        {
          "internalType": "contract Mooniswap",
          "name": "mooniswap",
          "type": "address"
        }
      ],
      "name": "claimFrozenEpoch",
      "outputs": [],
      "stateMutability": "nonpayable",
      "type": "function"
    }
  ],
  "bytecode": "0x60c06040523480156200001157600080fd5b506040516200300638038062003006833981810160405260408110156200003757600080fd5b508051602090910151818160006200004e620000ba565b600080546001600160a01b0319166001600160a01b0383169081178255604051929350917f8be0079c531659141344cd1fd0a4f28419497f9722a3daafe3b4186f6b6457e0908290a3506001600160601b0319606092831b8116608052911b1660a05250620000be9050565b3390565b60805160601c60a05160601c612f056200010160003980610a6b5280611e57528061223f5250806105d25280610a2f5280610fd652806120f15250612f056000f3fe608060405234801561001057600080fd5b50600436106100f55760003560e01c80638da5cb5b11610097578063f2fde38b11610066578063f2fde38b146102eb578063f3aafa8014610311578063f583adbc146103c4578063f5dab711146103f2576100f5565b80638da5cb5b1461028f578063946e1a62146102975780639e96b2ce146102bd578063ec954594146102e3576100f5565b80635e8c8bb7116100d35780635e8c8bb714610203578063715018a61461023d57806371646f9814610245578063857311401461026b576100f5565b80631959a002146100fa5780631a39912514610132578063318d9e5d14610160575b600080fd5b6101206004803603602081101561011057600080fd5b50356001600160a01b0316610431565b60408051918252519081900360200190f35b61015e6004803603604081101561014857600080fd5b506001600160a01b038135169060200135610443565b005b61015e6004803603602081101561017657600080fd5b81019060208101813564010000000081111561019157600080fd5b8201836020820111156101a357600080fd5b803590602001918460208302840111640100000000831117156101c557600080fd5b9190808060200260200160405190810160405280939291908181526020018383602002808284376000920191909152509295506104ec945050505050565b6102296004803603602081101561021957600080fd5b50356001600160a01b031661064c565b604080519115158252519081900360200190f35b61015e610661565b61015e6004803603602081101561025b57600080fd5b50356001600160a01b031661072d565b610273610a69565b604080516001600160a01b039092168252519081900360200190f35b610273610a8d565b61015e600480360360208110156102ad57600080fd5b50356001600160a01b0316610a9c565b61015e600480360360208110156102d357600080fd5b50356001600160a01b0316610ea9565b610273610fd4565b61015e6004803603602081101561030157600080fd5b50356001600160a01b0316610ff8565b61015e6004803603604081101561032757600080fd5b6001600160a01b03823516919081019060408101602082013564010000000081111561035257600080fd5b82018360208201111561036457600080fd5b8035906020019184602083028401116401000000008311171561038657600080fd5b91908080602002602001604051908101604052809392919081815260200183836020028082843760009201919091525092955061111a945050505050565b61015e600480360360408110156103da57600080fd5b506001600160a01b038135169060200135151561148e565b6104186004803603602081101561040857600080fd5b50356001600160a01b0316611541565b6040805192835260208301919091528051918290030190f35b60026020526000908152604090205481565b3360008181526003602090815260408083206001600160a01b03871684526002808452828520908201548686526001820185528386208187529094529190932054909190610491908661155d565b6001600160a01b0385166000908152600184016020908152604080832085845282528083209390935585905220546104c9908661155d565b6000828152602085905260409020556104e4828486846115c0565b505050505050565b336000908152600260205260408120905b825181101561056157600083828151811061051457fe5b60200260200101519050600060036000836001600160a01b03166001600160a01b03168152602001908152602001600020905061055784828484600201546115c0565b50506001016104fd565b50805460018111156106475760018255604080517fa9059cbb0000000000000000000000000000000000000000000000000000000081523360048201527fffffffffffffffffffffffffffffffffffffffffffffffffffffffffffffffff8301602482015290516001600160a01b037f0000000000000000000000000000000000000000000000000000000000000000169163a9059cbb9160448083019260209291908290030181600087803b15801561061a57600080fd5b505af115801561062e573d6000803e3d6000fd5b505050506040513d602081101561064457600080fd5b50505b505050565b60016020526000908152604090205460ff1681565b61066961170b565b6000546001600160a01b039081169116146106cb576040805162461bcd60e51b815260206004820181905260248201527f4f776e61626c653a2063616c6c6572206973206e6f7420746865206f776e6572604482015290519081900360640190fd5b600080546040516001600160a01b03909116907f8be0079c531659141344cd1fd0a4f28419497f9722a3daafe3b4186f6b6457e0908390a3600080547fffffffffffffffffffffffff0000000000000000000000000000000000000000169055565b6001600160a01b038116600090815260036020908152604080832033845260029283905292206001808401549284015491929190819061076e90849061155d565b146107c0576040805162461bcd60e51b815260206004820152601760248201527f45706f636820616c72656164792066696e616c697a6564000000000000000000604482015290519081900360640190fd5b6001600160a01b0385166000908152600284016020526040902054821461082e576040805162461bcd60e51b815260206004820152601b60248201527f45706f63682066756e647320616c726561647920636c61696d65640000000000604482015290519081900360640190fd5b6001600160a01b0385166000908152600284016020908152604080832084905560018601825280832085845290915290205480156104e45760008381526020868152604080832080546001600160a01b038b168552600189018452828520888652909352908320929092556108a3818461170f565b82600001819055506060886001600160a01b031663aa6ca8086040518163ffffffff1660e01b815260040160006040518083038186803b1580156108e657600080fd5b505afa1580156108fa573d6000803e3d6000fd5b505050506040513d6000823e601f3d9081017fffffffffffffffffffffffffffffffffffffffffffffffffffffffffffffffe0168201604052602081101561094157600080fd5b810190808051604051939291908464010000000082111561096157600080fd5b90830190602082018581111561097657600080fd5b825186602082028301116401000000008211171561099357600080fd5b82525081516020918201928201910280838360005b838110156109c05781810151838201526020016109a8565b5050505090500160405250505090506109f3816000815181106109df57fe5b602002602001015184600101548685611751565b8360010181905550610a1f81600181518110610a0b57fe5b602002602001015184600201548685611751565b60028401556003830154610a56907f0000000000000000000000000000000000000000000000000000000000000000908685611751565b8360030181905550505050505050505050565b7f000000000000000000000000000000000000000000000000000000000000000081565b6000546001600160a01b031690565b80610aa68161179a565b610af7576040805162461bcd60e51b815260206004820152601260248201527f53707265616420697320746f6f20686967680000000000000000000000000000604482015290519081900360640190fd5b6001600160a01b0382166000908152600360205260409020600281015460018201548114610b6c576040805162461bcd60e51b815260206004820152601f60248201527f50726576696f75732065706f6368206973206e6f742066696e616c697a656400604482015290519081900360640190fd5b610b7781600161155d565b82600201819055506060846001600160a01b031663aa6ca8086040518163ffffffff1660e01b815260040160006040518083038186803b158015610bba57600080fd5b505afa158015610bce573d6000803e3d6000fd5b505050506040513d6000823e601f3d9081017fffffffffffffffffffffffffffffffffffffffffffffffffffffffffffffffe01682016040526020811015610c1557600080fd5b8101908080516040519392919084640100000000821115610c3557600080fd5b908301906020820185811115610c4a57600080fd5b8251866020820283011164010000000082111715610c6757600080fd5b82525081516020918201928201910280838360005b83811015610c94578181015183820152602001610c7c565b5050505090500160405250505090506000610cd53083600081518110610cb657fe5b60200260200101516001600160a01b0316611d9e90919063ffffffff16565b90506000610cea3084600181518110610cb657fe5b9050866001600160a01b0316635915d806886001600160a01b03166370a08231306040518263ffffffff1660e01b815260040180826001600160a01b0316815260200191505060206040518083038186803b158015610d4857600080fd5b505afa158015610d5c573d6000803e3d6000fd5b505050506040513d6020811015610d7257600080fd5b50516040805160008082526020820190925290506040518363ffffffff1660e01b81526004018083815260200180602001828103825283818151815260200191508051906020019060200280838360005b83811015610ddb578181015183820152602001610dc3565b5050505090500193505050506040805180830381600087803b158015610e0057600080fd5b505af1158015610e14573d6000803e3d6000fd5b505050506040513d601f19601f820116820180604052506040811015610e3957600080fd5b50508251610e5a908390610e549030908790600090610cb657fe5b9061170f565b85600001600086815260200190815260200160002060010181905550610e8b81610e543086600181518110610cb657fe5b60009485526020959095525050604090912060020191909155505050565b6001600160a01b0381166000818152600360209081526040808320338452600280845282852090820154958552600181018452828520868652909352922054919290918015610644576001600160a01b03851660009081526001840160209081526040808320858452825280832083905590869052902054610f2b908261170f565b6000838152602086815260408083209390935582517fa9059cbb0000000000000000000000000000000000000000000000000000000081523360048201526024810185905292516001600160a01b0389169363a9059cbb9360448083019493928390030190829087803b158015610fa157600080fd5b505af1158015610fb5573d6000803e3d6000fd5b505050506040513d6020811015610fcb57600080fd5b50505050505050565b7f000000000000000000000000000000000000000000000000000000000000000081565b61100061170b565b6000546001600160a01b03908116911614611062576040805162461bcd60e51b815260206004820181905260248201527f4f776e61626c653a2063616c6c6572206973206e6f7420746865206f776e6572604482015290519081900360640190fd5b6001600160a01b0381166110a75760405162461bcd60e51b8152600401808060200182810382526026815260200180612e296026913960400191505060405180910390fd5b600080546040516001600160a01b03808516939216917f8be0079c531659141344cd1fd0a4f28419497f9722a3daafe3b4186f6b6457e091a3600080547fffffffffffffffffffffffff0000000000000000000000000000000000000000166001600160a01b0392909216919091179055565b6001600160a01b038216600090815260036020908152604080832060018082015480865293829052919093206002840154909161115890849061155d565b146111aa576040805162461bcd60e51b815260206004820152601c60248201527f507265762065706f636820616c72656164792066696e616c697a656400000000604482015290519081900360640190fd5b6060856001600160a01b031663aa6ca8086040518163ffffffff1660e01b815260040160006040518083038186803b1580156111e557600080fd5b505afa1580156111f9573d6000803e3d6000fd5b505050506040513d6000823e601f3d9081017fffffffffffffffffffffffffffffffffffffffffffffffffffffffffffffffe0168201604052602081101561124057600080fd5b810190808051604051939291908464010000000082111561126057600080fd5b90830190602082018581111561127557600080fd5b825186602082028301116401000000008211171561129257600080fd5b82525081516020918201928201910280838360005b838110156112bf5781810151838201526020016112a7565b5050505090500160405250505090506000816000815181106112dd57fe5b60200260200101516001600160a01b0316866000815181106112fb57fe5b60200260200101516001600160a01b0316141561131d575060018201546113b7565b8160018151811061132a57fe5b60200260200101516001600160a01b03168660008151811061134857fe5b60200260200101516001600160a01b0316141561136a575060028201546113b7565b6040805162461bcd60e51b815260206004820152601360248201527f496e76616c696420666972737420746f6b656e00000000000000000000000000604482015290519081900360640190fd5b60006113c38783611e3f565b905060006113d2888330612043565b60038601549091506113e4908261155d565b6003860155835184906000906113f657fe5b60200260200101516001600160a01b03168860008151811061141457fe5b60200260200101516001600160a01b0316141561144457600185015461143a908361170f565b6001860155611459565b6002850154611453908361170f565b60028601555b600185015415801561146d57506002850154155b156114835761147d86600161155d565b60018801555b505050505050505050565b61149661170b565b6000546001600160a01b039081169116146114f8576040805162461bcd60e51b815260206004820181905260248201527f4f776e61626c653a2063616c6c6572206973206e6f7420746865206f776e6572604482015290519081900360640190fd5b6001600160a01b0391909116600090815260016020526040902080547fffffffffffffffffffffffffffffffffffffffffffffffffffffffffffffff0016911515919091179055565b6003602052600090815260409020600181015460029091015482565b6000828201838110156115b7576040805162461bcd60e51b815260206004820152601b60248201527f536166654d6174683a206164646974696f6e206f766572666c6f770000000000604482015290519081900360640190fd5b90505b92915050565b6001600160a01b03821660009081526001850160209081526040808320600288018352818420548452909152902054611615576001600160a01b03821660009081526002850160205260409020819055611705565b6001600160a01b03821660009081526002808601602052604082205460018601549092909161164d90611648848661170f565b61265b565b90508061165c57505050611705565b600061166a88888887612671565b905060018211156116915761168e61168789898988600101612671565b829061155d565b90505b875461169d908261155d565b88556001600160a01b03861660009081526001808a016020908152604080842092880184529190529020541560028314806116d55750805b6116e257846001016116e4565b855b6001600160a01b038816600090815260028b01602052604090205550505050505b50505050565b3390565b60006115b783836040518060400160405280601e81526020017f536166654d6174683a207375627472616374696f6e206f766572666c6f770000815250612725565b6000806117688361176287876127bc565b90612815565b90508015611784576117846001600160a01b0387163383612857565b61178e858261170f565b9150505b949350505050565b60006060826001600160a01b031663aa6ca8086040518163ffffffff1660e01b815260040160006040518083038186803b1580156117d757600080fd5b505afa1580156117eb573d6000803e3d6000fd5b505050506040513d6000823e601f3d9081017fffffffffffffffffffffffffffffffffffffffffffffffffffffffffffffffe0168201604052602081101561183257600080fd5b810190808051604051939291908464010000000082111561185257600080fd5b90830190602082018581111561186757600080fd5b825186602082028301116401000000008211171561188457600080fd5b82525081516020918201928201910280838360005b838110156118b1578181015183820152602001611899565b5050505090500160405250505090506000806000806118d78786600081518110610cb657fe5b905060006118ec8887600181518110610cb657fe5b90506000886001600160a01b03166348d67e1b6040518163ffffffff1660e01b815260040160206040518083038186803b15801561192957600080fd5b505afa15801561193d573d6000803e3d6000fd5b505050506040513d602081101561195357600080fd5b5051905061195f612e11565b896001600160a01b0316636edc2c098960008151811061197b57fe5b60200260200101516040518263ffffffff1660e01b815260040180826001600160a01b03168152602001915050604080518083038186803b1580156119bf57600080fd5b505afa1580156119d3573d6000803e3d6000fd5b505050506040513d60408110156119e957600080fd5b50805160209182015164ffffffffff16918301919091527affffffffffffffffffffffffffffffffffffffffffffffffffffff1681526000611a35611a2f8385886128bb565b8661293a565b90508a6001600160a01b0316636edc2c098a600181518110611a5357fe5b60200260200101516040518263ffffffff1660e01b815260040180826001600160a01b03168152602001915050604080518083038186803b158015611a9757600080fd5b505afa158015611aab573d6000803e3d6000fd5b505050506040513d6040811015611ac157600080fd5b50805160209182015164ffffffffff16918401919091527affffffffffffffffffffffffffffffffffffffffffffffffffffff1682526000611b07611a2f8486886128bb565b90508b6001600160a01b0316635ed9156d8b600081518110611b2557fe5b60200260200101516040518263ffffffff1660e01b815260040180826001600160a01b03168152602001915050604080518083038186803b158015611b6957600080fd5b505afa158015611b7d573d6000803e3d6000fd5b505050506040513d6040811015611b9357600080fd5b50805160209182015164ffffffffff16918501919091527affffffffffffffffffffffffffffffffffffffffffffffffffffff1683526000611bdf611bd985878a6128bb565b8861265b565b90508c6001600160a01b0316635ed9156d8c600181518110611bfd57fe5b60200260200101516040518263ffffffff1660e01b815260040180826001600160a01b03168152602001915050604080518083038186803b158015611c4157600080fd5b505afa158015611c55573d6000803e3d6000fd5b505050506040513d6040811015611c6b57600080fd5b50805160209182015164ffffffffff16918601919091527affffffffffffffffffffffffffffffffffffffffffffffffffffff1684526000611cb1611bd986888a6128bb565b9050611cc982611762670de0b6b3a7640000866127bc565b9a50611ce184611762670de0b6b3a7640000846127bc565b9950611cf988611762670de0b6b3a76400008a6127bc565b98505050505050505050611d7d81611d77600a896001600160a01b031663ddca3f436040518163ffffffff1660e01b815260040160206040518083038186803b158015611d4557600080fd5b505afa158015611d59573d6000803e3d6000fd5b505050506040513d6020811015611d6f57600080fd5b5051906127bc565b906127bc565b611d93670de0b6b3a7640000611d77868661170f565b109695505050505050565b6000611da98361294a565b15611dbf57506001600160a01b038116316115ba565b826001600160a01b03166370a08231836040518263ffffffff1660e01b815260040180826001600160a01b0316815260200191505060206040518083038186803b158015611e0c57600080fd5b505afa158015611e20573d6000803e3d6000fd5b505050506040513d6020811015611e3657600080fd5b505190506115ba565b81518190819060005b8181600101101561203a5760007f00000000000000000000000000000000000000000000000000000000000000006001600160a01b031663901754d7888481518110611e9057fe5b6020026020010151898560010181518110611ea757fe5b60200260200101516040518363ffffffff1660e01b815260040180836001600160a01b03168152602001826001600160a01b031681526020019250505060206040518083038186803b158015611efc57600080fd5b505afa158015611f10573d6000803e3d6000fd5b505050506040513d6020811015611f2657600080fd5b50518751909150600090611f49906064906117629085908c9088908110610cb657fe5b905084811015611f6757611f618561176288846127bc565b95508094505b8383600201101561203057816001600160a01b0316631e1401f8898581518110611f8d57fe5b60200260200101518a8660010181518110611fa457fe5b6020026020010151886040518463ffffffff1660e01b815260040180846001600160a01b03168152602001836001600160a01b03168152602001828152602001935050505060206040518083038186803b15801561200157600080fd5b505afa158015612015573d6000803e3d6000fd5b505050506040513d602081101561202b57600080fd5b505194505b5050600101611e48565b50505092915050565b82516000908061209a576040805162461bcd60e51b815260206004820152601460248201527f4d696e2070617468206c656e6774682069732031000000000000000000000000604482015290519081900360640190fd5b600581106120ef576040805162461bcd60e51b815260206004820152601460248201527f4d61782070617468206c656e6774682069732034000000000000000000000000604482015290519081900360640190fd5b7f00000000000000000000000000000000000000000000000000000000000000006001600160a01b031685600183038151811061212857fe5b60200260200101516001600160a01b03161461218b576040805162461bcd60e51b815260206004820152601b60248201527f53686f756c64207377617020746f2074617267657420746f6b656e0000000000604482015290519081900360640190fd5b83915060015b8181600101101561222c57600160008783815181106121ac57fe5b6020908102919091018101516001600160a01b031682528101919091526040016000205460ff16612224576040805162461bcd60e51b815260206004820152601860248201527f546f6b656e206973206e6f742077686974656c69737465640000000000000000604482015290519081900360640190fd5b600101612191565b5060005b818160010110156125b15760007f00000000000000000000000000000000000000000000000000000000000000006001600160a01b031663901754d788848151811061227857fe5b602002602001015189856001018151811061228f57fe5b60200260200101516040518363ffffffff1660e01b815260040180836001600160a01b03168152602001826001600160a01b031681526020019250505060206040518083038186803b1580156122e457600080fd5b505afa1580156122f8573d6000803e3d6000fd5b505050506040513d602081101561230e57600080fd5b5051905061231b8161179a565b61236c576040805162461bcd60e51b815260206004820152601260248201527f53707265616420697320746f6f20686967680000000000000000000000000000604482015290519081900360640190fd5b600084905061239688848151811061238057fe5b60200260200101516001600160a01b031661294a565b6123cf576123cb82868a86815181106123ab57fe5b60200260200101516001600160a01b03166129579092919063ffffffff16565b5060005b838360020110156124b957816001600160a01b031663d5bcb9b5828a86815181106123f657fe5b60200260200101518b876001018151811061240d57fe5b6020026020010151896000806040518763ffffffff1660e01b815260040180866001600160a01b03168152602001856001600160a01b03168152602001848152602001838152602001826001600160a01b03168152602001955050505050506020604051808303818588803b15801561248557600080fd5b505af1158015612499573d6000803e3d6000fd5b50505050506040513d60208110156124b057600080fd5b505194506125a7565b816001600160a01b031663e331d039828a86815181106124d557fe5b60200260200101518b87600101815181106124ec57fe5b602090810291909101810151604080517fffffffff0000000000000000000000000000000000000000000000000000000060e088901b1681526001600160a01b0394851660048201529184166024830152604482018c90526000606483018190526084830152928c1660a4820152915160c48084019382900301818588803b15801561257757600080fd5b505af115801561258b573d6000803e3d6000fd5b50505050506040513d60208110156125a257600080fd5b505194505b5050600101612230565b50806001141561265357846000815181106125c857fe5b60200260200101516001600160a01b031663a9059cbb84846040518363ffffffff1660e01b815260040180836001600160a01b0316815260200182815260200192505050602060405180830381600087803b15801561262657600080fd5b505af115801561263a573d6000803e3d6000fd5b505050506040513d602081101561265057600080fd5b50505b509392505050565b600081831061266a57816115b7565b5090919050565b60008181526020848152604080832060038101546001600160a01b038716855260018901845282852086865284529184205492879052549091906126b98161176285856127bc565b6001600160a01b038716600090815260018a016020908152604080832089845290915281205593506126eb818361170f565b600086815260208990526040902055612704838561170f565b60009586526020979097525050604090922060030193909355509092915050565b600081848411156127b45760405162461bcd60e51b81526004018080602001828103825283818151815260200191508051906020019080838360005b83811015612779578181015183820152602001612761565b50505050905090810190601f1680156127a65780820380516001836020036101000a031916815260200191505b509250505060405180910390fd5b505050900390565b6000826127cb575060006115ba565b828202828482816127d857fe5b04146115b75760405162461bcd60e51b8152600401808060200182810382526021815260200180612e4f6021913960400191505060405180910390fd5b60006115b783836040518060400160405280601a81526020017f536166654d6174683a206469766973696f6e206279207a65726f000000000000815250612ab1565b8015610647576128668361294a565b156128a7576040516001600160a01b0383169082156108fc029083906000818181858888f193505050501580156128a1573d6000803e3d6000fd5b50610647565b6106476001600160a01b0384168383612b16565b6000806128e084611648876020015164ffffffffff164261170f90919063ffffffff16565b905060006128ee858361170f565b90506129308561176261290187866127bc565b895161292a907affffffffffffffffffffffffffffffffffffffffffffffffffffff16866127bc565b9061155d565b9695505050505050565b60008183101561266a57816115b7565b6001600160a01b03161590565b8015806129f65750604080517fdd62ed3e0000000000000000000000000000000000000000000000000000000081523060048201526001600160a01b03848116602483015291519185169163dd62ed3e91604480820192602092909190829003018186803b1580156129c857600080fd5b505afa1580156129dc573d6000803e3d6000fd5b505050506040513d60208110156129f257600080fd5b5051155b612a315760405162461bcd60e51b8152600401808060200182810382526036815260200180612e9a6036913960400191505060405180910390fd5b604080516001600160a01b038416602482015260448082018490528251808303909101815260649091019091526020810180517bffffffffffffffffffffffffffffffffffffffffffffffffffffffff167f095ea7b300000000000000000000000000000000000000000000000000000000179052610647908490612b92565b60008183612b005760405162461bcd60e51b8152602060048201818152835160248401528351909283926044909101919085019080838360008315612779578181015183820152602001612761565b506000838581612b0c57fe5b0495945050505050565b604080516001600160a01b038416602482015260448082018490528251808303909101815260649091019091526020810180517bffffffffffffffffffffffffffffffffffffffffffffffffffffffff167fa9059cbb000000000000000000000000000000000000000000000000000000001790526106479084905b6060612be7826040518060400160405280602081526020017f5361666545524332303a206c6f772d6c6576656c2063616c6c206661696c6564815250856001600160a01b0316612c439092919063ffffffff16565b80519091501561064757808060200190516020811015612c0657600080fd5b50516106475760405162461bcd60e51b815260040180806020018281038252602a815260200180612e70602a913960400191505060405180910390fd5b606061179284846000856060612c5885612dd8565b612ca9576040805162461bcd60e51b815260206004820152601d60248201527f416464726573733a2063616c6c20746f206e6f6e2d636f6e7472616374000000604482015290519081900360640190fd5b60006060866001600160a01b031685876040518082805190602001908083835b60208310612d0657805182527fffffffffffffffffffffffffffffffffffffffffffffffffffffffffffffffe09092019160209182019101612cc9565b6001836020036101000a03801982511681845116808217855250505050505090500191505060006040518083038185875af1925050503d8060008114612d68576040519150601f19603f3d011682016040523d82523d6000602084013e612d6d565b606091505b50915091508115612d815791506117929050565b805115612d915780518082602001fd5b60405162461bcd60e51b8152602060048201818152865160248401528651879391928392604401919085019080838360008315612779578181015183820152602001612761565b6000813f7fc5d2460186f7233c927e7db2dcc703c0e500b653ca82273b7bfad8045d85a470818114801590611792575050151592915050565b60408051808201909152600080825260208201529056fe4f776e61626c653a206e6577206f776e657220697320746865207a65726f2061646472657373536166654d6174683a206d756c7469706c69636174696f6e206f766572666c6f775361666545524332303a204552433230206f7065726174696f6e20646964206e6f7420737563636565645361666545524332303a20617070726f76652066726f6d206e6f6e2d7a65726f20746f206e6f6e2d7a65726f20616c6c6f77616e6365a2646970667358221220f0235bd7042adefea26f2ae8470ae90b085acc3e41b115e995032a26d30192d864736f6c634300060c0033",
  "immutableReferences": {
    "7068": [
      {
        "length": 32,
        "start": 1490
      },
      {
        "length": 32,
        "start": 2607
      },
      {
        "length": 32,
        "start": 4054
      },
      {
        "length": 32,
        "start": 8433
      }
    ],
    "7070": [
      {
        "length": 32,
        "start": 2667
      },
      {
        "length": 32,
        "start": 7767
      },
      {
        "length": 32,
        "start": 8767
      }
    ]
  },
  "source": "// SPDX-License-Identifier: MIT\n\npragma solidity ^0.6.0;\n\nimport \"./interfaces/IReferralFeeReceiver.sol\";\nimport \"./libraries/UniERC20.sol\";\nimport \"./utils/Converter.sol\";\n\n\ncontract ReferralFeeReceiver is IReferralFeeReceiver, Converter {\n    using UniERC20 for IERC20;\n\n    struct UserInfo {\n        uint256 balance;\n        mapping(IERC20 => mapping(uint256 => uint256)) share;\n        mapping(IERC20 => uint256) firstUnprocessedEpoch;\n    }\n\n    struct EpochBalance {\n        uint256 totalSupply;\n        uint256 token0Balance;\n        uint256 token1Balance;\n        uint256 inchBalance;\n    }\n\n    struct TokenInfo {\n        mapping(uint256 => EpochBalance) epochBalance;\n        uint256 firstUnprocessedEpoch;\n        uint256 currentEpoch;\n    }\n\n    mapping(address => UserInfo) public userInfo;\n    mapping(IERC20 => TokenInfo) public tokenInfo;\n\n    // solhint-disable-next-line no-empty-blocks\n    constructor(IERC20 _inchToken, IMooniswapFactory _mooniswapFactory) public Converter(_inchToken, _mooniswapFactory) {}\n\n    function updateReward(address referral, uint256 amount) external override {\n        Mooniswap mooniswap = Mooniswap(msg.sender);\n        TokenInfo storage token = tokenInfo[mooniswap];\n        UserInfo storage user = userInfo[referral];\n        uint256 currentEpoch = token.currentEpoch;\n\n        // Add new reward to current epoch\n        user.share[mooniswap][currentEpoch] = user.share[mooniswap][currentEpoch].add(amount);\n        token.epochBalance[currentEpoch].totalSupply = token.epochBalance[currentEpoch].totalSupply.add(amount);\n\n        // Collect all processed epochs and advance user token epoch\n        _collectProcessedEpochs(user, token, mooniswap, currentEpoch);\n    }\n\n    function freezeEpoch(Mooniswap mooniswap) external validSpread(mooniswap) {\n        TokenInfo storage token = tokenInfo[mooniswap];\n        uint256 currentEpoch = token.currentEpoch;\n        require(token.firstUnprocessedEpoch == currentEpoch, \"Previous epoch is not finalized\");\n\n        token.currentEpoch = currentEpoch.add(1);\n\n        // Withdraw LP tokens\n        IERC20[] memory tokens = mooniswap.getTokens();\n        uint256 token0Balance = tokens[0].uniBalanceOf(address(this));\n        uint256 token1Balance = tokens[1].uniBalanceOf(address(this));\n        mooniswap.withdraw(mooniswap.balanceOf(address(this)), new uint256[](0));\n        token.epochBalance[currentEpoch].token0Balance = tokens[0].uniBalanceOf(address(this)).sub(token0Balance);\n        token.epochBalance[currentEpoch].token1Balance = tokens[1].uniBalanceOf(address(this)).sub(token1Balance);\n    }\n\n    function trade(Mooniswap mooniswap, IERC20[] memory path) external {\n        TokenInfo storage token = tokenInfo[mooniswap];\n        uint256 firstUnprocessedEpoch = token.firstUnprocessedEpoch;\n        EpochBalance storage epochBalance = token.epochBalance[firstUnprocessedEpoch];\n        require(firstUnprocessedEpoch.add(1) == token.currentEpoch, \"Prev epoch already finalized\");\n\n        IERC20[] memory tokens = mooniswap.getTokens();\n        uint256 availableBalance;\n        if (path[0] == tokens[0]) {\n            availableBalance = epochBalance.token0Balance;\n        } else if (path[0] == tokens[1]) {\n            availableBalance = epochBalance.token1Balance;\n        } else {\n            revert(\"Invalid first token\");\n        }\n\n        uint256 amount = _maxAmountForSwap(path, availableBalance);\n        uint256 receivedAmount = _swap(path, amount, payable(address(this)));\n        epochBalance.inchBalance = epochBalance.inchBalance.add(receivedAmount);\n        if (path[0] == tokens[0]) {\n            epochBalance.token0Balance = epochBalance.token0Balance.sub(amount);\n        } else {\n            epochBalance.token1Balance = epochBalance.token1Balance.sub(amount);\n        }\n\n        if (epochBalance.token0Balance == 0 && epochBalance.token1Balance == 0) {\n            token.firstUnprocessedEpoch = firstUnprocessedEpoch.add(1);\n        }\n    }\n\n    function claim(Mooniswap[] memory pools) external {\n        UserInfo storage user = userInfo[msg.sender];\n        for (uint256 i = 0; i < pools.length; ++i) {\n            Mooniswap mooniswap = pools[i];\n            TokenInfo storage token = tokenInfo[mooniswap];\n            _collectProcessedEpochs(user, token, mooniswap, token.currentEpoch);\n        }\n\n        uint256 balance = user.balance;\n        if (balance > 1) {\n            // Avoid erasing storage to decrease gas footprint for referral payments\n            user.balance = 1;\n            inchToken.transfer(msg.sender, balance - 1);\n        }\n    }\n\n    function claimCurrentEpoch(Mooniswap mooniswap) external {\n        TokenInfo storage token = tokenInfo[mooniswap];\n        UserInfo storage user = userInfo[msg.sender];\n        uint256 currentEpoch = token.currentEpoch;\n        uint256 balance = user.share[mooniswap][currentEpoch];\n        if (balance > 0) {\n            user.share[mooniswap][currentEpoch] = 0;\n            token.epochBalance[currentEpoch].totalSupply = token.epochBalance[currentEpoch].totalSupply.sub(balance);\n            mooniswap.transfer(msg.sender, balance);\n        }\n    }\n\n    function claimFrozenEpoch(Mooniswap mooniswap) external {\n        TokenInfo storage token = tokenInfo[mooniswap];\n        UserInfo storage user = userInfo[msg.sender];\n        uint256 firstUnprocessedEpoch = token.firstUnprocessedEpoch;\n        uint256 currentEpoch = token.currentEpoch;\n\n        require(firstUnprocessedEpoch.add(1) == currentEpoch, \"Epoch already finalized\");\n        require(user.firstUnprocessedEpoch[mooniswap] == firstUnprocessedEpoch, \"Epoch funds already claimed\");\n\n        user.firstUnprocessedEpoch[mooniswap] = currentEpoch;\n        uint256 share = user.share[mooniswap][firstUnprocessedEpoch];\n\n        if (share > 0) {\n            EpochBalance storage epochBalance = token.epochBalance[firstUnprocessedEpoch];\n            uint256 totalSupply = epochBalance.totalSupply;\n            user.share[mooniswap][firstUnprocessedEpoch] = 0;\n            epochBalance.totalSupply = totalSupply.sub(share);\n\n            IERC20[] memory tokens = mooniswap.getTokens();\n            epochBalance.token0Balance = _transferTokenShare(tokens[0], epochBalance.token0Balance, share, totalSupply);\n            epochBalance.token1Balance = _transferTokenShare(tokens[1], epochBalance.token1Balance, share, totalSupply);\n            epochBalance.inchBalance = _transferTokenShare(inchToken, epochBalance.inchBalance, share, totalSupply);\n        }\n    }\n\n    function _transferTokenShare(IERC20 token, uint256 balance, uint256 share, uint256 totalSupply) private returns(uint256 newBalance) {\n        uint256 amount = balance.mul(share).div(totalSupply);\n        if (amount > 0) {\n            token.uniTransfer(msg.sender, amount);\n        }\n        return balance.sub(amount);\n    }\n\n    function _collectProcessedEpochs(UserInfo storage user, TokenInfo storage token, Mooniswap mooniswap, uint256 currentEpoch) private {\n        // Early return for the new users\n        if (user.share[mooniswap][user.firstUnprocessedEpoch[mooniswap]] == 0) {\n            user.firstUnprocessedEpoch[mooniswap] = currentEpoch;\n            return;\n        }\n\n        uint256 userEpoch = user.firstUnprocessedEpoch[mooniswap];\n        uint256 tokenEpoch = token.firstUnprocessedEpoch;\n        uint256 epochCount = Math.min(2, tokenEpoch.sub(userEpoch)); // 0, 1 or 2 epochs\n        if (epochCount == 0) {\n            return;\n        }\n\n        // Claim 1 or 2 processed epochs for the user\n        uint256 collected = _collectEpoch(user, token, mooniswap, userEpoch);\n        if (epochCount > 1) {\n            collected = collected.add(_collectEpoch(user, token, mooniswap, userEpoch + 1));\n        }\n        user.balance = user.balance.add(collected);\n\n        // Update user token epoch counter\n        bool emptySecondEpoch = user.share[mooniswap][userEpoch + 1] == 0;\n        user.firstUnprocessedEpoch[mooniswap] = (epochCount == 2 || emptySecondEpoch) ? currentEpoch : userEpoch + 1;\n    }\n\n    function _collectEpoch(UserInfo storage user, TokenInfo storage token, Mooniswap mooniswap, uint256 epoch) private returns(uint256 collected) {\n        uint256 inchBalance = token.epochBalance[epoch].inchBalance;\n        uint256 share = user.share[mooniswap][epoch];\n        uint256 totalSupply = token.epochBalance[epoch].totalSupply;\n\n        collected = inchBalance.mul(share).div(totalSupply);\n\n        user.share[mooniswap][epoch] = 0;\n        token.epochBalance[epoch].totalSupply = totalSupply.sub(share);\n        token.epochBalance[epoch].inchBalance = inchBalance.sub(collected);\n    }\n}\n",
  "sourcePath": "/Users/zumzoom/Projects/1inch/mooniswap-v2/contracts/ReferralFeeReceiver.sol",
  "compiler": {
    "name": "solc",
    "version": "0.6.12+commit.27d51765.Emscripten.clang"
  },
  "schemaVersion": "3.3.2",
  "updatedAt": "2020-12-07T09:34:53.717Z",
  "devdoc": {
    "kind": "dev",
    "methods": {
      "owner()": {
        "details": "Returns the address of the current owner."
      },
      "renounceOwnership()": {
        "details": "Leaves the contract without owner. It will not be possible to call `onlyOwner` functions anymore. Can only be called by the current owner. NOTE: Renouncing ownership will leave the contract without an owner, thereby removing any functionality that is only available to the owner."
      },
      "transferOwnership(address)": {
        "details": "Transfers ownership of the contract to a new account (`newOwner`). Can only be called by the current owner."
      }
    },
    "version": 1
  },
  "userdoc": {
    "kind": "user",
    "methods": {},
    "version": 1
  }
}