{
  "contractName": "ReferralFeeReceiver",
  "abi": [
    {
      "inputs": [
        {
          "internalType": "contract IERC20",
          "name": "_inchToken",
          "type": "address"
        },
        {
          "internalType": "contract IMooniswapFactory",
          "name": "_mooniswapFactory",
          "type": "address"
        }
      ],
      "stateMutability": "nonpayable",
      "type": "constructor"
    },
    {
      "anonymous": false,
      "inputs": [
        {
          "indexed": true,
          "internalType": "address",
          "name": "previousOwner",
          "type": "address"
        },
        {
          "indexed": true,
          "internalType": "address",
          "name": "newOwner",
          "type": "address"
        }
      ],
      "name": "OwnershipTransferred",
      "type": "event"
    },
    {
      "inputs": [],
      "name": "inchToken",
      "outputs": [
        {
          "internalType": "contract IERC20",
          "name": "",
          "type": "address"
        }
      ],
      "stateMutability": "view",
      "type": "function"
    },
    {
      "inputs": [],
      "name": "mooniswapFactory",
      "outputs": [
        {
          "internalType": "contract IMooniswapFactory",
          "name": "",
          "type": "address"
        }
      ],
      "stateMutability": "view",
      "type": "function"
    },
    {
      "inputs": [],
      "name": "owner",
      "outputs": [
        {
          "internalType": "address",
          "name": "",
          "type": "address"
        }
      ],
      "stateMutability": "view",
      "type": "function"
    },
    {
      "inputs": [
        {
          "internalType": "contract IERC20",
          "name": "",
          "type": "address"
        }
      ],
      "name": "pathWhitelist",
      "outputs": [
        {
          "internalType": "bool",
          "name": "",
          "type": "bool"
        }
      ],
      "stateMutability": "view",
      "type": "function"
    },
    {
      "inputs": [],
      "name": "renounceOwnership",
      "outputs": [],
      "stateMutability": "nonpayable",
      "type": "function"
    },
    {
      "inputs": [
        {
          "internalType": "contract IERC20",
          "name": "",
          "type": "address"
        }
      ],
      "name": "tokenInfo",
      "outputs": [
        {
          "internalType": "uint256",
          "name": "firstUnprocessedEpoch",
          "type": "uint256"
        },
        {
          "internalType": "uint256",
          "name": "currentEpoch",
          "type": "uint256"
        }
      ],
      "stateMutability": "view",
      "type": "function"
    },
    {
      "inputs": [
        {
          "internalType": "address",
          "name": "newOwner",
          "type": "address"
        }
      ],
      "name": "transferOwnership",
      "outputs": [],
      "stateMutability": "nonpayable",
      "type": "function"
    },
    {
      "inputs": [
        {
          "internalType": "contract IERC20",
          "name": "token",
          "type": "address"
        },
        {
          "internalType": "bool",
          "name": "whitelisted",
          "type": "bool"
        }
      ],
      "name": "updatePathWhitelist",
      "outputs": [],
      "stateMutability": "nonpayable",
      "type": "function"
    },
    {
      "inputs": [
        {
          "internalType": "address",
          "name": "",
          "type": "address"
        }
      ],
      "name": "userInfo",
      "outputs": [
        {
          "internalType": "uint256",
          "name": "balance",
          "type": "uint256"
        }
      ],
      "stateMutability": "view",
      "type": "function"
    },
    {
      "stateMutability": "payable",
      "type": "receive"
    },
    {
      "inputs": [
        {
          "internalType": "address",
          "name": "referral",
          "type": "address"
        },
        {
          "internalType": "uint256",
          "name": "amount",
          "type": "uint256"
        }
      ],
      "name": "updateReward",
      "outputs": [],
      "stateMutability": "nonpayable",
      "type": "function"
    },
    {
      "inputs": [
        {
          "internalType": "contract Mooniswap",
          "name": "mooniswap",
          "type": "address"
        }
      ],
      "name": "freezeEpoch",
      "outputs": [],
      "stateMutability": "nonpayable",
      "type": "function"
    },
    {
      "inputs": [
        {
          "internalType": "contract Mooniswap",
          "name": "mooniswap",
          "type": "address"
        },
        {
          "internalType": "contract IERC20[]",
          "name": "path",
          "type": "address[]"
        }
      ],
      "name": "trade",
      "outputs": [],
      "stateMutability": "nonpayable",
      "type": "function"
    },
    {
      "inputs": [
        {
          "internalType": "contract Mooniswap[]",
          "name": "pools",
          "type": "address[]"
        }
      ],
      "name": "claim",
      "outputs": [],
      "stateMutability": "nonpayable",
      "type": "function"
    },
    {
      "inputs": [
        {
          "internalType": "contract Mooniswap",
          "name": "mooniswap",
          "type": "address"
        }
      ],
      "name": "claimCurrentEpoch",
      "outputs": [],
      "stateMutability": "nonpayable",
      "type": "function"
    },
    {
      "inputs": [
        {
          "internalType": "contract Mooniswap",
          "name": "mooniswap",
          "type": "address"
        }
      ],
      "name": "claimFrozenEpoch",
      "outputs": [],
      "stateMutability": "nonpayable",
      "type": "function"
    }
  ],
  "bytecode": "0x60c06040523480156200001157600080fd5b506040516200334938038062003349833981810160405260408110156200003757600080fd5b508051602090910151818160006200004e620000ba565b600080546001600160a01b0319166001600160a01b0383169081178255604051929350917f8be0079c531659141344cd1fd0a4f28419497f9722a3daafe3b4186f6b6457e0908290a3506001600160601b0319606092831b8116608052911b1660a05250620000be9050565b3390565b60805160601c60a05160601c6132436200010660003980610b7f5280611739528061239a528061261b5250806106e65280610b4352806110e752806112da52506132436000f3fe6080604052600436106100ec5760003560e01c80638da5cb5b1161008a578063f2fde38b11610059578063f2fde38b146103cb578063f3aafa80146103fe578063f583adbc146104be578063f5dab711146104f957610148565b80638da5cb5b1461033b578063946e1a62146103505780639e96b2ce14610383578063ec954594146103b657610148565b80635e8c8bb7116100c65780635e8c8bb71461027b578063715018a6146102c257806371646f98146102d7578063857311401461030a57610148565b80631959a0021461014d5780631a39912514610192578063318d9e5d146101cb57610148565b366101485733321415610146576040805162461bcd60e51b815260206004820152601660248201527f455448207472616e7366657220666f7262696464656e00000000000000000000604482015290519081900360640190fd5b005b600080fd5b34801561015957600080fd5b506101806004803603602081101561017057600080fd5b50356001600160a01b0316610545565b60408051918252519081900360200190f35b34801561019e57600080fd5b50610146600480360360408110156101b557600080fd5b506001600160a01b038135169060200135610557565b3480156101d757600080fd5b50610146600480360360208110156101ee57600080fd5b81019060208101813564010000000081111561020957600080fd5b82018360208201111561021b57600080fd5b8035906020019184602083028401116401000000008311171561023d57600080fd5b919080806020026020016040519081016040528093929190818152602001838360200280828437600092019190915250929550610600945050505050565b34801561028757600080fd5b506102ae6004803603602081101561029e57600080fd5b50356001600160a01b0316610760565b604080519115158252519081900360200190f35b3480156102ce57600080fd5b50610146610775565b3480156102e357600080fd5b50610146600480360360208110156102fa57600080fd5b50356001600160a01b0316610841565b34801561031657600080fd5b5061031f610b7d565b604080516001600160a01b039092168252519081900360200190f35b34801561034757600080fd5b5061031f610ba1565b34801561035c57600080fd5b506101466004803603602081101561037357600080fd5b50356001600160a01b0316610bb0565b34801561038f57600080fd5b50610146600480360360208110156103a657600080fd5b50356001600160a01b0316610fba565b3480156103c257600080fd5b5061031f6110e5565b3480156103d757600080fd5b50610146600480360360208110156103ee57600080fd5b50356001600160a01b0316611109565b34801561040a57600080fd5b506101466004803603604081101561042157600080fd5b6001600160a01b03823516919081019060408101602082013564010000000081111561044c57600080fd5b82018360208201111561045e57600080fd5b8035906020019184602083028401116401000000008311171561048057600080fd5b91908080602002602001604051908101604052809392919081815260200183836020028082843760009201919091525092955061122b945050505050565b3480156104ca57600080fd5b50610146600480360360408110156104e157600080fd5b506001600160a01b03813516906020013515156119d1565b34801561050557600080fd5b5061052c6004803603602081101561051c57600080fd5b50356001600160a01b0316611a84565b6040805192835260208301919091528051918290030190f35b60026020526000908152604090205481565b3360008181526003602090815260408083206001600160a01b038716845260028084528285209082015486865260018201855283862081875290945291909320549091906105a59086611aa0565b6001600160a01b0385166000908152600184016020908152604080832085845282528083209390935585905220546105dd9086611aa0565b6000828152602085905260409020556105f882848684611b03565b505050505050565b336000908152600260205260408120905b825181101561067557600083828151811061062857fe5b60200260200101519050600060036000836001600160a01b03166001600160a01b03168152602001908152602001600020905061066b8482848460020154611b03565b5050600101610611565b508054600181111561075b5760018255604080517fa9059cbb0000000000000000000000000000000000000000000000000000000081523360048201527fffffffffffffffffffffffffffffffffffffffffffffffffffffffffffffffff8301602482015290516001600160a01b037f0000000000000000000000000000000000000000000000000000000000000000169163a9059cbb9160448083019260209291908290030181600087803b15801561072e57600080fd5b505af1158015610742573d6000803e3d6000fd5b505050506040513d602081101561075857600080fd5b50505b505050565b60016020526000908152604090205460ff1681565b61077d611c4e565b6000546001600160a01b039081169116146107df576040805162461bcd60e51b815260206004820181905260248201527f4f776e61626c653a2063616c6c6572206973206e6f7420746865206f776e6572604482015290519081900360640190fd5b600080546040516001600160a01b03909116907f8be0079c531659141344cd1fd0a4f28419497f9722a3daafe3b4186f6b6457e0908390a3600080547fffffffffffffffffffffffff0000000000000000000000000000000000000000169055565b6001600160a01b0381166000908152600360209081526040808320338452600292839052922060018084015492840154919291908190610882908490611aa0565b146108d4576040805162461bcd60e51b815260206004820152601760248201527f45706f636820616c72656164792066696e616c697a6564000000000000000000604482015290519081900360640190fd5b6001600160a01b03851660009081526002840160205260409020548214610942576040805162461bcd60e51b815260206004820152601b60248201527f45706f63682066756e647320616c726561647920636c61696d65640000000000604482015290519081900360640190fd5b6001600160a01b0385166000908152600284016020908152604080832084905560018601825280832085845290915290205480156105f85760008381526020868152604080832080546001600160a01b038b168552600189018452828520888652909352908320929092556109b78184611c52565b82600001819055506060886001600160a01b031663aa6ca8086040518163ffffffff1660e01b815260040160006040518083038186803b1580156109fa57600080fd5b505afa158015610a0e573d6000803e3d6000fd5b505050506040513d6000823e601f3d9081017fffffffffffffffffffffffffffffffffffffffffffffffffffffffffffffffe01682016040526020811015610a5557600080fd5b8101908080516040519392919084640100000000821115610a7557600080fd5b908301906020820185811115610a8a57600080fd5b8251866020820283011164010000000082111715610aa757600080fd5b82525081516020918201928201910280838360005b83811015610ad4578181015183820152602001610abc565b505050509050016040525050509050610b0781600081518110610af357fe5b602002602001015184600101548685611c94565b8360010181905550610b3381600181518110610b1f57fe5b602002602001015184600201548685611c94565b60028401556003830154610b6a907f0000000000000000000000000000000000000000000000000000000000000000908685611c94565b8360030181905550505050505050505050565b7f000000000000000000000000000000000000000000000000000000000000000081565b6000546001600160a01b031690565b80610bba81611cdd565b610c0b576040805162461bcd60e51b815260206004820152601260248201527f53707265616420697320746f6f20686967680000000000000000000000000000604482015290519081900360640190fd5b6001600160a01b0382166000908152600360205260409020600281015460018201548114610c80576040805162461bcd60e51b815260206004820152601f60248201527f50726576696f75732065706f6368206973206e6f742066696e616c697a656400604482015290519081900360640190fd5b6060846001600160a01b031663aa6ca8086040518163ffffffff1660e01b815260040160006040518083038186803b158015610cbb57600080fd5b505afa158015610ccf573d6000803e3d6000fd5b505050506040513d6000823e601f3d9081017fffffffffffffffffffffffffffffffffffffffffffffffffffffffffffffffe01682016040526020811015610d1657600080fd5b8101908080516040519392919084640100000000821115610d3657600080fd5b908301906020820185811115610d4b57600080fd5b8251866020820283011164010000000082111715610d6857600080fd5b82525081516020918201928201910280838360005b83811015610d95578181015183820152602001610d7d565b5050505090500160405250505090506000610dd63083600081518110610db757fe5b60200260200101516001600160a01b03166122e190919063ffffffff16565b90506000610deb3084600181518110610db757fe5b9050866001600160a01b0316635915d806886001600160a01b03166370a08231306040518263ffffffff1660e01b815260040180826001600160a01b0316815260200191505060206040518083038186803b158015610e4957600080fd5b505afa158015610e5d573d6000803e3d6000fd5b505050506040513d6020811015610e7357600080fd5b50516040805160008082526020820190925290506040518363ffffffff1660e01b81526004018083815260200180602001828103825283818151815260200191508051906020019060200280838360005b83811015610edc578181015183820152602001610ec4565b5050505090500193505050506040805180830381600087803b158015610f0157600080fd5b505af1158015610f15573d6000803e3d6000fd5b505050506040513d601f19601f820116820180604052506040811015610f3a57600080fd5b50508251610f5b908390610f559030908790600090610db757fe5b90611c52565b85600001600086815260200190815260200160002060010181905550610f8c81610f553086600181518110610db757fe5b600085815260208790526040902060020155610fa9846001611aa0565b856002018190555050505050505050565b6001600160a01b0381166000818152600360209081526040808320338452600280845282852090820154958552600181018452828520868652909352922054919290918015610758576001600160a01b0385166000908152600184016020908152604080832085845282528083208390559086905290205461103c9082611c52565b6000838152602086815260408083209390935582517fa9059cbb0000000000000000000000000000000000000000000000000000000081523360048201526024810185905292516001600160a01b0389169363a9059cbb9360448083019493928390030190829087803b1580156110b257600080fd5b505af11580156110c6573d6000803e3d6000fd5b505050506040513d60208110156110dc57600080fd5b50505050505050565b7f000000000000000000000000000000000000000000000000000000000000000081565b611111611c4e565b6000546001600160a01b03908116911614611173576040805162461bcd60e51b815260206004820181905260248201527f4f776e61626c653a2063616c6c6572206973206e6f7420746865206f776e6572604482015290519081900360640190fd5b6001600160a01b0381166111b85760405162461bcd60e51b81526004018080602001828103825260268152602001806131676026913960400191505060405180910390fd5b600080546040516001600160a01b03808516939216917f8be0079c531659141344cd1fd0a4f28419497f9722a3daafe3b4186f6b6457e091a3600080547fffffffffffffffffffffffff0000000000000000000000000000000000000000166001600160a01b0392909216919091179055565b806000815111611282576040805162461bcd60e51b815260206004820152601460248201527f4d696e2070617468206c656e6774682069732031000000000000000000000000604482015290519081900360640190fd5b60058151106112d8576040805162461bcd60e51b815260206004820152601460248201527f4d61782070617468206c656e6774682069732034000000000000000000000000604482015290519081900360640190fd5b7f00000000000000000000000000000000000000000000000000000000000000006001600160a01b03168160018351038151811061131257fe5b60200260200101516001600160a01b031614611375576040805162461bcd60e51b815260206004820152601b60248201527f53686f756c64207377617020746f2074617267657420746f6b656e0000000000604482015290519081900360640190fd5b60015b8151816001011015611414576001600083838151811061139457fe5b6020908102919091018101516001600160a01b031682528101919091526040016000205460ff1661140c576040805162461bcd60e51b815260206004820152601860248201527f546f6b656e206973206e6f742077686974656c69737465640000000000000000604482015290519081900360640190fd5b600101611378565b506001600160a01b0383166000908152600360209081526040808320600180820154808652938290529190932060028401549091611453908490611aa0565b146114a5576040805162461bcd60e51b815260206004820152601c60248201527f507265762065706f636820616c72656164792066696e616c697a656400000000604482015290519081900360640190fd5b6060866001600160a01b031663aa6ca8086040518163ffffffff1660e01b815260040160006040518083038186803b1580156114e057600080fd5b505afa1580156114f4573d6000803e3d6000fd5b505050506040513d6000823e601f3d9081017fffffffffffffffffffffffffffffffffffffffffffffffffffffffffffffffe0168201604052602081101561153b57600080fd5b810190808051604051939291908464010000000082111561155b57600080fd5b90830190602082018581111561157057600080fd5b825186602082028301116401000000008211171561158d57600080fd5b82525081516020918201928201910280838360005b838110156115ba5781810151838201526020016115a2565b5050505090500160405250505090506000816000815181106115d857fe5b60200260200101516001600160a01b0316876000815181106115f657fe5b60200260200101516001600160a01b03161415611618575060018201546116b2565b8160018151811061162557fe5b60200260200101516001600160a01b03168760008151811061164357fe5b60200260200101516001600160a01b03161415611665575060028201546116b2565b6040805162461bcd60e51b815260206004820152601360248201527f496e76616c696420666972737420746f6b656e00000000000000000000000000604482015290519081900360640190fd5b6000806116bf8984612382565b91509150806000141561190557821561190057818314611726576040805162461bcd60e51b815260206004820152601c60248201527f617661696c61626c6542616c616e6365206973206e6f74206475737400000000604482015290519081900360640190fd5b60005b895181600101101561186f5760007f00000000000000000000000000000000000000000000000000000000000000006001600160a01b031663901754d78c848151811061177257fe5b60200260200101518d856001018151811061178957fe5b60200260200101516040518363ffffffff1660e01b815260040180836001600160a01b03168152602001826001600160a01b031681526020019250505060206040518083038186803b1580156117de57600080fd5b505afa1580156117f2573d6000803e3d6000fd5b505050506040513d602081101561180857600080fd5b5051905061181581611cdd565b611866576040805162461bcd60e51b815260206004820152601260248201527f53707265616420697320746f6f20686967680000000000000000000000000000604482015290519081900360640190fd5b50600101611729565b506118968960008151811061188057fe5b60200260200101516001600160a01b031661257a565b156118ce57604051329084156108fc029085906000818181858888f193505050501580156118c8573d6000803e3d6000fd5b50611900565b6119008a848b6000815181106118e057fe5b60200260200101516001600160a01b03166125879092919063ffffffff16565b61192b565b60006119128a8430612607565b60038701549091506119249082611aa0565b6003870155505b8360008151811061193857fe5b60200260200101516001600160a01b03168960008151811061195657fe5b60200260200101516001600160a01b0316141561198657600185015461197c9083611c52565b600186015561199b565b60028501546119959083611c52565b60028601555b60018501541580156119af57506002850154155b156119c5576119bf866001611aa0565b60018801555b50505050505050505050565b6119d9611c4e565b6000546001600160a01b03908116911614611a3b576040805162461bcd60e51b815260206004820181905260248201527f4f776e61626c653a2063616c6c6572206973206e6f7420746865206f776e6572604482015290519081900360640190fd5b6001600160a01b0391909116600090815260016020526040902080547fffffffffffffffffffffffffffffffffffffffffffffffffffffffffffffff0016911515919091179055565b6003602052600090815260409020600181015460029091015482565b600082820183811015611afa576040805162461bcd60e51b815260206004820152601b60248201527f536166654d6174683a206164646974696f6e206f766572666c6f770000000000604482015290519081900360640190fd5b90505b92915050565b6001600160a01b03821660009081526001850160209081526040808320600288018352818420548452909152902054611b58576001600160a01b03821660009081526002850160205260409020819055611c48565b6001600160a01b038216600090815260028086016020526040822054600186015490929091611b9090611b8b8486611c52565b612a22565b905080611b9f57505050611c48565b6000611bad88888887612a38565b90506001821115611bd457611bd1611bca89898988600101612a38565b8290611aa0565b90505b8754611be09082611aa0565b88556001600160a01b03861660009081526001808a01602090815260408084209288018452919052902054156002831480611c185750805b611c255784600101611c27565b855b6001600160a01b038816600090815260028b01602052604090205550505050505b50505050565b3390565b6000611afa83836040518060400160405280601e81526020017f536166654d6174683a207375627472616374696f6e206f766572666c6f770000815250612aec565b600080611cab83611ca58787612b83565b90612bdc565b90508015611cc757611cc76001600160a01b0387163383612c1e565b611cd18582611c52565b9150505b949350505050565b60006060826001600160a01b031663aa6ca8086040518163ffffffff1660e01b815260040160006040518083038186803b158015611d1a57600080fd5b505afa158015611d2e573d6000803e3d6000fd5b505050506040513d6000823e601f3d9081017fffffffffffffffffffffffffffffffffffffffffffffffffffffffffffffffe01682016040526020811015611d7557600080fd5b8101908080516040519392919084640100000000821115611d9557600080fd5b908301906020820185811115611daa57600080fd5b8251866020820283011164010000000082111715611dc757600080fd5b82525081516020918201928201910280838360005b83811015611df4578181015183820152602001611ddc565b505050509050016040525050509050600080600080611e1a8786600081518110610db757fe5b90506000611e2f8887600181518110610db757fe5b90506000886001600160a01b03166348d67e1b6040518163ffffffff1660e01b815260040160206040518083038186803b158015611e6c57600080fd5b505afa158015611e80573d6000803e3d6000fd5b505050506040513d6020811015611e9657600080fd5b50519050611ea261314f565b896001600160a01b0316636edc2c0989600081518110611ebe57fe5b60200260200101516040518263ffffffff1660e01b815260040180826001600160a01b03168152602001915050604080518083038186803b158015611f0257600080fd5b505afa158015611f16573d6000803e3d6000fd5b505050506040513d6040811015611f2c57600080fd5b50805160209182015164ffffffffff16918301919091527affffffffffffffffffffffffffffffffffffffffffffffffffffff1681526000611f78611f72838588612c82565b86612d01565b90508a6001600160a01b0316636edc2c098a600181518110611f9657fe5b60200260200101516040518263ffffffff1660e01b815260040180826001600160a01b03168152602001915050604080518083038186803b158015611fda57600080fd5b505afa158015611fee573d6000803e3d6000fd5b505050506040513d604081101561200457600080fd5b50805160209182015164ffffffffff16918401919091527affffffffffffffffffffffffffffffffffffffffffffffffffffff168252600061204a611f72848688612c82565b90508b6001600160a01b0316635ed9156d8b60008151811061206857fe5b60200260200101516040518263ffffffff1660e01b815260040180826001600160a01b03168152602001915050604080518083038186803b1580156120ac57600080fd5b505afa1580156120c0573d6000803e3d6000fd5b505050506040513d60408110156120d657600080fd5b50805160209182015164ffffffffff16918501919091527affffffffffffffffffffffffffffffffffffffffffffffffffffff168352600061212261211c85878a612c82565b88612a22565b90508c6001600160a01b0316635ed9156d8c60018151811061214057fe5b60200260200101516040518263ffffffff1660e01b815260040180826001600160a01b03168152602001915050604080518083038186803b15801561218457600080fd5b505afa158015612198573d6000803e3d6000fd5b505050506040513d60408110156121ae57600080fd5b50805160209182015164ffffffffff16918601919091527affffffffffffffffffffffffffffffffffffffffffffffffffffff16845260006121f461211c86888a612c82565b905061220c82611ca5670de0b6b3a764000086612b83565b9a5061222484611ca5670de0b6b3a764000084612b83565b995061223c88611ca5670de0b6b3a76400008a612b83565b985050505050505050506122c0816122ba600a896001600160a01b031663ddca3f436040518163ffffffff1660e01b815260040160206040518083038186803b15801561228857600080fd5b505afa15801561229c573d6000803e3d6000fd5b505050506040513d60208110156122b257600080fd5b505190612b83565b90612b83565b6122d6670de0b6b3a76400006122ba8686611c52565b109695505050505050565b60006122ec8361257a565b1561230257506001600160a01b03811631611afd565b826001600160a01b03166370a08231836040518263ffffffff1660e01b815260040180826001600160a01b0316815260200191505060206040518083038186803b15801561234f57600080fd5b505afa158015612363573d6000803e3d6000fd5b505050506040513d602081101561237957600080fd5b50519050611afd565b81518190819060005b818160010110156125715760007f00000000000000000000000000000000000000000000000000000000000000006001600160a01b031663901754d78884815181106123d357fe5b60200260200101518985600101815181106123ea57fe5b60200260200101516040518363ffffffff1660e01b815260040180836001600160a01b03168152602001826001600160a01b031681526020019250505060206040518083038186803b15801561243f57600080fd5b505afa158015612453573d6000803e3d6000fd5b505050506040513d602081101561246957600080fd5b5051875190915060009061248c90606490611ca59085908c9088908110610db757fe5b9050848110156124aa576124a485611ca58884612b83565b95508094505b816001600160a01b0316631e1401f88985815181106124c557fe5b60200260200101518a86600101815181106124dc57fe5b6020026020010151886040518463ffffffff1660e01b815260040180846001600160a01b03168152602001836001600160a01b03168152602001828152602001935050505060206040518083038186803b15801561253957600080fd5b505afa15801561254d573d6000803e3d6000fd5b505050506040513d602081101561256357600080fd5b50519450505060010161238b565b50509250929050565b6001600160a01b03161590565b604080516001600160a01b038416602482015260448082018490528251808303909101815260649091019091526020810180517bffffffffffffffffffffffffffffffffffffffffffffffffffffffff167fa9059cbb0000000000000000000000000000000000000000000000000000000017905261075b908490612d11565b8160005b84518160010110156129785760007f00000000000000000000000000000000000000000000000000000000000000006001600160a01b031663901754d787848151811061265457fe5b602002602001015188856001018151811061266b57fe5b60200260200101516040518363ffffffff1660e01b815260040180836001600160a01b03168152602001826001600160a01b031681526020019250505060206040518083038186803b1580156126c057600080fd5b505afa1580156126d4573d6000803e3d6000fd5b505050506040513d60208110156126ea57600080fd5b505190506126f781611cdd565b612748576040805162461bcd60e51b815260206004820152601260248201527f53707265616420697320746f6f20686967680000000000000000000000000000604482015290519081900360640190fd5b600083905061275c87848151811061188057fe5b61279557612791828589868151811061277157fe5b60200260200101516001600160a01b0316612dc29092919063ffffffff16565b5060005b865183600201101561288057816001600160a01b031663d5bcb9b5828986815181106127bd57fe5b60200260200101518a87600101815181106127d457fe5b6020026020010151886000806040518763ffffffff1660e01b815260040180866001600160a01b03168152602001856001600160a01b03168152602001848152602001838152602001826001600160a01b03168152602001955050505050506020604051808303818588803b15801561284c57600080fd5b505af1158015612860573d6000803e3d6000fd5b50505050506040513d602081101561287757600080fd5b5051935061296e565b816001600160a01b031663e331d0398289868151811061289c57fe5b60200260200101518a87600101815181106128b357fe5b602090810291909101810151604080517fffffffff0000000000000000000000000000000000000000000000000000000060e088901b1681526001600160a01b0394851660048201529184166024830152604482018b90526000606483018190526084830152928b1660a4820152915160c48084019382900301818588803b15801561293e57600080fd5b505af1158015612952573d6000803e3d6000fd5b50505050506040513d602081101561296957600080fd5b505193505b505060010161260b565b50835160011415612a1b578360008151811061299057fe5b60200260200101516001600160a01b031663a9059cbb83836040518363ffffffff1660e01b815260040180836001600160a01b0316815260200182815260200192505050602060405180830381600087803b1580156129ee57600080fd5b505af1158015612a02573d6000803e3d6000fd5b505050506040513d6020811015612a1857600080fd5b50505b9392505050565b6000818310612a315781611afa565b5090919050565b60008181526020848152604080832060038101546001600160a01b03871685526001890184528285208686528452918420549287905254909190612a8081611ca58585612b83565b6001600160a01b038716600090815260018a01602090815260408083208984529091528120559350612ab28183611c52565b600086815260208990526040902055612acb8385611c52565b60009586526020979097525050604090922060030193909355509092915050565b60008184841115612b7b5760405162461bcd60e51b81526004018080602001828103825283818151815260200191508051906020019080838360005b83811015612b40578181015183820152602001612b28565b50505050905090810190601f168015612b6d5780820380516001836020036101000a031916815260200191505b509250505060405180910390fd5b505050900390565b600082612b9257506000611afd565b82820282848281612b9f57fe5b0414611afa5760405162461bcd60e51b815260040180806020018281038252602181526020018061318d6021913960400191505060405180910390fd5b6000611afa83836040518060400160405280601a81526020017f536166654d6174683a206469766973696f6e206279207a65726f000000000000815250612f1c565b801561075b57612c2d8361257a565b15612c6e576040516001600160a01b0383169082156108fc029083906000818181858888f19350505050158015612c68573d6000803e3d6000fd5b5061075b565b61075b6001600160a01b0384168383612587565b600080612ca784611b8b876020015164ffffffffff1642611c5290919063ffffffff16565b90506000612cb58583611c52565b9050612cf785611ca5612cc88786612b83565b8951612cf1907affffffffffffffffffffffffffffffffffffffffffffffffffffff1686612b83565b90611aa0565b9695505050505050565b600081831015612a315781611afa565b6060612d66826040518060400160405280602081526020017f5361666545524332303a206c6f772d6c6576656c2063616c6c206661696c6564815250856001600160a01b0316612f819092919063ffffffff16565b80519091501561075b57808060200190516020811015612d8557600080fd5b505161075b5760405162461bcd60e51b815260040180806020018281038252602a8152602001806131ae602a913960400191505060405180910390fd5b801580612e615750604080517fdd62ed3e0000000000000000000000000000000000000000000000000000000081523060048201526001600160a01b03848116602483015291519185169163dd62ed3e91604480820192602092909190829003018186803b158015612e3357600080fd5b505afa158015612e47573d6000803e3d6000fd5b505050506040513d6020811015612e5d57600080fd5b5051155b612e9c5760405162461bcd60e51b81526004018080602001828103825260368152602001806131d86036913960400191505060405180910390fd5b604080516001600160a01b038416602482015260448082018490528251808303909101815260649091019091526020810180517bffffffffffffffffffffffffffffffffffffffffffffffffffffffff167f095ea7b30000000000000000000000000000000000000000000000000000000017905261075b908490612d11565b60008183612f6b5760405162461bcd60e51b8152602060048201818152835160248401528351909283926044909101919085019080838360008315612b40578181015183820152602001612b28565b506000838581612f7757fe5b0495945050505050565b6060611cd584846000856060612f9685613116565b612fe7576040805162461bcd60e51b815260206004820152601d60248201527f416464726573733a2063616c6c20746f206e6f6e2d636f6e7472616374000000604482015290519081900360640190fd5b60006060866001600160a01b031685876040518082805190602001908083835b6020831061304457805182527fffffffffffffffffffffffffffffffffffffffffffffffffffffffffffffffe09092019160209182019101613007565b6001836020036101000a03801982511681845116808217855250505050505090500191505060006040518083038185875af1925050503d80600081146130a6576040519150601f19603f3d011682016040523d82523d6000602084013e6130ab565b606091505b509150915081156130bf579150611cd59050565b8051156130cf5780518082602001fd5b60405162461bcd60e51b8152602060048201818152865160248401528651879391928392604401919085019080838360008315612b40578181015183820152602001612b28565b6000813f7fc5d2460186f7233c927e7db2dcc703c0e500b653ca82273b7bfad8045d85a470818114801590611cd5575050151592915050565b60408051808201909152600080825260208201529056fe4f776e61626c653a206e6577206f776e657220697320746865207a65726f2061646472657373536166654d6174683a206d756c7469706c69636174696f6e206f766572666c6f775361666545524332303a204552433230206f7065726174696f6e20646964206e6f7420737563636565645361666545524332303a20617070726f76652066726f6d206e6f6e2d7a65726f20746f206e6f6e2d7a65726f20616c6c6f77616e6365a2646970667358221220fb3c7ab2a4c9b227d3015fd785ad6847c546de277ec36d2ff3659f6e1c3257a964736f6c634300060c0033",
  "immutableReferences": {
    "8664": [
      {
        "length": 32,
        "start": 1766
      },
      {
        "length": 32,
        "start": 2883
      },
      {
        "length": 32,
        "start": 4327
      },
      {
        "length": 32,
        "start": 4826
      }
    ],
    "8666": [
      {
        "length": 32,
        "start": 2943
      },
      {
        "length": 32,
        "start": 5945
      },
      {
        "length": 32,
        "start": 9114
      },
      {
        "length": 32,
        "start": 9755
      }
    ]
  },
  "source": "// SPDX-License-Identifier: MIT\n\npragma solidity ^0.6.0;\n\nimport \"./interfaces/IReferralFeeReceiver.sol\";\nimport \"./libraries/UniERC20.sol\";\nimport \"./utils/Converter.sol\";\n\n\ncontract ReferralFeeReceiver is IReferralFeeReceiver, Converter {\n    using UniERC20 for IERC20;\n\n    struct UserInfo {\n        uint256 balance;\n        mapping(IERC20 => mapping(uint256 => uint256)) share;\n        mapping(IERC20 => uint256) firstUnprocessedEpoch;\n    }\n\n    struct EpochBalance {\n        uint256 totalSupply;\n        uint256 token0Balance;\n        uint256 token1Balance;\n        uint256 inchBalance;\n    }\n\n    struct TokenInfo {\n        mapping(uint256 => EpochBalance) epochBalance;\n        uint256 firstUnprocessedEpoch;\n        uint256 currentEpoch;\n    }\n\n    mapping(address => UserInfo) public userInfo;\n    mapping(IERC20 => TokenInfo) public tokenInfo;\n\n    // solhint-disable-next-line no-empty-blocks\n    constructor(IERC20 _inchToken, IMooniswapFactory _mooniswapFactory) public Converter(_inchToken, _mooniswapFactory) {}\n\n    function updateReward(address referral, uint256 amount) external override {\n        Mooniswap mooniswap = Mooniswap(msg.sender);\n        TokenInfo storage token = tokenInfo[mooniswap];\n        UserInfo storage user = userInfo[referral];\n        uint256 currentEpoch = token.currentEpoch;\n\n        // Add new reward to current epoch\n        user.share[mooniswap][currentEpoch] = user.share[mooniswap][currentEpoch].add(amount);\n        token.epochBalance[currentEpoch].totalSupply = token.epochBalance[currentEpoch].totalSupply.add(amount);\n\n        // Collect all processed epochs and advance user token epoch\n        _collectProcessedEpochs(user, token, mooniswap, currentEpoch);\n    }\n\n    function freezeEpoch(Mooniswap mooniswap) external validSpread(mooniswap) {\n        TokenInfo storage token = tokenInfo[mooniswap];\n        uint256 currentEpoch = token.currentEpoch;\n        require(token.firstUnprocessedEpoch == currentEpoch, \"Previous epoch is not finalized\");\n\n        IERC20[] memory tokens = mooniswap.getTokens();\n        uint256 token0Balance = tokens[0].uniBalanceOf(address(this));\n        uint256 token1Balance = tokens[1].uniBalanceOf(address(this));\n        mooniswap.withdraw(mooniswap.balanceOf(address(this)), new uint256[](0));\n        token.epochBalance[currentEpoch].token0Balance = tokens[0].uniBalanceOf(address(this)).sub(token0Balance);\n        token.epochBalance[currentEpoch].token1Balance = tokens[1].uniBalanceOf(address(this)).sub(token1Balance);\n        token.currentEpoch = currentEpoch.add(1);\n    }\n\n    function trade(Mooniswap mooniswap, IERC20[] memory path) external validPath(path) {\n        TokenInfo storage token = tokenInfo[mooniswap];\n        uint256 firstUnprocessedEpoch = token.firstUnprocessedEpoch;\n        EpochBalance storage epochBalance = token.epochBalance[firstUnprocessedEpoch];\n        require(firstUnprocessedEpoch.add(1) == token.currentEpoch, \"Prev epoch already finalized\");\n\n        IERC20[] memory tokens = mooniswap.getTokens();\n        uint256 availableBalance;\n        if (path[0] == tokens[0]) {\n            availableBalance = epochBalance.token0Balance;\n        } else if (path[0] == tokens[1]) {\n            availableBalance = epochBalance.token1Balance;\n        } else {\n            revert(\"Invalid first token\");\n        }\n\n        (uint256 amount, uint256 returnAmount) = _maxAmountForSwap(path, availableBalance);\n        if (returnAmount == 0) {\n            // get rid of dust\n            if (availableBalance > 0) {\n                require(availableBalance == amount, \"availableBalance is not dust\");\n                for (uint256 i = 0; i + 1 < path.length; i += 1) {\n                    Mooniswap _mooniswap = mooniswapFactory.pools(path[i], path[i+1]);\n                    require(_validateSpread(_mooniswap), \"Spread is too high\");\n                }\n                if (path[0].isETH()) {\n                    tx.origin.transfer(availableBalance);  // solhint-disable-line avoid-tx-origin\n                } else {\n                    path[0].safeTransfer(address(mooniswap), availableBalance);\n                }\n            }\n        } else {\n            uint256 receivedAmount = _swap(path, amount, payable(address(this)));\n            epochBalance.inchBalance = epochBalance.inchBalance.add(receivedAmount);\n        }\n\n        if (path[0] == tokens[0]) {\n            epochBalance.token0Balance = epochBalance.token0Balance.sub(amount);\n        } else {\n            epochBalance.token1Balance = epochBalance.token1Balance.sub(amount);\n        }\n\n        if (epochBalance.token0Balance == 0 && epochBalance.token1Balance == 0) {\n            token.firstUnprocessedEpoch = firstUnprocessedEpoch.add(1);\n        }\n    }\n\n    function claim(Mooniswap[] memory pools) external {\n        UserInfo storage user = userInfo[msg.sender];\n        for (uint256 i = 0; i < pools.length; ++i) {\n            Mooniswap mooniswap = pools[i];\n            TokenInfo storage token = tokenInfo[mooniswap];\n            _collectProcessedEpochs(user, token, mooniswap, token.currentEpoch);\n        }\n\n        uint256 balance = user.balance;\n        if (balance > 1) {\n            // Avoid erasing storage to decrease gas footprint for referral payments\n            user.balance = 1;\n            inchToken.transfer(msg.sender, balance - 1);\n        }\n    }\n\n    function claimCurrentEpoch(Mooniswap mooniswap) external {\n        TokenInfo storage token = tokenInfo[mooniswap];\n        UserInfo storage user = userInfo[msg.sender];\n        uint256 currentEpoch = token.currentEpoch;\n        uint256 balance = user.share[mooniswap][currentEpoch];\n        if (balance > 0) {\n            user.share[mooniswap][currentEpoch] = 0;\n            token.epochBalance[currentEpoch].totalSupply = token.epochBalance[currentEpoch].totalSupply.sub(balance);\n            mooniswap.transfer(msg.sender, balance);\n        }\n    }\n\n    function claimFrozenEpoch(Mooniswap mooniswap) external {\n        TokenInfo storage token = tokenInfo[mooniswap];\n        UserInfo storage user = userInfo[msg.sender];\n        uint256 firstUnprocessedEpoch = token.firstUnprocessedEpoch;\n        uint256 currentEpoch = token.currentEpoch;\n\n        require(firstUnprocessedEpoch.add(1) == currentEpoch, \"Epoch already finalized\");\n        require(user.firstUnprocessedEpoch[mooniswap] == firstUnprocessedEpoch, \"Epoch funds already claimed\");\n\n        user.firstUnprocessedEpoch[mooniswap] = currentEpoch;\n        uint256 share = user.share[mooniswap][firstUnprocessedEpoch];\n\n        if (share > 0) {\n            EpochBalance storage epochBalance = token.epochBalance[firstUnprocessedEpoch];\n            uint256 totalSupply = epochBalance.totalSupply;\n            user.share[mooniswap][firstUnprocessedEpoch] = 0;\n            epochBalance.totalSupply = totalSupply.sub(share);\n\n            IERC20[] memory tokens = mooniswap.getTokens();\n            epochBalance.token0Balance = _transferTokenShare(tokens[0], epochBalance.token0Balance, share, totalSupply);\n            epochBalance.token1Balance = _transferTokenShare(tokens[1], epochBalance.token1Balance, share, totalSupply);\n            epochBalance.inchBalance = _transferTokenShare(inchToken, epochBalance.inchBalance, share, totalSupply);\n        }\n    }\n\n    function _transferTokenShare(IERC20 token, uint256 balance, uint256 share, uint256 totalSupply) private returns(uint256 newBalance) {\n        uint256 amount = balance.mul(share).div(totalSupply);\n        if (amount > 0) {\n            token.uniTransfer(msg.sender, amount);\n        }\n        return balance.sub(amount);\n    }\n\n    function _collectProcessedEpochs(UserInfo storage user, TokenInfo storage token, Mooniswap mooniswap, uint256 currentEpoch) private {\n        // Early return for the new users\n        if (user.share[mooniswap][user.firstUnprocessedEpoch[mooniswap]] == 0) {\n            user.firstUnprocessedEpoch[mooniswap] = currentEpoch;\n            return;\n        }\n\n        uint256 userEpoch = user.firstUnprocessedEpoch[mooniswap];\n        uint256 tokenEpoch = token.firstUnprocessedEpoch;\n        uint256 epochCount = Math.min(2, tokenEpoch.sub(userEpoch)); // 0, 1 or 2 epochs\n        if (epochCount == 0) {\n            return;\n        }\n\n        // Claim 1 or 2 processed epochs for the user\n        uint256 collected = _collectEpoch(user, token, mooniswap, userEpoch);\n        if (epochCount > 1) {\n            collected = collected.add(_collectEpoch(user, token, mooniswap, userEpoch + 1));\n        }\n        user.balance = user.balance.add(collected);\n\n        // Update user token epoch counter\n        bool emptySecondEpoch = user.share[mooniswap][userEpoch + 1] == 0;\n        user.firstUnprocessedEpoch[mooniswap] = (epochCount == 2 || emptySecondEpoch) ? currentEpoch : userEpoch + 1;\n    }\n\n    function _collectEpoch(UserInfo storage user, TokenInfo storage token, Mooniswap mooniswap, uint256 epoch) private returns(uint256 collected) {\n        uint256 inchBalance = token.epochBalance[epoch].inchBalance;\n        uint256 share = user.share[mooniswap][epoch];\n        uint256 totalSupply = token.epochBalance[epoch].totalSupply;\n\n        collected = inchBalance.mul(share).div(totalSupply);\n\n        user.share[mooniswap][epoch] = 0;\n        token.epochBalance[epoch].totalSupply = totalSupply.sub(share);\n        token.epochBalance[epoch].inchBalance = inchBalance.sub(collected);\n    }\n}\n",
  "sourcePath": "/Users/zumzoom/Projects/1inch/mooniswap-v2/contracts/ReferralFeeReceiver.sol",
  "compiler": {
    "name": "solc",
    "version": "0.6.12+commit.27d51765.Emscripten.clang"
  },
  "schemaVersion": "3.3.2",
  "updatedAt": "2020-12-14T18:27:09.466Z",
  "devdoc": {
    "kind": "dev",
    "methods": {
      "owner()": {
        "details": "Returns the address of the current owner."
      },
      "renounceOwnership()": {
        "details": "Leaves the contract without owner. It will not be possible to call `onlyOwner` functions anymore. Can only be called by the current owner. NOTE: Renouncing ownership will leave the contract without an owner, thereby removing any functionality that is only available to the owner."
      },
      "transferOwnership(address)": {
        "details": "Transfers ownership of the contract to a new account (`newOwner`). Can only be called by the current owner."
      }
    },
    "version": 1
  },
  "userdoc": {
    "kind": "user",
    "methods": {},
    "version": 1
  }
}