{
  "contractName": "Rewards",
  "abi": [
    {
      "inputs": [
        {
          "internalType": "contract IERC20",
          "name": "_gift",
          "type": "address"
        },
        {
          "internalType": "address",
          "name": "_mothership",
          "type": "address"
        }
      ],
      "stateMutability": "nonpayable",
      "type": "constructor"
    },
    {
      "anonymous": false,
      "inputs": [
        {
          "indexed": true,
          "internalType": "address",
          "name": "previousOwner",
          "type": "address"
        },
        {
          "indexed": true,
          "internalType": "address",
          "name": "newOwner",
          "type": "address"
        }
      ],
      "name": "OwnershipTransferred",
      "type": "event"
    },
    {
      "anonymous": false,
      "inputs": [
        {
          "indexed": false,
          "internalType": "uint256",
          "name": "reward",
          "type": "uint256"
        }
      ],
      "name": "RewardAdded",
      "type": "event"
    },
    {
      "anonymous": false,
      "inputs": [
        {
          "indexed": true,
          "internalType": "address",
          "name": "user",
          "type": "address"
        },
        {
          "indexed": false,
          "internalType": "uint256",
          "name": "reward",
          "type": "uint256"
        }
      ],
      "name": "RewardPaid",
      "type": "event"
    },
    {
      "inputs": [],
      "name": "DURATION",
      "outputs": [
        {
          "internalType": "uint256",
          "name": "",
          "type": "uint256"
        }
      ],
      "stateMutability": "view",
      "type": "function"
    },
    {
      "inputs": [
        {
          "internalType": "address",
          "name": "account",
          "type": "address"
        }
      ],
      "name": "balanceOf",
      "outputs": [
        {
          "internalType": "uint256",
          "name": "",
          "type": "uint256"
        }
      ],
      "stateMutability": "view",
      "type": "function"
    },
    {
      "inputs": [],
      "name": "gift",
      "outputs": [
        {
          "internalType": "contract IERC20",
          "name": "",
          "type": "address"
        }
      ],
      "stateMutability": "view",
      "type": "function"
    },
    {
      "inputs": [],
      "name": "lastUpdateTime",
      "outputs": [
        {
          "internalType": "uint256",
          "name": "",
          "type": "uint256"
        }
      ],
      "stateMutability": "view",
      "type": "function"
    },
    {
      "inputs": [],
      "name": "mothership",
      "outputs": [
        {
          "internalType": "address",
          "name": "",
          "type": "address"
        }
      ],
      "stateMutability": "view",
      "type": "function"
    },
    {
      "inputs": [],
      "name": "owner",
      "outputs": [
        {
          "internalType": "address",
          "name": "",
          "type": "address"
        }
      ],
      "stateMutability": "view",
      "type": "function"
    },
    {
      "inputs": [],
      "name": "periodFinish",
      "outputs": [
        {
          "internalType": "uint256",
          "name": "",
          "type": "uint256"
        }
      ],
      "stateMutability": "view",
      "type": "function"
    },
    {
      "inputs": [],
      "name": "renounceOwnership",
      "outputs": [],
      "stateMutability": "nonpayable",
      "type": "function"
    },
    {
      "inputs": [],
      "name": "rewardDistribution",
      "outputs": [
        {
          "internalType": "address",
          "name": "",
          "type": "address"
        }
      ],
      "stateMutability": "view",
      "type": "function"
    },
    {
      "inputs": [],
      "name": "rewardPerTokenStored",
      "outputs": [
        {
          "internalType": "uint256",
          "name": "",
          "type": "uint256"
        }
      ],
      "stateMutability": "view",
      "type": "function"
    },
    {
      "inputs": [],
      "name": "rewardRate",
      "outputs": [
        {
          "internalType": "uint256",
          "name": "",
          "type": "uint256"
        }
      ],
      "stateMutability": "view",
      "type": "function"
    },
    {
      "inputs": [
        {
          "internalType": "address",
          "name": "",
          "type": "address"
        }
      ],
      "name": "rewards",
      "outputs": [
        {
          "internalType": "uint256",
          "name": "",
          "type": "uint256"
        }
      ],
      "stateMutability": "view",
      "type": "function"
    },
    {
      "inputs": [
        {
          "internalType": "address",
          "name": "_rewardDistribution",
          "type": "address"
        }
      ],
      "name": "setRewardDistribution",
      "outputs": [],
      "stateMutability": "nonpayable",
      "type": "function"
    },
    {
      "inputs": [],
      "name": "totalSupply",
      "outputs": [
        {
          "internalType": "uint256",
          "name": "",
          "type": "uint256"
        }
      ],
      "stateMutability": "view",
      "type": "function"
    },
    {
      "inputs": [
        {
          "internalType": "address",
          "name": "newOwner",
          "type": "address"
        }
      ],
      "name": "transferOwnership",
      "outputs": [],
      "stateMutability": "nonpayable",
      "type": "function"
    },
    {
      "inputs": [
        {
          "internalType": "address",
          "name": "",
          "type": "address"
        }
      ],
      "name": "userRewardPerTokenPaid",
      "outputs": [
        {
          "internalType": "uint256",
          "name": "",
          "type": "uint256"
        }
      ],
      "stateMutability": "view",
      "type": "function"
    },
    {
      "inputs": [],
      "name": "lastTimeRewardApplicable",
      "outputs": [
        {
          "internalType": "uint256",
          "name": "",
          "type": "uint256"
        }
      ],
      "stateMutability": "view",
      "type": "function"
    },
    {
      "inputs": [],
      "name": "rewardPerToken",
      "outputs": [
        {
          "internalType": "uint256",
          "name": "",
          "type": "uint256"
        }
      ],
      "stateMutability": "view",
      "type": "function"
    },
    {
      "inputs": [
        {
          "internalType": "address",
          "name": "account",
          "type": "address"
        }
      ],
      "name": "earned",
      "outputs": [
        {
          "internalType": "uint256",
          "name": "",
          "type": "uint256"
        }
      ],
      "stateMutability": "view",
      "type": "function"
    },
    {
      "inputs": [
        {
          "internalType": "address",
          "name": "account",
          "type": "address"
        },
        {
          "internalType": "uint256",
          "name": "newBalance",
          "type": "uint256"
        }
      ],
      "name": "notifyStakeChanged",
      "outputs": [],
      "stateMutability": "nonpayable",
      "type": "function"
    },
    {
      "inputs": [],
      "name": "getReward",
      "outputs": [],
      "stateMutability": "nonpayable",
      "type": "function"
    },
    {
      "inputs": [
        {
          "internalType": "uint256",
          "name": "reward",
          "type": "uint256"
        }
      ],
      "name": "notifyRewardAmount",
      "outputs": [],
      "stateMutability": "nonpayable",
      "type": "function"
    }
  ],
  "bytecode": "0x60c06040526000600455600060055534801561001a57600080fd5b506040516114c73803806114c78339818101604052604081101561003d57600080fd5b5080516020909101518060006100516100bd565b600080546001600160a01b0319166001600160a01b0383169081178255604051929350917f8be0079c531659141344cd1fd0a4f28419497f9722a3daafe3b4186f6b6457e0908290a3506001600160601b0319606091821b811660805292901b90911660a052506100c1565b3390565b60805160601c60a05160601c6113d36100f46000398061053252806108eb52508061056c528061096452506113d36000f3fe608060405234801561001057600080fd5b50600436106101815760003560e01c806370a08231116100d85780638da5cb5b1161008c578063df136d6511610066578063df136d6514610378578063ebe2b12b14610380578063f2fde38b1461038857610181565b80638da5cb5b14610360578063c8f33c9114610368578063cd3daf9d1461037057610181565b80637b0a47ee116100bd5780637b0a47ee1461031d57806380faa57d146103255780638b8763471461032d57610181565b806370a08231146102e2578063715018a61461031557610181565b80631be052891161013a5780633c6b16ab116101145780633c6b16ab146102b55780633d18b912146102d25780634187b7d6146102da57610181565b80631be052891461026c57806324b049051461027457806327a274331461027c57610181565b80630d68b7611161016b5780630d68b761146101fe578063101114cf1461023357806318160ddd1461026457610181565b80628cc262146101865780630700037d146101cb575b600080fd5b6101b96004803603602081101561019c57600080fd5b503573ffffffffffffffffffffffffffffffffffffffff166103bb565b60408051918252519081900360200190f35b6101b9600480360360208110156101e157600080fd5b503573ffffffffffffffffffffffffffffffffffffffff16610436565b6102316004803603602081101561021457600080fd5b503573ffffffffffffffffffffffffffffffffffffffff16610448565b005b61023b610506565b6040805173ffffffffffffffffffffffffffffffffffffffff9092168252519081900360200190f35b6101b9610522565b6101b9610529565b61023b610530565b6102316004803603604081101561029257600080fd5b5073ffffffffffffffffffffffffffffffffffffffff8135169060200135610554565b610231600480360360208110156102cb57600080fd5b50356106a1565b61023161084d565b61023b610962565b6101b9600480360360208110156102f857600080fd5b503573ffffffffffffffffffffffffffffffffffffffff16610986565b6102316109ae565b6101b9610a94565b6101b9610a9a565b6101b96004803603602081101561034357600080fd5b503573ffffffffffffffffffffffffffffffffffffffff16610aad565b61023b610abf565b6101b9610adb565b6101b9610ae1565b6101b9610b2f565b6101b9610b35565b6102316004803603602081101561039e57600080fd5b503573ffffffffffffffffffffffffffffffffffffffff16610b3b565b73ffffffffffffffffffffffffffffffffffffffff81166000908152600960209081526040808320546008909252822054610430919061042a90670de0b6b3a764000090610424906104159061040f610ae1565b90610c91565b61041e88610986565b90610cda565b90610d33565b90610d75565b92915050565b60096020526000908152604090205481565b610450610dcf565b60005473ffffffffffffffffffffffffffffffffffffffff9081169116146104bf576040805162461bcd60e51b815260206004820181905260248201527f4f776e61626c653a2063616c6c6572206973206e6f7420746865206f776e6572604482015290519081900360640190fd5b600180547fffffffffffffffffffffffff00000000000000000000000000000000000000001673ffffffffffffffffffffffffffffffffffffffff92909216919091179055565b60015473ffffffffffffffffffffffffffffffffffffffff1681565b6002545b90565b62093a8081565b7f000000000000000000000000000000000000000000000000000000000000000081565b3373ffffffffffffffffffffffffffffffffffffffff7f000000000000000000000000000000000000000000000000000000000000000016146105de576040805162461bcd60e51b815260206004820152601f60248201527f416363657373207265737472696374656420746f206d6f746865727368697000604482015290519081900360640190fd5b816105e7610ae1565b6007556105f2610a9a565b60065573ffffffffffffffffffffffffffffffffffffffff8116156106535761061a816103bb565b73ffffffffffffffffffffffffffffffffffffffff82166000908152600960209081526040808320939093556007546008909152919020555b600061065e84610986565b9050808311156106805761067b846106768584610c91565b610dd3565b61069b565b8083101561069b5761069b846106968386610c91565b610e40565b50505050565b60015473ffffffffffffffffffffffffffffffffffffffff166106c2610dcf565b73ffffffffffffffffffffffffffffffffffffffff161461072a576040805162461bcd60e51b815260206004820152600d60248201527f4163636573732064656e69656400000000000000000000000000000000000000604482015290519081900360640190fd5b6000610734610ae1565b60075561073f610a9a565b60065573ffffffffffffffffffffffffffffffffffffffff8116156107a057610767816103bb565b73ffffffffffffffffffffffffffffffffffffffff82166000908152600960209081526040808320939093556007546008909152919020555b60045442106107be576107b68262093a80610d33565b600555610800565b6004546000906107ce9042610c91565b905060006107e760055483610cda90919063ffffffff16565b90506107fa62093a806104248684610d75565b60055550505b4260068190556108139062093a80610d75565b6004556040805183815290517fde88a922e0d3b88b24e9623efeb464919c6bf9f66857a65e2bfcf2ce87a9433d9181900360200190a15050565b33610856610ae1565b600755610861610a9a565b60065573ffffffffffffffffffffffffffffffffffffffff8116156108c257610889816103bb565b73ffffffffffffffffffffffffffffffffffffffff82166000908152600960209081526040808320939093556007546008909152919020555b60006108cd336103bb565b9050801561095e5733600081815260096020526040812055610927907f000000000000000000000000000000000000000000000000000000000000000073ffffffffffffffffffffffffffffffffffffffff169083610ee2565b60408051828152905133917fe2403640ba68fed3a2f88b7557551d1993f84b99bb10ff833f0cf8db0c5e0486919081900360200190a25b5050565b7f000000000000000000000000000000000000000000000000000000000000000081565b73ffffffffffffffffffffffffffffffffffffffff1660009081526003602052604090205490565b6109b6610dcf565b60005473ffffffffffffffffffffffffffffffffffffffff908116911614610a25576040805162461bcd60e51b815260206004820181905260248201527f4f776e61626c653a2063616c6c6572206973206e6f7420746865206f776e6572604482015290519081900360640190fd5b6000805460405173ffffffffffffffffffffffffffffffffffffffff909116907f8be0079c531659141344cd1fd0a4f28419497f9722a3daafe3b4186f6b6457e0908390a3600080547fffffffffffffffffffffffff0000000000000000000000000000000000000000169055565b60055481565b6000610aa842600454610f74565b905090565b60086020526000908152604090205481565b60005473ffffffffffffffffffffffffffffffffffffffff1690565b60065481565b6000610aeb610522565b610af85750600754610526565b610aa8610b26610b06610522565b610424670de0b6b3a764000061041e60055461041e60065461040f610a9a565b60075490610d75565b60075481565b60045481565b610b43610dcf565b60005473ffffffffffffffffffffffffffffffffffffffff908116911614610bb2576040805162461bcd60e51b815260206004820181905260248201527f4f776e61626c653a2063616c6c6572206973206e6f7420746865206f776e6572604482015290519081900360640190fd5b73ffffffffffffffffffffffffffffffffffffffff8116610c045760405162461bcd60e51b815260040180806020018281038252602681526020018061132d6026913960400191505060405180910390fd5b6000805460405173ffffffffffffffffffffffffffffffffffffffff808516939216917f8be0079c531659141344cd1fd0a4f28419497f9722a3daafe3b4186f6b6457e091a3600080547fffffffffffffffffffffffff00000000000000000000000000000000000000001673ffffffffffffffffffffffffffffffffffffffff92909216919091179055565b6000610cd383836040518060400160405280601e81526020017f536166654d6174683a207375627472616374696f6e206f766572666c6f770000815250610f8a565b9392505050565b600082610ce957506000610430565b82820282848281610cf657fe5b0414610cd35760405162461bcd60e51b81526004018080602001828103825260218152602001806113536021913960400191505060405180910390fd5b6000610cd383836040518060400160405280601a81526020017f536166654d6174683a206469766973696f6e206279207a65726f000000000000815250611021565b600082820183811015610cd3576040805162461bcd60e51b815260206004820152601b60248201527f536166654d6174683a206164646974696f6e206f766572666c6f770000000000604482015290519081900360640190fd5b3390565b600254610de09082610d75565b60025573ffffffffffffffffffffffffffffffffffffffff8216600090815260036020526040902054610e139082610d75565b73ffffffffffffffffffffffffffffffffffffffff90921660009081526003602052604090209190915550565b604080518082018252601b81527f4275726e20616d6f756e7420657863656564732062616c616e6365000000000060208083019190915273ffffffffffffffffffffffffffffffffffffffff8516600090815260039091529190912054610ea8918390610f8a565b73ffffffffffffffffffffffffffffffffffffffff8316600090815260036020526040902055600254610edb9082610c91565b6002555050565b6040805173ffffffffffffffffffffffffffffffffffffffff8416602482015260448082018490528251808303909101815260649091019091526020810180517bffffffffffffffffffffffffffffffffffffffffffffffffffffffff167fa9059cbb00000000000000000000000000000000000000000000000000000000179052610f6f908490611086565b505050565b6000818310610f835781610cd3565b5090919050565b600081848411156110195760405162461bcd60e51b81526004018080602001828103825283818151815260200191508051906020019080838360005b83811015610fde578181015183820152602001610fc6565b50505050905090810190601f16801561100b5780820380516001836020036101000a031916815260200191505b509250505060405180910390fd5b505050900390565b600081836110705760405162461bcd60e51b8152602060048201818152835160248401528351909283926044909101919085019080838360008315610fde578181015183820152602001610fc6565b50600083858161107c57fe5b0495945050505050565b60606110e8826040518060400160405280602081526020017f5361666545524332303a206c6f772d6c6576656c2063616c6c206661696c65648152508573ffffffffffffffffffffffffffffffffffffffff166111449092919063ffffffff16565b805190915015610f6f5780806020019051602081101561110757600080fd5b5051610f6f5760405162461bcd60e51b815260040180806020018281038252602a815260200180611374602a913960400191505060405180910390fd5b6060611153848460008561115b565b949350505050565b6060611166856112f3565b6111b7576040805162461bcd60e51b815260206004820152601d60248201527f416464726573733a2063616c6c20746f206e6f6e2d636f6e7472616374000000604482015290519081900360640190fd5b600060608673ffffffffffffffffffffffffffffffffffffffff1685876040518082805190602001908083835b6020831061122157805182527fffffffffffffffffffffffffffffffffffffffffffffffffffffffffffffffe090920191602091820191016111e4565b6001836020036101000a03801982511681845116808217855250505050505090500191505060006040518083038185875af1925050503d8060008114611283576040519150601f19603f3d011682016040523d82523d6000602084013e611288565b606091505b5091509150811561129c5791506111539050565b8051156112ac5780518082602001fd5b60405162461bcd60e51b8152602060048201818152865160248401528651879391928392604401919085019080838360008315610fde578181015183820152602001610fc6565b6000813f7fc5d2460186f7233c927e7db2dcc703c0e500b653ca82273b7bfad8045d85a47081811480159061115357505015159291505056fe4f776e61626c653a206e6577206f776e657220697320746865207a65726f2061646472657373536166654d6174683a206d756c7469706c69636174696f6e206f766572666c6f775361666545524332303a204552433230206f7065726174696f6e20646964206e6f742073756363656564a26469706673582212206e394d07fc1eb92980bfbfe5f80459cd7ba4709cafbfd7cf2db214f2211f10e364736f6c634300060c0033",
  "immutableReferences": {
    "2880": [
      {
        "length": 32,
        "start": 1388
      },
      {
        "length": 32,
        "start": 2404
      }
    ],
    "4739": [
      {
        "length": 32,
        "start": 1330
      },
      {
        "length": 32,
        "start": 2283
      }
    ]
  },
  "source": "// SPDX-License-Identifier: MIT\n\npragma solidity ^0.6.0;\n\nimport \"@openzeppelin/contracts/math/Math.sol\";\nimport \"@openzeppelin/contracts/math/SafeMath.sol\";\nimport \"@openzeppelin/contracts/access/Ownable.sol\";\nimport \"@openzeppelin/contracts/token/ERC20/SafeERC20.sol\";\nimport \"./IRewardDistributionRecipient.sol\";\nimport \"../BaseGovernanceModule.sol\";\nimport \"../../utils/BalanceAccounting.sol\";\n\n\ncontract Rewards is IRewardDistributionRecipient, BaseGovernanceModule, BalanceAccounting {\n    using SafeMath for uint256;\n    using SafeERC20 for IERC20;\n\n    event RewardAdded(uint256 reward);\n    event RewardPaid(address indexed user, uint256 reward);\n\n    uint256 public constant DURATION = 7 days;\n    IERC20 public immutable gift;\n\n    uint256 public periodFinish = 0;\n    uint256 public rewardRate = 0;\n    uint256 public lastUpdateTime;\n    uint256 public rewardPerTokenStored;\n    mapping(address => uint256) public userRewardPerTokenPaid;\n    mapping(address => uint256) public rewards;\n\n    modifier updateReward(address account) {\n        rewardPerTokenStored = rewardPerToken();\n        lastUpdateTime = lastTimeRewardApplicable();\n        if (account != address(0)) {\n            rewards[account] = earned(account);\n            userRewardPerTokenPaid[account] = rewardPerTokenStored;\n        }\n\n        _;\n    }\n\n    constructor(IERC20 _gift, address _mothership) public BaseGovernanceModule(_mothership) {\n        gift = _gift;\n    }\n\n    function lastTimeRewardApplicable() public view returns (uint256) {\n        return Math.min(block.timestamp, periodFinish);\n    }\n\n    function rewardPerToken() public view returns (uint256) {\n        if (totalSupply() == 0) {\n            return rewardPerTokenStored;\n        }\n        return\n            rewardPerTokenStored.add(\n                lastTimeRewardApplicable()\n                    .sub(lastUpdateTime)\n                    .mul(rewardRate)\n                    .mul(1e18)\n                    .div(totalSupply())\n            );\n    }\n\n    function earned(address account) public view returns (uint256) {\n        return\n            balanceOf(account)\n                .mul(rewardPerToken().sub(userRewardPerTokenPaid[account]))\n                .div(1e18)\n                .add(rewards[account]);\n    }\n\n    function notifyStakeChanged(address account, uint256 newBalance) external override onlyMothership updateReward(account) {\n        uint256 balance = balanceOf(account);\n        if (newBalance > balance) {\n            _mint(account, newBalance.sub(balance));\n        } else if (newBalance < balance) {\n            _burn(account, balance.sub(newBalance));\n        }\n    }\n\n    function getReward() external updateReward(msg.sender) {\n        uint256 reward = earned(msg.sender);\n        if (reward > 0) {\n            rewards[msg.sender] = 0;\n            gift.safeTransfer(msg.sender, reward);\n            emit RewardPaid(msg.sender, reward);\n        }\n    }\n\n    function notifyRewardAmount(uint256 reward)\n        external\n        override\n        onlyRewardDistribution\n        updateReward(address(0))\n    {\n        if (block.timestamp >= periodFinish) {\n            rewardRate = reward.div(DURATION);\n        } else {\n            uint256 remaining = periodFinish.sub(block.timestamp);\n            uint256 leftover = remaining.mul(rewardRate);\n            rewardRate = reward.add(leftover).div(DURATION);\n        }\n        lastUpdateTime = block.timestamp;\n        periodFinish = block.timestamp.add(DURATION);\n        emit RewardAdded(reward);\n    }\n}\n",
  "sourcePath": "/Users/zumzoom/Projects/1inch/mooniswap-v2/contracts/governance/rewards/Rewards.sol",
  "compiler": {
    "name": "solc",
    "version": "0.6.12+commit.27d51765.Emscripten.clang"
  },
  "schemaVersion": "3.3.2",
  "updatedAt": "2020-11-30T14:06:38.073Z",
  "devdoc": {
    "kind": "dev",
    "methods": {
      "owner()": {
        "details": "Returns the address of the current owner."
      },
      "renounceOwnership()": {
        "details": "Leaves the contract without owner. It will not be possible to call `onlyOwner` functions anymore. Can only be called by the current owner. NOTE: Renouncing ownership will leave the contract without an owner, thereby removing any functionality that is only available to the owner."
      },
      "transferOwnership(address)": {
        "details": "Transfers ownership of the contract to a new account (`newOwner`). Can only be called by the current owner."
      }
    },
    "version": 1
  },
  "userdoc": {
    "kind": "user",
    "methods": {},
    "version": 1
  }
}