{
  "contractName": "Rewards",
  "abi": [
    {
      "inputs": [
        {
          "internalType": "contract IERC20",
          "name": "_gift",
          "type": "address"
        },
        {
          "internalType": "address",
          "name": "_mothership",
          "type": "address"
        }
      ],
      "stateMutability": "nonpayable",
      "type": "constructor"
    },
    {
      "anonymous": false,
      "inputs": [
        {
          "indexed": true,
          "internalType": "address",
          "name": "previousOwner",
          "type": "address"
        },
        {
          "indexed": true,
          "internalType": "address",
          "name": "newOwner",
          "type": "address"
        }
      ],
      "name": "OwnershipTransferred",
      "type": "event"
    },
    {
      "anonymous": false,
      "inputs": [
        {
          "indexed": false,
          "internalType": "uint256",
          "name": "reward",
          "type": "uint256"
        }
      ],
      "name": "RewardAdded",
      "type": "event"
    },
    {
      "anonymous": false,
      "inputs": [
        {
          "indexed": true,
          "internalType": "address",
          "name": "user",
          "type": "address"
        },
        {
          "indexed": false,
          "internalType": "uint256",
          "name": "reward",
          "type": "uint256"
        }
      ],
      "name": "RewardPaid",
      "type": "event"
    },
    {
      "inputs": [],
      "name": "DURATION",
      "outputs": [
        {
          "internalType": "uint256",
          "name": "",
          "type": "uint256"
        }
      ],
      "stateMutability": "view",
      "type": "function"
    },
    {
      "inputs": [
        {
          "internalType": "address",
          "name": "account",
          "type": "address"
        }
      ],
      "name": "balanceOf",
      "outputs": [
        {
          "internalType": "uint256",
          "name": "",
          "type": "uint256"
        }
      ],
      "stateMutability": "view",
      "type": "function"
    },
    {
      "inputs": [],
      "name": "gift",
      "outputs": [
        {
          "internalType": "contract IERC20",
          "name": "",
          "type": "address"
        }
      ],
      "stateMutability": "view",
      "type": "function"
    },
    {
      "inputs": [],
      "name": "lastUpdateTime",
      "outputs": [
        {
          "internalType": "uint256",
          "name": "",
          "type": "uint256"
        }
      ],
      "stateMutability": "view",
      "type": "function"
    },
    {
      "inputs": [],
      "name": "mothership",
      "outputs": [
        {
          "internalType": "address",
          "name": "",
          "type": "address"
        }
      ],
      "stateMutability": "view",
      "type": "function"
    },
    {
      "inputs": [
        {
          "internalType": "address",
          "name": "account",
          "type": "address"
        },
        {
          "internalType": "uint256",
          "name": "newBalance",
          "type": "uint256"
        }
      ],
      "name": "notifyStakeChanged",
      "outputs": [],
      "stateMutability": "nonpayable",
      "type": "function"
    },
    {
      "inputs": [
        {
          "internalType": "address[]",
          "name": "accounts",
          "type": "address[]"
        },
        {
          "internalType": "uint256[]",
          "name": "newBalances",
          "type": "uint256[]"
        }
      ],
      "name": "notifyStakesChanged",
      "outputs": [],
      "stateMutability": "nonpayable",
      "type": "function"
    },
    {
      "inputs": [],
      "name": "owner",
      "outputs": [
        {
          "internalType": "address",
          "name": "",
          "type": "address"
        }
      ],
      "stateMutability": "view",
      "type": "function"
    },
    {
      "inputs": [],
      "name": "periodFinish",
      "outputs": [
        {
          "internalType": "uint256",
          "name": "",
          "type": "uint256"
        }
      ],
      "stateMutability": "view",
      "type": "function"
    },
    {
      "inputs": [],
      "name": "renounceOwnership",
      "outputs": [],
      "stateMutability": "nonpayable",
      "type": "function"
    },
    {
      "inputs": [],
      "name": "rewardDistribution",
      "outputs": [
        {
          "internalType": "address",
          "name": "",
          "type": "address"
        }
      ],
      "stateMutability": "view",
      "type": "function"
    },
    {
      "inputs": [],
      "name": "rewardPerTokenStored",
      "outputs": [
        {
          "internalType": "uint256",
          "name": "",
          "type": "uint256"
        }
      ],
      "stateMutability": "view",
      "type": "function"
    },
    {
      "inputs": [],
      "name": "rewardRate",
      "outputs": [
        {
          "internalType": "uint256",
          "name": "",
          "type": "uint256"
        }
      ],
      "stateMutability": "view",
      "type": "function"
    },
    {
      "inputs": [
        {
          "internalType": "address",
          "name": "",
          "type": "address"
        }
      ],
      "name": "rewards",
      "outputs": [
        {
          "internalType": "uint256",
          "name": "",
          "type": "uint256"
        }
      ],
      "stateMutability": "view",
      "type": "function"
    },
    {
      "inputs": [
        {
          "internalType": "address",
          "name": "_rewardDistribution",
          "type": "address"
        }
      ],
      "name": "setRewardDistribution",
      "outputs": [],
      "stateMutability": "nonpayable",
      "type": "function"
    },
    {
      "inputs": [],
      "name": "totalSupply",
      "outputs": [
        {
          "internalType": "uint256",
          "name": "",
          "type": "uint256"
        }
      ],
      "stateMutability": "view",
      "type": "function"
    },
    {
      "inputs": [
        {
          "internalType": "address",
          "name": "newOwner",
          "type": "address"
        }
      ],
      "name": "transferOwnership",
      "outputs": [],
      "stateMutability": "nonpayable",
      "type": "function"
    },
    {
      "inputs": [
        {
          "internalType": "address",
          "name": "",
          "type": "address"
        }
      ],
      "name": "userRewardPerTokenPaid",
      "outputs": [
        {
          "internalType": "uint256",
          "name": "",
          "type": "uint256"
        }
      ],
      "stateMutability": "view",
      "type": "function"
    },
    {
      "inputs": [],
      "name": "lastTimeRewardApplicable",
      "outputs": [
        {
          "internalType": "uint256",
          "name": "",
          "type": "uint256"
        }
      ],
      "stateMutability": "view",
      "type": "function"
    },
    {
      "inputs": [],
      "name": "rewardPerToken",
      "outputs": [
        {
          "internalType": "uint256",
          "name": "",
          "type": "uint256"
        }
      ],
      "stateMutability": "view",
      "type": "function"
    },
    {
      "inputs": [
        {
          "internalType": "address",
          "name": "account",
          "type": "address"
        }
      ],
      "name": "earned",
      "outputs": [
        {
          "internalType": "uint256",
          "name": "",
          "type": "uint256"
        }
      ],
      "stateMutability": "view",
      "type": "function"
    },
    {
      "inputs": [],
      "name": "getReward",
      "outputs": [],
      "stateMutability": "nonpayable",
      "type": "function"
    },
    {
      "inputs": [
        {
          "internalType": "uint256",
          "name": "reward",
          "type": "uint256"
        }
      ],
      "name": "notifyRewardAmount",
      "outputs": [],
      "stateMutability": "nonpayable",
      "type": "function"
    }
  ],
  "bytecode": "0x60c06040526000600455600060055534801561001a57600080fd5b506040516116e23803806116e28339818101604052604081101561003d57600080fd5b5080516020909101518060006100516100bd565b600080546001600160a01b0319166001600160a01b0383169081178255604051929350917f8be0079c531659141344cd1fd0a4f28419497f9722a3daafe3b4186f6b6457e0908290a3506001600160601b0319606091821b811660805292901b90911660a052506100c1565b3390565b60805160601c60a05160601c6115e96100f9600039806105ff5280610903525080610639528061097b5280610b0a52506115e96000f3fe608060405234801561001057600080fd5b506004361061018c5760003560e01c806370a08231116100e3578063ad3333481161008c578063df136d6511610066578063df136d6514610445578063ebe2b12b1461044d578063f2fde38b146104555761018c565b8063ad33334814610373578063c8f33c9114610435578063cd3daf9d1461043d5761018c565b806380faa57d116100bd57806380faa57d146103305780638b876347146103385780638da5cb5b1461036b5761018c565b806370a08231146102ed578063715018a6146103205780637b0a47ee146103285761018c565b80631be05289116101455780633c6b16ab1161011f5780633c6b16ab146102c05780633d18b912146102dd5780634187b7d6146102e55761018c565b80631be052891461027757806324b049051461027f57806327a27433146102875761018c565b80630d68b761116101765780630d68b76114610209578063101114cf1461023e57806318160ddd1461026f5761018c565b80628cc262146101915780630700037d146101d6575b600080fd5b6101c4600480360360208110156101a757600080fd5b503573ffffffffffffffffffffffffffffffffffffffff16610488565b60408051918252519081900360200190f35b6101c4600480360360208110156101ec57600080fd5b503573ffffffffffffffffffffffffffffffffffffffff16610503565b61023c6004803603602081101561021f57600080fd5b503573ffffffffffffffffffffffffffffffffffffffff16610515565b005b6102466105d3565b6040805173ffffffffffffffffffffffffffffffffffffffff9092168252519081900360200190f35b6101c46105ef565b6101c46105f6565b6102466105fd565b61023c6004803603604081101561029d57600080fd5b5073ffffffffffffffffffffffffffffffffffffffff8135169060200135610621565b61023c600480360360208110156102d657600080fd5b50356106b9565b61023c610865565b610246610979565b6101c46004803603602081101561030357600080fd5b503573ffffffffffffffffffffffffffffffffffffffff1661099d565b61023c6109c5565b6101c4610aab565b6101c4610ab1565b6101c46004803603602081101561034e57600080fd5b503573ffffffffffffffffffffffffffffffffffffffff16610ac4565b610246610ad6565b61023c6004803603604081101561038957600080fd5b8101906020810181356401000000008111156103a457600080fd5b8201836020820111156103b657600080fd5b803590602001918460208302840111640100000000831117156103d857600080fd5b9193909290916020810190356401000000008111156103f657600080fd5b82018360208201111561040857600080fd5b8035906020019184602083028401116401000000008311171561042a57600080fd5b509092509050610af2565b6101c4610c2e565b6101c4610c34565b6101c4610c82565b6101c4610c88565b61023c6004803603602081101561046b57600080fd5b503573ffffffffffffffffffffffffffffffffffffffff16610c8e565b73ffffffffffffffffffffffffffffffffffffffff811660009081526009602090815260408083205460089092528220546104fd91906104f790670de0b6b3a7640000906104f1906104e2906104dc610c34565b90610de4565b6104eb8861099d565b90610e2d565b90610e86565b90610ec8565b92915050565b60096020526000908152604090205481565b61051d610f22565b60005473ffffffffffffffffffffffffffffffffffffffff90811691161461058c576040805162461bcd60e51b815260206004820181905260248201527f4f776e61626c653a2063616c6c6572206973206e6f7420746865206f776e6572604482015290519081900360640190fd5b600180547fffffffffffffffffffffffff00000000000000000000000000000000000000001673ffffffffffffffffffffffffffffffffffffffff92909216919091179055565b60015473ffffffffffffffffffffffffffffffffffffffff1681565b6002545b90565b62093a8081565b7f000000000000000000000000000000000000000000000000000000000000000081565b3373ffffffffffffffffffffffffffffffffffffffff7f000000000000000000000000000000000000000000000000000000000000000016146106ab576040805162461bcd60e51b815260206004820152601f60248201527f416363657373207265737472696374656420746f206d6f746865727368697000604482015290519081900360640190fd5b6106b58282610f26565b5050565b60015473ffffffffffffffffffffffffffffffffffffffff166106da610f22565b73ffffffffffffffffffffffffffffffffffffffff1614610742576040805162461bcd60e51b815260206004820152600d60248201527f4163636573732064656e69656400000000000000000000000000000000000000604482015290519081900360640190fd5b600061074c610c34565b600755610757610ab1565b60065573ffffffffffffffffffffffffffffffffffffffff8116156107b85761077f81610488565b73ffffffffffffffffffffffffffffffffffffffff82166000908152600960209081526040808320939093556007546008909152919020555b60045442106107d6576107ce8262093a80610e86565b600555610818565b6004546000906107e69042610de4565b905060006107ff60055483610e2d90919063ffffffff16565b905061081262093a806104f18684610ec8565b60055550505b42600681905561082b9062093a80610ec8565b6004556040805183815290517fde88a922e0d3b88b24e9623efeb464919c6bf9f66857a65e2bfcf2ce87a9433d9181900360200190a15050565b3361086e610c34565b600755610879610ab1565b60065573ffffffffffffffffffffffffffffffffffffffff8116156108da576108a181610488565b73ffffffffffffffffffffffffffffffffffffffff82166000908152600960209081526040808320939093556007546008909152919020555b60006108e533610488565b905080156106b5573360008181526009602052604081205561093f907f000000000000000000000000000000000000000000000000000000000000000073ffffffffffffffffffffffffffffffffffffffff169083610fe9565b60408051828152905133917fe2403640ba68fed3a2f88b7557551d1993f84b99bb10ff833f0cf8db0c5e0486919081900360200190a25050565b7f000000000000000000000000000000000000000000000000000000000000000081565b73ffffffffffffffffffffffffffffffffffffffff1660009081526003602052604090205490565b6109cd610f22565b60005473ffffffffffffffffffffffffffffffffffffffff908116911614610a3c576040805162461bcd60e51b815260206004820181905260248201527f4f776e61626c653a2063616c6c6572206973206e6f7420746865206f776e6572604482015290519081900360640190fd5b6000805460405173ffffffffffffffffffffffffffffffffffffffff909116907f8be0079c531659141344cd1fd0a4f28419497f9722a3daafe3b4186f6b6457e0908390a3600080547fffffffffffffffffffffffff0000000000000000000000000000000000000000169055565b60055481565b6000610abf4260045461107b565b905090565b60086020526000908152604090205481565b60005473ffffffffffffffffffffffffffffffffffffffff1690565b3373ffffffffffffffffffffffffffffffffffffffff7f00000000000000000000000000000000000000000000000000000000000000001614610b7c576040805162461bcd60e51b815260206004820152601f60248201527f416363657373207265737472696374656420746f206d6f746865727368697000604482015290519081900360640190fd5b828114610bd0576040805162461bcd60e51b815260206004820152601d60248201527f417272617973206c656e6774682073686f756c6420626520657175616c000000604482015290519081900360640190fd5b60005b83811015610c2757610c1f858583818110610bea57fe5b9050602002013573ffffffffffffffffffffffffffffffffffffffff16848484818110610c1357fe5b90506020020135610f26565b600101610bd3565b5050505050565b60065481565b6000610c3e6105ef565b610c4b57506007546105f3565b610abf610c79610c596105ef565b6104f1670de0b6b3a76400006104eb6005546104eb6006546104dc610ab1565b60075490610ec8565b60075481565b60045481565b610c96610f22565b60005473ffffffffffffffffffffffffffffffffffffffff908116911614610d05576040805162461bcd60e51b815260206004820181905260248201527f4f776e61626c653a2063616c6c6572206973206e6f7420746865206f776e6572604482015290519081900360640190fd5b73ffffffffffffffffffffffffffffffffffffffff8116610d575760405162461bcd60e51b81526004018080602001828103825260268152602001806115436026913960400191505060405180910390fd5b6000805460405173ffffffffffffffffffffffffffffffffffffffff808516939216917f8be0079c531659141344cd1fd0a4f28419497f9722a3daafe3b4186f6b6457e091a3600080547fffffffffffffffffffffffff00000000000000000000000000000000000000001673ffffffffffffffffffffffffffffffffffffffff92909216919091179055565b6000610e2683836040518060400160405280601e81526020017f536166654d6174683a207375627472616374696f6e206f766572666c6f770000815250611091565b9392505050565b600082610e3c575060006104fd565b82820282848281610e4957fe5b0414610e265760405162461bcd60e51b81526004018080602001828103825260218152602001806115696021913960400191505060405180910390fd5b6000610e2683836040518060400160405280601a81526020017f536166654d6174683a206469766973696f6e206279207a65726f000000000000815250611128565b600082820183811015610e26576040805162461bcd60e51b815260206004820152601b60248201527f536166654d6174683a206164646974696f6e206f766572666c6f770000000000604482015290519081900360640190fd5b3390565b81610f2f610c34565b600755610f3a610ab1565b60065573ffffffffffffffffffffffffffffffffffffffff811615610f9b57610f6281610488565b73ffffffffffffffffffffffffffffffffffffffff82166000908152600960209081526040808320939093556007546008909152919020555b6000610fa68461099d565b905080831115610fc857610fc384610fbe8584610de4565b61118d565b610fe3565b80831015610fe357610fe384610fde8386610de4565b6111fa565b50505050565b6040805173ffffffffffffffffffffffffffffffffffffffff8416602482015260448082018490528251808303909101815260649091019091526020810180517bffffffffffffffffffffffffffffffffffffffffffffffffffffffff167fa9059cbb0000000000000000000000000000000000000000000000000000000017905261107690849061129c565b505050565b600081831061108a5781610e26565b5090919050565b600081848411156111205760405162461bcd60e51b81526004018080602001828103825283818151815260200191508051906020019080838360005b838110156110e55781810151838201526020016110cd565b50505050905090810190601f1680156111125780820380516001836020036101000a031916815260200191505b509250505060405180910390fd5b505050900390565b600081836111775760405162461bcd60e51b81526020600482018181528351602484015283519092839260449091019190850190808383600083156110e55781810151838201526020016110cd565b50600083858161118357fe5b0495945050505050565b60025461119a9082610ec8565b60025573ffffffffffffffffffffffffffffffffffffffff82166000908152600360205260409020546111cd9082610ec8565b73ffffffffffffffffffffffffffffffffffffffff90921660009081526003602052604090209190915550565b604080518082018252601b81527f4275726e20616d6f756e7420657863656564732062616c616e6365000000000060208083019190915273ffffffffffffffffffffffffffffffffffffffff8516600090815260039091529190912054611262918390611091565b73ffffffffffffffffffffffffffffffffffffffff83166000908152600360205260409020556002546112959082610de4565b6002555050565b60606112fe826040518060400160405280602081526020017f5361666545524332303a206c6f772d6c6576656c2063616c6c206661696c65648152508573ffffffffffffffffffffffffffffffffffffffff1661135a9092919063ffffffff16565b8051909150156110765780806020019051602081101561131d57600080fd5b50516110765760405162461bcd60e51b815260040180806020018281038252602a81526020018061158a602a913960400191505060405180910390fd5b60606113698484600085611371565b949350505050565b606061137c85611509565b6113cd576040805162461bcd60e51b815260206004820152601d60248201527f416464726573733a2063616c6c20746f206e6f6e2d636f6e7472616374000000604482015290519081900360640190fd5b600060608673ffffffffffffffffffffffffffffffffffffffff1685876040518082805190602001908083835b6020831061143757805182527fffffffffffffffffffffffffffffffffffffffffffffffffffffffffffffffe090920191602091820191016113fa565b6001836020036101000a03801982511681845116808217855250505050505090500191505060006040518083038185875af1925050503d8060008114611499576040519150601f19603f3d011682016040523d82523d6000602084013e61149e565b606091505b509150915081156114b25791506113699050565b8051156114c25780518082602001fd5b60405162461bcd60e51b81526020600482018181528651602484015286518793919283926044019190850190808383600083156110e55781810151838201526020016110cd565b6000813f7fc5d2460186f7233c927e7db2dcc703c0e500b653ca82273b7bfad8045d85a47081811480159061136957505015159291505056fe4f776e61626c653a206e6577206f776e657220697320746865207a65726f2061646472657373536166654d6174683a206d756c7469706c69636174696f6e206f766572666c6f775361666545524332303a204552433230206f7065726174696f6e20646964206e6f742073756363656564a2646970667358221220499ecf2995fd2f95eb6e3719fa2bd793d520647a237f79c373b44e03db47caf464736f6c634300060c0033",
  "immutableReferences": {
    "3007": [
      {
        "length": 32,
        "start": 1593
      },
      {
        "length": 32,
        "start": 2427
      },
      {
        "length": 32,
        "start": 2826
      }
    ],
    "4945": [
      {
        "length": 32,
        "start": 1535
      },
      {
        "length": 32,
        "start": 2307
      }
    ]
  },
  "source": "// SPDX-License-Identifier: MIT\n\npragma solidity ^0.6.0;\n\nimport \"@openzeppelin/contracts/math/Math.sol\";\nimport \"@openzeppelin/contracts/math/SafeMath.sol\";\nimport \"@openzeppelin/contracts/access/Ownable.sol\";\nimport \"@openzeppelin/contracts/token/ERC20/SafeERC20.sol\";\nimport \"./RewardDistributionRecipient.sol\";\nimport \"../BaseGovernanceModule.sol\";\nimport \"../../utils/BalanceAccounting.sol\";\n\n\ncontract Rewards is RewardDistributionRecipient, BaseGovernanceModule, BalanceAccounting {\n    using SafeMath for uint256;\n    using SafeERC20 for IERC20;\n\n    event RewardAdded(uint256 reward);\n    event RewardPaid(address indexed user, uint256 reward);\n\n    uint256 public constant DURATION = 7 days;\n    IERC20 public immutable gift;\n\n    uint256 public periodFinish = 0;\n    uint256 public rewardRate = 0;\n    uint256 public lastUpdateTime;\n    uint256 public rewardPerTokenStored;\n    mapping(address => uint256) public userRewardPerTokenPaid;\n    mapping(address => uint256) public rewards;\n\n    modifier updateReward(address account) {\n        rewardPerTokenStored = rewardPerToken();\n        lastUpdateTime = lastTimeRewardApplicable();\n        if (account != address(0)) {\n            rewards[account] = earned(account);\n            userRewardPerTokenPaid[account] = rewardPerTokenStored;\n        }\n\n        _;\n    }\n\n    constructor(IERC20 _gift, address _mothership) public BaseGovernanceModule(_mothership) {\n        gift = _gift;\n    }\n\n    function lastTimeRewardApplicable() public view returns (uint256) {\n        return Math.min(block.timestamp, periodFinish);\n    }\n\n    function rewardPerToken() public view returns (uint256) {\n        if (totalSupply() == 0) {\n            return rewardPerTokenStored;\n        }\n        return\n            rewardPerTokenStored.add(\n                lastTimeRewardApplicable()\n                    .sub(lastUpdateTime)\n                    .mul(rewardRate)\n                    .mul(1e18)\n                    .div(totalSupply())\n            );\n    }\n\n    function earned(address account) public view returns (uint256) {\n        return\n            balanceOf(account)\n                .mul(rewardPerToken().sub(userRewardPerTokenPaid[account]))\n                .div(1e18)\n                .add(rewards[account]);\n    }\n\n    function _notifyStakeChanged(address account, uint256 newBalance) internal override updateReward(account) {\n        uint256 balance = balanceOf(account);\n        if (newBalance > balance) {\n            _mint(account, newBalance.sub(balance));\n        } else if (newBalance < balance) {\n            _burn(account, balance.sub(newBalance));\n        }\n    }\n\n    function getReward() external updateReward(msg.sender) {\n        uint256 reward = earned(msg.sender);\n        if (reward > 0) {\n            rewards[msg.sender] = 0;\n            gift.safeTransfer(msg.sender, reward);\n            emit RewardPaid(msg.sender, reward);\n        }\n    }\n\n    function notifyRewardAmount(uint256 reward)\n        external\n        override\n        onlyRewardDistribution\n        updateReward(address(0))\n    {\n        if (block.timestamp >= periodFinish) {\n            rewardRate = reward.div(DURATION);\n        } else {\n            uint256 remaining = periodFinish.sub(block.timestamp);\n            uint256 leftover = remaining.mul(rewardRate);\n            rewardRate = reward.add(leftover).div(DURATION);\n        }\n        lastUpdateTime = block.timestamp;\n        periodFinish = block.timestamp.add(DURATION);\n        emit RewardAdded(reward);\n    }\n}\n",
  "sourcePath": "/Users/zumzoom/Projects/1inch/mooniswap-v2/contracts/governance/rewards/Rewards.sol",
  "compiler": {
    "name": "solc",
    "version": "0.6.12+commit.27d51765.Emscripten.clang"
  },
  "schemaVersion": "3.3.2",
  "updatedAt": "2020-12-07T09:34:53.748Z",
  "devdoc": {
    "kind": "dev",
    "methods": {
      "owner()": {
        "details": "Returns the address of the current owner."
      },
      "renounceOwnership()": {
        "details": "Leaves the contract without owner. It will not be possible to call `onlyOwner` functions anymore. Can only be called by the current owner. NOTE: Renouncing ownership will leave the contract without an owner, thereby removing any functionality that is only available to the owner."
      },
      "transferOwnership(address)": {
        "details": "Transfers ownership of the contract to a new account (`newOwner`). Can only be called by the current owner."
      }
    },
    "version": 1
  },
  "userdoc": {
    "kind": "user",
    "methods": {},
    "version": 1
  }
}