{
  "address": "0xF9D6dec8eDfF1eb0214B3A3C6E44E4F8333C7d4D",
  "abi": [
    {
      "inputs": [
        {
          "internalType": "contract IERC20",
          "name": "_inchToken",
          "type": "address"
        }
      ],
      "stateMutability": "nonpayable",
      "type": "constructor"
    },
    {
      "anonymous": false,
      "inputs": [
        {
          "indexed": true,
          "internalType": "address",
          "name": "module",
          "type": "address"
        }
      ],
      "name": "AddModule",
      "type": "event"
    },
    {
      "anonymous": false,
      "inputs": [
        {
          "indexed": true,
          "internalType": "address",
          "name": "previousOwner",
          "type": "address"
        },
        {
          "indexed": true,
          "internalType": "address",
          "name": "newOwner",
          "type": "address"
        }
      ],
      "name": "OwnershipTransferred",
      "type": "event"
    },
    {
      "anonymous": false,
      "inputs": [
        {
          "indexed": true,
          "internalType": "address",
          "name": "module",
          "type": "address"
        }
      ],
      "name": "RemoveModule",
      "type": "event"
    },
    {
      "anonymous": false,
      "inputs": [
        {
          "indexed": true,
          "internalType": "address",
          "name": "from",
          "type": "address"
        },
        {
          "indexed": true,
          "internalType": "address",
          "name": "to",
          "type": "address"
        },
        {
          "indexed": false,
          "internalType": "uint256",
          "name": "value",
          "type": "uint256"
        }
      ],
      "name": "Transfer",
      "type": "event"
    },
    {
      "inputs": [
        {
          "internalType": "address",
          "name": "module",
          "type": "address"
        }
      ],
      "name": "addModule",
      "outputs": [],
      "stateMutability": "nonpayable",
      "type": "function"
    },
    {
      "inputs": [
        {
          "internalType": "address",
          "name": "account",
          "type": "address"
        }
      ],
      "name": "balanceOf",
      "outputs": [
        {
          "internalType": "uint256",
          "name": "",
          "type": "uint256"
        }
      ],
      "stateMutability": "view",
      "type": "function"
    },
    {
      "inputs": [
        {
          "internalType": "address[]",
          "name": "accounts",
          "type": "address[]"
        }
      ],
      "name": "batchNotifyFor",
      "outputs": [],
      "stateMutability": "nonpayable",
      "type": "function"
    },
    {
      "inputs": [],
      "name": "decimals",
      "outputs": [
        {
          "internalType": "uint8",
          "name": "",
          "type": "uint8"
        }
      ],
      "stateMutability": "pure",
      "type": "function"
    },
    {
      "inputs": [],
      "name": "inchToken",
      "outputs": [
        {
          "internalType": "contract IERC20",
          "name": "",
          "type": "address"
        }
      ],
      "stateMutability": "view",
      "type": "function"
    },
    {
      "inputs": [],
      "name": "name",
      "outputs": [
        {
          "internalType": "string",
          "name": "",
          "type": "string"
        }
      ],
      "stateMutability": "pure",
      "type": "function"
    },
    {
      "inputs": [],
      "name": "notify",
      "outputs": [],
      "stateMutability": "nonpayable",
      "type": "function"
    },
    {
      "inputs": [
        {
          "internalType": "address",
          "name": "account",
          "type": "address"
        }
      ],
      "name": "notifyFor",
      "outputs": [],
      "stateMutability": "nonpayable",
      "type": "function"
    },
    {
      "inputs": [],
      "name": "owner",
      "outputs": [
        {
          "internalType": "address",
          "name": "",
          "type": "address"
        }
      ],
      "stateMutability": "view",
      "type": "function"
    },
    {
      "inputs": [
        {
          "internalType": "address",
          "name": "module",
          "type": "address"
        }
      ],
      "name": "removeModule",
      "outputs": [],
      "stateMutability": "nonpayable",
      "type": "function"
    },
    {
      "inputs": [],
      "name": "renounceOwnership",
      "outputs": [],
      "stateMutability": "nonpayable",
      "type": "function"
    },
    {
      "inputs": [
        {
          "internalType": "uint256",
          "name": "amount",
          "type": "uint256"
        }
      ],
      "name": "stake",
      "outputs": [],
      "stateMutability": "nonpayable",
      "type": "function"
    },
    {
      "inputs": [],
      "name": "symbol",
      "outputs": [
        {
          "internalType": "string",
          "name": "",
          "type": "string"
        }
      ],
      "stateMutability": "pure",
      "type": "function"
    },
    {
      "inputs": [],
      "name": "totalSupply",
      "outputs": [
        {
          "internalType": "uint256",
          "name": "",
          "type": "uint256"
        }
      ],
      "stateMutability": "view",
      "type": "function"
    },
    {
      "inputs": [
        {
          "internalType": "address",
          "name": "newOwner",
          "type": "address"
        }
      ],
      "name": "transferOwnership",
      "outputs": [],
      "stateMutability": "nonpayable",
      "type": "function"
    },
    {
      "inputs": [
        {
          "internalType": "uint256",
          "name": "amount",
          "type": "uint256"
        }
      ],
      "name": "unstake",
      "outputs": [],
      "stateMutability": "nonpayable",
      "type": "function"
    }
  ],
  "transactionHash": "0x70e38b040f6a900b7b08afc8ee5deb962965c1cd5cdeb0f33a3d797c58ed1b0c",
  "args": [
    "0x135C8C0393fbbb6942294192064EeD5e63A24A93"
  ],
  "solcInputHash": "a38ae5599f0a3af2e3be1bffc2abb66b",
  "bytecode": "0x60a06040523480156200001c5760008062000019620000ff565b50505b5060405162001efb38038062001efb833981810160405260208110156200004d576000806200004a620000ff565b50505b810190808051925060009150620000659050620000ed565b9050806000600181620000776200016c565b816001600160a01b0302191690836001600160a01b03160217906200009b620001ce565b5050506001600160a01b03811660007f8be0079c531659141344cd1fd0a4f28419497f9722a3daafe3b4186f6b6457e060405160405180910390a35060601b6001600160601b03191660805262000264565b60005a620000fa6200021d565b905090565b632a2a7adb598160e01b8152600481016020815285602082015260005b86811015620001395780860151828201604001526020016200011c565b506020828760640184336000905af158600e01573d6000803e3d6000fd5b3d6001141558600a015760016000f35b505050565b6303daa959598160e01b8152836004820152602081602483336000905af158600e01573d6000803e3d6000fd5b3d6001141558600a015760016000f35b8051935060005b6040811015620001c957600082820152602001620001b0565b505050565b6322bd64c0598160e01b8152836004820152846024820152600081604483336000905af158600e01573d6000803e3d6000fd5b3d6001141558600a015760016000f35b600081526020620001b0565b6373509064598160e01b8152602081600483336000905af158600e01573d6000803e3d6000fd5b3d6001141558600a015760016000f35b80516000825293506020620001b0565b60805160601c611c6f6200028c600039806106dd5280610e2e528061101d5250611c6f6000f3fe608060405234801561001957600080610016611995565b50505b50600436106101095760003560e01c8063715018a6116100a0578063a06324611161006f578063a0632461146103ba578063a694fc3a146103f6578063ec9545941461041c578063f2fde38b1461042457610109565b8063715018a614610371578063899f5898146103795780638da5cb5b1461038157806395d89b41146103b257610109565b80632e17de78116100dc5780632e17de781461022a578063313ce567146102505780635cf1cd2b1461026e57806370a082311461033557610109565b806306fdde0314610117578063132b4fc81461019657806318160ddd146101d45780631ed86f19146101ee575b600080610114611995565b50505b61011f610460565b60405160208082528190810183818151815260200191508051906020019080838360005b8381101561015b578082015183820152602001610143565b50505050905090810190601f1680156101885780820380516001836020036101000a031916815260200191505b509250505060405180910390f35b6101d2600480360360208110156101b5576000806101b2611995565b50505b503573ffffffffffffffffffffffffffffffffffffffff1661049b565b005b6101dc6104b0565b60405190815260200160405180910390f35b6101d26004803603602081101561020d5760008061020a611995565b50505b503573ffffffffffffffffffffffffffffffffffffffff166104c1565b6101d26004803603602081101561024957600080610246611995565b50505b5035610635565b610258610847565b60405160ff909116815260200160405180910390f35b6101d26004803603602081101561028d5760008061028a611995565b50505b8101906020810181356401000000008111156102b1576000806102ae611995565b50505b8201836020820111156102cc576000806102c9611995565b50505b803590602001918460208302840111640100000000831117156102f7576000806102f4611995565b50505b91908080602002602001604051908101604052809392919081815260200183836020028082843760009201919091525092955061084c945050505050565b6101dc6004803603602081101561035457600080610351611995565b50505b503573ffffffffffffffffffffffffffffffffffffffff16610a2d565b6101d2610a60565b6101d2610bca565b610389610bd8565b60405173ffffffffffffffffffffffffffffffffffffffff909116815260200160405180910390f35b61011f610c06565b6101d2600480360360208110156103d9576000806103d6611995565b50505b503573ffffffffffffffffffffffffffffffffffffffff16610c41565b6101d26004803603602081101561041557600080610412611995565b50505b5035610db5565b61038961101b565b6101d26004803603602081101561044357600080610440611995565b50505b503573ffffffffffffffffffffffffffffffffffffffff1661103f565b606060405160408082019052601481527f31494e434820546f6b656e20285374616b6564290000000000000000000000006020820152905090565b6104ad816104a883610a2d565b61122f565b50565b600060016104bc611a00565b905090565b6104c9611389565b73ffffffffffffffffffffffffffffffffffffffff166104e7610bd8565b73ffffffffffffffffffffffffffffffffffffffff1614610571576040517f08c379a000000000000000000000000000000000000000000000000000000000815260206004820181905260248201527f4f776e61626c653a2063616c6c6572206973206e6f7420746865206f776e657260448201526064016040518091039061056e611995565b50505b61057c600382611394565b6105ef576040517f08c379a000000000000000000000000000000000000000000000000000000000815260206004820152601960248201527f4d6f64756c6520616c72656164792072656769737465726564000000000000006044820152606401604051809103906105ec611995565b50505b8073ffffffffffffffffffffffffffffffffffffffff167f0e8ab0265c955b9584b70d255e316c63717f1fb52ba0acfff63bca74ca2e8fad60405160405180910390a250565b600081116106ac576040517f08c379a000000000000000000000000000000000000000000000000000000000815260206004820152601c60248201527f456d70747920756e7374616b65206973206e6f7420616c6c6f776564000000006044820152606401604051809103906106a9611995565b50505b6106be5a6106b8611a5b565b826113bd565b6106db5a6106ca611a5b565b6104a85a6106d6611a5b565b610a2d565b7f000000000000000000000000000000000000000000000000000000000000000073ffffffffffffffffffffffffffffffffffffffff1663a9059cbb5a610720611a5b565b836040517fffffffff0000000000000000000000000000000000000000000000000000000060e085901b16815273ffffffffffffffffffffffffffffffffffffffff9092166004830152602482015260440160206040518083038160008780610787611aa1565b15801561079c57600080610799611995565b50505b505a6107a6611aed565b5050505050501580156107c6573d6000803e3d60006107c3611995565b50505b505050506040513d60208110156107e5576000806107e2611995565b50505b810190808051506000925050505a6107fb611a5b565b73ffffffffffffffffffffffffffffffffffffffff167fddf252ad1be2c89b69c2b068fc378daa952ba7f163c4a11628f55a4df523b3ef8360405190815260200160405180910390a350565b601290565b60006108586003611482565b90506060825167ffffffffffffffff8111801561087d5760008061087a611995565b50505b506040519080825280602002602001820160405280156108a7578160200160208202803683370190505b50905060005b83518110156108f1576108d28482815181106108c557fe5b6020026020010151610a2d565b8282815181106108de57fe5b60209081029190910101526001016108ad565b5060005b82811015610a275761090860038261148d565b73ffffffffffffffffffffffffffffffffffffffff1663ad33334885846040518363ffffffff1660e01b8152600401808060200180602001838103835285818151815260200191508051906020019060200280838360005b83811015610978578082015183820152602001610960565b50505050905001838103825284818151815260200191508051906020019060200280838360005b838110156109b757808201518382015260200161099f565b50505050905001945050505050600060405180830381600087806109d9611aa1565b1580156109ee576000806109eb611995565b50505b505a6109f8611aed565b505050505050158015610a18573d6000803e3d6000610a15611995565b50505b505050508060010190506108f5565b50505050565b73ffffffffffffffffffffffffffffffffffffffff81166000908152600260205260408120610a5a611a00565b92915050565b610a68611389565b73ffffffffffffffffffffffffffffffffffffffff16610a86610bd8565b73ffffffffffffffffffffffffffffffffffffffff1614610b10576040517f08c379a000000000000000000000000000000000000000000000000000000000815260206004820181905260248201527f4f776e61626c653a2063616c6c6572206973206e6f7420746865206f776e6572604482015260640160405180910390610b0d611995565b50505b60008080610b1c611a00565b906101000a900473ffffffffffffffffffffffffffffffffffffffff1673ffffffffffffffffffffffffffffffffffffffff167f8be0079c531659141344cd1fd0a4f28419497f9722a3daafe3b4186f6b6457e060405160405180910390a3600080600181610b89611a00565b8173ffffffffffffffffffffffffffffffffffffffff021916908373ffffffffffffffffffffffffffffffffffffffff16021790610bc5611bd8565b505050565b610bd65a6106ca611a5b565b565b60008080610be4611a00565b906101000a900473ffffffffffffffffffffffffffffffffffffffff16905090565b606060405160408082019052600781527f737431494e4348000000000000000000000000000000000000000000000000006020820152905090565b610c49611389565b73ffffffffffffffffffffffffffffffffffffffff16610c67610bd8565b73ffffffffffffffffffffffffffffffffffffffff1614610cf1576040517f08c379a000000000000000000000000000000000000000000000000000000000815260206004820181905260248201527f4f776e61626c653a2063616c6c6572206973206e6f7420746865206f776e6572604482015260640160405180910390610cee611995565b50505b610cfc600382611499565b610d6f576040517f08c379a000000000000000000000000000000000000000000000000000000000815260206004820152601960248201527f4d6f64756c6520776173206e6f74207265676973746572656400000000000000604482015260640160405180910390610d6c611995565b50505b8073ffffffffffffffffffffffffffffffffffffffff167f75f4e5771d2cdd015405ae76feb37f5792736e71ff18f8a9dd690772a48111a360405160405180910390a250565b60008111610e2c576040517f08c379a000000000000000000000000000000000000000000000000000000000815260206004820152601a60248201527f456d707479207374616b65206973206e6f7420616c6c6f776564000000000000604482015260640160405180910390610e29611995565b50505b7f000000000000000000000000000000000000000000000000000000000000000073ffffffffffffffffffffffffffffffffffffffff166323b872dd5a610e71611a5b565b5a63996d79a5598160e01b8152602081600483336000905af158600e01573d6000803e3d6000fd5b3d6001141558600a015760016000f35b8051925060005b6040811015610ec757600082820152602001610eb0565b505050846040517fffffffff0000000000000000000000000000000000000000000000000000000060e086901b16815273ffffffffffffffffffffffffffffffffffffffff9384166004820152919092166024820152604481019190915260640160206040518083038160008780610f3d611aa1565b158015610f5257600080610f4f611995565b50505b505a610f5c611aed565b505050505050158015610f7c573d6000803e3d6000610f79611995565b50505b505050506040513d6020811015610f9b57600080610f98611995565b50505b81019080805150610fb8925050505a610fb2611a5b565b826114bb565b610fc45a6106ca611a5b565b5a610fcd611a5b565b73ffffffffffffffffffffffffffffffffffffffff1660007fddf252ad1be2c89b69c2b068fc378daa952ba7f163c4a11628f55a4df523b3ef8360405190815260200160405180910390a350565b7f000000000000000000000000000000000000000000000000000000000000000081565b611047611389565b73ffffffffffffffffffffffffffffffffffffffff16611065610bd8565b73ffffffffffffffffffffffffffffffffffffffff16146110ef576040517f08c379a000000000000000000000000000000000000000000000000000000000815260206004820181905260248201527f4f776e61626c653a2063616c6c6572206973206e6f7420746865206f776e65726044820152606401604051809103906110ec611995565b50505b73ffffffffffffffffffffffffffffffffffffffff8116611164576040517f08c379a0000000000000000000000000000000000000000000000000000000008152600401808060200182810382526026815260200180611c496026913960400191505060405180910390611161611995565b50505b8073ffffffffffffffffffffffffffffffffffffffff16600080611186611a00565b906101000a900473ffffffffffffffffffffffffffffffffffffffff1673ffffffffffffffffffffffffffffffffffffffff167f8be0079c531659141344cd1fd0a4f28419497f9722a3daafe3b4186f6b6457e060405160405180910390a38060006001816111f3611a00565b8173ffffffffffffffffffffffffffffffffffffffff021916908373ffffffffffffffffffffffffffffffffffffffff16021790610a27611bd8565b606060038061123c611a00565b80602002602001604051908101604052818152919060208301828061125f611a00565b801561129157602002820191906000526020600020905b8161127f611a00565b81526020019060010190808311611276575b5050505050905060005b8151811015610a27578181815181106112b057fe5b602002602001015173ffffffffffffffffffffffffffffffffffffffff166327a2743385856040517fffffffff0000000000000000000000000000000000000000000000000000000060e085901b16815273ffffffffffffffffffffffffffffffffffffffff909216600483015260248201526044016000604051808303816000878061133b611aa1565b1580156113505760008061134d611995565b50505b505a61135a611aed565b50505050505015801561137a573d6000803e3d6000611377611995565b50505b5050505080600101905061129b565b60005a6104bc611a5b565b60006113b68373ffffffffffffffffffffffffffffffffffffffff841661153f565b9392505050565b61142a8160405160408082018152601b82527f4275726e20616d6f756e7420657863656564732062616c616e6365000000000060208084019190915273ffffffffffffffffffffffffffffffffffffffff87166000908152600290915220611423611a00565b91906115de565b73ffffffffffffffffffffffffffffffffffffffff831660009081526002602052604090208190611459611bd8565b50505061147081600161146a611a00565b90611698565b80600161147b611bd8565b5050505050565b6000610a5a82611714565b60006113b68383611720565b60006113b68373ffffffffffffffffffffffffffffffffffffffff84166117b3565b6114cf8160016114c9611a00565b906118f2565b8060016114da611bd8565b50505073ffffffffffffffffffffffffffffffffffffffff821660009081526002602052611510908290604090206114c9611a00565b73ffffffffffffffffffffffffffffffffffffffff83166000908152600260205260409020819061147b611bd8565b600061154b8383611974565b6115d65781838060018161155d611a00565b018082611568611bd8565b505060009283527fffffffffffffffffffffffffffffffffffffffffffffffffffffffffffffffff01916020915020016115a0611bd8565b50839050806115ad611a00565b6000848152600186016020529091506040902081906115ca611bd8565b50505060019050610a5a565b506000610a5a565b60008184841115611690576040517f08c379a00000000000000000000000000000000000000000000000000000000081526004018080602001828103825283818151815260200191508051906020019080838360005b8381101561164c578082015183820152602001611634565b50505050905090810190601f1680156116795780820380516001836020036101000a031916815260200191505b50925050506040518091039061168d611995565b50505b505050900390565b60008282111561170e576040517f08c379a000000000000000000000000000000000000000000000000000000000815260206004820152601e60248201527f536166654d6174683a207375627472616374696f6e206f766572666c6f770000604482015260640160405180910390611690611995565b50900390565b600081806113b6611a00565b600081838061172d611a00565b90501161178e576040517f08c379a0000000000000000000000000000000000000000000000000000000008152600401808060200182810382526022815260200180611c27602291396040019150506040518091039061178b611995565b50505b828281611799611a00565b81106117a157fe5b906000526020600020016113b6611a00565b60008181526001830160205280604081206117cc611a00565b905080156118e8577fffffffffffffffffffffffffffffffffffffffffffffffffffffffffffffffff8101600060018680611805611a00565b9050039050600086600001828161181a611a00565b811061182257fe5b90600052602060002001611834611a00565b905080878481611842611a00565b811061184a57fe5b90600052602060002001819061185e611bd8565b5050506000818152600188810160205284019060409020819061187f611bd8565b505050866000018061188f611a00565b8061189657fe5b600190038181906000526020600020016000906118b1611bd8565b5050906118bc611bd8565b5050600086815260018801602052604090206000906118d9611bd8565b50506001945050505050610a5a565b6000915050610a5a565b6000828201838110156113b6576040517f08c379a000000000000000000000000000000000000000000000000000000000815260206004820152601b60248201527f536166654d6174683a206164646974696f6e206f766572666c6f77000000000060448201526064016040518091039061196b611995565b50509392505050565b6000818152600183016020526040812061198c611a00565b15159392505050565b632a2a7adb598160e01b8152600481016020815285602082015260005b868110156119cd5780860151828201604001526020016119b2565b506020828760640184336000905af158600e01573d6000803e3d6000fd5b3d6001141558600a015760016000f35b505050565b6303daa959598160e01b8152836004820152602081602483336000905af158600e01573d6000803e3d6000fd5b3d6001141558600a015760016000f35b8051935060005b6040811015610bc557600082820152602001611a44565b6373509064598160e01b8152602081600483336000905af158600e01573d6000803e3d6000fd5b3d6001141558600a015760016000f35b80516000825293506020611a44565b638435035b598160e01b8152836004820152602081602483336000905af158600e01573d6000803e3d6000fd5b3d6001141558600a015760016000f35b80516000825293506020611a44565b6385979f76598160e01b8152611b1e565b8080831115610a5a575090919050565b8080831015610a5a575090919050565b836004820152846024820152606060448201528760648201526084810160005b89811015611b56578089015182820152602001611b3e565b506060828a60a40184336000905af158600e01573d6000803e3d6000fd5b3d6001141558600a015760016000f35b815160408301513d6000853e8c8c82606087013350600060045af15059611bab8e3d611b0e565b8d01611bb78187611afe565b5b82811015611bcc5760008152602001611bb8565b50929d50505050505050565b6322bd64c0598160e01b8152836004820152846024820152600081604483336000905af158600e01573d6000803e3d6000fd5b3d6001141558600a015760016000f35b600081526020611a4456fe456e756d657261626c655365743a20696e646578206f7574206f6620626f756e64734f776e61626c653a206e6577206f776e657220697320746865207a65726f2061646472657373",
  "deployedBytecode": "0x608060405234801561001957600080610016611995565b50505b50600436106101095760003560e01c8063715018a6116100a0578063a06324611161006f578063a0632461146103ba578063a694fc3a146103f6578063ec9545941461041c578063f2fde38b1461042457610109565b8063715018a614610371578063899f5898146103795780638da5cb5b1461038157806395d89b41146103b257610109565b80632e17de78116100dc5780632e17de781461022a578063313ce567146102505780635cf1cd2b1461026e57806370a082311461033557610109565b806306fdde0314610117578063132b4fc81461019657806318160ddd146101d45780631ed86f19146101ee575b600080610114611995565b50505b61011f610460565b60405160208082528190810183818151815260200191508051906020019080838360005b8381101561015b578082015183820152602001610143565b50505050905090810190601f1680156101885780820380516001836020036101000a031916815260200191505b509250505060405180910390f35b6101d2600480360360208110156101b5576000806101b2611995565b50505b503573ffffffffffffffffffffffffffffffffffffffff1661049b565b005b6101dc6104b0565b60405190815260200160405180910390f35b6101d26004803603602081101561020d5760008061020a611995565b50505b503573ffffffffffffffffffffffffffffffffffffffff166104c1565b6101d26004803603602081101561024957600080610246611995565b50505b5035610635565b610258610847565b60405160ff909116815260200160405180910390f35b6101d26004803603602081101561028d5760008061028a611995565b50505b8101906020810181356401000000008111156102b1576000806102ae611995565b50505b8201836020820111156102cc576000806102c9611995565b50505b803590602001918460208302840111640100000000831117156102f7576000806102f4611995565b50505b91908080602002602001604051908101604052809392919081815260200183836020028082843760009201919091525092955061084c945050505050565b6101dc6004803603602081101561035457600080610351611995565b50505b503573ffffffffffffffffffffffffffffffffffffffff16610a2d565b6101d2610a60565b6101d2610bca565b610389610bd8565b60405173ffffffffffffffffffffffffffffffffffffffff909116815260200160405180910390f35b61011f610c06565b6101d2600480360360208110156103d9576000806103d6611995565b50505b503573ffffffffffffffffffffffffffffffffffffffff16610c41565b6101d26004803603602081101561041557600080610412611995565b50505b5035610db5565b61038961101b565b6101d26004803603602081101561044357600080610440611995565b50505b503573ffffffffffffffffffffffffffffffffffffffff1661103f565b606060405160408082019052601481527f31494e434820546f6b656e20285374616b6564290000000000000000000000006020820152905090565b6104ad816104a883610a2d565b61122f565b50565b600060016104bc611a00565b905090565b6104c9611389565b73ffffffffffffffffffffffffffffffffffffffff166104e7610bd8565b73ffffffffffffffffffffffffffffffffffffffff1614610571576040517f08c379a000000000000000000000000000000000000000000000000000000000815260206004820181905260248201527f4f776e61626c653a2063616c6c6572206973206e6f7420746865206f776e657260448201526064016040518091039061056e611995565b50505b61057c600382611394565b6105ef576040517f08c379a000000000000000000000000000000000000000000000000000000000815260206004820152601960248201527f4d6f64756c6520616c72656164792072656769737465726564000000000000006044820152606401604051809103906105ec611995565b50505b8073ffffffffffffffffffffffffffffffffffffffff167f0e8ab0265c955b9584b70d255e316c63717f1fb52ba0acfff63bca74ca2e8fad60405160405180910390a250565b600081116106ac576040517f08c379a000000000000000000000000000000000000000000000000000000000815260206004820152601c60248201527f456d70747920756e7374616b65206973206e6f7420616c6c6f776564000000006044820152606401604051809103906106a9611995565b50505b6106be5a6106b8611a5b565b826113bd565b6106db5a6106ca611a5b565b6104a85a6106d6611a5b565b610a2d565b7f000000000000000000000000000000000000000000000000000000000000000073ffffffffffffffffffffffffffffffffffffffff1663a9059cbb5a610720611a5b565b836040517fffffffff0000000000000000000000000000000000000000000000000000000060e085901b16815273ffffffffffffffffffffffffffffffffffffffff9092166004830152602482015260440160206040518083038160008780610787611aa1565b15801561079c57600080610799611995565b50505b505a6107a6611aed565b5050505050501580156107c6573d6000803e3d60006107c3611995565b50505b505050506040513d60208110156107e5576000806107e2611995565b50505b810190808051506000925050505a6107fb611a5b565b73ffffffffffffffffffffffffffffffffffffffff167fddf252ad1be2c89b69c2b068fc378daa952ba7f163c4a11628f55a4df523b3ef8360405190815260200160405180910390a350565b601290565b60006108586003611482565b90506060825167ffffffffffffffff8111801561087d5760008061087a611995565b50505b506040519080825280602002602001820160405280156108a7578160200160208202803683370190505b50905060005b83518110156108f1576108d28482815181106108c557fe5b6020026020010151610a2d565b8282815181106108de57fe5b60209081029190910101526001016108ad565b5060005b82811015610a275761090860038261148d565b73ffffffffffffffffffffffffffffffffffffffff1663ad33334885846040518363ffffffff1660e01b8152600401808060200180602001838103835285818151815260200191508051906020019060200280838360005b83811015610978578082015183820152602001610960565b50505050905001838103825284818151815260200191508051906020019060200280838360005b838110156109b757808201518382015260200161099f565b50505050905001945050505050600060405180830381600087806109d9611aa1565b1580156109ee576000806109eb611995565b50505b505a6109f8611aed565b505050505050158015610a18573d6000803e3d6000610a15611995565b50505b505050508060010190506108f5565b50505050565b73ffffffffffffffffffffffffffffffffffffffff81166000908152600260205260408120610a5a611a00565b92915050565b610a68611389565b73ffffffffffffffffffffffffffffffffffffffff16610a86610bd8565b73ffffffffffffffffffffffffffffffffffffffff1614610b10576040517f08c379a000000000000000000000000000000000000000000000000000000000815260206004820181905260248201527f4f776e61626c653a2063616c6c6572206973206e6f7420746865206f776e6572604482015260640160405180910390610b0d611995565b50505b60008080610b1c611a00565b906101000a900473ffffffffffffffffffffffffffffffffffffffff1673ffffffffffffffffffffffffffffffffffffffff167f8be0079c531659141344cd1fd0a4f28419497f9722a3daafe3b4186f6b6457e060405160405180910390a3600080600181610b89611a00565b8173ffffffffffffffffffffffffffffffffffffffff021916908373ffffffffffffffffffffffffffffffffffffffff16021790610bc5611bd8565b505050565b610bd65a6106ca611a5b565b565b60008080610be4611a00565b906101000a900473ffffffffffffffffffffffffffffffffffffffff16905090565b606060405160408082019052600781527f737431494e4348000000000000000000000000000000000000000000000000006020820152905090565b610c49611389565b73ffffffffffffffffffffffffffffffffffffffff16610c67610bd8565b73ffffffffffffffffffffffffffffffffffffffff1614610cf1576040517f08c379a000000000000000000000000000000000000000000000000000000000815260206004820181905260248201527f4f776e61626c653a2063616c6c6572206973206e6f7420746865206f776e6572604482015260640160405180910390610cee611995565b50505b610cfc600382611499565b610d6f576040517f08c379a000000000000000000000000000000000000000000000000000000000815260206004820152601960248201527f4d6f64756c6520776173206e6f74207265676973746572656400000000000000604482015260640160405180910390610d6c611995565b50505b8073ffffffffffffffffffffffffffffffffffffffff167f75f4e5771d2cdd015405ae76feb37f5792736e71ff18f8a9dd690772a48111a360405160405180910390a250565b60008111610e2c576040517f08c379a000000000000000000000000000000000000000000000000000000000815260206004820152601a60248201527f456d707479207374616b65206973206e6f7420616c6c6f776564000000000000604482015260640160405180910390610e29611995565b50505b7f000000000000000000000000000000000000000000000000000000000000000073ffffffffffffffffffffffffffffffffffffffff166323b872dd5a610e71611a5b565b5a63996d79a5598160e01b8152602081600483336000905af158601d01573d60011458600c01573d6000803e3d621234565260ea61109c528051925060005b6040811015610ec757600082820152602001610eb0565b505050846040517fffffffff0000000000000000000000000000000000000000000000000000000060e086901b16815273ffffffffffffffffffffffffffffffffffffffff9384166004820152919092166024820152604481019190915260640160206040518083038160008780610f3d611aa1565b158015610f5257600080610f4f611995565b50505b505a610f5c611aed565b505050505050158015610f7c573d6000803e3d6000610f79611995565b50505b505050506040513d6020811015610f9b57600080610f98611995565b50505b81019080805150610fb8925050505a610fb2611a5b565b826114bb565b610fc45a6106ca611a5b565b5a610fcd611a5b565b73ffffffffffffffffffffffffffffffffffffffff1660007fddf252ad1be2c89b69c2b068fc378daa952ba7f163c4a11628f55a4df523b3ef8360405190815260200160405180910390a350565b7f000000000000000000000000000000000000000000000000000000000000000081565b611047611389565b73ffffffffffffffffffffffffffffffffffffffff16611065610bd8565b73ffffffffffffffffffffffffffffffffffffffff16146110ef576040517f08c379a000000000000000000000000000000000000000000000000000000000815260206004820181905260248201527f4f776e61626c653a2063616c6c6572206973206e6f7420746865206f776e65726044820152606401604051809103906110ec611995565b50505b73ffffffffffffffffffffffffffffffffffffffff8116611164576040517f08c379a0000000000000000000000000000000000000000000000000000000008152600401808060200182810382526026815260200180611c496026913960400191505060405180910390611161611995565b50505b8073ffffffffffffffffffffffffffffffffffffffff16600080611186611a00565b906101000a900473ffffffffffffffffffffffffffffffffffffffff1673ffffffffffffffffffffffffffffffffffffffff167f8be0079c531659141344cd1fd0a4f28419497f9722a3daafe3b4186f6b6457e060405160405180910390a38060006001816111f3611a00565b8173ffffffffffffffffffffffffffffffffffffffff021916908373ffffffffffffffffffffffffffffffffffffffff16021790610a27611bd8565b606060038061123c611a00565b80602002602001604051908101604052818152919060208301828061125f611a00565b801561129157602002820191906000526020600020905b8161127f611a00565b81526020019060010190808311611276575b5050505050905060005b8151811015610a27578181815181106112b057fe5b602002602001015173ffffffffffffffffffffffffffffffffffffffff166327a2743385856040517fffffffff0000000000000000000000000000000000000000000000000000000060e085901b16815273ffffffffffffffffffffffffffffffffffffffff909216600483015260248201526044016000604051808303816000878061133b611aa1565b1580156113505760008061134d611995565b50505b505a61135a611aed565b50505050505015801561137a573d6000803e3d6000611377611995565b50505b5050505080600101905061129b565b60005a6104bc611a5b565b60006113b68373ffffffffffffffffffffffffffffffffffffffff841661153f565b9392505050565b61142a8160405160408082018152601b82527f4275726e20616d6f756e7420657863656564732062616c616e6365000000000060208084019190915273ffffffffffffffffffffffffffffffffffffffff87166000908152600290915220611423611a00565b91906115de565b73ffffffffffffffffffffffffffffffffffffffff831660009081526002602052604090208190611459611bd8565b50505061147081600161146a611a00565b90611698565b80600161147b611bd8565b5050505050565b6000610a5a82611714565b60006113b68383611720565b60006113b68373ffffffffffffffffffffffffffffffffffffffff84166117b3565b6114cf8160016114c9611a00565b906118f2565b8060016114da611bd8565b50505073ffffffffffffffffffffffffffffffffffffffff821660009081526002602052611510908290604090206114c9611a00565b73ffffffffffffffffffffffffffffffffffffffff83166000908152600260205260409020819061147b611bd8565b600061154b8383611974565b6115d65781838060018161155d611a00565b018082611568611bd8565b505060009283527fffffffffffffffffffffffffffffffffffffffffffffffffffffffffffffffff01916020915020016115a0611bd8565b50839050806115ad611a00565b6000848152600186016020529091506040902081906115ca611bd8565b50505060019050610a5a565b506000610a5a565b60008184841115611690576040517f08c379a00000000000000000000000000000000000000000000000000000000081526004018080602001828103825283818151815260200191508051906020019080838360005b8381101561164c578082015183820152602001611634565b50505050905090810190601f1680156116795780820380516001836020036101000a031916815260200191505b50925050506040518091039061168d611995565b50505b505050900390565b60008282111561170e576040517f08c379a000000000000000000000000000000000000000000000000000000000815260206004820152601e60248201527f536166654d6174683a207375627472616374696f6e206f766572666c6f770000604482015260640160405180910390611690611995565b50900390565b600081806113b6611a00565b600081838061172d611a00565b90501161178e576040517f08c379a0000000000000000000000000000000000000000000000000000000008152600401808060200182810382526022815260200180611c27602291396040019150506040518091039061178b611995565b50505b828281611799611a00565b81106117a157fe5b906000526020600020016113b6611a00565b60008181526001830160205280604081206117cc611a00565b905080156118e8577fffffffffffffffffffffffffffffffffffffffffffffffffffffffffffffffff8101600060018680611805611a00565b9050039050600086600001828161181a611a00565b811061182257fe5b90600052602060002001611834611a00565b905080878481611842611a00565b811061184a57fe5b90600052602060002001819061185e611bd8565b5050506000818152600188810160205284019060409020819061187f611bd8565b505050866000018061188f611a00565b8061189657fe5b600190038181906000526020600020016000906118b1611bd8565b5050906118bc611bd8565b5050600086815260018801602052604090206000906118d9611bd8565b50506001945050505050610a5a565b6000915050610a5a565b6000828201838110156113b6576040517f08c379a000000000000000000000000000000000000000000000000000000000815260206004820152601b60248201527f536166654d6174683a206164646974696f6e206f766572666c6f77000000000060448201526064016040518091039061196b611995565b50509392505050565b6000818152600183016020526040812061198c611a00565b15159392505050565b632a2a7adb598160e01b8152600481016020815285602082015260005b868110156119cd5780860151828201604001526020016119b2565b506020828760640184336000905af158601d01573d60011458600c01573d6000803e3d621234565260ea61109c52505050565b6303daa959598160e01b8152836004820152602081602483336000905af158601d01573d60011458600c01573d6000803e3d621234565260ea61109c528051935060005b6040811015610bc557600082820152602001611a44565b6373509064598160e01b8152602081600483336000905af158601d01573d60011458600c01573d6000803e3d621234565260ea61109c5280516000825293506020611a44565b638435035b598160e01b8152836004820152602081602483336000905af158601d01573d60011458600c01573d6000803e3d621234565260ea61109c5280516000825293506020611a44565b6385979f76598160e01b8152611b1e565b8080831115610a5a575090919050565b8080831015610a5a575090919050565b836004820152846024820152606060448201528760648201526084810160005b89811015611b56578089015182820152602001611b3e565b506060828a60a40184336000905af158601d01573d60011458600c01573d6000803e3d621234565260ea61109c52815160408301513d6000853e8c8c82606087013350600060045af15059611bab8e3d611b0e565b8d01611bb78187611afe565b5b82811015611bcc5760008152602001611bb8565b50929d50505050505050565b6322bd64c0598160e01b8152836004820152846024820152600081604483336000905af158601d01573d60011458600c01573d6000803e3d621234565260ea61109c52600081526020611a4456fe456e756d657261626c655365743a20696e646578206f7574206f6620626f756e64734f776e61626c653a206e6577206f776e657220697320746865207a65726f2061646472657373",
  "devdoc": {
    "kind": "dev",
    "methods": {
      "owner()": {
        "details": "Returns the address of the current owner."
      },
      "renounceOwnership()": {
        "details": "Leaves the contract without owner. It will not be possible to call `onlyOwner` functions anymore. Can only be called by the current owner. NOTE: Renouncing ownership will leave the contract without an owner, thereby removing any functionality that is only available to the owner."
      },
      "transferOwnership(address)": {
        "details": "Transfers ownership of the contract to a new account (`newOwner`). Can only be called by the current owner."
      }
    },
    "version": 1
  },
  "userdoc": {
    "kind": "user",
    "methods": {},
    "version": 1
  },
  "storageLayout": {
    "storage": [
      {
        "astId": 7,
        "contract": "contracts/GovernanceMothership.sol:GovernanceMothership",
        "label": "_owner",
        "offset": 0,
        "slot": "0",
        "type": "t_address"
      },
      {
        "astId": 3464,
        "contract": "contracts/GovernanceMothership.sol:GovernanceMothership",
        "label": "_totalSupply",
        "offset": 0,
        "slot": "1",
        "type": "t_uint256"
      },
      {
        "astId": 3468,
        "contract": "contracts/GovernanceMothership.sol:GovernanceMothership",
        "label": "_balances",
        "offset": 0,
        "slot": "2",
        "type": "t_mapping(t_address,t_uint256)"
      },
      {
        "astId": 1671,
        "contract": "contracts/GovernanceMothership.sol:GovernanceMothership",
        "label": "_modules",
        "offset": 0,
        "slot": "3",
        "type": "t_struct(AddressSet)1417_storage"
      }
    ],
    "types": {
      "t_address": {
        "encoding": "inplace",
        "label": "address",
        "numberOfBytes": "20"
      },
      "t_array(t_bytes32)dyn_storage": {
        "base": "t_bytes32",
        "encoding": "dynamic_array",
        "label": "bytes32[]",
        "numberOfBytes": "32"
      },
      "t_bytes32": {
        "encoding": "inplace",
        "label": "bytes32",
        "numberOfBytes": "32"
      },
      "t_mapping(t_address,t_uint256)": {
        "encoding": "mapping",
        "key": "t_address",
        "label": "mapping(address => uint256)",
        "numberOfBytes": "32",
        "value": "t_uint256"
      },
      "t_mapping(t_bytes32,t_uint256)": {
        "encoding": "mapping",
        "key": "t_bytes32",
        "label": "mapping(bytes32 => uint256)",
        "numberOfBytes": "32",
        "value": "t_uint256"
      },
      "t_struct(AddressSet)1417_storage": {
        "encoding": "inplace",
        "label": "struct EnumerableSet.AddressSet",
        "members": [
          {
            "astId": 1416,
            "contract": "contracts/GovernanceMothership.sol:GovernanceMothership",
            "label": "_inner",
            "offset": 0,
            "slot": "0",
            "type": "t_struct(Set)1152_storage"
          }
        ],
        "numberOfBytes": "64"
      },
      "t_struct(Set)1152_storage": {
        "encoding": "inplace",
        "label": "struct EnumerableSet.Set",
        "members": [
          {
            "astId": 1147,
            "contract": "contracts/GovernanceMothership.sol:GovernanceMothership",
            "label": "_values",
            "offset": 0,
            "slot": "0",
            "type": "t_array(t_bytes32)dyn_storage"
          },
          {
            "astId": 1151,
            "contract": "contracts/GovernanceMothership.sol:GovernanceMothership",
            "label": "_indexes",
            "offset": 0,
            "slot": "1",
            "type": "t_mapping(t_bytes32,t_uint256)"
          }
        ],
        "numberOfBytes": "64"
      },
      "t_uint256": {
        "encoding": "inplace",
        "label": "uint256",
        "numberOfBytes": "32"
      }
    }
  }
}