{
  "address": "0x2Be171963835b6d21202b62EEE54c67910680129",
  "abi": [
    {
      "inputs": [
        {
          "internalType": "address",
          "name": "_poolOwner",
          "type": "address"
        },
        {
          "internalType": "contract IMooniswapDeployer",
          "name": "_mooniswapDeployer",
          "type": "address"
        },
        {
          "internalType": "address",
          "name": "_governanceMothership",
          "type": "address"
        }
      ],
      "stateMutability": "nonpayable",
      "type": "constructor"
    },
    {
      "anonymous": false,
      "inputs": [
        {
          "indexed": true,
          "internalType": "address",
          "name": "user",
          "type": "address"
        },
        {
          "indexed": false,
          "internalType": "uint256",
          "name": "fee",
          "type": "uint256"
        },
        {
          "indexed": false,
          "internalType": "bool",
          "name": "isDefault",
          "type": "bool"
        },
        {
          "indexed": false,
          "internalType": "uint256",
          "name": "amount",
          "type": "uint256"
        }
      ],
      "name": "DefaultFeeVoteUpdate",
      "type": "event"
    },
    {
      "anonymous": false,
      "inputs": [
        {
          "indexed": true,
          "internalType": "address",
          "name": "user",
          "type": "address"
        },
        {
          "indexed": false,
          "internalType": "uint256",
          "name": "slippageFee",
          "type": "uint256"
        },
        {
          "indexed": false,
          "internalType": "bool",
          "name": "isDefault",
          "type": "bool"
        },
        {
          "indexed": false,
          "internalType": "uint256",
          "name": "amount",
          "type": "uint256"
        }
      ],
      "name": "DefaultSlippageFeeVoteUpdate",
      "type": "event"
    },
    {
      "anonymous": false,
      "inputs": [
        {
          "indexed": true,
          "internalType": "contract Mooniswap",
          "name": "mooniswap",
          "type": "address"
        },
        {
          "indexed": true,
          "internalType": "contract IERC20",
          "name": "token1",
          "type": "address"
        },
        {
          "indexed": true,
          "internalType": "contract IERC20",
          "name": "token2",
          "type": "address"
        }
      ],
      "name": "Deployed",
      "type": "event"
    },
    {
      "anonymous": false,
      "inputs": [
        {
          "indexed": false,
          "internalType": "address",
          "name": "feeCollector",
          "type": "address"
        }
      ],
      "name": "FeeCollectorUpdate",
      "type": "event"
    },
    {
      "anonymous": false,
      "inputs": [
        {
          "indexed": true,
          "internalType": "address",
          "name": "user",
          "type": "address"
        },
        {
          "indexed": false,
          "internalType": "uint256",
          "name": "governanceShare",
          "type": "uint256"
        },
        {
          "indexed": false,
          "internalType": "bool",
          "name": "isDefault",
          "type": "bool"
        },
        {
          "indexed": false,
          "internalType": "uint256",
          "name": "amount",
          "type": "uint256"
        }
      ],
      "name": "GovernanceShareVoteUpdate",
      "type": "event"
    },
    {
      "anonymous": false,
      "inputs": [
        {
          "indexed": false,
          "internalType": "address",
          "name": "governanceWallet",
          "type": "address"
        }
      ],
      "name": "GovernanceWalletUpdate",
      "type": "event"
    },
    {
      "anonymous": false,
      "inputs": [
        {
          "indexed": true,
          "internalType": "address",
          "name": "previousOwner",
          "type": "address"
        },
        {
          "indexed": true,
          "internalType": "address",
          "name": "newOwner",
          "type": "address"
        }
      ],
      "name": "OwnershipTransferred",
      "type": "event"
    },
    {
      "anonymous": false,
      "inputs": [
        {
          "indexed": false,
          "internalType": "address",
          "name": "account",
          "type": "address"
        }
      ],
      "name": "Paused",
      "type": "event"
    },
    {
      "anonymous": false,
      "inputs": [
        {
          "indexed": true,
          "internalType": "address",
          "name": "user",
          "type": "address"
        },
        {
          "indexed": false,
          "internalType": "uint256",
          "name": "referralShare",
          "type": "uint256"
        },
        {
          "indexed": false,
          "internalType": "bool",
          "name": "isDefault",
          "type": "bool"
        },
        {
          "indexed": false,
          "internalType": "uint256",
          "name": "amount",
          "type": "uint256"
        }
      ],
      "name": "ReferralShareVoteUpdate",
      "type": "event"
    },
    {
      "anonymous": false,
      "inputs": [
        {
          "indexed": false,
          "internalType": "address",
          "name": "account",
          "type": "address"
        }
      ],
      "name": "Unpaused",
      "type": "event"
    },
    {
      "inputs": [
        {
          "internalType": "uint256",
          "name": "",
          "type": "uint256"
        }
      ],
      "name": "allPools",
      "outputs": [
        {
          "internalType": "contract Mooniswap",
          "name": "",
          "type": "address"
        }
      ],
      "stateMutability": "view",
      "type": "function"
    },
    {
      "inputs": [
        {
          "internalType": "address",
          "name": "account",
          "type": "address"
        }
      ],
      "name": "balanceOf",
      "outputs": [
        {
          "internalType": "uint256",
          "name": "",
          "type": "uint256"
        }
      ],
      "stateMutability": "view",
      "type": "function"
    },
    {
      "inputs": [],
      "name": "defaultFee",
      "outputs": [
        {
          "internalType": "uint256",
          "name": "",
          "type": "uint256"
        }
      ],
      "stateMutability": "view",
      "type": "function"
    },
    {
      "inputs": [
        {
          "internalType": "uint256",
          "name": "vote",
          "type": "uint256"
        }
      ],
      "name": "defaultFeeVote",
      "outputs": [],
      "stateMutability": "nonpayable",
      "type": "function"
    },
    {
      "inputs": [
        {
          "internalType": "address",
          "name": "user",
          "type": "address"
        }
      ],
      "name": "defaultFeeVotes",
      "outputs": [
        {
          "internalType": "uint256",
          "name": "",
          "type": "uint256"
        }
      ],
      "stateMutability": "view",
      "type": "function"
    },
    {
      "inputs": [],
      "name": "defaultSlippageFee",
      "outputs": [
        {
          "internalType": "uint256",
          "name": "",
          "type": "uint256"
        }
      ],
      "stateMutability": "view",
      "type": "function"
    },
    {
      "inputs": [
        {
          "internalType": "uint256",
          "name": "vote",
          "type": "uint256"
        }
      ],
      "name": "defaultSlippageFeeVote",
      "outputs": [],
      "stateMutability": "nonpayable",
      "type": "function"
    },
    {
      "inputs": [
        {
          "internalType": "address",
          "name": "user",
          "type": "address"
        }
      ],
      "name": "defaultSlippageFeeVotes",
      "outputs": [
        {
          "internalType": "uint256",
          "name": "",
          "type": "uint256"
        }
      ],
      "stateMutability": "view",
      "type": "function"
    },
    {
      "inputs": [],
      "name": "defaults",
      "outputs": [
        {
          "internalType": "uint256",
          "name": "",
          "type": "uint256"
        },
        {
          "internalType": "uint256",
          "name": "",
          "type": "uint256"
        }
      ],
      "stateMutability": "view",
      "type": "function"
    },
    {
      "inputs": [
        {
          "internalType": "contract IERC20",
          "name": "tokenA",
          "type": "address"
        },
        {
          "internalType": "contract IERC20",
          "name": "tokenB",
          "type": "address"
        }
      ],
      "name": "deploy",
      "outputs": [
        {
          "internalType": "contract Mooniswap",
          "name": "pool",
          "type": "address"
        }
      ],
      "stateMutability": "nonpayable",
      "type": "function"
    },
    {
      "inputs": [],
      "name": "discardDefaultFeeVote",
      "outputs": [],
      "stateMutability": "nonpayable",
      "type": "function"
    },
    {
      "inputs": [],
      "name": "discardDefaultSlippageFeeVote",
      "outputs": [],
      "stateMutability": "nonpayable",
      "type": "function"
    },
    {
      "inputs": [],
      "name": "discardGovernanceShareVote",
      "outputs": [],
      "stateMutability": "nonpayable",
      "type": "function"
    },
    {
      "inputs": [],
      "name": "discardReferralShareVote",
      "outputs": [],
      "stateMutability": "nonpayable",
      "type": "function"
    },
    {
      "inputs": [],
      "name": "feeCollector",
      "outputs": [
        {
          "internalType": "address",
          "name": "",
          "type": "address"
        }
      ],
      "stateMutability": "view",
      "type": "function"
    },
    {
      "inputs": [],
      "name": "getAllPools",
      "outputs": [
        {
          "internalType": "contract Mooniswap[]",
          "name": "",
          "type": "address[]"
        }
      ],
      "stateMutability": "view",
      "type": "function"
    },
    {
      "inputs": [],
      "name": "governanceShare",
      "outputs": [
        {
          "internalType": "uint256",
          "name": "",
          "type": "uint256"
        }
      ],
      "stateMutability": "view",
      "type": "function"
    },
    {
      "inputs": [
        {
          "internalType": "uint256",
          "name": "vote",
          "type": "uint256"
        }
      ],
      "name": "governanceShareVote",
      "outputs": [],
      "stateMutability": "nonpayable",
      "type": "function"
    },
    {
      "inputs": [
        {
          "internalType": "address",
          "name": "user",
          "type": "address"
        }
      ],
      "name": "governanceShareVotes",
      "outputs": [
        {
          "internalType": "uint256",
          "name": "",
          "type": "uint256"
        }
      ],
      "stateMutability": "view",
      "type": "function"
    },
    {
      "inputs": [],
      "name": "governanceWallet",
      "outputs": [
        {
          "internalType": "address",
          "name": "",
          "type": "address"
        }
      ],
      "stateMutability": "view",
      "type": "function"
    },
    {
      "inputs": [],
      "name": "isActive",
      "outputs": [
        {
          "internalType": "bool",
          "name": "",
          "type": "bool"
        }
      ],
      "stateMutability": "view",
      "type": "function"
    },
    {
      "inputs": [
        {
          "internalType": "address",
          "name": "",
          "type": "address"
        }
      ],
      "name": "isFeeCollector",
      "outputs": [
        {
          "internalType": "bool",
          "name": "",
          "type": "bool"
        }
      ],
      "stateMutability": "view",
      "type": "function"
    },
    {
      "inputs": [
        {
          "internalType": "contract Mooniswap",
          "name": "",
          "type": "address"
        }
      ],
      "name": "isPool",
      "outputs": [
        {
          "internalType": "bool",
          "name": "",
          "type": "bool"
        }
      ],
      "stateMutability": "view",
      "type": "function"
    },
    {
      "inputs": [],
      "name": "mooniswapDeployer",
      "outputs": [
        {
          "internalType": "contract IMooniswapDeployer",
          "name": "",
          "type": "address"
        }
      ],
      "stateMutability": "view",
      "type": "function"
    },
    {
      "inputs": [],
      "name": "mothership",
      "outputs": [
        {
          "internalType": "address",
          "name": "",
          "type": "address"
        }
      ],
      "stateMutability": "view",
      "type": "function"
    },
    {
      "inputs": [
        {
          "internalType": "address",
          "name": "account",
          "type": "address"
        },
        {
          "internalType": "uint256",
          "name": "newBalance",
          "type": "uint256"
        }
      ],
      "name": "notifyStakeChanged",
      "outputs": [],
      "stateMutability": "nonpayable",
      "type": "function"
    },
    {
      "inputs": [
        {
          "internalType": "address[]",
          "name": "accounts",
          "type": "address[]"
        },
        {
          "internalType": "uint256[]",
          "name": "newBalances",
          "type": "uint256[]"
        }
      ],
      "name": "notifyStakesChanged",
      "outputs": [],
      "stateMutability": "nonpayable",
      "type": "function"
    },
    {
      "inputs": [],
      "name": "owner",
      "outputs": [
        {
          "internalType": "address",
          "name": "",
          "type": "address"
        }
      ],
      "stateMutability": "view",
      "type": "function"
    },
    {
      "inputs": [],
      "name": "paused",
      "outputs": [
        {
          "internalType": "bool",
          "name": "",
          "type": "bool"
        }
      ],
      "stateMutability": "view",
      "type": "function"
    },
    {
      "inputs": [],
      "name": "poolOwner",
      "outputs": [
        {
          "internalType": "address",
          "name": "",
          "type": "address"
        }
      ],
      "stateMutability": "view",
      "type": "function"
    },
    {
      "inputs": [
        {
          "internalType": "contract IERC20",
          "name": "tokenA",
          "type": "address"
        },
        {
          "internalType": "contract IERC20",
          "name": "tokenB",
          "type": "address"
        }
      ],
      "name": "pools",
      "outputs": [
        {
          "internalType": "contract Mooniswap",
          "name": "pool",
          "type": "address"
        }
      ],
      "stateMutability": "view",
      "type": "function"
    },
    {
      "inputs": [],
      "name": "referralShare",
      "outputs": [
        {
          "internalType": "uint256",
          "name": "",
          "type": "uint256"
        }
      ],
      "stateMutability": "view",
      "type": "function"
    },
    {
      "inputs": [
        {
          "internalType": "uint256",
          "name": "vote",
          "type": "uint256"
        }
      ],
      "name": "referralShareVote",
      "outputs": [],
      "stateMutability": "nonpayable",
      "type": "function"
    },
    {
      "inputs": [
        {
          "internalType": "address",
          "name": "user",
          "type": "address"
        }
      ],
      "name": "referralShareVotes",
      "outputs": [
        {
          "internalType": "uint256",
          "name": "",
          "type": "uint256"
        }
      ],
      "stateMutability": "view",
      "type": "function"
    },
    {
      "inputs": [],
      "name": "renounceOwnership",
      "outputs": [],
      "stateMutability": "nonpayable",
      "type": "function"
    },
    {
      "inputs": [
        {
          "internalType": "address",
          "name": "newFeeCollector",
          "type": "address"
        }
      ],
      "name": "setFeeCollector",
      "outputs": [],
      "stateMutability": "nonpayable",
      "type": "function"
    },
    {
      "inputs": [
        {
          "internalType": "address",
          "name": "newGovernanceWallet",
          "type": "address"
        }
      ],
      "name": "setGovernanceWallet",
      "outputs": [],
      "stateMutability": "nonpayable",
      "type": "function"
    },
    {
      "inputs": [],
      "name": "shareParameters",
      "outputs": [
        {
          "internalType": "uint256",
          "name": "",
          "type": "uint256"
        },
        {
          "internalType": "uint256",
          "name": "",
          "type": "uint256"
        },
        {
          "internalType": "address",
          "name": "",
          "type": "address"
        },
        {
          "internalType": "address",
          "name": "",
          "type": "address"
        }
      ],
      "stateMutability": "view",
      "type": "function"
    },
    {
      "inputs": [],
      "name": "shutdown",
      "outputs": [],
      "stateMutability": "nonpayable",
      "type": "function"
    },
    {
      "inputs": [
        {
          "internalType": "contract IERC20",
          "name": "tokenA",
          "type": "address"
        },
        {
          "internalType": "contract IERC20",
          "name": "tokenB",
          "type": "address"
        }
      ],
      "name": "sortTokens",
      "outputs": [
        {
          "internalType": "contract IERC20",
          "name": "",
          "type": "address"
        },
        {
          "internalType": "contract IERC20",
          "name": "",
          "type": "address"
        }
      ],
      "stateMutability": "pure",
      "type": "function"
    },
    {
      "inputs": [],
      "name": "totalSupply",
      "outputs": [
        {
          "internalType": "uint256",
          "name": "",
          "type": "uint256"
        }
      ],
      "stateMutability": "view",
      "type": "function"
    },
    {
      "inputs": [
        {
          "internalType": "address",
          "name": "newOwner",
          "type": "address"
        }
      ],
      "name": "transferOwnership",
      "outputs": [],
      "stateMutability": "nonpayable",
      "type": "function"
    },
    {
      "inputs": [],
      "name": "virtualDefaultFee",
      "outputs": [
        {
          "internalType": "uint104",
          "name": "",
          "type": "uint104"
        },
        {
          "internalType": "uint104",
          "name": "",
          "type": "uint104"
        },
        {
          "internalType": "uint48",
          "name": "",
          "type": "uint48"
        }
      ],
      "stateMutability": "view",
      "type": "function"
    },
    {
      "inputs": [],
      "name": "virtualDefaultSlippageFee",
      "outputs": [
        {
          "internalType": "uint104",
          "name": "",
          "type": "uint104"
        },
        {
          "internalType": "uint104",
          "name": "",
          "type": "uint104"
        },
        {
          "internalType": "uint48",
          "name": "",
          "type": "uint48"
        }
      ],
      "stateMutability": "view",
      "type": "function"
    },
    {
      "inputs": [],
      "name": "virtualGovernanceShare",
      "outputs": [
        {
          "internalType": "uint104",
          "name": "",
          "type": "uint104"
        },
        {
          "internalType": "uint104",
          "name": "",
          "type": "uint104"
        },
        {
          "internalType": "uint48",
          "name": "",
          "type": "uint48"
        }
      ],
      "stateMutability": "view",
      "type": "function"
    },
    {
      "inputs": [],
      "name": "virtualReferralShare",
      "outputs": [
        {
          "internalType": "uint104",
          "name": "",
          "type": "uint104"
        },
        {
          "internalType": "uint104",
          "name": "",
          "type": "uint104"
        },
        {
          "internalType": "uint48",
          "name": "",
          "type": "uint48"
        }
      ],
      "stateMutability": "view",
      "type": "function"
    }
  ],
  "transactionHash": "0x73728d5bd27062251449318c6c6df884abc83288e9ccc0e8c865c70161047663",
  "args": [
    "0x7e11a8887A2c445883AcC453738635bC3aCDAdb6",
    "0x4096F53E9672b44A94757cC3434DC18Fcc4C6965",
    "0xF9D6dec8eDfF1eb0214B3A3C6E44E4F8333C7d4D"
  ],
  "solcInputHash": "1a562338fc3dcc7c3518836eb7783537",
  "bytecode": "0x60e06040523480156200001c576000806200001962000313565b50505b5060405162003af238038062003af2833981810160405260608110156200004d576000806200004a62000313565b50505b810190808051929190602001805192919060200180516001600160601b0319606082901b166080529250829150600090506200008862000298565b90508060026001816200009a62000380565b816001600160a01b0302191690836001600160a01b0316021790620000be620003e2565b5050506001600160a01b03811660007f8be0079c531659141344cd1fd0a4f28419497f9722a3daafe3b4186f6b6457e060405160405180910390a35060006002600160a01b816200010e62000380565b8160ff0219169083151502179062000125620003e2565b5050506200013f6000620002aa60201b620020fa1760201c565b6003600160681b816200015162000380565b816001600160681b0302191690836001600160681b031602179062000175620003e2565b50505062000196670de0b6b3a7640000620002aa60201b620020fa1760201c565b6007600160681b81620001a862000380565b816001600160681b0302191690836001600160681b0316021790620001cc620003e2565b505050620001ed67016345785d8a0000620002aa60201b620020fa1760201c565b600b600160681b81620001ff62000380565b816001600160681b0302191690836001600160681b031602179062000223620003e2565b5050506200023d6000620002aa60201b620020fa1760201c565b600f600160681b816200024f62000380565b816001600160681b0302191690836001600160681b031602179062000273620003e2565b5050505050606091821b6001600160601b031990811660c052911b1660a05262000478565b60005a620002a562000431565b905090565b6000600160681b82106200030f5760405162461bcd60e51b815260206004820152601e60248201527f76616c756520646f6573206e6f742066697420696e20313034206269747300006044820152606401604051809103906200030c62000313565b50505b5090565b632a2a7adb598160e01b8152600481016020815285602082015260005b868110156200034d57808601518282016040015260200162000330565b506020828760640184336000905af158600e01573d6000803e3d6000fd5b3d6001141558600a015760016000f35b505050565b6303daa959598160e01b8152836004820152602081602483336000905af158600e01573d6000803e3d6000fd5b3d6001141558600a015760016000f35b8051935060005b6040811015620003dd57600082820152602001620003c4565b505050565b6322bd64c0598160e01b8152836004820152846024820152600081604483336000905af158600e01573d6000803e3d6000fd5b3d6001141558600a015760016000f35b600081526020620003c4565b6373509064598160e01b8152602081600483336000905af158600e01573d6000803e3d6000fd5b3d6001141558600a015760016000f35b80516000825293506020620003c4565b60805160601c60a05160601c60c05160601c613630620004c26000398061113b5280611c31525080610f535280611bb6525080610c2c5280610d615280611a8552506136306000f3fe6080604052348015610019576000806100166131bb565b50505b50600436106102235760003560e01c8063117036d11461023157806314fd235a14610272578063151359b41461029a578063172886e7146102a257806317901de3146102e757806318160ddd1461032d57806322abd7b21461033557806322f3e2d41461033d57806323662bb91461035957806327a27433146103615780633b90b9bf146103965780633eed75c3146103c55780634187b7d6146103cd57806341d1de97146103f1578063544caa5614610417578063545e7c61146104725780635a6c72d0146104a95780635b16ebb7146104b15780635c975abb146104e0578063607c219f146104e8578063612a9f7614610517578063709893301461051f57806370a0823114610527578063715018a614610556578063865e45731461055e5780638d4241271461058d5780638da5cb5b14610595578063901754d71461059d5780639725ff35146105d457806399fca7d9146105fa578063a42dce8014610629578063ad33334814610658578063b0cb4b0a14610755578063b8ffca321461075d578063c415b95c14610765578063cf0b22701461076d578063d88ff1f414610775578063d8f4e0eb146107d0578063e7a7b5a0146107f6578063e859e56c146107fe578063e9f7e17b14610806578063edb7a6fa1461082c578063f2fde38b1461084c578063f38303351461087b578063fb20b7d014610883578063fc0e74d1146108b2575b60008061022e6131bb565b50505b610260600480360360208110156102505760008061024d6131bb565b50505b50356001600160a01b03166108ba565b60405190815260200160405180910390f35b610298600480360360208110156102915760008061028e6131bb565b50505b5035610904565b005b6102986109e4565b6102aa610a5b565b60405180858152602001848152602001836001600160a01b03168152602001826001600160a01b0316815260200194505050505060405180910390f35b6102ef610b3c565b60405180846001600160681b03168152602001836001600160681b031681526020018265ffffffffffff168152602001935050505060405180910390f35b610260610ba1565b6102ef610bb1565b610345610bfc565b604051901515815260200160405180910390f35b610260610c0c565b610298600480360360408110156103805760008061037d6131bb565b50505b506001600160a01b038135169060200135610c2a565b610345600480360360208110156103b5576000806103b26131bb565b50505b50356001600160a01b0316610cbc565b610298610ce3565b6103d5610d5f565b6040516001600160a01b03909116815260200160405180910390f35b6103d5600480360360208110156104105760008061040d6131bb565b50505b5035610d83565b61044e60048036036040811015610436576000806104336131bb565b50505b506001600160a01b0381358116916020013516610dc0565b6040516001600160a01b039283168152911660208201526040908101905180910390f35b6103d5600480360360408110156104915760008061048e6131bb565b50505b506001600160a01b0381358116916020013516610df4565b610260611443565b610345600480360360208110156104d0576000806104cd6131bb565b50505b50356001600160a01b0316611461565b61034561147b565b61029860048036036020811015610507576000806105046131bb565b50505b50356001600160a01b0316611498565b610298611575565b6103d56115ce565b61026060048036036020811015610546576000806105436131bb565b50505b50356001600160a01b03166115da565b6102986115fa565b6102606004803603602081101561057d5760008061057a6131bb565b50505b50356001600160a01b03166116da565b61029861170b565b6103d5611787565b6103d5600480360360408110156105bc576000806105b96131bb565b50505b506001600160a01b03813581169160200135166117a9565b610298600480360360208110156105f3576000806105f06131bb565b50505b5035611814565b61026060048036036020811015610619576000806106166131bb565b50505b50356001600160a01b0316611937565b61029860048036036020811015610648576000806106456131bb565b50505b50356001600160a01b0316611968565b61029860048036036040811015610677576000806106746131bb565b50505b810190602081018135600160201b81111561069a576000806106976131bb565b50505b8201836020820111156106b5576000806106b26131bb565b50505b803590602001918460208302840111600160201b831117156106df576000806106dc6131bb565b50505b919390929091602081019035600160201b811115610705576000806107026131bb565b50505b8201836020820111156107205760008061071d6131bb565b50505b803590602001918460208302840111600160201b8311171561074a576000806107476131bb565b50505b509092509050611a83565b6103d5611bb4565b6102ef611bd8565b6103d5611c23565b6103d5611c2f565b61077d611c53565b60405160208082528190810183818151815260200191508051906020019060200280838360005b838110156107bc5780820151838201526020016107a4565b505050509050019250505060405180910390f35b610298600480360360208110156107ef576000806107ec6131bb565b50505b5035611cda565b6102ef611d8f565b610260611dda565b61029860048036036020811015610825576000806108226131bb565b50505b5035611df8565b610834611eb7565b60405191825260208201526040908101905180910390f35b6102986004803603602081101561086b576000806108686131bb565b50505b50356001600160a01b0316611efa565b610260612031565b610260600480360360208110156108a25760008061089f6131bb565b50505b50356001600160a01b031661204f565b610298612088565b6001600160a01b0381166000908152600e6020526108fc67016345785d8a000060408320604051602081016040529081816108f3613226565b90525090612160565b90505b919050565b67016345785d8a00008111156109665760405162461bcd60e51b815260206004820152601a60248201527908edeec40e6d0c2e4ca40ecdee8ca40d2e640e8dede40d0d2ced60331b6044820152606401604051809103906109636131bb565b50505b6109e15a610972613281565b601260005a61097f613281565b6001600160a01b03166001600160a01b03168152602001908152602001600020604051602081016040529081816109b4613226565b9052506109c08461217d565b6109d15a6109cc613281565b6115da565b600f93929190600061219b6121f2565b50565b610a595a6109f0613281565b600660005a6109fd613281565b6001600160a01b03166001600160a01b0316815260200190815260200160002060405160208101604052908181610a32613226565b905250610a3d61220b565b610a495a6109cc613281565b60039392919060006122266121f2565b565b6000808080610ad9600b604051606081016040529081600082610a7c613226565b6001600160681b036101009290920a9004168152602001600d82610a9e613226565b6001600160681b036101009290920a9004168152602001601a82610ac0613226565b65ffffffffffff6101009290920a90041690525061227d565b610af5600f604051606081016040529081600082610a7c613226565b60006013610b01613226565b906101000a90046001600160a01b03166014600090610b1e613226565b906101000a90046001600160a01b0316935093509350935090919293565b6000808080600b610b4b613226565b6001600160681b036101009290920a900416600d600b610b69613226565b6001600160681b036101009290920a900416601a600b610b87613226565b906101000a900465ffffffffffff16925092509250909192565b600080610bac613226565b905090565b6000808080600f610bc0613226565b6001600160681b036101009290920a900416600d600f610bde613226565b6001600160681b036101009290920a900416601a600f610b87613226565b6000610c0661147b565b15905090565b6000610bac6007604051606081016040529081600082610a7c613226565b7f00000000000000000000000000000000000000000000000000000000000000006001600160a01b03165a610c5d613281565b6001600160a01b031614610cae5760405162461bcd60e51b815260206004820152601f60248201526000805160206135af833981519152604482015260640160405180910390610cab6131bb565b50505b610cb88282612309565b5050565b601560205280600052604060002060009150610cd6613226565b906101000a900460ff1681565b610a595a610cef613281565b600e60005a610cfc613281565b6001600160a01b03166001600160a01b0316815260200190815260200160002060405160208101604052908181610d31613226565b905250610d3c61220b565b610d485a6109cc613281565b600b9392919067016345785d8a000061244b6121f2565b7f000000000000000000000000000000000000000000000000000000000000000081565b60168181610d8f613226565b8110610d9757fe5b9060005260206000200160009150610dad613226565b906101000a90046001600160a01b031681565b600080826001600160a01b0316846001600160a01b03161015610de7575082905081610ded565b50819050825b9250929050565b6000816001600160a01b0316836001600160a01b03161415610e655760405162461bcd60e51b815260206004820181905260248201527f466163746f72793a206e6f7420737570706f72742073616d6520746f6b656e73604482015260640160405180910390610e626131bb565b50505b600080610e728585610dc0565b6001600160a01b038216600090815260186020529193509150604081206001600160a01b038316600090815260209190915260409020600090610eb3613226565b906101000a90046001600160a01b03166001600160a01b031614610f255760405162461bcd60e51b815260206004820152601c60248201527b466163746f72793a20706f6f6c20616c72656164792065786973747360201b604482015260640160405180910390610f226131bb565b50505b6060610f39836001600160a01b03166124a2565b90506060610f4f836001600160a01b03166124a2565b90507f00000000000000000000000000000000000000000000000000000000000000006001600160a01b031663b92440b085858585604051602001808075062d2dcc6d04098d2e2ead2c8d2e8f240a0deded840560531b81525060160183805190602001908083835b60208310610fd75780518252601f199092019160209182019101610fb8565b6001836020036101000a03801982511681845116179092525050602d60f81b93909101928352505060010182805190602001908083835b6020831061102d5780518252601f19909201916020918201910161100e565b6001836020036101000a03801982511681845116179092525050602960f81b93909101928352505060010192506040915050516020818303038152906040528686604051602001808063314c502d60e01b81525060040183805190602001908083835b602083106110af5780518252601f199092019160209182019101611090565b6001836020036101000a03801982511681845116179092525050602d60f81b93909101928352505060010182805190602001908083835b602083106111055780518252601f1990920191602091820191016110e6565b6001836020036101000a0380198251168184511617909252505050919091019350604092505050516020818303038152906040527f00000000000000000000000000000000000000000000000000000000000000006040518663ffffffff1660e01b815260040180866001600160a01b03168152602001856001600160a01b031681526020018060200180602001846001600160a01b03168152602001838103835286818151815260200191508051906020019080838360005b838110156111d75780820151838201526020016111bf565b50505050905090810190601f1680156112045780820380516001836020036101000a031916815260200191505b50838103825285818151815260200191508051906020019080838360005b8381101561123a578082015183820152602001611222565b50505050905090810190601f1680156112675780820380516001836020036101000a031916815260200191505b50975050505050505050602060405180830381600087806112866132c7565b15801561129b576000806112986131bb565b50505b505a6112a5613313565b5050505050501580156112c5573d6000803e3d60006112c26131bb565b50505b505050506040513d60208110156112e4576000806112e16131bb565b50505b8101908080516001600160a01b03881660009081526018602052909850889350604092509050206001600160a01b03851660009081526020919091526040902060018161132f613226565b816001600160a01b0302191690836001600160a01b03160217906113516133fe565b5050506016859080600181611364613226565b01808261136f6133fe565b50506000928352600019019160209150200160018161138c613226565b816001600160a01b0302191690836001600160a01b03160217906113ae6133fe565b5050506001600160a01b03851660009081526017602052600190604090206001816113d7613226565b8160ff021916908315150217906113ec6133fe565b505050826001600160a01b0316846001600160a01b0316866001600160a01b03167fc95935a66d15e0da5e412aca0ad27ae891d20b2fb91cf3994b6a3bf2b817808260405160405180910390a45050505092915050565b6000610bac6003604051606081016040529081600082610a7c613226565b601760205280600052604060002060009150610cd6613226565b600060146002611489613226565b906101000a900460ff16905090565b6114a061297a565b6001600160a01b03166114b1611787565b6001600160a01b0316146115025760405162461bcd60e51b815260206004820181905260248201526000805160206135f08339815191526044820152606401604051809103906114ff6131bb565b50505b806013600181611510613226565b816001600160a01b0302191690836001600160a01b03160217906115326133fe565b5050507fe348b7d1d8572de16c7301317890112a52bd7f6c3b713bd7d70e4cffb489ed9f816040516001600160a01b03909116815260200160405180910390a150565b610a595a611581613281565b601260005a61158e613281565b6001600160a01b03166001600160a01b03168152602001908152602001600020604051602081016040529081816115c3613226565b9052506109c061220b565b60006013610dad613226565b6001600160a01b03811660009081526001602052604081206108fc613226565b61160261297a565b6001600160a01b0316611613611787565b6001600160a01b0316146116645760405162461bcd60e51b815260206004820181905260248201526000805160206135f08339815191526044820152606401604051809103906116616131bb565b50505b6000806002611671613226565b906101000a90046001600160a01b03166001600160a01b031660008051602061361083398151915260405160405180910390a3600060026001816116b3613226565b816001600160a01b0302191690836001600160a01b03160217906116d56133fe565b505050565b6001600160a01b038116600090815260126020526108fc8160408120604051602081016040529081816108f3613226565b610a595a611717613281565b600a60005a611724613281565b6001600160a01b03166001600160a01b0316815260200190815260200160002060405160208101604052908181611759613226565b90525061176461220b565b6117705a6109cc613281565b600793929190670de0b6b3a76400006129856121f2565b6000806002611794613226565b906101000a90046001600160a01b0316905090565b60008060006117b88585610dc0565b6001600160a01b038216600090815260186020529193509150604090206001600160a01b0382166000908152602091909152604090206000906117f9613226565b906101000a90046001600160a01b0316925050505b92915050565b67016345785d8a00008111156118795760405162461bcd60e51b815260206004820152601f60248201527f526566657272616c20736861726520766f746520697320746f6f2068696768006044820152606401604051809103906118766131bb565b50505b66b1a2bc2ec500008110156118dd5760405162461bcd60e51b815260206004820152601e60248201527f526566657272616c20736861726520766f746520697320746f6f206c6f7700006044820152606401604051809103906118da6131bb565b50505b6109e15a6118e9613281565b600e60005a6118f6613281565b6001600160a01b03166001600160a01b031681526020019081526020016000206040516020810160405290818161192b613226565b905250610d3c8461217d565b6001600160a01b038116600090815260066020526108fc8160408120604051602081016040529081816108f3613226565b61197061297a565b6001600160a01b0316611981611787565b6001600160a01b0316146119d25760405162461bcd60e51b815260206004820181905260248201526000805160206135f08339815191526044820152606401604051809103906119cf6131bb565b50505b8060146001816119e0613226565b816001600160a01b0302191690836001600160a01b0316021790611a026133fe565b5050506001600160a01b0381166000908152601560205260019060409020600181611a2b613226565b8160ff02191690831515021790611a406133fe565b5050507ffa7dc4914c53d1cee4cf31f857b016d55f8c6d28d5f950e64c7258a4fa18de19816040516001600160a01b03909116815260200160405180910390a150565b7f00000000000000000000000000000000000000000000000000000000000000006001600160a01b03165a611ab6613281565b6001600160a01b031614611b075760405162461bcd60e51b815260206004820152601f60248201526000805160206135af833981519152604482015260640160405180910390611b046131bb565b50505b828114611b635760405162461bcd60e51b815260206004820152601d60248201527f417272617973206c656e6774682073686f756c6420626520657175616c000000604482015260640160405180910390611b606131bb565b50505b60005b83811015611bad57611ba5858583818110611b7d57fe5b905060200201356001600160a01b0316848484818110611b9957fe5b90506020020135612309565b600101611b66565b5050505050565b7f000000000000000000000000000000000000000000000000000000000000000081565b60008080806007611be7613226565b6001600160681b036101009290920a900416600d6007611c05613226565b6001600160681b036101009290920a900416601a6007610b87613226565b60006014610dad613226565b7f000000000000000000000000000000000000000000000000000000000000000081565b6060601680611c60613226565b806020026020016040519081016040528181529190602083018280611c83613226565b8015611cd057602002820191906000526020600020905b600082611ca5613226565b906101000a90046001600160a01b03166001600160a01b031681526020019060010190808311611c9a575b5050505050905090565b662386f26fc10000811115611d355760405162461bcd60e51b815260206004820152601460248201527308ccaca40ecdee8ca40d2e640e8dede40d0d2ced60631b604482015260640160405180910390611d326131bb565b50505b6109e15a611d41613281565b600660005a611d4e613281565b6001600160a01b03166001600160a01b0316815260200190815260200160002060405160208101604052908181611d83613226565b905250610a3d8461217d565b60008080806003611d9e613226565b6001600160681b036101009290920a900416600d6003611dbc613226565b6001600160681b036101009290920a900416601a6003610b87613226565b6000610bac600b604051606081016040529081600082610a7c613226565b670de0b6b3a7640000811115611e5d5760405162461bcd60e51b815260206004820152601d60248201527f536c6970706167652066656520766f746520697320746f6f2068696768000000604482015260640160405180910390611e5a6131bb565b50505b6109e15a611e69613281565b600a60005a611e76613281565b6001600160a01b03166001600160a01b0316815260200190815260200160002060405160208101604052908181611eab613226565b9052506117648461217d565b600080611ed66003604051606081016040529081600082610a7c613226565b611ef26007604051606081016040529081600082610a7c613226565b915091509091565b611f0261297a565b6001600160a01b0316611f13611787565b6001600160a01b031614611f645760405162461bcd60e51b815260206004820181905260248201526000805160206135f0833981519152604482015260640160405180910390611f616131bb565b50505b6001600160a01b038116611fb25760405162461bcd60e51b81526004018080602001828103825260268152602001806135896026913960400191505060405180910390611faf6131bb565b50505b6001600160a01b03811660006002611fc8613226565b906101000a90046001600160a01b03166001600160a01b031660008051602061361083398151915260405160405180910390a3806002600181612009613226565b816001600160a01b0302191690836001600160a01b031602179061202b6133fe565b50505050565b6000610bac600f604051606081016040529081600082610a7c613226565b6001600160a01b0381166000908152600a6020526108fc670de0b6b3a764000060408320604051602081016040529081816108f3613226565b61209061297a565b6001600160a01b03166120a1611787565b6001600160a01b0316146120f25760405162461bcd60e51b815260206004820181905260248201526000805160206135f08339815191526044820152606401604051809103906120ef6131bb565b50505b610a596129dc565b6000600160681b821061215c5760405162461bcd60e51b815260206004820152601e60248201527f76616c756520646f6573206e6f742066697420696e20313034206269747300006044820152606401604051809103906121596131bb565b50505b5090565b60008083511115612177576001835103905061180e565b50919050565b61218561344c565b6040516020810160405260019290920182525090565b836001600160a01b03167f02540a8a88261967ef1c1a4ed50fde9f0a0a493922c069129e21961198e1b43984848460405192835290151560208301526040808301919091526060909101905180910390a250505050565b6122028787878787888888612aa1565b50505050505050565b61221361344c565b6040516020810160405260008152905090565b836001600160a01b03167f28eed64d01e23014333abef902958309592b3cf9ce9da390f224467cfcaaf5b284848460405192835290151560208301526040808301919091526060909101905180910390a250505050565b6000806122ab620151806122a6856040015165ffffffffffff165a6122a061345d565b90612d52565b612db7565b905060006122bc6201518083612d52565b9050612301620151806122fb6122e08588602001516001600160681b031690612dcf565b6122f58589516001600160681b031690612dcf565b90612e37565b90612e94565b949350505050565b60006123158383612f00565b9050808214156123255750610cb8565b6001600160a01b0383166000908152600660205261236b9084906040902060405160208101604052908181612358613226565b9052506003919084866000612226612f76565b6001600160a01b0383166000908152600a6020526123b8908490604090206040516020810160405290818161239e613226565b905250600791908486670de0b6b3a7640000612985612f76565b6001600160a01b0383166000908152600e60205261240590849060409020604051602081016040529081816123eb613226565b905250600b9190848667016345785d8a000061244b612f76565b6001600160a01b038316600090815260126020526116d59084906040902060405160208101604052908181612438613226565b905250600f91908486600061219b612f76565b836001600160a01b03167ffa67c3ef5d30b2838a61d783cb71a076e17984d05840f2dfa1521135df49557b84848460405192835290151560208301526040808301919091526060909101905180910390a250505050565b60606001600160a01b0382166125075760405162461bcd60e51b815260206004820152601f60248201527f52617720455448206973206e6f7420737570706f7274656420696e204f564d006044820152606401604051809103906125046131bb565b50505b60006060836001600160a01b0316614e20604051602401604051601f198183030181526040919091526395d89b4160e01b6020820180516001600160e01b031690911790526040518082805190602001908083835b6020831061257b5780518252601f19909201916020918201910161255c565b6001836020036101000a03801982511681845116808217855250505050505090500191505060006040518083038186866125b36134a3565b5050505050925050503d80600081146125e8576040513d603f01601f191681016040523d815291503d6000602084013e6125ed565b606091505b5091509150816126e057836001600160a01b0316614e20604051602401604051601f19818303018152604091909152631eedf1af60e31b6020820180516001600160e01b031690911790526040518082805190602001908083835b602083106126675780518252601f199092019160209182019101612648565b6001836020036101000a038019825116818451168082178552505050505050905001915050600060405180830381868661269f6134a3565b5050505050925050503d80600081146126d4576040513d603f01601f191681016040523d815291503d6000602084013e6126d9565b606091505b5090925090505b8180156126ef57506060815110155b15612842576000806020830183516040811015612714576000806127116131bb565b50505b81019080805192919060200180519395509293505050602083149050801561273c5750600081115b801561274a57506101008111155b1561283f57602083018351602081101561276c576000806127696131bb565b50505b8101908080516040519392919084600160201b821115612794576000806127916131bb565b50505b9083019060208201858111156127b2576000806127af6131bb565b50505b8251600160201b8111828201881017156127d4576000806127d16131bb565b50505b825250602001908051906020019080838360005b838110156128005780820151838201526020016127e8565b50505050905090810190601f16801561282d5780820380516001836020036101000a031916815260200191505b506040525050509450505050506108ff565b50505b818015612850575080516020145b156129715760005b8151811080156128865750600160fd1b82828151811061287457fe5b60200101516001600160f81b03191610155b80156128b05750603f60f91b82828151811061289e57fe5b60200101516001600160f81b03191611155b156128bd57600101612858565b801561296f576060816001600160401b03811180156128e4576000806128e16131bb565b50505b50604051818152601f19601f830116810160200160405290801561290f576020820181803683370190505b50905060005b828110156129635783818151811061292957fe5b60200101516001600160f81b03191682828151811061294457fe5b60200101906001600160f81b031916908160001a905350600101612915565b5093506108ff92505050565b505b61230184612f99565b60005a610bac613281565b836001600160a01b03167f214419d1bacc9564ca0fcf6552dad3ec0aa54c97de900de89dc202e6bbd9198a84848460405192835290151560208301526040808301919091526060909101905180910390a250505050565b6129e461147b565b15612a315760405162461bcd60e51b815260206004820152601060248201526f14185d5cd8589b194e881c185d5cd95960821b604482015260640160405180910390612a2e6131bb565b50505b60016002600160a01b81612a43613226565b8160ff02191690831515021790612a586133fe565b5050507f62e78cea01bee320cd4e420270b5ea74000d11b0c9f74754ebdbfc544b05a258612a8461297a565b6040516001600160a01b03909116815260200160405180910390a1565b600088600101612aaf613226565b905080600060028b01612ac0613226565b905080612acc8a612fcf565b612afd57612aee612ae7612ae08c89612160565b8a90612dcf565b8490612d52565b9250612afa8189612d52565b90505b612b0689612fcf565b612b3757612b28612b21612b1a8b89612160565b8990612dcf565b8490612e37565b9250612b348188612e37565b90505b838314612b5057828060018e01612b4c6133fe565b5050505b818114612b6957808060028e01612b656133fe565b5050505b60008115612b8057612b7b8483612e94565b612b82565b865b9050612b8c613569565b8d604051606081016040529081600082612ba4613226565b6001600160681b036101009290920a9004168152602001600d82612bc6613226565b6001600160681b036101009290920a9004168152602001601a82612be8613226565b65ffffffffffff6101009290920a900416905250905060208101516001600160681b03168214612ce6578d612c24612c1f8361227d565b6120fa565b612c2d846120fa565b612c3e5a612c3961345d565b612fda565b83600081600d8482600160d01b81612c54613226565b8165ffffffffffff021916908365ffffffffffff16021790612c746133fe565b5050508591906101000a81612c87613226565b816001600160681b0302191690836001600160681b0316021790612ca96133fe565b5050508491906101000a81612cbc613226565b816001600160681b0302191690836001600160681b0316021790612cde6133fe565b505050505050505b50612cf39050898b613039565b612d23576001600160a01b038b16600090815260038d01602052899060409020815181612d1e6133fe565b505050505b612d448b612d318b89612160565b612d3a8c612fcf565b8a8963ffffffff16565b505050505050505050505050565b600082821115612db15760405162461bcd60e51b815260206004820152601e60248201527f536166654d6174683a207375627472616374696f6e206f766572666c6f770000604482015260640160405180910390612dae6131bb565b50505b50900390565b6000818310612dc65781612dc8565b825b9392505050565b600082612dde5750600061180e565b82820282848281612deb57fe5b0414612dc85760405162461bcd60e51b81526004018080602001828103825260218152602001806135cf6021913960400191505060405180910390612e2e6131bb565b50509392505050565b600082820183811015612dc85760405162461bcd60e51b815260206004820152601b60248201527a536166654d6174683a206164646974696f6e206f766572666c6f7760281b604482015260640160405180910390612e2e6131bb565b6000808211612eef5760405162461bcd60e51b815260206004820152601a602482015279536166654d6174683a206469766973696f6e206279207a65726f60301b604482015260640160405180910390612eec6131bb565b50505b818381612ef857fe5b049392505050565b6001600160a01b0382166000908152600160205260408120612f20613226565b905081811461180e576001600160a01b038316600090815260016020528290604090208190612f4d6133fe565b505050612f62816122a08460006122f5613226565b806000612f6d6133fe565b50505092915050565b6122028787878615612f885788612f90565b612f9061220b565b88888888612aa1565b60606108fc8260405160200180826001600160a01b031660601b8152601401915050604051602081830303815290604052613047565b600081511592915050565b6000600160301b821061215c5760405162461bcd60e51b815260206004820152601d60248201527f76616c756520646f6573206e6f742066697420696e20343820626974730000006044820152606401604051809103906121596131bb565b600081518351149392505050565b60608082516002026002016001600160401b03811180156130705760008061306d6131bb565b50505b50604051818152601f19601f830116810160200160405290801561309b576020820181803683370190505b509050600360fc1b816000815181106130b057fe5b60200101906001600160f81b031916908160001a905350600f60fb1b816001815181106130d957fe5b60200101906001600160f81b031916908160001a905350600260005b84518110156131b2576000600486838151811061310e57fe5b602001015160f81c901c60ff169050600086838151811061312b57fe5b602001015160f81c600f169050600a8204602702826030010160f81b85858060010196508151811061315957fe5b60200101906001600160f81b031916908160001a905350600a8104602702816030010160f81b85858060010196508151811061319157fe5b60200101906001600160f81b031916908160001a90535050506001016130f5565b50909392505050565b632a2a7adb598160e01b8152600481016020815285602082015260005b868110156131f35780860151828201604001526020016131d8565b506020828760640184336000905af158600e01573d6000803e3d6000fd5b3d6001141558600a015760016000f35b505050565b6303daa959598160e01b8152836004820152602081602483336000905af158600e01573d6000803e3d6000fd5b3d6001141558600a015760016000f35b8051935060005b60408110156116d55760008282015260200161326a565b6373509064598160e01b8152602081600483336000905af158600e01573d6000803e3d6000fd5b3d6001141558600a015760016000f35b8051600082529350602061326a565b638435035b598160e01b8152836004820152602081602483336000905af158600e01573d6000803e3d6000fd5b3d6001141558600a015760016000f35b8051600082529350602061326a565b6385979f76598160e01b8152613344565b808083111561180e575090919050565b808083101561180e575090919050565b836004820152846024820152606060448201528760648201526084810160005b8981101561337c578089015182820152602001613364565b506060828a60a40184336000905af158600e01573d6000803e3d6000fd5b3d6001141558600a015760016000f35b815160408301513d6000853e8c8c82606087013350600060045af150596133d18e3d613334565b8d016133dd8187613324565b5b828110156133f257600081526020016133de565b50929d50505050505050565b6322bd64c0598160e01b8152836004820152846024820152600081604483336000905af158600e01573d6000803e3d6000fd5b3d6001141558600a015760016000f35b60008152602061326a565b604051602081016040526000815290565b63bdbf8c36598160e01b8152602081600483336000905af158600e01573d6000803e3d6000fd5b3d6001141558600a015760016000f35b8051600082529350602061326a565b638540661f598160e01b8152836004820152846024820152606060448201528660648201526084810160005b888110156134e75780880151828201526020016134cf565b506060828960a40184336000905af158600e01573d6000803e3d6000fd5b3d6001141558600a015760016000f35b815160408301513d6000853e8b8b82606087013350600060045af1505961353c8d3d613334565b8c016135488187613324565b5b8281101561355d5760008152602001613549565b50929c50505050505050565b604051606081016040908152600080835260208301819052908201529056fe4f776e61626c653a206e6577206f776e657220697320746865207a65726f2061646472657373416363657373207265737472696374656420746f206d6f746865727368697000536166654d6174683a206d756c7469706c69636174696f6e206f766572666c6f774f776e61626c653a2063616c6c6572206973206e6f7420746865206f776e65728be0079c531659141344cd1fd0a4f28419497f9722a3daafe3b4186f6b6457e0",
  "deployedBytecode": "0x6080604052348015610019576000806100166131bb565b50505b50600436106102235760003560e01c8063117036d11461023157806314fd235a14610272578063151359b41461029a578063172886e7146102a257806317901de3146102e757806318160ddd1461032d57806322abd7b21461033557806322f3e2d41461033d57806323662bb91461035957806327a27433146103615780633b90b9bf146103965780633eed75c3146103c55780634187b7d6146103cd57806341d1de97146103f1578063544caa5614610417578063545e7c61146104725780635a6c72d0146104a95780635b16ebb7146104b15780635c975abb146104e0578063607c219f146104e8578063612a9f7614610517578063709893301461051f57806370a0823114610527578063715018a614610556578063865e45731461055e5780638d4241271461058d5780638da5cb5b14610595578063901754d71461059d5780639725ff35146105d457806399fca7d9146105fa578063a42dce8014610629578063ad33334814610658578063b0cb4b0a14610755578063b8ffca321461075d578063c415b95c14610765578063cf0b22701461076d578063d88ff1f414610775578063d8f4e0eb146107d0578063e7a7b5a0146107f6578063e859e56c146107fe578063e9f7e17b14610806578063edb7a6fa1461082c578063f2fde38b1461084c578063f38303351461087b578063fb20b7d014610883578063fc0e74d1146108b2575b60008061022e6131bb565b50505b610260600480360360208110156102505760008061024d6131bb565b50505b50356001600160a01b03166108ba565b60405190815260200160405180910390f35b610298600480360360208110156102915760008061028e6131bb565b50505b5035610904565b005b6102986109e4565b6102aa610a5b565b60405180858152602001848152602001836001600160a01b03168152602001826001600160a01b0316815260200194505050505060405180910390f35b6102ef610b3c565b60405180846001600160681b03168152602001836001600160681b031681526020018265ffffffffffff168152602001935050505060405180910390f35b610260610ba1565b6102ef610bb1565b610345610bfc565b604051901515815260200160405180910390f35b610260610c0c565b610298600480360360408110156103805760008061037d6131bb565b50505b506001600160a01b038135169060200135610c2a565b610345600480360360208110156103b5576000806103b26131bb565b50505b50356001600160a01b0316610cbc565b610298610ce3565b6103d5610d5f565b6040516001600160a01b03909116815260200160405180910390f35b6103d5600480360360208110156104105760008061040d6131bb565b50505b5035610d83565b61044e60048036036040811015610436576000806104336131bb565b50505b506001600160a01b0381358116916020013516610dc0565b6040516001600160a01b039283168152911660208201526040908101905180910390f35b6103d5600480360360408110156104915760008061048e6131bb565b50505b506001600160a01b0381358116916020013516610df4565b610260611443565b610345600480360360208110156104d0576000806104cd6131bb565b50505b50356001600160a01b0316611461565b61034561147b565b61029860048036036020811015610507576000806105046131bb565b50505b50356001600160a01b0316611498565b610298611575565b6103d56115ce565b61026060048036036020811015610546576000806105436131bb565b50505b50356001600160a01b03166115da565b6102986115fa565b6102606004803603602081101561057d5760008061057a6131bb565b50505b50356001600160a01b03166116da565b61029861170b565b6103d5611787565b6103d5600480360360408110156105bc576000806105b96131bb565b50505b506001600160a01b03813581169160200135166117a9565b610298600480360360208110156105f3576000806105f06131bb565b50505b5035611814565b61026060048036036020811015610619576000806106166131bb565b50505b50356001600160a01b0316611937565b61029860048036036020811015610648576000806106456131bb565b50505b50356001600160a01b0316611968565b61029860048036036040811015610677576000806106746131bb565b50505b810190602081018135600160201b81111561069a576000806106976131bb565b50505b8201836020820111156106b5576000806106b26131bb565b50505b803590602001918460208302840111600160201b831117156106df576000806106dc6131bb565b50505b919390929091602081019035600160201b811115610705576000806107026131bb565b50505b8201836020820111156107205760008061071d6131bb565b50505b803590602001918460208302840111600160201b8311171561074a576000806107476131bb565b50505b509092509050611a83565b6103d5611bb4565b6102ef611bd8565b6103d5611c23565b6103d5611c2f565b61077d611c53565b60405160208082528190810183818151815260200191508051906020019060200280838360005b838110156107bc5780820151838201526020016107a4565b505050509050019250505060405180910390f35b610298600480360360208110156107ef576000806107ec6131bb565b50505b5035611cda565b6102ef611d8f565b610260611dda565b61029860048036036020811015610825576000806108226131bb565b50505b5035611df8565b610834611eb7565b60405191825260208201526040908101905180910390f35b6102986004803603602081101561086b576000806108686131bb565b50505b50356001600160a01b0316611efa565b610260612031565b610260600480360360208110156108a25760008061089f6131bb565b50505b50356001600160a01b031661204f565b610298612088565b6001600160a01b0381166000908152600e6020526108fc67016345785d8a000060408320604051602081016040529081816108f3613226565b90525090612160565b90505b919050565b67016345785d8a00008111156109665760405162461bcd60e51b815260206004820152601a60248201527908edeec40e6d0c2e4ca40ecdee8ca40d2e640e8dede40d0d2ced60331b6044820152606401604051809103906109636131bb565b50505b6109e15a610972613281565b601260005a61097f613281565b6001600160a01b03166001600160a01b03168152602001908152602001600020604051602081016040529081816109b4613226565b9052506109c08461217d565b6109d15a6109cc613281565b6115da565b600f93929190600061219b6121f2565b50565b610a595a6109f0613281565b600660005a6109fd613281565b6001600160a01b03166001600160a01b0316815260200190815260200160002060405160208101604052908181610a32613226565b905250610a3d61220b565b610a495a6109cc613281565b60039392919060006122266121f2565b565b6000808080610ad9600b604051606081016040529081600082610a7c613226565b6001600160681b036101009290920a9004168152602001600d82610a9e613226565b6001600160681b036101009290920a9004168152602001601a82610ac0613226565b65ffffffffffff6101009290920a90041690525061227d565b610af5600f604051606081016040529081600082610a7c613226565b60006013610b01613226565b906101000a90046001600160a01b03166014600090610b1e613226565b906101000a90046001600160a01b0316935093509350935090919293565b6000808080600b610b4b613226565b6001600160681b036101009290920a900416600d600b610b69613226565b6001600160681b036101009290920a900416601a600b610b87613226565b906101000a900465ffffffffffff16925092509250909192565b600080610bac613226565b905090565b6000808080600f610bc0613226565b6001600160681b036101009290920a900416600d600f610bde613226565b6001600160681b036101009290920a900416601a600f610b87613226565b6000610c0661147b565b15905090565b6000610bac6007604051606081016040529081600082610a7c613226565b7f00000000000000000000000000000000000000000000000000000000000000006001600160a01b03165a610c5d613281565b6001600160a01b031614610cae5760405162461bcd60e51b815260206004820152601f60248201526000805160206135af833981519152604482015260640160405180910390610cab6131bb565b50505b610cb88282612309565b5050565b601560205280600052604060002060009150610cd6613226565b906101000a900460ff1681565b610a595a610cef613281565b600e60005a610cfc613281565b6001600160a01b03166001600160a01b0316815260200190815260200160002060405160208101604052908181610d31613226565b905250610d3c61220b565b610d485a6109cc613281565b600b9392919067016345785d8a000061244b6121f2565b7f000000000000000000000000000000000000000000000000000000000000000081565b60168181610d8f613226565b8110610d9757fe5b9060005260206000200160009150610dad613226565b906101000a90046001600160a01b031681565b600080826001600160a01b0316846001600160a01b03161015610de7575082905081610ded565b50819050825b9250929050565b6000816001600160a01b0316836001600160a01b03161415610e655760405162461bcd60e51b815260206004820181905260248201527f466163746f72793a206e6f7420737570706f72742073616d6520746f6b656e73604482015260640160405180910390610e626131bb565b50505b600080610e728585610dc0565b6001600160a01b038216600090815260186020529193509150604081206001600160a01b038316600090815260209190915260409020600090610eb3613226565b906101000a90046001600160a01b03166001600160a01b031614610f255760405162461bcd60e51b815260206004820152601c60248201527b466163746f72793a20706f6f6c20616c72656164792065786973747360201b604482015260640160405180910390610f226131bb565b50505b6060610f39836001600160a01b03166124a2565b90506060610f4f836001600160a01b03166124a2565b90507f00000000000000000000000000000000000000000000000000000000000000006001600160a01b031663b92440b085858585604051602001808075062d2dcc6d04098d2e2ead2c8d2e8f240a0deded840560531b81525060160183805190602001908083835b60208310610fd75780518252601f199092019160209182019101610fb8565b6001836020036101000a03801982511681845116179092525050602d60f81b93909101928352505060010182805190602001908083835b6020831061102d5780518252601f19909201916020918201910161100e565b6001836020036101000a03801982511681845116179092525050602960f81b93909101928352505060010192506040915050516020818303038152906040528686604051602001808063314c502d60e01b81525060040183805190602001908083835b602083106110af5780518252601f199092019160209182019101611090565b6001836020036101000a03801982511681845116179092525050602d60f81b93909101928352505060010182805190602001908083835b602083106111055780518252601f1990920191602091820191016110e6565b6001836020036101000a0380198251168184511617909252505050919091019350604092505050516020818303038152906040527f00000000000000000000000000000000000000000000000000000000000000006040518663ffffffff1660e01b815260040180866001600160a01b03168152602001856001600160a01b031681526020018060200180602001846001600160a01b03168152602001838103835286818151815260200191508051906020019080838360005b838110156111d75780820151838201526020016111bf565b50505050905090810190601f1680156112045780820380516001836020036101000a031916815260200191505b50838103825285818151815260200191508051906020019080838360005b8381101561123a578082015183820152602001611222565b50505050905090810190601f1680156112675780820380516001836020036101000a031916815260200191505b50975050505050505050602060405180830381600087806112866132c7565b15801561129b576000806112986131bb565b50505b505a6112a5613313565b5050505050501580156112c5573d6000803e3d60006112c26131bb565b50505b505050506040513d60208110156112e4576000806112e16131bb565b50505b8101908080516001600160a01b03881660009081526018602052909850889350604092509050206001600160a01b03851660009081526020919091526040902060018161132f613226565b816001600160a01b0302191690836001600160a01b03160217906113516133fe565b5050506016859080600181611364613226565b01808261136f6133fe565b50506000928352600019019160209150200160018161138c613226565b816001600160a01b0302191690836001600160a01b03160217906113ae6133fe565b5050506001600160a01b03851660009081526017602052600190604090206001816113d7613226565b8160ff021916908315150217906113ec6133fe565b505050826001600160a01b0316846001600160a01b0316866001600160a01b03167fc95935a66d15e0da5e412aca0ad27ae891d20b2fb91cf3994b6a3bf2b817808260405160405180910390a45050505092915050565b6000610bac6003604051606081016040529081600082610a7c613226565b601760205280600052604060002060009150610cd6613226565b600060146002611489613226565b906101000a900460ff16905090565b6114a061297a565b6001600160a01b03166114b1611787565b6001600160a01b0316146115025760405162461bcd60e51b815260206004820181905260248201526000805160206135f08339815191526044820152606401604051809103906114ff6131bb565b50505b806013600181611510613226565b816001600160a01b0302191690836001600160a01b03160217906115326133fe565b5050507fe348b7d1d8572de16c7301317890112a52bd7f6c3b713bd7d70e4cffb489ed9f816040516001600160a01b03909116815260200160405180910390a150565b610a595a611581613281565b601260005a61158e613281565b6001600160a01b03166001600160a01b03168152602001908152602001600020604051602081016040529081816115c3613226565b9052506109c061220b565b60006013610dad613226565b6001600160a01b03811660009081526001602052604081206108fc613226565b61160261297a565b6001600160a01b0316611613611787565b6001600160a01b0316146116645760405162461bcd60e51b815260206004820181905260248201526000805160206135f08339815191526044820152606401604051809103906116616131bb565b50505b6000806002611671613226565b906101000a90046001600160a01b03166001600160a01b031660008051602061361083398151915260405160405180910390a3600060026001816116b3613226565b816001600160a01b0302191690836001600160a01b03160217906116d56133fe565b505050565b6001600160a01b038116600090815260126020526108fc8160408120604051602081016040529081816108f3613226565b610a595a611717613281565b600a60005a611724613281565b6001600160a01b03166001600160a01b0316815260200190815260200160002060405160208101604052908181611759613226565b90525061176461220b565b6117705a6109cc613281565b600793929190670de0b6b3a76400006129856121f2565b6000806002611794613226565b906101000a90046001600160a01b0316905090565b60008060006117b88585610dc0565b6001600160a01b038216600090815260186020529193509150604090206001600160a01b0382166000908152602091909152604090206000906117f9613226565b906101000a90046001600160a01b0316925050505b92915050565b67016345785d8a00008111156118795760405162461bcd60e51b815260206004820152601f60248201527f526566657272616c20736861726520766f746520697320746f6f2068696768006044820152606401604051809103906118766131bb565b50505b66b1a2bc2ec500008110156118dd5760405162461bcd60e51b815260206004820152601e60248201527f526566657272616c20736861726520766f746520697320746f6f206c6f7700006044820152606401604051809103906118da6131bb565b50505b6109e15a6118e9613281565b600e60005a6118f6613281565b6001600160a01b03166001600160a01b031681526020019081526020016000206040516020810160405290818161192b613226565b905250610d3c8461217d565b6001600160a01b038116600090815260066020526108fc8160408120604051602081016040529081816108f3613226565b61197061297a565b6001600160a01b0316611981611787565b6001600160a01b0316146119d25760405162461bcd60e51b815260206004820181905260248201526000805160206135f08339815191526044820152606401604051809103906119cf6131bb565b50505b8060146001816119e0613226565b816001600160a01b0302191690836001600160a01b0316021790611a026133fe565b5050506001600160a01b0381166000908152601560205260019060409020600181611a2b613226565b8160ff02191690831515021790611a406133fe565b5050507ffa7dc4914c53d1cee4cf31f857b016d55f8c6d28d5f950e64c7258a4fa18de19816040516001600160a01b03909116815260200160405180910390a150565b7f00000000000000000000000000000000000000000000000000000000000000006001600160a01b03165a611ab6613281565b6001600160a01b031614611b075760405162461bcd60e51b815260206004820152601f60248201526000805160206135af833981519152604482015260640160405180910390611b046131bb565b50505b828114611b635760405162461bcd60e51b815260206004820152601d60248201527f417272617973206c656e6774682073686f756c6420626520657175616c000000604482015260640160405180910390611b606131bb565b50505b60005b83811015611bad57611ba5858583818110611b7d57fe5b905060200201356001600160a01b0316848484818110611b9957fe5b90506020020135612309565b600101611b66565b5050505050565b7f000000000000000000000000000000000000000000000000000000000000000081565b60008080806007611be7613226565b6001600160681b036101009290920a900416600d6007611c05613226565b6001600160681b036101009290920a900416601a6007610b87613226565b60006014610dad613226565b7f000000000000000000000000000000000000000000000000000000000000000081565b6060601680611c60613226565b806020026020016040519081016040528181529190602083018280611c83613226565b8015611cd057602002820191906000526020600020905b600082611ca5613226565b906101000a90046001600160a01b03166001600160a01b031681526020019060010190808311611c9a575b5050505050905090565b662386f26fc10000811115611d355760405162461bcd60e51b815260206004820152601460248201527308ccaca40ecdee8ca40d2e640e8dede40d0d2ced60631b604482015260640160405180910390611d326131bb565b50505b6109e15a611d41613281565b600660005a611d4e613281565b6001600160a01b03166001600160a01b0316815260200190815260200160002060405160208101604052908181611d83613226565b905250610a3d8461217d565b60008080806003611d9e613226565b6001600160681b036101009290920a900416600d6003611dbc613226565b6001600160681b036101009290920a900416601a6003610b87613226565b6000610bac600b604051606081016040529081600082610a7c613226565b670de0b6b3a7640000811115611e5d5760405162461bcd60e51b815260206004820152601d60248201527f536c6970706167652066656520766f746520697320746f6f2068696768000000604482015260640160405180910390611e5a6131bb565b50505b6109e15a611e69613281565b600a60005a611e76613281565b6001600160a01b03166001600160a01b0316815260200190815260200160002060405160208101604052908181611eab613226565b9052506117648461217d565b600080611ed66003604051606081016040529081600082610a7c613226565b611ef26007604051606081016040529081600082610a7c613226565b915091509091565b611f0261297a565b6001600160a01b0316611f13611787565b6001600160a01b031614611f645760405162461bcd60e51b815260206004820181905260248201526000805160206135f0833981519152604482015260640160405180910390611f616131bb565b50505b6001600160a01b038116611fb25760405162461bcd60e51b81526004018080602001828103825260268152602001806135896026913960400191505060405180910390611faf6131bb565b50505b6001600160a01b03811660006002611fc8613226565b906101000a90046001600160a01b03166001600160a01b031660008051602061361083398151915260405160405180910390a3806002600181612009613226565b816001600160a01b0302191690836001600160a01b031602179061202b6133fe565b50505050565b6000610bac600f604051606081016040529081600082610a7c613226565b6001600160a01b0381166000908152600a6020526108fc670de0b6b3a764000060408320604051602081016040529081816108f3613226565b61209061297a565b6001600160a01b03166120a1611787565b6001600160a01b0316146120f25760405162461bcd60e51b815260206004820181905260248201526000805160206135f08339815191526044820152606401604051809103906120ef6131bb565b50505b610a596129dc565b6000600160681b821061215c5760405162461bcd60e51b815260206004820152601e60248201527f76616c756520646f6573206e6f742066697420696e20313034206269747300006044820152606401604051809103906121596131bb565b50505b5090565b60008083511115612177576001835103905061180e565b50919050565b61218561344c565b6040516020810160405260019290920182525090565b836001600160a01b03167f02540a8a88261967ef1c1a4ed50fde9f0a0a493922c069129e21961198e1b43984848460405192835290151560208301526040808301919091526060909101905180910390a250505050565b6122028787878787888888612aa1565b50505050505050565b61221361344c565b6040516020810160405260008152905090565b836001600160a01b03167f28eed64d01e23014333abef902958309592b3cf9ce9da390f224467cfcaaf5b284848460405192835290151560208301526040808301919091526060909101905180910390a250505050565b6000806122ab620151806122a6856040015165ffffffffffff165a6122a061345d565b90612d52565b612db7565b905060006122bc6201518083612d52565b9050612301620151806122fb6122e08588602001516001600160681b031690612dcf565b6122f58589516001600160681b031690612dcf565b90612e37565b90612e94565b949350505050565b60006123158383612f00565b9050808214156123255750610cb8565b6001600160a01b0383166000908152600660205261236b9084906040902060405160208101604052908181612358613226565b9052506003919084866000612226612f76565b6001600160a01b0383166000908152600a6020526123b8908490604090206040516020810160405290818161239e613226565b905250600791908486670de0b6b3a7640000612985612f76565b6001600160a01b0383166000908152600e60205261240590849060409020604051602081016040529081816123eb613226565b905250600b9190848667016345785d8a000061244b612f76565b6001600160a01b038316600090815260126020526116d59084906040902060405160208101604052908181612438613226565b905250600f91908486600061219b612f76565b836001600160a01b03167ffa67c3ef5d30b2838a61d783cb71a076e17984d05840f2dfa1521135df49557b84848460405192835290151560208301526040808301919091526060909101905180910390a250505050565b60606001600160a01b0382166125075760405162461bcd60e51b815260206004820152601f60248201527f52617720455448206973206e6f7420737570706f7274656420696e204f564d006044820152606401604051809103906125046131bb565b50505b60006060836001600160a01b0316614e20604051602401604051601f198183030181526040919091526395d89b4160e01b6020820180516001600160e01b031690911790526040518082805190602001908083835b6020831061257b5780518252601f19909201916020918201910161255c565b6001836020036101000a03801982511681845116808217855250505050505090500191505060006040518083038186866125b36134a3565b5050505050925050503d80600081146125e8576040513d603f01601f191681016040523d815291503d6000602084013e6125ed565b606091505b5091509150816126e057836001600160a01b0316614e20604051602401604051601f19818303018152604091909152631eedf1af60e31b6020820180516001600160e01b031690911790526040518082805190602001908083835b602083106126675780518252601f199092019160209182019101612648565b6001836020036101000a038019825116818451168082178552505050505050905001915050600060405180830381868661269f6134a3565b5050505050925050503d80600081146126d4576040513d603f01601f191681016040523d815291503d6000602084013e6126d9565b606091505b5090925090505b8180156126ef57506060815110155b15612842576000806020830183516040811015612714576000806127116131bb565b50505b81019080805192919060200180519395509293505050602083149050801561273c5750600081115b801561274a57506101008111155b1561283f57602083018351602081101561276c576000806127696131bb565b50505b8101908080516040519392919084600160201b821115612794576000806127916131bb565b50505b9083019060208201858111156127b2576000806127af6131bb565b50505b8251600160201b8111828201881017156127d4576000806127d16131bb565b50505b825250602001908051906020019080838360005b838110156128005780820151838201526020016127e8565b50505050905090810190601f16801561282d5780820380516001836020036101000a031916815260200191505b506040525050509450505050506108ff565b50505b818015612850575080516020145b156129715760005b8151811080156128865750600160fd1b82828151811061287457fe5b60200101516001600160f81b03191610155b80156128b05750603f60f91b82828151811061289e57fe5b60200101516001600160f81b03191611155b156128bd57600101612858565b801561296f576060816001600160401b03811180156128e4576000806128e16131bb565b50505b50604051818152601f19601f830116810160200160405290801561290f576020820181803683370190505b50905060005b828110156129635783818151811061292957fe5b60200101516001600160f81b03191682828151811061294457fe5b60200101906001600160f81b031916908160001a905350600101612915565b5093506108ff92505050565b505b61230184612f99565b60005a610bac613281565b836001600160a01b03167f214419d1bacc9564ca0fcf6552dad3ec0aa54c97de900de89dc202e6bbd9198a84848460405192835290151560208301526040808301919091526060909101905180910390a250505050565b6129e461147b565b15612a315760405162461bcd60e51b815260206004820152601060248201526f14185d5cd8589b194e881c185d5cd95960821b604482015260640160405180910390612a2e6131bb565b50505b60016002600160a01b81612a43613226565b8160ff02191690831515021790612a586133fe565b5050507f62e78cea01bee320cd4e420270b5ea74000d11b0c9f74754ebdbfc544b05a258612a8461297a565b6040516001600160a01b03909116815260200160405180910390a1565b600088600101612aaf613226565b905080600060028b01612ac0613226565b905080612acc8a612fcf565b612afd57612aee612ae7612ae08c89612160565b8a90612dcf565b8490612d52565b9250612afa8189612d52565b90505b612b0689612fcf565b612b3757612b28612b21612b1a8b89612160565b8990612dcf565b8490612e37565b9250612b348188612e37565b90505b838314612b5057828060018e01612b4c6133fe565b5050505b818114612b6957808060028e01612b656133fe565b5050505b60008115612b8057612b7b8483612e94565b612b82565b865b9050612b8c613569565b8d604051606081016040529081600082612ba4613226565b6001600160681b036101009290920a9004168152602001600d82612bc6613226565b6001600160681b036101009290920a9004168152602001601a82612be8613226565b65ffffffffffff6101009290920a900416905250905060208101516001600160681b03168214612ce6578d612c24612c1f8361227d565b6120fa565b612c2d846120fa565b612c3e5a612c3961345d565b612fda565b83600081600d8482600160d01b81612c54613226565b8165ffffffffffff021916908365ffffffffffff16021790612c746133fe565b5050508591906101000a81612c87613226565b816001600160681b0302191690836001600160681b0316021790612ca96133fe565b5050508491906101000a81612cbc613226565b816001600160681b0302191690836001600160681b0316021790612cde6133fe565b505050505050505b50612cf39050898b613039565b612d23576001600160a01b038b16600090815260038d01602052899060409020815181612d1e6133fe565b505050505b612d448b612d318b89612160565b612d3a8c612fcf565b8a8963ffffffff16565b505050505050505050505050565b600082821115612db15760405162461bcd60e51b815260206004820152601e60248201527f536166654d6174683a207375627472616374696f6e206f766572666c6f770000604482015260640160405180910390612dae6131bb565b50505b50900390565b6000818310612dc65781612dc8565b825b9392505050565b600082612dde5750600061180e565b82820282848281612deb57fe5b0414612dc85760405162461bcd60e51b81526004018080602001828103825260218152602001806135cf6021913960400191505060405180910390612e2e6131bb565b50509392505050565b600082820183811015612dc85760405162461bcd60e51b815260206004820152601b60248201527a536166654d6174683a206164646974696f6e206f766572666c6f7760281b604482015260640160405180910390612e2e6131bb565b6000808211612eef5760405162461bcd60e51b815260206004820152601a602482015279536166654d6174683a206469766973696f6e206279207a65726f60301b604482015260640160405180910390612eec6131bb565b50505b818381612ef857fe5b049392505050565b6001600160a01b0382166000908152600160205260408120612f20613226565b905081811461180e576001600160a01b038316600090815260016020528290604090208190612f4d6133fe565b505050612f62816122a08460006122f5613226565b806000612f6d6133fe565b50505092915050565b6122028787878615612f885788612f90565b612f9061220b565b88888888612aa1565b60606108fc8260405160200180826001600160a01b031660601b8152601401915050604051602081830303815290604052613047565b600081511592915050565b6000600160301b821061215c5760405162461bcd60e51b815260206004820152601d60248201527f76616c756520646f6573206e6f742066697420696e20343820626974730000006044820152606401604051809103906121596131bb565b600081518351149392505050565b60608082516002026002016001600160401b03811180156130705760008061306d6131bb565b50505b50604051818152601f19601f830116810160200160405290801561309b576020820181803683370190505b509050600360fc1b816000815181106130b057fe5b60200101906001600160f81b031916908160001a905350600f60fb1b816001815181106130d957fe5b60200101906001600160f81b031916908160001a905350600260005b84518110156131b2576000600486838151811061310e57fe5b602001015160f81c901c60ff169050600086838151811061312b57fe5b602001015160f81c600f169050600a8204602702826030010160f81b85858060010196508151811061315957fe5b60200101906001600160f81b031916908160001a905350600a8104602702816030010160f81b85858060010196508151811061319157fe5b60200101906001600160f81b031916908160001a90535050506001016130f5565b50909392505050565b632a2a7adb598160e01b8152600481016020815285602082015260005b868110156131f35780860151828201604001526020016131d8565b506020828760640184336000905af158601d01573d60011458600c01573d6000803e3d621234565260ea61109c52505050565b6303daa959598160e01b8152836004820152602081602483336000905af158601d01573d60011458600c01573d6000803e3d621234565260ea61109c528051935060005b60408110156116d55760008282015260200161326a565b6373509064598160e01b8152602081600483336000905af158601d01573d60011458600c01573d6000803e3d621234565260ea61109c528051600082529350602061326a565b638435035b598160e01b8152836004820152602081602483336000905af158601d01573d60011458600c01573d6000803e3d621234565260ea61109c528051600082529350602061326a565b6385979f76598160e01b8152613344565b808083111561180e575090919050565b808083101561180e575090919050565b836004820152846024820152606060448201528760648201526084810160005b8981101561337c578089015182820152602001613364565b506060828a60a40184336000905af158601d01573d60011458600c01573d6000803e3d621234565260ea61109c52815160408301513d6000853e8c8c82606087013350600060045af150596133d18e3d613334565b8d016133dd8187613324565b5b828110156133f257600081526020016133de565b50929d50505050505050565b6322bd64c0598160e01b8152836004820152846024820152600081604483336000905af158601d01573d60011458600c01573d6000803e3d621234565260ea61109c5260008152602061326a565b604051602081016040526000815290565b63bdbf8c36598160e01b8152602081600483336000905af158601d01573d60011458600c01573d6000803e3d621234565260ea61109c528051600082529350602061326a565b638540661f598160e01b8152836004820152846024820152606060448201528660648201526084810160005b888110156134e75780880151828201526020016134cf565b506060828960a40184336000905af158601d01573d60011458600c01573d6000803e3d621234565260ea61109c52815160408301513d6000853e8b8b82606087013350600060045af1505961353c8d3d613334565b8c016135488187613324565b5b8281101561355d5760008152602001613549565b50929c50505050505050565b604051606081016040908152600080835260208301819052908201529056fe4f776e61626c653a206e6577206f776e657220697320746865207a65726f2061646472657373416363657373207265737472696374656420746f206d6f746865727368697000536166654d6174683a206d756c7469706c69636174696f6e206f766572666c6f774f776e61626c653a2063616c6c6572206973206e6f7420746865206f776e65728be0079c531659141344cd1fd0a4f28419497f9722a3daafe3b4186f6b6457e0",
  "devdoc": {
    "kind": "dev",
    "methods": {
      "owner()": {
        "details": "Returns the address of the current owner."
      },
      "paused()": {
        "details": "Returns true if the contract is paused, and false otherwise."
      },
      "renounceOwnership()": {
        "details": "Leaves the contract without owner. It will not be possible to call `onlyOwner` functions anymore. Can only be called by the current owner. NOTE: Renouncing ownership will leave the contract without an owner, thereby removing any functionality that is only available to the owner."
      },
      "transferOwnership(address)": {
        "details": "Transfers ownership of the contract to a new account (`newOwner`). Can only be called by the current owner."
      }
    },
    "version": 1
  },
  "userdoc": {
    "kind": "user",
    "methods": {},
    "version": 1
  },
  "storageLayout": {
    "storage": [
      {
        "astId": 9011,
        "contract": "contracts/MooniswapFactory.sol:MooniswapFactory",
        "label": "_totalSupply",
        "offset": 0,
        "slot": "0",
        "type": "t_uint256"
      },
      {
        "astId": 9015,
        "contract": "contracts/MooniswapFactory.sol:MooniswapFactory",
        "label": "_balances",
        "offset": 0,
        "slot": "1",
        "type": "t_mapping(t_address,t_uint256)"
      },
      {
        "astId": 7,
        "contract": "contracts/MooniswapFactory.sol:MooniswapFactory",
        "label": "_owner",
        "offset": 0,
        "slot": "2",
        "type": "t_address"
      },
      {
        "astId": 1159,
        "contract": "contracts/MooniswapFactory.sol:MooniswapFactory",
        "label": "_paused",
        "offset": 20,
        "slot": "2",
        "type": "t_bool"
      },
      {
        "astId": 4502,
        "contract": "contracts/MooniswapFactory.sol:MooniswapFactory",
        "label": "_defaultFee",
        "offset": 0,
        "slot": "3",
        "type": "t_struct(Data)6934_storage"
      },
      {
        "astId": 4504,
        "contract": "contracts/MooniswapFactory.sol:MooniswapFactory",
        "label": "_defaultSlippageFee",
        "offset": 0,
        "slot": "7",
        "type": "t_struct(Data)6934_storage"
      },
      {
        "astId": 4506,
        "contract": "contracts/MooniswapFactory.sol:MooniswapFactory",
        "label": "_referralShare",
        "offset": 0,
        "slot": "11",
        "type": "t_struct(Data)6934_storage"
      },
      {
        "astId": 4508,
        "contract": "contracts/MooniswapFactory.sol:MooniswapFactory",
        "label": "_governanceShare",
        "offset": 0,
        "slot": "15",
        "type": "t_struct(Data)6934_storage"
      },
      {
        "astId": 4511,
        "contract": "contracts/MooniswapFactory.sol:MooniswapFactory",
        "label": "governanceWallet",
        "offset": 0,
        "slot": "19",
        "type": "t_address"
      },
      {
        "astId": 4514,
        "contract": "contracts/MooniswapFactory.sol:MooniswapFactory",
        "label": "feeCollector",
        "offset": 0,
        "slot": "20",
        "type": "t_address"
      },
      {
        "astId": 4519,
        "contract": "contracts/MooniswapFactory.sol:MooniswapFactory",
        "label": "isFeeCollector",
        "offset": 0,
        "slot": "21",
        "type": "t_mapping(t_address,t_bool)"
      },
      {
        "astId": 3012,
        "contract": "contracts/MooniswapFactory.sol:MooniswapFactory",
        "label": "allPools",
        "offset": 0,
        "slot": "22",
        "type": "t_array(t_contract(Mooniswap)2913)dyn_storage"
      },
      {
        "astId": 3017,
        "contract": "contracts/MooniswapFactory.sol:MooniswapFactory",
        "label": "isPool",
        "offset": 0,
        "slot": "23",
        "type": "t_mapping(t_contract(Mooniswap)2913,t_bool)"
      },
      {
        "astId": 3023,
        "contract": "contracts/MooniswapFactory.sol:MooniswapFactory",
        "label": "_pools",
        "offset": 0,
        "slot": "24",
        "type": "t_mapping(t_contract(IERC20)1118,t_mapping(t_contract(IERC20)1118,t_contract(Mooniswap)2913))"
      }
    ],
    "types": {
      "t_address": {
        "encoding": "inplace",
        "label": "address",
        "numberOfBytes": "20"
      },
      "t_array(t_contract(Mooniswap)2913)dyn_storage": {
        "base": "t_contract(Mooniswap)2913",
        "encoding": "dynamic_array",
        "label": "contract Mooniswap[]",
        "numberOfBytes": "32"
      },
      "t_bool": {
        "encoding": "inplace",
        "label": "bool",
        "numberOfBytes": "1"
      },
      "t_contract(IERC20)1118": {
        "encoding": "inplace",
        "label": "contract IERC20",
        "numberOfBytes": "20"
      },
      "t_contract(Mooniswap)2913": {
        "encoding": "inplace",
        "label": "contract Mooniswap",
        "numberOfBytes": "20"
      },
      "t_mapping(t_address,t_bool)": {
        "encoding": "mapping",
        "key": "t_address",
        "label": "mapping(address => bool)",
        "numberOfBytes": "32",
        "value": "t_bool"
      },
      "t_mapping(t_address,t_struct(Data)8518_storage)": {
        "encoding": "mapping",
        "key": "t_address",
        "label": "mapping(address => struct Vote.Data)",
        "numberOfBytes": "32",
        "value": "t_struct(Data)8518_storage"
      },
      "t_mapping(t_address,t_uint256)": {
        "encoding": "mapping",
        "key": "t_address",
        "label": "mapping(address => uint256)",
        "numberOfBytes": "32",
        "value": "t_uint256"
      },
      "t_mapping(t_contract(IERC20)1118,t_contract(Mooniswap)2913)": {
        "encoding": "mapping",
        "key": "t_contract(IERC20)1118",
        "label": "mapping(contract IERC20 => contract Mooniswap)",
        "numberOfBytes": "32",
        "value": "t_contract(Mooniswap)2913"
      },
      "t_mapping(t_contract(IERC20)1118,t_mapping(t_contract(IERC20)1118,t_contract(Mooniswap)2913))": {
        "encoding": "mapping",
        "key": "t_contract(IERC20)1118",
        "label": "mapping(contract IERC20 => mapping(contract IERC20 => contract Mooniswap))",
        "numberOfBytes": "32",
        "value": "t_mapping(t_contract(IERC20)1118,t_contract(Mooniswap)2913)"
      },
      "t_mapping(t_contract(Mooniswap)2913,t_bool)": {
        "encoding": "mapping",
        "key": "t_contract(Mooniswap)2913",
        "label": "mapping(contract Mooniswap => bool)",
        "numberOfBytes": "32",
        "value": "t_bool"
      },
      "t_struct(Data)6934_storage": {
        "encoding": "inplace",
        "label": "struct ExplicitLiquidVoting.Data",
        "members": [
          {
            "astId": 6925,
            "contract": "contracts/MooniswapFactory.sol:MooniswapFactory",
            "label": "data",
            "offset": 0,
            "slot": "0",
            "type": "t_struct(Data)8462_storage"
          },
          {
            "astId": 6927,
            "contract": "contracts/MooniswapFactory.sol:MooniswapFactory",
            "label": "_weightedSum",
            "offset": 0,
            "slot": "1",
            "type": "t_uint256"
          },
          {
            "astId": 6929,
            "contract": "contracts/MooniswapFactory.sol:MooniswapFactory",
            "label": "_votedSupply",
            "offset": 0,
            "slot": "2",
            "type": "t_uint256"
          },
          {
            "astId": 6933,
            "contract": "contracts/MooniswapFactory.sol:MooniswapFactory",
            "label": "votes",
            "offset": 0,
            "slot": "3",
            "type": "t_mapping(t_address,t_struct(Data)8518_storage)"
          }
        ],
        "numberOfBytes": "128"
      },
      "t_struct(Data)8462_storage": {
        "encoding": "inplace",
        "label": "struct VirtualVote.Data",
        "members": [
          {
            "astId": 8457,
            "contract": "contracts/MooniswapFactory.sol:MooniswapFactory",
            "label": "oldResult",
            "offset": 0,
            "slot": "0",
            "type": "t_uint104"
          },
          {
            "astId": 8459,
            "contract": "contracts/MooniswapFactory.sol:MooniswapFactory",
            "label": "result",
            "offset": 13,
            "slot": "0",
            "type": "t_uint104"
          },
          {
            "astId": 8461,
            "contract": "contracts/MooniswapFactory.sol:MooniswapFactory",
            "label": "time",
            "offset": 26,
            "slot": "0",
            "type": "t_uint48"
          }
        ],
        "numberOfBytes": "32"
      },
      "t_struct(Data)8518_storage": {
        "encoding": "inplace",
        "label": "struct Vote.Data",
        "members": [
          {
            "astId": 8517,
            "contract": "contracts/MooniswapFactory.sol:MooniswapFactory",
            "label": "value",
            "offset": 0,
            "slot": "0",
            "type": "t_uint256"
          }
        ],
        "numberOfBytes": "32"
      },
      "t_uint104": {
        "encoding": "inplace",
        "label": "uint104",
        "numberOfBytes": "13"
      },
      "t_uint256": {
        "encoding": "inplace",
        "label": "uint256",
        "numberOfBytes": "32"
      },
      "t_uint48": {
        "encoding": "inplace",
        "label": "uint48",
        "numberOfBytes": "6"
      }
    }
  }
}