{
  "address": "0x4096F53E9672b44A94757cC3434DC18Fcc4C6965",
  "abi": [
    {
      "inputs": [
        {
          "internalType": "contract IERC20",
          "name": "token1",
          "type": "address"
        },
        {
          "internalType": "contract IERC20",
          "name": "token2",
          "type": "address"
        },
        {
          "internalType": "string",
          "name": "name",
          "type": "string"
        },
        {
          "internalType": "string",
          "name": "symbol",
          "type": "string"
        },
        {
          "internalType": "address",
          "name": "poolOwner",
          "type": "address"
        }
      ],
      "name": "deploy",
      "outputs": [
        {
          "internalType": "contract Mooniswap",
          "name": "pool",
          "type": "address"
        }
      ],
      "stateMutability": "nonpayable",
      "type": "function"
    }
  ],
  "transactionHash": "0x446280f103c3e40e2f831ced0d96b028e8bee302e635ed6a8c7349b0647fdd5a",
  "args": [],
  "solcInputHash": "1a562338fc3dcc7c3518836eb7783537",
  "bytecode": "0x60806040523480156100195760008061001661001f565b50505b5061008a565b632a2a7adb598160e01b8152600481016020815285602082015260005b8681101561005757808601518282016040015260200161003c565b506020828760640184336000905af158600e01573d6000803e3d6000fd5b3d6001141558600a015760016000f35b505050565b6108a7806100996000396000f3fe60806040523480156100195760008061001661036c565b50505b50600436106100345760003560e01c8063b92440b014610042575b60008061003f61036c565b50505b610161600480360360a08110156100615760008061005e61036c565b50505b6001600160a01b038235811692602081013590911691810190606081016040820135600160201b81111561009d5760008061009a61036c565b50505b8201836020820111156100b8576000806100b561036c565b50505b803590602001918460018302840111600160201b831117156100e2576000806100df61036c565b50505b919390929091602081019035600160201b8111156101085760008061010561036c565b50505b8201836020820111156101235760008061012061036c565b50505b803590602001918460018302840111600160201b8311171561014d5760008061014a61036c565b50505b9193509150356001600160a01b031661017d565b6040516001600160a01b03909116815260200160405180910390f35b600060405161018b906103d7565b60405180910390600061019c6103e4565b5050801580156101b9573d6000803e3d60006101b661036c565b50505b509050806001600160a01b0316638d32df328989898989895a6101da61046c565b6040518863ffffffff1660e01b815260040180886001600160a01b03168152602001876001600160a01b031681526020018060200180602001846001600160a01b031681526020018381038352888882818152602001925080828437600083820152601f01601f1916909101848103835286815260200190508686808284376000838201819052601f909101601f19169092019b5090995060409850505050505050505051808303816000878061028f6104c6565b1580156102a4576000806102a161036c565b50505b505a6102ae610512565b5050505050501580156102ce573d6000803e3d60006102cb61036c565b50505b50505050806001600160a01b031663f2fde38b836040516001600160e01b031960e084901b1681526001600160a01b0390911660048201526024016000604051808303816000878061031e6104c6565b1580156103335760008061033061036c565b50505b505a61033d610512565b50505050505015801561035d573d6000803e3d600061035a61036c565b50505b50505050979650505050505050565b632a2a7adb598160e01b8152600481016020815285602082015260005b868110156103a4578086015182820160400152602001610389565b506020828760640184336000905af158600e01573d6000803e3d6000fd5b3d6001141558600a015760016000f35b505050565b6102a78061060083390190565b6314aa2ff7598160e01b8152600481016020815286602082015260005b8781101561041c578087015182820160400152602001610401565b506020828860640184336000905af158600e01573d6000803e3d6000fd5b3d6001141558600a015760016000f35b8151965059825b818110156104655760008152602001610451565b5050505050565b6373509064598160e01b8152602081600483336000905af158600e01573d6000803e3d6000fd5b3d6001141558600a015760016000f35b8051935060005b60408110156104c1576000828201526020016104aa565b505050565b638435035b598160e01b8152836004820152602081602483336000905af158600e01573d6000803e3d6000fd5b3d6001141558600a015760016000f35b805160008252935060206104aa565b6385979f76598160e01b8152610545565b808083111561052f5750815b92915050565b808083101561052f575090919050565b836004820152846024820152606060448201528760648201526084810160005b8981101561057d578089015182820152602001610565565b506060828a60a40184336000905af158600e01573d6000803e3d6000fd5b3d6001141558600a015760016000f35b815160408301513d6000853e8c8c82606087013350600060045af150596105d28e3d610535565b8d016105de8187610523565b5b828110156105f357600081526020016105df565b50929d5050505050505056fe60806040523480156100195760008061001661001f565b50505b5061008a565b632a2a7adb598160e01b8152600481016020815285602082015260005b8681101561005757808601518282016040015260200161003c565b506020828760640184336000905af158600e01573d6000803e3d6000fd5b3d6001141558600a015760016000f35b505050565b61020e806100996000396000f3fe6080604052348015610019576000806100166100b6565b50505b5060006060731d0ae300eec4093cee4367c00b228d10a5c7ac638236604051808383808284378083019250505092505050600060405180830381855a61005d610121565b50505050509150503d8060008114610091576040513d603f01601f191681016040523d815291503d6000602084013e610096565b606091505b5091509150816100ae576000806100ab6100b6565b50505b805160208201f35b632a2a7adb598160e01b8152600481016020815285602082015260005b868110156100ee5780860151828201604001526020016100d3565b506020828760640184336000905af158600e01573d6000803e3d6000fd5b3d6001141558600a015760016000f35b505050565b63ffe73914598160e01b8152610154565b808083111561013e5750815b92915050565b808083101561013e575090919050565b836004820152846024820152606060448201528660648201526084810160005b8881101561018c578088015182820152602001610174565b506060828960a40184336000905af158600e01573d6000803e3d6000fd5b3d6001141558600a015760016000f35b815160408301513d6000853e8b8b82606087013350600060045af150596101e18d3d610144565b8c016101ed8187610132565b5b8281101561020257600081526020016101ee565b50929c5050505050505056",
  "deployedBytecode": "0x60806040523480156100195760008061001661036c565b50505b50600436106100345760003560e01c8063b92440b014610042575b60008061003f61036c565b50505b610161600480360360a08110156100615760008061005e61036c565b50505b6001600160a01b038235811692602081013590911691810190606081016040820135600160201b81111561009d5760008061009a61036c565b50505b8201836020820111156100b8576000806100b561036c565b50505b803590602001918460018302840111600160201b831117156100e2576000806100df61036c565b50505b919390929091602081019035600160201b8111156101085760008061010561036c565b50505b8201836020820111156101235760008061012061036c565b50505b803590602001918460018302840111600160201b8311171561014d5760008061014a61036c565b50505b9193509150356001600160a01b031661017d565b6040516001600160a01b03909116815260200160405180910390f35b600060405161018b906103d7565b60405180910390600061019c6103e4565b5050801580156101b9573d6000803e3d60006101b661036c565b50505b509050806001600160a01b0316638d32df328989898989895a6101da61046c565b6040518863ffffffff1660e01b815260040180886001600160a01b03168152602001876001600160a01b031681526020018060200180602001846001600160a01b031681526020018381038352888882818152602001925080828437600083820152601f01601f1916909101848103835286815260200190508686808284376000838201819052601f909101601f19169092019b5090995060409850505050505050505051808303816000878061028f6104c6565b1580156102a4576000806102a161036c565b50505b505a6102ae610512565b5050505050501580156102ce573d6000803e3d60006102cb61036c565b50505b50505050806001600160a01b031663f2fde38b836040516001600160e01b031960e084901b1681526001600160a01b0390911660048201526024016000604051808303816000878061031e6104c6565b1580156103335760008061033061036c565b50505b505a61033d610512565b50505050505015801561035d573d6000803e3d600061035a61036c565b50505b50505050979650505050505050565b632a2a7adb598160e01b8152600481016020815285602082015260005b868110156103a4578086015182820160400152602001610389565b506020828760640184336000905af158601d01573d60011458600c01573d6000803e3d621234565260ea61109c52505050565b6102a78061060083390190565b6314aa2ff7598160e01b8152600481016020815286602082015260005b8781101561041c578087015182820160400152602001610401565b506020828860640184336000905af158601d01573d60011458600c01573d6000803e3d621234565260ea61109c528151965059825b818110156104655760008152602001610451565b5050505050565b6373509064598160e01b8152602081600483336000905af158601d01573d60011458600c01573d6000803e3d621234565260ea61109c528051935060005b60408110156104c1576000828201526020016104aa565b505050565b638435035b598160e01b8152836004820152602081602483336000905af158601d01573d60011458600c01573d6000803e3d621234565260ea61109c52805160008252935060206104aa565b6385979f76598160e01b8152610545565b808083111561052f5750815b92915050565b808083101561052f575090919050565b836004820152846024820152606060448201528760648201526084810160005b8981101561057d578089015182820152602001610565565b506060828a60a40184336000905af158601d01573d60011458600c01573d6000803e3d621234565260ea61109c52815160408301513d6000853e8c8c82606087013350600060045af150596105d28e3d610535565b8d016105de8187610523565b5b828110156105f357600081526020016105df565b50929d5050505050505056fe60806040523480156100195760008061001661001f565b50505b5061008a565b632a2a7adb598160e01b8152600481016020815285602082015260005b8681101561005757808601518282016040015260200161003c565b506020828760640184336000905af158601d01573d60011458600c01573d6000803e3d621234565260ea61109c52505050565b61020e806100996000396000f3fe6080604052348015610019576000806100166100b6565b50505b5060006060731d0ae300eec4093cee4367c00b228d10a5c7ac638236604051808383808284378083019250505092505050600060405180830381855a61005d610121565b50505050509150503d8060008114610091576040513d603f01601f191681016040523d815291503d6000602084013e610096565b606091505b5091509150816100ae576000806100ab6100b6565b50505b805160208201f35b632a2a7adb598160e01b8152600481016020815285602082015260005b868110156100ee5780860151828201604001526020016100d3565b506020828760640184336000905af158601d01573d60011458600c01573d6000803e3d621234565260ea61109c52505050565b63ffe73914598160e01b8152610154565b808083111561013e5750815b92915050565b808083101561013e575090919050565b836004820152846024820152606060448201528660648201526084810160005b8881101561018c578088015182820152602001610174565b506060828960a40184336000905af158601d01573d60011458600c01573d6000803e3d621234565260ea61109c52815160408301513d6000853e8b8b82606087013350600060045af150596101e18d3d610144565b8c016101ed8187610132565b5b8281101561020257600081526020016101ee565b50929c5050505050505056",
  "devdoc": {
    "kind": "dev",
    "methods": {},
    "version": 1
  },
  "userdoc": {
    "kind": "user",
    "methods": {},
    "version": 1
  },
  "storageLayout": {
    "storage": [],
    "types": null
  }
}