{
  "address": "0x0d15038f8a0362b4cE71D6c879d56bF9Fc2884cf",
  "abi": [
    {
      "inputs": [
        {
          "internalType": "address",
          "name": "_poolOwner",
          "type": "address"
        },
        {
          "internalType": "contract IMooniswapDeployer",
          "name": "_mooniswapDeployer",
          "type": "address"
        },
        {
          "internalType": "address",
          "name": "_governanceMothership",
          "type": "address"
        }
      ],
      "stateMutability": "nonpayable",
      "type": "constructor"
    },
    {
      "anonymous": false,
      "inputs": [
        {
          "indexed": true,
          "internalType": "address",
          "name": "user",
          "type": "address"
        },
        {
          "indexed": false,
          "internalType": "uint256",
          "name": "fee",
          "type": "uint256"
        },
        {
          "indexed": false,
          "internalType": "bool",
          "name": "isDefault",
          "type": "bool"
        },
        {
          "indexed": false,
          "internalType": "uint256",
          "name": "amount",
          "type": "uint256"
        }
      ],
      "name": "DefaultFeeVoteUpdate",
      "type": "event"
    },
    {
      "anonymous": false,
      "inputs": [
        {
          "indexed": true,
          "internalType": "address",
          "name": "user",
          "type": "address"
        },
        {
          "indexed": false,
          "internalType": "uint256",
          "name": "slippageFee",
          "type": "uint256"
        },
        {
          "indexed": false,
          "internalType": "bool",
          "name": "isDefault",
          "type": "bool"
        },
        {
          "indexed": false,
          "internalType": "uint256",
          "name": "amount",
          "type": "uint256"
        }
      ],
      "name": "DefaultSlippageFeeVoteUpdate",
      "type": "event"
    },
    {
      "anonymous": false,
      "inputs": [
        {
          "indexed": true,
          "internalType": "contract Mooniswap",
          "name": "mooniswap",
          "type": "address"
        },
        {
          "indexed": true,
          "internalType": "contract IERC20",
          "name": "token1",
          "type": "address"
        },
        {
          "indexed": true,
          "internalType": "contract IERC20",
          "name": "token2",
          "type": "address"
        }
      ],
      "name": "Deployed",
      "type": "event"
    },
    {
      "anonymous": false,
      "inputs": [
        {
          "indexed": false,
          "internalType": "address",
          "name": "feeCollector",
          "type": "address"
        }
      ],
      "name": "FeeCollectorUpdate",
      "type": "event"
    },
    {
      "anonymous": false,
      "inputs": [
        {
          "indexed": true,
          "internalType": "address",
          "name": "user",
          "type": "address"
        },
        {
          "indexed": false,
          "internalType": "uint256",
          "name": "governanceShare",
          "type": "uint256"
        },
        {
          "indexed": false,
          "internalType": "bool",
          "name": "isDefault",
          "type": "bool"
        },
        {
          "indexed": false,
          "internalType": "uint256",
          "name": "amount",
          "type": "uint256"
        }
      ],
      "name": "GovernanceShareVoteUpdate",
      "type": "event"
    },
    {
      "anonymous": false,
      "inputs": [
        {
          "indexed": false,
          "internalType": "address",
          "name": "governanceWallet",
          "type": "address"
        }
      ],
      "name": "GovernanceWalletUpdate",
      "type": "event"
    },
    {
      "anonymous": false,
      "inputs": [
        {
          "indexed": true,
          "internalType": "address",
          "name": "previousOwner",
          "type": "address"
        },
        {
          "indexed": true,
          "internalType": "address",
          "name": "newOwner",
          "type": "address"
        }
      ],
      "name": "OwnershipTransferred",
      "type": "event"
    },
    {
      "anonymous": false,
      "inputs": [
        {
          "indexed": false,
          "internalType": "address",
          "name": "account",
          "type": "address"
        }
      ],
      "name": "Paused",
      "type": "event"
    },
    {
      "anonymous": false,
      "inputs": [
        {
          "indexed": true,
          "internalType": "address",
          "name": "user",
          "type": "address"
        },
        {
          "indexed": false,
          "internalType": "uint256",
          "name": "referralShare",
          "type": "uint256"
        },
        {
          "indexed": false,
          "internalType": "bool",
          "name": "isDefault",
          "type": "bool"
        },
        {
          "indexed": false,
          "internalType": "uint256",
          "name": "amount",
          "type": "uint256"
        }
      ],
      "name": "ReferralShareVoteUpdate",
      "type": "event"
    },
    {
      "anonymous": false,
      "inputs": [
        {
          "indexed": false,
          "internalType": "address",
          "name": "account",
          "type": "address"
        }
      ],
      "name": "Unpaused",
      "type": "event"
    },
    {
      "inputs": [
        {
          "internalType": "uint256",
          "name": "",
          "type": "uint256"
        }
      ],
      "name": "allPools",
      "outputs": [
        {
          "internalType": "contract Mooniswap",
          "name": "",
          "type": "address"
        }
      ],
      "stateMutability": "view",
      "type": "function"
    },
    {
      "inputs": [
        {
          "internalType": "address",
          "name": "account",
          "type": "address"
        }
      ],
      "name": "balanceOf",
      "outputs": [
        {
          "internalType": "uint256",
          "name": "",
          "type": "uint256"
        }
      ],
      "stateMutability": "view",
      "type": "function"
    },
    {
      "inputs": [],
      "name": "defaultFee",
      "outputs": [
        {
          "internalType": "uint256",
          "name": "",
          "type": "uint256"
        }
      ],
      "stateMutability": "view",
      "type": "function"
    },
    {
      "inputs": [
        {
          "internalType": "uint256",
          "name": "vote",
          "type": "uint256"
        }
      ],
      "name": "defaultFeeVote",
      "outputs": [],
      "stateMutability": "nonpayable",
      "type": "function"
    },
    {
      "inputs": [
        {
          "internalType": "address",
          "name": "user",
          "type": "address"
        }
      ],
      "name": "defaultFeeVotes",
      "outputs": [
        {
          "internalType": "uint256",
          "name": "",
          "type": "uint256"
        }
      ],
      "stateMutability": "view",
      "type": "function"
    },
    {
      "inputs": [],
      "name": "defaultSlippageFee",
      "outputs": [
        {
          "internalType": "uint256",
          "name": "",
          "type": "uint256"
        }
      ],
      "stateMutability": "view",
      "type": "function"
    },
    {
      "inputs": [
        {
          "internalType": "uint256",
          "name": "vote",
          "type": "uint256"
        }
      ],
      "name": "defaultSlippageFeeVote",
      "outputs": [],
      "stateMutability": "nonpayable",
      "type": "function"
    },
    {
      "inputs": [
        {
          "internalType": "address",
          "name": "user",
          "type": "address"
        }
      ],
      "name": "defaultSlippageFeeVotes",
      "outputs": [
        {
          "internalType": "uint256",
          "name": "",
          "type": "uint256"
        }
      ],
      "stateMutability": "view",
      "type": "function"
    },
    {
      "inputs": [],
      "name": "defaults",
      "outputs": [
        {
          "internalType": "uint256",
          "name": "",
          "type": "uint256"
        },
        {
          "internalType": "uint256",
          "name": "",
          "type": "uint256"
        }
      ],
      "stateMutability": "view",
      "type": "function"
    },
    {
      "inputs": [
        {
          "internalType": "contract IERC20",
          "name": "tokenA",
          "type": "address"
        },
        {
          "internalType": "contract IERC20",
          "name": "tokenB",
          "type": "address"
        }
      ],
      "name": "deploy",
      "outputs": [
        {
          "internalType": "contract Mooniswap",
          "name": "pool",
          "type": "address"
        }
      ],
      "stateMutability": "nonpayable",
      "type": "function"
    },
    {
      "inputs": [],
      "name": "discardDefaultFeeVote",
      "outputs": [],
      "stateMutability": "nonpayable",
      "type": "function"
    },
    {
      "inputs": [],
      "name": "discardDefaultSlippageFeeVote",
      "outputs": [],
      "stateMutability": "nonpayable",
      "type": "function"
    },
    {
      "inputs": [],
      "name": "discardGovernanceShareVote",
      "outputs": [],
      "stateMutability": "nonpayable",
      "type": "function"
    },
    {
      "inputs": [],
      "name": "discardReferralShareVote",
      "outputs": [],
      "stateMutability": "nonpayable",
      "type": "function"
    },
    {
      "inputs": [],
      "name": "feeCollector",
      "outputs": [
        {
          "internalType": "address",
          "name": "",
          "type": "address"
        }
      ],
      "stateMutability": "view",
      "type": "function"
    },
    {
      "inputs": [],
      "name": "getAllPools",
      "outputs": [
        {
          "internalType": "contract Mooniswap[]",
          "name": "",
          "type": "address[]"
        }
      ],
      "stateMutability": "view",
      "type": "function"
    },
    {
      "inputs": [],
      "name": "governanceShare",
      "outputs": [
        {
          "internalType": "uint256",
          "name": "",
          "type": "uint256"
        }
      ],
      "stateMutability": "view",
      "type": "function"
    },
    {
      "inputs": [
        {
          "internalType": "uint256",
          "name": "vote",
          "type": "uint256"
        }
      ],
      "name": "governanceShareVote",
      "outputs": [],
      "stateMutability": "nonpayable",
      "type": "function"
    },
    {
      "inputs": [
        {
          "internalType": "address",
          "name": "user",
          "type": "address"
        }
      ],
      "name": "governanceShareVotes",
      "outputs": [
        {
          "internalType": "uint256",
          "name": "",
          "type": "uint256"
        }
      ],
      "stateMutability": "view",
      "type": "function"
    },
    {
      "inputs": [],
      "name": "governanceWallet",
      "outputs": [
        {
          "internalType": "address",
          "name": "",
          "type": "address"
        }
      ],
      "stateMutability": "view",
      "type": "function"
    },
    {
      "inputs": [],
      "name": "isActive",
      "outputs": [
        {
          "internalType": "bool",
          "name": "",
          "type": "bool"
        }
      ],
      "stateMutability": "view",
      "type": "function"
    },
    {
      "inputs": [
        {
          "internalType": "address",
          "name": "",
          "type": "address"
        }
      ],
      "name": "isFeeCollector",
      "outputs": [
        {
          "internalType": "bool",
          "name": "",
          "type": "bool"
        }
      ],
      "stateMutability": "view",
      "type": "function"
    },
    {
      "inputs": [
        {
          "internalType": "contract Mooniswap",
          "name": "",
          "type": "address"
        }
      ],
      "name": "isPool",
      "outputs": [
        {
          "internalType": "bool",
          "name": "",
          "type": "bool"
        }
      ],
      "stateMutability": "view",
      "type": "function"
    },
    {
      "inputs": [],
      "name": "mooniswapDeployer",
      "outputs": [
        {
          "internalType": "contract IMooniswapDeployer",
          "name": "",
          "type": "address"
        }
      ],
      "stateMutability": "view",
      "type": "function"
    },
    {
      "inputs": [],
      "name": "mothership",
      "outputs": [
        {
          "internalType": "address",
          "name": "",
          "type": "address"
        }
      ],
      "stateMutability": "view",
      "type": "function"
    },
    {
      "inputs": [
        {
          "internalType": "address",
          "name": "account",
          "type": "address"
        },
        {
          "internalType": "uint256",
          "name": "newBalance",
          "type": "uint256"
        }
      ],
      "name": "notifyStakeChanged",
      "outputs": [],
      "stateMutability": "nonpayable",
      "type": "function"
    },
    {
      "inputs": [
        {
          "internalType": "address[]",
          "name": "accounts",
          "type": "address[]"
        },
        {
          "internalType": "uint256[]",
          "name": "newBalances",
          "type": "uint256[]"
        }
      ],
      "name": "notifyStakesChanged",
      "outputs": [],
      "stateMutability": "nonpayable",
      "type": "function"
    },
    {
      "inputs": [],
      "name": "owner",
      "outputs": [
        {
          "internalType": "address",
          "name": "",
          "type": "address"
        }
      ],
      "stateMutability": "view",
      "type": "function"
    },
    {
      "inputs": [],
      "name": "paused",
      "outputs": [
        {
          "internalType": "bool",
          "name": "",
          "type": "bool"
        }
      ],
      "stateMutability": "view",
      "type": "function"
    },
    {
      "inputs": [],
      "name": "poolOwner",
      "outputs": [
        {
          "internalType": "address",
          "name": "",
          "type": "address"
        }
      ],
      "stateMutability": "view",
      "type": "function"
    },
    {
      "inputs": [
        {
          "internalType": "contract IERC20",
          "name": "tokenA",
          "type": "address"
        },
        {
          "internalType": "contract IERC20",
          "name": "tokenB",
          "type": "address"
        }
      ],
      "name": "pools",
      "outputs": [
        {
          "internalType": "contract Mooniswap",
          "name": "pool",
          "type": "address"
        }
      ],
      "stateMutability": "view",
      "type": "function"
    },
    {
      "inputs": [],
      "name": "referralShare",
      "outputs": [
        {
          "internalType": "uint256",
          "name": "",
          "type": "uint256"
        }
      ],
      "stateMutability": "view",
      "type": "function"
    },
    {
      "inputs": [
        {
          "internalType": "uint256",
          "name": "vote",
          "type": "uint256"
        }
      ],
      "name": "referralShareVote",
      "outputs": [],
      "stateMutability": "nonpayable",
      "type": "function"
    },
    {
      "inputs": [
        {
          "internalType": "address",
          "name": "user",
          "type": "address"
        }
      ],
      "name": "referralShareVotes",
      "outputs": [
        {
          "internalType": "uint256",
          "name": "",
          "type": "uint256"
        }
      ],
      "stateMutability": "view",
      "type": "function"
    },
    {
      "inputs": [],
      "name": "renounceOwnership",
      "outputs": [],
      "stateMutability": "nonpayable",
      "type": "function"
    },
    {
      "inputs": [
        {
          "internalType": "address",
          "name": "newFeeCollector",
          "type": "address"
        }
      ],
      "name": "setFeeCollector",
      "outputs": [],
      "stateMutability": "nonpayable",
      "type": "function"
    },
    {
      "inputs": [
        {
          "internalType": "address",
          "name": "newGovernanceWallet",
          "type": "address"
        }
      ],
      "name": "setGovernanceWallet",
      "outputs": [],
      "stateMutability": "nonpayable",
      "type": "function"
    },
    {
      "inputs": [],
      "name": "shareParameters",
      "outputs": [
        {
          "internalType": "uint256",
          "name": "",
          "type": "uint256"
        },
        {
          "internalType": "uint256",
          "name": "",
          "type": "uint256"
        },
        {
          "internalType": "address",
          "name": "",
          "type": "address"
        },
        {
          "internalType": "address",
          "name": "",
          "type": "address"
        }
      ],
      "stateMutability": "view",
      "type": "function"
    },
    {
      "inputs": [],
      "name": "shutdown",
      "outputs": [],
      "stateMutability": "nonpayable",
      "type": "function"
    },
    {
      "inputs": [
        {
          "internalType": "contract IERC20",
          "name": "tokenA",
          "type": "address"
        },
        {
          "internalType": "contract IERC20",
          "name": "tokenB",
          "type": "address"
        }
      ],
      "name": "sortTokens",
      "outputs": [
        {
          "internalType": "contract IERC20",
          "name": "",
          "type": "address"
        },
        {
          "internalType": "contract IERC20",
          "name": "",
          "type": "address"
        }
      ],
      "stateMutability": "pure",
      "type": "function"
    },
    {
      "inputs": [],
      "name": "totalSupply",
      "outputs": [
        {
          "internalType": "uint256",
          "name": "",
          "type": "uint256"
        }
      ],
      "stateMutability": "view",
      "type": "function"
    },
    {
      "inputs": [
        {
          "internalType": "address",
          "name": "newOwner",
          "type": "address"
        }
      ],
      "name": "transferOwnership",
      "outputs": [],
      "stateMutability": "nonpayable",
      "type": "function"
    },
    {
      "inputs": [],
      "name": "virtualDefaultFee",
      "outputs": [
        {
          "internalType": "uint104",
          "name": "",
          "type": "uint104"
        },
        {
          "internalType": "uint104",
          "name": "",
          "type": "uint104"
        },
        {
          "internalType": "uint48",
          "name": "",
          "type": "uint48"
        }
      ],
      "stateMutability": "view",
      "type": "function"
    },
    {
      "inputs": [],
      "name": "virtualDefaultSlippageFee",
      "outputs": [
        {
          "internalType": "uint104",
          "name": "",
          "type": "uint104"
        },
        {
          "internalType": "uint104",
          "name": "",
          "type": "uint104"
        },
        {
          "internalType": "uint48",
          "name": "",
          "type": "uint48"
        }
      ],
      "stateMutability": "view",
      "type": "function"
    },
    {
      "inputs": [],
      "name": "virtualGovernanceShare",
      "outputs": [
        {
          "internalType": "uint104",
          "name": "",
          "type": "uint104"
        },
        {
          "internalType": "uint104",
          "name": "",
          "type": "uint104"
        },
        {
          "internalType": "uint48",
          "name": "",
          "type": "uint48"
        }
      ],
      "stateMutability": "view",
      "type": "function"
    },
    {
      "inputs": [],
      "name": "virtualReferralShare",
      "outputs": [
        {
          "internalType": "uint104",
          "name": "",
          "type": "uint104"
        },
        {
          "internalType": "uint104",
          "name": "",
          "type": "uint104"
        },
        {
          "internalType": "uint48",
          "name": "",
          "type": "uint48"
        }
      ],
      "stateMutability": "view",
      "type": "function"
    }
  ],
  "transactionHash": "0xb9159c89b0f36ad6abd584173d20770c3f0ee72da3cf41550bdbf62f000d2b04",
  "args": [
    "0x7e11a8887A2c445883AcC453738635bC3aCDAdb6",
    "0x8b01d28F4fDDD89322711d832325f7eB1f122FB2",
    "0xB33839E05CE9Fc53236Ae325324A27612F4d110D"
  ],
  "solcInputHash": "c40ed9d6ab9534012d51b8ac2455af37",
  "bytecode": "0x60e06040523480156200001c5760008062000019620002cc565b50505b506040516200344338038062003443833981810160405260608110156200004d576000806200004a620002cc565b50505b810190808051929190602001805192919060200180516001600160601b0319606082901b166080529250829150600090506200008862000298565b90508060026001816200009a62000339565b816001600160a01b0302191690836001600160a01b0316021790620000be6200039b565b5050506001600160a01b03811660007f8be0079c531659141344cd1fd0a4f28419497f9722a3daafe3b4186f6b6457e060405160405180910390a35060006002600160a01b816200010e62000339565b8160ff02191690831515021790620001256200039b565b5050506200013f6000620002aa60201b62001d2a1760201c565b6003600160681b816200015162000339565b816001600160681b0302191690836001600160681b0316021790620001756200039b565b50505062000196670de0b6b3a7640000620002aa60201b62001d2a1760201c565b6007600160681b81620001a862000339565b816001600160681b0302191690836001600160681b0316021790620001cc6200039b565b505050620001ed67016345785d8a0000620002aa60201b62001d2a1760201c565b600b600160681b81620001ff62000339565b816001600160681b0302191690836001600160681b0316021790620002236200039b565b5050506200023d6000620002aa60201b62001d2a1760201c565b600f600160681b816200024f62000339565b816001600160681b0302191690836001600160681b0316021790620002736200039b565b5050505050606091821b6001600160601b031990811660c052911b1660a05262000431565b60005a620002a5620003ea565b905090565b6000600160681b8210620002c857600080620002c5620002cc565b50505b5090565b632a2a7adb598160e01b8152600481016020815285602082015260005b8681101562000306578086015182820160400152602001620002e9565b506020828760640184336000905af158600e01573d6000803e3d6000fd5b3d6001141558600a015760016000f35b505050565b6303daa959598160e01b8152836004820152602081602483336000905af158600e01573d6000803e3d6000fd5b3d6001141558600a015760016000f35b8051935060005b604081101562000396576000828201526020016200037d565b505050565b6322bd64c0598160e01b8152836004820152846024820152600081604483336000905af158600e01573d6000803e3d6000fd5b3d6001141558600a015760016000f35b6000815260206200037d565b6373509064598160e01b8152602081600483336000905af158600e01573d6000803e3d6000fd5b3d6001141558600a015760016000f35b805160008252935060206200037d565b60805160601c60a05160601c60c05160601c612fc86200047b600039806110355280611982525080610e4d5280611907525080610be85280610ce852806118525250612fc86000f3fe608060405234801561001957600080610016612bda565b50505b50600436106102235760003560e01c8063117036d11461023157806314fd235a14610272578063151359b41461029a578063172886e7146102a257806317901de3146102e757806318160ddd1461032d57806322abd7b21461033557806322f3e2d41461033d57806323662bb91461035957806327a27433146103615780633b90b9bf146103965780633eed75c3146103c55780634187b7d6146103cd57806341d1de97146103f1578063544caa5614610417578063545e7c61146104725780635a6c72d0146104a95780635b16ebb7146104b15780635c975abb146104e0578063607c219f146104e8578063612a9f7614610517578063709893301461051f57806370a0823114610527578063715018a614610556578063865e45731461055e5780638d4241271461058d5780638da5cb5b14610595578063901754d71461059d5780639725ff35146105d457806399fca7d9146105fa578063a42dce8014610629578063ad33334814610658578063b0cb4b0a14610755578063b8ffca321461075d578063c415b95c14610765578063cf0b22701461076d578063d88ff1f414610775578063d8f4e0eb146107d0578063e7a7b5a0146107f6578063e859e56c146107fe578063e9f7e17b14610806578063edb7a6fa1461082c578063f2fde38b1461084c578063f38303351461087b578063fb20b7d014610883578063fc0e74d1146108b2575b60008061022e612bda565b50505b610260600480360360208110156102505760008061024d612bda565b50505b50356001600160a01b03166108ba565b60405190815260200160405180910390f35b610298600480360360208110156102915760008061028e612bda565b50505b5035610904565b005b6102986109a0565b6102aa610a17565b60405180858152602001848152602001836001600160a01b03168152602001826001600160a01b0316815260200194505050505060405180910390f35b6102ef610af8565b60405180846001600160681b03168152602001836001600160681b031681526020018265ffffffffffff168152602001935050505060405180910390f35b610260610b5d565b6102ef610b6d565b610345610bb8565b604051901515815260200160405180910390f35b610260610bc8565b610298600480360360408110156103805760008061037d612bda565b50505b506001600160a01b038135169060200135610be6565b610345600480360360208110156103b5576000806103b2612bda565b50505b50356001600160a01b0316610c43565b610298610c6a565b6103d5610ce6565b6040516001600160a01b03909116815260200160405180910390f35b6103d5600480360360208110156104105760008061040d612bda565b50505b5035610d0a565b61044e6004803603604081101561043657600080610433612bda565b50505b506001600160a01b0381358116916020013516610d47565b6040516001600160a01b039283168152911660208201526040908101905180910390f35b6103d5600480360360408110156104915760008061048e612bda565b50505b506001600160a01b0381358116916020013516610d7b565b61026061133d565b610345600480360360208110156104d0576000806104cd612bda565b50505b50356001600160a01b031661135b565b610345611375565b6102986004803603602081101561050757600080610504612bda565b50505b50356001600160a01b0316611392565b61029861143a565b6103d5611493565b6102606004803603602081101561054657600080610543612bda565b50505b50356001600160a01b031661149f565b6102986114bf565b6102606004803603602081101561057d5760008061057a612bda565b50505b50356001600160a01b031661156a565b61029861159b565b6103d5611617565b6103d5600480360360408110156105bc576000806105b9612bda565b50505b506001600160a01b0381358116916020013516611639565b610298600480360360208110156105f3576000806105f0612bda565b50505b50356116a4565b6102606004803603602081101561061957600080610616612bda565b50505b50356001600160a01b0316611739565b6102986004803603602081101561064857600080610645612bda565b50505b50356001600160a01b031661176a565b6102986004803603604081101561067757600080610674612bda565b50505b810190602081018135600160201b81111561069a57600080610697612bda565b50505b8201836020820111156106b5576000806106b2612bda565b50505b803590602001918460208302840111600160201b831117156106df576000806106dc612bda565b50505b919390929091602081019035600160201b81111561070557600080610702612bda565b50505b8201836020820111156107205760008061071d612bda565b50505b803590602001918460208302840111600160201b8311171561074a57600080610747612bda565b50505b509092509050611850565b6103d5611905565b6102ef611929565b6103d5611974565b6103d5611980565b61077d6119a4565b60405160208082528190810183818151815260200191508051906020019060200280838360005b838110156107bc5780820151838201526020016107a4565b505050509050019250505060405180910390f35b610298600480360360208110156107ef576000806107ec612bda565b50505b5035611a2b565b6102ef611aa2565b610260611aed565b6102986004803603602081101561082557600080610822612bda565b50505b5035611b0b565b610834611b83565b60405191825260208201526040908101905180910390f35b6102986004803603602081101561086b57600080610868612bda565b50505b50356001600160a01b0316611bc6565b610260611c96565b610260600480360360208110156108a25760008061089f612bda565b50505b50356001600160a01b0316611cb4565b610298611ced565b6001600160a01b0381166000908152600e6020526108fc67016345785d8a000060408320604051602081016040529081816108f3612c45565b90525090611d49565b90505b919050565b67016345785d8a00008111156109225760008061091f612bda565b50505b61099d5a61092e612ca0565b601260005a61093b612ca0565b6001600160a01b03166001600160a01b0316815260200190815260200160002060405160208101604052908181610970612c45565b90525061097c84611d66565b61098d5a610988612ca0565b61149f565b600f939291906000611d84611ddb565b50565b610a155a6109ac612ca0565b600660005a6109b9612ca0565b6001600160a01b03166001600160a01b03168152602001908152602001600020604051602081016040529081816109ee612c45565b9052506109f9611df4565b610a055a610988612ca0565b6003939291906000611e0f611ddb565b565b6000808080610a95600b604051606081016040529081600082610a38612c45565b6001600160681b036101009290920a9004168152602001600d82610a5a612c45565b6001600160681b036101009290920a9004168152602001601a82610a7c612c45565b65ffffffffffff6101009290920a900416905250611e66565b610ab1600f604051606081016040529081600082610a38612c45565b60006013610abd612c45565b906101000a90046001600160a01b03166014600090610ada612c45565b906101000a90046001600160a01b0316935093509350935090919293565b6000808080600b610b07612c45565b6001600160681b036101009290920a900416600d600b610b25612c45565b6001600160681b036101009290920a900416601a600b610b43612c45565b906101000a900465ffffffffffff16925092509250909192565b600080610b68612c45565b905090565b6000808080600f610b7c612c45565b6001600160681b036101009290920a900416600d600f610b9a612c45565b6001600160681b036101009290920a900416601a600f610b43612c45565b6000610bc2611375565b15905090565b6000610b686007604051606081016040529081600082610a38612c45565b7f00000000000000000000000000000000000000000000000000000000000000006001600160a01b03165a610c19612ca0565b6001600160a01b031614610c3557600080610c32612bda565b50505b610c3f8282611ef2565b5050565b601560205280600052604060002060009150610c5d612c45565b906101000a900460ff1681565b610a155a610c76612ca0565b600e60005a610c83612ca0565b6001600160a01b03166001600160a01b0316815260200190815260200160002060405160208101604052908181610cb8612c45565b905250610cc3611df4565b610ccf5a610988612ca0565b600b9392919067016345785d8a0000612034611ddb565b7f000000000000000000000000000000000000000000000000000000000000000081565b60168181610d16612c45565b8110610d1e57fe5b9060005260206000200160009150610d34612c45565b906101000a90046001600160a01b031681565b600080826001600160a01b0316846001600160a01b03161015610d6e575082905081610d74565b50819050825b9250929050565b6000816001600160a01b0316836001600160a01b03161415610da557600080610da2612bda565b50505b600080610db28585610d47565b6001600160a01b038216600090815260186020529193509150604081206001600160a01b038316600090815260209190915260409020600090610df3612c45565b906101000a90046001600160a01b03166001600160a01b031614610e1f57600080610e1c612bda565b50505b6060610e33836001600160a01b031661208b565b90506060610e49836001600160a01b031661208b565b90507f00000000000000000000000000000000000000000000000000000000000000006001600160a01b031663b92440b085858585604051602001808075062d2dcc6d04098d2e2ead2c8d2e8f240a0deded840560531b81525060160183805190602001908083835b60208310610ed15780518252601f199092019160209182019101610eb2565b6001836020036101000a03801982511681845116179092525050602d60f81b93909101928352505060010182805190602001908083835b60208310610f275780518252601f199092019160209182019101610f08565b6001836020036101000a03801982511681845116179092525050602960f81b93909101928352505060010192506040915050516020818303038152906040528686604051602001808063314c502d60e01b81525060040183805190602001908083835b60208310610fa95780518252601f199092019160209182019101610f8a565b6001836020036101000a03801982511681845116179092525050602d60f81b93909101928352505060010182805190602001908083835b60208310610fff5780518252601f199092019160209182019101610fe0565b6001836020036101000a0380198251168184511617909252505050919091019350604092505050516020818303038152906040527f00000000000000000000000000000000000000000000000000000000000000006040518663ffffffff1660e01b815260040180866001600160a01b03168152602001856001600160a01b031681526020018060200180602001846001600160a01b03168152602001838103835286818151815260200191508051906020019080838360005b838110156110d15780820151838201526020016110b9565b50505050905090810190601f1680156110fe5780820380516001836020036101000a031916815260200191505b50838103825285818151815260200191508051906020019080838360005b8381101561113457808201518382015260200161111c565b50505050905090810190601f1680156111615780820380516001836020036101000a031916815260200191505b5097505050505050505060206040518083038160008780611180612ce6565b15801561119557600080611192612bda565b50505b505a61119f612d32565b5050505050501580156111bf573d6000803e3d60006111bc612bda565b50505b505050506040513d60208110156111de576000806111db612bda565b50505b8101908080516001600160a01b03881660009081526018602052909850889350604092509050206001600160a01b038516600090815260209190915260409020600181611229612c45565b816001600160a01b0302191690836001600160a01b031602179061124b612e1d565b505050601685908060018161125e612c45565b018082611269612e1d565b505060009283526000190191602091502001600181611286612c45565b816001600160a01b0302191690836001600160a01b03160217906112a8612e1d565b5050506001600160a01b03851660009081526017602052600190604090206001816112d1612c45565b8160ff021916908315150217906112e6612e1d565b505050826001600160a01b0316846001600160a01b0316866001600160a01b03167fc95935a66d15e0da5e412aca0ad27ae891d20b2fb91cf3994b6a3bf2b817808260405160405180910390a45050505092915050565b6000610b686003604051606081016040529081600082610a38612c45565b601760205280600052604060002060009150610c5d612c45565b600060146002611383612c45565b906101000a900460ff16905090565b61139a61251c565b6001600160a01b03166113ab611617565b6001600160a01b0316146113c7576000806113c4612bda565b50505b8060136001816113d5612c45565b816001600160a01b0302191690836001600160a01b03160217906113f7612e1d565b5050507fe348b7d1d8572de16c7301317890112a52bd7f6c3b713bd7d70e4cffb489ed9f816040516001600160a01b03909116815260200160405180910390a150565b610a155a611446612ca0565b601260005a611453612ca0565b6001600160a01b03166001600160a01b0316815260200190815260200160002060405160208101604052908181611488612c45565b90525061097c611df4565b60006013610d34612c45565b6001600160a01b03811660009081526001602052604081206108fc612c45565b6114c761251c565b6001600160a01b03166114d8611617565b6001600160a01b0316146114f4576000806114f1612bda565b50505b6000806002611501612c45565b906101000a90046001600160a01b03166001600160a01b0316600080516020612fa883398151915260405160405180910390a360006002600181611543612c45565b816001600160a01b0302191690836001600160a01b0316021790611565612e1d565b505050565b6001600160a01b038116600090815260126020526108fc8160408120604051602081016040529081816108f3612c45565b610a155a6115a7612ca0565b600a60005a6115b4612ca0565b6001600160a01b03166001600160a01b03168152602001908152602001600020604051602081016040529081816115e9612c45565b9052506115f4611df4565b6116005a610988612ca0565b600793929190670de0b6b3a7640000612527611ddb565b6000806002611624612c45565b906101000a90046001600160a01b0316905090565b60008060006116488585610d47565b6001600160a01b038216600090815260186020529193509150604090206001600160a01b038216600090815260209190915260409020600090611689612c45565b906101000a90046001600160a01b0316925050505b92915050565b67016345785d8a00008111156116c2576000806116bf612bda565b50505b66b1a2bc2ec500008110156116df576000806116dc612bda565b50505b61099d5a6116eb612ca0565b600e60005a6116f8612ca0565b6001600160a01b03166001600160a01b031681526020019081526020016000206040516020810160405290818161172d612c45565b905250610cc384611d66565b6001600160a01b038116600090815260066020526108fc8160408120604051602081016040529081816108f3612c45565b61177261251c565b6001600160a01b0316611783611617565b6001600160a01b03161461179f5760008061179c612bda565b50505b8060146001816117ad612c45565b816001600160a01b0302191690836001600160a01b03160217906117cf612e1d565b5050506001600160a01b03811660009081526015602052600190604090206001816117f8612c45565b8160ff0219169083151502179061180d612e1d565b5050507ffa7dc4914c53d1cee4cf31f857b016d55f8c6d28d5f950e64c7258a4fa18de19816040516001600160a01b03909116815260200160405180910390a150565b7f00000000000000000000000000000000000000000000000000000000000000006001600160a01b03165a611883612ca0565b6001600160a01b03161461189f5760008061189c612bda565b50505b8281146118b4576000806118b1612bda565b50505b60005b838110156118fe576118f68585838181106118ce57fe5b905060200201356001600160a01b03168484848181106118ea57fe5b90506020020135611ef2565b6001016118b7565b5050505050565b7f000000000000000000000000000000000000000000000000000000000000000081565b60008080806007611938612c45565b6001600160681b036101009290920a900416600d6007611956612c45565b6001600160681b036101009290920a900416601a6007610b43612c45565b60006014610d34612c45565b7f000000000000000000000000000000000000000000000000000000000000000081565b60606016806119b1612c45565b8060200260200160405190810160405281815291906020830182806119d4612c45565b8015611a2157602002820191906000526020600020905b6000826119f6612c45565b906101000a90046001600160a01b03166001600160a01b0316815260200190600101908083116119eb575b5050505050905090565b662386f26fc10000811115611a4857600080611a45612bda565b50505b61099d5a611a54612ca0565b600660005a611a61612ca0565b6001600160a01b03166001600160a01b0316815260200190815260200160002060405160208101604052908181611a96612c45565b9052506109f984611d66565b60008080806003611ab1612c45565b6001600160681b036101009290920a900416600d6003611acf612c45565b6001600160681b036101009290920a900416601a6003610b43612c45565b6000610b68600b604051606081016040529081600082610a38612c45565b670de0b6b3a7640000811115611b2957600080611b26612bda565b50505b61099d5a611b35612ca0565b600a60005a611b42612ca0565b6001600160a01b03166001600160a01b0316815260200190815260200160002060405160208101604052908181611b77612c45565b9052506115f484611d66565b600080611ba26003604051606081016040529081600082610a38612c45565b611bbe6007604051606081016040529081600082610a38612c45565b915091509091565b611bce61251c565b6001600160a01b0316611bdf611617565b6001600160a01b031614611bfb57600080611bf8612bda565b50505b6001600160a01b038116611c1757600080611c14612bda565b50505b6001600160a01b03811660006002611c2d612c45565b906101000a90046001600160a01b03166001600160a01b0316600080516020612fa883398151915260405160405180910390a3806002600181611c6e612c45565b816001600160a01b0302191690836001600160a01b0316021790611c90612e1d565b50505050565b6000610b68600f604051606081016040529081600082610a38612c45565b6001600160a01b0381166000908152600a6020526108fc670de0b6b3a764000060408320604051602081016040529081816108f3612c45565b611cf561251c565b6001600160a01b0316611d06611617565b6001600160a01b031614611d2257600080611d1f612bda565b50505b610a1561257e565b6000600160681b8210611d4557600080611d42612bda565b50505b5090565b60008083511115611d60576001835103905061169e565b50919050565b611d6e612e6b565b6040516020810160405260019290920182525090565b836001600160a01b03167f02540a8a88261967ef1c1a4ed50fde9f0a0a493922c069129e21961198e1b43984848460405192835290151560208301526040808301919091526060909101905180910390a250505050565b611deb8787878787888888612609565b50505050505050565b611dfc612e6b565b6040516020810160405260008152905090565b836001600160a01b03167f28eed64d01e23014333abef902958309592b3cf9ce9da390f224467cfcaaf5b284848460405192835290151560208301526040808301919091526060909101905180910390a250505050565b600080611e9462015180611e8f856040015165ffffffffffff165a611e89612e7c565b906128ba565b6128d8565b90506000611ea562015180836128ba565b9050611eea62015180611ee4611ec98588602001516001600160681b0316906128f0565b611ede8589516001600160681b0316906128f0565b90612926565b9061293e565b949350505050565b6000611efe8383612966565b905080821415611f0e5750610c3f565b6001600160a01b03831660009081526006602052611f549084906040902060405160208101604052908181611f41612c45565b9052506003919084866000611e0f6129dc565b6001600160a01b0383166000908152600a602052611fa19084906040902060405160208101604052908181611f87612c45565b905250600791908486670de0b6b3a76400006125276129dc565b6001600160a01b0383166000908152600e602052611fee9084906040902060405160208101604052908181611fd4612c45565b905250600b9190848667016345785d8a00006120346129dc565b6001600160a01b038316600090815260126020526115659084906040902060405160208101604052908181612021612c45565b905250600f919084866000611d846129dc565b836001600160a01b03167ffa67c3ef5d30b2838a61d783cb71a076e17984d05840f2dfa1521135df49557b84848460405192835290151560208301526040808301919091526060909101905180910390a250505050565b60606001600160a01b0382166120a9576000806120a6612bda565b50505b60006060836001600160a01b0316614e20604051602401604051601f198183030181526040919091526395d89b4160e01b6020820180516001600160e01b031690911790526040518082805190602001908083835b6020831061211d5780518252601f1990920191602091820191016120fe565b6001836020036101000a0380198251168184511680821785525050505050509050019150506000604051808303818686612155612ec2565b5050505050925050503d806000811461218a576040513d603f01601f191681016040523d815291503d6000602084013e61218f565b606091505b50915091508161228257836001600160a01b0316614e20604051602401604051601f19818303018152604091909152631eedf1af60e31b6020820180516001600160e01b031690911790526040518082805190602001908083835b602083106122095780518252601f1990920191602091820191016121ea565b6001836020036101000a0380198251168184511680821785525050505050509050019150506000604051808303818686612241612ec2565b5050505050925050503d8060008114612276576040513d603f01601f191681016040523d815291503d6000602084013e61227b565b606091505b5090925090505b81801561229157506060815110155b156123e45760008060208301835160408110156122b6576000806122b3612bda565b50505b8101908080519291906020018051939550929350505060208314905080156122de5750600081115b80156122ec57506101008111155b156123e157602083018351602081101561230e5760008061230b612bda565b50505b8101908080516040519392919084600160201b82111561233657600080612333612bda565b50505b90830190602082018581111561235457600080612351612bda565b50505b8251600160201b81118282018810171561237657600080612373612bda565b50505b825250602001908051906020019080838360005b838110156123a257808201518382015260200161238a565b50505050905090810190601f1680156123cf5780820380516001836020036101000a031916815260200191505b506040525050509450505050506108ff565b50505b8180156123f2575080516020145b156125135760005b8151811080156124285750600160fd1b82828151811061241657fe5b60200101516001600160f81b03191610155b80156124525750603f60f91b82828151811061244057fe5b60200101516001600160f81b03191611155b1561245f576001016123fa565b8015612511576060816001600160401b038111801561248657600080612483612bda565b50505b50604051818152601f19601f83011681016020016040529080156124b1576020820181803683370190505b50905060005b82811015612505578381815181106124cb57fe5b60200101516001600160f81b0319168282815181106124e657fe5b60200101906001600160f81b031916908160001a9053506001016124b7565b5093506108ff92505050565b505b611eea846129ff565b60005a610b68612ca0565b836001600160a01b03167f214419d1bacc9564ca0fcf6552dad3ec0aa54c97de900de89dc202e6bbd9198a84848460405192835290151560208301526040808301919091526060909101905180910390a250505050565b612586611375565b1561259957600080612596612bda565b50505b60016002600160a01b816125ab612c45565b8160ff021916908315150217906125c0612e1d565b5050507f62e78cea01bee320cd4e420270b5ea74000d11b0c9f74754ebdbfc544b05a2586125ec61251c565b6040516001600160a01b03909116815260200160405180910390a1565b600088600101612617612c45565b905080600060028b01612628612c45565b9050806126348a612a35565b6126655761265661264f6126488c89611d49565b8a906128f0565b84906128ba565b925061266281896128ba565b90505b61266e89612a35565b61269f576126906126896126828b89611d49565b89906128f0565b8490612926565b925061269c8188612926565b90505b8383146126b857828060018e016126b4612e1d565b5050505b8181146126d157808060028e016126cd612e1d565b5050505b600081156126e8576126e3848361293e565b6126ea565b865b90506126f4612f88565b8d60405160608101604052908160008261270c612c45565b6001600160681b036101009290920a9004168152602001600d8261272e612c45565b6001600160681b036101009290920a9004168152602001601a82612750612c45565b65ffffffffffff6101009290920a900416905250905060208101516001600160681b0316821461284e578d61278c61278783611e66565b611d2a565b61279584611d2a565b6127a65a6127a1612e7c565b612a40565b83600081600d8482600160d01b816127bc612c45565b8165ffffffffffff021916908365ffffffffffff160217906127dc612e1d565b5050508591906101000a816127ef612c45565b816001600160681b0302191690836001600160681b0316021790612811612e1d565b5050508491906101000a81612824612c45565b816001600160681b0302191690836001600160681b0316021790612846612e1d565b505050505050505b5061285b9050898b612a58565b61288b576001600160a01b038b16600090815260038d01602052899060409020815181612886612e1d565b505050505b6128ac8b6128998b89611d49565b6128a28c612a35565b8a8963ffffffff16565b505050505050505050505050565b6000828211156128d2576000806128cf612bda565b50505b50900390565b60008183106128e757816128e9565b825b9392505050565b6000826128ff5750600061169e565b8282028284828161290c57fe5b04146128e95760008061291d612bda565b50509392505050565b6000828201838110156128e95760008061291d612bda565b600080821161295557600080612952612bda565b50505b81838161295e57fe5b049392505050565b6001600160a01b0382166000908152600160205260408120612986612c45565b905081811461169e576001600160a01b0383166000908152600160205282906040902081906129b3612e1d565b5050506129c881611e89846000611ede612c45565b8060006129d3612e1d565b50505092915050565b611deb87878786156129ee57886129f6565b6129f6611df4565b88888888612609565b60606108fc8260405160200180826001600160a01b031660601b8152601401915050604051602081830303815290604052612a66565b600081511592915050565b6000600160301b8210611d4557600080611d42612bda565b600081518351149392505050565b60608082516002026002016001600160401b0381118015612a8f57600080612a8c612bda565b50505b50604051818152601f19601f8301168101602001604052908015612aba576020820181803683370190505b509050600360fc1b81600081518110612acf57fe5b60200101906001600160f81b031916908160001a905350600f60fb1b81600181518110612af857fe5b60200101906001600160f81b031916908160001a905350600260005b8451811015612bd15760006004868381518110612b2d57fe5b602001015160f81c901c60ff1690506000868381518110612b4a57fe5b602001015160f81c600f169050600a8204602702826030010160f81b858580600101965081518110612b7857fe5b60200101906001600160f81b031916908160001a905350600a8104602702816030010160f81b858580600101965081518110612bb057fe5b60200101906001600160f81b031916908160001a9053505050600101612b14565b50909392505050565b632a2a7adb598160e01b8152600481016020815285602082015260005b86811015612c12578086015182820160400152602001612bf7565b506020828760640184336000905af158600e01573d6000803e3d6000fd5b3d6001141558600a015760016000f35b505050565b6303daa959598160e01b8152836004820152602081602483336000905af158600e01573d6000803e3d6000fd5b3d6001141558600a015760016000f35b8051935060005b604081101561156557600082820152602001612c89565b6373509064598160e01b8152602081600483336000905af158600e01573d6000803e3d6000fd5b3d6001141558600a015760016000f35b80516000825293506020612c89565b638435035b598160e01b8152836004820152602081602483336000905af158600e01573d6000803e3d6000fd5b3d6001141558600a015760016000f35b80516000825293506020612c89565b6385979f76598160e01b8152612d63565b808083111561169e575090919050565b808083101561169e575090919050565b836004820152846024820152606060448201528760648201526084810160005b89811015612d9b578089015182820152602001612d83565b506060828a60a40184336000905af158600e01573d6000803e3d6000fd5b3d6001141558600a015760016000f35b815160408301513d6000853e8c8c82606087013350600060045af15059612df08e3d612d53565b8d01612dfc8187612d43565b5b82811015612e115760008152602001612dfd565b50929d50505050505050565b6322bd64c0598160e01b8152836004820152846024820152600081604483336000905af158600e01573d6000803e3d6000fd5b3d6001141558600a015760016000f35b600081526020612c89565b604051602081016040526000815290565b63bdbf8c36598160e01b8152602081600483336000905af158600e01573d6000803e3d6000fd5b3d6001141558600a015760016000f35b80516000825293506020612c89565b638540661f598160e01b8152836004820152846024820152606060448201528660648201526084810160005b88811015612f06578088015182820152602001612eee565b506060828960a40184336000905af158600e01573d6000803e3d6000fd5b3d6001141558600a015760016000f35b815160408301513d6000853e8b8b82606087013350600060045af15059612f5b8d3d612d53565b8c01612f678187612d43565b5b82811015612f7c5760008152602001612f68565b50929c50505050505050565b604051606081016040908152600080835260208301819052908201529056fe8be0079c531659141344cd1fd0a4f28419497f9722a3daafe3b4186f6b6457e0",
  "deployedBytecode": "0x608060405234801561001957600080610016612bda565b50505b50600436106102235760003560e01c8063117036d11461023157806314fd235a14610272578063151359b41461029a578063172886e7146102a257806317901de3146102e757806318160ddd1461032d57806322abd7b21461033557806322f3e2d41461033d57806323662bb91461035957806327a27433146103615780633b90b9bf146103965780633eed75c3146103c55780634187b7d6146103cd57806341d1de97146103f1578063544caa5614610417578063545e7c61146104725780635a6c72d0146104a95780635b16ebb7146104b15780635c975abb146104e0578063607c219f146104e8578063612a9f7614610517578063709893301461051f57806370a0823114610527578063715018a614610556578063865e45731461055e5780638d4241271461058d5780638da5cb5b14610595578063901754d71461059d5780639725ff35146105d457806399fca7d9146105fa578063a42dce8014610629578063ad33334814610658578063b0cb4b0a14610755578063b8ffca321461075d578063c415b95c14610765578063cf0b22701461076d578063d88ff1f414610775578063d8f4e0eb146107d0578063e7a7b5a0146107f6578063e859e56c146107fe578063e9f7e17b14610806578063edb7a6fa1461082c578063f2fde38b1461084c578063f38303351461087b578063fb20b7d014610883578063fc0e74d1146108b2575b60008061022e612bda565b50505b610260600480360360208110156102505760008061024d612bda565b50505b50356001600160a01b03166108ba565b60405190815260200160405180910390f35b610298600480360360208110156102915760008061028e612bda565b50505b5035610904565b005b6102986109a0565b6102aa610a17565b60405180858152602001848152602001836001600160a01b03168152602001826001600160a01b0316815260200194505050505060405180910390f35b6102ef610af8565b60405180846001600160681b03168152602001836001600160681b031681526020018265ffffffffffff168152602001935050505060405180910390f35b610260610b5d565b6102ef610b6d565b610345610bb8565b604051901515815260200160405180910390f35b610260610bc8565b610298600480360360408110156103805760008061037d612bda565b50505b506001600160a01b038135169060200135610be6565b610345600480360360208110156103b5576000806103b2612bda565b50505b50356001600160a01b0316610c43565b610298610c6a565b6103d5610ce6565b6040516001600160a01b03909116815260200160405180910390f35b6103d5600480360360208110156104105760008061040d612bda565b50505b5035610d0a565b61044e6004803603604081101561043657600080610433612bda565b50505b506001600160a01b0381358116916020013516610d47565b6040516001600160a01b039283168152911660208201526040908101905180910390f35b6103d5600480360360408110156104915760008061048e612bda565b50505b506001600160a01b0381358116916020013516610d7b565b61026061133d565b610345600480360360208110156104d0576000806104cd612bda565b50505b50356001600160a01b031661135b565b610345611375565b6102986004803603602081101561050757600080610504612bda565b50505b50356001600160a01b0316611392565b61029861143a565b6103d5611493565b6102606004803603602081101561054657600080610543612bda565b50505b50356001600160a01b031661149f565b6102986114bf565b6102606004803603602081101561057d5760008061057a612bda565b50505b50356001600160a01b031661156a565b61029861159b565b6103d5611617565b6103d5600480360360408110156105bc576000806105b9612bda565b50505b506001600160a01b0381358116916020013516611639565b610298600480360360208110156105f3576000806105f0612bda565b50505b50356116a4565b6102606004803603602081101561061957600080610616612bda565b50505b50356001600160a01b0316611739565b6102986004803603602081101561064857600080610645612bda565b50505b50356001600160a01b031661176a565b6102986004803603604081101561067757600080610674612bda565b50505b810190602081018135600160201b81111561069a57600080610697612bda565b50505b8201836020820111156106b5576000806106b2612bda565b50505b803590602001918460208302840111600160201b831117156106df576000806106dc612bda565b50505b919390929091602081019035600160201b81111561070557600080610702612bda565b50505b8201836020820111156107205760008061071d612bda565b50505b803590602001918460208302840111600160201b8311171561074a57600080610747612bda565b50505b509092509050611850565b6103d5611905565b6102ef611929565b6103d5611974565b6103d5611980565b61077d6119a4565b60405160208082528190810183818151815260200191508051906020019060200280838360005b838110156107bc5780820151838201526020016107a4565b505050509050019250505060405180910390f35b610298600480360360208110156107ef576000806107ec612bda565b50505b5035611a2b565b6102ef611aa2565b610260611aed565b6102986004803603602081101561082557600080610822612bda565b50505b5035611b0b565b610834611b83565b60405191825260208201526040908101905180910390f35b6102986004803603602081101561086b57600080610868612bda565b50505b50356001600160a01b0316611bc6565b610260611c96565b610260600480360360208110156108a25760008061089f612bda565b50505b50356001600160a01b0316611cb4565b610298611ced565b6001600160a01b0381166000908152600e6020526108fc67016345785d8a000060408320604051602081016040529081816108f3612c45565b90525090611d49565b90505b919050565b67016345785d8a00008111156109225760008061091f612bda565b50505b61099d5a61092e612ca0565b601260005a61093b612ca0565b6001600160a01b03166001600160a01b0316815260200190815260200160002060405160208101604052908181610970612c45565b90525061097c84611d66565b61098d5a610988612ca0565b61149f565b600f939291906000611d84611ddb565b50565b610a155a6109ac612ca0565b600660005a6109b9612ca0565b6001600160a01b03166001600160a01b03168152602001908152602001600020604051602081016040529081816109ee612c45565b9052506109f9611df4565b610a055a610988612ca0565b6003939291906000611e0f611ddb565b565b6000808080610a95600b604051606081016040529081600082610a38612c45565b6001600160681b036101009290920a9004168152602001600d82610a5a612c45565b6001600160681b036101009290920a9004168152602001601a82610a7c612c45565b65ffffffffffff6101009290920a900416905250611e66565b610ab1600f604051606081016040529081600082610a38612c45565b60006013610abd612c45565b906101000a90046001600160a01b03166014600090610ada612c45565b906101000a90046001600160a01b0316935093509350935090919293565b6000808080600b610b07612c45565b6001600160681b036101009290920a900416600d600b610b25612c45565b6001600160681b036101009290920a900416601a600b610b43612c45565b906101000a900465ffffffffffff16925092509250909192565b600080610b68612c45565b905090565b6000808080600f610b7c612c45565b6001600160681b036101009290920a900416600d600f610b9a612c45565b6001600160681b036101009290920a900416601a600f610b43612c45565b6000610bc2611375565b15905090565b6000610b686007604051606081016040529081600082610a38612c45565b7f00000000000000000000000000000000000000000000000000000000000000006001600160a01b03165a610c19612ca0565b6001600160a01b031614610c3557600080610c32612bda565b50505b610c3f8282611ef2565b5050565b601560205280600052604060002060009150610c5d612c45565b906101000a900460ff1681565b610a155a610c76612ca0565b600e60005a610c83612ca0565b6001600160a01b03166001600160a01b0316815260200190815260200160002060405160208101604052908181610cb8612c45565b905250610cc3611df4565b610ccf5a610988612ca0565b600b9392919067016345785d8a0000612034611ddb565b7f000000000000000000000000000000000000000000000000000000000000000081565b60168181610d16612c45565b8110610d1e57fe5b9060005260206000200160009150610d34612c45565b906101000a90046001600160a01b031681565b600080826001600160a01b0316846001600160a01b03161015610d6e575082905081610d74565b50819050825b9250929050565b6000816001600160a01b0316836001600160a01b03161415610da557600080610da2612bda565b50505b600080610db28585610d47565b6001600160a01b038216600090815260186020529193509150604081206001600160a01b038316600090815260209190915260409020600090610df3612c45565b906101000a90046001600160a01b03166001600160a01b031614610e1f57600080610e1c612bda565b50505b6060610e33836001600160a01b031661208b565b90506060610e49836001600160a01b031661208b565b90507f00000000000000000000000000000000000000000000000000000000000000006001600160a01b031663b92440b085858585604051602001808075062d2dcc6d04098d2e2ead2c8d2e8f240a0deded840560531b81525060160183805190602001908083835b60208310610ed15780518252601f199092019160209182019101610eb2565b6001836020036101000a03801982511681845116179092525050602d60f81b93909101928352505060010182805190602001908083835b60208310610f275780518252601f199092019160209182019101610f08565b6001836020036101000a03801982511681845116179092525050602960f81b93909101928352505060010192506040915050516020818303038152906040528686604051602001808063314c502d60e01b81525060040183805190602001908083835b60208310610fa95780518252601f199092019160209182019101610f8a565b6001836020036101000a03801982511681845116179092525050602d60f81b93909101928352505060010182805190602001908083835b60208310610fff5780518252601f199092019160209182019101610fe0565b6001836020036101000a0380198251168184511617909252505050919091019350604092505050516020818303038152906040527f00000000000000000000000000000000000000000000000000000000000000006040518663ffffffff1660e01b815260040180866001600160a01b03168152602001856001600160a01b031681526020018060200180602001846001600160a01b03168152602001838103835286818151815260200191508051906020019080838360005b838110156110d15780820151838201526020016110b9565b50505050905090810190601f1680156110fe5780820380516001836020036101000a031916815260200191505b50838103825285818151815260200191508051906020019080838360005b8381101561113457808201518382015260200161111c565b50505050905090810190601f1680156111615780820380516001836020036101000a031916815260200191505b5097505050505050505060206040518083038160008780611180612ce6565b15801561119557600080611192612bda565b50505b505a61119f612d32565b5050505050501580156111bf573d6000803e3d60006111bc612bda565b50505b505050506040513d60208110156111de576000806111db612bda565b50505b8101908080516001600160a01b03881660009081526018602052909850889350604092509050206001600160a01b038516600090815260209190915260409020600181611229612c45565b816001600160a01b0302191690836001600160a01b031602179061124b612e1d565b505050601685908060018161125e612c45565b018082611269612e1d565b505060009283526000190191602091502001600181611286612c45565b816001600160a01b0302191690836001600160a01b03160217906112a8612e1d565b5050506001600160a01b03851660009081526017602052600190604090206001816112d1612c45565b8160ff021916908315150217906112e6612e1d565b505050826001600160a01b0316846001600160a01b0316866001600160a01b03167fc95935a66d15e0da5e412aca0ad27ae891d20b2fb91cf3994b6a3bf2b817808260405160405180910390a45050505092915050565b6000610b686003604051606081016040529081600082610a38612c45565b601760205280600052604060002060009150610c5d612c45565b600060146002611383612c45565b906101000a900460ff16905090565b61139a61251c565b6001600160a01b03166113ab611617565b6001600160a01b0316146113c7576000806113c4612bda565b50505b8060136001816113d5612c45565b816001600160a01b0302191690836001600160a01b03160217906113f7612e1d565b5050507fe348b7d1d8572de16c7301317890112a52bd7f6c3b713bd7d70e4cffb489ed9f816040516001600160a01b03909116815260200160405180910390a150565b610a155a611446612ca0565b601260005a611453612ca0565b6001600160a01b03166001600160a01b0316815260200190815260200160002060405160208101604052908181611488612c45565b90525061097c611df4565b60006013610d34612c45565b6001600160a01b03811660009081526001602052604081206108fc612c45565b6114c761251c565b6001600160a01b03166114d8611617565b6001600160a01b0316146114f4576000806114f1612bda565b50505b6000806002611501612c45565b906101000a90046001600160a01b03166001600160a01b0316600080516020612fa883398151915260405160405180910390a360006002600181611543612c45565b816001600160a01b0302191690836001600160a01b0316021790611565612e1d565b505050565b6001600160a01b038116600090815260126020526108fc8160408120604051602081016040529081816108f3612c45565b610a155a6115a7612ca0565b600a60005a6115b4612ca0565b6001600160a01b03166001600160a01b03168152602001908152602001600020604051602081016040529081816115e9612c45565b9052506115f4611df4565b6116005a610988612ca0565b600793929190670de0b6b3a7640000612527611ddb565b6000806002611624612c45565b906101000a90046001600160a01b0316905090565b60008060006116488585610d47565b6001600160a01b038216600090815260186020529193509150604090206001600160a01b038216600090815260209190915260409020600090611689612c45565b906101000a90046001600160a01b0316925050505b92915050565b67016345785d8a00008111156116c2576000806116bf612bda565b50505b66b1a2bc2ec500008110156116df576000806116dc612bda565b50505b61099d5a6116eb612ca0565b600e60005a6116f8612ca0565b6001600160a01b03166001600160a01b031681526020019081526020016000206040516020810160405290818161172d612c45565b905250610cc384611d66565b6001600160a01b038116600090815260066020526108fc8160408120604051602081016040529081816108f3612c45565b61177261251c565b6001600160a01b0316611783611617565b6001600160a01b03161461179f5760008061179c612bda565b50505b8060146001816117ad612c45565b816001600160a01b0302191690836001600160a01b03160217906117cf612e1d565b5050506001600160a01b03811660009081526015602052600190604090206001816117f8612c45565b8160ff0219169083151502179061180d612e1d565b5050507ffa7dc4914c53d1cee4cf31f857b016d55f8c6d28d5f950e64c7258a4fa18de19816040516001600160a01b03909116815260200160405180910390a150565b7f00000000000000000000000000000000000000000000000000000000000000006001600160a01b03165a611883612ca0565b6001600160a01b03161461189f5760008061189c612bda565b50505b8281146118b4576000806118b1612bda565b50505b60005b838110156118fe576118f68585838181106118ce57fe5b905060200201356001600160a01b03168484848181106118ea57fe5b90506020020135611ef2565b6001016118b7565b5050505050565b7f000000000000000000000000000000000000000000000000000000000000000081565b60008080806007611938612c45565b6001600160681b036101009290920a900416600d6007611956612c45565b6001600160681b036101009290920a900416601a6007610b43612c45565b60006014610d34612c45565b7f000000000000000000000000000000000000000000000000000000000000000081565b60606016806119b1612c45565b8060200260200160405190810160405281815291906020830182806119d4612c45565b8015611a2157602002820191906000526020600020905b6000826119f6612c45565b906101000a90046001600160a01b03166001600160a01b0316815260200190600101908083116119eb575b5050505050905090565b662386f26fc10000811115611a4857600080611a45612bda565b50505b61099d5a611a54612ca0565b600660005a611a61612ca0565b6001600160a01b03166001600160a01b0316815260200190815260200160002060405160208101604052908181611a96612c45565b9052506109f984611d66565b60008080806003611ab1612c45565b6001600160681b036101009290920a900416600d6003611acf612c45565b6001600160681b036101009290920a900416601a6003610b43612c45565b6000610b68600b604051606081016040529081600082610a38612c45565b670de0b6b3a7640000811115611b2957600080611b26612bda565b50505b61099d5a611b35612ca0565b600a60005a611b42612ca0565b6001600160a01b03166001600160a01b0316815260200190815260200160002060405160208101604052908181611b77612c45565b9052506115f484611d66565b600080611ba26003604051606081016040529081600082610a38612c45565b611bbe6007604051606081016040529081600082610a38612c45565b915091509091565b611bce61251c565b6001600160a01b0316611bdf611617565b6001600160a01b031614611bfb57600080611bf8612bda565b50505b6001600160a01b038116611c1757600080611c14612bda565b50505b6001600160a01b03811660006002611c2d612c45565b906101000a90046001600160a01b03166001600160a01b0316600080516020612fa883398151915260405160405180910390a3806002600181611c6e612c45565b816001600160a01b0302191690836001600160a01b0316021790611c90612e1d565b50505050565b6000610b68600f604051606081016040529081600082610a38612c45565b6001600160a01b0381166000908152600a6020526108fc670de0b6b3a764000060408320604051602081016040529081816108f3612c45565b611cf561251c565b6001600160a01b0316611d06611617565b6001600160a01b031614611d2257600080611d1f612bda565b50505b610a1561257e565b6000600160681b8210611d4557600080611d42612bda565b50505b5090565b60008083511115611d60576001835103905061169e565b50919050565b611d6e612e6b565b6040516020810160405260019290920182525090565b836001600160a01b03167f02540a8a88261967ef1c1a4ed50fde9f0a0a493922c069129e21961198e1b43984848460405192835290151560208301526040808301919091526060909101905180910390a250505050565b611deb8787878787888888612609565b50505050505050565b611dfc612e6b565b6040516020810160405260008152905090565b836001600160a01b03167f28eed64d01e23014333abef902958309592b3cf9ce9da390f224467cfcaaf5b284848460405192835290151560208301526040808301919091526060909101905180910390a250505050565b600080611e9462015180611e8f856040015165ffffffffffff165a611e89612e7c565b906128ba565b6128d8565b90506000611ea562015180836128ba565b9050611eea62015180611ee4611ec98588602001516001600160681b0316906128f0565b611ede8589516001600160681b0316906128f0565b90612926565b9061293e565b949350505050565b6000611efe8383612966565b905080821415611f0e5750610c3f565b6001600160a01b03831660009081526006602052611f549084906040902060405160208101604052908181611f41612c45565b9052506003919084866000611e0f6129dc565b6001600160a01b0383166000908152600a602052611fa19084906040902060405160208101604052908181611f87612c45565b905250600791908486670de0b6b3a76400006125276129dc565b6001600160a01b0383166000908152600e602052611fee9084906040902060405160208101604052908181611fd4612c45565b905250600b9190848667016345785d8a00006120346129dc565b6001600160a01b038316600090815260126020526115659084906040902060405160208101604052908181612021612c45565b905250600f919084866000611d846129dc565b836001600160a01b03167ffa67c3ef5d30b2838a61d783cb71a076e17984d05840f2dfa1521135df49557b84848460405192835290151560208301526040808301919091526060909101905180910390a250505050565b60606001600160a01b0382166120a9576000806120a6612bda565b50505b60006060836001600160a01b0316614e20604051602401604051601f198183030181526040919091526395d89b4160e01b6020820180516001600160e01b031690911790526040518082805190602001908083835b6020831061211d5780518252601f1990920191602091820191016120fe565b6001836020036101000a0380198251168184511680821785525050505050509050019150506000604051808303818686612155612ec2565b5050505050925050503d806000811461218a576040513d603f01601f191681016040523d815291503d6000602084013e61218f565b606091505b50915091508161228257836001600160a01b0316614e20604051602401604051601f19818303018152604091909152631eedf1af60e31b6020820180516001600160e01b031690911790526040518082805190602001908083835b602083106122095780518252601f1990920191602091820191016121ea565b6001836020036101000a0380198251168184511680821785525050505050509050019150506000604051808303818686612241612ec2565b5050505050925050503d8060008114612276576040513d603f01601f191681016040523d815291503d6000602084013e61227b565b606091505b5090925090505b81801561229157506060815110155b156123e45760008060208301835160408110156122b6576000806122b3612bda565b50505b8101908080519291906020018051939550929350505060208314905080156122de5750600081115b80156122ec57506101008111155b156123e157602083018351602081101561230e5760008061230b612bda565b50505b8101908080516040519392919084600160201b82111561233657600080612333612bda565b50505b90830190602082018581111561235457600080612351612bda565b50505b8251600160201b81118282018810171561237657600080612373612bda565b50505b825250602001908051906020019080838360005b838110156123a257808201518382015260200161238a565b50505050905090810190601f1680156123cf5780820380516001836020036101000a031916815260200191505b506040525050509450505050506108ff565b50505b8180156123f2575080516020145b156125135760005b8151811080156124285750600160fd1b82828151811061241657fe5b60200101516001600160f81b03191610155b80156124525750603f60f91b82828151811061244057fe5b60200101516001600160f81b03191611155b1561245f576001016123fa565b8015612511576060816001600160401b038111801561248657600080612483612bda565b50505b50604051818152601f19601f83011681016020016040529080156124b1576020820181803683370190505b50905060005b82811015612505578381815181106124cb57fe5b60200101516001600160f81b0319168282815181106124e657fe5b60200101906001600160f81b031916908160001a9053506001016124b7565b5093506108ff92505050565b505b611eea846129ff565b60005a610b68612ca0565b836001600160a01b03167f214419d1bacc9564ca0fcf6552dad3ec0aa54c97de900de89dc202e6bbd9198a84848460405192835290151560208301526040808301919091526060909101905180910390a250505050565b612586611375565b1561259957600080612596612bda565b50505b60016002600160a01b816125ab612c45565b8160ff021916908315150217906125c0612e1d565b5050507f62e78cea01bee320cd4e420270b5ea74000d11b0c9f74754ebdbfc544b05a2586125ec61251c565b6040516001600160a01b03909116815260200160405180910390a1565b600088600101612617612c45565b905080600060028b01612628612c45565b9050806126348a612a35565b6126655761265661264f6126488c89611d49565b8a906128f0565b84906128ba565b925061266281896128ba565b90505b61266e89612a35565b61269f576126906126896126828b89611d49565b89906128f0565b8490612926565b925061269c8188612926565b90505b8383146126b857828060018e016126b4612e1d565b5050505b8181146126d157808060028e016126cd612e1d565b5050505b600081156126e8576126e3848361293e565b6126ea565b865b90506126f4612f88565b8d60405160608101604052908160008261270c612c45565b6001600160681b036101009290920a9004168152602001600d8261272e612c45565b6001600160681b036101009290920a9004168152602001601a82612750612c45565b65ffffffffffff6101009290920a900416905250905060208101516001600160681b0316821461284e578d61278c61278783611e66565b611d2a565b61279584611d2a565b6127a65a6127a1612e7c565b612a40565b83600081600d8482600160d01b816127bc612c45565b8165ffffffffffff021916908365ffffffffffff160217906127dc612e1d565b5050508591906101000a816127ef612c45565b816001600160681b0302191690836001600160681b0316021790612811612e1d565b5050508491906101000a81612824612c45565b816001600160681b0302191690836001600160681b0316021790612846612e1d565b505050505050505b5061285b9050898b612a58565b61288b576001600160a01b038b16600090815260038d01602052899060409020815181612886612e1d565b505050505b6128ac8b6128998b89611d49565b6128a28c612a35565b8a8963ffffffff16565b505050505050505050505050565b6000828211156128d2576000806128cf612bda565b50505b50900390565b60008183106128e757816128e9565b825b9392505050565b6000826128ff5750600061169e565b8282028284828161290c57fe5b04146128e95760008061291d612bda565b50509392505050565b6000828201838110156128e95760008061291d612bda565b600080821161295557600080612952612bda565b50505b81838161295e57fe5b049392505050565b6001600160a01b0382166000908152600160205260408120612986612c45565b905081811461169e576001600160a01b0383166000908152600160205282906040902081906129b3612e1d565b5050506129c881611e89846000611ede612c45565b8060006129d3612e1d565b50505092915050565b611deb87878786156129ee57886129f6565b6129f6611df4565b88888888612609565b60606108fc8260405160200180826001600160a01b031660601b8152601401915050604051602081830303815290604052612a66565b600081511592915050565b6000600160301b8210611d4557600080611d42612bda565b600081518351149392505050565b60608082516002026002016001600160401b0381118015612a8f57600080612a8c612bda565b50505b50604051818152601f19601f8301168101602001604052908015612aba576020820181803683370190505b509050600360fc1b81600081518110612acf57fe5b60200101906001600160f81b031916908160001a905350600f60fb1b81600181518110612af857fe5b60200101906001600160f81b031916908160001a905350600260005b8451811015612bd15760006004868381518110612b2d57fe5b602001015160f81c901c60ff1690506000868381518110612b4a57fe5b602001015160f81c600f169050600a8204602702826030010160f81b858580600101965081518110612b7857fe5b60200101906001600160f81b031916908160001a905350600a8104602702816030010160f81b858580600101965081518110612bb057fe5b60200101906001600160f81b031916908160001a9053505050600101612b14565b50909392505050565b632a2a7adb598160e01b8152600481016020815285602082015260005b86811015612c12578086015182820160400152602001612bf7565b506020828760640184336000905af158601d01573d60011458600c01573d6000803e3d621234565260ea61109c52505050565b6303daa959598160e01b8152836004820152602081602483336000905af158601d01573d60011458600c01573d6000803e3d621234565260ea61109c528051935060005b604081101561156557600082820152602001612c89565b6373509064598160e01b8152602081600483336000905af158601d01573d60011458600c01573d6000803e3d621234565260ea61109c5280516000825293506020612c89565b638435035b598160e01b8152836004820152602081602483336000905af158601d01573d60011458600c01573d6000803e3d621234565260ea61109c5280516000825293506020612c89565b6385979f76598160e01b8152612d63565b808083111561169e575090919050565b808083101561169e575090919050565b836004820152846024820152606060448201528760648201526084810160005b89811015612d9b578089015182820152602001612d83565b506060828a60a40184336000905af158601d01573d60011458600c01573d6000803e3d621234565260ea61109c52815160408301513d6000853e8c8c82606087013350600060045af15059612df08e3d612d53565b8d01612dfc8187612d43565b5b82811015612e115760008152602001612dfd565b50929d50505050505050565b6322bd64c0598160e01b8152836004820152846024820152600081604483336000905af158601d01573d60011458600c01573d6000803e3d621234565260ea61109c52600081526020612c89565b604051602081016040526000815290565b63bdbf8c36598160e01b8152602081600483336000905af158601d01573d60011458600c01573d6000803e3d621234565260ea61109c5280516000825293506020612c89565b638540661f598160e01b8152836004820152846024820152606060448201528660648201526084810160005b88811015612f06578088015182820152602001612eee565b506060828960a40184336000905af158601d01573d60011458600c01573d6000803e3d621234565260ea61109c52815160408301513d6000853e8b8b82606087013350600060045af15059612f5b8d3d612d53565b8c01612f678187612d43565b5b82811015612f7c5760008152602001612f68565b50929c50505050505050565b604051606081016040908152600080835260208301819052908201529056fe8be0079c531659141344cd1fd0a4f28419497f9722a3daafe3b4186f6b6457e0",
  "devdoc": {
    "kind": "dev",
    "methods": {
      "owner()": {
        "details": "Returns the address of the current owner."
      },
      "paused()": {
        "details": "Returns true if the contract is paused, and false otherwise."
      },
      "renounceOwnership()": {
        "details": "Leaves the contract without owner. It will not be possible to call `onlyOwner` functions anymore. Can only be called by the current owner. NOTE: Renouncing ownership will leave the contract without an owner, thereby removing any functionality that is only available to the owner."
      },
      "transferOwnership(address)": {
        "details": "Transfers ownership of the contract to a new account (`newOwner`). Can only be called by the current owner."
      }
    },
    "version": 1
  },
  "userdoc": {
    "kind": "user",
    "methods": {},
    "version": 1
  },
  "storageLayout": {
    "storage": [
      {
        "astId": 8884,
        "contract": "contracts/MooniswapFactory.sol:MooniswapFactory",
        "label": "_totalSupply",
        "offset": 0,
        "slot": "0",
        "type": "t_uint256"
      },
      {
        "astId": 8888,
        "contract": "contracts/MooniswapFactory.sol:MooniswapFactory",
        "label": "_balances",
        "offset": 0,
        "slot": "1",
        "type": "t_mapping(t_address,t_uint256)"
      },
      {
        "astId": 7,
        "contract": "contracts/MooniswapFactory.sol:MooniswapFactory",
        "label": "_owner",
        "offset": 0,
        "slot": "2",
        "type": "t_address"
      },
      {
        "astId": 1159,
        "contract": "contracts/MooniswapFactory.sol:MooniswapFactory",
        "label": "_paused",
        "offset": 20,
        "slot": "2",
        "type": "t_bool"
      },
      {
        "astId": 4403,
        "contract": "contracts/MooniswapFactory.sol:MooniswapFactory",
        "label": "_defaultFee",
        "offset": 0,
        "slot": "3",
        "type": "t_struct(Data)6807_storage"
      },
      {
        "astId": 4405,
        "contract": "contracts/MooniswapFactory.sol:MooniswapFactory",
        "label": "_defaultSlippageFee",
        "offset": 0,
        "slot": "7",
        "type": "t_struct(Data)6807_storage"
      },
      {
        "astId": 4407,
        "contract": "contracts/MooniswapFactory.sol:MooniswapFactory",
        "label": "_referralShare",
        "offset": 0,
        "slot": "11",
        "type": "t_struct(Data)6807_storage"
      },
      {
        "astId": 4409,
        "contract": "contracts/MooniswapFactory.sol:MooniswapFactory",
        "label": "_governanceShare",
        "offset": 0,
        "slot": "15",
        "type": "t_struct(Data)6807_storage"
      },
      {
        "astId": 4412,
        "contract": "contracts/MooniswapFactory.sol:MooniswapFactory",
        "label": "governanceWallet",
        "offset": 0,
        "slot": "19",
        "type": "t_address"
      },
      {
        "astId": 4415,
        "contract": "contracts/MooniswapFactory.sol:MooniswapFactory",
        "label": "feeCollector",
        "offset": 0,
        "slot": "20",
        "type": "t_address"
      },
      {
        "astId": 4420,
        "contract": "contracts/MooniswapFactory.sol:MooniswapFactory",
        "label": "isFeeCollector",
        "offset": 0,
        "slot": "21",
        "type": "t_mapping(t_address,t_bool)"
      },
      {
        "astId": 2913,
        "contract": "contracts/MooniswapFactory.sol:MooniswapFactory",
        "label": "allPools",
        "offset": 0,
        "slot": "22",
        "type": "t_array(t_contract(Mooniswap)2844)dyn_storage"
      },
      {
        "astId": 2918,
        "contract": "contracts/MooniswapFactory.sol:MooniswapFactory",
        "label": "isPool",
        "offset": 0,
        "slot": "23",
        "type": "t_mapping(t_contract(Mooniswap)2844,t_bool)"
      },
      {
        "astId": 2924,
        "contract": "contracts/MooniswapFactory.sol:MooniswapFactory",
        "label": "_pools",
        "offset": 0,
        "slot": "24",
        "type": "t_mapping(t_contract(IERC20)1118,t_mapping(t_contract(IERC20)1118,t_contract(Mooniswap)2844))"
      }
    ],
    "types": {
      "t_address": {
        "encoding": "inplace",
        "label": "address",
        "numberOfBytes": "20"
      },
      "t_array(t_contract(Mooniswap)2844)dyn_storage": {
        "base": "t_contract(Mooniswap)2844",
        "encoding": "dynamic_array",
        "label": "contract Mooniswap[]",
        "numberOfBytes": "32"
      },
      "t_bool": {
        "encoding": "inplace",
        "label": "bool",
        "numberOfBytes": "1"
      },
      "t_contract(IERC20)1118": {
        "encoding": "inplace",
        "label": "contract IERC20",
        "numberOfBytes": "20"
      },
      "t_contract(Mooniswap)2844": {
        "encoding": "inplace",
        "label": "contract Mooniswap",
        "numberOfBytes": "20"
      },
      "t_mapping(t_address,t_bool)": {
        "encoding": "mapping",
        "key": "t_address",
        "label": "mapping(address => bool)",
        "numberOfBytes": "32",
        "value": "t_bool"
      },
      "t_mapping(t_address,t_struct(Data)8391_storage)": {
        "encoding": "mapping",
        "key": "t_address",
        "label": "mapping(address => struct Vote.Data)",
        "numberOfBytes": "32",
        "value": "t_struct(Data)8391_storage"
      },
      "t_mapping(t_address,t_uint256)": {
        "encoding": "mapping",
        "key": "t_address",
        "label": "mapping(address => uint256)",
        "numberOfBytes": "32",
        "value": "t_uint256"
      },
      "t_mapping(t_contract(IERC20)1118,t_contract(Mooniswap)2844)": {
        "encoding": "mapping",
        "key": "t_contract(IERC20)1118",
        "label": "mapping(contract IERC20 => contract Mooniswap)",
        "numberOfBytes": "32",
        "value": "t_contract(Mooniswap)2844"
      },
      "t_mapping(t_contract(IERC20)1118,t_mapping(t_contract(IERC20)1118,t_contract(Mooniswap)2844))": {
        "encoding": "mapping",
        "key": "t_contract(IERC20)1118",
        "label": "mapping(contract IERC20 => mapping(contract IERC20 => contract Mooniswap))",
        "numberOfBytes": "32",
        "value": "t_mapping(t_contract(IERC20)1118,t_contract(Mooniswap)2844)"
      },
      "t_mapping(t_contract(Mooniswap)2844,t_bool)": {
        "encoding": "mapping",
        "key": "t_contract(Mooniswap)2844",
        "label": "mapping(contract Mooniswap => bool)",
        "numberOfBytes": "32",
        "value": "t_bool"
      },
      "t_struct(Data)6807_storage": {
        "encoding": "inplace",
        "label": "struct ExplicitLiquidVoting.Data",
        "members": [
          {
            "astId": 6798,
            "contract": "contracts/MooniswapFactory.sol:MooniswapFactory",
            "label": "data",
            "offset": 0,
            "slot": "0",
            "type": "t_struct(Data)8335_storage"
          },
          {
            "astId": 6800,
            "contract": "contracts/MooniswapFactory.sol:MooniswapFactory",
            "label": "_weightedSum",
            "offset": 0,
            "slot": "1",
            "type": "t_uint256"
          },
          {
            "astId": 6802,
            "contract": "contracts/MooniswapFactory.sol:MooniswapFactory",
            "label": "_votedSupply",
            "offset": 0,
            "slot": "2",
            "type": "t_uint256"
          },
          {
            "astId": 6806,
            "contract": "contracts/MooniswapFactory.sol:MooniswapFactory",
            "label": "votes",
            "offset": 0,
            "slot": "3",
            "type": "t_mapping(t_address,t_struct(Data)8391_storage)"
          }
        ],
        "numberOfBytes": "128"
      },
      "t_struct(Data)8335_storage": {
        "encoding": "inplace",
        "label": "struct VirtualVote.Data",
        "members": [
          {
            "astId": 8330,
            "contract": "contracts/MooniswapFactory.sol:MooniswapFactory",
            "label": "oldResult",
            "offset": 0,
            "slot": "0",
            "type": "t_uint104"
          },
          {
            "astId": 8332,
            "contract": "contracts/MooniswapFactory.sol:MooniswapFactory",
            "label": "result",
            "offset": 13,
            "slot": "0",
            "type": "t_uint104"
          },
          {
            "astId": 8334,
            "contract": "contracts/MooniswapFactory.sol:MooniswapFactory",
            "label": "time",
            "offset": 26,
            "slot": "0",
            "type": "t_uint48"
          }
        ],
        "numberOfBytes": "32"
      },
      "t_struct(Data)8391_storage": {
        "encoding": "inplace",
        "label": "struct Vote.Data",
        "members": [
          {
            "astId": 8390,
            "contract": "contracts/MooniswapFactory.sol:MooniswapFactory",
            "label": "value",
            "offset": 0,
            "slot": "0",
            "type": "t_uint256"
          }
        ],
        "numberOfBytes": "32"
      },
      "t_uint104": {
        "encoding": "inplace",
        "label": "uint104",
        "numberOfBytes": "13"
      },
      "t_uint256": {
        "encoding": "inplace",
        "label": "uint256",
        "numberOfBytes": "32"
      },
      "t_uint48": {
        "encoding": "inplace",
        "label": "uint48",
        "numberOfBytes": "6"
      }
    }
  }
}