{
  "address": "0x8b01d28F4fDDD89322711d832325f7eB1f122FB2",
  "abi": [
    {
      "inputs": [
        {
          "internalType": "contract IERC20",
          "name": "token1",
          "type": "address"
        },
        {
          "internalType": "contract IERC20",
          "name": "token2",
          "type": "address"
        },
        {
          "internalType": "string",
          "name": "name",
          "type": "string"
        },
        {
          "internalType": "string",
          "name": "symbol",
          "type": "string"
        },
        {
          "internalType": "address",
          "name": "poolOwner",
          "type": "address"
        }
      ],
      "name": "deploy",
      "outputs": [
        {
          "internalType": "contract Mooniswap",
          "name": "pool",
          "type": "address"
        }
      ],
      "stateMutability": "nonpayable",
      "type": "function"
    }
  ],
  "transactionHash": "0x80672af03bfb4c70bd5d9a24aa6c661d914699b9f5d8471b4624980b77af37ae",
  "args": [],
  "solcInputHash": "c40ed9d6ab9534012d51b8ac2455af37",
  "bytecode": "0x60806040523480156100195760008061001661001f565b50505b5061008a565b632a2a7adb598160e01b8152600481016020815285602082015260005b8681101561005757808601518282016040015260200161003c565b506020828760640184336000905af158600e01573d6000803e3d6000fd5b3d6001141558600a015760016000f35b505050565b615de6806100996000396000f3fe60806040523480156200001c57600080620000196200030f565b50505b5060043610620000395760003560e01c8063b92440b01462000049575b600080620000466200030f565b50505b6200017f600480360360a08110156200006c57600080620000696200030f565b50505b6001600160a01b038235811692602081013590911691810190606081016040820135600160201b811115620000ab57600080620000a86200030f565b50505b820183602082011115620000c957600080620000c66200030f565b50505b803590602001918460018302840111600160201b83111715620000f657600080620000f36200030f565b50505b919390929091602081019035600160201b8111156200011f576000806200011c6200030f565b50505b8201836020820111156200013d576000806200013a6200030f565b50505b803590602001918460018302840111600160201b831117156200016a57600080620001676200030f565b50505b9193509150356001600160a01b03166200019b565b6040516001600160a01b03909116815260200160405180910390f35b60008787878787875a620001ae6200037c565b604051620001bc90620003d8565b6001600160a01b03808916825287811660208301528216608082015260a0604082018181529082018690526060820160c08301888880828437600083820152601f01601f191690910184810383528681526020019050868680828437600083820152601f01601f19169091019a50604099505050505050505050505180910390600062000248620003e6565b50508015801562000268573d6000803e3d6000620002656200030f565b50505b509050806001600160a01b031663f2fde38b836040516001600160e01b031960e084901b1681526001600160a01b03909116600482015260240160006040518083038160008780620002b962000472565b158015620002d157600080620002ce6200030f565b50505b505a620002dd620004bf565b50505050505015801562000300573d6000803e3d6000620002fd6200030f565b50505b50505050979650505050505050565b632a2a7adb598160e01b8152600481016020815285602082015260005b86811015620003495780860151828201604001526020016200032c565b506020828760640184336000905af158600e01573d6000803e3d6000fd5b3d6001141558600a015760016000f35b505050565b6373509064598160e01b8152602081600483336000905af158600e01573d6000803e3d6000fd5b3d6001141558600a015760016000f35b8051935060005b6040811015620003d357600082820152602001620003ba565b505050565b61582e80620005b883390190565b6314aa2ff7598160e01b8152600481016020815286602082015260005b878110156200042057808701518282016040015260200162000403565b506020828860640184336000905af158600e01573d6000803e3d6000fd5b3d6001141558600a015760016000f35b8151965059825b818110156200046b576000815260200162000455565b5050505050565b638435035b598160e01b8152836004820152602081602483336000905af158600e01573d6000803e3d6000fd5b3d6001141558600a015760016000f35b80516000825293506020620003ba565b6385979f76598160e01b8152620004f5565b8080831115620004de5750815b92915050565b8080831015620004de575090919050565b836004820152846024820152606060448201528760648201526084810160005b898110156200052f57808901518282015260200162000515565b506060828a60a40184336000905af158600e01573d6000803e3d6000fd5b3d6001141558600a015760016000f35b815160408301513d6000853e8c8c82606087013350600060045af15059620005868e3d620004e4565b8d01620005948187620004d1565b5b82811015620005ab576000815260200162000595565b50929d5050505050505056fe60c06040523480156200001c57600080620000196200055c565b50505b506040516200582e3803806200582e833981810160405260a08110156200004d576000806200004a6200055c565b50505b8101908080519291906020018051929190602001805160405193929190846401000000008211156200008957600080620000866200055c565b50505b908301906020820185811115620000aa57600080620000a76200055c565b50505b8251640100000000811182820188101715620000d057600080620000cd6200055c565b50505b825250602001908051906020019080838360005b83811015620000fe578082015183820152602001620000e4565b50505050905090810190601f1680156200012c5780820380516001836020036101000a031916815260200191505b50604052602001805160405193929190846401000000008211156200015b57600080620001586200055c565b50505b9083019060208201858111156200017c57600080620001796200055c565b50505b8251640100000000811182820188101715620001a2576000806200019f6200055c565b50505b825250602001908051906020019080838360005b83811015620001d0578082015183820152602001620001b6565b50505050905090810190601f168015620001fe5780820380516001836020036101000a031916815260200191505b506040526020018051925082915084905083600382805162000225929160200190620005c9565b5060048180516200023b929160200190620005c9565b50601260056001816200024d62000674565b8160ff021916908360ff1602179062000265620006d6565b505050505060006200027c6200052860201b60201c565b9050806005610100816200028f62000674565b816001600160a01b0302191690836001600160a01b0316021790620002b3620006d6565b5050506001600160a01b03811660007f8be0079c531659141344cd1fd0a4f28419497f9722a3daafe3b4186f6b6457e060405160405180910390a3506001806006620002fe620006d6565b50505080600760006101000a816200031562000674565b816001600160a01b0302191690836001600160a01b031602179062000339620006d6565b505050620003fa816001600160a01b0316635a6c72d06040518163ffffffff1660e01b815260040160206040518083038186806200037662000725565b1580156200038e576000806200038b6200055c565b50505b505a6200039a62000772565b5050505050158015620003bc573d6000803e3d6000620003b96200055c565b50505b505050506040513d6020811015620003de57600080620003db6200055c565b50505b810190808051925050506200053a602090811b62002cc317901c565b6008600160681b816200040c62000674565b816001600160681b0302191690836001600160681b031602179062000430620006d6565b5050506200046d816001600160a01b03166323662bb96040518163ffffffff1660e01b815260040160206040518083038186806200037662000725565b600c600160681b816200047f62000674565b816001600160681b0302191690836001600160681b0316021790620004a3620006d6565b505050506000835111620004c157600080620004be6200055c565b50505b6000825111620004db57600080620004d86200055c565b50505b836001600160a01b0316856001600160a01b031614156200050657600080620005036200055c565b50505b5050506001600160601b0319606092831b8116608052911b1660a052620008d4565b60005a620005356200086a565b905090565b6000600160681b82106200055857600080620005556200055c565b50505b5090565b632a2a7adb598160e01b8152600481016020815285602082015260005b868110156200059657808601518282016040015260200162000579565b506020828760640184336000905af158600e01573d6000803e3d6000fd5b3d6001141558600a015760016000f35b505050565b8280620005d562000674565b600181600116156101000203166002900490600052602060002090601f016020900481019282601f106200062057805160ff1916838001178562000618620006d6565b505062000666565b8280016001018562000631620006d6565b5050821562000666579182015b82811115620006665782518262000654620006d6565b5050916020019190600101906200063e565b5062000558929150620008b1565b6303daa959598160e01b8152836004820152602081602483336000905af158600e01573d6000803e3d6000fd5b3d6001141558600a015760016000f35b8051935060005b6040811015620006d157600082820152602001620006b8565b505050565b6322bd64c0598160e01b8152836004820152846024820152600081604483336000905af158600e01573d6000803e3d6000fd5b3d6001141558600a015760016000f35b600081526020620006b8565b638435035b598160e01b8152836004820152602081602483336000905af158600e01573d6000803e3d6000fd5b3d6001141558600a015760016000f35b80516000825293506020620006b8565b638540661f598160e01b8152620007a8565b8080831115620007915750815b92915050565b808083101562000791575090919050565b836004820152846024820152606060448201528660648201526084810160005b88811015620007e2578088015182820152602001620007c8565b506060828960a40184336000905af158600e01573d6000803e3d6000fd5b3d6001141558600a015760016000f35b815160408301513d6000853e8b8b82606087013350600060045af15059620008398d3d62000797565b8c0162000847818762000784565b5b828110156200085e576000815260200162000848565b50929c50505050505050565b6373509064598160e01b8152602081600483336000905af158600e01573d6000803e3d6000fd5b3d6001141558600a015760016000f35b80516000825293506020620006b8565b80821115620005585760008082620008c8620006d6565b505050600101620008b1565b60805160601c60a05160601c614efe62000930600039806111f45280611504528061192c528061218952806123e75280612f02525080610da052806111cf52806114d45280611907528061213b5280612ec55250614efe6000f3fe6080604052348015610019576000806100166149e6565b50505b50600436106101ec5760003560e01c806306fdde03146101fa57806307a8007014610279578063095ea7b3146102a15780630dfe1681146102ea57806311212d661461030e57806318160ddd146103345780631e1401f81461034e57806323b872dd1461038d57806323e8cae1146103cc5780633049105d14610412578063313ce567146104dc5780633732b394146104fa57806339509351146105025780633c6216a6146105375780634f64b2be146106465780635915d8061461066c5780635ed9156d146107385780636669302a146107905780636edc2c091461079857806370a08231146107c7578063715018a6146107f65780638da5cb5b146107fe57806393028d831461080657806395cad3c71461080e57806395d89b411461083d5780639aad141b146108455780639ea5ce0a14610874578063a457c2d714610908578063a9059cbb1461093d578063aa6ca80814610972578063c40d4d66146109b5578063d21220a7146109e4578063d5bcb9b5146109ec578063d7d3aab514610a39578063d9a0c21714610a68578063dd62ed3e14610a70578063ddca3f4314610aa7578063e331d03914610aaf578063e7ff42c914610b02578063f1ea604214610b31578063f2fde38b14610b39575b6000806101f76149e6565b50505b610202610b68565b60405160208082528190810183818151815260200191508051906020019080838360005b8381101561023e578082015183820152602001610226565b50505050905090810190601f16801561026b5780820380516001836020036101000a031916815260200191505b509250505060405180910390f35b61029f60048036036020811015610298576000806102956149e6565b50505b5035610c25565b005b6102d6600480360360408110156102c0576000806102bd6149e6565b50505b506001600160a01b038135169060200135610d80565b604051901515815260200160405180910390f35b6102f2610d9e565b6040516001600160a01b03909116815260200160405180910390f35b61029f6004803603602081101561032d5760008061032a6149e6565b50505b5035610dc2565b61033c610f14565b60405190815260200160405180910390f35b61033c6004803603606081101561036d5760008061036a6149e6565b50505b506001600160a01b03813581169160208101359091169060400135610f25565b6102d6600480360360608110156103ac576000806103a96149e6565b50505b506001600160a01b03813581169160208101359091169060400135610f5e565b6103d4610ff2565b60405180846001600160681b03168152602001836001600160681b031681526020018265ffffffffffff168152602001935050505060405180910390f35b61049d600480360360808110156104315760008061042e6149e6565b50505b81019080806040019060028060200260405190810160405280929190826002602002808284376000920191909152509194939260408082019350909150600290805190810160405280929190826002602002808284376000920191909152509194506110579350505050565b6040518281526020810182604080838360005b838110156104c85780820151838201526020016104b0565b505050509050019250505060405180910390f35b6104e461107f565b60405160ff909116815260200160405180910390f35b61033c61109b565b6102d6600480360360408110156105215760008061051e6149e6565b50505b506001600160a01b038135169060200135611116565b61060e60048036036060811015610556576000806105536149e6565b50505b81359190810190604081016020820135600160201b8111156105805760008061057d6149e6565b50505b82018360208201111561059b576000806105986149e6565b50505b803590602001918460208302840111600160201b831117156105c5576000806105c26149e6565b50505b919080806020026020016040519081016040528093929190818152602001838360200280828437600092019190915250929550505090356001600160a01b0316915061117b9050565b6040518082604080838360005b8381101561063357808201518382015260200161061b565b5050505090500191505060405180910390f35b6102f260048036036020811015610665576000806106626149e6565b50505b50356114ca565b61060e6004803603604081101561068b576000806106886149e6565b50505b81359190810190604081016020820135600160201b8111156106b5576000806106b26149e6565b50505b8201836020820111156106d0576000806106cd6149e6565b50505b803590602001918460208302840111600160201b831117156106fa576000806106f76149e6565b50505b91908080602002602001604051908101604052809392919081815260200183836020028082843760009201919091525092955061153b945050505050565b61076760048036036020811015610757576000806107546149e6565b50505b50356001600160a01b0316611556565b6040516001600160d81b03909216825264ffffffffff1660208201526040908101905180910390f35b61029f6115a2565b610767600480360360208110156107b7576000806107b46149e6565b50505b50356001600160a01b03166115fd565b61033c600480360360208110156107e6576000806107e36149e6565b50505b50356001600160a01b0316611618565b61029f611638565b6102f26116e5565b61029f611708565b61033c6004803603602081101561082d5760008061082a6149e6565b50505b50356001600160a01b0316611761565b6102026117bb565b61033c60048036036020811015610864576000806108616149e6565b50505b50356001600160a01b0316611861565b61049d600480360360a0811015610893576000806108906149e6565b50505b81019080806040019060028060200260405190810160405280929190826002602002808284376000920191909152509194939260408082019350909150600290805190810160405280929190826002602002808284376000920191909152509194505050356001600160a01b031690506118b1565b6102d660048036036040811015610927576000806109246149e6565b50505b506001600160a01b03813516906020013561207f565b6102d66004803603604081101561095c576000806109596149e6565b50505b506001600160a01b0381351690602001356120f5565b61097a612109565b6040516020808252819081018381815181526020019150805160209182019102808383600083156104c85780820151838201526020016104b0565b61029f600480360360208110156109d4576000806109d16149e6565b50505b50356001600160a01b03166121d8565b6102f26123e5565b61033c600480360360a0811015610a0b57600080610a086149e6565b50505b506001600160a01b038135811691602081013582169160408201359160608101359160809091013516612409565b61033c60048036036020811015610a5857600080610a556149e6565b50505b50356001600160a01b031661242b565b6102f26125b3565b61033c60048036036040811015610a8f57600080610a8c6149e6565b50505b506001600160a01b03813581169160200135166125d2565b61033c61260b565b61033c600480360360c0811015610ace57600080610acb6149e6565b50505b506001600160a01b0381358116916020810135821691604082013591606081013591608082013581169160a0013516612629565b61033c60048036036020811015610b2157600080610b1e6149e6565b50505b50356001600160a01b0316612a5a565b6103d4612ba7565b61029f60048036036020811015610b5857600080610b556149e6565b50505b50356001600160a01b0316612bf2565b6060600380610b75614a51565b600181600116156101000203166002900480601f016020809104026020016040519081016040528181529190602083018280610baf614a51565b60018160011615610100020316600290048015610c1b5780601f10610be9576101008083610bdb614a51565b040283529160200191610c1b565b820191906000526020600020905b81610c00614a51565b81529060010190602001808311610bf757829003601f168201915b5050505050905090565b670de0b6b3a7640000811115610c4357600080610c406149e6565b50505b610d7d5a610c4f614aac565b600f60005a610c5c614aac565b6001600160a01b03166001600160a01b0316815260200190815260200160002060405160208101604052908181610c91614a51565b905250610c9d84612ce2565b610cae5a610ca9614aac565b611618565b610cb6610f14565b60006007610cc2614a51565b906101000a90046001600160a01b03166001600160a01b03166323662bb96040518163ffffffff1660e01b81526004016020604051808303818680610d05614af2565b158015610d1a57600080610d176149e6565b50505b505a610d24614b3e565b5050505050158015610d43573d6000803e3d6000610d406149e6565b50505b505050506040513d6020811015610d6257600080610d5f6149e6565b50505b810190808051600c989796959493509150612d009050612d57565b50565b6000610d94610d8d612d72565b8484612d7d565b5060015b92915050565b7f000000000000000000000000000000000000000000000000000000000000000081565b662386f26fc10000811115610ddf57600080610ddc6149e6565b50505b610d7d5a610deb614aac565b600b60005a610df8614aac565b6001600160a01b03166001600160a01b0316815260200190815260200160002060405160208101604052908181610e2d614a51565b905250610e3984612ce2565b610e455a610ca9614aac565b610e4d610f14565b60006007610e59614a51565b906101000a90046001600160a01b03166001600160a01b0316635a6c72d06040518163ffffffff1660e01b81526004016020604051808303818680610e9c614af2565b158015610eb157600080610eae6149e6565b50505b505a610ebb614b3e565b5050505050158015610eda573d6000803e3d6000610ed76149e6565b50505b505050506040513d6020811015610ef957600080610ef66149e6565b50505b8101908080516008989796959493509150612e419050612d57565b60006002610f20614a51565b905090565b6000610f54848484610f368861242b565b610f3f88612a5a565b610f4761260b565b610f4f61109b565b612e98565b90505b9392505050565b6000610f6b848484612fdf565b610fe884610f77612d72565b610fe385604051606081016040526028808252614e7160208301396001600160a01b038a1660009081526001602052604090206000610fb4612d72565b6001600160a01b03166001600160a01b03168152602001908152602001600020610fdc614a51565b9190613107565b612d7d565b5060019392505050565b6000808080600c611001614a51565b6001600160681b036101009290920a900416600d600c61101f614a51565b6001600160681b036101009290920a900416601a600c61103d614a51565b906101000a900465ffffffffffff16925092509250909192565b6000611061614c29565b61107484845a61106f614aac565b6118b1565b915091509250929050565b600080600561108c614a51565b906101000a900460ff16905090565b6000610f20600c6040516060810160405290816000826110b9614a51565b6001600160681b036101009290920a9004168152602001600d826110db614a51565b6001600160681b036101009290920a9004168152602001601a826110fd614a51565b65ffffffffffff6101009290920a900416905250613126565b6000610d94611123612d72565b84610fe38560016000611134612d72565b6001600160a01b03166001600160a01b031681526020019081526020016000206001600160a01b038916600090815260209190915260409020611175614a51565b9061319b565b611183614c29565b6002600661118f614a51565b14156111a3576000806111a06149e6565b50505b60028060066111b0614c44565b5050506111bb614c29565b604051604080820190526001600160a01b037f0000000000000000000000000000000000000000000000000000000000000000811682527f000000000000000000000000000000000000000000000000000000000000000016602082015290506000611225610f14565b90506112395a611233614aac565b876131bc565b60005b600281101561144757600083826002811061125357fe5b602002015190506000816001600160a01b03166370a082315a63996d79a5598160e01b8152602081600483336000905af158600e01573d6000803e3d6000fd5b3d6001141558600a015760016000f35b8051925060005b60408110156112c1576000828201526020016112aa565b5050506040516001600160e01b031960e084901b1681526001600160a01b03909116600482015260240160206040518083038186806112fe614af2565b158015611313576000806113106149e6565b50505b505a61131d614b3e565b505050505015801561133c573d6000803e3d60006113396149e6565b50505b505050506040513d602081101561135b576000806113586149e6565b50505b81019080805193506000925061137f9150869050611379848d613292565b906132bf565b90506113956001600160a01b03841689836132e7565b808785600281106113a257fe5b60200201528851841015806113ca57508884815181106113be57fe5b60200260200101518110155b6113dc576000806113d96149e6565b50505b61140c826113ea878d613343565b6001600160a01b03861660009081526010602052889060409020929190613361565b61143c8261141a878d613343565b6001600160a01b03861660009081526011602052889060409020929190613361565b50505060010161123c565b50836001600160a01b03165a61145b614aac565b6001600160a01b03167f3cae9923fd3c2f468aa25a8ef687923e37f957459557c0380fd06526c0b8cdbc888651602088015160405180848152602001838152602001828152602001935050505060405180910390a350506001600681906114c0614c44565b5050509392505050565b6000816114f857507f0000000000000000000000000000000000000000000000000000000000000000611536565b816001141561152857507f0000000000000000000000000000000000000000000000000000000000000000611536565b6000806115336149e6565b50505b919050565b611543614c29565b610f5783835a611551614aac565b61117b565b60116020528060005260406000209050600081611571614a51565b6001600160d81b036101009290920a90041690601b8161158f614a51565b906101000a900464ffffffffff16905082565b6115fb5a6115ae614aac565b600f60005a6115bb614aac565b6001600160a01b03166001600160a01b03168152602001908152602001600020604051602081016040529081816115f0614a51565b905250610c9d6133dc565b565b60106020528060005260406000209050600081611571614a51565b6001600160a01b0381166000908152602081905260408120610d98614a51565b611640612d72565b6001600160a01b03166116516116e5565b6001600160a01b03161461166d5760008061166a6149e6565b50505b60006001600561167b614a51565b906101000a90046001600160a01b03166001600160a01b0316600080516020614e9983398151915260405160405180910390a360006005610100816116be614a51565b816001600160a01b0302191690836001600160a01b03160217906116e0614c44565b505050565b6000600160056116f3614a51565b906101000a90046001600160a01b0316905090565b6115fb5a611714614aac565b600b60005a611721614aac565b6001600160a01b03166001600160a01b0316815260200190815260200160002060405160208101604052908181611756614a51565b905250610e396133dc565b6000610d98816007611771614a51565b6001600160a01b038581166000908152600f6020526101009390930a90910416906323662bb99060409020604051602081016040529081816117b1614a51565b90525091906133f7565b60606004806117c8614a51565b600181600116156101000203166002900480601f016020809104026020016040519081016040528181529190602083018280611802614a51565b60018160011615610100020316600290048015610c1b5780601f1061182e576101008083610bdb614a51565b820191906000526020600020905b81611845614a51565b8152906001019060200180831161183c57509395945050505050565b6000610d98816007611871614a51565b6001600160a01b038581166000908152600b6020526101009390930a9091041690635a6c72d09060409020604051602081016040529081816117b1614a51565b60006118bb614c29565b600260066118c7614a51565b14156118db576000806118d86149e6565b50505b60028060066118e8614c44565b5050506118f3614c29565b604051604080820190526001600160a01b037f0000000000000000000000000000000000000000000000000000000000000000811682527f00000000000000000000000000000000000000000000000000000000000000001660208201529050600061195d610f14565b905080611b23576119716103e86063613292565b93506119d75a63996d79a5598160e01b8152602081600483336000905af158600e01573d6000803e3d6000fd5b3d6001141558600a015760016000f35b8051925060005b60408110156119cc576000828201526020016119b5565b5050506103e86134a3565b60005b6002811015611b1d576119fd858983600281106119f357fe5b6020020151613563565b94506000888260028110611a0d57fe5b602002015111611a2557600080611a226149e6565b50505b868160028110611a3157fe5b6020020151888260028110611a4257fe5b60200201511015611a5b57600080611a586149e6565b50505b611af35a611a67614aac565b5a63996d79a5598160e01b8152602081600483336000905af158600e01573d6000803e3d6000fd5b3d6001141558600a015760016000f35b8051925060005b6040811015611abd57600082820152602001611aa6565b5050508a8460028110611acc57fe5b6020020151868560028110611add57fe5b60200201516001600160a01b031692919061357a565b878160028110611aff57fe5b6020020151848260028110611b1057fe5b60200201526001016119da565b50611fdc565b611b2b614c29565b60005b6002811015611c6b57838160028110611b4357fe5b60200201516001600160a01b03166370a082315a63996d79a5598160e01b8152602081600483336000905af158600e01573d6000803e3d6000fd5b3d6001141558600a015760016000f35b8051925060005b6040811015611bac57600082820152602001611b95565b5050506040516001600160e01b031960e084901b1681526001600160a01b0390911660048201526024016020604051808303818680611be9614af2565b158015611bfe57600080611bfb6149e6565b50505b505a611c08614b3e565b5050505050158015611c27573d6000803e3d6000611c246149e6565b50505b505050506040513d6020811015611c4657600080611c436149e6565b50505b810190808051925084915083905060028110611c5e57fe5b6020020152600101611b2e565b50600019945060005b6002811015611cbf57611cb586611cb0848460028110611c9057fe5b60200201516113798d8660028110611ca457fe5b60200201518890613292565b6135e3565b9550600101611c74565b508460005b6002811015611f385760008a8260028110611cdb57fe5b602002015111611cf357600080611cf06149e6565b50505b6000611d1b856113796001880361117587898860028110611d1057fe5b602002015190613292565b9050898260028110611d2957fe5b6020020151811015611d4357600080611d406149e6565b50505b611db55a611d4f614aac565b5a63996d79a5598160e01b8152602081600483336000905af158600e01573d6000803e3d6000fd5b3d6001141558600a015760016000f35b8051925060005b6040811015611da557600082820152602001611d8e565b50505083898660028110611add57fe5b611ee9848360028110611dc457fe5b6020020151878460028110611dd557fe5b60200201516001600160a01b03166370a082315a63996d79a5598160e01b8152602081600483336000905af158600e01573d6000803e3d6000fd5b3d6001141558600a015760016000f35b8051925060005b6040811015611e3e57600082820152602001611e27565b5050506040516001600160e01b031960e084901b1681526001600160a01b0390911660048201526024016020604051808303818680611e7b614af2565b158015611e9057600080611e8d6149e6565b50505b505a611e9a614b3e565b5050505050158015611eb9573d6000803e3d6000611eb66149e6565b50505b505050506040513d6020811015611ed857600080611ed56149e6565b50505b810190808051939250506133439050565b878360028110611ef557fe5b6020020152611f2d88611cb0868560028110611f0d57fe5b60200201516113798b8760028110611f2157fe5b60200201518a90613292565b975050600101611cc4565b5060005b6002811015611fd857611fa1838260028110611f5457fe5b6020020151611f63868a61319b565b86601160008a8760028110611f7457fe5b60200201516001600160a01b03166001600160a01b03168152602001908152602001600020929190613361565b611fd0838260028110611fb057fe5b6020020151611fbf868a61319b565b86601060008a8760028110611f7457fe5b600101611f3c565b5050505b60008411611ff257600080611fef6149e6565b50505b611ffc85856134a3565b846001600160a01b03165a61200f614aac565b6001600160a01b03167f8bab6aed5a508937051a144e61d6e61336834a66aaee250a00613ae6f744c422868651602088015160405180848152602001838152602001828152602001935050505060405180910390a35050600160068190612074614c44565b505050935093915050565b6000610d9461208c612d72565b84610fe385604051606081016040526025808252614ed96020830139600160006120b4612d72565b6001600160a01b03166001600160a01b031681526020019081526020016000206001600160a01b038a16600090815260209190915260409020610fdc614a51565b6000610d94612102612d72565b8484612fdf565b60606002604051908082528060200260200182016040528015612136578160200160208202803683370190505b5090507f00000000000000000000000000000000000000000000000000000000000000008160008151811061216757fe5b60200260200101906001600160a01b031690816001600160a01b0316815250507f0000000000000000000000000000000000000000000000000000000000000000816001815181106121b557fe5b60200260200101906001600160a01b031690816001600160a01b03168152505090565b6121e0612d72565b6001600160a01b03166121f16116e5565b6001600160a01b03161461220d5760008061220a6149e6565b50505b80600760018161221b614a51565b816001600160a01b0302191690836001600160a01b031602179061223d614c44565b5050505a63996d79a5598160e01b8152602081600483336000905af158600e01573d6000803e3d6000fd5b3d6001141558600a015760016000f35b8051925060005b60408110156122965760008282015260200161227f565b5050506001600160a01b03166393028d836040518163ffffffff1660e01b8152600401600060405180830381600087806122ce614af2565b1580156122e3576000806122e06149e6565b50505b505a6122ed614c92565b50505050505015801561230d573d6000803e3d600061230a6149e6565b50505b505050505a63996d79a5598160e01b8152602081600483336000905af158600e01573d6000803e3d6000fd5b3d6001141558600a015760016000f35b8051925060005b604081101561236757600082820152602001612350565b5050506001600160a01b0316636669302a6040518163ffffffff1660e01b81526004016000604051808303816000878061239f614af2565b1580156123b4576000806123b16149e6565b50505b505a6123be614c92565b5050505050501580156123de573d6000803e3d60006123db6149e6565b50505b5050505050565b7f000000000000000000000000000000000000000000000000000000000000000081565b600061242186868686865a61241c614aac565b612629565b9695505050505050565b600080826001600160a01b03166370a082315a63996d79a5598160e01b8152602081600483336000905af158600e01573d6000803e3d6000fd5b3d6001141558600a015760016000f35b8051925060005b60408110156124935760008282015260200161247c565b5050506040516001600160e01b031960e084901b1681526001600160a01b03909116600482015260240160206040518083038186806124d0614af2565b1580156124e5576000806124e26149e6565b50505b505a6124ef614b3e565b505050505015801561250e573d6000803e3d600061250b6149e6565b50505b505050506040513d602081101561252d5760008061252a6149e6565b50505b8101908080516001600160a01b03871660009081526010602052909450610f5793506125ad925084915060409020604051604080820190529081600082612572614a51565b6001600160d81b036101009290920a9004168152602001601b82612594614a51565b64ffffffffff6101009290920a900416905250906135f2565b82613563565b600060076125bf614a51565b906101000a90046001600160a01b031681565b6001600160a01b03821660009081526001602052604081206001600160a01b038316600090815260209190915260409020610f57614a51565b6000610f2060086040516060810160405290816000826110b9614a51565b600060026006612637614a51565b141561264b576000806126486149e6565b50505b6002806006612658614c44565b5050506007600090612668614a51565b906101000a90046001600160a01b03166001600160a01b03166322f3e2d46040518163ffffffff1660e01b815260040160206040518083038186806126ab614af2565b1580156126c0576000806126bd6149e6565b50505b505a6126ca614b3e565b50505050501580156126e9573d6000803e3d60006126e66149e6565b50505b505050506040513d6020811015612708576000806127056149e6565b50505b8101908080519250612725915050576000806127226149e6565b50505b61272d614d58565b6040518060400160405280896001600160a01b03166370a082315a63996d79a5598160e01b8152602081600483336000905af158600e01573d6000803e3d6000fd5b3d6001141558600a015760016000f35b8051925060005b604081101561279d57600082820152602001612786565b5050506040516001600160e01b031960e084901b1681526001600160a01b03909116600482015260240160206040518083038186806127da614af2565b1580156127ef576000806127ec6149e6565b50505b505a6127f9614b3e565b5050505050158015612818573d6000803e3d60006128156149e6565b50505b505050506040513d6020811015612837576000806128346149e6565b50505b81019080805184525050506020016001600160a01b0389166370a082315a63996d79a5598160e01b8152602081600483336000905af158600e01573d6000803e3d6000fd5b3d6001141558600a015760016000f35b8051925060005b60408110156128aa57600082820152602001612893565b5050506040516001600160e01b031960e084901b1681526001600160a01b03909116600482015260240160206040518083038186806128e7614af2565b1580156128fc576000806128f96149e6565b50505b505a612906614b3e565b5050505050158015612925573d6000803e3d60006129226149e6565b50505b505050506040513d6020811015612944576000806129416149e6565b50505b810190808051909352509192506000915061295f9050614d58565b612967614d58565b604051806040016040528061297a61260b565b815260200161298761109b565b9052905061299a8b8b8b8b8a8987613653565b90965090935091506001600160a01b03808c169087165a6129b9614aac565b6001600160a01b03167fbd99c6719f088aa0abd9e7b7a4a635d1f931601e9f304b538dc42be25d8c65c68d878a885189602001518f6040516001600160a01b03968716815260208101959095526040808601949094526060850192909252608084015290921660a082015260c001905180910390a4612a3b83868987856138e4565b50505050600160068190612a4d614c44565b5050509695505050505050565b600080826001600160a01b03166370a082315a63996d79a5598160e01b8152602081600483336000905af158600e01573d6000803e3d6000fd5b3d6001141558600a015760016000f35b8051925060005b6040811015612ac257600082820152602001612aab565b5050506040516001600160e01b031960e084901b1681526001600160a01b0390911660048201526024016020604051808303818680612aff614af2565b158015612b1457600080612b116149e6565b50505b505a612b1e614b3e565b5050505050158015612b3d573d6000803e3d6000612b3a6149e6565b50505b505050506040513d6020811015612b5c57600080612b596149e6565b50505b8101908080516001600160a01b03871660009081526011602052909450610f579350612ba1925084915060409020604051604080820190529081600082612572614a51565b826135e3565b60008080806008612bb6614a51565b6001600160681b036101009290920a900416600d6008612bd4614a51565b6001600160681b036101009290920a900416601a600861103d614a51565b612bfa612d72565b6001600160a01b0316612c0b6116e5565b6001600160a01b031614612c2757600080612c246149e6565b50505b6001600160a01b038116612c4357600080612c406149e6565b50505b6001600160a01b03811660016005612c59614a51565b906101000a90046001600160a01b03166001600160a01b0316600080516020614e9983398151915260405160405180910390a380600561010081612c9b614a51565b816001600160a01b0302191690836001600160a01b0316021790612cbd614c44565b50505050565b6000600160681b8210612cde57600080612cdb6149e6565b50505b5090565b612cea614d6f565b6040516020810160405260019290920182525090565b836001600160a01b03167fce0cf859d853e1944032294143a1bf3ad799998ae77acbeb6c4d9b20d691024084848460405192835290151560208301526040808301919091526060909101905180910390a250505050565b612d68888888888889898989613e46565b5050505050505050565b60005a610f20614aac565b6001600160a01b038316612d9957600080612d966149e6565b50505b6001600160a01b038216612db557600080612db26149e6565b50505b6001600160a01b038316600090815260016020528190604090206001600160a01b0384166000908152602091909152604090208190612df2614c44565b505050816001600160a01b0316836001600160a01b03167f8c5be1e5ebec7d5bd14f71427d1e84f3dd0314c0f7b2291e5b200ac8c7c3b9258360405190815260200160405180910390a3505050565b836001600160a01b03167fe117cae46817b894b41a4412b73ae0ba746a5707b94e02d83b4c6502010b11ac84848460405192835290151560208301526040808301919091526060909101905180910390a250505050565b6000866001600160a01b0316886001600160a01b03161115612eb8579596955b600086118015612ef957507f00000000000000000000000000000000000000000000000000000000000000006001600160a01b0316886001600160a01b0316145b8015612f3657507f00000000000000000000000000000000000000000000000000000000000000006001600160a01b0316876001600160a01b0316145b15612fd4576000612f5d612f56670de0b6b3a76400006113798a88613292565b8890613343565b90506000612f6b878361319b565b90506000612f7d82611379858a613292565b90506000612fa6612f8e8786613292565b612fa0670de0b6b3a764000086613292565b90613343565b90506000612fbc670de0b6b3a764000085613292565b9050612fcc816113798585613292565b955050505050505b979650505050505050565b6001600160a01b038316612ffb57600080612ff86149e6565b50505b6001600160a01b038216613017576000806130146149e6565b50505b613022838383614112565b61305d81604051606081016040526026808252614e4b60208301396001600160a01b0386166000908152602081905260409020610fdc614a51565b6001600160a01b0384166000908152602081905260409020819061307f614c44565b5050506001600160a01b038216600090815260208190526130a890829060409020611175614a51565b6001600160a01b038316600090815260208190526040902081906130ca614c44565b505050816001600160a01b0316836001600160a01b0316600080516020614eb98339815191528360405190815260200160405180910390a3505050565b60008383111561311f5760008061311c6149e6565b50505b5050900390565b60008061314962015180611cb0856040015165ffffffffffff165a612fa0614d80565b9050600061315a6201518083613343565b90506131936201518061137961317e8588602001516001600160681b031690613292565b6111758589516001600160681b031690613292565b949350505050565b600082820183811015610f57576000806131b36149e6565b50509392505050565b6001600160a01b0382166131d8576000806131d56149e6565b50505b6131e482600083614112565b61321f81604051606081016040526022808252614e2960208301396001600160a01b0385166000908152602081905260409020610fdc614a51565b6001600160a01b03831660009081526020819052604090208190613241614c44565b505050613252816002612fa0614a51565b80600261325d614c44565b5060009150506001600160a01b038316600080516020614eb98339815191528360405190815260200160405180910390a35050565b6000826132a157506000610d98565b828202828482816132ae57fe5b0414610f57576000806131b36149e6565b60008082116132d6576000806132d36149e6565b50505b8183816132df57fe5b049392505050565b6116e08363a9059cbb60e01b84846040516001600160a01b0390921660248301526044820152606401604051602081830303815290604052906001600160e01b0319166020820180516001600160e01b031690911790526144bc565b60008282111561335b576000806133586149e6565b50505b50900390565b612cbd846133d783611379613377826001613343565b611175886133d18c604051604080820190529081600082613396614a51565b6001600160d81b036101009290920a9004168152602001601b826133b8614a51565b64ffffffffff6101009290920a9004169052508c6135f2565b90613292565b61454a565b6133e4614d6f565b6040516020810160405260008152905090565b6000808451111561340e5760018451039050610f57565b82826040518163ffffffff1660e01b81526004016020604051808303818680613435614af2565b15801561344a576000806134476149e6565b50505b505a613454614b3e565b5050505050158015613473573d6000803e3d60006134706149e6565b50505b505050506040513d60208110156134925760008061348f6149e6565b50505b810190808051979650505050505050565b6001600160a01b0382166134bf576000806134bc6149e6565b50505b6134cb60008383614112565b6134d9816002611175614a51565b8060026134e4614c44565b5050506001600160a01b0382166000908152602081905261350d90829060409020611175614a51565b6001600160a01b0383166000908152602081905260409020819061352f614c44565b5050506001600160a01b0382166000600080516020614eb98339815191528360405190815260200160405180910390a35050565b6000818310156135735781610f57565b5090919050565b612cbd846323b872dd60e01b8585856040516001600160a01b0393841660248201529190921660448201526064810191909152608401604051602081830303815290604052906001600160e01b0319166020820180516001600160e01b031690911790526144bc565b60008183106135735781610f57565b600080613612603c611cb0866020015164ffffffffff165a612fa0614d80565b90506000613621603c83613343565b905061364a603c6113796136358786613292565b611175858a516001600160d81b031690613292565b95945050505050565b60008061365e614d58565b61369285516001600160a01b038c166000908152601060205260409020604051604080820190529081600082612572614a51565b81526136a081518651613563565b81526136d960208601516001600160a01b038b166000908152601160205260409020604051604080820190529081600082612572614a51565b602082019081526136ef905186602001516135e3565b602082015261376b5a613700614aac565b5a63996d79a5598160e01b8152602081600483336000905af158600e01573d6000803e3d6000fd5b3d6001141558600a015760016000f35b8051925060005b60408110156137565760008282015260200161373f565b5050506001600160a01b038d1691908b61357a565b6137c685518b6001600160a01b03166370a082315a63996d79a5598160e01b8152602081600483336000905af158600e01573d6000803e3d6000fd5b3d6001141558600a015760016000f35b80516000825292506020611e27565b92506137e18a8a858451856020015189518a60200151612e98565b91506000821180156137f35750868210155b613805576000806138026149e6565b50505b6138196001600160a01b038a1687846132e7565b845181511461384f5761384f6138318483519061319b565b6001600160a01b038c1660009081526010602052604090209061454a565b846020015181602001511461388e5761388e61387083836020015190613343565b6001600160a01b038b1660009081526011602052604090209061454a565b6138b185516001600160a01b038c166000908152601160205260409020906145ca565b6138d785602001516001600160a01b038b166000908152601060205260409020906145ca565b9750975097945050505050565b60008080808060076138f4614a51565b906101000a90046001600160a01b03166001600160a01b031663172886e76040518163ffffffff1660e01b81526004016080604051808303818680613937614af2565b15801561394c576000806139496149e6565b50505b505a613956614b3e565b5050505050158015613975573d6000803e3d60006139726149e6565b50505b505050506040513d6080811015613994576000806139916149e6565b50505b810190808051929190602001805192919060200180519291906020018051959950939750919550929350600092508291506a0c097ce7bc90715b34b9f160241b90506139f189516113796139ea8f8d519061319b565b8490613292565b9050613a0d89602001516113796139ea8e8d6020015190613343565b90506a0c097ce7bc90715b34b9f160241b811115613dcf57613a2e81614628565b90506000613a5382611379613a4b82670de0b6b3a7640000613343565b6133d1610f14565b90506001600160a01b038b16613a6a576000613a80565b613a80670de0b6b3a7640000611379838b613292565b93506001600160a01b038616613a97576000613aad565b613aad670de0b6b3a7640000611379838a613292565b92506001600160a01b038516613ae2578315613acd57613acd8b856134a3565b8215613add57613add86846134a3565b613dcd565b6000841180613af15750600083115b15613dcd576000808411613b06576000613b09565b60015b60008611613b18576000613b1b565b60015b0160ff1690506060816001600160401b0381118015613b4257600080613b3f6149e6565b50505b50604051908082528060200260200182016040528015613b6c578160200160208202803683370190505b5090506060826001600160401b0381118015613b9057600080613b8d6149e6565b50505b50604051908082528060200260200182016040528015613bba578160200160208202803683370190505b5090508d82600081518110613bcb57fe5b60200260200101906001600160a01b031690816001600160a01b0316815250508681600081518110613bf957fe5b60209081029190910101528515613c575788826001850381518110613c1a57fe5b60200260200101906001600160a01b031690816001600160a01b03168152505085816001850381518110613c4a57fe5b6020026020010181815250505b876001600160a01b0316630931753c83836040518363ffffffff1660e01b8152600401808060200180602001838103835285818151815260200191508051906020019060200280838360005b83811015613cbb578082015183820152602001613ca3565b50505050905001838103825284818151815260200191508051906020019060200280838360005b83811015613cfa578082015183820152602001613ce2565b5050505090500194505050505060006040518083038160008780613d1c614af2565b158015613d3157600080613d2e6149e6565b50505b505a613d3b614c92565b505050505050925050508015613d4f575060015b613db6577f08c379a0afcc32b1a39302f7cb8073359698411ab5fd6e3edb2c02c0b5fba8aa6040516020808252601690820152751d5c19185d1954995dd85c991cca0a4819985a5b195960521b6040808301919091526060909101905180910390a1613dc9565b613dc988613dc4898961319b565b6134a3565b5050505b505b7f2a368c7f33bb86e2d999940a3989d849031aff29b750f67947e6b8e8c3d2ffd689518a602001518a518b60200151878760405180878152602001868152602001858152602001848152602001838152602001828152602001965050505050505060405180910390a1505050505050505050505050565b600089600101613e54614a51565b905080600060028c01613e65614a51565b905080613e718b614682565b15613e8757613e80818a613343565b9050613ea8565b613ea5613e9e613e978d8961468d565b8b90613292565b8490613343565b92505b613eb18a614682565b15613ec757613ec0818961319b565b9050613ee8565b613ee5613ede613ed78c8961468d565b8a90613292565b849061319b565b92505b838314613f0157828060018f01613efd614c44565b5050505b818114613f1a57808060028f01613f16614c44565b5050505b60008715613f3f57613f3a88611379613f33858b613292565b879061319b565b613f41565b865b9050613f4b614dc6565b8e604051606081016040529081600082613f63614a51565b6001600160681b036101009290920a9004168152602001600d82613f85614a51565b6001600160681b036101009290920a9004168152602001601a82613fa7614a51565b65ffffffffffff6101009290920a900416905250905060208101516001600160681b031682146140a5578e613fe3613fde83613126565b612cc3565b613fec84612cc3565b613ffd5a613ff8614d80565b6146aa565b83600081600d8482600160d01b81614013614a51565b8165ffffffffffff021916908365ffffffffffff16021790614033614c44565b5050508591906101000a81614046614a51565b816001600160681b0302191690836001600160681b0316021790614068614c44565b5050508491906101000a8161407b614a51565b816001600160681b0302191690836001600160681b031602179061409d614c44565b505050505050505b506140b290508a8c6146c2565b6140e2576001600160a01b038c16600090815260038e016020528a90604090208151816140dd614c44565b505050505b6141038c6140f08c8961468d565b6140f98d614682565b8b8963ffffffff16565b50505050505050505050505050565b816001600160a01b0316836001600160a01b03161415614131576116e0565b600080600761413e614a51565b906101000a90046001600160a01b031690506000806001600160a01b0316856001600160a01b0316148061421f5750816001600160a01b0316633b90b9bf866040516001600160e01b031960e084901b1681526001600160a01b03909116600482015260240160206040518083038186806141b7614af2565b1580156141cc576000806141c96149e6565b50505b505a6141d6614b3e565b50505050501580156141f5573d6000803e3d60006141f26149e6565b50505b505050506040513d6020811015614214576000806142116149e6565b50505b810190808051925050505b15905060006001600160a01b03851615806142e75750826001600160a01b0316633b90b9bf866040516001600160e01b031960e084901b1681526001600160a01b039091166004820152602401602060405180830381868061427f614af2565b158015614294576000806142916149e6565b50505b505a61429e614b3e565b50505050501580156142bd573d6000803e3d60006142ba6149e6565b50505b505050506040513d60208110156142dc576000806142d96149e6565b50505b810190808051925050505b159050811580156142f6575080155b15614303575050506116e0565b60006001600160a01b03871661431a576000614323565b61432387611618565b905060006001600160a01b03871661433c576000614345565b61434587611618565b905060006143876001600160a01b03891615614362576000614364565b875b612fa06001600160a01b038c161561437d57600061437f565b895b611175610f14565b9050614391614de5565b6040518061010001604052808b6001600160a01b031681526020018a6001600160a01b0316815260200187151581526020018615158152602001898152602001858152602001848152602001838152509050600080886001600160a01b031663edb7a6fa6040518163ffffffff1660e01b815260040160408051808303818680614419614af2565b15801561442e5760008061442b6149e6565b50505b505a614438614b3e565b5050505050158015614457573d6000803e3d60006144546149e6565b50505b505050506040513d6040811015614476576000806144736149e6565b50505b810190808051929190602001805193955092935061449f9250859150849050612e4160086146d0565b6144ae8382612d00600c6146d0565b505050505050505050505050565b6060614507826040516040808201905260208082527f5361666545524332303a206c6f772d6c6576656c2063616c6c206661696c6564908201526001600160a01b0386169190614867565b90506000815111156116e05760208101815160208110156145305760008061452d6149e6565b50505b81019080805192506116e0915050576000806123de6149e6565b61455381614946565b6145645a61455f614d80565b61495e565b8360008282600160d81b81614577614a51565b8164ffffffffff021916908364ffffffffff16021790614595614c44565b5050508391906101000a816145a8614a51565b816001600160d81b0302191690836001600160d81b03160217906123db614c44565b614624826133d7846040516040808201905290816000826145e9614a51565b6001600160d81b036101009290920a9004168152602001601b8261460b614a51565b64ffffffffff6101009290920a900416905250846135f2565b5050565b6000600382111561466c5781600160028204015b818110156146645780915060028182868161465357fe5b04018161465c57fe5b04905061463c565b509050611536565b811561467a57506001611536565b506000611536565b600081511592915050565b600080835111156146a45760018351039050610d98565b50919050565b6000600160301b8210612cde57600080612cdb6149e6565b600081518351149392505050565b6146d8614d6f565b60038201600086516001600160a01b03166001600160a01b0316815260200190815260200160002060405160208101604052908181614715614a51565b9052509050614722614d6f565b82600301600087602001516001600160a01b03166001600160a01b0316815260200190815260200160002060405160208101604052908181614762614a51565b905250905061477082614682565b8015614780575061478081614682565b801561478d575085604001515b801561479a575085606001515b156147fa576147cc86516147ae848861468d565b60016147c38a608001518b60a0015190613343565b8863ffffffff16565b6147f386602001516147de838861468d565b60016147c38a608001518b60c001519061319b565b5050612cbd565b856040015115614834576148348651838860a001516148228a608001518b60a0015190613343565b8a60e001518894939291908b8b614976565b85606001511561485f5761485f8660200151828860c001516148228a608001518b60c001519061319b565b505050505050565b60606148728461499a565b614884576000806148816149e6565b50505b60006060856001600160a01b0316856040518082805190602001908083835b602083106148c25780518252601f1990920191602091820191016148a3565b6001836020036101000a0380198251168184511680821785525050505050509050019150506000604051808303816000865a6148fc614c92565b5050505050509150503d8060008114614931576040513d603f01601f191681016040523d815291503d6000602084013e614936565b606091505b50915091506124218282866149af565b6000600160d81b8210612cde57600080612cdb6149e6565b6000600160281b8210612cde57600080612cdb6149e6565b612d6888888887156149885789614990565b6149906133dc565b8989898989613e46565b600080826149a6614af2565b15159392505050565b606083156149be575081610f57565b6000835111156149df57825180846020016149d76149e6565b505050610f57565b6000806131b35b632a2a7adb598160e01b8152600481016020815285602082015260005b86811015614a1e578086015182820160400152602001614a03565b506020828760640184336000905af158600e01573d6000803e3d6000fd5b3d6001141558600a015760016000f35b505050565b6303daa959598160e01b8152836004820152602081602483336000905af158600e01573d6000803e3d6000fd5b3d6001141558600a015760016000f35b8051935060005b60408110156116e057600082820152602001614a95565b6373509064598160e01b8152602081600483336000905af158600e01573d6000803e3d6000fd5b3d6001141558600a015760016000f35b80516000825293506020614a95565b638435035b598160e01b8152836004820152602081602483336000905af158600e01573d6000803e3d6000fd5b3d6001141558600a015760016000f35b80516000825293506020614a95565b638540661f598160e01b8152614b6f565b8080831115610d98575090919050565b8080831015610d98575090919050565b836004820152846024820152606060448201528660648201526084810160005b88811015614ba7578088015182820152602001614b8f565b506060828960a40184336000905af158600e01573d6000803e3d6000fd5b3d6001141558600a015760016000f35b815160408301513d6000853e8b8b82606087013350600060045af15059614bfc8d3d614b5f565b8c01614c088187614b4f565b5b82811015614c1d5760008152602001614c09565b50929c50505050505050565b60405160408082018152600290829080368337509192915050565b6322bd64c0598160e01b8152836004820152846024820152600081604483336000905af158600e01573d6000803e3d6000fd5b3d6001141558600a015760016000f35b600081526020614a95565b6385979f76598160e01b8152836004820152846024820152606060448201528760648201526084810160005b89811015614cd6578089015182820152602001614cbe565b506060828a60a40184336000905af158600e01573d6000803e3d6000fd5b3d6001141558600a015760016000f35b815160408301513d6000853e8c8c82606087013350600060045af15059614d2b8e3d614b5f565b8d01614d378187614b4f565b5b82811015614d4c5760008152602001614d38565b50929d50505050505050565b604051604080820190526000808252602082015290565b604051602081016040526000815290565b63bdbf8c36598160e01b8152602081600483336000905af158600e01573d6000803e3d6000fd5b3d6001141558600a015760016000f35b80516000825293506020614a95565b6040516060810160409081526000808352602083018190529082015290565b60405161010081016040908152600080835260208301819052908201819052606082018190526080820181905260a0820181905260c0820181905260e08201529056fe45524332303a206275726e20616d6f756e7420657863656564732062616c616e636545524332303a207472616e7366657220616d6f756e7420657863656564732062616c616e636545524332303a207472616e7366657220616d6f756e74206578636565647320616c6c6f77616e63658be0079c531659141344cd1fd0a4f28419497f9722a3daafe3b4186f6b6457e0ddf252ad1be2c89b69c2b068fc378daa952ba7f163c4a11628f55a4df523b3ef45524332303a2064656372656173656420616c6c6f77616e63652062656c6f77207a65726f",
  "deployedBytecode": "0x60806040523480156200001c57600080620000196200030f565b50505b5060043610620000395760003560e01c8063b92440b01462000049575b600080620000466200030f565b50505b6200017f600480360360a08110156200006c57600080620000696200030f565b50505b6001600160a01b038235811692602081013590911691810190606081016040820135600160201b811115620000ab57600080620000a86200030f565b50505b820183602082011115620000c957600080620000c66200030f565b50505b803590602001918460018302840111600160201b83111715620000f657600080620000f36200030f565b50505b919390929091602081019035600160201b8111156200011f576000806200011c6200030f565b50505b8201836020820111156200013d576000806200013a6200030f565b50505b803590602001918460018302840111600160201b831117156200016a57600080620001676200030f565b50505b9193509150356001600160a01b03166200019b565b6040516001600160a01b03909116815260200160405180910390f35b60008787878787875a620001ae6200037c565b604051620001bc90620003d8565b6001600160a01b03808916825287811660208301528216608082015260a0604082018181529082018690526060820160c08301888880828437600083820152601f01601f191690910184810383528681526020019050868680828437600083820152601f01601f19169091019a50604099505050505050505050505180910390600062000248620003e6565b50508015801562000268573d6000803e3d6000620002656200030f565b50505b509050806001600160a01b031663f2fde38b836040516001600160e01b031960e084901b1681526001600160a01b03909116600482015260240160006040518083038160008780620002b962000472565b158015620002d157600080620002ce6200030f565b50505b505a620002dd620004bf565b50505050505015801562000300573d6000803e3d6000620002fd6200030f565b50505b50505050979650505050505050565b632a2a7adb598160e01b8152600481016020815285602082015260005b86811015620003495780860151828201604001526020016200032c565b506020828760640184336000905af158601d01573d60011458600c01573d6000803e3d621234565260ea61109c52505050565b6373509064598160e01b8152602081600483336000905af158601d01573d60011458600c01573d6000803e3d621234565260ea61109c528051935060005b6040811015620003d357600082820152602001620003ba565b505050565b61582e80620005b883390190565b6314aa2ff7598160e01b8152600481016020815286602082015260005b878110156200042057808701518282016040015260200162000403565b506020828860640184336000905af158601d01573d60011458600c01573d6000803e3d621234565260ea61109c528151965059825b818110156200046b576000815260200162000455565b5050505050565b638435035b598160e01b8152836004820152602081602483336000905af158601d01573d60011458600c01573d6000803e3d621234565260ea61109c5280516000825293506020620003ba565b6385979f76598160e01b8152620004f5565b8080831115620004de5750815b92915050565b8080831015620004de575090919050565b836004820152846024820152606060448201528760648201526084810160005b898110156200052f57808901518282015260200162000515565b506060828a60a40184336000905af158601d01573d60011458600c01573d6000803e3d621234565260ea61109c52815160408301513d6000853e8c8c82606087013350600060045af15059620005868e3d620004e4565b8d01620005948187620004d1565b5b82811015620005ab576000815260200162000595565b50929d5050505050505056fe60c06040523480156200001c57600080620000196200055c565b50505b506040516200582e3803806200582e833981810160405260a08110156200004d576000806200004a6200055c565b50505b8101908080519291906020018051929190602001805160405193929190846401000000008211156200008957600080620000866200055c565b50505b908301906020820185811115620000aa57600080620000a76200055c565b50505b8251640100000000811182820188101715620000d057600080620000cd6200055c565b50505b825250602001908051906020019080838360005b83811015620000fe578082015183820152602001620000e4565b50505050905090810190601f1680156200012c5780820380516001836020036101000a031916815260200191505b50604052602001805160405193929190846401000000008211156200015b57600080620001586200055c565b50505b9083019060208201858111156200017c57600080620001796200055c565b50505b8251640100000000811182820188101715620001a2576000806200019f6200055c565b50505b825250602001908051906020019080838360005b83811015620001d0578082015183820152602001620001b6565b50505050905090810190601f168015620001fe5780820380516001836020036101000a031916815260200191505b506040526020018051925082915084905083600382805162000225929160200190620005c9565b5060048180516200023b929160200190620005c9565b50601260056001816200024d62000674565b8160ff021916908360ff1602179062000265620006d6565b505050505060006200027c6200052860201b60201c565b9050806005610100816200028f62000674565b816001600160a01b0302191690836001600160a01b0316021790620002b3620006d6565b5050506001600160a01b03811660007f8be0079c531659141344cd1fd0a4f28419497f9722a3daafe3b4186f6b6457e060405160405180910390a3506001806006620002fe620006d6565b50505080600760006101000a816200031562000674565b816001600160a01b0302191690836001600160a01b031602179062000339620006d6565b505050620003fa816001600160a01b0316635a6c72d06040518163ffffffff1660e01b815260040160206040518083038186806200037662000725565b1580156200038e576000806200038b6200055c565b50505b505a6200039a62000772565b5050505050158015620003bc573d6000803e3d6000620003b96200055c565b50505b505050506040513d6020811015620003de57600080620003db6200055c565b50505b810190808051925050506200053a602090811b62002cc317901c565b6008600160681b816200040c62000674565b816001600160681b0302191690836001600160681b031602179062000430620006d6565b5050506200046d816001600160a01b03166323662bb96040518163ffffffff1660e01b815260040160206040518083038186806200037662000725565b600c600160681b816200047f62000674565b816001600160681b0302191690836001600160681b0316021790620004a3620006d6565b505050506000835111620004c157600080620004be6200055c565b50505b6000825111620004db57600080620004d86200055c565b50505b836001600160a01b0316856001600160a01b031614156200050657600080620005036200055c565b50505b5050506001600160601b0319606092831b8116608052911b1660a052620008d4565b60005a620005356200086a565b905090565b6000600160681b82106200055857600080620005556200055c565b50505b5090565b632a2a7adb598160e01b8152600481016020815285602082015260005b868110156200059657808601518282016040015260200162000579565b506020828760640184336000905af158601d01573d60011458600c01573d6000803e3d621234565260ea61109c52505050565b8280620005d562000674565b600181600116156101000203166002900490600052602060002090601f016020900481019282601f106200062057805160ff1916838001178562000618620006d6565b505062000666565b8280016001018562000631620006d6565b5050821562000666579182015b82811115620006665782518262000654620006d6565b5050916020019190600101906200063e565b5062000558929150620008b1565b6303daa959598160e01b8152836004820152602081602483336000905af158601d01573d60011458600c01573d6000803e3d621234565260ea61109c528051935060005b6040811015620006d157600082820152602001620006b8565b505050565b6322bd64c0598160e01b8152836004820152846024820152600081604483336000905af158601d01573d60011458600c01573d6000803e3d621234565260ea61109c52600081526020620006b8565b638435035b598160e01b8152836004820152602081602483336000905af158601d01573d60011458600c01573d6000803e3d621234565260ea61109c5280516000825293506020620006b8565b638540661f598160e01b8152620007a8565b8080831115620007915750815b92915050565b808083101562000791575090919050565b836004820152846024820152606060448201528660648201526084810160005b88811015620007e2578088015182820152602001620007c8565b506060828960a40184336000905af158601d01573d60011458600c01573d6000803e3d621234565260ea61109c52815160408301513d6000853e8b8b82606087013350600060045af15059620008398d3d62000797565b8c0162000847818762000784565b5b828110156200085e576000815260200162000848565b50929c50505050505050565b6373509064598160e01b8152602081600483336000905af158601d01573d60011458600c01573d6000803e3d621234565260ea61109c5280516000825293506020620006b8565b80821115620005585760008082620008c8620006d6565b505050600101620008b1565b60805160601c60a05160601c614efe62000930600039806111f45280611504528061192c528061218952806123e75280612f02525080610da052806111cf52806114d45280611907528061213b5280612ec55250614efe6000f3fe6080604052348015610019576000806100166149e6565b50505b50600436106101ec5760003560e01c806306fdde03146101fa57806307a8007014610279578063095ea7b3146102a15780630dfe1681146102ea57806311212d661461030e57806318160ddd146103345780631e1401f81461034e57806323b872dd1461038d57806323e8cae1146103cc5780633049105d14610412578063313ce567146104dc5780633732b394146104fa57806339509351146105025780633c6216a6146105375780634f64b2be146106465780635915d8061461066c5780635ed9156d146107385780636669302a146107905780636edc2c091461079857806370a08231146107c7578063715018a6146107f65780638da5cb5b146107fe57806393028d831461080657806395cad3c71461080e57806395d89b411461083d5780639aad141b146108455780639ea5ce0a14610874578063a457c2d714610908578063a9059cbb1461093d578063aa6ca80814610972578063c40d4d66146109b5578063d21220a7146109e4578063d5bcb9b5146109ec578063d7d3aab514610a39578063d9a0c21714610a68578063dd62ed3e14610a70578063ddca3f4314610aa7578063e331d03914610aaf578063e7ff42c914610b02578063f1ea604214610b31578063f2fde38b14610b39575b6000806101f76149e6565b50505b610202610b68565b60405160208082528190810183818151815260200191508051906020019080838360005b8381101561023e578082015183820152602001610226565b50505050905090810190601f16801561026b5780820380516001836020036101000a031916815260200191505b509250505060405180910390f35b61029f60048036036020811015610298576000806102956149e6565b50505b5035610c25565b005b6102d6600480360360408110156102c0576000806102bd6149e6565b50505b506001600160a01b038135169060200135610d80565b604051901515815260200160405180910390f35b6102f2610d9e565b6040516001600160a01b03909116815260200160405180910390f35b61029f6004803603602081101561032d5760008061032a6149e6565b50505b5035610dc2565b61033c610f14565b60405190815260200160405180910390f35b61033c6004803603606081101561036d5760008061036a6149e6565b50505b506001600160a01b03813581169160208101359091169060400135610f25565b6102d6600480360360608110156103ac576000806103a96149e6565b50505b506001600160a01b03813581169160208101359091169060400135610f5e565b6103d4610ff2565b60405180846001600160681b03168152602001836001600160681b031681526020018265ffffffffffff168152602001935050505060405180910390f35b61049d600480360360808110156104315760008061042e6149e6565b50505b81019080806040019060028060200260405190810160405280929190826002602002808284376000920191909152509194939260408082019350909150600290805190810160405280929190826002602002808284376000920191909152509194506110579350505050565b6040518281526020810182604080838360005b838110156104c85780820151838201526020016104b0565b505050509050019250505060405180910390f35b6104e461107f565b60405160ff909116815260200160405180910390f35b61033c61109b565b6102d6600480360360408110156105215760008061051e6149e6565b50505b506001600160a01b038135169060200135611116565b61060e60048036036060811015610556576000806105536149e6565b50505b81359190810190604081016020820135600160201b8111156105805760008061057d6149e6565b50505b82018360208201111561059b576000806105986149e6565b50505b803590602001918460208302840111600160201b831117156105c5576000806105c26149e6565b50505b919080806020026020016040519081016040528093929190818152602001838360200280828437600092019190915250929550505090356001600160a01b0316915061117b9050565b6040518082604080838360005b8381101561063357808201518382015260200161061b565b5050505090500191505060405180910390f35b6102f260048036036020811015610665576000806106626149e6565b50505b50356114ca565b61060e6004803603604081101561068b576000806106886149e6565b50505b81359190810190604081016020820135600160201b8111156106b5576000806106b26149e6565b50505b8201836020820111156106d0576000806106cd6149e6565b50505b803590602001918460208302840111600160201b831117156106fa576000806106f76149e6565b50505b91908080602002602001604051908101604052809392919081815260200183836020028082843760009201919091525092955061153b945050505050565b61076760048036036020811015610757576000806107546149e6565b50505b50356001600160a01b0316611556565b6040516001600160d81b03909216825264ffffffffff1660208201526040908101905180910390f35b61029f6115a2565b610767600480360360208110156107b7576000806107b46149e6565b50505b50356001600160a01b03166115fd565b61033c600480360360208110156107e6576000806107e36149e6565b50505b50356001600160a01b0316611618565b61029f611638565b6102f26116e5565b61029f611708565b61033c6004803603602081101561082d5760008061082a6149e6565b50505b50356001600160a01b0316611761565b6102026117bb565b61033c60048036036020811015610864576000806108616149e6565b50505b50356001600160a01b0316611861565b61049d600480360360a0811015610893576000806108906149e6565b50505b81019080806040019060028060200260405190810160405280929190826002602002808284376000920191909152509194939260408082019350909150600290805190810160405280929190826002602002808284376000920191909152509194505050356001600160a01b031690506118b1565b6102d660048036036040811015610927576000806109246149e6565b50505b506001600160a01b03813516906020013561207f565b6102d66004803603604081101561095c576000806109596149e6565b50505b506001600160a01b0381351690602001356120f5565b61097a612109565b6040516020808252819081018381815181526020019150805160209182019102808383600083156104c85780820151838201526020016104b0565b61029f600480360360208110156109d4576000806109d16149e6565b50505b50356001600160a01b03166121d8565b6102f26123e5565b61033c600480360360a0811015610a0b57600080610a086149e6565b50505b506001600160a01b038135811691602081013582169160408201359160608101359160809091013516612409565b61033c60048036036020811015610a5857600080610a556149e6565b50505b50356001600160a01b031661242b565b6102f26125b3565b61033c60048036036040811015610a8f57600080610a8c6149e6565b50505b506001600160a01b03813581169160200135166125d2565b61033c61260b565b61033c600480360360c0811015610ace57600080610acb6149e6565b50505b506001600160a01b0381358116916020810135821691604082013591606081013591608082013581169160a0013516612629565b61033c60048036036020811015610b2157600080610b1e6149e6565b50505b50356001600160a01b0316612a5a565b6103d4612ba7565b61029f60048036036020811015610b5857600080610b556149e6565b50505b50356001600160a01b0316612bf2565b6060600380610b75614a51565b600181600116156101000203166002900480601f016020809104026020016040519081016040528181529190602083018280610baf614a51565b60018160011615610100020316600290048015610c1b5780601f10610be9576101008083610bdb614a51565b040283529160200191610c1b565b820191906000526020600020905b81610c00614a51565b81529060010190602001808311610bf757829003601f168201915b5050505050905090565b670de0b6b3a7640000811115610c4357600080610c406149e6565b50505b610d7d5a610c4f614aac565b600f60005a610c5c614aac565b6001600160a01b03166001600160a01b0316815260200190815260200160002060405160208101604052908181610c91614a51565b905250610c9d84612ce2565b610cae5a610ca9614aac565b611618565b610cb6610f14565b60006007610cc2614a51565b906101000a90046001600160a01b03166001600160a01b03166323662bb96040518163ffffffff1660e01b81526004016020604051808303818680610d05614af2565b158015610d1a57600080610d176149e6565b50505b505a610d24614b3e565b5050505050158015610d43573d6000803e3d6000610d406149e6565b50505b505050506040513d6020811015610d6257600080610d5f6149e6565b50505b810190808051600c989796959493509150612d009050612d57565b50565b6000610d94610d8d612d72565b8484612d7d565b5060015b92915050565b7f000000000000000000000000000000000000000000000000000000000000000081565b662386f26fc10000811115610ddf57600080610ddc6149e6565b50505b610d7d5a610deb614aac565b600b60005a610df8614aac565b6001600160a01b03166001600160a01b0316815260200190815260200160002060405160208101604052908181610e2d614a51565b905250610e3984612ce2565b610e455a610ca9614aac565b610e4d610f14565b60006007610e59614a51565b906101000a90046001600160a01b03166001600160a01b0316635a6c72d06040518163ffffffff1660e01b81526004016020604051808303818680610e9c614af2565b158015610eb157600080610eae6149e6565b50505b505a610ebb614b3e565b5050505050158015610eda573d6000803e3d6000610ed76149e6565b50505b505050506040513d6020811015610ef957600080610ef66149e6565b50505b8101908080516008989796959493509150612e419050612d57565b60006002610f20614a51565b905090565b6000610f54848484610f368861242b565b610f3f88612a5a565b610f4761260b565b610f4f61109b565b612e98565b90505b9392505050565b6000610f6b848484612fdf565b610fe884610f77612d72565b610fe385604051606081016040526028808252614e7160208301396001600160a01b038a1660009081526001602052604090206000610fb4612d72565b6001600160a01b03166001600160a01b03168152602001908152602001600020610fdc614a51565b9190613107565b612d7d565b5060019392505050565b6000808080600c611001614a51565b6001600160681b036101009290920a900416600d600c61101f614a51565b6001600160681b036101009290920a900416601a600c61103d614a51565b906101000a900465ffffffffffff16925092509250909192565b6000611061614c29565b61107484845a61106f614aac565b6118b1565b915091509250929050565b600080600561108c614a51565b906101000a900460ff16905090565b6000610f20600c6040516060810160405290816000826110b9614a51565b6001600160681b036101009290920a9004168152602001600d826110db614a51565b6001600160681b036101009290920a9004168152602001601a826110fd614a51565b65ffffffffffff6101009290920a900416905250613126565b6000610d94611123612d72565b84610fe38560016000611134612d72565b6001600160a01b03166001600160a01b031681526020019081526020016000206001600160a01b038916600090815260209190915260409020611175614a51565b9061319b565b611183614c29565b6002600661118f614a51565b14156111a3576000806111a06149e6565b50505b60028060066111b0614c44565b5050506111bb614c29565b604051604080820190526001600160a01b037f0000000000000000000000000000000000000000000000000000000000000000811682527f000000000000000000000000000000000000000000000000000000000000000016602082015290506000611225610f14565b90506112395a611233614aac565b876131bc565b60005b600281101561144757600083826002811061125357fe5b602002015190506000816001600160a01b03166370a082315a63996d79a5598160e01b8152602081600483336000905af158601d01573d60011458600c01573d6000803e3d621234565260ea61109c528051925060005b60408110156112c1576000828201526020016112aa565b5050506040516001600160e01b031960e084901b1681526001600160a01b03909116600482015260240160206040518083038186806112fe614af2565b158015611313576000806113106149e6565b50505b505a61131d614b3e565b505050505015801561133c573d6000803e3d60006113396149e6565b50505b505050506040513d602081101561135b576000806113586149e6565b50505b81019080805193506000925061137f9150869050611379848d613292565b906132bf565b90506113956001600160a01b03841689836132e7565b808785600281106113a257fe5b60200201528851841015806113ca57508884815181106113be57fe5b60200260200101518110155b6113dc576000806113d96149e6565b50505b61140c826113ea878d613343565b6001600160a01b03861660009081526010602052889060409020929190613361565b61143c8261141a878d613343565b6001600160a01b03861660009081526011602052889060409020929190613361565b50505060010161123c565b50836001600160a01b03165a61145b614aac565b6001600160a01b03167f3cae9923fd3c2f468aa25a8ef687923e37f957459557c0380fd06526c0b8cdbc888651602088015160405180848152602001838152602001828152602001935050505060405180910390a350506001600681906114c0614c44565b5050509392505050565b6000816114f857507f0000000000000000000000000000000000000000000000000000000000000000611536565b816001141561152857507f0000000000000000000000000000000000000000000000000000000000000000611536565b6000806115336149e6565b50505b919050565b611543614c29565b610f5783835a611551614aac565b61117b565b60116020528060005260406000209050600081611571614a51565b6001600160d81b036101009290920a90041690601b8161158f614a51565b906101000a900464ffffffffff16905082565b6115fb5a6115ae614aac565b600f60005a6115bb614aac565b6001600160a01b03166001600160a01b03168152602001908152602001600020604051602081016040529081816115f0614a51565b905250610c9d6133dc565b565b60106020528060005260406000209050600081611571614a51565b6001600160a01b0381166000908152602081905260408120610d98614a51565b611640612d72565b6001600160a01b03166116516116e5565b6001600160a01b03161461166d5760008061166a6149e6565b50505b60006001600561167b614a51565b906101000a90046001600160a01b03166001600160a01b0316600080516020614e9983398151915260405160405180910390a360006005610100816116be614a51565b816001600160a01b0302191690836001600160a01b03160217906116e0614c44565b505050565b6000600160056116f3614a51565b906101000a90046001600160a01b0316905090565b6115fb5a611714614aac565b600b60005a611721614aac565b6001600160a01b03166001600160a01b0316815260200190815260200160002060405160208101604052908181611756614a51565b905250610e396133dc565b6000610d98816007611771614a51565b6001600160a01b038581166000908152600f6020526101009390930a90910416906323662bb99060409020604051602081016040529081816117b1614a51565b90525091906133f7565b60606004806117c8614a51565b600181600116156101000203166002900480601f016020809104026020016040519081016040528181529190602083018280611802614a51565b60018160011615610100020316600290048015610c1b5780601f1061182e576101008083610bdb614a51565b820191906000526020600020905b81611845614a51565b8152906001019060200180831161183c57509395945050505050565b6000610d98816007611871614a51565b6001600160a01b038581166000908152600b6020526101009390930a9091041690635a6c72d09060409020604051602081016040529081816117b1614a51565b60006118bb614c29565b600260066118c7614a51565b14156118db576000806118d86149e6565b50505b60028060066118e8614c44565b5050506118f3614c29565b604051604080820190526001600160a01b037f0000000000000000000000000000000000000000000000000000000000000000811682527f00000000000000000000000000000000000000000000000000000000000000001660208201529050600061195d610f14565b905080611b23576119716103e86063613292565b93506119d75a63996d79a5598160e01b8152602081600483336000905af158601d01573d60011458600c01573d6000803e3d621234565260ea61109c528051925060005b60408110156119cc576000828201526020016119b5565b5050506103e86134a3565b60005b6002811015611b1d576119fd858983600281106119f357fe5b6020020151613563565b94506000888260028110611a0d57fe5b602002015111611a2557600080611a226149e6565b50505b868160028110611a3157fe5b6020020151888260028110611a4257fe5b60200201511015611a5b57600080611a586149e6565b50505b611af35a611a67614aac565b5a63996d79a5598160e01b8152602081600483336000905af158601d01573d60011458600c01573d6000803e3d621234565260ea61109c528051925060005b6040811015611abd57600082820152602001611aa6565b5050508a8460028110611acc57fe5b6020020151868560028110611add57fe5b60200201516001600160a01b031692919061357a565b878160028110611aff57fe5b6020020151848260028110611b1057fe5b60200201526001016119da565b50611fdc565b611b2b614c29565b60005b6002811015611c6b57838160028110611b4357fe5b60200201516001600160a01b03166370a082315a63996d79a5598160e01b8152602081600483336000905af158601d01573d60011458600c01573d6000803e3d621234565260ea61109c528051925060005b6040811015611bac57600082820152602001611b95565b5050506040516001600160e01b031960e084901b1681526001600160a01b0390911660048201526024016020604051808303818680611be9614af2565b158015611bfe57600080611bfb6149e6565b50505b505a611c08614b3e565b5050505050158015611c27573d6000803e3d6000611c246149e6565b50505b505050506040513d6020811015611c4657600080611c436149e6565b50505b810190808051925084915083905060028110611c5e57fe5b6020020152600101611b2e565b50600019945060005b6002811015611cbf57611cb586611cb0848460028110611c9057fe5b60200201516113798d8660028110611ca457fe5b60200201518890613292565b6135e3565b9550600101611c74565b508460005b6002811015611f385760008a8260028110611cdb57fe5b602002015111611cf357600080611cf06149e6565b50505b6000611d1b856113796001880361117587898860028110611d1057fe5b602002015190613292565b9050898260028110611d2957fe5b6020020151811015611d4357600080611d406149e6565b50505b611db55a611d4f614aac565b5a63996d79a5598160e01b8152602081600483336000905af158601d01573d60011458600c01573d6000803e3d621234565260ea61109c528051925060005b6040811015611da557600082820152602001611d8e565b50505083898660028110611add57fe5b611ee9848360028110611dc457fe5b6020020151878460028110611dd557fe5b60200201516001600160a01b03166370a082315a63996d79a5598160e01b8152602081600483336000905af158601d01573d60011458600c01573d6000803e3d621234565260ea61109c528051925060005b6040811015611e3e57600082820152602001611e27565b5050506040516001600160e01b031960e084901b1681526001600160a01b0390911660048201526024016020604051808303818680611e7b614af2565b158015611e9057600080611e8d6149e6565b50505b505a611e9a614b3e565b5050505050158015611eb9573d6000803e3d6000611eb66149e6565b50505b505050506040513d6020811015611ed857600080611ed56149e6565b50505b810190808051939250506133439050565b878360028110611ef557fe5b6020020152611f2d88611cb0868560028110611f0d57fe5b60200201516113798b8760028110611f2157fe5b60200201518a90613292565b975050600101611cc4565b5060005b6002811015611fd857611fa1838260028110611f5457fe5b6020020151611f63868a61319b565b86601160008a8760028110611f7457fe5b60200201516001600160a01b03166001600160a01b03168152602001908152602001600020929190613361565b611fd0838260028110611fb057fe5b6020020151611fbf868a61319b565b86601060008a8760028110611f7457fe5b600101611f3c565b5050505b60008411611ff257600080611fef6149e6565b50505b611ffc85856134a3565b846001600160a01b03165a61200f614aac565b6001600160a01b03167f8bab6aed5a508937051a144e61d6e61336834a66aaee250a00613ae6f744c422868651602088015160405180848152602001838152602001828152602001935050505060405180910390a35050600160068190612074614c44565b505050935093915050565b6000610d9461208c612d72565b84610fe385604051606081016040526025808252614ed96020830139600160006120b4612d72565b6001600160a01b03166001600160a01b031681526020019081526020016000206001600160a01b038a16600090815260209190915260409020610fdc614a51565b6000610d94612102612d72565b8484612fdf565b60606002604051908082528060200260200182016040528015612136578160200160208202803683370190505b5090507f00000000000000000000000000000000000000000000000000000000000000008160008151811061216757fe5b60200260200101906001600160a01b031690816001600160a01b0316815250507f0000000000000000000000000000000000000000000000000000000000000000816001815181106121b557fe5b60200260200101906001600160a01b031690816001600160a01b03168152505090565b6121e0612d72565b6001600160a01b03166121f16116e5565b6001600160a01b03161461220d5760008061220a6149e6565b50505b80600760018161221b614a51565b816001600160a01b0302191690836001600160a01b031602179061223d614c44565b5050505a63996d79a5598160e01b8152602081600483336000905af158601d01573d60011458600c01573d6000803e3d621234565260ea61109c528051925060005b60408110156122965760008282015260200161227f565b5050506001600160a01b03166393028d836040518163ffffffff1660e01b8152600401600060405180830381600087806122ce614af2565b1580156122e3576000806122e06149e6565b50505b505a6122ed614c92565b50505050505015801561230d573d6000803e3d600061230a6149e6565b50505b505050505a63996d79a5598160e01b8152602081600483336000905af158601d01573d60011458600c01573d6000803e3d621234565260ea61109c528051925060005b604081101561236757600082820152602001612350565b5050506001600160a01b0316636669302a6040518163ffffffff1660e01b81526004016000604051808303816000878061239f614af2565b1580156123b4576000806123b16149e6565b50505b505a6123be614c92565b5050505050501580156123de573d6000803e3d60006123db6149e6565b50505b5050505050565b7f000000000000000000000000000000000000000000000000000000000000000081565b600061242186868686865a61241c614aac565b612629565b9695505050505050565b600080826001600160a01b03166370a082315a63996d79a5598160e01b8152602081600483336000905af158601d01573d60011458600c01573d6000803e3d621234565260ea61109c528051925060005b60408110156124935760008282015260200161247c565b5050506040516001600160e01b031960e084901b1681526001600160a01b03909116600482015260240160206040518083038186806124d0614af2565b1580156124e5576000806124e26149e6565b50505b505a6124ef614b3e565b505050505015801561250e573d6000803e3d600061250b6149e6565b50505b505050506040513d602081101561252d5760008061252a6149e6565b50505b8101908080516001600160a01b03871660009081526010602052909450610f5793506125ad925084915060409020604051604080820190529081600082612572614a51565b6001600160d81b036101009290920a9004168152602001601b82612594614a51565b64ffffffffff6101009290920a900416905250906135f2565b82613563565b600060076125bf614a51565b906101000a90046001600160a01b031681565b6001600160a01b03821660009081526001602052604081206001600160a01b038316600090815260209190915260409020610f57614a51565b6000610f2060086040516060810160405290816000826110b9614a51565b600060026006612637614a51565b141561264b576000806126486149e6565b50505b6002806006612658614c44565b5050506007600090612668614a51565b906101000a90046001600160a01b03166001600160a01b03166322f3e2d46040518163ffffffff1660e01b815260040160206040518083038186806126ab614af2565b1580156126c0576000806126bd6149e6565b50505b505a6126ca614b3e565b50505050501580156126e9573d6000803e3d60006126e66149e6565b50505b505050506040513d6020811015612708576000806127056149e6565b50505b8101908080519250612725915050576000806127226149e6565b50505b61272d614d58565b6040518060400160405280896001600160a01b03166370a082315a63996d79a5598160e01b8152602081600483336000905af158601d01573d60011458600c01573d6000803e3d621234565260ea61109c528051925060005b604081101561279d57600082820152602001612786565b5050506040516001600160e01b031960e084901b1681526001600160a01b03909116600482015260240160206040518083038186806127da614af2565b1580156127ef576000806127ec6149e6565b50505b505a6127f9614b3e565b5050505050158015612818573d6000803e3d60006128156149e6565b50505b505050506040513d6020811015612837576000806128346149e6565b50505b81019080805184525050506020016001600160a01b0389166370a082315a63996d79a5598160e01b8152602081600483336000905af158601d01573d60011458600c01573d6000803e3d621234565260ea61109c528051925060005b60408110156128aa57600082820152602001612893565b5050506040516001600160e01b031960e084901b1681526001600160a01b03909116600482015260240160206040518083038186806128e7614af2565b1580156128fc576000806128f96149e6565b50505b505a612906614b3e565b5050505050158015612925573d6000803e3d60006129226149e6565b50505b505050506040513d6020811015612944576000806129416149e6565b50505b810190808051909352509192506000915061295f9050614d58565b612967614d58565b604051806040016040528061297a61260b565b815260200161298761109b565b9052905061299a8b8b8b8b8a8987613653565b90965090935091506001600160a01b03808c169087165a6129b9614aac565b6001600160a01b03167fbd99c6719f088aa0abd9e7b7a4a635d1f931601e9f304b538dc42be25d8c65c68d878a885189602001518f6040516001600160a01b03968716815260208101959095526040808601949094526060850192909252608084015290921660a082015260c001905180910390a4612a3b83868987856138e4565b50505050600160068190612a4d614c44565b5050509695505050505050565b600080826001600160a01b03166370a082315a63996d79a5598160e01b8152602081600483336000905af158601d01573d60011458600c01573d6000803e3d621234565260ea61109c528051925060005b6040811015612ac257600082820152602001612aab565b5050506040516001600160e01b031960e084901b1681526001600160a01b0390911660048201526024016020604051808303818680612aff614af2565b158015612b1457600080612b116149e6565b50505b505a612b1e614b3e565b5050505050158015612b3d573d6000803e3d6000612b3a6149e6565b50505b505050506040513d6020811015612b5c57600080612b596149e6565b50505b8101908080516001600160a01b03871660009081526011602052909450610f579350612ba1925084915060409020604051604080820190529081600082612572614a51565b826135e3565b60008080806008612bb6614a51565b6001600160681b036101009290920a900416600d6008612bd4614a51565b6001600160681b036101009290920a900416601a600861103d614a51565b612bfa612d72565b6001600160a01b0316612c0b6116e5565b6001600160a01b031614612c2757600080612c246149e6565b50505b6001600160a01b038116612c4357600080612c406149e6565b50505b6001600160a01b03811660016005612c59614a51565b906101000a90046001600160a01b03166001600160a01b0316600080516020614e9983398151915260405160405180910390a380600561010081612c9b614a51565b816001600160a01b0302191690836001600160a01b0316021790612cbd614c44565b50505050565b6000600160681b8210612cde57600080612cdb6149e6565b50505b5090565b612cea614d6f565b6040516020810160405260019290920182525090565b836001600160a01b03167fce0cf859d853e1944032294143a1bf3ad799998ae77acbeb6c4d9b20d691024084848460405192835290151560208301526040808301919091526060909101905180910390a250505050565b612d68888888888889898989613e46565b5050505050505050565b60005a610f20614aac565b6001600160a01b038316612d9957600080612d966149e6565b50505b6001600160a01b038216612db557600080612db26149e6565b50505b6001600160a01b038316600090815260016020528190604090206001600160a01b0384166000908152602091909152604090208190612df2614c44565b505050816001600160a01b0316836001600160a01b03167f8c5be1e5ebec7d5bd14f71427d1e84f3dd0314c0f7b2291e5b200ac8c7c3b9258360405190815260200160405180910390a3505050565b836001600160a01b03167fe117cae46817b894b41a4412b73ae0ba746a5707b94e02d83b4c6502010b11ac84848460405192835290151560208301526040808301919091526060909101905180910390a250505050565b6000866001600160a01b0316886001600160a01b03161115612eb8579596955b600086118015612ef957507f00000000000000000000000000000000000000000000000000000000000000006001600160a01b0316886001600160a01b0316145b8015612f3657507f00000000000000000000000000000000000000000000000000000000000000006001600160a01b0316876001600160a01b0316145b15612fd4576000612f5d612f56670de0b6b3a76400006113798a88613292565b8890613343565b90506000612f6b878361319b565b90506000612f7d82611379858a613292565b90506000612fa6612f8e8786613292565b612fa0670de0b6b3a764000086613292565b90613343565b90506000612fbc670de0b6b3a764000085613292565b9050612fcc816113798585613292565b955050505050505b979650505050505050565b6001600160a01b038316612ffb57600080612ff86149e6565b50505b6001600160a01b038216613017576000806130146149e6565b50505b613022838383614112565b61305d81604051606081016040526026808252614e4b60208301396001600160a01b0386166000908152602081905260409020610fdc614a51565b6001600160a01b0384166000908152602081905260409020819061307f614c44565b5050506001600160a01b038216600090815260208190526130a890829060409020611175614a51565b6001600160a01b038316600090815260208190526040902081906130ca614c44565b505050816001600160a01b0316836001600160a01b0316600080516020614eb98339815191528360405190815260200160405180910390a3505050565b60008383111561311f5760008061311c6149e6565b50505b5050900390565b60008061314962015180611cb0856040015165ffffffffffff165a612fa0614d80565b9050600061315a6201518083613343565b90506131936201518061137961317e8588602001516001600160681b031690613292565b6111758589516001600160681b031690613292565b949350505050565b600082820183811015610f57576000806131b36149e6565b50509392505050565b6001600160a01b0382166131d8576000806131d56149e6565b50505b6131e482600083614112565b61321f81604051606081016040526022808252614e2960208301396001600160a01b0385166000908152602081905260409020610fdc614a51565b6001600160a01b03831660009081526020819052604090208190613241614c44565b505050613252816002612fa0614a51565b80600261325d614c44565b5060009150506001600160a01b038316600080516020614eb98339815191528360405190815260200160405180910390a35050565b6000826132a157506000610d98565b828202828482816132ae57fe5b0414610f57576000806131b36149e6565b60008082116132d6576000806132d36149e6565b50505b8183816132df57fe5b049392505050565b6116e08363a9059cbb60e01b84846040516001600160a01b0390921660248301526044820152606401604051602081830303815290604052906001600160e01b0319166020820180516001600160e01b031690911790526144bc565b60008282111561335b576000806133586149e6565b50505b50900390565b612cbd846133d783611379613377826001613343565b611175886133d18c604051604080820190529081600082613396614a51565b6001600160d81b036101009290920a9004168152602001601b826133b8614a51565b64ffffffffff6101009290920a9004169052508c6135f2565b90613292565b61454a565b6133e4614d6f565b6040516020810160405260008152905090565b6000808451111561340e5760018451039050610f57565b82826040518163ffffffff1660e01b81526004016020604051808303818680613435614af2565b15801561344a576000806134476149e6565b50505b505a613454614b3e565b5050505050158015613473573d6000803e3d60006134706149e6565b50505b505050506040513d60208110156134925760008061348f6149e6565b50505b810190808051979650505050505050565b6001600160a01b0382166134bf576000806134bc6149e6565b50505b6134cb60008383614112565b6134d9816002611175614a51565b8060026134e4614c44565b5050506001600160a01b0382166000908152602081905261350d90829060409020611175614a51565b6001600160a01b0383166000908152602081905260409020819061352f614c44565b5050506001600160a01b0382166000600080516020614eb98339815191528360405190815260200160405180910390a35050565b6000818310156135735781610f57565b5090919050565b612cbd846323b872dd60e01b8585856040516001600160a01b0393841660248201529190921660448201526064810191909152608401604051602081830303815290604052906001600160e01b0319166020820180516001600160e01b031690911790526144bc565b60008183106135735781610f57565b600080613612603c611cb0866020015164ffffffffff165a612fa0614d80565b90506000613621603c83613343565b905061364a603c6113796136358786613292565b611175858a516001600160d81b031690613292565b95945050505050565b60008061365e614d58565b61369285516001600160a01b038c166000908152601060205260409020604051604080820190529081600082612572614a51565b81526136a081518651613563565b81526136d960208601516001600160a01b038b166000908152601160205260409020604051604080820190529081600082612572614a51565b602082019081526136ef905186602001516135e3565b602082015261376b5a613700614aac565b5a63996d79a5598160e01b8152602081600483336000905af158601d01573d60011458600c01573d6000803e3d621234565260ea61109c528051925060005b60408110156137565760008282015260200161373f565b5050506001600160a01b038d1691908b61357a565b6137c685518b6001600160a01b03166370a082315a63996d79a5598160e01b8152602081600483336000905af158601d01573d60011458600c01573d6000803e3d621234565260ea61109c5280516000825292506020611e27565b92506137e18a8a858451856020015189518a60200151612e98565b91506000821180156137f35750868210155b613805576000806138026149e6565b50505b6138196001600160a01b038a1687846132e7565b845181511461384f5761384f6138318483519061319b565b6001600160a01b038c1660009081526010602052604090209061454a565b846020015181602001511461388e5761388e61387083836020015190613343565b6001600160a01b038b1660009081526011602052604090209061454a565b6138b185516001600160a01b038c166000908152601160205260409020906145ca565b6138d785602001516001600160a01b038b166000908152601060205260409020906145ca565b9750975097945050505050565b60008080808060076138f4614a51565b906101000a90046001600160a01b03166001600160a01b031663172886e76040518163ffffffff1660e01b81526004016080604051808303818680613937614af2565b15801561394c576000806139496149e6565b50505b505a613956614b3e565b5050505050158015613975573d6000803e3d60006139726149e6565b50505b505050506040513d6080811015613994576000806139916149e6565b50505b810190808051929190602001805192919060200180519291906020018051959950939750919550929350600092508291506a0c097ce7bc90715b34b9f160241b90506139f189516113796139ea8f8d519061319b565b8490613292565b9050613a0d89602001516113796139ea8e8d6020015190613343565b90506a0c097ce7bc90715b34b9f160241b811115613dcf57613a2e81614628565b90506000613a5382611379613a4b82670de0b6b3a7640000613343565b6133d1610f14565b90506001600160a01b038b16613a6a576000613a80565b613a80670de0b6b3a7640000611379838b613292565b93506001600160a01b038616613a97576000613aad565b613aad670de0b6b3a7640000611379838a613292565b92506001600160a01b038516613ae2578315613acd57613acd8b856134a3565b8215613add57613add86846134a3565b613dcd565b6000841180613af15750600083115b15613dcd576000808411613b06576000613b09565b60015b60008611613b18576000613b1b565b60015b0160ff1690506060816001600160401b0381118015613b4257600080613b3f6149e6565b50505b50604051908082528060200260200182016040528015613b6c578160200160208202803683370190505b5090506060826001600160401b0381118015613b9057600080613b8d6149e6565b50505b50604051908082528060200260200182016040528015613bba578160200160208202803683370190505b5090508d82600081518110613bcb57fe5b60200260200101906001600160a01b031690816001600160a01b0316815250508681600081518110613bf957fe5b60209081029190910101528515613c575788826001850381518110613c1a57fe5b60200260200101906001600160a01b031690816001600160a01b03168152505085816001850381518110613c4a57fe5b6020026020010181815250505b876001600160a01b0316630931753c83836040518363ffffffff1660e01b8152600401808060200180602001838103835285818151815260200191508051906020019060200280838360005b83811015613cbb578082015183820152602001613ca3565b50505050905001838103825284818151815260200191508051906020019060200280838360005b83811015613cfa578082015183820152602001613ce2565b5050505090500194505050505060006040518083038160008780613d1c614af2565b158015613d3157600080613d2e6149e6565b50505b505a613d3b614c92565b505050505050925050508015613d4f575060015b613db6577f08c379a0afcc32b1a39302f7cb8073359698411ab5fd6e3edb2c02c0b5fba8aa6040516020808252601690820152751d5c19185d1954995dd85c991cca0a4819985a5b195960521b6040808301919091526060909101905180910390a1613dc9565b613dc988613dc4898961319b565b6134a3565b5050505b505b7f2a368c7f33bb86e2d999940a3989d849031aff29b750f67947e6b8e8c3d2ffd689518a602001518a518b60200151878760405180878152602001868152602001858152602001848152602001838152602001828152602001965050505050505060405180910390a1505050505050505050505050565b600089600101613e54614a51565b905080600060028c01613e65614a51565b905080613e718b614682565b15613e8757613e80818a613343565b9050613ea8565b613ea5613e9e613e978d8961468d565b8b90613292565b8490613343565b92505b613eb18a614682565b15613ec757613ec0818961319b565b9050613ee8565b613ee5613ede613ed78c8961468d565b8a90613292565b849061319b565b92505b838314613f0157828060018f01613efd614c44565b5050505b818114613f1a57808060028f01613f16614c44565b5050505b60008715613f3f57613f3a88611379613f33858b613292565b879061319b565b613f41565b865b9050613f4b614dc6565b8e604051606081016040529081600082613f63614a51565b6001600160681b036101009290920a9004168152602001600d82613f85614a51565b6001600160681b036101009290920a9004168152602001601a82613fa7614a51565b65ffffffffffff6101009290920a900416905250905060208101516001600160681b031682146140a5578e613fe3613fde83613126565b612cc3565b613fec84612cc3565b613ffd5a613ff8614d80565b6146aa565b83600081600d8482600160d01b81614013614a51565b8165ffffffffffff021916908365ffffffffffff16021790614033614c44565b5050508591906101000a81614046614a51565b816001600160681b0302191690836001600160681b0316021790614068614c44565b5050508491906101000a8161407b614a51565b816001600160681b0302191690836001600160681b031602179061409d614c44565b505050505050505b506140b290508a8c6146c2565b6140e2576001600160a01b038c16600090815260038e016020528a90604090208151816140dd614c44565b505050505b6141038c6140f08c8961468d565b6140f98d614682565b8b8963ffffffff16565b50505050505050505050505050565b816001600160a01b0316836001600160a01b03161415614131576116e0565b600080600761413e614a51565b906101000a90046001600160a01b031690506000806001600160a01b0316856001600160a01b0316148061421f5750816001600160a01b0316633b90b9bf866040516001600160e01b031960e084901b1681526001600160a01b03909116600482015260240160206040518083038186806141b7614af2565b1580156141cc576000806141c96149e6565b50505b505a6141d6614b3e565b50505050501580156141f5573d6000803e3d60006141f26149e6565b50505b505050506040513d6020811015614214576000806142116149e6565b50505b810190808051925050505b15905060006001600160a01b03851615806142e75750826001600160a01b0316633b90b9bf866040516001600160e01b031960e084901b1681526001600160a01b039091166004820152602401602060405180830381868061427f614af2565b158015614294576000806142916149e6565b50505b505a61429e614b3e565b50505050501580156142bd573d6000803e3d60006142ba6149e6565b50505b505050506040513d60208110156142dc576000806142d96149e6565b50505b810190808051925050505b159050811580156142f6575080155b15614303575050506116e0565b60006001600160a01b03871661431a576000614323565b61432387611618565b905060006001600160a01b03871661433c576000614345565b61434587611618565b905060006143876001600160a01b03891615614362576000614364565b875b612fa06001600160a01b038c161561437d57600061437f565b895b611175610f14565b9050614391614de5565b6040518061010001604052808b6001600160a01b031681526020018a6001600160a01b0316815260200187151581526020018615158152602001898152602001858152602001848152602001838152509050600080886001600160a01b031663edb7a6fa6040518163ffffffff1660e01b815260040160408051808303818680614419614af2565b15801561442e5760008061442b6149e6565b50505b505a614438614b3e565b5050505050158015614457573d6000803e3d60006144546149e6565b50505b505050506040513d6040811015614476576000806144736149e6565b50505b810190808051929190602001805193955092935061449f9250859150849050612e4160086146d0565b6144ae8382612d00600c6146d0565b505050505050505050505050565b6060614507826040516040808201905260208082527f5361666545524332303a206c6f772d6c6576656c2063616c6c206661696c6564908201526001600160a01b0386169190614867565b90506000815111156116e05760208101815160208110156145305760008061452d6149e6565b50505b81019080805192506116e0915050576000806123de6149e6565b61455381614946565b6145645a61455f614d80565b61495e565b8360008282600160d81b81614577614a51565b8164ffffffffff021916908364ffffffffff16021790614595614c44565b5050508391906101000a816145a8614a51565b816001600160d81b0302191690836001600160d81b03160217906123db614c44565b614624826133d7846040516040808201905290816000826145e9614a51565b6001600160d81b036101009290920a9004168152602001601b8261460b614a51565b64ffffffffff6101009290920a900416905250846135f2565b5050565b6000600382111561466c5781600160028204015b818110156146645780915060028182868161465357fe5b04018161465c57fe5b04905061463c565b509050611536565b811561467a57506001611536565b506000611536565b600081511592915050565b600080835111156146a45760018351039050610d98565b50919050565b6000600160301b8210612cde57600080612cdb6149e6565b600081518351149392505050565b6146d8614d6f565b60038201600086516001600160a01b03166001600160a01b0316815260200190815260200160002060405160208101604052908181614715614a51565b9052509050614722614d6f565b82600301600087602001516001600160a01b03166001600160a01b0316815260200190815260200160002060405160208101604052908181614762614a51565b905250905061477082614682565b8015614780575061478081614682565b801561478d575085604001515b801561479a575085606001515b156147fa576147cc86516147ae848861468d565b60016147c38a608001518b60a0015190613343565b8863ffffffff16565b6147f386602001516147de838861468d565b60016147c38a608001518b60c001519061319b565b5050612cbd565b856040015115614834576148348651838860a001516148228a608001518b60a0015190613343565b8a60e001518894939291908b8b614976565b85606001511561485f5761485f8660200151828860c001516148228a608001518b60c001519061319b565b505050505050565b60606148728461499a565b614884576000806148816149e6565b50505b60006060856001600160a01b0316856040518082805190602001908083835b602083106148c25780518252601f1990920191602091820191016148a3565b6001836020036101000a0380198251168184511680821785525050505050509050019150506000604051808303816000865a6148fc614c92565b5050505050509150503d8060008114614931576040513d603f01601f191681016040523d815291503d6000602084013e614936565b606091505b50915091506124218282866149af565b6000600160d81b8210612cde57600080612cdb6149e6565b6000600160281b8210612cde57600080612cdb6149e6565b612d6888888887156149885789614990565b6149906133dc565b8989898989613e46565b600080826149a6614af2565b15159392505050565b606083156149be575081610f57565b6000835111156149df57825180846020016149d76149e6565b505050610f57565b6000806131b35b632a2a7adb598160e01b8152600481016020815285602082015260005b86811015614a1e578086015182820160400152602001614a03565b506020828760640184336000905af158601d01573d60011458600c01573d6000803e3d621234565260ea61109c52505050565b6303daa959598160e01b8152836004820152602081602483336000905af158601d01573d60011458600c01573d6000803e3d621234565260ea61109c528051935060005b60408110156116e057600082820152602001614a95565b6373509064598160e01b8152602081600483336000905af158601d01573d60011458600c01573d6000803e3d621234565260ea61109c5280516000825293506020614a95565b638435035b598160e01b8152836004820152602081602483336000905af158601d01573d60011458600c01573d6000803e3d621234565260ea61109c5280516000825293506020614a95565b638540661f598160e01b8152614b6f565b8080831115610d98575090919050565b8080831015610d98575090919050565b836004820152846024820152606060448201528660648201526084810160005b88811015614ba7578088015182820152602001614b8f565b506060828960a40184336000905af158601d01573d60011458600c01573d6000803e3d621234565260ea61109c52815160408301513d6000853e8b8b82606087013350600060045af15059614bfc8d3d614b5f565b8c01614c088187614b4f565b5b82811015614c1d5760008152602001614c09565b50929c50505050505050565b60405160408082018152600290829080368337509192915050565b6322bd64c0598160e01b8152836004820152846024820152600081604483336000905af158601d01573d60011458600c01573d6000803e3d621234565260ea61109c52600081526020614a95565b6385979f76598160e01b8152836004820152846024820152606060448201528760648201526084810160005b89811015614cd6578089015182820152602001614cbe565b506060828a60a40184336000905af158601d01573d60011458600c01573d6000803e3d621234565260ea61109c52815160408301513d6000853e8c8c82606087013350600060045af15059614d2b8e3d614b5f565b8d01614d378187614b4f565b5b82811015614d4c5760008152602001614d38565b50929d50505050505050565b604051604080820190526000808252602082015290565b604051602081016040526000815290565b63bdbf8c36598160e01b8152602081600483336000905af158601d01573d60011458600c01573d6000803e3d621234565260ea61109c5280516000825293506020614a95565b6040516060810160409081526000808352602083018190529082015290565b60405161010081016040908152600080835260208301819052908201819052606082018190526080820181905260a0820181905260c0820181905260e08201529056fe45524332303a206275726e20616d6f756e7420657863656564732062616c616e636545524332303a207472616e7366657220616d6f756e7420657863656564732062616c616e636545524332303a207472616e7366657220616d6f756e74206578636565647320616c6c6f77616e63658be0079c531659141344cd1fd0a4f28419497f9722a3daafe3b4186f6b6457e0ddf252ad1be2c89b69c2b068fc378daa952ba7f163c4a11628f55a4df523b3ef45524332303a2064656372656173656420616c6c6f77616e63652062656c6f77207a65726f",
  "devdoc": {
    "kind": "dev",
    "methods": {},
    "version": 1
  },
  "userdoc": {
    "kind": "user",
    "methods": {},
    "version": 1
  },
  "storageLayout": {
    "storage": [],
    "types": null
  }
}