{
  "address": "0x1D0aE300Eec4093cee4367c00b228D10a5C7aC63",
  "abi": [
    {
      "inputs": [
        {
          "internalType": "string",
          "name": "name_",
          "type": "string"
        },
        {
          "internalType": "string",
          "name": "symbol_",
          "type": "string"
        }
      ],
      "stateMutability": "nonpayable",
      "type": "constructor"
    },
    {
      "anonymous": false,
      "inputs": [
        {
          "indexed": true,
          "internalType": "address",
          "name": "owner",
          "type": "address"
        },
        {
          "indexed": true,
          "internalType": "address",
          "name": "spender",
          "type": "address"
        },
        {
          "indexed": false,
          "internalType": "uint256",
          "name": "value",
          "type": "uint256"
        }
      ],
      "name": "Approval",
      "type": "event"
    },
    {
      "anonymous": false,
      "inputs": [
        {
          "indexed": true,
          "internalType": "address",
          "name": "sender",
          "type": "address"
        },
        {
          "indexed": true,
          "internalType": "address",
          "name": "receiver",
          "type": "address"
        },
        {
          "indexed": false,
          "internalType": "uint256",
          "name": "share",
          "type": "uint256"
        },
        {
          "indexed": false,
          "internalType": "uint256",
          "name": "token0Amount",
          "type": "uint256"
        },
        {
          "indexed": false,
          "internalType": "uint256",
          "name": "token1Amount",
          "type": "uint256"
        }
      ],
      "name": "Deposited",
      "type": "event"
    },
    {
      "anonymous": false,
      "inputs": [
        {
          "indexed": false,
          "internalType": "string",
          "name": "reason",
          "type": "string"
        }
      ],
      "name": "Error",
      "type": "event"
    },
    {
      "anonymous": false,
      "inputs": [
        {
          "indexed": true,
          "internalType": "address",
          "name": "user",
          "type": "address"
        },
        {
          "indexed": false,
          "internalType": "uint256",
          "name": "fee",
          "type": "uint256"
        },
        {
          "indexed": false,
          "internalType": "bool",
          "name": "isDefault",
          "type": "bool"
        },
        {
          "indexed": false,
          "internalType": "uint256",
          "name": "amount",
          "type": "uint256"
        }
      ],
      "name": "FeeVoteUpdate",
      "type": "event"
    },
    {
      "anonymous": false,
      "inputs": [
        {
          "indexed": true,
          "internalType": "address",
          "name": "previousOwner",
          "type": "address"
        },
        {
          "indexed": true,
          "internalType": "address",
          "name": "newOwner",
          "type": "address"
        }
      ],
      "name": "OwnershipTransferred",
      "type": "event"
    },
    {
      "anonymous": false,
      "inputs": [
        {
          "indexed": true,
          "internalType": "address",
          "name": "user",
          "type": "address"
        },
        {
          "indexed": false,
          "internalType": "uint256",
          "name": "slippageFee",
          "type": "uint256"
        },
        {
          "indexed": false,
          "internalType": "bool",
          "name": "isDefault",
          "type": "bool"
        },
        {
          "indexed": false,
          "internalType": "uint256",
          "name": "amount",
          "type": "uint256"
        }
      ],
      "name": "SlippageFeeVoteUpdate",
      "type": "event"
    },
    {
      "anonymous": false,
      "inputs": [
        {
          "indexed": true,
          "internalType": "address",
          "name": "sender",
          "type": "address"
        },
        {
          "indexed": true,
          "internalType": "address",
          "name": "receiver",
          "type": "address"
        },
        {
          "indexed": true,
          "internalType": "address",
          "name": "srcToken",
          "type": "address"
        },
        {
          "indexed": false,
          "internalType": "address",
          "name": "dstToken",
          "type": "address"
        },
        {
          "indexed": false,
          "internalType": "uint256",
          "name": "amount",
          "type": "uint256"
        },
        {
          "indexed": false,
          "internalType": "uint256",
          "name": "result",
          "type": "uint256"
        },
        {
          "indexed": false,
          "internalType": "uint256",
          "name": "srcAdditionBalance",
          "type": "uint256"
        },
        {
          "indexed": false,
          "internalType": "uint256",
          "name": "dstRemovalBalance",
          "type": "uint256"
        },
        {
          "indexed": false,
          "internalType": "address",
          "name": "referral",
          "type": "address"
        }
      ],
      "name": "Swapped",
      "type": "event"
    },
    {
      "anonymous": false,
      "inputs": [
        {
          "indexed": false,
          "internalType": "uint256",
          "name": "srcBalance",
          "type": "uint256"
        },
        {
          "indexed": false,
          "internalType": "uint256",
          "name": "dstBalance",
          "type": "uint256"
        },
        {
          "indexed": false,
          "internalType": "uint256",
          "name": "fee",
          "type": "uint256"
        },
        {
          "indexed": false,
          "internalType": "uint256",
          "name": "slippageFee",
          "type": "uint256"
        },
        {
          "indexed": false,
          "internalType": "uint256",
          "name": "referralShare",
          "type": "uint256"
        },
        {
          "indexed": false,
          "internalType": "uint256",
          "name": "governanceShare",
          "type": "uint256"
        }
      ],
      "name": "Sync",
      "type": "event"
    },
    {
      "anonymous": false,
      "inputs": [
        {
          "indexed": true,
          "internalType": "address",
          "name": "from",
          "type": "address"
        },
        {
          "indexed": true,
          "internalType": "address",
          "name": "to",
          "type": "address"
        },
        {
          "indexed": false,
          "internalType": "uint256",
          "name": "value",
          "type": "uint256"
        }
      ],
      "name": "Transfer",
      "type": "event"
    },
    {
      "anonymous": false,
      "inputs": [
        {
          "indexed": true,
          "internalType": "address",
          "name": "sender",
          "type": "address"
        },
        {
          "indexed": true,
          "internalType": "address",
          "name": "receiver",
          "type": "address"
        },
        {
          "indexed": false,
          "internalType": "uint256",
          "name": "share",
          "type": "uint256"
        },
        {
          "indexed": false,
          "internalType": "uint256",
          "name": "token0Amount",
          "type": "uint256"
        },
        {
          "indexed": false,
          "internalType": "uint256",
          "name": "token1Amount",
          "type": "uint256"
        }
      ],
      "name": "Withdrawn",
      "type": "event"
    },
    {
      "inputs": [
        {
          "internalType": "address",
          "name": "owner",
          "type": "address"
        },
        {
          "internalType": "address",
          "name": "spender",
          "type": "address"
        }
      ],
      "name": "allowance",
      "outputs": [
        {
          "internalType": "uint256",
          "name": "",
          "type": "uint256"
        }
      ],
      "stateMutability": "view",
      "type": "function"
    },
    {
      "inputs": [
        {
          "internalType": "address",
          "name": "spender",
          "type": "address"
        },
        {
          "internalType": "uint256",
          "name": "amount",
          "type": "uint256"
        }
      ],
      "name": "approve",
      "outputs": [
        {
          "internalType": "bool",
          "name": "",
          "type": "bool"
        }
      ],
      "stateMutability": "nonpayable",
      "type": "function"
    },
    {
      "inputs": [
        {
          "internalType": "address",
          "name": "account",
          "type": "address"
        }
      ],
      "name": "balanceOf",
      "outputs": [
        {
          "internalType": "uint256",
          "name": "",
          "type": "uint256"
        }
      ],
      "stateMutability": "view",
      "type": "function"
    },
    {
      "inputs": [],
      "name": "decimals",
      "outputs": [
        {
          "internalType": "uint8",
          "name": "",
          "type": "uint8"
        }
      ],
      "stateMutability": "view",
      "type": "function"
    },
    {
      "inputs": [
        {
          "internalType": "address",
          "name": "spender",
          "type": "address"
        },
        {
          "internalType": "uint256",
          "name": "subtractedValue",
          "type": "uint256"
        }
      ],
      "name": "decreaseAllowance",
      "outputs": [
        {
          "internalType": "bool",
          "name": "",
          "type": "bool"
        }
      ],
      "stateMutability": "nonpayable",
      "type": "function"
    },
    {
      "inputs": [
        {
          "internalType": "uint256[2]",
          "name": "maxAmounts",
          "type": "uint256[2]"
        },
        {
          "internalType": "uint256[2]",
          "name": "minAmounts",
          "type": "uint256[2]"
        }
      ],
      "name": "deposit",
      "outputs": [
        {
          "internalType": "uint256",
          "name": "fairSupply",
          "type": "uint256"
        },
        {
          "internalType": "uint256[2]",
          "name": "receivedAmounts",
          "type": "uint256[2]"
        }
      ],
      "stateMutability": "nonpayable",
      "type": "function"
    },
    {
      "inputs": [
        {
          "internalType": "uint256[2]",
          "name": "maxAmounts",
          "type": "uint256[2]"
        },
        {
          "internalType": "uint256[2]",
          "name": "minAmounts",
          "type": "uint256[2]"
        },
        {
          "internalType": "address",
          "name": "target",
          "type": "address"
        }
      ],
      "name": "depositFor",
      "outputs": [
        {
          "internalType": "uint256",
          "name": "fairSupply",
          "type": "uint256"
        },
        {
          "internalType": "uint256[2]",
          "name": "receivedAmounts",
          "type": "uint256[2]"
        }
      ],
      "stateMutability": "nonpayable",
      "type": "function"
    },
    {
      "inputs": [],
      "name": "discardFeeVote",
      "outputs": [],
      "stateMutability": "nonpayable",
      "type": "function"
    },
    {
      "inputs": [],
      "name": "discardSlippageFeeVote",
      "outputs": [],
      "stateMutability": "nonpayable",
      "type": "function"
    },
    {
      "inputs": [],
      "name": "fee",
      "outputs": [
        {
          "internalType": "uint256",
          "name": "",
          "type": "uint256"
        }
      ],
      "stateMutability": "view",
      "type": "function"
    },
    {
      "inputs": [
        {
          "internalType": "uint256",
          "name": "vote",
          "type": "uint256"
        }
      ],
      "name": "feeVote",
      "outputs": [],
      "stateMutability": "nonpayable",
      "type": "function"
    },
    {
      "inputs": [
        {
          "internalType": "address",
          "name": "user",
          "type": "address"
        }
      ],
      "name": "feeVotes",
      "outputs": [
        {
          "internalType": "uint256",
          "name": "",
          "type": "uint256"
        }
      ],
      "stateMutability": "view",
      "type": "function"
    },
    {
      "inputs": [
        {
          "internalType": "contract IERC20",
          "name": "token",
          "type": "address"
        }
      ],
      "name": "getBalanceForAddition",
      "outputs": [
        {
          "internalType": "uint256",
          "name": "",
          "type": "uint256"
        }
      ],
      "stateMutability": "view",
      "type": "function"
    },
    {
      "inputs": [
        {
          "internalType": "contract IERC20",
          "name": "token",
          "type": "address"
        }
      ],
      "name": "getBalanceForRemoval",
      "outputs": [
        {
          "internalType": "uint256",
          "name": "",
          "type": "uint256"
        }
      ],
      "stateMutability": "view",
      "type": "function"
    },
    {
      "inputs": [
        {
          "internalType": "contract IERC20",
          "name": "src",
          "type": "address"
        },
        {
          "internalType": "contract IERC20",
          "name": "dst",
          "type": "address"
        },
        {
          "internalType": "uint256",
          "name": "amount",
          "type": "uint256"
        }
      ],
      "name": "getReturn",
      "outputs": [
        {
          "internalType": "uint256",
          "name": "",
          "type": "uint256"
        }
      ],
      "stateMutability": "view",
      "type": "function"
    },
    {
      "inputs": [],
      "name": "getTokens",
      "outputs": [
        {
          "internalType": "contract IERC20[]",
          "name": "tokens",
          "type": "address[]"
        }
      ],
      "stateMutability": "view",
      "type": "function"
    },
    {
      "inputs": [
        {
          "internalType": "address",
          "name": "spender",
          "type": "address"
        },
        {
          "internalType": "uint256",
          "name": "addedValue",
          "type": "uint256"
        }
      ],
      "name": "increaseAllowance",
      "outputs": [
        {
          "internalType": "bool",
          "name": "",
          "type": "bool"
        }
      ],
      "stateMutability": "nonpayable",
      "type": "function"
    },
    {
      "inputs": [
        {
          "internalType": "contract IERC20",
          "name": "token0_",
          "type": "address"
        },
        {
          "internalType": "contract IERC20",
          "name": "token1_",
          "type": "address"
        },
        {
          "internalType": "string",
          "name": "name_",
          "type": "string"
        },
        {
          "internalType": "string",
          "name": "symbol_",
          "type": "string"
        },
        {
          "internalType": "contract IMooniswapFactoryGovernance",
          "name": "_mooniswapFactoryGovernance",
          "type": "address"
        }
      ],
      "name": "init",
      "outputs": [],
      "stateMutability": "nonpayable",
      "type": "function"
    },
    {
      "inputs": [],
      "name": "mooniswapFactoryGovernance",
      "outputs": [
        {
          "internalType": "contract IMooniswapFactoryGovernance",
          "name": "",
          "type": "address"
        }
      ],
      "stateMutability": "view",
      "type": "function"
    },
    {
      "inputs": [],
      "name": "name",
      "outputs": [
        {
          "internalType": "string",
          "name": "",
          "type": "string"
        }
      ],
      "stateMutability": "view",
      "type": "function"
    },
    {
      "inputs": [],
      "name": "owner",
      "outputs": [
        {
          "internalType": "address",
          "name": "",
          "type": "address"
        }
      ],
      "stateMutability": "view",
      "type": "function"
    },
    {
      "inputs": [],
      "name": "renounceOwnership",
      "outputs": [],
      "stateMutability": "nonpayable",
      "type": "function"
    },
    {
      "inputs": [
        {
          "internalType": "contract IMooniswapFactoryGovernance",
          "name": "newMooniswapFactoryGovernance",
          "type": "address"
        }
      ],
      "name": "setMooniswapFactoryGovernance",
      "outputs": [],
      "stateMutability": "nonpayable",
      "type": "function"
    },
    {
      "inputs": [],
      "name": "slippageFee",
      "outputs": [
        {
          "internalType": "uint256",
          "name": "",
          "type": "uint256"
        }
      ],
      "stateMutability": "view",
      "type": "function"
    },
    {
      "inputs": [
        {
          "internalType": "uint256",
          "name": "vote",
          "type": "uint256"
        }
      ],
      "name": "slippageFeeVote",
      "outputs": [],
      "stateMutability": "nonpayable",
      "type": "function"
    },
    {
      "inputs": [
        {
          "internalType": "address",
          "name": "user",
          "type": "address"
        }
      ],
      "name": "slippageFeeVotes",
      "outputs": [
        {
          "internalType": "uint256",
          "name": "",
          "type": "uint256"
        }
      ],
      "stateMutability": "view",
      "type": "function"
    },
    {
      "inputs": [
        {
          "internalType": "contract IERC20",
          "name": "src",
          "type": "address"
        },
        {
          "internalType": "contract IERC20",
          "name": "dst",
          "type": "address"
        },
        {
          "internalType": "uint256",
          "name": "amount",
          "type": "uint256"
        },
        {
          "internalType": "uint256",
          "name": "minReturn",
          "type": "uint256"
        },
        {
          "internalType": "address",
          "name": "referral",
          "type": "address"
        }
      ],
      "name": "swap",
      "outputs": [
        {
          "internalType": "uint256",
          "name": "result",
          "type": "uint256"
        }
      ],
      "stateMutability": "nonpayable",
      "type": "function"
    },
    {
      "inputs": [
        {
          "internalType": "contract IERC20",
          "name": "src",
          "type": "address"
        },
        {
          "internalType": "contract IERC20",
          "name": "dst",
          "type": "address"
        },
        {
          "internalType": "uint256",
          "name": "amount",
          "type": "uint256"
        },
        {
          "internalType": "uint256",
          "name": "minReturn",
          "type": "uint256"
        },
        {
          "internalType": "address",
          "name": "referral",
          "type": "address"
        },
        {
          "internalType": "address",
          "name": "receiver",
          "type": "address"
        }
      ],
      "name": "swapFor",
      "outputs": [
        {
          "internalType": "uint256",
          "name": "result",
          "type": "uint256"
        }
      ],
      "stateMutability": "nonpayable",
      "type": "function"
    },
    {
      "inputs": [],
      "name": "symbol",
      "outputs": [
        {
          "internalType": "string",
          "name": "",
          "type": "string"
        }
      ],
      "stateMutability": "view",
      "type": "function"
    },
    {
      "inputs": [],
      "name": "token0",
      "outputs": [
        {
          "internalType": "contract IERC20",
          "name": "",
          "type": "address"
        }
      ],
      "stateMutability": "view",
      "type": "function"
    },
    {
      "inputs": [],
      "name": "token1",
      "outputs": [
        {
          "internalType": "contract IERC20",
          "name": "",
          "type": "address"
        }
      ],
      "stateMutability": "view",
      "type": "function"
    },
    {
      "inputs": [
        {
          "internalType": "uint256",
          "name": "i",
          "type": "uint256"
        }
      ],
      "name": "tokens",
      "outputs": [
        {
          "internalType": "contract IERC20",
          "name": "",
          "type": "address"
        }
      ],
      "stateMutability": "view",
      "type": "function"
    },
    {
      "inputs": [],
      "name": "totalSupply",
      "outputs": [
        {
          "internalType": "uint256",
          "name": "",
          "type": "uint256"
        }
      ],
      "stateMutability": "view",
      "type": "function"
    },
    {
      "inputs": [
        {
          "internalType": "address",
          "name": "recipient",
          "type": "address"
        },
        {
          "internalType": "uint256",
          "name": "amount",
          "type": "uint256"
        }
      ],
      "name": "transfer",
      "outputs": [
        {
          "internalType": "bool",
          "name": "",
          "type": "bool"
        }
      ],
      "stateMutability": "nonpayable",
      "type": "function"
    },
    {
      "inputs": [
        {
          "internalType": "address",
          "name": "sender",
          "type": "address"
        },
        {
          "internalType": "address",
          "name": "recipient",
          "type": "address"
        },
        {
          "internalType": "uint256",
          "name": "amount",
          "type": "uint256"
        }
      ],
      "name": "transferFrom",
      "outputs": [
        {
          "internalType": "bool",
          "name": "",
          "type": "bool"
        }
      ],
      "stateMutability": "nonpayable",
      "type": "function"
    },
    {
      "inputs": [
        {
          "internalType": "address",
          "name": "newOwner",
          "type": "address"
        }
      ],
      "name": "transferOwnership",
      "outputs": [],
      "stateMutability": "nonpayable",
      "type": "function"
    },
    {
      "inputs": [
        {
          "internalType": "contract IERC20",
          "name": "",
          "type": "address"
        }
      ],
      "name": "virtualBalancesForAddition",
      "outputs": [
        {
          "internalType": "uint216",
          "name": "balance",
          "type": "uint216"
        },
        {
          "internalType": "uint40",
          "name": "time",
          "type": "uint40"
        }
      ],
      "stateMutability": "view",
      "type": "function"
    },
    {
      "inputs": [
        {
          "internalType": "contract IERC20",
          "name": "",
          "type": "address"
        }
      ],
      "name": "virtualBalancesForRemoval",
      "outputs": [
        {
          "internalType": "uint216",
          "name": "balance",
          "type": "uint216"
        },
        {
          "internalType": "uint40",
          "name": "time",
          "type": "uint40"
        }
      ],
      "stateMutability": "view",
      "type": "function"
    },
    {
      "inputs": [],
      "name": "virtualFee",
      "outputs": [
        {
          "internalType": "uint104",
          "name": "",
          "type": "uint104"
        },
        {
          "internalType": "uint104",
          "name": "",
          "type": "uint104"
        },
        {
          "internalType": "uint48",
          "name": "",
          "type": "uint48"
        }
      ],
      "stateMutability": "view",
      "type": "function"
    },
    {
      "inputs": [],
      "name": "virtualSlippageFee",
      "outputs": [
        {
          "internalType": "uint104",
          "name": "",
          "type": "uint104"
        },
        {
          "internalType": "uint104",
          "name": "",
          "type": "uint104"
        },
        {
          "internalType": "uint48",
          "name": "",
          "type": "uint48"
        }
      ],
      "stateMutability": "view",
      "type": "function"
    },
    {
      "inputs": [
        {
          "internalType": "uint256",
          "name": "amount",
          "type": "uint256"
        },
        {
          "internalType": "uint256[]",
          "name": "minReturns",
          "type": "uint256[]"
        }
      ],
      "name": "withdraw",
      "outputs": [
        {
          "internalType": "uint256[2]",
          "name": "withdrawnAmounts",
          "type": "uint256[2]"
        }
      ],
      "stateMutability": "nonpayable",
      "type": "function"
    },
    {
      "inputs": [
        {
          "internalType": "uint256",
          "name": "amount",
          "type": "uint256"
        },
        {
          "internalType": "uint256[]",
          "name": "minReturns",
          "type": "uint256[]"
        },
        {
          "internalType": "address",
          "name": "target",
          "type": "address"
        }
      ],
      "name": "withdrawFor",
      "outputs": [
        {
          "internalType": "uint256[2]",
          "name": "withdrawnAmounts",
          "type": "uint256[2]"
        }
      ],
      "stateMutability": "nonpayable",
      "type": "function"
    }
  ],
  "transactionHash": "0xb20518ec4f857f1e8ce3b2a89f656785514a7a37179872ceb8d61ec807d44617",
  "args": [
    "Pool Implementation",
    "IMPL"
  ],
  "solcInputHash": "8b5c6fb4dcb2659c2442740c2b400d87",
  "bytecode": "0x60806040523480156200001c576000806200001962000363565b50505b506040516200596a3803806200596a833981810160405260408110156200004d576000806200004a62000363565b50505b810190808051604051939291908464010000000082111562000079576000806200007662000363565b50505b9083019060208201858111156200009a576000806200009762000363565b50505b8251640100000000811182820188101715620000c057600080620000bd62000363565b50505b825250602001908051906020019080838360005b83811015620000ee578082015183820152602001620000d4565b50505050905090810190601f1680156200011c5780820380516001836020036101000a031916815260200191505b50604052602001805160405193929190846401000000008211156200014b576000806200014862000363565b50505b9083019060208201858111156200016c576000806200016962000363565b50505b825164010000000081118282018810171562000192576000806200018f62000363565b50505b825250602001908051906020019080838360005b83811015620001c0578082015183820152602001620001a6565b50505050905090810190601f168015620001ee5780820380516001836020036101000a031916815260200191505b5060405250505081818160039080516200020d929160200190620003d0565b50600481805162000223929160200190620003d0565b5060126005600181620002356200047f565b8160ff021916908360ff160217906200024d620004e1565b50505050506000620002646200035160201b60201c565b905080600561010081620002776200047f565b816001600160a01b0302191690836001600160a01b03160217906200029b620004e1565b5050506001600160a01b03811660007f8be0079c531659141344cd1fd0a4f28419497f9722a3daafe3b4186f6b6457e060405160405180910390a3506001806006620002e6620004e1565b505050600082511162000303576000806200030062000363565b50505b60008151116200031d576000806200031a62000363565b50505b601582805162000332929160200190620003d0565b50601681805162000348929160200190620003d0565b5050506200059a565b60005a6200035e62000530565b905090565b632a2a7adb598160e01b8152600481016020815285602082015260005b868110156200039d57808601518282016040015260200162000380565b506020828760640184336000905af158600e01573d6000803e3d6000fd5b3d6001141558600a015760016000f35b505050565b8280620003dc6200047f565b600181600116156101000203166002900490600052602060002090601f016020900481019282601f106200042757805160ff191683800117856200041f620004e1565b50506200046d565b8280016001018562000438620004e1565b505082156200046d579182015b828111156200046d578251826200045b620004e1565b50509160200191906001019062000445565b506200047b92915062000577565b5090565b6303daa959598160e01b8152836004820152602081602483336000905af158600e01573d6000803e3d6000fd5b3d6001141558600a015760016000f35b8051935060005b6040811015620004dc57600082820152602001620004c3565b505050565b6322bd64c0598160e01b8152836004820152846024820152600081604483336000905af158600e01573d6000803e3d6000fd5b3d6001141558600a015760016000f35b600081526020620004c3565b6373509064598160e01b8152602081600483336000905af158600e01573d6000803e3d6000fd5b3d6001141558600a015760016000f35b80516000825293506020620004c3565b808211156200047b57600080826200058e620004e1565b50505060010162000577565b6153c080620005aa6000396000f3fe608060405234801561001957600080610016614ded565b50505b50600436106101f75760003560e01c806306fdde031461020557806307a8007014610284578063095ea7b3146102ac5780630dfe1681146102f557806311212d661461031957806318160ddd1461033f5780631e1401f81461035957806323b872dd1461039857806323e8cae1146103d75780633049105d1461041d578063313ce567146104e75780633732b39414610505578063395093511461050d5780633c6216a6146105425780634f64b2be146106515780635915d806146106775780635ed9156d146107435780636669302a1461079b5780636edc2c09146107a357806370a08231146107d2578063715018a6146108015780638d32df32146108095780638da5cb5b1461099357806393028d831461099b57806395cad3c7146109a357806395d89b41146109d25780639aad141b146109da5780639ea5ce0a14610a09578063a457c2d714610a9d578063a9059cbb14610ad2578063aa6ca80814610b07578063c40d4d6614610b4a578063d21220a714610b79578063d5bcb9b514610b81578063d7d3aab514610bce578063d9a0c21714610bfd578063dd62ed3e14610c05578063ddca3f4314610c3c578063e331d03914610c44578063e7ff42c914610c97578063f1ea604214610cc6578063f2fde38b14610cce575b600080610202614ded565b50505b61020d610cfd565b60405160208082528190810183818151815260200191508051906020019080838360005b83811015610249578082015183820152602001610231565b50505050905090810190601f1680156102765780820380516001836020036101000a031916815260200191505b509250505060405180910390f35b6102aa600480360360208110156102a3576000806102a0614ded565b50505b5035610dba565b005b6102e1600480360360408110156102cb576000806102c8614ded565b50505b506001600160a01b038135169060200135610f15565b604051901515815260200160405180910390f35b6102fd610f33565b6040516001600160a01b03909116815260200160405180910390f35b6102aa6004803603602081101561033857600080610335614ded565b50505b5035610f52565b6103476110a4565b60405190815260200160405180910390f35b6103476004803603606081101561037857600080610375614ded565b50505b506001600160a01b038135811691602081013590911690604001356110b5565b6102e1600480360360608110156103b7576000806103b4614ded565b50505b506001600160a01b038135811691602081013590911690604001356110ee565b6103df611182565b60405180846001600160681b03168152602001836001600160681b031681526020018265ffffffffffff168152602001935050505060405180910390f35b6104a86004803603608081101561043c57600080610439614ded565b50505b81019080806040019060028060200260405190810160405280929190826002602002808284376000920191909152509194939260408082019350909150600290805190810160405280929190826002602002808284376000920191909152509194506111e79350505050565b6040518281526020810182604080838360005b838110156104d35780820151838201526020016104bb565b505050509050019250505060405180910390f35b6104ef61120f565b60405160ff909116815260200160405180910390f35b61034761122b565b6102e16004803603604081101561052c57600080610529614ded565b50505b506001600160a01b0381351690602001356112a6565b610619600480360360608110156105615760008061055e614ded565b50505b81359190810190604081016020820135600160201b81111561058b57600080610588614ded565b50505b8201836020820111156105a6576000806105a3614ded565b50505b803590602001918460208302840111600160201b831117156105d0576000806105cd614ded565b50505b919080806020026020016040519081016040528093929190818152602001838360200280828437600092019190915250929550505090356001600160a01b0316915061130b9050565b6040518082604080838360005b8381101561063e578082015183820152602001610626565b5050505090500191505060405180910390f35b6102fd600480360360208110156106705760008061066d614ded565b50505b503561164b565b6106196004803603604081101561069657600080610693614ded565b50505b81359190810190604081016020820135600160201b8111156106c0576000806106bd614ded565b50505b8201836020820111156106db576000806106d8614ded565b50505b803590602001918460208302840111600160201b8311171561070557600080610702614ded565b50505b91908080602002602001604051908101604052809392919081815260200183836020028082843760009201919091525092955061169d945050505050565b610772600480360360208110156107625760008061075f614ded565b50505b50356001600160a01b03166116b8565b6040516001600160d81b03909216825264ffffffffff1660208201526040908101905180910390f35b6102aa611704565b610772600480360360208110156107c2576000806107bf614ded565b50505b50356001600160a01b031661175f565b610347600480360360208110156107f1576000806107ee614ded565b50505b50356001600160a01b031661177a565b6102aa61179a565b6102aa600480360360a081101561082857600080610825614ded565b50505b6001600160a01b038235811692602081013590911691810190606081016040820135600160201b81111561086457600080610861614ded565b50505b82018360208201111561087f5760008061087c614ded565b50505b803590602001918460018302840111600160201b831117156108a9576000806108a6614ded565b50505b91908080601f01602080910402602001604051908101604052818152929190602084018383808284376000920191909152509295949360208101935035915050600160201b81111561090357600080610900614ded565b50505b82018360208201111561091e5760008061091b614ded565b50505b803590602001918460018302840111600160201b8311171561094857600080610945614ded565b50505b91908080601f0160208091040260200160405190810160405281815292919060208401838380828437600092019190915250929550505090356001600160a01b031691506118479050565b6102fd611940565b6102aa611962565b610347600480360360208110156109c2576000806109bf614ded565b50505b50356001600160a01b03166119bb565b61020d611a15565b610347600480360360208110156109f9576000806109f6614ded565b50505b50356001600160a01b0316611abb565b6104a8600480360360a0811015610a2857600080610a25614ded565b50505b81019080806040019060028060200260405190810160405280929190826002602002808284376000920191909152509194939260408082019350909150600290805190810160405280929190826002602002808284376000920191909152509194505050356001600160a01b03169050611b0b565b6102e160048036036040811015610abc57600080610ab9614ded565b50505b506001600160a01b0381351690602001356122ca565b6102e160048036036040811015610af157600080610aee614ded565b50505b506001600160a01b038135169060200135612340565b610b0f612354565b6040516020808252819081018381815181526020019150805160209182019102808383600083156104d35780820151838201526020016104bb565b6102aa60048036036020811015610b6957600080610b66614ded565b50505b50356001600160a01b0316612411565b6102fd61261d565b610347600480360360a0811015610ba057600080610b9d614ded565b50505b506001600160a01b038135811691602081013582169160408201359160608101359160809091013516612629565b61034760048036036020811015610bed57600080610bea614ded565b50505b50356001600160a01b031661264b565b6102fd6127d3565b61034760048036036040811015610c2457600080610c21614ded565b50505b506001600160a01b03813581169160200135166127df565b610347612818565b610347600480360360c0811015610c6357600080610c60614ded565b50505b506001600160a01b0381358116916020810135821691604082013591606081013591608082013581169160a0013516612836565b61034760048036036020811015610cb657600080610cb3614ded565b50505b50356001600160a01b0316612c67565b6103df612db4565b6102aa60048036036020811015610ced57600080610cea614ded565b50505b50356001600160a01b0316612dff565b6060601580610d0a614e58565b600181600116156101000203166002900480601f016020809104026020016040519081016040528181529190602083018280610d44614e58565b60018160011615610100020316600290048015610db05780601f10610d7e576101008083610d70614e58565b040283529160200191610db0565b820191906000526020600020905b81610d95614e58565b81529060010190602001808311610d8c57829003601f168201915b5050505050905090565b670de0b6b3a7640000811115610dd857600080610dd5614ded565b50505b610f125a610de4614eb3565b600f60005a610df1614eb3565b6001600160a01b03166001600160a01b0316815260200190815260200160002060405160208101604052908181610e26614e58565b905250610e3284612ed0565b610e435a610e3e614eb3565b61177a565b610e4b6110a4565b60006007610e57614e58565b906101000a90046001600160a01b03166001600160a01b03166323662bb96040518163ffffffff1660e01b81526004016020604051808303818680610e9a614ef9565b158015610eaf57600080610eac614ded565b50505b505a610eb9614f45565b5050505050158015610ed8573d6000803e3d6000610ed5614ded565b50505b505050506040513d6020811015610ef757600080610ef4614ded565b50505b810190808051600c989796959493509150612eee9050612f45565b50565b6000610f29610f22612f60565b8484612f6b565b5060015b92915050565b60006011610f3f614e58565b906101000a90046001600160a01b031681565b662386f26fc10000811115610f6f57600080610f6c614ded565b50505b610f125a610f7b614eb3565b600b60005a610f88614eb3565b6001600160a01b03166001600160a01b0316815260200190815260200160002060405160208101604052908181610fbd614e58565b905250610fc984612ed0565b610fd55a610e3e614eb3565b610fdd6110a4565b60006007610fe9614e58565b906101000a90046001600160a01b03166001600160a01b0316635a6c72d06040518163ffffffff1660e01b8152600401602060405180830381868061102c614ef9565b1580156110415760008061103e614ded565b50505b505a61104b614f45565b505050505015801561106a573d6000803e3d6000611067614ded565b50505b505050506040513d602081101561108957600080611086614ded565b50505b810190808051600898979695949350915061302f9050612f45565b600060026110b0614e58565b905090565b60006110e48484846110c68861264b565b6110cf88612c67565b6110d7612818565b6110df61122b565b613086565b90505b9392505050565b60006110fb8484846131c3565b61117884611107612f60565b6111738560405160608101604052602880825261533360208301396001600160a01b038a1660009081526001602052604090206000611144612f60565b6001600160a01b03166001600160a01b0316815260200190815260200160002061116c614e58565b91906132eb565b612f6b565b5060019392505050565b6000808080600c611191614e58565b6001600160681b036101009290920a900416600d600c6111af614e58565b6001600160681b036101009290920a900416601a600c6111cd614e58565b906101000a900465ffffffffffff16925092509250909192565b60006111f1615030565b61120484845a6111ff614eb3565b611b0b565b915091509250929050565b600080600561121c614e58565b906101000a900460ff16905090565b60006110b0600c604051606081016040529081600082611249614e58565b6001600160681b036101009290920a9004168152602001600d8261126b614e58565b6001600160681b036101009290920a9004168152602001601a8261128d614e58565b65ffffffffffff6101009290920a90041690525061330a565b6000610f296112b3612f60565b8461117385600160006112c4612f60565b6001600160a01b03166001600160a01b031681526020019081526020016000206001600160a01b038916600090815260209190915260409020611305614e58565b9061337f565b611313615030565b6002600661131f614e58565b141561133357600080611330614ded565b50505b600280600661134061504b565b50505061134b615030565b60405180604001604052806011600090611363614e58565b6001600160a01b036101009290920a900416815260200160006012611386614e58565b6001600160a01b036101009290920a9004169052905060006113a66110a4565b90506113ba5a6113b4614eb3565b876133a0565b60005b60028110156115c85760008382600281106113d457fe5b602002015190506000816001600160a01b03166370a082315a63996d79a5598160e01b8152602081600483336000905af158600e01573d6000803e3d6000fd5b3d6001141558600a015760016000f35b8051925060005b60408110156114425760008282015260200161142b565b5050506040516001600160e01b031960e084901b1681526001600160a01b039091166004820152602401602060405180830381868061147f614ef9565b15801561149457600080611491614ded565b50505b505a61149e614f45565b50505050501580156114bd573d6000803e3d60006114ba614ded565b50505b505050506040513d60208110156114dc576000806114d9614ded565b50505b81019080805193506000925061150091508690506114fa848d613476565b906134a3565b90506115166001600160a01b03841689836134cb565b8087856002811061152357fe5b602002015288518410158061154b575088848151811061153f57fe5b60200260200101518110155b61155d5760008061155a614ded565b50505b61158d8261156b878d613527565b6001600160a01b03861660009081526013602052889060409020929190613545565b6115bd8261159b878d613527565b6001600160a01b03861660009081526014602052889060409020929190613545565b5050506001016113bd565b50836001600160a01b03165a6115dc614eb3565b6001600160a01b03167f3cae9923fd3c2f468aa25a8ef687923e37f957459557c0380fd06526c0b8cdbc888651602088015160405180848152602001838152602001828152602001935050505060405180910390a3505060016006819061164161504b565b5050509392505050565b600081611675576000601161165e614e58565b906101000a90046001600160a01b03169050611698565b816001141561168a576000601261165e614e58565b600080611695614ded565b50505b919050565b6116a5615030565b6110e783835a6116b3614eb3565b61130b565b601460205280600052604060002090506000816116d3614e58565b6001600160d81b036101009290920a90041690601b816116f1614e58565b906101000a900464ffffffffff16905082565b61175d5a611710614eb3565b600f60005a61171d614eb3565b6001600160a01b03166001600160a01b0316815260200190815260200160002060405160208101604052908181611752614e58565b905250610e326135c0565b565b601360205280600052604060002090506000816116d3614e58565b6001600160a01b0381166000908152602081905260408120610f2d614e58565b6117a2612f60565b6001600160a01b03166117b3611940565b6001600160a01b0316146117cf576000806117cc614ded565b50505b6000600160056117dd614e58565b906101000a90046001600160a01b03166001600160a01b031660008051602061535b83398151915260405160405180910390a36000600561010081611820614e58565b816001600160a01b0302191690836001600160a01b031602179061184261504b565b505050565b600083511161185e5760008061185b614ded565b50505b600082511161187557600080611872614ded565b50505b836001600160a01b0316856001600160a01b0316141561189d5760008061189a614ded565b50505b8460116001816118ab614e58565b816001600160a01b0302191690836001600160a01b03160217906118cd61504b565b50505083601260006101000a816118e2614e58565b816001600160a01b0302191690836001600160a01b031602179061190461504b565b50505082601590805161191b929160200190615099565b50601682805161192f929160200190615099565b50611939816135db565b5050505050565b600080601061194d614e58565b906101000a90046001600160a01b0316905090565b61175d5a61196e614eb3565b600b60005a61197b614eb3565b6001600160a01b03166001600160a01b03168152602001908152602001600020604051602081016040529081816119b0614e58565b905250610fc96135c0565b6000610f2d8160076119cb614e58565b6001600160a01b038581166000908152600f6020526101009390930a90910416906323662bb9906040902060405160208101604052908181611a0b614e58565b90525091906137df565b6060601680611a22614e58565b600181600116156101000203166002900480601f016020809104026020016040519081016040528181529190602083018280611a5c614e58565b60018160011615610100020316600290048015610db05780601f10611a88576101008083610d70614e58565b820191906000526020600020905b81611a9f614e58565b81529060010190602001808311611a9657509395945050505050565b6000610f2d816007611acb614e58565b6001600160a01b038581166000908152600b6020526101009390930a9091041690635a6c72d0906040902060405160208101604052908181611a0b614e58565b6000611b15615030565b60026006611b21614e58565b1415611b3557600080611b32614ded565b50505b6002806006611b4261504b565b505050611b4d615030565b60405180604001604052806011600090611b65614e58565b6001600160a01b036101009290920a900416815260200160006012611b88614e58565b6001600160a01b036101009290920a900416905290506000611ba86110a4565b905080611d6e57611bbc6103e86063613476565b9350611c225a63996d79a5598160e01b8152602081600483336000905af158600e01573d6000803e3d6000fd5b3d6001141558600a015760016000f35b8051925060005b6040811015611c1757600082820152602001611c00565b5050506103e861388b565b60005b6002811015611d6857611c4885898360028110611c3e57fe5b602002015161394b565b94506000888260028110611c5857fe5b602002015111611c7057600080611c6d614ded565b50505b868160028110611c7c57fe5b6020020151888260028110611c8d57fe5b60200201511015611ca657600080611ca3614ded565b50505b611d3e5a611cb2614eb3565b5a63996d79a5598160e01b8152602081600483336000905af158600e01573d6000803e3d6000fd5b3d6001141558600a015760016000f35b8051925060005b6040811015611d0857600082820152602001611cf1565b5050508a8460028110611d1757fe5b6020020151868560028110611d2857fe5b60200201516001600160a01b0316929190613962565b878160028110611d4a57fe5b6020020151848260028110611d5b57fe5b6020020152600101611c25565b50612227565b611d76615030565b60005b6002811015611eb657838160028110611d8e57fe5b60200201516001600160a01b03166370a082315a63996d79a5598160e01b8152602081600483336000905af158600e01573d6000803e3d6000fd5b3d6001141558600a015760016000f35b8051925060005b6040811015611df757600082820152602001611de0565b5050506040516001600160e01b031960e084901b1681526001600160a01b0390911660048201526024016020604051808303818680611e34614ef9565b158015611e4957600080611e46614ded565b50505b505a611e53614f45565b5050505050158015611e72573d6000803e3d6000611e6f614ded565b50505b505050506040513d6020811015611e9157600080611e8e614ded565b50505b810190808051925084915083905060028110611ea957fe5b6020020152600101611d79565b50600019945060005b6002811015611f0a57611f0086611efb848460028110611edb57fe5b60200201516114fa8d8660028110611eef57fe5b60200201518890613476565b6139cb565b9550600101611ebf565b508460005b60028110156121835760008a8260028110611f2657fe5b602002015111611f3e57600080611f3b614ded565b50505b6000611f66856114fa6001880361130587898860028110611f5b57fe5b602002015190613476565b9050898260028110611f7457fe5b6020020151811015611f8e57600080611f8b614ded565b50505b6120005a611f9a614eb3565b5a63996d79a5598160e01b8152602081600483336000905af158600e01573d6000803e3d6000fd5b3d6001141558600a015760016000f35b8051925060005b6040811015611ff057600082820152602001611fd9565b50505083898660028110611d2857fe5b61213484836002811061200f57fe5b602002015187846002811061202057fe5b60200201516001600160a01b03166370a082315a63996d79a5598160e01b8152602081600483336000905af158600e01573d6000803e3d6000fd5b3d6001141558600a015760016000f35b8051925060005b604081101561208957600082820152602001612072565b5050506040516001600160e01b031960e084901b1681526001600160a01b03909116600482015260240160206040518083038186806120c6614ef9565b1580156120db576000806120d8614ded565b50505b505a6120e5614f45565b5050505050158015612104573d6000803e3d6000612101614ded565b50505b505050506040513d602081101561212357600080612120614ded565b50505b810190808051939250506135279050565b87836002811061214057fe5b602002015261217888611efb86856002811061215857fe5b60200201516114fa8b876002811061216c57fe5b60200201518a90613476565b975050600101611f0f565b5060005b6002811015612223576121ec83826002811061219f57fe5b60200201516121ae868a61337f565b86601460008a87600281106121bf57fe5b60200201516001600160a01b03166001600160a01b03168152602001908152602001600020929190613545565b61221b8382600281106121fb57fe5b602002015161220a868a61337f565b86601360008a87600281106121bf57fe5b600101612187565b5050505b6000841161223d5760008061223a614ded565b50505b612247858561388b565b846001600160a01b03165a61225a614eb3565b6001600160a01b03167f8bab6aed5a508937051a144e61d6e61336834a66aaee250a00613ae6f744c422868651602088015160405180848152602001838152602001828152602001935050505060405180910390a350506001600681906122bf61504b565b505050935093915050565b6000610f296122d7612f60565b846111738560405160608101604052602580825261539b6020830139600160006122ff612f60565b6001600160a01b03166001600160a01b031681526020019081526020016000206001600160a01b038a1660009081526020919091526040902061116c614e58565b6000610f2961234d612f60565b84846131c3565b60606002604051908082528060200260200182016040528015612381578160200160208202803683370190505b50905060006011612390614e58565b906101000a90046001600160a01b0316816000815181106123ad57fe5b6001600160a01b0390921660209283029190910190910152600060126123d1614e58565b906101000a90046001600160a01b0316816001815181106123ee57fe5b60200260200101906001600160a01b031690816001600160a01b03168152505090565b612419612f60565b6001600160a01b031661242a611940565b6001600160a01b03161461244657600080612443614ded565b50505b806007600181612454614e58565b816001600160a01b0302191690836001600160a01b031602179061247661504b565b5050505a63996d79a5598160e01b8152602081600483336000905af158600e01573d6000803e3d6000fd5b3d6001141558600a015760016000f35b8051925060005b60408110156124cf576000828201526020016124b8565b5050506001600160a01b03166393028d836040518163ffffffff1660e01b815260040160006040518083038160008780612507614ef9565b15801561251c57600080612519614ded565b50505b505a612526615135565b505050505050158015612546573d6000803e3d6000612543614ded565b50505b505050505a63996d79a5598160e01b8152602081600483336000905af158600e01573d6000803e3d6000fd5b3d6001141558600a015760016000f35b8051925060005b60408110156125a057600082820152602001612589565b5050506001600160a01b0316636669302a6040518163ffffffff1660e01b8152600401600060405180830381600087806125d8614ef9565b1580156125ed576000806125ea614ded565b50505b505a6125f7615135565b505050505050158015611939573d6000803e3d6000612614614ded565b50505050505050565b60006012610f3f614e58565b600061264186868686865a61263c614eb3565b612836565b9695505050505050565b600080826001600160a01b03166370a082315a63996d79a5598160e01b8152602081600483336000905af158600e01573d6000803e3d6000fd5b3d6001141558600a015760016000f35b8051925060005b60408110156126b35760008282015260200161269c565b5050506040516001600160e01b031960e084901b1681526001600160a01b03909116600482015260240160206040518083038186806126f0614ef9565b15801561270557600080612702614ded565b50505b505a61270f614f45565b505050505015801561272e573d6000803e3d600061272b614ded565b50505b505050506040513d602081101561274d5760008061274a614ded565b50505b8101908080516001600160a01b038716600090815260136020529094506110e793506127cd925084915060409020604051604080820190529081600082612792614e58565b6001600160d81b036101009290920a9004168152602001601b826127b4614e58565b64ffffffffff6101009290920a900416905250906139da565b8261394b565b60006007610f3f614e58565b6001600160a01b03821660009081526001602052604081206001600160a01b0383166000908152602091909152604090206110e7614e58565b60006110b06008604051606081016040529081600082611249614e58565b600060026006612844614e58565b141561285857600080612855614ded565b50505b600280600661286561504b565b5050506007600090612875614e58565b906101000a90046001600160a01b03166001600160a01b03166322f3e2d46040518163ffffffff1660e01b815260040160206040518083038186806128b8614ef9565b1580156128cd576000806128ca614ded565b50505b505a6128d7614f45565b50505050501580156128f6573d6000803e3d60006128f3614ded565b50505b505050506040513d602081101561291557600080612912614ded565b50505b81019080805192506129329150505760008061292f614ded565b50505b61293a6151fb565b6040518060400160405280896001600160a01b03166370a082315a63996d79a5598160e01b8152602081600483336000905af158600e01573d6000803e3d6000fd5b3d6001141558600a015760016000f35b8051925060005b60408110156129aa57600082820152602001612993565b5050506040516001600160e01b031960e084901b1681526001600160a01b03909116600482015260240160206040518083038186806129e7614ef9565b1580156129fc576000806129f9614ded565b50505b505a612a06614f45565b5050505050158015612a25573d6000803e3d6000612a22614ded565b50505b505050506040513d6020811015612a4457600080612a41614ded565b50505b81019080805184525050506020016001600160a01b0389166370a082315a63996d79a5598160e01b8152602081600483336000905af158600e01573d6000803e3d6000fd5b3d6001141558600a015760016000f35b8051925060005b6040811015612ab757600082820152602001612aa0565b5050506040516001600160e01b031960e084901b1681526001600160a01b0390911660048201526024016020604051808303818680612af4614ef9565b158015612b0957600080612b06614ded565b50505b505a612b13614f45565b5050505050158015612b32573d6000803e3d6000612b2f614ded565b50505b505050506040513d6020811015612b5157600080612b4e614ded565b50505b8101908080519093525091925060009150612b6c90506151fb565b612b746151fb565b6040518060400160405280612b87612818565b8152602001612b9461122b565b90529050612ba78b8b8b8b8a8987613a3b565b90965090935091506001600160a01b03808c169087165a612bc6614eb3565b6001600160a01b03167fbd99c6719f088aa0abd9e7b7a4a635d1f931601e9f304b538dc42be25d8c65c68d878a885189602001518f6040516001600160a01b03968716815260208101959095526040808601949094526060850192909252608084015290921660a082015260c001905180910390a4612c488386898785613ccc565b50505050600160068190612c5a61504b565b5050509695505050505050565b600080826001600160a01b03166370a082315a63996d79a5598160e01b8152602081600483336000905af158600e01573d6000803e3d6000fd5b3d6001141558600a015760016000f35b8051925060005b6040811015612ccf57600082820152602001612cb8565b5050506040516001600160e01b031960e084901b1681526001600160a01b0390911660048201526024016020604051808303818680612d0c614ef9565b158015612d2157600080612d1e614ded565b50505b505a612d2b614f45565b5050505050158015612d4a573d6000803e3d6000612d47614ded565b50505b505050506040513d6020811015612d6957600080612d66614ded565b50505b8101908080516001600160a01b038716600090815260146020529094506110e79350612dae925084915060409020604051604080820190529081600082612792614e58565b826139cb565b60008080806008612dc3614e58565b6001600160681b036101009290920a900416600d6008612de1614e58565b6001600160681b036101009290920a900416601a60086111cd614e58565b612e07612f60565b6001600160a01b0316612e18611940565b6001600160a01b031614612e3457600080612e31614ded565b50505b6001600160a01b038116612e5057600080612e4d614ded565b50505b6001600160a01b03811660016005612e66614e58565b906101000a90046001600160a01b03166001600160a01b031660008051602061535b83398151915260405160405180910390a380600561010081612ea8614e58565b816001600160a01b0302191690836001600160a01b0316021790612eca61504b565b50505050565b612ed8615212565b6040516020810160405260019290920182525090565b836001600160a01b03167fce0cf859d853e1944032294143a1bf3ad799998ae77acbeb6c4d9b20d691024084848460405192835290151560208301526040808301919091526060909101905180910390a250505050565b612f5688888888888989898961422e565b5050505050505050565b60005a6110b0614eb3565b6001600160a01b038316612f8757600080612f84614ded565b50505b6001600160a01b038216612fa357600080612fa0614ded565b50505b6001600160a01b038316600090815260016020528190604090206001600160a01b0384166000908152602091909152604090208190612fe061504b565b505050816001600160a01b0316836001600160a01b03167f8c5be1e5ebec7d5bd14f71427d1e84f3dd0314c0f7b2291e5b200ac8c7c3b9258360405190815260200160405180910390a3505050565b836001600160a01b03167fe117cae46817b894b41a4412b73ae0ba746a5707b94e02d83b4c6502010b11ac84848460405192835290151560208301526040808301919091526060909101905180910390a250505050565b6000866001600160a01b0316886001600160a01b031611156130a6579596955b6000861180156130e25750600060116130bd614e58565b906101000a90046001600160a01b03166001600160a01b0316886001600160a01b0316145b801561311a5750600060126130f5614e58565b906101000a90046001600160a01b03166001600160a01b0316876001600160a01b0316145b156131b857600061314161313a670de0b6b3a76400006114fa8a88613476565b8890613527565b9050600061314f878361337f565b90506000613161826114fa858a613476565b9050600061318a6131728786613476565b613184670de0b6b3a764000086613476565b90613527565b905060006131a0670de0b6b3a764000085613476565b90506131b0816114fa8585613476565b955050505050505b979650505050505050565b6001600160a01b0383166131df576000806131dc614ded565b50505b6001600160a01b0382166131fb576000806131f8614ded565b50505b6132068383836144fa565b6132418160405160608101604052602680825261530d60208301396001600160a01b038616600090815260208190526040902061116c614e58565b6001600160a01b0384166000908152602081905260409020819061326361504b565b5050506001600160a01b0382166000908152602081905261328c90829060409020611305614e58565b6001600160a01b038316600090815260208190526040902081906132ae61504b565b505050816001600160a01b0316836001600160a01b031660008051602061537b8339815191528360405190815260200160405180910390a3505050565b60008383111561330357600080613300614ded565b50505b5050900390565b60008061332d62015180611efb856040015165ffffffffffff165a613184615223565b9050600061333e6201518083613527565b9050613377620151806114fa6133628588602001516001600160681b031690613476565b6113058589516001600160681b031690613476565b949350505050565b6000828201838110156110e757600080613397614ded565b50509392505050565b6001600160a01b0382166133bc576000806133b9614ded565b50505b6133c8826000836144fa565b613403816040516060810160405260228082526152eb60208301396001600160a01b038516600090815260208190526040902061116c614e58565b6001600160a01b0383166000908152602081905260409020819061342561504b565b505050613436816002613184614e58565b80600261344161504b565b5060009150506001600160a01b03831660008051602061537b8339815191528360405190815260200160405180910390a35050565b60008261348557506000610f2d565b8282028284828161349257fe5b04146110e757600080613397614ded565b60008082116134ba576000806134b7614ded565b50505b8183816134c357fe5b049392505050565b6118428363a9059cbb60e01b84846040516001600160a01b0390921660248301526044820152606401604051602081830303815290604052906001600160e01b0319166020820180516001600160e01b031690911790526148a4565b60008282111561353f5760008061353c614ded565b50505b50900390565b612eca846135bb836114fa61355b826001613527565b611305886135b58c60405160408082019052908160008261357a614e58565b6001600160d81b036101009290920a9004168152602001601b8261359c614e58565b64ffffffffff6101009290920a9004169052508c6139da565b90613476565b614932565b6135c8615212565b6040516020810160405260008152905090565b601460106135e7614e58565b906101000a900460ff161561360457600080613601614ded565b50505b806007600181613612614e58565b816001600160a01b0302191690836001600160a01b031602179061363461504b565b5050506136db816001600160a01b0316635a6c72d06040518163ffffffff1660e01b8152600401602060405180830381868061366e614ef9565b15801561368357600080613680614ded565b50505b505a61368d614f45565b50505050501580156136ac573d6000803e3d60006136a9614ded565b50505b505050506040513d60208110156136cb576000806136c8614ded565b50505b81019080805192506149b2915050565b6008600160681b816136eb614e58565b816001600160681b0302191690836001600160681b031602179061370d61504b565b505050613747816001600160a01b03166323662bb96040518163ffffffff1660e01b8152600401602060405180830381868061366e614ef9565b600c600160681b81613757614e58565b816001600160681b0302191690836001600160681b031602179061377961504b565b5050505a613785614eb3565b6010600181613792614e58565b816001600160a01b0302191690836001600160a01b03160217906137b461504b565b5050506001601060146101000a816137ca614e58565b8160ff02191690831515021790612eca61504b565b600080845111156137f657600184510390506110e7565b82826040518163ffffffff1660e01b8152600401602060405180830381868061381d614ef9565b1580156138325760008061382f614ded565b50505b505a61383c614f45565b505050505015801561385b573d6000803e3d6000613858614ded565b50505b505050506040513d602081101561387a57600080613877614ded565b50505b810190808051979650505050505050565b6001600160a01b0382166138a7576000806138a4614ded565b50505b6138b3600083836144fa565b6138c1816002611305614e58565b8060026138cc61504b565b5050506001600160a01b038216600090815260208190526138f590829060409020611305614e58565b6001600160a01b0383166000908152602081905260409020819061391761504b565b5050506001600160a01b038216600060008051602061537b8339815191528360405190815260200160405180910390a35050565b60008183101561395b57816110e7565b5090919050565b612eca846323b872dd60e01b8585856040516001600160a01b0393841660248201529190921660448201526064810191909152608401604051602081830303815290604052906001600160e01b0319166020820180516001600160e01b031690911790526148a4565b600081831061395b57816110e7565b6000806139fa603c611efb866020015164ffffffffff165a613184615223565b90506000613a09603c83613527565b9050613a32603c6114fa613a1d8786613476565b611305858a516001600160d81b031690613476565b95945050505050565b600080613a466151fb565b613a7a85516001600160a01b038c166000908152601360205260409020604051604080820190529081600082612792614e58565b8152613a888151865161394b565b8152613ac160208601516001600160a01b038b166000908152601460205260409020604051604080820190529081600082612792614e58565b60208201908152613ad7905186602001516139cb565b6020820152613b535a613ae8614eb3565b5a63996d79a5598160e01b8152602081600483336000905af158600e01573d6000803e3d6000fd5b3d6001141558600a015760016000f35b8051925060005b6040811015613b3e57600082820152602001613b27565b5050506001600160a01b038d1691908b613962565b613bae85518b6001600160a01b03166370a082315a63996d79a5598160e01b8152602081600483336000905af158600e01573d6000803e3d6000fd5b3d6001141558600a015760016000f35b80516000825292506020612072565b9250613bc98a8a858451856020015189518a60200151613086565b9150600082118015613bdb5750868210155b613bed57600080613bea614ded565b50505b613c016001600160a01b038a1687846134cb565b8451815114613c3757613c37613c198483519061337f565b6001600160a01b038c16600090815260136020526040902090614932565b8460200151816020015114613c7657613c76613c5883836020015190613527565b6001600160a01b038b16600090815260146020526040902090614932565b613c9985516001600160a01b038c166000908152601460205260409020906149d1565b613cbf85602001516001600160a01b038b166000908152601360205260409020906149d1565b9750975097945050505050565b6000808080806007613cdc614e58565b906101000a90046001600160a01b03166001600160a01b031663172886e76040518163ffffffff1660e01b81526004016080604051808303818680613d1f614ef9565b158015613d3457600080613d31614ded565b50505b505a613d3e614f45565b5050505050158015613d5d573d6000803e3d6000613d5a614ded565b50505b505050506040513d6080811015613d7c57600080613d79614ded565b50505b810190808051929190602001805192919060200180519291906020018051959950939750919550929350600092508291506a0c097ce7bc90715b34b9f160241b9050613dd989516114fa613dd28f8d519061337f565b8490613476565b9050613df589602001516114fa613dd28e8d6020015190613527565b90506a0c097ce7bc90715b34b9f160241b8111156141b757613e1681614a2f565b90506000613e3b826114fa613e3382670de0b6b3a7640000613527565b6135b56110a4565b90506001600160a01b038b16613e52576000613e68565b613e68670de0b6b3a76400006114fa838b613476565b93506001600160a01b038616613e7f576000613e95565b613e95670de0b6b3a76400006114fa838a613476565b92506001600160a01b038516613eca578315613eb557613eb58b8561388b565b8215613ec557613ec5868461388b565b6141b5565b6000841180613ed95750600083115b156141b5576000808411613eee576000613ef1565b60015b60008611613f00576000613f03565b60015b0160ff1690506060816001600160401b0381118015613f2a57600080613f27614ded565b50505b50604051908082528060200260200182016040528015613f54578160200160208202803683370190505b5090506060826001600160401b0381118015613f7857600080613f75614ded565b50505b50604051908082528060200260200182016040528015613fa2578160200160208202803683370190505b5090508d82600081518110613fb357fe5b60200260200101906001600160a01b031690816001600160a01b0316815250508681600081518110613fe157fe5b6020908102919091010152851561403f578882600185038151811061400257fe5b60200260200101906001600160a01b031690816001600160a01b0316815250508581600185038151811061403257fe5b6020026020010181815250505b876001600160a01b0316630931753c83836040518363ffffffff1660e01b8152600401808060200180602001838103835285818151815260200191508051906020019060200280838360005b838110156140a357808201518382015260200161408b565b50505050905001838103825284818151815260200191508051906020019060200280838360005b838110156140e25780820151838201526020016140ca565b5050505090500194505050505060006040518083038160008780614104614ef9565b15801561411957600080614116614ded565b50505b505a614123615135565b505050505050925050508015614137575060015b61419e577f08c379a0afcc32b1a39302f7cb8073359698411ab5fd6e3edb2c02c0b5fba8aa6040516020808252601690820152751d5c19185d1954995dd85c991cca0a4819985a5b195960521b6040808301919091526060909101905180910390a16141b1565b6141b1886141ac898961337f565b61388b565b5050505b505b7f2a368c7f33bb86e2d999940a3989d849031aff29b750f67947e6b8e8c3d2ffd689518a602001518a518b60200151878760405180878152602001868152602001858152602001848152602001838152602001828152602001965050505050505060405180910390a1505050505050505050505050565b60008960010161423c614e58565b905080600060028c0161424d614e58565b9050806142598b614a89565b1561426f57614268818a613527565b9050614290565b61428d61428661427f8d89614a94565b8b90613476565b8490613527565b92505b6142998a614a89565b156142af576142a8818961337f565b90506142d0565b6142cd6142c66142bf8c89614a94565b8a90613476565b849061337f565b92505b8383146142e957828060018f016142e561504b565b5050505b81811461430257808060028f016142fe61504b565b5050505b6000871561432757614322886114fa61431b858b613476565b879061337f565b614329565b865b9050614333615269565b8e60405160608101604052908160008261434b614e58565b6001600160681b036101009290920a9004168152602001600d8261436d614e58565b6001600160681b036101009290920a9004168152602001601a8261438f614e58565b65ffffffffffff6101009290920a900416905250905060208101516001600160681b0316821461448d578e6143cb6143c68361330a565b6149b2565b6143d4846149b2565b6143e55a6143e0615223565b614ab1565b83600081600d8482600160d01b816143fb614e58565b8165ffffffffffff021916908365ffffffffffff1602179061441b61504b565b5050508591906101000a8161442e614e58565b816001600160681b0302191690836001600160681b031602179061445061504b565b5050508491906101000a81614463614e58565b816001600160681b0302191690836001600160681b031602179061448561504b565b505050505050505b5061449a90508a8c614ac9565b6144ca576001600160a01b038c16600090815260038e016020528a90604090208151816144c561504b565b505050505b6144eb8c6144d88c89614a94565b6144e18d614a89565b8b8963ffffffff16565b50505050505050505050505050565b816001600160a01b0316836001600160a01b0316141561451957611842565b6000806007614526614e58565b906101000a90046001600160a01b031690506000806001600160a01b0316856001600160a01b031614806146075750816001600160a01b0316633b90b9bf866040516001600160e01b031960e084901b1681526001600160a01b039091166004820152602401602060405180830381868061459f614ef9565b1580156145b4576000806145b1614ded565b50505b505a6145be614f45565b50505050501580156145dd573d6000803e3d60006145da614ded565b50505b505050506040513d60208110156145fc576000806145f9614ded565b50505b810190808051925050505b15905060006001600160a01b03851615806146cf5750826001600160a01b0316633b90b9bf866040516001600160e01b031960e084901b1681526001600160a01b0390911660048201526024016020604051808303818680614667614ef9565b15801561467c57600080614679614ded565b50505b505a614686614f45565b50505050501580156146a5573d6000803e3d60006146a2614ded565b50505b505050506040513d60208110156146c4576000806146c1614ded565b50505b810190808051925050505b159050811580156146de575080155b156146eb57505050611842565b60006001600160a01b03871661470257600061470b565b61470b8761177a565b905060006001600160a01b03871661472457600061472d565b61472d8761177a565b9050600061476f6001600160a01b0389161561474a57600061474c565b875b6131846001600160a01b038c1615614765576000614767565b895b6113056110a4565b9050614779615288565b6040518061010001604052808b6001600160a01b031681526020018a6001600160a01b0316815260200187151581526020018615158152602001898152602001858152602001848152602001838152509050600080886001600160a01b031663edb7a6fa6040518163ffffffff1660e01b815260040160408051808303818680614801614ef9565b15801561481657600080614813614ded565b50505b505a614820614f45565b505050505015801561483f573d6000803e3d600061483c614ded565b50505b505050506040513d604081101561485e5760008061485b614ded565b50505b8101908080519291906020018051939550929350614887925085915084905061302f6008614ad7565b6148968382612eee600c614ad7565b505050505050505050505050565b60606148ef826040516040808201905260208082527f5361666545524332303a206c6f772d6c6576656c2063616c6c206661696c6564908201526001600160a01b0386169190614c6e565b905060008151111561184257602081018151602081101561491857600080614915614ded565b50505b810190808051925061184291505057600080611939614ded565b61493b81614d4d565b61494c5a614947615223565b614d65565b8360008282600160d81b8161495f614e58565b8164ffffffffff021916908364ffffffffff1602179061497d61504b565b5050508391906101000a81614990614e58565b816001600160d81b0302191690836001600160d81b031602179061261461504b565b6000600160681b82106149cd576000806149ca614ded565b50505b5090565b614a2b826135bb846040516040808201905290816000826149f0614e58565b6001600160d81b036101009290920a9004168152602001601b82614a12614e58565b64ffffffffff6101009290920a900416905250846139da565b5050565b60006003821115614a735781600160028204015b81811015614a6b57809150600281828681614a5a57fe5b040181614a6357fe5b049050614a43565b509050611698565b8115614a8157506001611698565b506000611698565b600081511592915050565b60008083511115614aab5760018351039050610f2d565b50919050565b6000600160301b82106149cd576000806149ca614ded565b600081518351149392505050565b614adf615212565b60038201600086516001600160a01b03166001600160a01b0316815260200190815260200160002060405160208101604052908181614b1c614e58565b9052509050614b29615212565b82600301600087602001516001600160a01b03166001600160a01b0316815260200190815260200160002060405160208101604052908181614b69614e58565b9052509050614b7782614a89565b8015614b875750614b8781614a89565b8015614b94575085604001515b8015614ba1575085606001515b15614c0157614bd38651614bb58488614a94565b6001614bca8a608001518b60a0015190613527565b8863ffffffff16565b614bfa8660200151614be58388614a94565b6001614bca8a608001518b60c001519061337f565b5050612eca565b856040015115614c3b57614c3b8651838860a00151614c298a608001518b60a0015190613527565b8a60e001518894939291908b8b614d7d565b856060015115614c6657614c668660200151828860c00151614c298a608001518b60c001519061337f565b505050505050565b6060614c7984614da1565b614c8b57600080614c88614ded565b50505b60006060856001600160a01b0316856040518082805190602001908083835b60208310614cc95780518252601f199092019160209182019101614caa565b6001836020036101000a0380198251168184511680821785525050505050509050019150506000604051808303816000865a614d03615135565b5050505050509150503d8060008114614d38576040513d603f01601f191681016040523d815291503d6000602084013e614d3d565b606091505b5091509150612641828286614db6565b6000600160d81b82106149cd576000806149ca614ded565b6000600160281b82106149cd576000806149ca614ded565b612f568888888715614d8f5789614d97565b614d976135c0565b898989898961422e565b60008082614dad614ef9565b15159392505050565b60608315614dc55750816110e7565b600083511115614de65782518084602001614dde614ded565b5050506110e7565b6000806133975b632a2a7adb598160e01b8152600481016020815285602082015260005b86811015614e25578086015182820160400152602001614e0a565b506020828760640184336000905af158600e01573d6000803e3d6000fd5b3d6001141558600a015760016000f35b505050565b6303daa959598160e01b8152836004820152602081602483336000905af158600e01573d6000803e3d6000fd5b3d6001141558600a015760016000f35b8051935060005b604081101561184257600082820152602001614e9c565b6373509064598160e01b8152602081600483336000905af158600e01573d6000803e3d6000fd5b3d6001141558600a015760016000f35b80516000825293506020614e9c565b638435035b598160e01b8152836004820152602081602483336000905af158600e01573d6000803e3d6000fd5b3d6001141558600a015760016000f35b80516000825293506020614e9c565b638540661f598160e01b8152614f76565b8080831115610f2d575090919050565b8080831015610f2d575090919050565b836004820152846024820152606060448201528660648201526084810160005b88811015614fae578088015182820152602001614f96565b506060828960a40184336000905af158600e01573d6000803e3d6000fd5b3d6001141558600a015760016000f35b815160408301513d6000853e8b8b82606087013350600060045af150596150038d3d614f66565b8c0161500f8187614f56565b5b828110156150245760008152602001615010565b50929c50505050505050565b60405160408082018152600290829080368337509192915050565b6322bd64c0598160e01b8152836004820152846024820152600081604483336000905af158600e01573d6000803e3d6000fd5b3d6001141558600a015760016000f35b600081526020614e9c565b82806150a3614e58565b600181600116156101000203166002900490600052602060002090601f016020900481019282601f106150ea57805160ff191683800117856150e361504b565b5050615129565b828001600101856150f961504b565b50508215615129579182015b828111156151295782518261511861504b565b505091602001919060010190615105565b506149cd9291506152cb565b6385979f76598160e01b8152836004820152846024820152606060448201528760648201526084810160005b89811015615179578089015182820152602001615161565b506060828a60a40184336000905af158600e01573d6000803e3d6000fd5b3d6001141558600a015760016000f35b815160408301513d6000853e8c8c82606087013350600060045af150596151ce8e3d614f66565b8d016151da8187614f56565b5b828110156151ef57600081526020016151db565b50929d50505050505050565b604051604080820190526000808252602082015290565b604051602081016040526000815290565b63bdbf8c36598160e01b8152602081600483336000905af158600e01573d6000803e3d6000fd5b3d6001141558600a015760016000f35b80516000825293506020614e9c565b6040516060810160409081526000808352602083018190529082015290565b60405161010081016040908152600080835260208301819052908201819052606082018190526080820181905260a0820181905260c0820181905260e082015290565b808211156149cd57600080826152df61504b565b5050506001016152cb56fe45524332303a206275726e20616d6f756e7420657863656564732062616c616e636545524332303a207472616e7366657220616d6f756e7420657863656564732062616c616e636545524332303a207472616e7366657220616d6f756e74206578636565647320616c6c6f77616e63658be0079c531659141344cd1fd0a4f28419497f9722a3daafe3b4186f6b6457e0ddf252ad1be2c89b69c2b068fc378daa952ba7f163c4a11628f55a4df523b3ef45524332303a2064656372656173656420616c6c6f77616e63652062656c6f77207a65726f",
  "deployedBytecode": "0x608060405234801561001957600080610016614ded565b50505b50600436106101f75760003560e01c806306fdde031461020557806307a8007014610284578063095ea7b3146102ac5780630dfe1681146102f557806311212d661461031957806318160ddd1461033f5780631e1401f81461035957806323b872dd1461039857806323e8cae1146103d75780633049105d1461041d578063313ce567146104e75780633732b39414610505578063395093511461050d5780633c6216a6146105425780634f64b2be146106515780635915d806146106775780635ed9156d146107435780636669302a1461079b5780636edc2c09146107a357806370a08231146107d2578063715018a6146108015780638d32df32146108095780638da5cb5b1461099357806393028d831461099b57806395cad3c7146109a357806395d89b41146109d25780639aad141b146109da5780639ea5ce0a14610a09578063a457c2d714610a9d578063a9059cbb14610ad2578063aa6ca80814610b07578063c40d4d6614610b4a578063d21220a714610b79578063d5bcb9b514610b81578063d7d3aab514610bce578063d9a0c21714610bfd578063dd62ed3e14610c05578063ddca3f4314610c3c578063e331d03914610c44578063e7ff42c914610c97578063f1ea604214610cc6578063f2fde38b14610cce575b600080610202614ded565b50505b61020d610cfd565b60405160208082528190810183818151815260200191508051906020019080838360005b83811015610249578082015183820152602001610231565b50505050905090810190601f1680156102765780820380516001836020036101000a031916815260200191505b509250505060405180910390f35b6102aa600480360360208110156102a3576000806102a0614ded565b50505b5035610dba565b005b6102e1600480360360408110156102cb576000806102c8614ded565b50505b506001600160a01b038135169060200135610f15565b604051901515815260200160405180910390f35b6102fd610f33565b6040516001600160a01b03909116815260200160405180910390f35b6102aa6004803603602081101561033857600080610335614ded565b50505b5035610f52565b6103476110a4565b60405190815260200160405180910390f35b6103476004803603606081101561037857600080610375614ded565b50505b506001600160a01b038135811691602081013590911690604001356110b5565b6102e1600480360360608110156103b7576000806103b4614ded565b50505b506001600160a01b038135811691602081013590911690604001356110ee565b6103df611182565b60405180846001600160681b03168152602001836001600160681b031681526020018265ffffffffffff168152602001935050505060405180910390f35b6104a86004803603608081101561043c57600080610439614ded565b50505b81019080806040019060028060200260405190810160405280929190826002602002808284376000920191909152509194939260408082019350909150600290805190810160405280929190826002602002808284376000920191909152509194506111e79350505050565b6040518281526020810182604080838360005b838110156104d35780820151838201526020016104bb565b505050509050019250505060405180910390f35b6104ef61120f565b60405160ff909116815260200160405180910390f35b61034761122b565b6102e16004803603604081101561052c57600080610529614ded565b50505b506001600160a01b0381351690602001356112a6565b610619600480360360608110156105615760008061055e614ded565b50505b81359190810190604081016020820135600160201b81111561058b57600080610588614ded565b50505b8201836020820111156105a6576000806105a3614ded565b50505b803590602001918460208302840111600160201b831117156105d0576000806105cd614ded565b50505b919080806020026020016040519081016040528093929190818152602001838360200280828437600092019190915250929550505090356001600160a01b0316915061130b9050565b6040518082604080838360005b8381101561063e578082015183820152602001610626565b5050505090500191505060405180910390f35b6102fd600480360360208110156106705760008061066d614ded565b50505b503561164b565b6106196004803603604081101561069657600080610693614ded565b50505b81359190810190604081016020820135600160201b8111156106c0576000806106bd614ded565b50505b8201836020820111156106db576000806106d8614ded565b50505b803590602001918460208302840111600160201b8311171561070557600080610702614ded565b50505b91908080602002602001604051908101604052809392919081815260200183836020028082843760009201919091525092955061169d945050505050565b610772600480360360208110156107625760008061075f614ded565b50505b50356001600160a01b03166116b8565b6040516001600160d81b03909216825264ffffffffff1660208201526040908101905180910390f35b6102aa611704565b610772600480360360208110156107c2576000806107bf614ded565b50505b50356001600160a01b031661175f565b610347600480360360208110156107f1576000806107ee614ded565b50505b50356001600160a01b031661177a565b6102aa61179a565b6102aa600480360360a081101561082857600080610825614ded565b50505b6001600160a01b038235811692602081013590911691810190606081016040820135600160201b81111561086457600080610861614ded565b50505b82018360208201111561087f5760008061087c614ded565b50505b803590602001918460018302840111600160201b831117156108a9576000806108a6614ded565b50505b91908080601f01602080910402602001604051908101604052818152929190602084018383808284376000920191909152509295949360208101935035915050600160201b81111561090357600080610900614ded565b50505b82018360208201111561091e5760008061091b614ded565b50505b803590602001918460018302840111600160201b8311171561094857600080610945614ded565b50505b91908080601f0160208091040260200160405190810160405281815292919060208401838380828437600092019190915250929550505090356001600160a01b031691506118479050565b6102fd611940565b6102aa611962565b610347600480360360208110156109c2576000806109bf614ded565b50505b50356001600160a01b03166119bb565b61020d611a15565b610347600480360360208110156109f9576000806109f6614ded565b50505b50356001600160a01b0316611abb565b6104a8600480360360a0811015610a2857600080610a25614ded565b50505b81019080806040019060028060200260405190810160405280929190826002602002808284376000920191909152509194939260408082019350909150600290805190810160405280929190826002602002808284376000920191909152509194505050356001600160a01b03169050611b0b565b6102e160048036036040811015610abc57600080610ab9614ded565b50505b506001600160a01b0381351690602001356122ca565b6102e160048036036040811015610af157600080610aee614ded565b50505b506001600160a01b038135169060200135612340565b610b0f612354565b6040516020808252819081018381815181526020019150805160209182019102808383600083156104d35780820151838201526020016104bb565b6102aa60048036036020811015610b6957600080610b66614ded565b50505b50356001600160a01b0316612411565b6102fd61261d565b610347600480360360a0811015610ba057600080610b9d614ded565b50505b506001600160a01b038135811691602081013582169160408201359160608101359160809091013516612629565b61034760048036036020811015610bed57600080610bea614ded565b50505b50356001600160a01b031661264b565b6102fd6127d3565b61034760048036036040811015610c2457600080610c21614ded565b50505b506001600160a01b03813581169160200135166127df565b610347612818565b610347600480360360c0811015610c6357600080610c60614ded565b50505b506001600160a01b0381358116916020810135821691604082013591606081013591608082013581169160a0013516612836565b61034760048036036020811015610cb657600080610cb3614ded565b50505b50356001600160a01b0316612c67565b6103df612db4565b6102aa60048036036020811015610ced57600080610cea614ded565b50505b50356001600160a01b0316612dff565b6060601580610d0a614e58565b600181600116156101000203166002900480601f016020809104026020016040519081016040528181529190602083018280610d44614e58565b60018160011615610100020316600290048015610db05780601f10610d7e576101008083610d70614e58565b040283529160200191610db0565b820191906000526020600020905b81610d95614e58565b81529060010190602001808311610d8c57829003601f168201915b5050505050905090565b670de0b6b3a7640000811115610dd857600080610dd5614ded565b50505b610f125a610de4614eb3565b600f60005a610df1614eb3565b6001600160a01b03166001600160a01b0316815260200190815260200160002060405160208101604052908181610e26614e58565b905250610e3284612ed0565b610e435a610e3e614eb3565b61177a565b610e4b6110a4565b60006007610e57614e58565b906101000a90046001600160a01b03166001600160a01b03166323662bb96040518163ffffffff1660e01b81526004016020604051808303818680610e9a614ef9565b158015610eaf57600080610eac614ded565b50505b505a610eb9614f45565b5050505050158015610ed8573d6000803e3d6000610ed5614ded565b50505b505050506040513d6020811015610ef757600080610ef4614ded565b50505b810190808051600c989796959493509150612eee9050612f45565b50565b6000610f29610f22612f60565b8484612f6b565b5060015b92915050565b60006011610f3f614e58565b906101000a90046001600160a01b031681565b662386f26fc10000811115610f6f57600080610f6c614ded565b50505b610f125a610f7b614eb3565b600b60005a610f88614eb3565b6001600160a01b03166001600160a01b0316815260200190815260200160002060405160208101604052908181610fbd614e58565b905250610fc984612ed0565b610fd55a610e3e614eb3565b610fdd6110a4565b60006007610fe9614e58565b906101000a90046001600160a01b03166001600160a01b0316635a6c72d06040518163ffffffff1660e01b8152600401602060405180830381868061102c614ef9565b1580156110415760008061103e614ded565b50505b505a61104b614f45565b505050505015801561106a573d6000803e3d6000611067614ded565b50505b505050506040513d602081101561108957600080611086614ded565b50505b810190808051600898979695949350915061302f9050612f45565b600060026110b0614e58565b905090565b60006110e48484846110c68861264b565b6110cf88612c67565b6110d7612818565b6110df61122b565b613086565b90505b9392505050565b60006110fb8484846131c3565b61117884611107612f60565b6111738560405160608101604052602880825261533360208301396001600160a01b038a1660009081526001602052604090206000611144612f60565b6001600160a01b03166001600160a01b0316815260200190815260200160002061116c614e58565b91906132eb565b612f6b565b5060019392505050565b6000808080600c611191614e58565b6001600160681b036101009290920a900416600d600c6111af614e58565b6001600160681b036101009290920a900416601a600c6111cd614e58565b906101000a900465ffffffffffff16925092509250909192565b60006111f1615030565b61120484845a6111ff614eb3565b611b0b565b915091509250929050565b600080600561121c614e58565b906101000a900460ff16905090565b60006110b0600c604051606081016040529081600082611249614e58565b6001600160681b036101009290920a9004168152602001600d8261126b614e58565b6001600160681b036101009290920a9004168152602001601a8261128d614e58565b65ffffffffffff6101009290920a90041690525061330a565b6000610f296112b3612f60565b8461117385600160006112c4612f60565b6001600160a01b03166001600160a01b031681526020019081526020016000206001600160a01b038916600090815260209190915260409020611305614e58565b9061337f565b611313615030565b6002600661131f614e58565b141561133357600080611330614ded565b50505b600280600661134061504b565b50505061134b615030565b60405180604001604052806011600090611363614e58565b6001600160a01b036101009290920a900416815260200160006012611386614e58565b6001600160a01b036101009290920a9004169052905060006113a66110a4565b90506113ba5a6113b4614eb3565b876133a0565b60005b60028110156115c85760008382600281106113d457fe5b602002015190506000816001600160a01b03166370a082315a63996d79a5598160e01b8152602081600483336000905af158601d01573d60011458600c01573d6000803e3d621234565260ea61109c528051925060005b60408110156114425760008282015260200161142b565b5050506040516001600160e01b031960e084901b1681526001600160a01b039091166004820152602401602060405180830381868061147f614ef9565b15801561149457600080611491614ded565b50505b505a61149e614f45565b50505050501580156114bd573d6000803e3d60006114ba614ded565b50505b505050506040513d60208110156114dc576000806114d9614ded565b50505b81019080805193506000925061150091508690506114fa848d613476565b906134a3565b90506115166001600160a01b03841689836134cb565b8087856002811061152357fe5b602002015288518410158061154b575088848151811061153f57fe5b60200260200101518110155b61155d5760008061155a614ded565b50505b61158d8261156b878d613527565b6001600160a01b03861660009081526013602052889060409020929190613545565b6115bd8261159b878d613527565b6001600160a01b03861660009081526014602052889060409020929190613545565b5050506001016113bd565b50836001600160a01b03165a6115dc614eb3565b6001600160a01b03167f3cae9923fd3c2f468aa25a8ef687923e37f957459557c0380fd06526c0b8cdbc888651602088015160405180848152602001838152602001828152602001935050505060405180910390a3505060016006819061164161504b565b5050509392505050565b600081611675576000601161165e614e58565b906101000a90046001600160a01b03169050611698565b816001141561168a576000601261165e614e58565b600080611695614ded565b50505b919050565b6116a5615030565b6110e783835a6116b3614eb3565b61130b565b601460205280600052604060002090506000816116d3614e58565b6001600160d81b036101009290920a90041690601b816116f1614e58565b906101000a900464ffffffffff16905082565b61175d5a611710614eb3565b600f60005a61171d614eb3565b6001600160a01b03166001600160a01b0316815260200190815260200160002060405160208101604052908181611752614e58565b905250610e326135c0565b565b601360205280600052604060002090506000816116d3614e58565b6001600160a01b0381166000908152602081905260408120610f2d614e58565b6117a2612f60565b6001600160a01b03166117b3611940565b6001600160a01b0316146117cf576000806117cc614ded565b50505b6000600160056117dd614e58565b906101000a90046001600160a01b03166001600160a01b031660008051602061535b83398151915260405160405180910390a36000600561010081611820614e58565b816001600160a01b0302191690836001600160a01b031602179061184261504b565b505050565b600083511161185e5760008061185b614ded565b50505b600082511161187557600080611872614ded565b50505b836001600160a01b0316856001600160a01b0316141561189d5760008061189a614ded565b50505b8460116001816118ab614e58565b816001600160a01b0302191690836001600160a01b03160217906118cd61504b565b50505083601260006101000a816118e2614e58565b816001600160a01b0302191690836001600160a01b031602179061190461504b565b50505082601590805161191b929160200190615099565b50601682805161192f929160200190615099565b50611939816135db565b5050505050565b600080601061194d614e58565b906101000a90046001600160a01b0316905090565b61175d5a61196e614eb3565b600b60005a61197b614eb3565b6001600160a01b03166001600160a01b03168152602001908152602001600020604051602081016040529081816119b0614e58565b905250610fc96135c0565b6000610f2d8160076119cb614e58565b6001600160a01b038581166000908152600f6020526101009390930a90910416906323662bb9906040902060405160208101604052908181611a0b614e58565b90525091906137df565b6060601680611a22614e58565b600181600116156101000203166002900480601f016020809104026020016040519081016040528181529190602083018280611a5c614e58565b60018160011615610100020316600290048015610db05780601f10611a88576101008083610d70614e58565b820191906000526020600020905b81611a9f614e58565b81529060010190602001808311611a9657509395945050505050565b6000610f2d816007611acb614e58565b6001600160a01b038581166000908152600b6020526101009390930a9091041690635a6c72d0906040902060405160208101604052908181611a0b614e58565b6000611b15615030565b60026006611b21614e58565b1415611b3557600080611b32614ded565b50505b6002806006611b4261504b565b505050611b4d615030565b60405180604001604052806011600090611b65614e58565b6001600160a01b036101009290920a900416815260200160006012611b88614e58565b6001600160a01b036101009290920a900416905290506000611ba86110a4565b905080611d6e57611bbc6103e86063613476565b9350611c225a63996d79a5598160e01b8152602081600483336000905af158601d01573d60011458600c01573d6000803e3d621234565260ea61109c528051925060005b6040811015611c1757600082820152602001611c00565b5050506103e861388b565b60005b6002811015611d6857611c4885898360028110611c3e57fe5b602002015161394b565b94506000888260028110611c5857fe5b602002015111611c7057600080611c6d614ded565b50505b868160028110611c7c57fe5b6020020151888260028110611c8d57fe5b60200201511015611ca657600080611ca3614ded565b50505b611d3e5a611cb2614eb3565b5a63996d79a5598160e01b8152602081600483336000905af158601d01573d60011458600c01573d6000803e3d621234565260ea61109c528051925060005b6040811015611d0857600082820152602001611cf1565b5050508a8460028110611d1757fe5b6020020151868560028110611d2857fe5b60200201516001600160a01b0316929190613962565b878160028110611d4a57fe5b6020020151848260028110611d5b57fe5b6020020152600101611c25565b50612227565b611d76615030565b60005b6002811015611eb657838160028110611d8e57fe5b60200201516001600160a01b03166370a082315a63996d79a5598160e01b8152602081600483336000905af158601d01573d60011458600c01573d6000803e3d621234565260ea61109c528051925060005b6040811015611df757600082820152602001611de0565b5050506040516001600160e01b031960e084901b1681526001600160a01b0390911660048201526024016020604051808303818680611e34614ef9565b158015611e4957600080611e46614ded565b50505b505a611e53614f45565b5050505050158015611e72573d6000803e3d6000611e6f614ded565b50505b505050506040513d6020811015611e9157600080611e8e614ded565b50505b810190808051925084915083905060028110611ea957fe5b6020020152600101611d79565b50600019945060005b6002811015611f0a57611f0086611efb848460028110611edb57fe5b60200201516114fa8d8660028110611eef57fe5b60200201518890613476565b6139cb565b9550600101611ebf565b508460005b60028110156121835760008a8260028110611f2657fe5b602002015111611f3e57600080611f3b614ded565b50505b6000611f66856114fa6001880361130587898860028110611f5b57fe5b602002015190613476565b9050898260028110611f7457fe5b6020020151811015611f8e57600080611f8b614ded565b50505b6120005a611f9a614eb3565b5a63996d79a5598160e01b8152602081600483336000905af158601d01573d60011458600c01573d6000803e3d621234565260ea61109c528051925060005b6040811015611ff057600082820152602001611fd9565b50505083898660028110611d2857fe5b61213484836002811061200f57fe5b602002015187846002811061202057fe5b60200201516001600160a01b03166370a082315a63996d79a5598160e01b8152602081600483336000905af158601d01573d60011458600c01573d6000803e3d621234565260ea61109c528051925060005b604081101561208957600082820152602001612072565b5050506040516001600160e01b031960e084901b1681526001600160a01b03909116600482015260240160206040518083038186806120c6614ef9565b1580156120db576000806120d8614ded565b50505b505a6120e5614f45565b5050505050158015612104573d6000803e3d6000612101614ded565b50505b505050506040513d602081101561212357600080612120614ded565b50505b810190808051939250506135279050565b87836002811061214057fe5b602002015261217888611efb86856002811061215857fe5b60200201516114fa8b876002811061216c57fe5b60200201518a90613476565b975050600101611f0f565b5060005b6002811015612223576121ec83826002811061219f57fe5b60200201516121ae868a61337f565b86601460008a87600281106121bf57fe5b60200201516001600160a01b03166001600160a01b03168152602001908152602001600020929190613545565b61221b8382600281106121fb57fe5b602002015161220a868a61337f565b86601360008a87600281106121bf57fe5b600101612187565b5050505b6000841161223d5760008061223a614ded565b50505b612247858561388b565b846001600160a01b03165a61225a614eb3565b6001600160a01b03167f8bab6aed5a508937051a144e61d6e61336834a66aaee250a00613ae6f744c422868651602088015160405180848152602001838152602001828152602001935050505060405180910390a350506001600681906122bf61504b565b505050935093915050565b6000610f296122d7612f60565b846111738560405160608101604052602580825261539b6020830139600160006122ff612f60565b6001600160a01b03166001600160a01b031681526020019081526020016000206001600160a01b038a1660009081526020919091526040902061116c614e58565b6000610f2961234d612f60565b84846131c3565b60606002604051908082528060200260200182016040528015612381578160200160208202803683370190505b50905060006011612390614e58565b906101000a90046001600160a01b0316816000815181106123ad57fe5b6001600160a01b0390921660209283029190910190910152600060126123d1614e58565b906101000a90046001600160a01b0316816001815181106123ee57fe5b60200260200101906001600160a01b031690816001600160a01b03168152505090565b612419612f60565b6001600160a01b031661242a611940565b6001600160a01b03161461244657600080612443614ded565b50505b806007600181612454614e58565b816001600160a01b0302191690836001600160a01b031602179061247661504b565b5050505a63996d79a5598160e01b8152602081600483336000905af158601d01573d60011458600c01573d6000803e3d621234565260ea61109c528051925060005b60408110156124cf576000828201526020016124b8565b5050506001600160a01b03166393028d836040518163ffffffff1660e01b815260040160006040518083038160008780612507614ef9565b15801561251c57600080612519614ded565b50505b505a612526615135565b505050505050158015612546573d6000803e3d6000612543614ded565b50505b505050505a63996d79a5598160e01b8152602081600483336000905af158601d01573d60011458600c01573d6000803e3d621234565260ea61109c528051925060005b60408110156125a057600082820152602001612589565b5050506001600160a01b0316636669302a6040518163ffffffff1660e01b8152600401600060405180830381600087806125d8614ef9565b1580156125ed576000806125ea614ded565b50505b505a6125f7615135565b505050505050158015611939573d6000803e3d6000612614614ded565b50505050505050565b60006012610f3f614e58565b600061264186868686865a61263c614eb3565b612836565b9695505050505050565b600080826001600160a01b03166370a082315a63996d79a5598160e01b8152602081600483336000905af158601d01573d60011458600c01573d6000803e3d621234565260ea61109c528051925060005b60408110156126b35760008282015260200161269c565b5050506040516001600160e01b031960e084901b1681526001600160a01b03909116600482015260240160206040518083038186806126f0614ef9565b15801561270557600080612702614ded565b50505b505a61270f614f45565b505050505015801561272e573d6000803e3d600061272b614ded565b50505b505050506040513d602081101561274d5760008061274a614ded565b50505b8101908080516001600160a01b038716600090815260136020529094506110e793506127cd925084915060409020604051604080820190529081600082612792614e58565b6001600160d81b036101009290920a9004168152602001601b826127b4614e58565b64ffffffffff6101009290920a900416905250906139da565b8261394b565b60006007610f3f614e58565b6001600160a01b03821660009081526001602052604081206001600160a01b0383166000908152602091909152604090206110e7614e58565b60006110b06008604051606081016040529081600082611249614e58565b600060026006612844614e58565b141561285857600080612855614ded565b50505b600280600661286561504b565b5050506007600090612875614e58565b906101000a90046001600160a01b03166001600160a01b03166322f3e2d46040518163ffffffff1660e01b815260040160206040518083038186806128b8614ef9565b1580156128cd576000806128ca614ded565b50505b505a6128d7614f45565b50505050501580156128f6573d6000803e3d60006128f3614ded565b50505b505050506040513d602081101561291557600080612912614ded565b50505b81019080805192506129329150505760008061292f614ded565b50505b61293a6151fb565b6040518060400160405280896001600160a01b03166370a082315a63996d79a5598160e01b8152602081600483336000905af158601d01573d60011458600c01573d6000803e3d621234565260ea61109c528051925060005b60408110156129aa57600082820152602001612993565b5050506040516001600160e01b031960e084901b1681526001600160a01b03909116600482015260240160206040518083038186806129e7614ef9565b1580156129fc576000806129f9614ded565b50505b505a612a06614f45565b5050505050158015612a25573d6000803e3d6000612a22614ded565b50505b505050506040513d6020811015612a4457600080612a41614ded565b50505b81019080805184525050506020016001600160a01b0389166370a082315a63996d79a5598160e01b8152602081600483336000905af158601d01573d60011458600c01573d6000803e3d621234565260ea61109c528051925060005b6040811015612ab757600082820152602001612aa0565b5050506040516001600160e01b031960e084901b1681526001600160a01b0390911660048201526024016020604051808303818680612af4614ef9565b158015612b0957600080612b06614ded565b50505b505a612b13614f45565b5050505050158015612b32573d6000803e3d6000612b2f614ded565b50505b505050506040513d6020811015612b5157600080612b4e614ded565b50505b8101908080519093525091925060009150612b6c90506151fb565b612b746151fb565b6040518060400160405280612b87612818565b8152602001612b9461122b565b90529050612ba78b8b8b8b8a8987613a3b565b90965090935091506001600160a01b03808c169087165a612bc6614eb3565b6001600160a01b03167fbd99c6719f088aa0abd9e7b7a4a635d1f931601e9f304b538dc42be25d8c65c68d878a885189602001518f6040516001600160a01b03968716815260208101959095526040808601949094526060850192909252608084015290921660a082015260c001905180910390a4612c488386898785613ccc565b50505050600160068190612c5a61504b565b5050509695505050505050565b600080826001600160a01b03166370a082315a63996d79a5598160e01b8152602081600483336000905af158601d01573d60011458600c01573d6000803e3d621234565260ea61109c528051925060005b6040811015612ccf57600082820152602001612cb8565b5050506040516001600160e01b031960e084901b1681526001600160a01b0390911660048201526024016020604051808303818680612d0c614ef9565b158015612d2157600080612d1e614ded565b50505b505a612d2b614f45565b5050505050158015612d4a573d6000803e3d6000612d47614ded565b50505b505050506040513d6020811015612d6957600080612d66614ded565b50505b8101908080516001600160a01b038716600090815260146020529094506110e79350612dae925084915060409020604051604080820190529081600082612792614e58565b826139cb565b60008080806008612dc3614e58565b6001600160681b036101009290920a900416600d6008612de1614e58565b6001600160681b036101009290920a900416601a60086111cd614e58565b612e07612f60565b6001600160a01b0316612e18611940565b6001600160a01b031614612e3457600080612e31614ded565b50505b6001600160a01b038116612e5057600080612e4d614ded565b50505b6001600160a01b03811660016005612e66614e58565b906101000a90046001600160a01b03166001600160a01b031660008051602061535b83398151915260405160405180910390a380600561010081612ea8614e58565b816001600160a01b0302191690836001600160a01b0316021790612eca61504b565b50505050565b612ed8615212565b6040516020810160405260019290920182525090565b836001600160a01b03167fce0cf859d853e1944032294143a1bf3ad799998ae77acbeb6c4d9b20d691024084848460405192835290151560208301526040808301919091526060909101905180910390a250505050565b612f5688888888888989898961422e565b5050505050505050565b60005a6110b0614eb3565b6001600160a01b038316612f8757600080612f84614ded565b50505b6001600160a01b038216612fa357600080612fa0614ded565b50505b6001600160a01b038316600090815260016020528190604090206001600160a01b0384166000908152602091909152604090208190612fe061504b565b505050816001600160a01b0316836001600160a01b03167f8c5be1e5ebec7d5bd14f71427d1e84f3dd0314c0f7b2291e5b200ac8c7c3b9258360405190815260200160405180910390a3505050565b836001600160a01b03167fe117cae46817b894b41a4412b73ae0ba746a5707b94e02d83b4c6502010b11ac84848460405192835290151560208301526040808301919091526060909101905180910390a250505050565b6000866001600160a01b0316886001600160a01b031611156130a6579596955b6000861180156130e25750600060116130bd614e58565b906101000a90046001600160a01b03166001600160a01b0316886001600160a01b0316145b801561311a5750600060126130f5614e58565b906101000a90046001600160a01b03166001600160a01b0316876001600160a01b0316145b156131b857600061314161313a670de0b6b3a76400006114fa8a88613476565b8890613527565b9050600061314f878361337f565b90506000613161826114fa858a613476565b9050600061318a6131728786613476565b613184670de0b6b3a764000086613476565b90613527565b905060006131a0670de0b6b3a764000085613476565b90506131b0816114fa8585613476565b955050505050505b979650505050505050565b6001600160a01b0383166131df576000806131dc614ded565b50505b6001600160a01b0382166131fb576000806131f8614ded565b50505b6132068383836144fa565b6132418160405160608101604052602680825261530d60208301396001600160a01b038616600090815260208190526040902061116c614e58565b6001600160a01b0384166000908152602081905260409020819061326361504b565b5050506001600160a01b0382166000908152602081905261328c90829060409020611305614e58565b6001600160a01b038316600090815260208190526040902081906132ae61504b565b505050816001600160a01b0316836001600160a01b031660008051602061537b8339815191528360405190815260200160405180910390a3505050565b60008383111561330357600080613300614ded565b50505b5050900390565b60008061332d62015180611efb856040015165ffffffffffff165a613184615223565b9050600061333e6201518083613527565b9050613377620151806114fa6133628588602001516001600160681b031690613476565b6113058589516001600160681b031690613476565b949350505050565b6000828201838110156110e757600080613397614ded565b50509392505050565b6001600160a01b0382166133bc576000806133b9614ded565b50505b6133c8826000836144fa565b613403816040516060810160405260228082526152eb60208301396001600160a01b038516600090815260208190526040902061116c614e58565b6001600160a01b0383166000908152602081905260409020819061342561504b565b505050613436816002613184614e58565b80600261344161504b565b5060009150506001600160a01b03831660008051602061537b8339815191528360405190815260200160405180910390a35050565b60008261348557506000610f2d565b8282028284828161349257fe5b04146110e757600080613397614ded565b60008082116134ba576000806134b7614ded565b50505b8183816134c357fe5b049392505050565b6118428363a9059cbb60e01b84846040516001600160a01b0390921660248301526044820152606401604051602081830303815290604052906001600160e01b0319166020820180516001600160e01b031690911790526148a4565b60008282111561353f5760008061353c614ded565b50505b50900390565b612eca846135bb836114fa61355b826001613527565b611305886135b58c60405160408082019052908160008261357a614e58565b6001600160d81b036101009290920a9004168152602001601b8261359c614e58565b64ffffffffff6101009290920a9004169052508c6139da565b90613476565b614932565b6135c8615212565b6040516020810160405260008152905090565b601460106135e7614e58565b906101000a900460ff161561360457600080613601614ded565b50505b806007600181613612614e58565b816001600160a01b0302191690836001600160a01b031602179061363461504b565b5050506136db816001600160a01b0316635a6c72d06040518163ffffffff1660e01b8152600401602060405180830381868061366e614ef9565b15801561368357600080613680614ded565b50505b505a61368d614f45565b50505050501580156136ac573d6000803e3d60006136a9614ded565b50505b505050506040513d60208110156136cb576000806136c8614ded565b50505b81019080805192506149b2915050565b6008600160681b816136eb614e58565b816001600160681b0302191690836001600160681b031602179061370d61504b565b505050613747816001600160a01b03166323662bb96040518163ffffffff1660e01b8152600401602060405180830381868061366e614ef9565b600c600160681b81613757614e58565b816001600160681b0302191690836001600160681b031602179061377961504b565b5050505a613785614eb3565b6010600181613792614e58565b816001600160a01b0302191690836001600160a01b03160217906137b461504b565b5050506001601060146101000a816137ca614e58565b8160ff02191690831515021790612eca61504b565b600080845111156137f657600184510390506110e7565b82826040518163ffffffff1660e01b8152600401602060405180830381868061381d614ef9565b1580156138325760008061382f614ded565b50505b505a61383c614f45565b505050505015801561385b573d6000803e3d6000613858614ded565b50505b505050506040513d602081101561387a57600080613877614ded565b50505b810190808051979650505050505050565b6001600160a01b0382166138a7576000806138a4614ded565b50505b6138b3600083836144fa565b6138c1816002611305614e58565b8060026138cc61504b565b5050506001600160a01b038216600090815260208190526138f590829060409020611305614e58565b6001600160a01b0383166000908152602081905260409020819061391761504b565b5050506001600160a01b038216600060008051602061537b8339815191528360405190815260200160405180910390a35050565b60008183101561395b57816110e7565b5090919050565b612eca846323b872dd60e01b8585856040516001600160a01b0393841660248201529190921660448201526064810191909152608401604051602081830303815290604052906001600160e01b0319166020820180516001600160e01b031690911790526148a4565b600081831061395b57816110e7565b6000806139fa603c611efb866020015164ffffffffff165a613184615223565b90506000613a09603c83613527565b9050613a32603c6114fa613a1d8786613476565b611305858a516001600160d81b031690613476565b95945050505050565b600080613a466151fb565b613a7a85516001600160a01b038c166000908152601360205260409020604051604080820190529081600082612792614e58565b8152613a888151865161394b565b8152613ac160208601516001600160a01b038b166000908152601460205260409020604051604080820190529081600082612792614e58565b60208201908152613ad7905186602001516139cb565b6020820152613b535a613ae8614eb3565b5a63996d79a5598160e01b8152602081600483336000905af158601d01573d60011458600c01573d6000803e3d621234565260ea61109c528051925060005b6040811015613b3e57600082820152602001613b27565b5050506001600160a01b038d1691908b613962565b613bae85518b6001600160a01b03166370a082315a63996d79a5598160e01b8152602081600483336000905af158601d01573d60011458600c01573d6000803e3d621234565260ea61109c5280516000825292506020612072565b9250613bc98a8a858451856020015189518a60200151613086565b9150600082118015613bdb5750868210155b613bed57600080613bea614ded565b50505b613c016001600160a01b038a1687846134cb565b8451815114613c3757613c37613c198483519061337f565b6001600160a01b038c16600090815260136020526040902090614932565b8460200151816020015114613c7657613c76613c5883836020015190613527565b6001600160a01b038b16600090815260146020526040902090614932565b613c9985516001600160a01b038c166000908152601460205260409020906149d1565b613cbf85602001516001600160a01b038b166000908152601360205260409020906149d1565b9750975097945050505050565b6000808080806007613cdc614e58565b906101000a90046001600160a01b03166001600160a01b031663172886e76040518163ffffffff1660e01b81526004016080604051808303818680613d1f614ef9565b158015613d3457600080613d31614ded565b50505b505a613d3e614f45565b5050505050158015613d5d573d6000803e3d6000613d5a614ded565b50505b505050506040513d6080811015613d7c57600080613d79614ded565b50505b810190808051929190602001805192919060200180519291906020018051959950939750919550929350600092508291506a0c097ce7bc90715b34b9f160241b9050613dd989516114fa613dd28f8d519061337f565b8490613476565b9050613df589602001516114fa613dd28e8d6020015190613527565b90506a0c097ce7bc90715b34b9f160241b8111156141b757613e1681614a2f565b90506000613e3b826114fa613e3382670de0b6b3a7640000613527565b6135b56110a4565b90506001600160a01b038b16613e52576000613e68565b613e68670de0b6b3a76400006114fa838b613476565b93506001600160a01b038616613e7f576000613e95565b613e95670de0b6b3a76400006114fa838a613476565b92506001600160a01b038516613eca578315613eb557613eb58b8561388b565b8215613ec557613ec5868461388b565b6141b5565b6000841180613ed95750600083115b156141b5576000808411613eee576000613ef1565b60015b60008611613f00576000613f03565b60015b0160ff1690506060816001600160401b0381118015613f2a57600080613f27614ded565b50505b50604051908082528060200260200182016040528015613f54578160200160208202803683370190505b5090506060826001600160401b0381118015613f7857600080613f75614ded565b50505b50604051908082528060200260200182016040528015613fa2578160200160208202803683370190505b5090508d82600081518110613fb357fe5b60200260200101906001600160a01b031690816001600160a01b0316815250508681600081518110613fe157fe5b6020908102919091010152851561403f578882600185038151811061400257fe5b60200260200101906001600160a01b031690816001600160a01b0316815250508581600185038151811061403257fe5b6020026020010181815250505b876001600160a01b0316630931753c83836040518363ffffffff1660e01b8152600401808060200180602001838103835285818151815260200191508051906020019060200280838360005b838110156140a357808201518382015260200161408b565b50505050905001838103825284818151815260200191508051906020019060200280838360005b838110156140e25780820151838201526020016140ca565b5050505090500194505050505060006040518083038160008780614104614ef9565b15801561411957600080614116614ded565b50505b505a614123615135565b505050505050925050508015614137575060015b61419e577f08c379a0afcc32b1a39302f7cb8073359698411ab5fd6e3edb2c02c0b5fba8aa6040516020808252601690820152751d5c19185d1954995dd85c991cca0a4819985a5b195960521b6040808301919091526060909101905180910390a16141b1565b6141b1886141ac898961337f565b61388b565b5050505b505b7f2a368c7f33bb86e2d999940a3989d849031aff29b750f67947e6b8e8c3d2ffd689518a602001518a518b60200151878760405180878152602001868152602001858152602001848152602001838152602001828152602001965050505050505060405180910390a1505050505050505050505050565b60008960010161423c614e58565b905080600060028c0161424d614e58565b9050806142598b614a89565b1561426f57614268818a613527565b9050614290565b61428d61428661427f8d89614a94565b8b90613476565b8490613527565b92505b6142998a614a89565b156142af576142a8818961337f565b90506142d0565b6142cd6142c66142bf8c89614a94565b8a90613476565b849061337f565b92505b8383146142e957828060018f016142e561504b565b5050505b81811461430257808060028f016142fe61504b565b5050505b6000871561432757614322886114fa61431b858b613476565b879061337f565b614329565b865b9050614333615269565b8e60405160608101604052908160008261434b614e58565b6001600160681b036101009290920a9004168152602001600d8261436d614e58565b6001600160681b036101009290920a9004168152602001601a8261438f614e58565b65ffffffffffff6101009290920a900416905250905060208101516001600160681b0316821461448d578e6143cb6143c68361330a565b6149b2565b6143d4846149b2565b6143e55a6143e0615223565b614ab1565b83600081600d8482600160d01b816143fb614e58565b8165ffffffffffff021916908365ffffffffffff1602179061441b61504b565b5050508591906101000a8161442e614e58565b816001600160681b0302191690836001600160681b031602179061445061504b565b5050508491906101000a81614463614e58565b816001600160681b0302191690836001600160681b031602179061448561504b565b505050505050505b5061449a90508a8c614ac9565b6144ca576001600160a01b038c16600090815260038e016020528a90604090208151816144c561504b565b505050505b6144eb8c6144d88c89614a94565b6144e18d614a89565b8b8963ffffffff16565b50505050505050505050505050565b816001600160a01b0316836001600160a01b0316141561451957611842565b6000806007614526614e58565b906101000a90046001600160a01b031690506000806001600160a01b0316856001600160a01b031614806146075750816001600160a01b0316633b90b9bf866040516001600160e01b031960e084901b1681526001600160a01b039091166004820152602401602060405180830381868061459f614ef9565b1580156145b4576000806145b1614ded565b50505b505a6145be614f45565b50505050501580156145dd573d6000803e3d60006145da614ded565b50505b505050506040513d60208110156145fc576000806145f9614ded565b50505b810190808051925050505b15905060006001600160a01b03851615806146cf5750826001600160a01b0316633b90b9bf866040516001600160e01b031960e084901b1681526001600160a01b0390911660048201526024016020604051808303818680614667614ef9565b15801561467c57600080614679614ded565b50505b505a614686614f45565b50505050501580156146a5573d6000803e3d60006146a2614ded565b50505b505050506040513d60208110156146c4576000806146c1614ded565b50505b810190808051925050505b159050811580156146de575080155b156146eb57505050611842565b60006001600160a01b03871661470257600061470b565b61470b8761177a565b905060006001600160a01b03871661472457600061472d565b61472d8761177a565b9050600061476f6001600160a01b0389161561474a57600061474c565b875b6131846001600160a01b038c1615614765576000614767565b895b6113056110a4565b9050614779615288565b6040518061010001604052808b6001600160a01b031681526020018a6001600160a01b0316815260200187151581526020018615158152602001898152602001858152602001848152602001838152509050600080886001600160a01b031663edb7a6fa6040518163ffffffff1660e01b815260040160408051808303818680614801614ef9565b15801561481657600080614813614ded565b50505b505a614820614f45565b505050505015801561483f573d6000803e3d600061483c614ded565b50505b505050506040513d604081101561485e5760008061485b614ded565b50505b8101908080519291906020018051939550929350614887925085915084905061302f6008614ad7565b6148968382612eee600c614ad7565b505050505050505050505050565b60606148ef826040516040808201905260208082527f5361666545524332303a206c6f772d6c6576656c2063616c6c206661696c6564908201526001600160a01b0386169190614c6e565b905060008151111561184257602081018151602081101561491857600080614915614ded565b50505b810190808051925061184291505057600080611939614ded565b61493b81614d4d565b61494c5a614947615223565b614d65565b8360008282600160d81b8161495f614e58565b8164ffffffffff021916908364ffffffffff1602179061497d61504b565b5050508391906101000a81614990614e58565b816001600160d81b0302191690836001600160d81b031602179061261461504b565b6000600160681b82106149cd576000806149ca614ded565b50505b5090565b614a2b826135bb846040516040808201905290816000826149f0614e58565b6001600160d81b036101009290920a9004168152602001601b82614a12614e58565b64ffffffffff6101009290920a900416905250846139da565b5050565b60006003821115614a735781600160028204015b81811015614a6b57809150600281828681614a5a57fe5b040181614a6357fe5b049050614a43565b509050611698565b8115614a8157506001611698565b506000611698565b600081511592915050565b60008083511115614aab5760018351039050610f2d565b50919050565b6000600160301b82106149cd576000806149ca614ded565b600081518351149392505050565b614adf615212565b60038201600086516001600160a01b03166001600160a01b0316815260200190815260200160002060405160208101604052908181614b1c614e58565b9052509050614b29615212565b82600301600087602001516001600160a01b03166001600160a01b0316815260200190815260200160002060405160208101604052908181614b69614e58565b9052509050614b7782614a89565b8015614b875750614b8781614a89565b8015614b94575085604001515b8015614ba1575085606001515b15614c0157614bd38651614bb58488614a94565b6001614bca8a608001518b60a0015190613527565b8863ffffffff16565b614bfa8660200151614be58388614a94565b6001614bca8a608001518b60c001519061337f565b5050612eca565b856040015115614c3b57614c3b8651838860a00151614c298a608001518b60a0015190613527565b8a60e001518894939291908b8b614d7d565b856060015115614c6657614c668660200151828860c00151614c298a608001518b60c001519061337f565b505050505050565b6060614c7984614da1565b614c8b57600080614c88614ded565b50505b60006060856001600160a01b0316856040518082805190602001908083835b60208310614cc95780518252601f199092019160209182019101614caa565b6001836020036101000a0380198251168184511680821785525050505050509050019150506000604051808303816000865a614d03615135565b5050505050509150503d8060008114614d38576040513d603f01601f191681016040523d815291503d6000602084013e614d3d565b606091505b5091509150612641828286614db6565b6000600160d81b82106149cd576000806149ca614ded565b6000600160281b82106149cd576000806149ca614ded565b612f568888888715614d8f5789614d97565b614d976135c0565b898989898961422e565b60008082614dad614ef9565b15159392505050565b60608315614dc55750816110e7565b600083511115614de65782518084602001614dde614ded565b5050506110e7565b6000806133975b632a2a7adb598160e01b8152600481016020815285602082015260005b86811015614e25578086015182820160400152602001614e0a565b506020828760640184336000905af158601d01573d60011458600c01573d6000803e3d621234565260ea61109c52505050565b6303daa959598160e01b8152836004820152602081602483336000905af158601d01573d60011458600c01573d6000803e3d621234565260ea61109c528051935060005b604081101561184257600082820152602001614e9c565b6373509064598160e01b8152602081600483336000905af158601d01573d60011458600c01573d6000803e3d621234565260ea61109c5280516000825293506020614e9c565b638435035b598160e01b8152836004820152602081602483336000905af158601d01573d60011458600c01573d6000803e3d621234565260ea61109c5280516000825293506020614e9c565b638540661f598160e01b8152614f76565b8080831115610f2d575090919050565b8080831015610f2d575090919050565b836004820152846024820152606060448201528660648201526084810160005b88811015614fae578088015182820152602001614f96565b506060828960a40184336000905af158601d01573d60011458600c01573d6000803e3d621234565260ea61109c52815160408301513d6000853e8b8b82606087013350600060045af150596150038d3d614f66565b8c0161500f8187614f56565b5b828110156150245760008152602001615010565b50929c50505050505050565b60405160408082018152600290829080368337509192915050565b6322bd64c0598160e01b8152836004820152846024820152600081604483336000905af158601d01573d60011458600c01573d6000803e3d621234565260ea61109c52600081526020614e9c565b82806150a3614e58565b600181600116156101000203166002900490600052602060002090601f016020900481019282601f106150ea57805160ff191683800117856150e361504b565b5050615129565b828001600101856150f961504b565b50508215615129579182015b828111156151295782518261511861504b565b505091602001919060010190615105565b506149cd9291506152cb565b6385979f76598160e01b8152836004820152846024820152606060448201528760648201526084810160005b89811015615179578089015182820152602001615161565b506060828a60a40184336000905af158601d01573d60011458600c01573d6000803e3d621234565260ea61109c52815160408301513d6000853e8c8c82606087013350600060045af150596151ce8e3d614f66565b8d016151da8187614f56565b5b828110156151ef57600081526020016151db565b50929d50505050505050565b604051604080820190526000808252602082015290565b604051602081016040526000815290565b63bdbf8c36598160e01b8152602081600483336000905af158601d01573d60011458600c01573d6000803e3d621234565260ea61109c5280516000825293506020614e9c565b6040516060810160409081526000808352602083018190529082015290565b60405161010081016040908152600080835260208301819052908201819052606082018190526080820181905260a0820181905260c0820181905260e082015290565b808211156149cd57600080826152df61504b565b5050506001016152cb56fe45524332303a206275726e20616d6f756e7420657863656564732062616c616e636545524332303a207472616e7366657220616d6f756e7420657863656564732062616c616e636545524332303a207472616e7366657220616d6f756e74206578636565647320616c6c6f77616e63658be0079c531659141344cd1fd0a4f28419497f9722a3daafe3b4186f6b6457e0ddf252ad1be2c89b69c2b068fc378daa952ba7f163c4a11628f55a4df523b3ef45524332303a2064656372656173656420616c6c6f77616e63652062656c6f77207a65726f",
  "devdoc": {
    "kind": "dev",
    "methods": {
      "allowance(address,address)": {
        "details": "See {IERC20-allowance}."
      },
      "approve(address,uint256)": {
        "details": "See {IERC20-approve}. Requirements: - `spender` cannot be the zero address."
      },
      "balanceOf(address)": {
        "details": "See {IERC20-balanceOf}."
      },
      "decimals()": {
        "details": "Returns the number of decimals used to get its user representation. For example, if `decimals` equals `2`, a balance of `505` tokens should be displayed to a user as `5,05` (`505 / 10 ** 2`). Tokens usually opt for a value of 18, imitating the relationship between Ether and Wei. This is the value {ERC20} uses, unless {_setupDecimals} is called. NOTE: This information is only used for _display_ purposes: it in no way affects any of the arithmetic of the contract, including {IERC20-balanceOf} and {IERC20-transfer}."
      },
      "decreaseAllowance(address,uint256)": {
        "details": "Atomically decreases the allowance granted to `spender` by the caller. This is an alternative to {approve} that can be used as a mitigation for problems described in {IERC20-approve}. Emits an {Approval} event indicating the updated allowance. Requirements: - `spender` cannot be the zero address. - `spender` must have allowance for the caller of at least `subtractedValue`."
      },
      "increaseAllowance(address,uint256)": {
        "details": "Atomically increases the allowance granted to `spender` by the caller. This is an alternative to {approve} that can be used as a mitigation for problems described in {IERC20-approve}. Emits an {Approval} event indicating the updated allowance. Requirements: - `spender` cannot be the zero address."
      },
      "name()": {
        "details": "Returns the name of the token."
      },
      "owner()": {
        "details": "Returns the address of the current owner."
      },
      "renounceOwnership()": {
        "details": "Leaves the contract without owner. It will not be possible to call `onlyOwner` functions anymore. Can only be called by the current owner. NOTE: Renouncing ownership will leave the contract without an owner, thereby removing any functionality that is only available to the owner."
      },
      "symbol()": {
        "details": "Returns the symbol of the token, usually a shorter version of the name."
      },
      "totalSupply()": {
        "details": "See {IERC20-totalSupply}."
      },
      "transfer(address,uint256)": {
        "details": "See {IERC20-transfer}. Requirements: - `recipient` cannot be the zero address. - the caller must have a balance of at least `amount`."
      },
      "transferFrom(address,address,uint256)": {
        "details": "See {IERC20-transferFrom}. Emits an {Approval} event indicating the updated allowance. This is not required by the EIP. See the note at the beginning of {ERC20}. Requirements: - `sender` and `recipient` cannot be the zero address. - `sender` must have a balance of at least `amount`. - the caller must have allowance for ``sender``'s tokens of at least `amount`."
      },
      "transferOwnership(address)": {
        "details": "Transfers ownership of the contract to a new account (`newOwner`). Can only be called by the current owner."
      }
    },
    "version": 1
  },
  "userdoc": {
    "kind": "user",
    "methods": {},
    "version": 1
  },
  "storageLayout": {
    "storage": [
      {
        "astId": 554,
        "contract": "contracts/Mooniswap.sol:Mooniswap",
        "label": "_balances",
        "offset": 0,
        "slot": "0",
        "type": "t_mapping(t_address,t_uint256)"
      },
      {
        "astId": 560,
        "contract": "contracts/Mooniswap.sol:Mooniswap",
        "label": "_allowances",
        "offset": 0,
        "slot": "1",
        "type": "t_mapping(t_address,t_mapping(t_address,t_uint256))"
      },
      {
        "astId": 562,
        "contract": "contracts/Mooniswap.sol:Mooniswap",
        "label": "_totalSupply",
        "offset": 0,
        "slot": "2",
        "type": "t_uint256"
      },
      {
        "astId": 564,
        "contract": "contracts/Mooniswap.sol:Mooniswap",
        "label": "_name",
        "offset": 0,
        "slot": "3",
        "type": "t_string_storage"
      },
      {
        "astId": 566,
        "contract": "contracts/Mooniswap.sol:Mooniswap",
        "label": "_symbol",
        "offset": 0,
        "slot": "4",
        "type": "t_string_storage"
      },
      {
        "astId": 568,
        "contract": "contracts/Mooniswap.sol:Mooniswap",
        "label": "_decimals",
        "offset": 0,
        "slot": "5",
        "type": "t_uint8"
      },
      {
        "astId": 7,
        "contract": "contracts/Mooniswap.sol:Mooniswap",
        "label": "_owner",
        "offset": 1,
        "slot": "5",
        "type": "t_address"
      },
      {
        "astId": 1244,
        "contract": "contracts/Mooniswap.sol:Mooniswap",
        "label": "_status",
        "offset": 0,
        "slot": "6",
        "type": "t_uint256"
      },
      {
        "astId": 5353,
        "contract": "contracts/Mooniswap.sol:Mooniswap",
        "label": "mooniswapFactoryGovernance",
        "offset": 0,
        "slot": "7",
        "type": "t_contract(IMooniswapFactoryGovernance)6914"
      },
      {
        "astId": 5355,
        "contract": "contracts/Mooniswap.sol:Mooniswap",
        "label": "_fee",
        "offset": 0,
        "slot": "8",
        "type": "t_struct(Data)7263_storage"
      },
      {
        "astId": 5357,
        "contract": "contracts/Mooniswap.sol:Mooniswap",
        "label": "_slippageFee",
        "offset": 0,
        "slot": "12",
        "type": "t_struct(Data)7263_storage"
      },
      {
        "astId": 5359,
        "contract": "contracts/Mooniswap.sol:Mooniswap",
        "label": "_owner",
        "offset": 0,
        "slot": "16",
        "type": "t_address"
      },
      {
        "astId": 5361,
        "contract": "contracts/Mooniswap.sol:Mooniswap",
        "label": "_initialized",
        "offset": 20,
        "slot": "16",
        "type": "t_bool"
      },
      {
        "astId": 1373,
        "contract": "contracts/Mooniswap.sol:Mooniswap",
        "label": "token0",
        "offset": 0,
        "slot": "17",
        "type": "t_contract(IERC20)1118"
      },
      {
        "astId": 1375,
        "contract": "contracts/Mooniswap.sol:Mooniswap",
        "label": "token1",
        "offset": 0,
        "slot": "18",
        "type": "t_contract(IERC20)1118"
      },
      {
        "astId": 1379,
        "contract": "contracts/Mooniswap.sol:Mooniswap",
        "label": "virtualBalancesForAddition",
        "offset": 0,
        "slot": "19",
        "type": "t_mapping(t_contract(IERC20)1118,t_struct(Data)8330_storage)"
      },
      {
        "astId": 1383,
        "contract": "contracts/Mooniswap.sol:Mooniswap",
        "label": "virtualBalancesForRemoval",
        "offset": 0,
        "slot": "20",
        "type": "t_mapping(t_contract(IERC20)1118,t_struct(Data)8330_storage)"
      },
      {
        "astId": 1385,
        "contract": "contracts/Mooniswap.sol:Mooniswap",
        "label": "_name",
        "offset": 0,
        "slot": "21",
        "type": "t_string_storage"
      },
      {
        "astId": 1387,
        "contract": "contracts/Mooniswap.sol:Mooniswap",
        "label": "_symbol",
        "offset": 0,
        "slot": "22",
        "type": "t_string_storage"
      }
    ],
    "types": {
      "t_address": {
        "encoding": "inplace",
        "label": "address",
        "numberOfBytes": "20"
      },
      "t_bool": {
        "encoding": "inplace",
        "label": "bool",
        "numberOfBytes": "1"
      },
      "t_contract(IERC20)1118": {
        "encoding": "inplace",
        "label": "contract IERC20",
        "numberOfBytes": "20"
      },
      "t_contract(IMooniswapFactoryGovernance)6914": {
        "encoding": "inplace",
        "label": "contract IMooniswapFactoryGovernance",
        "numberOfBytes": "20"
      },
      "t_mapping(t_address,t_mapping(t_address,t_uint256))": {
        "encoding": "mapping",
        "key": "t_address",
        "label": "mapping(address => mapping(address => uint256))",
        "numberOfBytes": "32",
        "value": "t_mapping(t_address,t_uint256)"
      },
      "t_mapping(t_address,t_struct(Data)8527_storage)": {
        "encoding": "mapping",
        "key": "t_address",
        "label": "mapping(address => struct Vote.Data)",
        "numberOfBytes": "32",
        "value": "t_struct(Data)8527_storage"
      },
      "t_mapping(t_address,t_uint256)": {
        "encoding": "mapping",
        "key": "t_address",
        "label": "mapping(address => uint256)",
        "numberOfBytes": "32",
        "value": "t_uint256"
      },
      "t_mapping(t_contract(IERC20)1118,t_struct(Data)8330_storage)": {
        "encoding": "mapping",
        "key": "t_contract(IERC20)1118",
        "label": "mapping(contract IERC20 => struct VirtualBalance.Data)",
        "numberOfBytes": "32",
        "value": "t_struct(Data)8330_storage"
      },
      "t_string_storage": {
        "encoding": "bytes",
        "label": "string",
        "numberOfBytes": "32"
      },
      "t_struct(Data)7263_storage": {
        "encoding": "inplace",
        "label": "struct LiquidVoting.Data",
        "members": [
          {
            "astId": 7254,
            "contract": "contracts/Mooniswap.sol:Mooniswap",
            "label": "data",
            "offset": 0,
            "slot": "0",
            "type": "t_struct(Data)8471_storage"
          },
          {
            "astId": 7256,
            "contract": "contracts/Mooniswap.sol:Mooniswap",
            "label": "_weightedSum",
            "offset": 0,
            "slot": "1",
            "type": "t_uint256"
          },
          {
            "astId": 7258,
            "contract": "contracts/Mooniswap.sol:Mooniswap",
            "label": "_defaultVotes",
            "offset": 0,
            "slot": "2",
            "type": "t_uint256"
          },
          {
            "astId": 7262,
            "contract": "contracts/Mooniswap.sol:Mooniswap",
            "label": "votes",
            "offset": 0,
            "slot": "3",
            "type": "t_mapping(t_address,t_struct(Data)8527_storage)"
          }
        ],
        "numberOfBytes": "128"
      },
      "t_struct(Data)8330_storage": {
        "encoding": "inplace",
        "label": "struct VirtualBalance.Data",
        "members": [
          {
            "astId": 8327,
            "contract": "contracts/Mooniswap.sol:Mooniswap",
            "label": "balance",
            "offset": 0,
            "slot": "0",
            "type": "t_uint216"
          },
          {
            "astId": 8329,
            "contract": "contracts/Mooniswap.sol:Mooniswap",
            "label": "time",
            "offset": 27,
            "slot": "0",
            "type": "t_uint40"
          }
        ],
        "numberOfBytes": "32"
      },
      "t_struct(Data)8471_storage": {
        "encoding": "inplace",
        "label": "struct VirtualVote.Data",
        "members": [
          {
            "astId": 8466,
            "contract": "contracts/Mooniswap.sol:Mooniswap",
            "label": "oldResult",
            "offset": 0,
            "slot": "0",
            "type": "t_uint104"
          },
          {
            "astId": 8468,
            "contract": "contracts/Mooniswap.sol:Mooniswap",
            "label": "result",
            "offset": 13,
            "slot": "0",
            "type": "t_uint104"
          },
          {
            "astId": 8470,
            "contract": "contracts/Mooniswap.sol:Mooniswap",
            "label": "time",
            "offset": 26,
            "slot": "0",
            "type": "t_uint48"
          }
        ],
        "numberOfBytes": "32"
      },
      "t_struct(Data)8527_storage": {
        "encoding": "inplace",
        "label": "struct Vote.Data",
        "members": [
          {
            "astId": 8526,
            "contract": "contracts/Mooniswap.sol:Mooniswap",
            "label": "value",
            "offset": 0,
            "slot": "0",
            "type": "t_uint256"
          }
        ],
        "numberOfBytes": "32"
      },
      "t_uint104": {
        "encoding": "inplace",
        "label": "uint104",
        "numberOfBytes": "13"
      },
      "t_uint216": {
        "encoding": "inplace",
        "label": "uint216",
        "numberOfBytes": "27"
      },
      "t_uint256": {
        "encoding": "inplace",
        "label": "uint256",
        "numberOfBytes": "32"
      },
      "t_uint40": {
        "encoding": "inplace",
        "label": "uint40",
        "numberOfBytes": "5"
      },
      "t_uint48": {
        "encoding": "inplace",
        "label": "uint48",
        "numberOfBytes": "6"
      },
      "t_uint8": {
        "encoding": "inplace",
        "label": "uint8",
        "numberOfBytes": "1"
      }
    }
  }
}