{
  "contractName": "Converter",
  "abi": [
    {
      "inputs": [
        {
          "internalType": "contract IERC20",
          "name": "_targetToken",
          "type": "address"
        }
      ],
      "stateMutability": "nonpayable",
      "type": "constructor"
    },
    {
      "inputs": [],
      "name": "targetToken",
      "outputs": [
        {
          "internalType": "contract IERC20",
          "name": "",
          "type": "address"
        }
      ],
      "stateMutability": "view",
      "type": "function"
    }
  ],
  "bytecode": "0x60a060405234801561001057600080fd5b5060405161011a38038061011a8339818101604052602081101561003357600080fd5b5051606081901b6001600160601b0319166080526001600160a01b031660b661006460003980605e525060b66000f3fe6080604052348015600f57600080fd5b506004361060285760003560e01c8063327107f714602d575b600080fd5b6033605c565b6040805173ffffffffffffffffffffffffffffffffffffffff9092168252519081900360200190f35b7f00000000000000000000000000000000000000000000000000000000000000008156fea2646970667358221220f7376bac6871cdfe8cee2659e23c6318553f915c145ad2deeb782742d59f5e5864736f6c634300060c0033",
  "immutableReferences": {
    "6643": [
      {
        "length": 32,
        "start": 94
      }
    ]
  },
  "source": "// SPDX-License-Identifier: MIT\n\npragma solidity ^0.6.0;\n\nimport \"@openzeppelin/contracts/math/Math.sol\";\nimport \"@openzeppelin/contracts/math/SafeMath.sol\";\nimport \"../libraries/UniERC20.sol\";\nimport \"../libraries/VirtualBalance.sol\";\nimport \"../Mooniswap.sol\";\n\n\ncontract Converter {\n    using SafeMath for uint256;\n    using SafeERC20 for IERC20;\n    using UniERC20 for IERC20;\n    using VirtualBalance for VirtualBalance.Data;\n\n    uint256 private constant _ONE = 1e18;\n    uint256 private constant _SPREAD_FEE_MULTIPLIER = 10;\n    uint256 private constant _MAX_LIQUIDITY_SHARE = 100;\n\n    IERC20 public immutable targetToken;\n\n    constructor (IERC20 _targetToken) public {\n        targetToken = _targetToken;\n    }\n\n    modifier validSpread(Mooniswap mooniswap) {\n        _validateSpread(mooniswap);\n\n        _;\n    }\n\n    function _validateSpread(Mooniswap mooniswap) internal view {\n        IERC20[] memory tokens = mooniswap.getTokens();\n\n        uint256 buyPrice;\n        uint256 sellPrice;\n        uint256 spotPrice;\n        {\n            uint256 token0Balance = tokens[0].uniBalanceOf(address(mooniswap));\n            uint256 token1Balance = tokens[1].uniBalanceOf(address(mooniswap));\n            uint256 decayPeriod = mooniswap.decayPeriod();\n            (uint216 balance, uint40 time) = mooniswap.virtualBalancesForAddition(tokens[0]);\n            uint256 token0BalanceForAddition = Math.max(VirtualBalance.Data({balance: balance, time: time}).current(decayPeriod, token0Balance), token0Balance);\n            (balance, time) = mooniswap.virtualBalancesForAddition(tokens[1]);\n            uint256 token1BalanceForAddition = Math.max(VirtualBalance.Data({balance: balance, time: time}).current(decayPeriod, token1Balance), token1Balance);\n            (balance, time) = mooniswap.virtualBalancesForRemoval(tokens[0]);\n            uint256 token0BalanceForRemoval = Math.min(VirtualBalance.Data({balance: balance, time: time}).current(decayPeriod, token0Balance), token0Balance);\n            (balance, time) = mooniswap.virtualBalancesForRemoval(tokens[1]);\n            uint256 token1BalanceForRemoval = Math.min(VirtualBalance.Data({balance: balance, time: time}).current(decayPeriod, token1Balance), token1Balance);\n\n            buyPrice = _ONE.mul(token1BalanceForAddition).div(token0BalanceForRemoval);\n            sellPrice = _ONE.mul(token1BalanceForRemoval).div(token0BalanceForAddition);\n            spotPrice = _ONE.mul(token1Balance).div(token0Balance);\n        }\n\n        require(buyPrice.sub(sellPrice).mul(_ONE) < mooniswap.fee().mul(_SPREAD_FEE_MULTIPLIER).mul(spotPrice), \"Spread is too high\");\n    }\n\n    function _maxAmountForSwap(IERC20[] memory path, uint256 initialAmount) internal view returns(uint256 amount) {\n        amount = initialAmount;\n        uint256 stepAmount = amount;\n        uint256 pathLength = path.length;\n\n        for (uint256 i = 1; i < pathLength; i += 2) {\n            Mooniswap mooniswap = Mooniswap(address(path[i]));\n            _validateSpread(mooniswap);\n            uint256 maxCurSwapAmount = path[i-1].uniBalanceOf(address(mooniswap)).div(_MAX_LIQUIDITY_SHARE);\n            if (maxCurSwapAmount < stepAmount) {\n                amount = amount.mul(maxCurSwapAmount).div(stepAmount);\n                stepAmount = maxCurSwapAmount;\n            }\n            if (i + 2 < pathLength) {\n                // no need to estimate getReturn on last step\n                stepAmount = mooniswap.getReturn(path[i-1], path[i+1], stepAmount);\n            }\n        }\n        return amount;\n    }\n\n    function _swap(IERC20[] memory path, uint256 initialAmount, address payable destination) internal returns(uint256 amount) {\n        require(path[path.length - 1] == targetToken, \"Should swap to target token\");\n\n        amount = initialAmount;\n        uint256 pathLength = path.length;\n\n        for (uint256 i = 1; i + 2 < pathLength; i += 2) {\n            if (path[i-1].isETH()) {\n                amount = Mooniswap(address(path[i])).swap{value: amount}(path[i-1], path[i+1], amount, 0, address(this));\n            } else {\n                path[i-1].safeApprove(address(path[i]), amount);\n                amount = Mooniswap(address(path[i])).swap(path[i-1], path[i+1], amount, 0, address(this));\n            }\n        }\n\n        if (pathLength > 1) {\n            if (path[pathLength-3].isETH()) {\n                amount = Mooniswap(address(path[pathLength-2])).swapFor{value: amount}(path[pathLength-3], path[pathLength-1], amount, 0, address(this), destination);\n            } else {\n                path[pathLength-3].safeApprove(address(path[pathLength-2]), amount);\n                amount = Mooniswap(address(path[pathLength-2])).swapFor(path[pathLength-3], path[pathLength-1], amount, 0, address(this), destination);\n            }\n        } else {\n            path[0].transfer(destination, amount);\n        }\n    }\n}\n",
  "sourcePath": "/Users/k06a/Projects/mooniswap-v2/contracts/utils/Converter.sol",
  "compiler": {
    "name": "solc",
    "version": "0.6.12+commit.27d51765.Emscripten.clang"
  },
  "schemaVersion": "3.3.2",
  "updatedAt": "2020-11-30T13:22:04.118Z",
  "devdoc": {
    "kind": "dev",
    "methods": {},
    "version": 1
  },
  "userdoc": {
    "kind": "user",
    "methods": {},
    "version": 1
  }
}