{
  "contractName": "MooniswapFactory",
  "abi": [
    {
      "inputs": [
        {
          "internalType": "address",
          "name": "_poolOwner",
          "type": "address"
        },
        {
          "internalType": "contract IMooniswapDeployer",
          "name": "_mooniswapDeployer",
          "type": "address"
        },
        {
          "internalType": "address",
          "name": "_governanceMothership",
          "type": "address"
        }
      ],
      "stateMutability": "nonpayable",
      "type": "constructor"
    },
    {
      "anonymous": false,
      "inputs": [
        {
          "indexed": true,
          "internalType": "address",
          "name": "user",
          "type": "address"
        },
        {
          "indexed": false,
          "internalType": "uint256",
          "name": "decayPeriod",
          "type": "uint256"
        },
        {
          "indexed": false,
          "internalType": "uint256",
          "name": "amount",
          "type": "uint256"
        }
      ],
      "name": "DefaultDecayPeriodVoteUpdate",
      "type": "event"
    },
    {
      "anonymous": false,
      "inputs": [
        {
          "indexed": true,
          "internalType": "address",
          "name": "user",
          "type": "address"
        },
        {
          "indexed": false,
          "internalType": "uint256",
          "name": "fee",
          "type": "uint256"
        },
        {
          "indexed": false,
          "internalType": "uint256",
          "name": "amount",
          "type": "uint256"
        }
      ],
      "name": "DefaultFeeVoteUpdate",
      "type": "event"
    },
    {
      "anonymous": false,
      "inputs": [
        {
          "indexed": true,
          "internalType": "address",
          "name": "user",
          "type": "address"
        },
        {
          "indexed": false,
          "internalType": "uint256",
          "name": "fee",
          "type": "uint256"
        },
        {
          "indexed": false,
          "internalType": "uint256",
          "name": "amount",
          "type": "uint256"
        }
      ],
      "name": "DefaultSlippageFeeVoteUpdate",
      "type": "event"
    },
    {
      "anonymous": false,
      "inputs": [
        {
          "indexed": true,
          "internalType": "address",
          "name": "mooniswap",
          "type": "address"
        },
        {
          "indexed": true,
          "internalType": "address",
          "name": "token1",
          "type": "address"
        },
        {
          "indexed": true,
          "internalType": "address",
          "name": "token2",
          "type": "address"
        }
      ],
      "name": "Deployed",
      "type": "event"
    },
    {
      "anonymous": false,
      "inputs": [
        {
          "indexed": false,
          "internalType": "address",
          "name": "governanceFeeReceiver",
          "type": "address"
        }
      ],
      "name": "GovernanceFeeReceiverUpdate",
      "type": "event"
    },
    {
      "anonymous": false,
      "inputs": [
        {
          "indexed": true,
          "internalType": "address",
          "name": "user",
          "type": "address"
        },
        {
          "indexed": false,
          "internalType": "uint256",
          "name": "referralShare",
          "type": "uint256"
        },
        {
          "indexed": false,
          "internalType": "uint256",
          "name": "amount",
          "type": "uint256"
        }
      ],
      "name": "GovernanceShareVoteUpdate",
      "type": "event"
    },
    {
      "anonymous": false,
      "inputs": [
        {
          "indexed": true,
          "internalType": "address",
          "name": "previousOwner",
          "type": "address"
        },
        {
          "indexed": true,
          "internalType": "address",
          "name": "newOwner",
          "type": "address"
        }
      ],
      "name": "OwnershipTransferred",
      "type": "event"
    },
    {
      "anonymous": false,
      "inputs": [
        {
          "indexed": false,
          "internalType": "address",
          "name": "referralFeeReceiver",
          "type": "address"
        }
      ],
      "name": "ReferralFeeReceiverUpdate",
      "type": "event"
    },
    {
      "anonymous": false,
      "inputs": [
        {
          "indexed": true,
          "internalType": "address",
          "name": "user",
          "type": "address"
        },
        {
          "indexed": false,
          "internalType": "uint256",
          "name": "referralShare",
          "type": "uint256"
        },
        {
          "indexed": false,
          "internalType": "uint256",
          "name": "amount",
          "type": "uint256"
        }
      ],
      "name": "ReferralShareVoteUpdate",
      "type": "event"
    },
    {
      "inputs": [
        {
          "internalType": "uint256",
          "name": "",
          "type": "uint256"
        }
      ],
      "name": "allPools",
      "outputs": [
        {
          "internalType": "contract Mooniswap",
          "name": "",
          "type": "address"
        }
      ],
      "stateMutability": "view",
      "type": "function",
      "constant": true
    },
    {
      "inputs": [
        {
          "internalType": "address",
          "name": "account",
          "type": "address"
        }
      ],
      "name": "balanceOf",
      "outputs": [
        {
          "internalType": "uint256",
          "name": "",
          "type": "uint256"
        }
      ],
      "stateMutability": "view",
      "type": "function",
      "constant": true
    },
    {
      "inputs": [],
      "name": "defaultDecayPeriod",
      "outputs": [
        {
          "internalType": "uint256",
          "name": "",
          "type": "uint256"
        }
      ],
      "stateMutability": "view",
      "type": "function",
      "constant": true
    },
    {
      "inputs": [
        {
          "internalType": "uint256",
          "name": "vote",
          "type": "uint256"
        }
      ],
      "name": "defaultDecayPeriodVote",
      "outputs": [],
      "stateMutability": "nonpayable",
      "type": "function"
    },
    {
      "inputs": [
        {
          "internalType": "address",
          "name": "user",
          "type": "address"
        }
      ],
      "name": "defaultDecayPeriodVotes",
      "outputs": [
        {
          "internalType": "uint256",
          "name": "",
          "type": "uint256"
        }
      ],
      "stateMutability": "view",
      "type": "function",
      "constant": true
    },
    {
      "inputs": [],
      "name": "defaultFee",
      "outputs": [
        {
          "internalType": "uint256",
          "name": "",
          "type": "uint256"
        }
      ],
      "stateMutability": "view",
      "type": "function",
      "constant": true
    },
    {
      "inputs": [
        {
          "internalType": "uint256",
          "name": "vote",
          "type": "uint256"
        }
      ],
      "name": "defaultFeeVote",
      "outputs": [],
      "stateMutability": "nonpayable",
      "type": "function"
    },
    {
      "inputs": [
        {
          "internalType": "address",
          "name": "user",
          "type": "address"
        }
      ],
      "name": "defaultFeeVotes",
      "outputs": [
        {
          "internalType": "uint256",
          "name": "",
          "type": "uint256"
        }
      ],
      "stateMutability": "view",
      "type": "function",
      "constant": true
    },
    {
      "inputs": [],
      "name": "defaultSlippageFee",
      "outputs": [
        {
          "internalType": "uint256",
          "name": "",
          "type": "uint256"
        }
      ],
      "stateMutability": "view",
      "type": "function",
      "constant": true
    },
    {
      "inputs": [
        {
          "internalType": "uint256",
          "name": "vote",
          "type": "uint256"
        }
      ],
      "name": "defaultSlippageFeeVote",
      "outputs": [],
      "stateMutability": "nonpayable",
      "type": "function"
    },
    {
      "inputs": [
        {
          "internalType": "address",
          "name": "user",
          "type": "address"
        }
      ],
      "name": "defaultSlippageFeeVotes",
      "outputs": [
        {
          "internalType": "uint256",
          "name": "",
          "type": "uint256"
        }
      ],
      "stateMutability": "view",
      "type": "function",
      "constant": true
    },
    {
      "inputs": [],
      "name": "discardDefaultDecayPeriodVote",
      "outputs": [],
      "stateMutability": "nonpayable",
      "type": "function"
    },
    {
      "inputs": [],
      "name": "discardDefaultFeeVote",
      "outputs": [],
      "stateMutability": "nonpayable",
      "type": "function"
    },
    {
      "inputs": [],
      "name": "discardDefaultSlippageFeeVote",
      "outputs": [],
      "stateMutability": "nonpayable",
      "type": "function"
    },
    {
      "inputs": [],
      "name": "discardGovernanceShareVote",
      "outputs": [],
      "stateMutability": "nonpayable",
      "type": "function"
    },
    {
      "inputs": [],
      "name": "discardReferralShareVote",
      "outputs": [],
      "stateMutability": "nonpayable",
      "type": "function"
    },
    {
      "inputs": [],
      "name": "governanceFeeReceiver",
      "outputs": [
        {
          "internalType": "address",
          "name": "",
          "type": "address"
        }
      ],
      "stateMutability": "view",
      "type": "function",
      "constant": true
    },
    {
      "inputs": [],
      "name": "governanceShare",
      "outputs": [
        {
          "internalType": "uint256",
          "name": "",
          "type": "uint256"
        }
      ],
      "stateMutability": "view",
      "type": "function",
      "constant": true
    },
    {
      "inputs": [
        {
          "internalType": "uint256",
          "name": "vote",
          "type": "uint256"
        }
      ],
      "name": "governanceShareVote",
      "outputs": [],
      "stateMutability": "nonpayable",
      "type": "function"
    },
    {
      "inputs": [
        {
          "internalType": "address",
          "name": "user",
          "type": "address"
        }
      ],
      "name": "governanceShareVotes",
      "outputs": [
        {
          "internalType": "uint256",
          "name": "",
          "type": "uint256"
        }
      ],
      "stateMutability": "view",
      "type": "function",
      "constant": true
    },
    {
      "inputs": [
        {
          "internalType": "contract Mooniswap",
          "name": "",
          "type": "address"
        }
      ],
      "name": "isPool",
      "outputs": [
        {
          "internalType": "bool",
          "name": "",
          "type": "bool"
        }
      ],
      "stateMutability": "view",
      "type": "function",
      "constant": true
    },
    {
      "inputs": [],
      "name": "mooniswapDeployer",
      "outputs": [
        {
          "internalType": "contract IMooniswapDeployer",
          "name": "",
          "type": "address"
        }
      ],
      "stateMutability": "view",
      "type": "function",
      "constant": true
    },
    {
      "inputs": [],
      "name": "mothership",
      "outputs": [
        {
          "internalType": "address",
          "name": "",
          "type": "address"
        }
      ],
      "stateMutability": "view",
      "type": "function",
      "constant": true
    },
    {
      "inputs": [
        {
          "internalType": "address",
          "name": "account",
          "type": "address"
        },
        {
          "internalType": "uint256",
          "name": "newBalance",
          "type": "uint256"
        }
      ],
      "name": "notifyStakeChanged",
      "outputs": [],
      "stateMutability": "nonpayable",
      "type": "function"
    },
    {
      "inputs": [],
      "name": "owner",
      "outputs": [
        {
          "internalType": "address",
          "name": "",
          "type": "address"
        }
      ],
      "stateMutability": "view",
      "type": "function",
      "constant": true
    },
    {
      "inputs": [],
      "name": "parameters",
      "outputs": [
        {
          "internalType": "uint256",
          "name": "",
          "type": "uint256"
        },
        {
          "internalType": "uint256",
          "name": "",
          "type": "uint256"
        },
        {
          "internalType": "address",
          "name": "",
          "type": "address"
        },
        {
          "internalType": "address",
          "name": "",
          "type": "address"
        }
      ],
      "stateMutability": "view",
      "type": "function",
      "constant": true
    },
    {
      "inputs": [],
      "name": "poolOwner",
      "outputs": [
        {
          "internalType": "address",
          "name": "",
          "type": "address"
        }
      ],
      "stateMutability": "view",
      "type": "function",
      "constant": true
    },
    {
      "inputs": [
        {
          "internalType": "contract IERC20",
          "name": "",
          "type": "address"
        },
        {
          "internalType": "contract IERC20",
          "name": "",
          "type": "address"
        }
      ],
      "name": "pools",
      "outputs": [
        {
          "internalType": "contract Mooniswap",
          "name": "",
          "type": "address"
        }
      ],
      "stateMutability": "view",
      "type": "function",
      "constant": true
    },
    {
      "inputs": [],
      "name": "referralFeeReceiver",
      "outputs": [
        {
          "internalType": "address",
          "name": "",
          "type": "address"
        }
      ],
      "stateMutability": "view",
      "type": "function",
      "constant": true
    },
    {
      "inputs": [],
      "name": "referralShare",
      "outputs": [
        {
          "internalType": "uint256",
          "name": "",
          "type": "uint256"
        }
      ],
      "stateMutability": "view",
      "type": "function",
      "constant": true
    },
    {
      "inputs": [
        {
          "internalType": "uint256",
          "name": "vote",
          "type": "uint256"
        }
      ],
      "name": "referralShareVote",
      "outputs": [],
      "stateMutability": "nonpayable",
      "type": "function"
    },
    {
      "inputs": [
        {
          "internalType": "address",
          "name": "user",
          "type": "address"
        }
      ],
      "name": "referralShareVotes",
      "outputs": [
        {
          "internalType": "uint256",
          "name": "",
          "type": "uint256"
        }
      ],
      "stateMutability": "view",
      "type": "function",
      "constant": true
    },
    {
      "inputs": [],
      "name": "renounceOwnership",
      "outputs": [],
      "stateMutability": "nonpayable",
      "type": "function"
    },
    {
      "inputs": [
        {
          "internalType": "address",
          "name": "newGovernanceFeeReceiver",
          "type": "address"
        }
      ],
      "name": "setGovernanceFeeReceiver",
      "outputs": [],
      "stateMutability": "nonpayable",
      "type": "function"
    },
    {
      "inputs": [
        {
          "internalType": "address",
          "name": "newReferralFeeReceiver",
          "type": "address"
        }
      ],
      "name": "setReferralFeeReceiver",
      "outputs": [],
      "stateMutability": "nonpayable",
      "type": "function"
    },
    {
      "inputs": [],
      "name": "totalSupply",
      "outputs": [
        {
          "internalType": "uint256",
          "name": "",
          "type": "uint256"
        }
      ],
      "stateMutability": "view",
      "type": "function",
      "constant": true
    },
    {
      "inputs": [
        {
          "internalType": "address",
          "name": "newOwner",
          "type": "address"
        }
      ],
      "name": "transferOwnership",
      "outputs": [],
      "stateMutability": "nonpayable",
      "type": "function"
    },
    {
      "inputs": [],
      "name": "getAllPools",
      "outputs": [
        {
          "internalType": "contract Mooniswap[]",
          "name": "",
          "type": "address[]"
        }
      ],
      "stateMutability": "view",
      "type": "function",
      "constant": true
    },
    {
      "inputs": [
        {
          "internalType": "contract IERC20",
          "name": "tokenA",
          "type": "address"
        },
        {
          "internalType": "contract IERC20",
          "name": "tokenB",
          "type": "address"
        }
      ],
      "name": "deploy",
      "outputs": [
        {
          "internalType": "contract Mooniswap",
          "name": "pool",
          "type": "address"
        }
      ],
      "stateMutability": "nonpayable",
      "type": "function"
    },
    {
      "inputs": [
        {
          "internalType": "contract IERC20",
          "name": "tokenA",
          "type": "address"
        },
        {
          "internalType": "contract IERC20",
          "name": "tokenB",
          "type": "address"
        }
      ],
      "name": "sortTokens",
      "outputs": [
        {
          "internalType": "contract IERC20",
          "name": "",
          "type": "address"
        },
        {
          "internalType": "contract IERC20",
          "name": "",
          "type": "address"
        }
      ],
      "stateMutability": "pure",
      "type": "function",
      "constant": true
    }
  ],
  "bytecode": "0x60e06040523480156200001157600080fd5b5060405162002d9338038062002d93833981810160405260608110156200003757600080fd5b50805160208201516040909201516001600160601b0319606082901b166080529091908060006200006762000128565b600280546001600160a01b0319166001600160a01b038316908117909155604051919250906000907f8be0079c531659141344cd1fd0a4f28419497f9722a3daafe3b4186f6b6457e0908290a3505060038054600160681b600160d01b031990811690915560068054821664b1a2bc2ec560791b179055600980548216604b606a1b179055600c8054821664b1a2bc2ec560781b179055600f8054909116905550606091821b6001600160601b031990811660c052911b1660a0526200012c565b3390565b60805160601c60a05160601c60c05160601c612c22620001716000398061100852806117d6525080610da352806116cd5250806109075280610b2e5250612c226000f3fe608060405234801561001057600080fd5b50600436106102c85760003560e01c8063855559341161017b578063c7feefe8116100d8578063e859e56c1161008c578063f2fde38b11610071578063f2fde38b146106eb578063f383033514610711578063fb20b7d014610719576102c8565b8063e859e56c146106c6578063e9f7e17b146106ce576102c8565b8063d88ff1f4116100bd578063d88ff1f414610649578063d8f4e0eb146106a1578063e1ea2554146106be576102c8565b8063c7feefe814610639578063cf0b227014610641576102c8565b8063901754d71161012f57806399fca7d91161011457806399fca7d9146105e5578063b0cb4b0a1461060b578063c5d5185a14610613576102c8565b8063901754d71461059a5780639725ff35146105c8576102c8565b8063890357301161016057806389035730146105535780638d4241271461058a5780638da5cb5b14610592576102c8565b80638555593414610525578063865e45731461052d576102c8565b806341d1de97116102295780635b16ebb7116101dd57806370a08231116101c257806370a08231146104d1578063715018a6146104f75780637c4423a8146104ff576102c8565b80635b16ebb71461048f578063612a9f76146104c9576102c8565b8063544caa561161020e578063544caa56146103fc578063545e7c61146104595780635a6c72d014610487576102c8565b806341d1de97146103b957806346398144146103d6576102c8565b806323662bb9116102805780632ba653ec116102655780632ba653ec146103705780633eed75c31461038d5780634187b7d614610395576102c8565b806323662bb91461033c57806327a2743314610344576102c8565b8063151359b4116102b1578063151359b41461032457806318160ddd1461032c5780631845f0db14610334576102c8565b8063117036d1146102cd57806314fd235a14610305575b600080fd5b6102f3600480360360208110156102e357600080fd5b50356001600160a01b031661073f565b60408051918252519081900360200190f35b6103226004803603602081101561031b57600080fd5b503561077e565b005b6103226107f7565b6102f3610811565b6102f3610817565b6102f361088c565b6103226004803603604081101561035a57600080fd5b506001600160a01b0381351690602001356108fc565b6103226004803603602081101561038657600080fd5b5035610a47565b610322610b0e565b61039d610b2c565b604080516001600160a01b039092168252519081900360200190f35b61039d600480360360208110156103cf57600080fd5b5035610b50565b610322600480360360208110156103ec57600080fd5b50356001600160a01b0316610b77565b61042a6004803603604081101561041257600080fd5b506001600160a01b0381358116916020013516610c4d565b60405180836001600160a01b03168152602001826001600160a01b031681526020019250505060405180910390f35b61039d6004803603604081101561046f57600080fd5b506001600160a01b0381358116916020013516610c81565b6102f3611292565b6104b5600480360360208110156104a557600080fd5b50356001600160a01b0316611302565b604080519115158252519081900360200190f35b610322611317565b6102f3600480360360208110156104e757600080fd5b50356001600160a01b0316611325565b610322611340565b6102f36004803603602081101561051557600080fd5b50356001600160a01b031661140c565b61032261143e565b6102f36004803603602081101561054357600080fd5b50356001600160a01b031661144c565b61055b61147c565b6040805194855260208501939093526001600160a01b0391821684840152166060830152519081900360800190f35b610322611580565b61039d61159f565b61039d600480360360408110156105b057600080fd5b506001600160a01b03813581169160200135166115ae565b610322600480360360208110156105de57600080fd5b50356115d4565b6102f3600480360360208110156105fb57600080fd5b50356001600160a01b031661169b565b61039d6116cb565b6103226004803603602081101561062957600080fd5b50356001600160a01b03166116ef565b61039d6117c5565b61039d6117d4565b6106516117f8565b60408051602080825283518183015283519192839290830191858101910280838360005b8381101561068d578181015183820152602001610675565b505050509050019250505060405180910390f35b610322600480360360208110156106b757600080fd5b503561185a565b61039d6118c6565b6102f36118d5565b610322600480360360208110156106e457600080fd5b5035611945565b6103226004803603602081101561070157600080fd5b50356001600160a01b03166119b1565b6102f3611ad4565b6102f36004803603602081101561072f57600080fd5b50356001600160a01b0316611b44565b6001600160a01b0381166000908152600e6020908152604080832081519283019091525481526107769066b1a2bc2ec50000611b78565b90505b919050565b6703782dace9d900008111156107db576040805162461bcd60e51b815260206004820152601a60248201527f476f7620736861726520766f746520697320746f6f2068696768000000000000604482015290519081900360640190fd5b6107f4600f336107ea84611bb5565b6000611bd4611c1c565b50565b61080f600333610805611c90565b6000611cab611c1c565b565b60005490565b604080516060810182526009546cffffffffffffffffffffffffff80821683526d010000000000000000000000000082041660208301527a010000000000000000000000000000000000000000000000000000900465ffffffffffff169181019190915260009061088790611cf3565b905090565b604080516060810182526006546cffffffffffffffffffffffffff80821683526d010000000000000000000000000082041660208301527a010000000000000000000000000000000000000000000000000000900465ffffffffffff169181019190915260009061088790611cf3565b336001600160a01b037f00000000000000000000000000000000000000000000000000000000000000001614610979576040805162461bcd60e51b815260206004820152601f60248201527f416363657373207265737472696374656420746f206d6f746865727368697000604482015290519081900360640190fd5b600061098483611325565b9050808211156109a6576109a18361099c8484611d93565b611ddc565b6109c7565b808210156109c1576109a1836109bc8385611d93565b611e2e565b50610a43565b60006109d1610811565b90506109e66003858486856000611cab611eb7565b610a0060068584868567016345785d8a0000611f1b611eb7565b610a1460098584868561012c611f63611eb7565b610a2d600c8584868566b1a2bc2ec50000611fab611eb7565b610a40600f858486856000611bd4611eb7565b50505b5050565b610e10811115610a9e576040805162461bcd60e51b815260206004820152601d60248201527f446563617920706572696f6420766f746520697320746f6f2068696768000000604482015290519081900360640190fd5b600f811015610af4576040805162461bcd60e51b815260206004820152601c60248201527f446563617920706572696f6420766f746520697320746f6f206c6f7700000000604482015290519081900360640190fd5b6107f4600933610b0384611bb5565b61012c611f63611c1c565b61080f600c33610b1c611c90565b66b1a2bc2ec50000611fab611c1c565b7f000000000000000000000000000000000000000000000000000000000000000081565b60148181548110610b5d57fe5b6000918252602090912001546001600160a01b0316905081565b610b7f611ff3565b6002546001600160a01b03908116911614610be1576040805162461bcd60e51b815260206004820181905260248201527f4f776e61626c653a2063616c6c6572206973206e6f7420746865206f776e6572604482015290519081900360640190fd5b601280546001600160a01b0383167fffffffffffffffffffffffff0000000000000000000000000000000000000000909116811790915560408051918252517f9870f2a0fa9bb3dac123818f30cafb067298f95c91b95615af8af970e0d4d6a39181900360200190a150565b600080826001600160a01b0316846001600160a01b03161015610c74575082905081610c7a565b50819050825b9250929050565b6000816001600160a01b0316836001600160a01b03161415610cea576040805162461bcd60e51b815260206004820181905260248201527f466163746f72793a206e6f7420737570706f72742073616d6520746f6b656e73604482015290519081900360640190fd5b6001600160a01b03838116600090815260166020908152604080832086851684529091529020541615610d64576040805162461bcd60e51b815260206004820152601c60248201527f466163746f72793a20706f6f6c20616c72656164792065786973747300000000604482015290519081900360640190fd5b600080610d718585610c4d565b915091506060610d89836001600160a01b0316611ff7565b90506060610d9f836001600160a01b0316611ff7565b90507f00000000000000000000000000000000000000000000000000000000000000006001600160a01b031663b92440b08585858560405160200180807f4d6f6f6e69737761702056322028000000000000000000000000000000000000815250600e0183805190602001908083835b60208310610e2e5780518252601f199092019160209182019101610e0f565b6001836020036101000a038019825116818451168082178552505050505050905001807f2d0000000000000000000000000000000000000000000000000000000000000081525060010182805190602001908083835b60208310610ea35780518252601f199092019160209182019101610e84565b6001836020036101000a038019825116818451168082178552505050505050905001807f290000000000000000000000000000000000000000000000000000000000000081525060010192505050604051602081830303815290604052868660405160200180807f4d4f4f4e2d56322d00000000000000000000000000000000000000000000000081525060080183805190602001908083835b60208310610f5c5780518252601f199092019160209182019101610f3d565b6001836020036101000a038019825116818451168082178552505050505050905001807f2d0000000000000000000000000000000000000000000000000000000000000081525060010182805190602001908083835b60208310610fd15780518252601f199092019160209182019101610fb2565b6001836020036101000a038019825116818451168082178552505050505050905001925050506040516020818303038152906040527f00000000000000000000000000000000000000000000000000000000000000006040518663ffffffff1660e01b815260040180866001600160a01b03168152602001856001600160a01b031681526020018060200180602001846001600160a01b03168152602001838103835286818151815260200191508051906020019080838360005b838110156110a457818101518382015260200161108c565b50505050905090810190601f1680156110d15780820380516001836020036101000a031916815260200191505b50838103825285518152855160209182019187019080838360005b838110156111045781810151838201526020016110ec565b50505050905090810190601f1680156111315780820380516001836020036101000a031916815260200191505b50975050505050505050602060405180830381600087803b15801561115557600080fd5b505af1158015611169573d6000803e3d6000fd5b505050506040513d602081101561117f57600080fd5b50516001600160a01b0380861660008181526016602081815260408084208a871680865290835281852080549789167fffffffffffffffffffffffff00000000000000000000000000000000000000009889168117909155938352818520868652835281852080548816851790556014805460018181019092557fce6d7b5282bd9a3661ae061feed1dbda4e52ab073b1f9285be6e155d9c38d4ec0180549098168517909755838552601590925280842080547fffffffffffffffffffffffffffffffffffffffffffffffffffffffffffffff0016909617909555935194995092939192917fc95935a66d15e0da5e412aca0ad27ae891d20b2fb91cf3994b6a3bf2b81780829190a45050505092915050565b604080516060810182526003546cffffffffffffffffffffffffff80821683526d010000000000000000000000000082041660208301527a010000000000000000000000000000000000000000000000000000900465ffffffffffff169181019190915260009061088790611cf3565b60156020526000908152604090205460ff1681565b61080f600f336107ea611c90565b6001600160a01b031660009081526001602052604090205490565b611348611ff3565b6002546001600160a01b039081169116146113aa576040805162461bcd60e51b815260206004820181905260248201527f4f776e61626c653a2063616c6c6572206973206e6f7420746865206f776e6572604482015290519081900360640190fd5b6002546040516000916001600160a01b0316907f8be0079c531659141344cd1fd0a4f28419497f9722a3daafe3b4186f6b6457e0908390a3600280547fffffffffffffffffffffffff0000000000000000000000000000000000000000169055565b6001600160a01b0381166000908152600b6020908152604080832081519283019091525481526107769061012c611b78565b61080f600933610b03611c90565b6001600160a01b038116600090815260116020908152604080832081519283019091525481526107769082611b78565b60408051606081018252600c546cffffffffffffffffffffffffff80821683526d010000000000000000000000000082041660208301527a010000000000000000000000000000000000000000000000000000900465ffffffffffff16918101919091526000908190819081906114f290611cf3565b60408051606081018252600f546cffffffffffffffffffffffffff80821683526d010000000000000000000000000082041660208301527a010000000000000000000000000000000000000000000000000000900465ffffffffffff169181019190915261155f90611cf3565b60125460135492979196506001600160a01b03908116955090911692509050565b61080f60063361158e611c90565b67016345785d8a0000611f1b611c1c565b6002546001600160a01b031690565b60166020908152600092835260408084209091529082529020546001600160a01b031681565b6703782dace9d90000811115611631576040805162461bcd60e51b815260206004820152601f60248201527f526566657272616c20736861726520766f746520697320746f6f206869676800604482015290519081900360640190fd5b655af3107a400081101561168c576040805162461bcd60e51b815260206004820152601e60248201527f526566657272616c20736861726520766f746520697320746f6f206c6f770000604482015290519081900360640190fd5b6107f4600c33610b1c84611bb5565b6001600160a01b038116600090815260056020908152604080832081519283019091525481526107769082611b78565b7f000000000000000000000000000000000000000000000000000000000000000081565b6116f7611ff3565b6002546001600160a01b03908116911614611759576040805162461bcd60e51b815260206004820181905260248201527f4f776e61626c653a2063616c6c6572206973206e6f7420746865206f776e6572604482015290519081900360640190fd5b601380546001600160a01b0383167fffffffffffffffffffffffff0000000000000000000000000000000000000000909116811790915560408051918252517f538574f3b86945605ea4352f9e2f4b7e0627ed519e932c9c418c5e7507c4494d9181900360200190a150565b6013546001600160a01b031681565b7f000000000000000000000000000000000000000000000000000000000000000081565b6060601480548060200260200160405190810160405280929190818152602001828054801561185057602002820191906000526020600020905b81546001600160a01b03168152600190910190602001808311611832575b5050505050905090565b67016345785d8a00008111156118b7576040805162461bcd60e51b815260206004820152601460248201527f46656520766f746520697320746f6f2068696768000000000000000000000000604482015290519081900360640190fd5b6107f460033361080584611bb5565b6012546001600160a01b031681565b60408051606081018252600c546cffffffffffffffffffffffffff80821683526d010000000000000000000000000082041660208301527a010000000000000000000000000000000000000000000000000000900465ffffffffffff169181019190915260009061088790611cf3565b670de0b6b3a76400008111156119a2576040805162461bcd60e51b815260206004820152601d60248201527f536c6970706167652066656520766f746520697320746f6f2068696768000000604482015290519081900360640190fd5b6107f460063361158e84611bb5565b6119b9611ff3565b6002546001600160a01b03908116911614611a1b576040805162461bcd60e51b815260206004820181905260248201527f4f776e61626c653a2063616c6c6572206973206e6f7420746865206f776e6572604482015290519081900360640190fd5b6001600160a01b038116611a605760405162461bcd60e51b8152600401808060200182810382526026815260200180612ba66026913960400191505060405180910390fd5b6002546040516001600160a01b038084169216907f8be0079c531659141344cd1fd0a4f28419497f9722a3daafe3b4186f6b6457e090600090a3600280547fffffffffffffffffffffffff0000000000000000000000000000000000000000166001600160a01b0392909216919091179055565b60408051606081018252600f546cffffffffffffffffffffffffff80821683526d010000000000000000000000000082041660208301527a010000000000000000000000000000000000000000000000000000900465ffffffffffff169181019190915260009061088790611cf3565b6001600160a01b038116600090815260086020908152604080832081519283019091525481526107769067016345785d8a00005b815160009015611bac575081517fffffffffffffffffffffffffffffffffffffffffffffffffffffffffffffffff01611baf565b50805b92915050565b611bbd612b72565b506040805160208101909152600182018152919050565b604080518381526020810183905281516001600160a01b038616927fa964c3ffd6a3d56c2b1e87b330e1aabc1b63bee4108f62b07c3aa7d55397fa3f928290030190a2505050565b6000611c2785611325565b6001600160a01b0386166000908152600288016020908152604091829020825191820190925290548152909150611c709086908684611c64610811565b8b9493929190896124ea565b611c8885611c7e8686611b78565b838563ffffffff16565b505050505050565b611c98612b72565b5060408051602081019091526000815290565b604080518381526020810183905281516001600160a01b038616927f22957ea429f65542a49e6fc53fa6c2695a4ffd6aa3419d203d2dc4a4d07ffa96928290030190a2505050565b600080611d2162015180611d1c856040015165ffffffffffff1642611d9390919063ffffffff16565b612503565b90506000611d326201518083611d93565b9050611d8b62015180611d85611d648588602001516cffffffffffffffffffffffffff1661251990919063ffffffff16565b8751611d7f906cffffffffffffffffffffffffff1686612519565b90612572565b906125cc565b949350505050565b6000611dd583836040518060400160405280601e81526020017f536166654d6174683a207375627472616374696f6e206f766572666c6f77000081525061260e565b9392505050565b600054611de99082612572565b60009081556001600160a01b038316815260016020526040902054611e0e9082612572565b6001600160a01b0390921660009081526001602052604090209190915550565b604080518082018252601b81527f4275726e20616d6f756e7420657863656564732062616c616e636500000000006020808301919091526001600160a01b038516600090815260019091529190912054611e8991839061260e565b6001600160a01b03831660009081526001602052604081209190915554611eb09082611d93565b6000555050565b611ebf612b72565b506001600160a01b0386166000908152600288016020908152604091829020825191820190925290548152611ef9888883898989896126a5565b611f1187611f078386611b78565b878563ffffffff16565b5050505050505050565b604080518381526020810183905281516001600160a01b038616927f7be763388d775e68e8a38e59ae8608744bb965337411392b45eb4af4320450d1928290030190a2505050565b604080518381526020810183905281516001600160a01b038616927f8c08115f799329bb6bb7f1be9e223d329e47b3e7439396038d0ec4aaa8dde53d928290030190a2505050565b604080518381526020810183905281516001600160a01b038616927f52b54d7e418b7b8aef97da78fd37c4022b0c8d0aef877e7662778a837a0f924f928290030190a2505050565b3390565b6060612002826126c8565b15612041575060408051808201909152600381527f45544800000000000000000000000000000000000000000000000000000000006020820152610779565b60408051600481526024810182526020810180517bffffffffffffffffffffffffffffffffffffffffffffffffffffffff167f95d89b4100000000000000000000000000000000000000000000000000000000178152915181516000936060936001600160a01b03881693614e2093919290918291908083835b602083106120da5780518252601f1990920191602091820191016120bb565b6001836020036101000a0380198251168184511680821785525050505050509050019150506000604051808303818686fa925050503d806000811461213b576040519150601f19603f3d011682016040523d82523d6000602084013e612140565b606091505b5091509150816122485760408051600481526024810182526020810180517bffffffffffffffffffffffffffffffffffffffffffffffffffffffff167ff76f8d7800000000000000000000000000000000000000000000000000000000178152915181516001600160a01b03881693614e209392918291908083835b602083106121db5780518252601f1990920191602091820191016121bc565b6001836020036101000a0380198251168184511680821785525050505050509050019150506000604051808303818686fa925050503d806000811461223c576040519150601f19603f3d011682016040523d82523d6000602084013e612241565b606091505b5090925090505b81801561225757506060815110155b156123765760008082806020019051604081101561227457600080fd5b5080516020918201519093509150821480156122905750600081115b801561229e57506101008111155b15612373578280602001905160208110156122b857600080fd5b81019080805160405193929190846401000000008211156122d857600080fd5b9083019060208201858111156122ed57600080fd5b825164010000000081118282018810171561230757600080fd5b82525081516020918201929091019080838360005b8381101561233457818101518382015260200161231c565b50505050905090810190601f1680156123615780820380516001836020036101000a031916815260200191505b50604052505050945050505050610779565b50505b818015612384575080516020145b156124e15760005b8151811080156123d25750602060f81b8282815181106123a857fe5b01602001517fff000000000000000000000000000000000000000000000000000000000000001610155b80156124145750607e60f81b8282815181106123ea57fe5b01602001517fff000000000000000000000000000000000000000000000000000000000000001611155b156124215760010161238c565b80156124df5760608167ffffffffffffffff8111801561244057600080fd5b506040519080825280601f01601f19166020018201604052801561246b576020820181803683370190505b50905060005b828110156124d35783818151811061248557fe5b602001015160f81c60f81b82828151811061249c57fe5b60200101907effffffffffffffffffffffffffffffffffffffffffffffffffffffffffffff1916908160001a905350600101612471565b50935061077992505050565b505b611d8b846126d5565b6124fa878787878788888861270b565b50505050505050565b60008183106125125781611dd5565b5090919050565b60008261252857506000611baf565b8282028284828161253557fe5b0414611dd55760405162461bcd60e51b8152600401808060200182810382526021815260200180612bcc6021913960400191505060405180910390fd5b600082820183811015611dd5576040805162461bcd60e51b815260206004820152601b60248201527f536166654d6174683a206164646974696f6e206f766572666c6f770000000000604482015290519081900360640190fd5b6000611dd583836040518060400160405280601a81526020017f536166654d6174683a206469766973696f6e206279207a65726f0000000000008152506128f8565b6000818484111561269d5760405162461bcd60e51b81526004018080602001828103825283818151815260200191508051906020019080838360005b8381101561266257818101518382015260200161264a565b50505050905090810190601f16801561268f5780820380516001836020036101000a031916815260200191505b509250505060405180910390fd5b505050900390565b6124fa87878786156126b757886126bf565b6126bf611c90565b8888888861270b565b6001600160a01b03161590565b60606107768260405160200180826001600160a01b031660601b815260140191505060405160208183030381529060405261295d565b6001880154612718612b85565b50604080516060810182528a546cffffffffffffffffffffffffff80821683526d010000000000000000000000000082041660208301527a010000000000000000000000000000000000000000000000000000900465ffffffffffff169181019190915260006127b961279561278e8b87611b78565b8990612519565b6127b36127ac6127a58c89611b78565b8a90612519565b8690612572565b90611d93565b9050600085156127d2576127cd82876125cc565b6127d4565b845b90508382146127e55760018c018290555b82602001516cffffffffffffffffffffffffff1681146128bd5761280883611cf3565b8c547fffffffffffffffffffffffffffffffffffffff00000000000000000000000000166cffffffffffffffffffffffffff918216177fffffffffffff00000000000000000000000000ffffffffffffffffffffffffff166d0100000000000000000000000000918316919091021779ffffffffffffffffffffffffffffffffffffffffffffffffffff167a0100000000000000000000000000000000000000000000000000004265ffffffffffff1602178c555b6128c7898b612b6b565b6128ea576001600160a01b038b16600090815260028d0160205260409020895190555b505050505050505050505050565b600081836129475760405162461bcd60e51b815260206004820181815283516024840152835190928392604490910191908501908083836000831561266257818101518382015260200161264a565b50600083858161295357fe5b0495945050505050565b606080825160020260020167ffffffffffffffff8111801561297e57600080fd5b506040519080825280601f01601f1916602001820160405280156129a9576020820181803683370190505b5090507f3000000000000000000000000000000000000000000000000000000000000000816000815181106129da57fe5b60200101907effffffffffffffffffffffffffffffffffffffffffffffffffffffffffffff1916908160001a9053507f780000000000000000000000000000000000000000000000000000000000000081600181518110612a3757fe5b60200101907effffffffffffffffffffffffffffffffffffffffffffffffffffffffffffff1916908160001a905350600260005b8451811015612b625760006004868381518110612a8457fe5b602001015160f81c60f81b60f81c60ff16901c60ff1690506000868381518110612aaa57fe5b60209101015160f81c600f169050600a8204602702826030010160f81b858580600101965081518110612ad957fe5b60200101907effffffffffffffffffffffffffffffffffffffffffffffffffffffffffffff1916908160001a905350600a8104602702816030010160f81b858580600101965081518110612b2957fe5b60200101907effffffffffffffffffffffffffffffffffffffffffffffffffffffffffffff1916908160001a9053505050600101612a6b565b50909392505050565b5190511490565b6040518060200160405280600081525090565b60408051606081018252600080825260208201819052918101919091529056fe4f776e61626c653a206e6577206f776e657220697320746865207a65726f2061646472657373536166654d6174683a206d756c7469706c69636174696f6e206f766572666c6f77a2646970667358221220d442c37dda5a7b1b6d58cdefe06c60c92d5e16dfaf9bf4fe902718e995e8206064736f6c634300060c0033",
  "immutableReferences": {
    "1795": [
      {
        "length": 32,
        "start": 3491
      },
      {
        "length": 32,
        "start": 5837
      }
    ],
    "1797": [
      {
        "length": 32,
        "start": 4104
      },
      {
        "length": 32,
        "start": 6102
      }
    ],
    "2880": [
      {
        "length": 32,
        "start": 2311
      },
      {
        "length": 32,
        "start": 2862
      }
    ]
  },
  "source": "// SPDX-License-Identifier: MIT\n\npragma solidity ^0.6.0;\n\nimport \"./interfaces/IMooniswapDeployer.sol\";\nimport \"./libraries/UniERC20.sol\";\nimport \"./Mooniswap.sol\";\nimport \"./governance/MooniswapFactoryGovernance.sol\";\n\n\ncontract MooniswapFactory is MooniswapFactoryGovernance {\n    using UniERC20 for IERC20;\n\n    event Deployed(\n        address indexed mooniswap,\n        address indexed token1,\n        address indexed token2\n    );\n\n    IMooniswapDeployer public immutable mooniswapDeployer;\n    address public immutable poolOwner;\n    Mooniswap[] public allPools;\n    mapping(Mooniswap => bool) public isPool;\n    mapping(IERC20 => mapping(IERC20 => Mooniswap)) public pools;\n\n    constructor (address _poolOwner, IMooniswapDeployer _mooniswapDeployer, address _governanceMothership) public MooniswapFactoryGovernance(_governanceMothership) {\n        poolOwner = _poolOwner;\n        mooniswapDeployer = _mooniswapDeployer;\n    }\n\n    function getAllPools() external view returns(Mooniswap[] memory) {\n        return allPools;\n    }\n\n    function deploy(IERC20 tokenA, IERC20 tokenB) public returns(Mooniswap pool) {\n        require(tokenA != tokenB, \"Factory: not support same tokens\");\n        require(pools[tokenA][tokenB] == Mooniswap(0), \"Factory: pool already exists\");\n\n        (IERC20 token1, IERC20 token2) = sortTokens(tokenA, tokenB);\n\n        string memory symbol1 = token1.uniSymbol();\n        string memory symbol2 = token2.uniSymbol();\n\n        pool = mooniswapDeployer.deploy(\n            token1,\n            token2,\n            string(abi.encodePacked(\"Mooniswap V2 (\", symbol1, \"-\", symbol2, \")\")),\n            string(abi.encodePacked(\"MOON-V2-\", symbol1, \"-\", symbol2)),\n            poolOwner\n        );\n\n        pools[token1][token2] = pool;\n        pools[token2][token1] = pool;\n        allPools.push(pool);\n        isPool[pool] = true;\n\n        emit Deployed(\n            address(pool),\n            address(token1),\n            address(token2)\n        );\n    }\n\n    function sortTokens(IERC20 tokenA, IERC20 tokenB) public pure returns(IERC20, IERC20) {\n        if (tokenA < tokenB) {\n            return (tokenA, tokenB);\n        }\n        return (tokenB, tokenA);\n    }\n}\n",
  "sourcePath": "/Users/k06a/Projects/mooniswap-v2/contracts/MooniswapFactory.sol",
  "compiler": {
    "name": "solc",
    "version": "0.6.12+commit.27d51765.Emscripten.clang"
  },
  "schemaVersion": "3.3.2",
  "updatedAt": "2020-11-30T13:45:42.591Z",
  "networkType": "ethereum",
  "devdoc": {
    "kind": "dev",
    "methods": {
      "owner()": {
        "details": "Returns the address of the current owner."
      },
      "renounceOwnership()": {
        "details": "Leaves the contract without owner. It will not be possible to call `onlyOwner` functions anymore. Can only be called by the current owner. NOTE: Renouncing ownership will leave the contract without an owner, thereby removing any functionality that is only available to the owner."
      },
      "transferOwnership(address)": {
        "details": "Transfers ownership of the contract to a new account (`newOwner`). Can only be called by the current owner."
      }
    },
    "version": 1
  },
  "userdoc": {
    "kind": "user",
    "methods": {},
    "version": 1
  }
}