{
  "contractName": "MooniswapFactoryGovernance",
  "abi": [
    {
      "inputs": [
        {
          "internalType": "address",
          "name": "_mothership",
          "type": "address"
        }
      ],
      "stateMutability": "nonpayable",
      "type": "constructor"
    },
    {
      "anonymous": false,
      "inputs": [
        {
          "indexed": true,
          "internalType": "address",
          "name": "user",
          "type": "address"
        },
        {
          "indexed": false,
          "internalType": "uint256",
          "name": "decayPeriod",
          "type": "uint256"
        },
        {
          "indexed": false,
          "internalType": "uint256",
          "name": "amount",
          "type": "uint256"
        }
      ],
      "name": "DefaultDecayPeriodVoteUpdate",
      "type": "event"
    },
    {
      "anonymous": false,
      "inputs": [
        {
          "indexed": true,
          "internalType": "address",
          "name": "user",
          "type": "address"
        },
        {
          "indexed": false,
          "internalType": "uint256",
          "name": "fee",
          "type": "uint256"
        },
        {
          "indexed": false,
          "internalType": "uint256",
          "name": "amount",
          "type": "uint256"
        }
      ],
      "name": "DefaultFeeVoteUpdate",
      "type": "event"
    },
    {
      "anonymous": false,
      "inputs": [
        {
          "indexed": true,
          "internalType": "address",
          "name": "user",
          "type": "address"
        },
        {
          "indexed": false,
          "internalType": "uint256",
          "name": "fee",
          "type": "uint256"
        },
        {
          "indexed": false,
          "internalType": "uint256",
          "name": "amount",
          "type": "uint256"
        }
      ],
      "name": "DefaultSlippageFeeVoteUpdate",
      "type": "event"
    },
    {
      "anonymous": false,
      "inputs": [
        {
          "indexed": false,
          "internalType": "address",
          "name": "governanceFeeReceiver",
          "type": "address"
        }
      ],
      "name": "GovernanceFeeReceiverUpdate",
      "type": "event"
    },
    {
      "anonymous": false,
      "inputs": [
        {
          "indexed": true,
          "internalType": "address",
          "name": "user",
          "type": "address"
        },
        {
          "indexed": false,
          "internalType": "uint256",
          "name": "referralShare",
          "type": "uint256"
        },
        {
          "indexed": false,
          "internalType": "uint256",
          "name": "amount",
          "type": "uint256"
        }
      ],
      "name": "GovernanceShareVoteUpdate",
      "type": "event"
    },
    {
      "anonymous": false,
      "inputs": [
        {
          "indexed": true,
          "internalType": "address",
          "name": "previousOwner",
          "type": "address"
        },
        {
          "indexed": true,
          "internalType": "address",
          "name": "newOwner",
          "type": "address"
        }
      ],
      "name": "OwnershipTransferred",
      "type": "event"
    },
    {
      "anonymous": false,
      "inputs": [
        {
          "indexed": false,
          "internalType": "address",
          "name": "referralFeeReceiver",
          "type": "address"
        }
      ],
      "name": "ReferralFeeReceiverUpdate",
      "type": "event"
    },
    {
      "anonymous": false,
      "inputs": [
        {
          "indexed": true,
          "internalType": "address",
          "name": "user",
          "type": "address"
        },
        {
          "indexed": false,
          "internalType": "uint256",
          "name": "referralShare",
          "type": "uint256"
        },
        {
          "indexed": false,
          "internalType": "uint256",
          "name": "amount",
          "type": "uint256"
        }
      ],
      "name": "ReferralShareVoteUpdate",
      "type": "event"
    },
    {
      "inputs": [
        {
          "internalType": "address",
          "name": "account",
          "type": "address"
        }
      ],
      "name": "balanceOf",
      "outputs": [
        {
          "internalType": "uint256",
          "name": "",
          "type": "uint256"
        }
      ],
      "stateMutability": "view",
      "type": "function"
    },
    {
      "inputs": [],
      "name": "governanceFeeReceiver",
      "outputs": [
        {
          "internalType": "address",
          "name": "",
          "type": "address"
        }
      ],
      "stateMutability": "view",
      "type": "function"
    },
    {
      "inputs": [],
      "name": "mothership",
      "outputs": [
        {
          "internalType": "address",
          "name": "",
          "type": "address"
        }
      ],
      "stateMutability": "view",
      "type": "function"
    },
    {
      "inputs": [],
      "name": "owner",
      "outputs": [
        {
          "internalType": "address",
          "name": "",
          "type": "address"
        }
      ],
      "stateMutability": "view",
      "type": "function"
    },
    {
      "inputs": [],
      "name": "referralFeeReceiver",
      "outputs": [
        {
          "internalType": "address",
          "name": "",
          "type": "address"
        }
      ],
      "stateMutability": "view",
      "type": "function"
    },
    {
      "inputs": [],
      "name": "renounceOwnership",
      "outputs": [],
      "stateMutability": "nonpayable",
      "type": "function"
    },
    {
      "inputs": [],
      "name": "totalSupply",
      "outputs": [
        {
          "internalType": "uint256",
          "name": "",
          "type": "uint256"
        }
      ],
      "stateMutability": "view",
      "type": "function"
    },
    {
      "inputs": [
        {
          "internalType": "address",
          "name": "newOwner",
          "type": "address"
        }
      ],
      "name": "transferOwnership",
      "outputs": [],
      "stateMutability": "nonpayable",
      "type": "function"
    },
    {
      "inputs": [],
      "name": "parameters",
      "outputs": [
        {
          "internalType": "uint256",
          "name": "",
          "type": "uint256"
        },
        {
          "internalType": "uint256",
          "name": "",
          "type": "uint256"
        },
        {
          "internalType": "address",
          "name": "",
          "type": "address"
        },
        {
          "internalType": "address",
          "name": "",
          "type": "address"
        }
      ],
      "stateMutability": "view",
      "type": "function"
    },
    {
      "inputs": [],
      "name": "defaultFee",
      "outputs": [
        {
          "internalType": "uint256",
          "name": "",
          "type": "uint256"
        }
      ],
      "stateMutability": "view",
      "type": "function"
    },
    {
      "inputs": [
        {
          "internalType": "address",
          "name": "user",
          "type": "address"
        }
      ],
      "name": "defaultFeeVotes",
      "outputs": [
        {
          "internalType": "uint256",
          "name": "",
          "type": "uint256"
        }
      ],
      "stateMutability": "view",
      "type": "function"
    },
    {
      "inputs": [],
      "name": "defaultSlippageFee",
      "outputs": [
        {
          "internalType": "uint256",
          "name": "",
          "type": "uint256"
        }
      ],
      "stateMutability": "view",
      "type": "function"
    },
    {
      "inputs": [
        {
          "internalType": "address",
          "name": "user",
          "type": "address"
        }
      ],
      "name": "defaultSlippageFeeVotes",
      "outputs": [
        {
          "internalType": "uint256",
          "name": "",
          "type": "uint256"
        }
      ],
      "stateMutability": "view",
      "type": "function"
    },
    {
      "inputs": [],
      "name": "defaultDecayPeriod",
      "outputs": [
        {
          "internalType": "uint256",
          "name": "",
          "type": "uint256"
        }
      ],
      "stateMutability": "view",
      "type": "function"
    },
    {
      "inputs": [
        {
          "internalType": "address",
          "name": "user",
          "type": "address"
        }
      ],
      "name": "defaultDecayPeriodVotes",
      "outputs": [
        {
          "internalType": "uint256",
          "name": "",
          "type": "uint256"
        }
      ],
      "stateMutability": "view",
      "type": "function"
    },
    {
      "inputs": [],
      "name": "referralShare",
      "outputs": [
        {
          "internalType": "uint256",
          "name": "",
          "type": "uint256"
        }
      ],
      "stateMutability": "view",
      "type": "function"
    },
    {
      "inputs": [
        {
          "internalType": "address",
          "name": "user",
          "type": "address"
        }
      ],
      "name": "referralShareVotes",
      "outputs": [
        {
          "internalType": "uint256",
          "name": "",
          "type": "uint256"
        }
      ],
      "stateMutability": "view",
      "type": "function"
    },
    {
      "inputs": [],
      "name": "governanceShare",
      "outputs": [
        {
          "internalType": "uint256",
          "name": "",
          "type": "uint256"
        }
      ],
      "stateMutability": "view",
      "type": "function"
    },
    {
      "inputs": [
        {
          "internalType": "address",
          "name": "user",
          "type": "address"
        }
      ],
      "name": "governanceShareVotes",
      "outputs": [
        {
          "internalType": "uint256",
          "name": "",
          "type": "uint256"
        }
      ],
      "stateMutability": "view",
      "type": "function"
    },
    {
      "inputs": [
        {
          "internalType": "address",
          "name": "newGovernanceFeeReceiver",
          "type": "address"
        }
      ],
      "name": "setGovernanceFeeReceiver",
      "outputs": [],
      "stateMutability": "nonpayable",
      "type": "function"
    },
    {
      "inputs": [
        {
          "internalType": "address",
          "name": "newReferralFeeReceiver",
          "type": "address"
        }
      ],
      "name": "setReferralFeeReceiver",
      "outputs": [],
      "stateMutability": "nonpayable",
      "type": "function"
    },
    {
      "inputs": [
        {
          "internalType": "uint256",
          "name": "vote",
          "type": "uint256"
        }
      ],
      "name": "defaultFeeVote",
      "outputs": [],
      "stateMutability": "nonpayable",
      "type": "function"
    },
    {
      "inputs": [],
      "name": "discardDefaultFeeVote",
      "outputs": [],
      "stateMutability": "nonpayable",
      "type": "function"
    },
    {
      "inputs": [
        {
          "internalType": "uint256",
          "name": "vote",
          "type": "uint256"
        }
      ],
      "name": "defaultSlippageFeeVote",
      "outputs": [],
      "stateMutability": "nonpayable",
      "type": "function"
    },
    {
      "inputs": [],
      "name": "discardDefaultSlippageFeeVote",
      "outputs": [],
      "stateMutability": "nonpayable",
      "type": "function"
    },
    {
      "inputs": [
        {
          "internalType": "uint256",
          "name": "vote",
          "type": "uint256"
        }
      ],
      "name": "defaultDecayPeriodVote",
      "outputs": [],
      "stateMutability": "nonpayable",
      "type": "function"
    },
    {
      "inputs": [],
      "name": "discardDefaultDecayPeriodVote",
      "outputs": [],
      "stateMutability": "nonpayable",
      "type": "function"
    },
    {
      "inputs": [
        {
          "internalType": "uint256",
          "name": "vote",
          "type": "uint256"
        }
      ],
      "name": "referralShareVote",
      "outputs": [],
      "stateMutability": "nonpayable",
      "type": "function"
    },
    {
      "inputs": [],
      "name": "discardReferralShareVote",
      "outputs": [],
      "stateMutability": "nonpayable",
      "type": "function"
    },
    {
      "inputs": [
        {
          "internalType": "uint256",
          "name": "vote",
          "type": "uint256"
        }
      ],
      "name": "governanceShareVote",
      "outputs": [],
      "stateMutability": "nonpayable",
      "type": "function"
    },
    {
      "inputs": [],
      "name": "discardGovernanceShareVote",
      "outputs": [],
      "stateMutability": "nonpayable",
      "type": "function"
    },
    {
      "inputs": [
        {
          "internalType": "address",
          "name": "account",
          "type": "address"
        },
        {
          "internalType": "uint256",
          "name": "newBalance",
          "type": "uint256"
        }
      ],
      "name": "notifyStakeChanged",
      "outputs": [],
      "stateMutability": "nonpayable",
      "type": "function"
    }
  ],
  "bytecode": "0x60a060405234801561001057600080fd5b50604051611e99380380611e998339818101604052602081101561003357600080fd5b50516001600160601b0319606082901b1660805260006100516100f6565b600280546001600160a01b0319166001600160a01b038316908117909155604051919250906000907f8be0079c531659141344cd1fd0a4f28419497f9722a3daafe3b4186f6b6457e0908290a3505060038054600160681b600160d01b031990811690915560068054821664b1a2bc2ec560791b179055600980548216604b606a1b179055600c8054821664b1a2bc2ec560781b179055600f805490911690556100fa565b3390565b60805160601c611d7d61011c6000398061076b52806109925250611d7d6000f3fe608060405234801561001057600080fd5b50600436106101f05760003560e01c8063855559341161010f578063c7feefe8116100a2578063e9f7e17b11610071578063e9f7e17b14610500578063f2fde38b1461051d578063f383033514610550578063fb20b7d014610558576101f0565b8063c7feefe8146104cb578063d8f4e0eb146104d3578063e1ea2554146104f0578063e859e56c146104f8576101f0565b80638da5cb5b116100de5780638da5cb5b146104405780639725ff351461044857806399fca7d914610465578063c5d5185a14610498576101f0565b806385555934146103b9578063865e4573146103c157806389035730146103f45780638d42412714610438576101f0565b80633eed75c311610187578063612a9f7611610156578063612a9f761461034357806370a082311461034b578063715018a61461037e5780637c4423a814610386576101f0565b80633eed75c3146102cf5780634187b7d6146102d757806346398144146103085780635a6c72d01461033b576101f0565b80631845f0db116101c35780631845f0db1461026957806323662bb91461027157806327a27433146102795780632ba653ec146102b2576101f0565b8063117036d1146101f557806314fd235a1461023a578063151359b41461025957806318160ddd14610261575b600080fd5b6102286004803603602081101561020b57600080fd5b503573ffffffffffffffffffffffffffffffffffffffff1661058b565b60408051918252519081900360200190f35b6102576004803603602081101561025057600080fd5b50356105d5565b005b61025761064e565b610228610668565b61022861066e565b6102286106e3565b6102576004803603604081101561028f57600080fd5b5073ffffffffffffffffffffffffffffffffffffffff8135169060200135610753565b610257600480360360208110156102c857600080fd5b50356108ab565b610257610972565b6102df610990565b6040805173ffffffffffffffffffffffffffffffffffffffff9092168252519081900360200190f35b6102576004803603602081101561031e57600080fd5b503573ffffffffffffffffffffffffffffffffffffffff166109b4565b610228610aa4565b610257610b14565b6102286004803603602081101561036157600080fd5b503573ffffffffffffffffffffffffffffffffffffffff16610b22565b610257610b4a565b6102286004803603602081101561039c57600080fd5b503573ffffffffffffffffffffffffffffffffffffffff16610c30565b610257610c6f565b610228600480360360208110156103d757600080fd5b503573ffffffffffffffffffffffffffffffffffffffff16610c7d565b6103fc610cba565b60408051948552602085019390935273ffffffffffffffffffffffffffffffffffffffff91821684840152166060830152519081900360800190f35b610257610dcb565b6102df610dea565b6102576004803603602081101561045e57600080fd5b5035610e06565b6102286004803603602081101561047b57600080fd5b503573ffffffffffffffffffffffffffffffffffffffff16610ecd565b610257600480360360208110156104ae57600080fd5b503573ffffffffffffffffffffffffffffffffffffffff16610f0a565b6102df610ffa565b610257600480360360208110156104e957600080fd5b5035611016565b6102df611082565b61022861109e565b6102576004803603602081101561051657600080fd5b503561110e565b6102576004803603602081101561053357600080fd5b503573ffffffffffffffffffffffffffffffffffffffff1661117a565b6102286112d1565b6102286004803603602081101561056e57600080fd5b503573ffffffffffffffffffffffffffffffffffffffff16611341565b73ffffffffffffffffffffffffffffffffffffffff81166000908152600e6020908152604080832081519283019091525481526105cf9066b1a2bc2ec50000611382565b92915050565b6703782dace9d90000811115610632576040805162461bcd60e51b815260206004820152601a60248201527f476f7620736861726520766f746520697320746f6f2068696768000000000000604482015290519081900360640190fd5b61064b600f33610641846113bc565b60006113db611430565b50565b61066660033361065c6114b1565b60006114cc611430565b565b60005490565b604080516060810182526009546cffffffffffffffffffffffffff80821683526d010000000000000000000000000082041660208301527a010000000000000000000000000000000000000000000000000000900465ffffffffffff16918101919091526000906106de90611521565b905090565b604080516060810182526006546cffffffffffffffffffffffffff80821683526d010000000000000000000000000082041660208301527a010000000000000000000000000000000000000000000000000000900465ffffffffffff16918101919091526000906106de90611521565b3373ffffffffffffffffffffffffffffffffffffffff7f000000000000000000000000000000000000000000000000000000000000000016146107dd576040805162461bcd60e51b815260206004820152601f60248201527f416363657373207265737472696374656420746f206d6f746865727368697000604482015290519081900360640190fd5b60006107e883610b22565b90508082111561080a576108058361080084846115c1565b61160a565b61082b565b80821015610825576108058361082083856115c1565b611676565b506108a7565b6000610835610668565b905061084a60038584868560006114cc611719565b61086460068584868567016345785d8a000061178a611719565b61087860098584868561012c6117df611719565b610891600c8584868566b1a2bc2ec50000611834611719565b6108a4600f8584868560006113db611719565b50505b5050565b610e10811115610902576040805162461bcd60e51b815260206004820152601d60248201527f446563617920706572696f6420766f746520697320746f6f2068696768000000604482015290519081900360640190fd5b600f811015610958576040805162461bcd60e51b815260206004820152601c60248201527f446563617920706572696f6420766f746520697320746f6f206c6f7700000000604482015290519081900360640190fd5b61064b600933610967846113bc565b61012c6117df611430565b610666600c336109806114b1565b66b1a2bc2ec50000611834611430565b7f000000000000000000000000000000000000000000000000000000000000000081565b6109bc611889565b60025473ffffffffffffffffffffffffffffffffffffffff908116911614610a2b576040805162461bcd60e51b815260206004820181905260248201527f4f776e61626c653a2063616c6c6572206973206e6f7420746865206f776e6572604482015290519081900360640190fd5b6012805473ffffffffffffffffffffffffffffffffffffffff83167fffffffffffffffffffffffff0000000000000000000000000000000000000000909116811790915560408051918252517f9870f2a0fa9bb3dac123818f30cafb067298f95c91b95615af8af970e0d4d6a39181900360200190a150565b604080516060810182526003546cffffffffffffffffffffffffff80821683526d010000000000000000000000000082041660208301527a010000000000000000000000000000000000000000000000000000900465ffffffffffff16918101919091526000906106de90611521565b610666600f336106416114b1565b73ffffffffffffffffffffffffffffffffffffffff1660009081526001602052604090205490565b610b52611889565b60025473ffffffffffffffffffffffffffffffffffffffff908116911614610bc1576040805162461bcd60e51b815260206004820181905260248201527f4f776e61626c653a2063616c6c6572206973206e6f7420746865206f776e6572604482015290519081900360640190fd5b60025460405160009173ffffffffffffffffffffffffffffffffffffffff16907f8be0079c531659141344cd1fd0a4f28419497f9722a3daafe3b4186f6b6457e0908390a3600280547fffffffffffffffffffffffff0000000000000000000000000000000000000000169055565b73ffffffffffffffffffffffffffffffffffffffff81166000908152600b6020908152604080832081519283019091525481526105cf9061012c611382565b6106666009336109676114b1565b73ffffffffffffffffffffffffffffffffffffffff8116600090815260116020908152604080832081519283019091525481526105cf9082611382565b60408051606081018252600c546cffffffffffffffffffffffffff80821683526d010000000000000000000000000082041660208301527a010000000000000000000000000000000000000000000000000000900465ffffffffffff1691810191909152600090819081908190610d3090611521565b60408051606081018252600f546cffffffffffffffffffffffffff80821683526d010000000000000000000000000082041660208301527a010000000000000000000000000000000000000000000000000000900465ffffffffffff1691810191909152610d9d90611521565b601254601354929791965073ffffffffffffffffffffffffffffffffffffffff908116955090911692509050565b610666600633610dd96114b1565b67016345785d8a000061178a611430565b60025473ffffffffffffffffffffffffffffffffffffffff1690565b6703782dace9d90000811115610e63576040805162461bcd60e51b815260206004820152601f60248201527f526566657272616c20736861726520766f746520697320746f6f206869676800604482015290519081900360640190fd5b655af3107a4000811015610ebe576040805162461bcd60e51b815260206004820152601e60248201527f526566657272616c20736861726520766f746520697320746f6f206c6f770000604482015290519081900360640190fd5b61064b600c33610980846113bc565b73ffffffffffffffffffffffffffffffffffffffff8116600090815260056020908152604080832081519283019091525481526105cf9082611382565b610f12611889565b60025473ffffffffffffffffffffffffffffffffffffffff908116911614610f81576040805162461bcd60e51b815260206004820181905260248201527f4f776e61626c653a2063616c6c6572206973206e6f7420746865206f776e6572604482015290519081900360640190fd5b6013805473ffffffffffffffffffffffffffffffffffffffff83167fffffffffffffffffffffffff0000000000000000000000000000000000000000909116811790915560408051918252517f538574f3b86945605ea4352f9e2f4b7e0627ed519e932c9c418c5e7507c4494d9181900360200190a150565b60135473ffffffffffffffffffffffffffffffffffffffff1681565b67016345785d8a0000811115611073576040805162461bcd60e51b815260206004820152601460248201527f46656520766f746520697320746f6f2068696768000000000000000000000000604482015290519081900360640190fd5b61064b60033361065c846113bc565b60125473ffffffffffffffffffffffffffffffffffffffff1681565b60408051606081018252600c546cffffffffffffffffffffffffff80821683526d010000000000000000000000000082041660208301527a010000000000000000000000000000000000000000000000000000900465ffffffffffff16918101919091526000906106de90611521565b670de0b6b3a764000081111561116b576040805162461bcd60e51b815260206004820152601d60248201527f536c6970706167652066656520766f746520697320746f6f2068696768000000604482015290519081900360640190fd5b61064b600633610dd9846113bc565b611182611889565b60025473ffffffffffffffffffffffffffffffffffffffff9081169116146111f1576040805162461bcd60e51b815260206004820181905260248201527f4f776e61626c653a2063616c6c6572206973206e6f7420746865206f776e6572604482015290519081900360640190fd5b73ffffffffffffffffffffffffffffffffffffffff81166112435760405162461bcd60e51b8152600401808060200182810382526026815260200180611d016026913960400191505060405180910390fd5b60025460405173ffffffffffffffffffffffffffffffffffffffff8084169216907f8be0079c531659141344cd1fd0a4f28419497f9722a3daafe3b4186f6b6457e090600090a3600280547fffffffffffffffffffffffff00000000000000000000000000000000000000001673ffffffffffffffffffffffffffffffffffffffff92909216919091179055565b60408051606081018252600f546cffffffffffffffffffffffffff80821683526d010000000000000000000000000082041660208301527a010000000000000000000000000000000000000000000000000000900465ffffffffffff16918101919091526000906106de90611521565b73ffffffffffffffffffffffffffffffffffffffff8116600090815260086020908152604080832081519283019091525481526105cf9067016345785d8a00005b8151600090156113b6575081517fffffffffffffffffffffffffffffffffffffffffffffffffffffffffffffffff016105cf565b50919050565b6113c4611ccd565b506040805160208101909152600182018152919050565b6040805183815260208101839052815173ffffffffffffffffffffffffffffffffffffffff8616927fa964c3ffd6a3d56c2b1e87b330e1aabc1b63bee4108f62b07c3aa7d55397fa3f928290030190a2505050565b600061143b85610b22565b73ffffffffffffffffffffffffffffffffffffffff861660009081526002880160209081526040918290208251918201909252905481529091506114919086908684611485610668565b8b94939291908961188d565b6114a98561149f8686611382565b838563ffffffff16565b505050505050565b6114b9611ccd565b5060408051602081019091526000815290565b6040805183815260208101839052815173ffffffffffffffffffffffffffffffffffffffff8616927f22957ea429f65542a49e6fc53fa6c2695a4ffd6aa3419d203d2dc4a4d07ffa96928290030190a2505050565b60008061154f6201518061154a856040015165ffffffffffff16426115c190919063ffffffff16565b6118a6565b9050600061156062015180836115c1565b90506115b9620151806115b36115928588602001516cffffffffffffffffffffffffff166118bc90919063ffffffff16565b87516115ad906cffffffffffffffffffffffffff16866118bc565b90611915565b9061196f565b949350505050565b600061160383836040518060400160405280601e81526020017f536166654d6174683a207375627472616374696f6e206f766572666c6f7700008152506119b1565b9392505050565b6000546116179082611915565b600090815573ffffffffffffffffffffffffffffffffffffffff83168152600160205260409020546116499082611915565b73ffffffffffffffffffffffffffffffffffffffff90921660009081526001602052604090209190915550565b604080518082018252601b81527f4275726e20616d6f756e7420657863656564732062616c616e6365000000000060208083019190915273ffffffffffffffffffffffffffffffffffffffff85166000908152600190915291909120546116de9183906119b1565b73ffffffffffffffffffffffffffffffffffffffff83166000908152600160205260408120919091555461171290826115c1565b6000555050565b611721611ccd565b5073ffffffffffffffffffffffffffffffffffffffff8616600090815260028801602090815260409182902082519182019092529054815261176888888389898989611a48565b611780876117768386611382565b878563ffffffff16565b5050505050505050565b6040805183815260208101839052815173ffffffffffffffffffffffffffffffffffffffff8616927f7be763388d775e68e8a38e59ae8608744bb965337411392b45eb4af4320450d1928290030190a2505050565b6040805183815260208101839052815173ffffffffffffffffffffffffffffffffffffffff8616927f8c08115f799329bb6bb7f1be9e223d329e47b3e7439396038d0ec4aaa8dde53d928290030190a2505050565b6040805183815260208101839052815173ffffffffffffffffffffffffffffffffffffffff8616927f52b54d7e418b7b8aef97da78fd37c4022b0c8d0aef877e7662778a837a0f924f928290030190a2505050565b3390565b61189d8787878787888888611a67565b50505050505050565b60008183106118b55781611603565b5090919050565b6000826118cb575060006105cf565b828202828482816118d857fe5b04146116035760405162461bcd60e51b8152600401808060200182810382526021815260200180611d276021913960400191505060405180910390fd5b600082820183811015611603576040805162461bcd60e51b815260206004820152601b60248201527f536166654d6174683a206164646974696f6e206f766572666c6f770000000000604482015290519081900360640190fd5b600061160383836040518060400160405280601a81526020017f536166654d6174683a206469766973696f6e206279207a65726f000000000000815250611c61565b60008184841115611a405760405162461bcd60e51b81526004018080602001828103825283818151815260200191508051906020019080838360005b83811015611a055781810151838201526020016119ed565b50505050905090810190601f168015611a325780820380516001836020036101000a031916815260200191505b509250505060405180910390fd5b505050900390565b61189d8787878615611a5a5788611a62565b611a626114b1565b888888885b6001880154611a74611ce0565b50604080516060810182528a546cffffffffffffffffffffffffff80821683526d010000000000000000000000000082041660208301527a010000000000000000000000000000000000000000000000000000900465ffffffffffff16918101919091526000611b15611af1611aea8b87611382565b89906118bc565b611b0f611b08611b018c89611382565b8a906118bc565b8690611915565b906115c1565b905060008515611b2e57611b29828761196f565b611b30565b845b9050838214611b415760018c018290555b82602001516cffffffffffffffffffffffffff168114611c1957611b6483611521565b8c547fffffffffffffffffffffffffffffffffffffff00000000000000000000000000166cffffffffffffffffffffffffff918216177fffffffffffff00000000000000000000000000ffffffffffffffffffffffffff166d0100000000000000000000000000918316919091021779ffffffffffffffffffffffffffffffffffffffffffffffffffff167a0100000000000000000000000000000000000000000000000000004265ffffffffffff1602178c555b611c23898b611cc6565b611c535773ffffffffffffffffffffffffffffffffffffffff8b16600090815260028d0160205260409020895190555b505050505050505050505050565b60008183611cb05760405162461bcd60e51b8152602060048201818152835160248401528351909283926044909101919085019080838360008315611a055781810151838201526020016119ed565b506000838581611cbc57fe5b0495945050505050565b5190511490565b6040518060200160405280600081525090565b60408051606081018252600080825260208201819052918101919091529056fe4f776e61626c653a206e6577206f776e657220697320746865207a65726f2061646472657373536166654d6174683a206d756c7469706c69636174696f6e206f766572666c6f77a26469706673582212207caea5225d9ec7ccf7cd11351c988999f0082393ec860985ef9b3dff1794cf9f64736f6c634300060c0033",
  "immutableReferences": {
    "2880": [
      {
        "length": 32,
        "start": 1899
      },
      {
        "length": 32,
        "start": 2450
      }
    ]
  },
  "source": "// SPDX-License-Identifier: MIT\n\npragma solidity ^0.6.0;\n\nimport \"@openzeppelin/contracts/access/Ownable.sol\";\nimport \"../interfaces/IMooniswapFactoryGovernance.sol\";\nimport \"../libraries/LiquidVoting.sol\";\nimport \"../MooniswapConstants.sol\";\nimport \"../utils/BalanceAccounting.sol\";\nimport \"./BaseGovernanceModule.sol\";\n\n\ncontract MooniswapFactoryGovernance is IMooniswapFactoryGovernance, BaseGovernanceModule, MooniswapConstants, BalanceAccounting, Ownable {\n    using Vote for Vote.Data;\n    using LiquidVoting for LiquidVoting.Data;\n    using LiquidVoting for LiquidVoting.VirtualData;\n    using SafeMath for uint256;\n\n    event DefaultFeeVoteUpdate(address indexed user, uint256 fee, uint256 amount);\n    event DefaultSlippageFeeVoteUpdate(address indexed user, uint256 fee, uint256 amount);\n    event DefaultDecayPeriodVoteUpdate(address indexed user, uint256 decayPeriod, uint256 amount);\n    event ReferralShareVoteUpdate(address indexed user, uint256 referralShare, uint256 amount);\n    event GovernanceShareVoteUpdate(address indexed user, uint256 referralShare, uint256 amount);\n    event GovernanceFeeReceiverUpdate(address governanceFeeReceiver);\n    event ReferralFeeReceiverUpdate(address referralFeeReceiver);\n\n    LiquidVoting.Data private _defaultFee;\n    LiquidVoting.Data private _defaultSlippageFee;\n    LiquidVoting.Data private _defaultDecayPeriod;\n    LiquidVoting.Data private _referralShare;\n    LiquidVoting.Data private _governanceShare;\n    address public override governanceFeeReceiver;\n    address public override referralFeeReceiver;\n\n    constructor(address _mothership) public BaseGovernanceModule(_mothership) {\n        _defaultFee.data.result = uint104(_DEFAULT_FEE);\n        _defaultSlippageFee.data.result = uint104(_DEFAULT_SLIPPAGE_FEE);\n        _defaultDecayPeriod.data.result = uint104(_DEFAULT_DECAY_PERIOD);\n        _referralShare.data.result = uint104(_DEFAULT_REFERRAL_SHARE);\n        _governanceShare.data.result = uint104(_DEFAULT_GOVERNANCE_SHARE);\n    }\n\n    function parameters() external view override returns(uint256, uint256, address, address) {\n        return (_referralShare.data.current(), _governanceShare.data.current(), governanceFeeReceiver, referralFeeReceiver);\n    }\n\n    function defaultFee() external view override returns(uint256) {\n        return _defaultFee.data.current();\n    }\n\n    function defaultFeeVotes(address user) external view returns(uint256) {\n        return _defaultFee.votes[user].get(_DEFAULT_FEE);\n    }\n\n    function defaultSlippageFee() external view override returns(uint256) {\n        return _defaultSlippageFee.data.current();\n    }\n\n    function defaultSlippageFeeVotes(address user) external view returns(uint256) {\n        return _defaultSlippageFee.votes[user].get(_DEFAULT_SLIPPAGE_FEE);\n    }\n\n    function defaultDecayPeriod() external view override returns(uint256) {\n        return _defaultDecayPeriod.data.current();\n    }\n\n    function defaultDecayPeriodVotes(address user) external view returns(uint256) {\n        return _defaultDecayPeriod.votes[user].get(_DEFAULT_DECAY_PERIOD);\n    }\n\n    function referralShare() external view override returns(uint256) {\n        return _referralShare.data.current();\n    }\n\n    function referralShareVotes(address user) external view returns(uint256) {\n        return _referralShare.votes[user].get(_DEFAULT_REFERRAL_SHARE);\n    }\n\n    function governanceShare() external view override returns(uint256) {\n        return _governanceShare.data.current();\n    }\n\n    function governanceShareVotes(address user) external view returns(uint256) {\n        return _governanceShare.votes[user].get(_DEFAULT_GOVERNANCE_SHARE);\n    }\n\n    function setGovernanceFeeReceiver(address newGovernanceFeeReceiver) external onlyOwner {\n        governanceFeeReceiver = newGovernanceFeeReceiver;\n        emit GovernanceFeeReceiverUpdate(newGovernanceFeeReceiver);\n    }\n\n    function setReferralFeeReceiver(address newReferralFeeReceiver) external onlyOwner {\n        referralFeeReceiver = newReferralFeeReceiver;\n        emit ReferralFeeReceiverUpdate(newReferralFeeReceiver);\n    }\n\n    function defaultFeeVote(uint256 vote) external {\n        require(vote <= _MAX_FEE, \"Fee vote is too high\");\n        _updateVote(_defaultFee, msg.sender, Vote.init(vote), _DEFAULT_FEE, _emitDefaultFeeVoteUpdate);\n    }\n\n   function discardDefaultFeeVote() external {\n       _updateVote(_defaultFee, msg.sender, Vote.init(), _DEFAULT_FEE, _emitDefaultFeeVoteUpdate);\n    }\n\n    function defaultSlippageFeeVote(uint256 vote) external {\n        require(vote <= _MAX_SLIPPAGE_FEE, \"Slippage fee vote is too high\");\n        _updateVote(_defaultSlippageFee, msg.sender, Vote.init(vote), _DEFAULT_SLIPPAGE_FEE, _emitDefaultSlippageFeeVoteUpdate);\n    }\n\n   function discardDefaultSlippageFeeVote() external {\n       _updateVote(_defaultSlippageFee, msg.sender, Vote.init(), _DEFAULT_SLIPPAGE_FEE, _emitDefaultSlippageFeeVoteUpdate);\n    }\n\n    function defaultDecayPeriodVote(uint256 vote) external {\n        require(vote <= _MAX_DECAY_PERIOD, \"Decay period vote is too high\");\n        require(vote >= _MIN_DECAY_PERIOD, \"Decay period vote is too low\");\n\n        _updateVote(_defaultDecayPeriod, msg.sender, Vote.init(vote), _DEFAULT_DECAY_PERIOD, _emitDefaultDecayPeriodVoteUpdate);\n    }\n\n    function discardDefaultDecayPeriodVote() external {\n        _updateVote(_defaultDecayPeriod, msg.sender, Vote.init(), _DEFAULT_DECAY_PERIOD, _emitDefaultDecayPeriodVoteUpdate);\n    }\n\n    function referralShareVote(uint256 vote) external {\n        require(vote <= _MAX_SHARE, \"Referral share vote is too high\");\n        require(vote >= _MIN_REFERRAL_SHARE, \"Referral share vote is too low\");\n\n        _updateVote(_referralShare, msg.sender, Vote.init(vote), _DEFAULT_REFERRAL_SHARE, _emitReferralShareVoteUpdate);\n    }\n\n    function discardReferralShareVote() external {\n        _updateVote(_referralShare, msg.sender, Vote.init(), _DEFAULT_REFERRAL_SHARE, _emitReferralShareVoteUpdate);\n    }\n\n    function governanceShareVote(uint256 vote) external {\n        require(vote <= _MAX_SHARE, \"Gov share vote is too high\");\n\n        _updateVote(_governanceShare, msg.sender, Vote.init(vote), _DEFAULT_GOVERNANCE_SHARE, _emitGovernanceShareVoteUpdate);\n    }\n\n    function discardGovernanceShareVote() external {\n        _updateVote(_governanceShare, msg.sender, Vote.init(), _DEFAULT_GOVERNANCE_SHARE, _emitGovernanceShareVoteUpdate);\n    }\n\n    function notifyStakeChanged(address account, uint256 newBalance) external override onlyMothership {\n        uint256 balance = balanceOf(account);\n        if (newBalance > balance) {\n            _mint(account, newBalance.sub(balance));\n        } else if (newBalance < balance) {\n            _burn(account, balance.sub(newBalance));\n        } else {\n            return;\n        }\n        uint256 newTotalSupply = totalSupply();\n\n        _updateBalance(_defaultFee, account, balance, newBalance, newTotalSupply, _DEFAULT_FEE, _emitDefaultFeeVoteUpdate);\n        _updateBalance(_defaultSlippageFee, account, balance, newBalance, newTotalSupply, _DEFAULT_SLIPPAGE_FEE, _emitDefaultSlippageFeeVoteUpdate);\n        _updateBalance(_defaultDecayPeriod, account, balance, newBalance, newTotalSupply, _DEFAULT_DECAY_PERIOD, _emitDefaultDecayPeriodVoteUpdate);\n        _updateBalance(_referralShare, account, balance, newBalance, newTotalSupply, _DEFAULT_REFERRAL_SHARE, _emitReferralShareVoteUpdate);\n        _updateBalance(_governanceShare, account, balance, newBalance, newTotalSupply, _DEFAULT_GOVERNANCE_SHARE, _emitGovernanceShareVoteUpdate);\n    }\n\n    function _emitDefaultFeeVoteUpdate(address user, uint256 newDefaulFee, uint256 balance) private {\n        emit DefaultFeeVoteUpdate(user, newDefaulFee, balance);\n    }\n\n    function _emitDefaultSlippageFeeVoteUpdate(address user, uint256 newDefaulSlippageFee, uint256 balance) private {\n        emit DefaultSlippageFeeVoteUpdate(user, newDefaulSlippageFee, balance);\n    }\n\n    function _emitDefaultDecayPeriodVoteUpdate(address user, uint256 newDefaultDecayPeriod, uint256 balance) private {\n        emit DefaultDecayPeriodVoteUpdate(user, newDefaultDecayPeriod, balance);\n    }\n\n    function _emitReferralShareVoteUpdate(address user, uint256 newReferralShare, uint256 balance) private {\n        emit ReferralShareVoteUpdate(user, newReferralShare, balance);\n    }\n\n    function _emitGovernanceShareVoteUpdate(address user, uint256 newGovernanceShare, uint256 balance) private {\n        emit GovernanceShareVoteUpdate(user, newGovernanceShare, balance);\n    }\n\n    function _updateVote(\n        LiquidVoting.Data storage data,\n        address account,\n        Vote.Data memory vote,\n        uint256 defaultValue,\n        function(address, uint256, uint256) emitEvent\n    ) private {\n        uint256 newBalance = balanceOf(account);\n\n        data.updateVote(\n            account,\n            data.votes[account],\n            vote,\n            newBalance,\n            totalSupply(),\n            defaultValue\n        );\n\n        emitEvent(account, vote.get(defaultValue), newBalance);\n    }\n\n    function _updateBalance(\n        LiquidVoting.Data storage data,\n        address account,\n        uint256 balance,\n        uint256 newBalance,\n        uint256 newTotalSupply,\n        uint256 defaultValue,\n        function(address, uint256, uint256) emitEvent\n    ) private {\n        Vote.Data memory vote = data.votes[account];\n\n        data.updateBalance(\n            account,\n            vote,\n            balance,\n            newBalance,\n            newTotalSupply,\n            defaultValue\n        );\n\n        emitEvent(account, vote.get(defaultValue), newBalance);\n    }\n}\n",
  "sourcePath": "/Users/k06a/Projects/mooniswap-v2/contracts/governance/MooniswapFactoryGovernance.sol",
  "compiler": {
    "name": "solc",
    "version": "0.6.12+commit.27d51765.Emscripten.clang"
  },
  "schemaVersion": "3.3.2",
  "updatedAt": "2020-11-30T13:22:04.075Z",
  "devdoc": {
    "kind": "dev",
    "methods": {
      "owner()": {
        "details": "Returns the address of the current owner."
      },
      "renounceOwnership()": {
        "details": "Leaves the contract without owner. It will not be possible to call `onlyOwner` functions anymore. Can only be called by the current owner. NOTE: Renouncing ownership will leave the contract without an owner, thereby removing any functionality that is only available to the owner."
      },
      "transferOwnership(address)": {
        "details": "Transfers ownership of the contract to a new account (`newOwner`). Can only be called by the current owner."
      }
    },
    "version": 1
  },
  "userdoc": {
    "kind": "user",
    "methods": {},
    "version": 1
  }
}