{
  "contractName": "Mooniswap",
  "abi": [
    {
      "inputs": [
        {
          "internalType": "contract IERC20",
          "name": "_token0",
          "type": "address"
        },
        {
          "internalType": "contract IERC20",
          "name": "_token1",
          "type": "address"
        },
        {
          "internalType": "string",
          "name": "name",
          "type": "string"
        },
        {
          "internalType": "string",
          "name": "symbol",
          "type": "string"
        },
        {
          "internalType": "contract IMooniswapFactoryGovernance",
          "name": "_mooniswapFactoryGovernance",
          "type": "address"
        }
      ],
      "stateMutability": "nonpayable",
      "type": "constructor"
    },
    {
      "anonymous": false,
      "inputs": [
        {
          "indexed": true,
          "internalType": "address",
          "name": "owner",
          "type": "address"
        },
        {
          "indexed": true,
          "internalType": "address",
          "name": "spender",
          "type": "address"
        },
        {
          "indexed": false,
          "internalType": "uint256",
          "name": "value",
          "type": "uint256"
        }
      ],
      "name": "Approval",
      "type": "event"
    },
    {
      "anonymous": false,
      "inputs": [
        {
          "indexed": true,
          "internalType": "address",
          "name": "user",
          "type": "address"
        },
        {
          "indexed": false,
          "internalType": "uint256",
          "name": "decayPeriod",
          "type": "uint256"
        },
        {
          "indexed": false,
          "internalType": "uint256",
          "name": "amount",
          "type": "uint256"
        }
      ],
      "name": "DecayPeriodVoteUpdate",
      "type": "event"
    },
    {
      "anonymous": false,
      "inputs": [
        {
          "indexed": true,
          "internalType": "address",
          "name": "sender",
          "type": "address"
        },
        {
          "indexed": true,
          "internalType": "address",
          "name": "receiver",
          "type": "address"
        },
        {
          "indexed": false,
          "internalType": "uint256",
          "name": "share",
          "type": "uint256"
        },
        {
          "indexed": false,
          "internalType": "uint256",
          "name": "token0Amount",
          "type": "uint256"
        },
        {
          "indexed": false,
          "internalType": "uint256",
          "name": "token1Amount",
          "type": "uint256"
        }
      ],
      "name": "Deposited",
      "type": "event"
    },
    {
      "anonymous": false,
      "inputs": [
        {
          "indexed": true,
          "internalType": "address",
          "name": "user",
          "type": "address"
        },
        {
          "indexed": false,
          "internalType": "uint256",
          "name": "fee",
          "type": "uint256"
        },
        {
          "indexed": false,
          "internalType": "uint256",
          "name": "amount",
          "type": "uint256"
        }
      ],
      "name": "FeeVoteUpdate",
      "type": "event"
    },
    {
      "anonymous": false,
      "inputs": [
        {
          "indexed": true,
          "internalType": "address",
          "name": "previousOwner",
          "type": "address"
        },
        {
          "indexed": true,
          "internalType": "address",
          "name": "newOwner",
          "type": "address"
        }
      ],
      "name": "OwnershipTransferred",
      "type": "event"
    },
    {
      "anonymous": false,
      "inputs": [
        {
          "indexed": true,
          "internalType": "address",
          "name": "user",
          "type": "address"
        },
        {
          "indexed": false,
          "internalType": "uint256",
          "name": "slippageFee",
          "type": "uint256"
        },
        {
          "indexed": false,
          "internalType": "uint256",
          "name": "amount",
          "type": "uint256"
        }
      ],
      "name": "SlippageFeeVoteUpdate",
      "type": "event"
    },
    {
      "anonymous": false,
      "inputs": [
        {
          "indexed": true,
          "internalType": "address",
          "name": "sender",
          "type": "address"
        },
        {
          "indexed": true,
          "internalType": "address",
          "name": "receiver",
          "type": "address"
        },
        {
          "indexed": true,
          "internalType": "address",
          "name": "srcToken",
          "type": "address"
        },
        {
          "indexed": false,
          "internalType": "address",
          "name": "dstToken",
          "type": "address"
        },
        {
          "indexed": false,
          "internalType": "uint256",
          "name": "amount",
          "type": "uint256"
        },
        {
          "indexed": false,
          "internalType": "uint256",
          "name": "result",
          "type": "uint256"
        },
        {
          "indexed": false,
          "internalType": "uint256",
          "name": "srcAdditionBalance",
          "type": "uint256"
        },
        {
          "indexed": false,
          "internalType": "uint256",
          "name": "dstRemovalBalance",
          "type": "uint256"
        },
        {
          "indexed": false,
          "internalType": "address",
          "name": "referral",
          "type": "address"
        }
      ],
      "name": "Swapped",
      "type": "event"
    },
    {
      "anonymous": false,
      "inputs": [
        {
          "indexed": false,
          "internalType": "uint256",
          "name": "srcBalance",
          "type": "uint256"
        },
        {
          "indexed": false,
          "internalType": "uint256",
          "name": "dstBalance",
          "type": "uint256"
        },
        {
          "indexed": false,
          "internalType": "uint256",
          "name": "fee",
          "type": "uint256"
        },
        {
          "indexed": false,
          "internalType": "uint256",
          "name": "slippageFee",
          "type": "uint256"
        }
      ],
      "name": "Sync",
      "type": "event"
    },
    {
      "anonymous": false,
      "inputs": [
        {
          "indexed": true,
          "internalType": "address",
          "name": "from",
          "type": "address"
        },
        {
          "indexed": true,
          "internalType": "address",
          "name": "to",
          "type": "address"
        },
        {
          "indexed": false,
          "internalType": "uint256",
          "name": "value",
          "type": "uint256"
        }
      ],
      "name": "Transfer",
      "type": "event"
    },
    {
      "anonymous": false,
      "inputs": [
        {
          "indexed": true,
          "internalType": "address",
          "name": "sender",
          "type": "address"
        },
        {
          "indexed": true,
          "internalType": "address",
          "name": "receiver",
          "type": "address"
        },
        {
          "indexed": false,
          "internalType": "uint256",
          "name": "share",
          "type": "uint256"
        },
        {
          "indexed": false,
          "internalType": "uint256",
          "name": "token0Amount",
          "type": "uint256"
        },
        {
          "indexed": false,
          "internalType": "uint256",
          "name": "token1Amount",
          "type": "uint256"
        }
      ],
      "name": "Withdrawn",
      "type": "event"
    },
    {
      "inputs": [
        {
          "internalType": "address",
          "name": "owner",
          "type": "address"
        },
        {
          "internalType": "address",
          "name": "spender",
          "type": "address"
        }
      ],
      "name": "allowance",
      "outputs": [
        {
          "internalType": "uint256",
          "name": "",
          "type": "uint256"
        }
      ],
      "stateMutability": "view",
      "type": "function"
    },
    {
      "inputs": [
        {
          "internalType": "address",
          "name": "spender",
          "type": "address"
        },
        {
          "internalType": "uint256",
          "name": "amount",
          "type": "uint256"
        }
      ],
      "name": "approve",
      "outputs": [
        {
          "internalType": "bool",
          "name": "",
          "type": "bool"
        }
      ],
      "stateMutability": "nonpayable",
      "type": "function"
    },
    {
      "inputs": [
        {
          "internalType": "address",
          "name": "account",
          "type": "address"
        }
      ],
      "name": "balanceOf",
      "outputs": [
        {
          "internalType": "uint256",
          "name": "",
          "type": "uint256"
        }
      ],
      "stateMutability": "view",
      "type": "function"
    },
    {
      "inputs": [],
      "name": "decayPeriod",
      "outputs": [
        {
          "internalType": "uint256",
          "name": "",
          "type": "uint256"
        }
      ],
      "stateMutability": "view",
      "type": "function"
    },
    {
      "inputs": [
        {
          "internalType": "uint256",
          "name": "vote",
          "type": "uint256"
        }
      ],
      "name": "decayPeriodVote",
      "outputs": [],
      "stateMutability": "nonpayable",
      "type": "function"
    },
    {
      "inputs": [
        {
          "internalType": "address",
          "name": "user",
          "type": "address"
        }
      ],
      "name": "decayPeriodVotes",
      "outputs": [
        {
          "internalType": "uint256",
          "name": "",
          "type": "uint256"
        }
      ],
      "stateMutability": "view",
      "type": "function"
    },
    {
      "inputs": [],
      "name": "decimals",
      "outputs": [
        {
          "internalType": "uint8",
          "name": "",
          "type": "uint8"
        }
      ],
      "stateMutability": "view",
      "type": "function"
    },
    {
      "inputs": [
        {
          "internalType": "address",
          "name": "spender",
          "type": "address"
        },
        {
          "internalType": "uint256",
          "name": "subtractedValue",
          "type": "uint256"
        }
      ],
      "name": "decreaseAllowance",
      "outputs": [
        {
          "internalType": "bool",
          "name": "",
          "type": "bool"
        }
      ],
      "stateMutability": "nonpayable",
      "type": "function"
    },
    {
      "inputs": [],
      "name": "discardDecayPeriodVote",
      "outputs": [],
      "stateMutability": "nonpayable",
      "type": "function"
    },
    {
      "inputs": [],
      "name": "discardFeeVote",
      "outputs": [],
      "stateMutability": "nonpayable",
      "type": "function"
    },
    {
      "inputs": [],
      "name": "discardSlippageFeeVote",
      "outputs": [],
      "stateMutability": "nonpayable",
      "type": "function"
    },
    {
      "inputs": [],
      "name": "fee",
      "outputs": [
        {
          "internalType": "uint256",
          "name": "",
          "type": "uint256"
        }
      ],
      "stateMutability": "view",
      "type": "function"
    },
    {
      "inputs": [
        {
          "internalType": "uint256",
          "name": "vote",
          "type": "uint256"
        }
      ],
      "name": "feeVote",
      "outputs": [],
      "stateMutability": "nonpayable",
      "type": "function"
    },
    {
      "inputs": [
        {
          "internalType": "address",
          "name": "user",
          "type": "address"
        }
      ],
      "name": "feeVotes",
      "outputs": [
        {
          "internalType": "uint256",
          "name": "",
          "type": "uint256"
        }
      ],
      "stateMutability": "view",
      "type": "function"
    },
    {
      "inputs": [
        {
          "internalType": "address",
          "name": "spender",
          "type": "address"
        },
        {
          "internalType": "uint256",
          "name": "addedValue",
          "type": "uint256"
        }
      ],
      "name": "increaseAllowance",
      "outputs": [
        {
          "internalType": "bool",
          "name": "",
          "type": "bool"
        }
      ],
      "stateMutability": "nonpayable",
      "type": "function"
    },
    {
      "inputs": [],
      "name": "mooniswapFactoryGovernance",
      "outputs": [
        {
          "internalType": "contract IMooniswapFactoryGovernance",
          "name": "",
          "type": "address"
        }
      ],
      "stateMutability": "view",
      "type": "function"
    },
    {
      "inputs": [],
      "name": "name",
      "outputs": [
        {
          "internalType": "string",
          "name": "",
          "type": "string"
        }
      ],
      "stateMutability": "view",
      "type": "function"
    },
    {
      "inputs": [],
      "name": "owner",
      "outputs": [
        {
          "internalType": "address",
          "name": "",
          "type": "address"
        }
      ],
      "stateMutability": "view",
      "type": "function"
    },
    {
      "inputs": [],
      "name": "renounceOwnership",
      "outputs": [],
      "stateMutability": "nonpayable",
      "type": "function"
    },
    {
      "inputs": [],
      "name": "slippageFee",
      "outputs": [
        {
          "internalType": "uint256",
          "name": "",
          "type": "uint256"
        }
      ],
      "stateMutability": "view",
      "type": "function"
    },
    {
      "inputs": [
        {
          "internalType": "uint256",
          "name": "vote",
          "type": "uint256"
        }
      ],
      "name": "slippageFeeVote",
      "outputs": [],
      "stateMutability": "nonpayable",
      "type": "function"
    },
    {
      "inputs": [],
      "name": "symbol",
      "outputs": [
        {
          "internalType": "string",
          "name": "",
          "type": "string"
        }
      ],
      "stateMutability": "view",
      "type": "function"
    },
    {
      "inputs": [],
      "name": "token0",
      "outputs": [
        {
          "internalType": "contract IERC20",
          "name": "",
          "type": "address"
        }
      ],
      "stateMutability": "view",
      "type": "function"
    },
    {
      "inputs": [],
      "name": "token1",
      "outputs": [
        {
          "internalType": "contract IERC20",
          "name": "",
          "type": "address"
        }
      ],
      "stateMutability": "view",
      "type": "function"
    },
    {
      "inputs": [],
      "name": "totalSupply",
      "outputs": [
        {
          "internalType": "uint256",
          "name": "",
          "type": "uint256"
        }
      ],
      "stateMutability": "view",
      "type": "function"
    },
    {
      "inputs": [
        {
          "internalType": "address",
          "name": "recipient",
          "type": "address"
        },
        {
          "internalType": "uint256",
          "name": "amount",
          "type": "uint256"
        }
      ],
      "name": "transfer",
      "outputs": [
        {
          "internalType": "bool",
          "name": "",
          "type": "bool"
        }
      ],
      "stateMutability": "nonpayable",
      "type": "function"
    },
    {
      "inputs": [
        {
          "internalType": "address",
          "name": "sender",
          "type": "address"
        },
        {
          "internalType": "address",
          "name": "recipient",
          "type": "address"
        },
        {
          "internalType": "uint256",
          "name": "amount",
          "type": "uint256"
        }
      ],
      "name": "transferFrom",
      "outputs": [
        {
          "internalType": "bool",
          "name": "",
          "type": "bool"
        }
      ],
      "stateMutability": "nonpayable",
      "type": "function"
    },
    {
      "inputs": [
        {
          "internalType": "address",
          "name": "newOwner",
          "type": "address"
        }
      ],
      "name": "transferOwnership",
      "outputs": [],
      "stateMutability": "nonpayable",
      "type": "function"
    },
    {
      "inputs": [
        {
          "internalType": "contract IERC20",
          "name": "",
          "type": "address"
        }
      ],
      "name": "virtualBalancesForAddition",
      "outputs": [
        {
          "internalType": "uint216",
          "name": "balance",
          "type": "uint216"
        },
        {
          "internalType": "uint40",
          "name": "time",
          "type": "uint40"
        }
      ],
      "stateMutability": "view",
      "type": "function"
    },
    {
      "inputs": [
        {
          "internalType": "contract IERC20",
          "name": "",
          "type": "address"
        }
      ],
      "name": "virtualBalancesForRemoval",
      "outputs": [
        {
          "internalType": "uint216",
          "name": "balance",
          "type": "uint216"
        },
        {
          "internalType": "uint40",
          "name": "time",
          "type": "uint40"
        }
      ],
      "stateMutability": "view",
      "type": "function"
    },
    {
      "inputs": [
        {
          "internalType": "contract IERC20",
          "name": "",
          "type": "address"
        }
      ],
      "name": "volumes",
      "outputs": [
        {
          "internalType": "uint128",
          "name": "confirmed",
          "type": "uint128"
        },
        {
          "internalType": "uint128",
          "name": "result",
          "type": "uint128"
        }
      ],
      "stateMutability": "view",
      "type": "function"
    },
    {
      "inputs": [],
      "name": "getTokens",
      "outputs": [
        {
          "internalType": "contract IERC20[]",
          "name": "tokens",
          "type": "address[]"
        }
      ],
      "stateMutability": "view",
      "type": "function"
    },
    {
      "inputs": [
        {
          "internalType": "uint256",
          "name": "i",
          "type": "uint256"
        }
      ],
      "name": "tokens",
      "outputs": [
        {
          "internalType": "contract IERC20",
          "name": "",
          "type": "address"
        }
      ],
      "stateMutability": "view",
      "type": "function"
    },
    {
      "inputs": [
        {
          "internalType": "contract IERC20",
          "name": "token",
          "type": "address"
        }
      ],
      "name": "getBalanceForAddition",
      "outputs": [
        {
          "internalType": "uint256",
          "name": "",
          "type": "uint256"
        }
      ],
      "stateMutability": "view",
      "type": "function"
    },
    {
      "inputs": [
        {
          "internalType": "contract IERC20",
          "name": "token",
          "type": "address"
        }
      ],
      "name": "getBalanceForRemoval",
      "outputs": [
        {
          "internalType": "uint256",
          "name": "",
          "type": "uint256"
        }
      ],
      "stateMutability": "view",
      "type": "function"
    },
    {
      "inputs": [
        {
          "internalType": "contract IERC20",
          "name": "src",
          "type": "address"
        },
        {
          "internalType": "contract IERC20",
          "name": "dst",
          "type": "address"
        },
        {
          "internalType": "uint256",
          "name": "amount",
          "type": "uint256"
        }
      ],
      "name": "getReturn",
      "outputs": [
        {
          "internalType": "uint256",
          "name": "",
          "type": "uint256"
        }
      ],
      "stateMutability": "view",
      "type": "function"
    },
    {
      "inputs": [
        {
          "internalType": "uint256[2]",
          "name": "maxAmounts",
          "type": "uint256[2]"
        },
        {
          "internalType": "uint256[2]",
          "name": "minAmounts",
          "type": "uint256[2]"
        }
      ],
      "name": "deposit",
      "outputs": [
        {
          "internalType": "uint256",
          "name": "fairSupply",
          "type": "uint256"
        }
      ],
      "stateMutability": "payable",
      "type": "function"
    },
    {
      "inputs": [
        {
          "internalType": "uint256[2]",
          "name": "maxAmounts",
          "type": "uint256[2]"
        },
        {
          "internalType": "uint256[2]",
          "name": "minAmounts",
          "type": "uint256[2]"
        },
        {
          "internalType": "address",
          "name": "target",
          "type": "address"
        }
      ],
      "name": "depositFor",
      "outputs": [
        {
          "internalType": "uint256",
          "name": "fairSupply",
          "type": "uint256"
        }
      ],
      "stateMutability": "payable",
      "type": "function"
    },
    {
      "inputs": [
        {
          "internalType": "uint256",
          "name": "amount",
          "type": "uint256"
        },
        {
          "internalType": "uint256[]",
          "name": "minReturns",
          "type": "uint256[]"
        }
      ],
      "name": "withdraw",
      "outputs": [],
      "stateMutability": "nonpayable",
      "type": "function"
    },
    {
      "inputs": [
        {
          "internalType": "uint256",
          "name": "amount",
          "type": "uint256"
        },
        {
          "internalType": "uint256[]",
          "name": "minReturns",
          "type": "uint256[]"
        },
        {
          "internalType": "address payable",
          "name": "target",
          "type": "address"
        }
      ],
      "name": "withdrawFor",
      "outputs": [],
      "stateMutability": "nonpayable",
      "type": "function"
    },
    {
      "inputs": [
        {
          "internalType": "contract IERC20",
          "name": "src",
          "type": "address"
        },
        {
          "internalType": "contract IERC20",
          "name": "dst",
          "type": "address"
        },
        {
          "internalType": "uint256",
          "name": "amount",
          "type": "uint256"
        },
        {
          "internalType": "uint256",
          "name": "minReturn",
          "type": "uint256"
        },
        {
          "internalType": "address",
          "name": "referral",
          "type": "address"
        }
      ],
      "name": "swap",
      "outputs": [
        {
          "internalType": "uint256",
          "name": "result",
          "type": "uint256"
        }
      ],
      "stateMutability": "payable",
      "type": "function"
    },
    {
      "inputs": [
        {
          "internalType": "contract IERC20",
          "name": "src",
          "type": "address"
        },
        {
          "internalType": "contract IERC20",
          "name": "dst",
          "type": "address"
        },
        {
          "internalType": "uint256",
          "name": "amount",
          "type": "uint256"
        },
        {
          "internalType": "uint256",
          "name": "minReturn",
          "type": "uint256"
        },
        {
          "internalType": "address",
          "name": "referral",
          "type": "address"
        },
        {
          "internalType": "address payable",
          "name": "receiver",
          "type": "address"
        }
      ],
      "name": "swapFor",
      "outputs": [
        {
          "internalType": "uint256",
          "name": "result",
          "type": "uint256"
        }
      ],
      "stateMutability": "payable",
      "type": "function"
    },
    {
      "inputs": [
        {
          "internalType": "contract IERC20",
          "name": "token",
          "type": "address"
        },
        {
          "internalType": "uint256",
          "name": "amount",
          "type": "uint256"
        }
      ],
      "name": "rescueFunds",
      "outputs": [],
      "stateMutability": "nonpayable",
      "type": "function"
    }
  ],
  "bytecode": "0x60e06040523480156200001157600080fd5b506040516200552f3803806200552f833981810160405260a08110156200003757600080fd5b815160208301516040808501805191519395929483019291846401000000008211156200006357600080fd5b9083019060208201858111156200007957600080fd5b82516401000000008111828201881017156200009457600080fd5b82525081516020918201929091019080838360005b83811015620000c3578181015183820152602001620000a9565b50505050905090810190601f168015620000f15780820380516001836020036101000a031916815260200191505b50604052602001805160405193929190846401000000008211156200011557600080fd5b9083019060208201858111156200012b57600080fd5b82516401000000008111828201881017156200014657600080fd5b82525081516020918201929091019080838360005b83811015620001755781810151838201526020016200015b565b50505050905090810190601f168015620001a35780820380516001836020036101000a031916815260200191505b50604052602090810151855190935083925085918591620001cb91600391908501906200056a565b508051620001e19060049060208401906200056a565b50506005805460ff191660121790555060016006556001600160601b0319606082901b16608052604080516305a6c72d60e41b815290516001600160a01b03831691635a6c72d0916004808301926020929190829003018186803b1580156200024957600080fd5b505afa1580156200025e573d6000803e3d6000fd5b505050506040513d60208110156200027557600080fd5b5051600780546001600160681b03909216600160681b02600160681b600160d01b0319909216919091179055604080516323662bb960e01b815290516001600160a01b038316916323662bb9916004808301926020929190829003018186803b158015620002e257600080fd5b505afa158015620002f7573d6000803e3d6000fd5b505050506040513d60208110156200030e57600080fd5b5051600a80546001600160681b03909216600160681b02600160681b600160d01b031990921691909117905560408051631845f0db60e01b815290516001600160a01b03831691631845f0db916004808301926020929190829003018186803b1580156200037b57600080fd5b505afa15801562000390573d6000803e3d6000fd5b505050506040513d6020811015620003a757600080fd5b5051600d80546001600160681b03909216600160681b02600160681b600160d01b0319909216919091179055506000620003e062000566565b601080546001600160a01b0319166001600160a01b038316908117909155604051919250906000907f8be0079c531659141344cd1fd0a4f28419497f9722a3daafe3b4186f6b6457e0908290a350600083511162000485576040805162461bcd60e51b815260206004820152601860248201527f4d6f6f6e69737761703a206e616d6520697320656d7074790000000000000000604482015290519081900360640190fd5b6000825111620004dc576040805162461bcd60e51b815260206004820152601a60248201527f4d6f6f6e69737761703a2073796d626f6c20697320656d707479000000000000604482015290519081900360640190fd5b836001600160a01b0316856001600160a01b0316141562000544576040805162461bcd60e51b815260206004820152601b60248201527f4d6f6f6e69737761703a206475706c696361746520746f6b656e730000000000604482015290519081900360640190fd5b5050506001600160601b0319606092831b811660a052911b1660c05262000606565b3390565b828054600181600116156101000203166002900490600052602060002090601f016020900481019282601f10620005ad57805160ff1916838001178555620005dd565b82800160010185558215620005dd579182015b82811115620005dd578251825591602001919060010190620005c0565b50620005eb929150620005ef565b5090565b5b80821115620005eb5760008155600101620005f0565b60805160601c60a05160601c60c05160601c614e80620006af60003980611380528061163052806119e95280611aba5280611e0b528061254152806125ce52806130dc525080610f8a528061135b528061160052806119b25280611a335280611de652806124f3528061309f525080610ed552806110b65280611bcd5280611d4052806126ae5280612c4b5280613df7528061419352806141d0528061420d5250614e806000f3fe6080604052600436106102dc5760003560e01c806378e3214f11610184578063d21220a7116100d6578063ddca3f431161008a578063eaadf84811610064578063eaadf84814610ca5578063f2fde38b14610ccf578063f76d13b414610d02576102dc565b8063ddca3f4314610c13578063e331d03914610c28578063e7ff42c914610c72576102dc565b8063d7d3aab5116100bb578063d7d3aab514610b90578063d9a0c21714610bc3578063dd62ed3e14610bd8576102dc565b8063d21220a714610b37578063d5bcb9b514610b4c576102dc565b80639aad141b11610138578063a9059cbb11610112578063a9059cbb14610a25578063aa6ca80814610a5e578063b1ec4c4014610ac3576102dc565b80639aad141b1461093c5780639ea5ce0a1461096f578063a457c2d7146109ec576102dc565b80638da5cb5b116101695780638da5cb5b146108fd57806393028d831461091257806395d89b4114610927576102dc565b806378e3214f146108915780637e82a6f3146108ca576102dc565b80633732b3941161023d5780635915d806116101f15780636edc2c09116101cb5780636edc2c091461081657806370a0823114610849578063715018a61461087c576102dc565b80635915d806146106da5780635ed9156d146107915780636669302a14610801576102dc565b80633c6216a6116102225780633c6216a6146105d957806348d67e1b1461069b5780634f64b2be146106b0576102dc565b80633732b3941461058b57806339509351146105a0576102dc565b806318160ddd1161029457806323b872dd1161027957806323b872dd146104a95780633049105d146104ec578063313ce56714610560576102dc565b806318160ddd1461043f5780631e1401f814610466576102dc565b8063095ea7b3116102c5578063095ea7b3146103975780630dfe1681146103e457806311212d6614610415576102dc565b806306fdde03146102e157806307a800701461036b575b600080fd5b3480156102ed57600080fd5b506102f6610d17565b6040805160208082528351818301528351919283929083019185019080838360005b83811015610330578181015183820152602001610318565b50505050905090810190601f16801561035d5780820380516001836020036101000a031916815260200191505b509250505060405180910390f35b34801561037757600080fd5b506103956004803603602081101561038e57600080fd5b5035610dcb565b005b3480156103a357600080fd5b506103d0600480360360408110156103ba57600080fd5b506001600160a01b038135169060200135610f6a565b604080519115158252519081900360200190f35b3480156103f057600080fd5b506103f9610f88565b604080516001600160a01b039092168252519081900360200190f35b34801561042157600080fd5b506103956004803603602081101561043857600080fd5b5035610fac565b34801561044b57600080fd5b50610454611142565b60408051918252519081900360200190f35b34801561047257600080fd5b506104546004803603606081101561048957600080fd5b506001600160a01b03813581169160208101359091169060400135611148565b3480156104b557600080fd5b506103d0600480360360608110156104cc57600080fd5b506001600160a01b03813581169160208101359091169060400135611181565b6104546004803603608081101561050257600080fd5b6040805180820182529183019291818301918390600290839083908082843760009201919091525050604080518082018252929594938181019392509060029083908390808284376000920191909152509194506112089350505050565b34801561056c57600080fd5b50610575611215565b6040805160ff9092168252519081900360200190f35b34801561059757600080fd5b5061045461121e565b3480156105ac57600080fd5b506103d0600480360360408110156105c357600080fd5b506001600160a01b038135169060200135611293565b3480156105e557600080fd5b50610395600480360360608110156105fc57600080fd5b8135919081019060408101602082013564010000000081111561061e57600080fd5b82018360208201111561063057600080fd5b8035906020019184602083028401116401000000008311171561065257600080fd5b919080806020026020016040519081016040528093929190818152602001838360200280828437600092019190915250929550505090356001600160a01b031691506112e19050565b3480156106a757600080fd5b50610454611586565b3480156106bc57600080fd5b506103f9600480360360208110156106d357600080fd5b50356115f6565b3480156106e657600080fd5b50610395600480360360408110156106fd57600080fd5b8135919081019060408101602082013564010000000081111561071f57600080fd5b82018360208201111561073157600080fd5b8035906020019184602083028401116401000000008311171561075357600080fd5b9190808060200260200160405190810160405280939291908181526020018383602002808284376000920191909152509295506116a6945050505050565b34801561079d57600080fd5b506107c4600480360360208110156107b457600080fd5b50356001600160a01b03166116b5565b604080517affffffffffffffffffffffffffffffffffffffffffffffffffffff909316835264ffffffffff90911660208301528051918290030190f35b34801561080d57600080fd5b5061039561170c565b34801561082257600080fd5b506107c46004803603602081101561083957600080fd5b50356001600160a01b031661179e565b34801561085557600080fd5b506104546004803603602081101561086c57600080fd5b50356001600160a01b03166117f5565b34801561088857600080fd5b50610395611810565b34801561089d57600080fd5b50610395600480360360408110156108b457600080fd5b506001600160a01b0381351690602001356118dc565b3480156108d657600080fd5b50610454600480360360208110156108ed57600080fd5b50356001600160a01b0316611b9d565b34801561090957600080fd5b506103f9611bf7565b34801561091e57600080fd5b50610395611c06565b34801561093357600080fd5b506102f6611c91565b34801561094857600080fd5b506104546004803603602081101561095f57600080fd5b50356001600160a01b0316611d10565b610454600480360360a081101561098557600080fd5b6040805180820182529183019291818301918390600290839083908082843760009201919091525050604080518082018252929594938181019392509060029083908390808284376000920191909152509194505050356001600160a01b03169050611d6a565b3480156109f857600080fd5b506103d060048036036040811015610a0f57600080fd5b506001600160a01b038135169060200135612455565b348015610a3157600080fd5b506103d060048036036040811015610a4857600080fd5b506001600160a01b0381351690602001356124bd565b348015610a6a57600080fd5b50610a736124d1565b60408051602080825283518183015283519192839290830191858101910280838360005b83811015610aaf578181015183820152602001610a97565b505050509050019250505060405180910390f35b348015610acf57600080fd5b50610af660048036036020811015610ae657600080fd5b50356001600160a01b0316612590565b60405180836fffffffffffffffffffffffffffffffff168152602001826fffffffffffffffffffffffffffffffff1681526020019250505060405180910390f35b348015610b4357600080fd5b506103f96125cc565b610454600480360360a0811015610b6257600080fd5b506001600160a01b0381358116916020810135821691604082013591606081013591608090910135166125f0565b348015610b9c57600080fd5b5061045460048036036020811015610bb357600080fd5b50356001600160a01b031661260a565b348015610bcf57600080fd5b506103f96126ac565b348015610be457600080fd5b5061045460048036036040811015610bfb57600080fd5b506001600160a01b03813581169160200135166126d0565b348015610c1f57600080fd5b506104546126fb565b610454600480360360c0811015610c3e57600080fd5b506001600160a01b0381358116916020810135821691604082013591606081013591608082013581169160a001351661276b565b348015610c7e57600080fd5b5061045460048036036020811015610c9557600080fd5b50356001600160a01b0316612a4f565b348015610cb157600080fd5b5061039560048036036020811015610cc857600080fd5b5035612af1565b348015610cdb57600080fd5b5061039560048036036020811015610cf257600080fd5b50356001600160a01b0316612cd7565b348015610d0e57600080fd5b50610395612dfa565b60038054604080516020601f60027fffffffffffffffffffffffffffffffffffffffffffffffffffffffffffffffff610100600188161502019095169490940493840181900481028201810190925282815260609390929091830182828015610dc15780601f10610d9657610100808354040283529160200191610dc1565b820191906000526020600020905b815481529060010190602001808311610da457829003601f168201915b5050505050905090565b60026006541415610e23576040805162461bcd60e51b815260206004820152601f60248201527f5265656e7472616e637947756172643a207265656e7472616e742063616c6c00604482015290519081900360640190fd5b6002600655670de0b6b3a7640000811115610e85576040805162461bcd60e51b815260206004820152601d60248201527f536c6970706167652066656520766f746520697320746f6f2068696768000000604482015290519081900360640190fd5b610e8d614be2565b50336000818152600c602090815260409182902082519182019092529054815290610f6190600a9083610ebf86612e85565b610ec886612ea4565b610ed3576000610f59565b7f00000000000000000000000000000000000000000000000000000000000000006001600160a01b03166323662bb96040518163ffffffff1660e01b815260040160206040518083038186803b158015610f2c57600080fd5b505afa158015610f40573d6000803e3d6000fd5b505050506040513d6020811015610f5657600080fd5b50515b612ea9612ef1565b50506001600655565b6000610f7e610f77612f3a565b8484612f3e565b5060015b92915050565b7f000000000000000000000000000000000000000000000000000000000000000081565b60026006541415611004576040805162461bcd60e51b815260206004820152601f60248201527f5265656e7472616e637947756172643a207265656e7472616e742063616c6c00604482015290519081900360640190fd5b600260065567016345785d8a0000811115611066576040805162461bcd60e51b815260206004820152601460248201527f46656520766f746520697320746f6f2068696768000000000000000000000000604482015290519081900360640190fd5b61106e614be2565b503360008181526009602090815260409182902082519182019092529054815290610f6190600790836110a086612e85565b6110a986612ea4565b6110b457600061113a565b7f00000000000000000000000000000000000000000000000000000000000000006001600160a01b0316635a6c72d06040518163ffffffff1660e01b815260040160206040518083038186803b15801561110d57600080fd5b505afa158015611121573d6000803e3d6000fd5b505050506040513d602081101561113757600080fd5b50515b61302a612ef1565b60025490565b60006111778484846111598861260a565b61116288612a4f565b61116a6126fb565b61117261121e565b613072565b90505b9392505050565b600061118e8484846131b3565b6111fe8461119a612f3a565b6111f985604051806060016040528060288152602001614d6a602891396001600160a01b038a166000908152600160205260408120906111d8612f3a565b6001600160a01b03168152602081019190915260400160002054919061330e565b612f3e565b5060019392505050565b600061117a838333611d6a565b60055460ff1690565b60408051606081018252600a546cffffffffffffffffffffffffff80821683526d010000000000000000000000000082041660208301527a010000000000000000000000000000000000000000000000000000900465ffffffffffff169181019190915260009061128e906133a5565b905090565b6000610f7e6112a0612f3a565b846111f985600160006112b1612f3a565b6001600160a01b03908116825260208083019390935260409182016000908120918c168152925290205490613434565b60026006541415611339576040805162461bcd60e51b815260206004820152601f60248201527f5265656e7472616e637947756172643a207265656e7472616e742063616c6c00604482015290519081900360640190fd5b6002600655611346614bf5565b50604080518082019091526001600160a01b037f0000000000000000000000000000000000000000000000000000000000000000811682527f000000000000000000000000000000000000000000000000000000000000000016602082015260006113af611142565b905060006113bb611586565b90506113c7338761348e565b6113cf614bf5565b60005b60028110156115245760008582600281106113e957fe5b6020020151905060006114056001600160a01b0383163061358a565b9050600061141d87611417848e61362b565b90613684565b90506114336001600160a01b0384168a836136c6565b8085856002811061144057fe5b6020020152895184101580611468575089848151811061145c57fe5b60200260200101518110155b6114b9576040805162461bcd60e51b815260206004820152601f60248201527f4d6f6f6e69737761703a20726573756c74206973206e6f7420656e6f75676800604482015290519081900360640190fd5b6114e986836114c88a8f61372f565b6001600160a01b03871660009081526012602052604090209291908b613771565b61151986836114f88a8f61372f565b6001600160a01b03871660009081526013602052604090209291908b613771565b5050506001016113d2565b508051602080830151604080518b8152928301939093528183015290516001600160a01b0387169133917f3cae9923fd3c2f468aa25a8ef687923e37f957459557c0380fd06526c0b8cdbc9181900360600190a3505060016006555050505050565b60408051606081018252600d546cffffffffffffffffffffffffff80821683526d010000000000000000000000000082041660208301527a010000000000000000000000000000000000000000000000000000900465ffffffffffff169181019190915260009061128e906133a5565b60008161162457507f00000000000000000000000000000000000000000000000000000000000000006116a1565b816001141561165457507f00000000000000000000000000000000000000000000000000000000000000006116a1565b6040805162461bcd60e51b815260206004820152601360248201527f506f6f6c206861732074776f20746f6b656e7300000000000000000000000000604482015290519081900360640190fd5b919050565b6116b18282336112e1565b5050565b6013602052600090815260409020547affffffffffffffffffffffffffffffffffffffffffffffffffffff8116907b01000000000000000000000000000000000000000000000000000000900464ffffffffff1682565b60026006541415611764576040805162461bcd60e51b815260206004820152601f60248201527f5265656e7472616e637947756172643a207265656e7472616e742063616c6c00604482015290519081900360640190fd5b6002600655336000818152600c602090815260409182902082519182019092529054815261179791600a91610ed3613801565b6001600655565b6012602052600090815260409020547affffffffffffffffffffffffffffffffffffffffffffffffffffff8116907b01000000000000000000000000000000000000000000000000000000900464ffffffffff1682565b6001600160a01b031660009081526020819052604090205490565b611818612f3a565b6010546001600160a01b0390811691161461187a576040805162461bcd60e51b815260206004820181905260248201527f4f776e61626c653a2063616c6c6572206973206e6f7420746865206f776e6572604482015290519081900360640190fd5b6010546040516000916001600160a01b0316907f8be0079c531659141344cd1fd0a4f28419497f9722a3daafe3b4186f6b6457e0908390a3601080547fffffffffffffffffffffffff0000000000000000000000000000000000000000169055565b60026006541415611934576040805162461bcd60e51b815260206004820152601f60248201527f5265656e7472616e637947756172643a207265656e7472616e742063616c6c00604482015290519081900360640190fd5b6002600655611941612f3a565b6010546001600160a01b039081169116146119a3576040805162461bcd60e51b815260206004820181905260248201527f4f776e61626c653a2063616c6c6572206973206e6f7420746865206f776e6572604482015290519081900360640190fd5b60006119d86001600160a01b037f0000000000000000000000000000000000000000000000000000000000000000163061358a565b90506000611a0f6001600160a01b037f0000000000000000000000000000000000000000000000000000000000000000163061358a565b9050611a256001600160a01b03851633856136c6565b81611a596001600160a01b037f0000000000000000000000000000000000000000000000000000000000000000163061358a565b1015611aac576040805162461bcd60e51b815260206004820152601860248201527f4d6f6f6e69737761703a206163636573732064656e6965640000000000000000604482015290519081900360640190fd5b80611ae06001600160a01b037f0000000000000000000000000000000000000000000000000000000000000000163061358a565b1015611b33576040805162461bcd60e51b815260206004820152601860248201527f4d6f6f6e69737761703a206163636573732064656e6965640000000000000000604482015290519081900360640190fd5b6103e8611b3f306117f5565b1015611b92576040805162461bcd60e51b815260206004820152601860248201527f4d6f6f6e69737761703a206163636573732064656e6965640000000000000000604482015290519081900360640190fd5b505060016006555050565b6001600160a01b038181166000908152600f6020908152604080832081519283019091525481529091610f8291907f000000000000000000000000000000000000000000000000000000000000000016631845f0db61381c565b6010546001600160a01b031690565b60026006541415611c5e576040805162461bcd60e51b815260206004820152601f60248201527f5265656e7472616e637947756172643a207265656e7472616e742063616c6c00604482015290519081900360640190fd5b600260065533600081815260096020908152604091829020825191820190925290548152611797916007916110b4613801565b60048054604080516020601f60027fffffffffffffffffffffffffffffffffffffffffffffffffffffffffffffffff610100600188161502019095169490940493840181900481028201810190925282815260609390929091830182828015610dc15780601f10610d9657610100808354040283529160200191610dc1565b6001600160a01b03818116600090815260096020908152604080832081519283019091525481529091610f8291907f000000000000000000000000000000000000000000000000000000000000000016635a6c72d061381c565b600060026006541415611dc4576040805162461bcd60e51b815260206004820152601f60248201527f5265656e7472616e637947756172643a207265656e7472616e742063616c6c00604482015290519081900360640190fd5b6002600655611dd1614bf5565b50604080518082019091526001600160a01b037f0000000000000000000000000000000000000000000000000000000000000000811682527f0000000000000000000000000000000000000000000000000000000000000000166020820152611e4a8160005b60200201516001600160a01b03166138b0565b611e6f57611e59816001611e37565b611e64576000611e6a565b60208501515b611e72565b84515b3414611ec5576040805162461bcd60e51b815260206004820152601c60248201527f4d6f6f6e69737761703a2077726f6e672076616c756520757361676500000000604482015290519081900360640190fd5b6000611ecf611142565b9050611ed9614bf5565b8161206357611eeb6103e8606361362b565b9350611ef9306103e86138bd565b60005b600281101561205d57611f1f85898360028110611f1557fe5b60200201516139ad565b94506000888260028110611f2f57fe5b602002015111611f86576040805162461bcd60e51b815260206004820152601960248201527f4d6f6f6e69737761703a20616d6f756e74206973207a65726f00000000000000604482015290519081900360640190fd5b868160028110611f9257fe5b6020020151888260028110611fa357fe5b60200201511015611ffb576040805162461bcd60e51b815260206004820181905260248201527f4d6f6f6e69737761703a206d696e416d6f756e74206e6f742072656163686564604482015290519081900360640190fd5b61203333308a846002811061200c57fe5b602002015187856002811061201d57fe5b60200201516001600160a01b03169291906139c4565b87816002811061203f57fe5b602002015182826002811061205057fe5b6020020152600101611efc565b50612394565b61206b614bf5565b60005b60028110156120d9576120c0612089868360028110611e3757fe5b612094576000612096565b345b6120ba308885600281106120a657fe5b60200201516001600160a01b03169061358a565b9061372f565b8282600281106120cc57fe5b602002015260010161206e565b507fffffffffffffffffffffffffffffffffffffffffffffffffffffffffffffffff945060005b600281101561214b576121418661213c84846002811061211c57fe5b60200201516114178d866002811061213057fe5b6020020151899061362b565b613a96565b9550600101612100565b508460005b60028110156122d85760008a826002811061216757fe5b6020020151116121be576040805162461bcd60e51b815260206004820152601960248201527f4d6f6f6e69737761703a20616d6f756e74206973207a65726f00000000000000604482015290519081900360640190fd5b60006121ec86611417600189036121e6878988600281106121db57fe5b60200201519061362b565b90613434565b90508982600281106121fa57fe5b6020020151811015612253576040805162461bcd60e51b815260206004820181905260248201527f4d6f6f6e69737761703a206d696e416d6f756e74206e6f742072656163686564604482015290519081900360640190fd5b6122653330838a866002811061201d57fe5b61228984836002811061227457fe5b60200201516120ba308a86600281106120a657fe5b85836002811061229557fe5b60200201526122cd8861213c8685600281106122ad57fe5b60200201516114178987600281106122c157fe5b60200201518b9061362b565b975050600101612150565b5060006122e3611586565b905060005b600281101561238f576123578285836002811061230157fe5b6020020151612310898c613434565b89601360008d886002811061232157fe5b60200201516001600160a01b03166001600160a01b0316815260200190815260200160002061377190949392919063ffffffff16565b6123878285836002811061236757fe5b6020020151612376898c613434565b89601260008d886002811061232157fe5b6001016122e8565b505050505b600084116123e9576040805162461bcd60e51b815260206004820152601f60248201527f4d6f6f6e69737761703a20726573756c74206973206e6f7420656e6f75676800604482015290519081900360640190fd5b6123f385856138bd565b805160208083015160408051888152928301939093528183015290516001600160a01b0387169133917f8bab6aed5a508937051a144e61d6e61336834a66aaee250a00613ae6f744c4229181900360600190a350506001600655509392505050565b6000610f7e612462612f3a565b846111f985604051806060016040528060258152602001614e26602591396001600061248c612f3a565b6001600160a01b03908116825260208083019390935260409182016000908120918d1681529252902054919061330e565b6000610f7e6124ca612f3a565b84846131b3565b60408051600280825260608083018452926020830190803683370190505090507f00000000000000000000000000000000000000000000000000000000000000008160008151811061251f57fe5b60200260200101906001600160a01b031690816001600160a01b0316815250507f00000000000000000000000000000000000000000000000000000000000000008160018151811061256d57fe5b60200260200101906001600160a01b031690816001600160a01b03168152505090565b6011602052600090815260409020546fffffffffffffffffffffffffffffffff8082169170010000000000000000000000000000000090041682565b7f000000000000000000000000000000000000000000000000000000000000000081565b600061260086868686863361276b565b9695505050505050565b6000806126206001600160a01b0384163061358a565b905061117a6126a6612630611586565b6001600160a01b0386166000908152601260209081526040918290208251808401909352547affffffffffffffffffffffffffffffffffffffffffffffffffffff811683527b01000000000000000000000000000000000000000000000000000000900464ffffffffff16908201529084613aa5565b826139ad565b7f000000000000000000000000000000000000000000000000000000000000000081565b6001600160a01b03918216600090815260016020908152604080832093909416825291909152205490565b604080516060810182526007546cffffffffffffffffffffffffff80821683526d010000000000000000000000000082041660208301527a010000000000000000000000000000000000000000000000000000900465ffffffffffff169181019190915260009061128e906133a5565b6000600260065414156127c5576040805162461bcd60e51b815260206004820152601f60248201527f5265656e7472616e637947756172643a207265656e7472616e742063616c6c00604482015290519081900360640190fd5b60026006556127dc6001600160a01b0388166138b0565b6127e75760006127e9565b845b341461283c576040805162461bcd60e51b815260206004820152601c60248201527f4d6f6f6e69737761703a2077726f6e672076616c756520757361676500000000604482015290519081900360640190fd5b612844614c13565b60405180604001604052806128846128648b6001600160a01b03166138b0565b61286f576000612871565b345b6120ba6001600160a01b038d163061358a565b815260200161289c6001600160a01b038a163061358a565b9052905060006128aa614c13565b6128b2614c13565b60405180604001604052806128c56126fb565b81526020016128d261121e565b905290506128e58b8b8b8b8a8987613b14565b90965090935091506128f983868987613def565b83516020808601518351848301516040805195865293850192909252838301526060830152517f2f9d55abfefdfd4c3a83e00a1b419b3c2fe4b83100c559f0e2213e57f6e0bba99181900360800190a18151602080840151604080516001600160a01b038f811682529381018890528082018a90526060810194909452608084019190915289821660a084015251818e16929189169133917fbd99c6719f088aa0abd9e7b7a4a635d1f931601e9f304b538dc42be25d8c65c69181900360c00190a450506001600160a01b03909816600090815260116020526040902080547001000000000000000000000000000000006fffffffffffffffffffffffffffffffff808316909b018b167fffffffffffffffffffffffffffffffff00000000000000000000000000000000909216919091178181048b1685018b1690910299169890981790975560016006559695505050505050565b600080612a656001600160a01b0384163061358a565b905061117a612aeb612a75611586565b6001600160a01b0386166000908152601360209081526040918290208251808401909352547affffffffffffffffffffffffffffffffffffffffffffffffffffff811683527b01000000000000000000000000000000000000000000000000000000900464ffffffffff16908201529084613aa5565b82613a96565b60026006541415612b49576040805162461bcd60e51b815260206004820152601f60248201527f5265656e7472616e637947756172643a207265656e7472616e742063616c6c00604482015290519081900360640190fd5b6002600655610e10811115612ba5576040805162461bcd60e51b815260206004820152601d60248201527f446563617920706572696f6420766f746520697320746f6f2068696768000000604482015290519081900360640190fd5b600f811015612bfb576040805162461bcd60e51b815260206004820152601c60248201527f446563617920706572696f6420766f746520697320746f6f206c6f7700000000604482015290519081900360640190fd5b612c03614be2565b50336000818152600f602090815260409182902082519182019092529054815290610f6190600d9083612c3586612e85565b612c3e86612ea4565b612c49576000612ccf565b7f00000000000000000000000000000000000000000000000000000000000000006001600160a01b0316631845f0db6040518163ffffffff1660e01b815260040160206040518083038186803b158015612ca257600080fd5b505afa158015612cb6573d6000803e3d6000fd5b505050506040513d6020811015612ccc57600080fd5b50515b61402c612ef1565b612cdf612f3a565b6010546001600160a01b03908116911614612d41576040805162461bcd60e51b815260206004820181905260248201527f4f776e61626c653a2063616c6c6572206973206e6f7420746865206f776e6572604482015290519081900360640190fd5b6001600160a01b038116612d865760405162461bcd60e51b8152600401808060200182810382526026815260200180614cdb6026913960400191505060405180910390fd5b6010546040516001600160a01b038084169216907f8be0079c531659141344cd1fd0a4f28419497f9722a3daafe3b4186f6b6457e090600090a3601080547fffffffffffffffffffffffff0000000000000000000000000000000000000000166001600160a01b0392909216919091179055565b60026006541415612e52576040805162461bcd60e51b815260206004820152601f60248201527f5265656e7472616e637947756172643a207265656e7472616e742063616c6c00604482015290519081900360640190fd5b6002600655336000818152600f602090815260409182902082519182019092529054815261179791600d91612c49613801565b612e8d614be2565b506040805160208101909152600182018152919050565b511590565b604080518381526020810183905281516001600160a01b038616927f20b96cef0261a92a2d9919f78fd04b94b6795ca4a9643a0fdbe2319b2c119b14928290030190a2505050565b6000612efc866117f5565b9050612f1986868684612f0d611142565b8c949392919089614074565b612f3186612f278686614084565b838563ffffffff16565b50505050505050565b3390565b6001600160a01b038316612f835760405162461bcd60e51b8152600401808060200182810382526024815260200180614dd86024913960400191505060405180910390fd5b6001600160a01b038216612fc85760405162461bcd60e51b8152600401808060200182810382526022815260200180614d016022913960400191505060405180910390fd5b6001600160a01b03808416600081815260016020908152604080832094871680845294825291829020859055815185815291517f8c5be1e5ebec7d5bd14f71427d1e84f3dd0314c0f7b2291e5b200ac8c7c3b9259281900390910190a3505050565b604080518381526020810183905281516001600160a01b038616927fba905f8404d00cac3f06121d46b3b79e2f335f600942239082c4f63735b3a7ae928290030190a2505050565b6000866001600160a01b0316886001600160a01b03161115613092579596955b6000861180156130d357507f00000000000000000000000000000000000000000000000000000000000000006001600160a01b0316886001600160a01b0316145b801561311057507f00000000000000000000000000000000000000000000000000000000000000006001600160a01b0316876001600160a01b0316145b156131a8576000613137613130670de0b6b3a76400006114178a8861362b565b889061372f565b905060006131458783613434565b9050600061315782611417858a61362b565b9050600061317a613168878661362b565b6120ba670de0b6b3a76400008661362b565b90506000613190670de0b6b3a76400008561362b565b90506131a081611417858561362b565b955050505050505b979650505050505050565b6001600160a01b0383166131f85760405162461bcd60e51b8152600401808060200182810382526025815260200180614db36025913960400191505060405180910390fd5b6001600160a01b03821661323d5760405162461bcd60e51b8152600401808060200182810382526023815260200180614c966023913960400191505060405180910390fd5b6132488383836140be565b61328581604051806060016040528060268152602001614d23602691396001600160a01b038616600090815260208190526040902054919061330e565b6001600160a01b0380851660009081526020819052604080822093909355908416815220546132b49082613434565b6001600160a01b038084166000818152602081815260409182902094909455805185815290519193928716927fddf252ad1be2c89b69c2b068fc378daa952ba7f163c4a11628f55a4df523b3ef92918290030190a3505050565b6000818484111561339d5760405162461bcd60e51b81526004018080602001828103825283818151815260200191508051906020019080838360005b8381101561336257818101518382015260200161334a565b50505050905090810190601f16801561338f5780820380516001836020036101000a031916815260200191505b509250505060405180910390fd5b505050900390565b6000806133ce6201518061213c856040015165ffffffffffff164261372f90919063ffffffff16565b905060006133df620151808361372f565b905061342c620151806114176134118588602001516cffffffffffffffffffffffffff1661362b90919063ffffffff16565b87516121e6906cffffffffffffffffffffffffff168661362b565b949350505050565b60008282018381101561117a576040805162461bcd60e51b815260206004820152601b60248201527f536166654d6174683a206164646974696f6e206f766572666c6f770000000000604482015290519081900360640190fd5b6001600160a01b0382166134d35760405162461bcd60e51b8152600401808060200182810382526021815260200180614d926021913960400191505060405180910390fd5b6134df826000836140be565b61351c81604051806060016040528060228152602001614cb9602291396001600160a01b038516600090815260208190526040902054919061330e565b6001600160a01b038316600090815260208190526040902055600254613542908261372f565b6002556040805182815290516000916001600160a01b038516917fddf252ad1be2c89b69c2b068fc378daa952ba7f163c4a11628f55a4df523b3ef9181900360200190a35050565b6000613595836138b0565b156135ab57506001600160a01b03811631610f82565b826001600160a01b03166370a08231836040518263ffffffff1660e01b815260040180826001600160a01b0316815260200191505060206040518083038186803b1580156135f857600080fd5b505afa15801561360c573d6000803e3d6000fd5b505050506040513d602081101561362257600080fd5b50519050610f82565b60008261363a57506000610f82565b8282028284828161364757fe5b041461117a5760405162461bcd60e51b8152600401808060200182810382526021815260200180614d496021913960400191505060405180910390fd5b600061117a83836040518060400160405280601a81526020017f536166654d6174683a206469766973696f6e206279207a65726f000000000000815250614244565b801561372a576136d5836138b0565b15613716576040516001600160a01b0383169082156108fc029083906000818181858888f19350505050158015613710573d6000803e3d6000fd5b5061372a565b61372a6001600160a01b03841683836142a9565b505050565b600061117a83836040518060400160405280601e81526020017f536166654d6174683a207375627472616374696f6e206f766572666c6f77000081525061330e565b6137fa856137f58361141761378782600161372f565b604080518082019091528b547affffffffffffffffffffffffffffffffffffffffffffffffffffff811682527b01000000000000000000000000000000000000000000000000000000900464ffffffffff1660208201526121e69089906137ef908d8d613aa5565b9061362b565b614329565b5050505050565b613809614be2565b5060408051602081019091526000815290565b825160009015613850575082517fffffffffffffffffffffffffffffffffffffffffffffffffffffffffffffffff0161117a565b82826040518163ffffffff1660e01b815260040160206040518083038186803b15801561387c57600080fd5b505afa158015613890573d6000803e3d6000fd5b505050506040513d60208110156138a657600080fd5b5051949350505050565b6001600160a01b03161590565b6001600160a01b038216613918576040805162461bcd60e51b815260206004820152601f60248201527f45524332303a206d696e7420746f20746865207a65726f206164647265737300604482015290519081900360640190fd5b613924600083836140be565b6002546139319082613434565b6002556001600160a01b0382166000908152602081905260409020546139579082613434565b6001600160a01b0383166000818152602081815260408083209490945583518581529351929391927fddf252ad1be2c89b69c2b068fc378daa952ba7f163c4a11628f55a4df523b3ef9281900390910190a35050565b6000818310156139bd578161117a565b5090919050565b8015613a90576139d3846138b0565b15613a7b5780341015613a2d576040805162461bcd60e51b815260206004820152601a60248201527f556e6945524332303a206e6f7420656e6f7567682076616c7565000000000000604482015290519081900360640190fd5b80341115613a76576001600160a01b0383166108fc613a4c348461372f565b6040518115909202916000818181858888f19350505050158015613a74573d6000803e3d6000fd5b505b613a90565b613a906001600160a01b038516848484614399565b50505050565b60008183106139bd578161117a565b600080613aca8461213c876020015164ffffffffff164261372f90919063ffffffff16565b90506000613ad8858361372f565b905061260085611417613aeb878661362b565b89516121e6907affffffffffffffffffffffffffffffffffffffffffffffffffffff168661362b565b600080613b1f614c13565b6000613b29611586565b86516001600160a01b038d166000908152601260209081526040918290208251808401909352547affffffffffffffffffffffffffffffffffffffffffffffffffffff811683527b01000000000000000000000000000000000000000000000000000000900464ffffffffff1690820152919250613ba991908390613aa5565b8083528651613bb891906139ad565b82526020868101516001600160a01b038c166000908152601383526040908190208151808301909252547affffffffffffffffffffffffffffffffffffffffffffffffffffff811682527b01000000000000000000000000000000000000000000000000000000900464ffffffffff1692810192909252613c3b91908390613aa5565b6020808401829052870151613c509190613a96565b6020830152613c6a6001600160a01b038c1633308c6139c4565b8551613c83906120ba6001600160a01b038e163061358a565b9350613ca48b8b86856000015186602001518a600001518b60200151613072565b9250600083118015613cb65750878310155b613d07576040805162461bcd60e51b815260206004820152601f60248201527f4d6f6f6e69737761703a2072657475726e206973206e6f7420656e6f75676800604482015290519081900360640190fd5b613d1b6001600160a01b038b1688856136c6565b8551825114613d52578151613d5290613d349086613434565b6001600160a01b038d16600090815260126020526040902090614329565b8560200151826020015114613d92576020820151613d9290613d74908561372f565b6001600160a01b038c16600090815260136020526040902090614329565b85516001600160a01b038c166000908152601360205260409020613db7918390614421565b6020808701516001600160a01b038c16600090815260129092526040909120613de1918390614421565b509750975097945050505050565b6000806000807f00000000000000000000000000000000000000000000000000000000000000006001600160a01b031663890357306040518163ffffffff1660e01b815260040160806040518083038186803b158015613e4e57600080fd5b505afa158015613e62573d6000803e3d6000fd5b505050506040513d6080811015613e7857600080fd5b5080516020820151604083015160609093015188519297509095509193509091506ec097ce7bc90715b34b9f100000000090613ec290611417613ebb828d613434565b849061362b565b6020870151909150613edb90611417613ebb828c61372f565b90506ec097ce7bc90715b34b9f100000000081111561402157613efd81614489565b90506000613f2282611417613f1a82670de0b6b3a764000061372f565b6137ef611142565b90506001600160a01b03881615613fe857613f49670de0b6b3a7640000611417838961362b565b95508515613fe8576001600160a01b03831615613fde57613f6a83876138bd565b826001600160a01b0316631a39912589886040518363ffffffff1660e01b815260040180836001600160a01b0316815260200182815260200192505050600060405180830381600087803b158015613fc157600080fd5b505af1158015613fd5573d6000803e3d6000fd5b50505050613fe8565b613fe888876138bd565b6001600160a01b0384161561401f5761400d670de0b6b3a7640000611417838861362b565b9450841561401f5761401f84866138bd565b505b505050505050505050565b604080518381526020810183905281516001600160a01b038616927fb6e2c04ca94e1a5e4ebfdf28552458acfed1c5b64bca959e21bed4a791fdc060928290030190a2505050565b612f3187878787878888886144e3565b8151600090156140b8575081517fffffffffffffffffffffffffffffffffffffffffffffffffffffffffffffffff01610f82565b50919050565b60006001600160a01b0384166140d55760006140de565b6140de846117f5565b905060006001600160a01b0385166140f7576000614100565b614100846117f5565b905060006141426001600160a01b0386161561411d57600061411f565b845b6120ba6001600160a01b0389161561413857600061413a565b865b6121e6611142565b905061414c614c2d565b6040518060c00160405280886001600160a01b03168152602001876001600160a01b031681526020018681526020018581526020018481526020018381525090506141ca817f00000000000000000000000000000000000000000000000000000000000000006001600160a01b0316635a6c72d061302a60076146ca565b614207817f00000000000000000000000000000000000000000000000000000000000000006001600160a01b03166323662bb9612ea9600a6146ca565b612f31817f00000000000000000000000000000000000000000000000000000000000000006001600160a01b0316631845f0db61402c600d6146ca565b600081836142935760405162461bcd60e51b815260206004820181815283516024840152835190928392604490910191908501908083836000831561336257818101518382015260200161334a565b50600083858161429f57fe5b0495945050505050565b604080516001600160a01b038416602482015260448082018490528251808303909101815260649091019091526020810180517bffffffffffffffffffffffffffffffffffffffffffffffffffffffff167fa9059cbb0000000000000000000000000000000000000000000000000000000017905261372a908490614939565b81547fffffffffff000000000000000000000000000000000000000000000000000000167affffffffffffffffffffffffffffffffffffffffffffffffffffff91821617167b010000000000000000000000000000000000000000000000000000004264ffffffffff1602179055565b604080516001600160a01b0380861660248301528416604482015260648082018490528251808303909101815260849091019091526020810180517bffffffffffffffffffffffffffffffffffffffffffffffffffffffff167f23b872dd00000000000000000000000000000000000000000000000000000000179052613a90908590614939565b6040805180820190915283547affffffffffffffffffffffffffffffffffffffffffffffffffffff811682527b01000000000000000000000000000000000000000000000000000000900464ffffffffff16602082015261372a9084906137f5908585613aa5565b600060038211156144cd5781600160028204015b818110156144c5578091506002818286816144b457fe5b0401816144bd57fe5b04905061449d565b5090506116a1565b81156144db575060016116a1565b5060006116a1565b60018801546144f0614c75565b50604080516060810182528a546cffffffffffffffffffffffffff80821683526d010000000000000000000000000082041660208301527a010000000000000000000000000000000000000000000000000000900465ffffffffffff1691810191909152600061458b61456d6145668b87614084565b899061362b565b6120ba61458461457d8c89614084565b8a9061362b565b8690613434565b9050600085156145a45761459f8287613684565b6145a6565b845b90508382146145b75760018c018290555b82602001516cffffffffffffffffffffffffff16811461468f576145da836133a5565b8c547fffffffffffffffffffffffffffffffffffffff00000000000000000000000000166cffffffffffffffffffffffffff918216177fffffffffffff00000000000000000000000000ffffffffffffffffffffffffff166d0100000000000000000000000000918316919091021779ffffffffffffffffffffffffffffffffffffffffffffffffffff167a0100000000000000000000000000000000000000000000000000004265ffffffffffff1602178c555b614699898b6149ea565b6146bc576001600160a01b038b16600090815260028d0160205260409020895190555b505050505050505050505050565b6146d2614be2565b5084516001600160a01b03166000908152600282016020908152604091829020825191820190925290548152614706614be2565b506020808701516001600160a01b031660009081526002840182526040808220815193840190915254825261473a83612ea4565b80614749575061474982612ea4565b8061475b575087604001518860600151145b6147665760006147bf565b86866040518163ffffffff1660e01b815260040160206040518083038186803b15801561479257600080fd5b505afa1580156147a6573d6000803e3d6000fd5b505050506040513d60208110156147bc57600080fd5b50515b90506147ca83612ea4565b80156147da57506147da82612ea4565b80156147ef575087516001600160a01b031615155b8015614807575060208801516001600160a01b031615155b156148635787516148389061481c8584614084565b60408b015160608c015161482f9161372f565b8863ffffffff16565b875161485b906148488484614084565b60408b015160808c015161482f91613434565b5050506137fa565b87516001600160a01b0316156148c557600061489089604001518a6060015161372f90919063ffffffff16565b895160608b015160a08c01519293506148b09288929188918690886149f1565b885184516148c391908363ffffffff8a16565b505b60208801516001600160a01b03161561492f5760006148f589604001518a6080015161343490919063ffffffff16565b60208a015160808b015160a08c01519293506149189288929187918690886149f1565b61402189602001518460000151838963ffffffff16565b5050505050505050565b606061498e826040518060400160405280602081526020017f5361666545524332303a206c6f772d6c6576656c2063616c6c206661696c6564815250856001600160a01b0316614a149092919063ffffffff16565b80519091501561372a578080602001905160208110156149ad57600080fd5b505161372a5760405162461bcd60e51b815260040180806020018281038252602a815260200180614dfc602a913960400191505060405180910390fd5b5190511490565b612f318787878615614a035788614a0b565b614a0b613801565b888888886144e3565b606061117784846000856060614a2985614ba9565b614a7a576040805162461bcd60e51b815260206004820152601d60248201527f416464726573733a2063616c6c20746f206e6f6e2d636f6e7472616374000000604482015290519081900360640190fd5b60006060866001600160a01b031685876040518082805190602001908083835b60208310614ad757805182527fffffffffffffffffffffffffffffffffffffffffffffffffffffffffffffffe09092019160209182019101614a9a565b6001836020036101000a03801982511681845116808217855250505050505090500191505060006040518083038185875af1925050503d8060008114614b39576040519150601f19603f3d011682016040523d82523d6000602084013e614b3e565b606091505b50915091508115614b5257915061342c9050565b805115614b625780518082602001fd5b60405162461bcd60e51b815260206004820181815286516024840152865187939192839260440191908501908083836000831561336257818101518382015260200161334a565b6000813f7fc5d2460186f7233c927e7db2dcc703c0e500b653ca82273b7bfad8045d85a47081811480159061342c575050151592915050565b6040518060200160405280600081525090565b60405180604001604052806002906020820280368337509192915050565b604051806040016040528060008152602001600081525090565b6040518060c0016040528060006001600160a01b0316815260200160006001600160a01b03168152602001600081526020016000815260200160008152602001600081525090565b60408051606081018252600080825260208201819052918101919091529056fe45524332303a207472616e7366657220746f20746865207a65726f206164647265737345524332303a206275726e20616d6f756e7420657863656564732062616c616e63654f776e61626c653a206e6577206f776e657220697320746865207a65726f206164647265737345524332303a20617070726f766520746f20746865207a65726f206164647265737345524332303a207472616e7366657220616d6f756e7420657863656564732062616c616e6365536166654d6174683a206d756c7469706c69636174696f6e206f766572666c6f7745524332303a207472616e7366657220616d6f756e74206578636565647320616c6c6f77616e636545524332303a206275726e2066726f6d20746865207a65726f206164647265737345524332303a207472616e736665722066726f6d20746865207a65726f206164647265737345524332303a20617070726f76652066726f6d20746865207a65726f20616464726573735361666545524332303a204552433230206f7065726174696f6e20646964206e6f74207375636365656445524332303a2064656372656173656420616c6c6f77616e63652062656c6f77207a65726fa2646970667358221220360ea655f1f31bf57312321fa9d371392c00ae2340c5f7038942d6ffb38386fe64736f6c634300060c0033",
  "immutableReferences": {
    "158": [
      {
        "length": 32,
        "start": 3978
      },
      {
        "length": 32,
        "start": 4955
      },
      {
        "length": 32,
        "start": 5632
      },
      {
        "length": 32,
        "start": 6578
      },
      {
        "length": 32,
        "start": 6707
      },
      {
        "length": 32,
        "start": 7654
      },
      {
        "length": 32,
        "start": 9459
      },
      {
        "length": 32,
        "start": 12447
      }
    ],
    "160": [
      {
        "length": 32,
        "start": 4992
      },
      {
        "length": 32,
        "start": 5680
      },
      {
        "length": 32,
        "start": 6633
      },
      {
        "length": 32,
        "start": 6842
      },
      {
        "length": 32,
        "start": 7691
      },
      {
        "length": 32,
        "start": 9537
      },
      {
        "length": 32,
        "start": 9678
      },
      {
        "length": 32,
        "start": 12508
      }
    ],
    "3913": [
      {
        "length": 32,
        "start": 3797
      },
      {
        "length": 32,
        "start": 4278
      },
      {
        "length": 32,
        "start": 7117
      },
      {
        "length": 32,
        "start": 7488
      },
      {
        "length": 32,
        "start": 9902
      },
      {
        "length": 32,
        "start": 11339
      },
      {
        "length": 32,
        "start": 15863
      },
      {
        "length": 32,
        "start": 16787
      },
      {
        "length": 32,
        "start": 16848
      },
      {
        "length": 32,
        "start": 16909
      }
    ]
  },
  "source": "// SPDX-License-Identifier: MIT\n\npragma solidity ^0.6.0;\n\nimport \"@openzeppelin/contracts/access/Ownable.sol\";\nimport \"@openzeppelin/contracts/math/Math.sol\";\nimport \"@openzeppelin/contracts/math/SafeMath.sol\";\nimport \"@openzeppelin/contracts/token/ERC20/ERC20.sol\";\nimport \"./interfaces/IReferralFeeReceiver.sol\";\nimport \"./libraries/UniERC20.sol\";\nimport \"./libraries/Sqrt.sol\";\nimport \"./libraries/VirtualBalance.sol\";\nimport \"./governance/MooniswapGovernance.sol\";\n\n\ncontract Mooniswap is MooniswapGovernance, Ownable {\n    using Sqrt for uint256;\n    using SafeMath for uint256;\n    using UniERC20 for IERC20;\n    using VirtualBalance for VirtualBalance.Data;\n\n    struct Balances {\n        uint256 src;\n        uint256 dst;\n    }\n\n    struct SwapVolumes {\n        uint128 confirmed;\n        uint128 result;\n    }\n\n    struct Fees {\n        uint256 fee;\n        uint256 slippageFee;\n    }\n\n    event Deposited(\n        address indexed sender,\n        address indexed receiver,\n        uint256 share,\n        uint256 token0Amount,\n        uint256 token1Amount\n    );\n\n    event Withdrawn(\n        address indexed sender,\n        address indexed receiver,\n        uint256 share,\n        uint256 token0Amount,\n        uint256 token1Amount\n    );\n\n    event Swapped(\n        address indexed sender,\n        address indexed receiver,\n        address indexed srcToken,\n        address dstToken,\n        uint256 amount,\n        uint256 result,\n        uint256 srcAdditionBalance,\n        uint256 dstRemovalBalance,\n        address referral\n    );\n\n    event Sync(\n        uint256 srcBalance,\n        uint256 dstBalance,\n        uint256 fee,\n        uint256 slippageFee\n    );\n\n    uint256 private constant _BASE_SUPPLY = 1000;  // Total supply on first deposit\n\n    IERC20 public immutable token0;\n    IERC20 public immutable token1;\n    mapping(IERC20 => SwapVolumes) public volumes;\n    mapping(IERC20 => VirtualBalance.Data) public virtualBalancesForAddition;\n    mapping(IERC20 => VirtualBalance.Data) public virtualBalancesForRemoval;\n\n    constructor(\n        IERC20 _token0,\n        IERC20 _token1,\n        string memory name,\n        string memory symbol,\n        IMooniswapFactoryGovernance _mooniswapFactoryGovernance\n    )\n        public\n        ERC20(name, symbol)\n        MooniswapGovernance(_mooniswapFactoryGovernance)\n    {\n        require(bytes(name).length > 0, \"Mooniswap: name is empty\");\n        require(bytes(symbol).length > 0, \"Mooniswap: symbol is empty\");\n        require(_token0 != _token1, \"Mooniswap: duplicate tokens\");\n        token0 = _token0;\n        token1 = _token1;\n    }\n\n    function getTokens() external view returns(IERC20[] memory tokens) {\n        tokens = new IERC20[](2);\n        tokens[0] = token0;\n        tokens[1] = token1;\n    }\n\n    function tokens(uint256 i) external view returns(IERC20) {\n        if (i == 0) {\n            return token0;\n        } else if (i == 1) {\n            return token1;\n        } else {\n            revert(\"Pool has two tokens\");\n        }\n    }\n\n    function getBalanceForAddition(IERC20 token) public view returns(uint256) {\n        uint256 balance = token.uniBalanceOf(address(this));\n        return Math.max(virtualBalancesForAddition[token].current(decayPeriod(), balance), balance);\n    }\n\n    function getBalanceForRemoval(IERC20 token) public view returns(uint256) {\n        uint256 balance = token.uniBalanceOf(address(this));\n        return Math.min(virtualBalancesForRemoval[token].current(decayPeriod(), balance), balance);\n    }\n\n    function getReturn(IERC20 src, IERC20 dst, uint256 amount) external view returns(uint256) {\n        return _getReturn(src, dst, amount, getBalanceForAddition(src), getBalanceForRemoval(dst), fee(), slippageFee());\n    }\n\n    function deposit(uint256[2] memory maxAmounts, uint256[2] memory minAmounts) external payable returns(uint256 fairSupply) {\n        return depositFor(maxAmounts, minAmounts, msg.sender);\n    }\n\n    function depositFor(uint256[2] memory maxAmounts, uint256[2] memory minAmounts, address target) public payable nonReentrant returns(uint256 fairSupply) {\n        IERC20[2] memory _tokens = [token0, token1];\n        require(msg.value == (_tokens[0].isETH() ? maxAmounts[0] : (_tokens[1].isETH() ? maxAmounts[1] : 0)), \"Mooniswap: wrong value usage\");\n\n        uint256 totalSupply = totalSupply();\n        uint256[2] memory receivedAmounts;\n\n        if (totalSupply == 0) {\n            fairSupply = _BASE_SUPPLY.mul(99);\n            _mint(address(this), _BASE_SUPPLY); // Donate up to 1%\n\n            for (uint i = 0; i < maxAmounts.length; i++) {\n                fairSupply = Math.max(fairSupply, maxAmounts[i]);\n\n                require(maxAmounts[i] > 0, \"Mooniswap: amount is zero\");\n                require(maxAmounts[i] >= minAmounts[i], \"Mooniswap: minAmount not reached\");\n\n                _tokens[i].uniTransferFrom(msg.sender, address(this), maxAmounts[i]);\n                receivedAmounts[i] = maxAmounts[i];\n            }\n        }\n        else {\n            uint256[2] memory realBalances;\n            for (uint i = 0; i < realBalances.length; i++) {\n                realBalances[i] = _tokens[i].uniBalanceOf(address(this)).sub(_tokens[i].isETH() ? msg.value : 0);\n            }\n\n            // Pre-compute fair supply\n            fairSupply = type(uint256).max;\n            for (uint i = 0; i < maxAmounts.length; i++) {\n                fairSupply = Math.min(fairSupply, totalSupply.mul(maxAmounts[i]).div(realBalances[i]));\n            }\n\n            uint256 fairSupplyCached = fairSupply;\n\n            for (uint i = 0; i < maxAmounts.length; i++) {\n                require(maxAmounts[i] > 0, \"Mooniswap: amount is zero\");\n                uint256 amount = realBalances[i].mul(fairSupplyCached).add(totalSupply - 1).div(totalSupply);\n                require(amount >= minAmounts[i], \"Mooniswap: minAmount not reached\");\n\n                _tokens[i].uniTransferFrom(msg.sender, address(this), amount);\n                receivedAmounts[i] = _tokens[i].uniBalanceOf(address(this)).sub(realBalances[i]);\n                fairSupply = Math.min(fairSupply, totalSupply.mul(receivedAmounts[i]).div(realBalances[i]));\n            }\n\n            uint256 _decayPeriod = decayPeriod();  // gas savings\n            for (uint i = 0; i < maxAmounts.length; i++) {\n                virtualBalancesForRemoval[_tokens[i]].scale(_decayPeriod, realBalances[i], totalSupply.add(fairSupply), totalSupply);\n                virtualBalancesForAddition[_tokens[i]].scale(_decayPeriod, realBalances[i], totalSupply.add(fairSupply), totalSupply);\n            }\n        }\n\n        require(fairSupply > 0, \"Mooniswap: result is not enough\");\n        _mint(target, fairSupply);\n\n        emit Deposited(msg.sender, target, fairSupply, receivedAmounts[0], receivedAmounts[1]);\n    }\n\n    function withdraw(uint256 amount, uint256[] memory minReturns) external {\n        withdrawFor(amount, minReturns, msg.sender);\n    }\n\n    function withdrawFor(uint256 amount, uint256[] memory minReturns, address payable target) public nonReentrant {\n        IERC20[2] memory _tokens = [token0, token1];\n\n        uint256 totalSupply = totalSupply();\n        uint256 _decayPeriod = decayPeriod();  // gas savings\n        _burn(msg.sender, amount);\n        uint256[2] memory withdrawnAmounts;\n\n        for (uint i = 0; i < _tokens.length; i++) {\n            IERC20 token = _tokens[i];\n\n            uint256 preBalance = token.uniBalanceOf(address(this));\n            uint256 value = preBalance.mul(amount).div(totalSupply);\n            token.uniTransfer(target, value);\n            withdrawnAmounts[i] = value;\n            require(i >= minReturns.length || value >= minReturns[i], \"Mooniswap: result is not enough\");\n\n            virtualBalancesForAddition[token].scale(_decayPeriod, preBalance, totalSupply.sub(amount), totalSupply);\n            virtualBalancesForRemoval[token].scale(_decayPeriod, preBalance, totalSupply.sub(amount), totalSupply);\n        }\n\n        emit Withdrawn(msg.sender, target, amount, withdrawnAmounts[0], withdrawnAmounts[1]);\n    }\n\n    function swap(IERC20 src, IERC20 dst, uint256 amount, uint256 minReturn, address referral) external payable returns(uint256 result) {\n        return swapFor(src, dst, amount, minReturn, referral, msg.sender);\n    }\n\n    function swapFor(IERC20 src, IERC20 dst, uint256 amount, uint256 minReturn, address referral, address payable receiver) public payable nonReentrant returns(uint256 result) {\n        require(msg.value == (src.isETH() ? amount : 0), \"Mooniswap: wrong value usage\");\n\n        Balances memory balances = Balances({\n            src: src.uniBalanceOf(address(this)).sub(src.isETH() ? msg.value : 0),\n            dst: dst.uniBalanceOf(address(this))\n        });\n        uint256 confirmed;\n        Balances memory virtualBalances;\n        Fees memory fees = Fees({\n            fee: fee(),\n            slippageFee: slippageFee()\n        });\n        (confirmed, result, virtualBalances) = _doTransfers(src, dst, amount, minReturn, receiver, balances, fees);\n        _mintRewards(confirmed, result, referral, balances);\n        emit Sync(balances.src, balances.dst, fees.fee, fees.slippageFee);\n        emit Swapped(msg.sender, receiver, address(src), address(dst), confirmed, result, virtualBalances.src, virtualBalances.dst, referral);\n\n        // Overflow of uint128 is desired\n        volumes[src].confirmed += uint128(confirmed);\n        volumes[src].result += uint128(result);\n    }\n\n    function _doTransfers(IERC20 src, IERC20 dst, uint256 amount, uint256 minReturn, address payable receiver, Balances memory balances, Fees memory fees)\n        private returns(uint256 confirmed, uint256 result, Balances memory virtualBalances)\n    {\n        uint256 _decayPeriod = decayPeriod();\n        virtualBalances.src = virtualBalancesForAddition[src].current(_decayPeriod, balances.src);\n        virtualBalances.src = Math.max(virtualBalances.src, balances.src);\n        virtualBalances.dst = virtualBalancesForRemoval[dst].current(_decayPeriod, balances.dst);\n        virtualBalances.dst = Math.min(virtualBalances.dst, balances.dst);\n        src.uniTransferFrom(msg.sender, address(this), amount);\n        confirmed = src.uniBalanceOf(address(this)).sub(balances.src);\n        result = _getReturn(src, dst, confirmed, virtualBalances.src, virtualBalances.dst, fees.fee, fees.slippageFee);\n        require(result > 0 && result >= minReturn, \"Mooniswap: return is not enough\");\n        dst.uniTransfer(receiver, result);\n\n        // Update virtual balances to the same direction only at imbalanced state\n        if (virtualBalances.src != balances.src) {\n            virtualBalancesForAddition[src].set(virtualBalances.src.add(confirmed));\n        }\n        if (virtualBalances.dst != balances.dst) {\n            virtualBalancesForRemoval[dst].set(virtualBalances.dst.sub(result));\n        }\n        // Update virtual balances to the opposite direction\n        virtualBalancesForRemoval[src].update(_decayPeriod, balances.src);\n        virtualBalancesForAddition[dst].update(_decayPeriod, balances.dst);\n    }\n\n    function _mintRewards(uint256 confirmed, uint256 result, address referral, Balances memory balances) private {\n        (uint256 referralShare, uint256 governanceShare, address governanceFeeReceiver, address referralFeeReceiver) = mooniswapFactoryGovernance.parameters();\n\n        uint256 invariantRatio = uint256(1e36);\n        invariantRatio = invariantRatio.mul(balances.src.add(confirmed)).div(balances.src);\n        invariantRatio = invariantRatio.mul(balances.dst.sub(result)).div(balances.dst);\n        if (invariantRatio > 1e36) {\n            // calculate share only if invariant increased\n            invariantRatio = invariantRatio.sqrt();\n            uint256 invIncrease = totalSupply().mul(invariantRatio.sub(1e18)).div(invariantRatio);\n\n            if (referral != address(0)) {\n                referralShare = invIncrease.mul(referralShare).div(_FEE_DENOMINATOR);\n                if (referralShare > 0) {\n                    if (referralFeeReceiver != address(0)) {\n                        _mint(referralFeeReceiver, referralShare);\n                        IReferralFeeReceiver(referralFeeReceiver).updateReward(referral, referralShare);\n                    } else {\n                        _mint(referral, referralShare);\n                    }\n                }\n            }\n\n            if (governanceFeeReceiver != address(0)) {\n                governanceShare = invIncrease.mul(governanceShare).div(_FEE_DENOMINATOR);\n                if (governanceShare > 0) {\n                    _mint(governanceFeeReceiver, governanceShare);\n                }\n            }\n        }\n    }\n\n    /*\n        spot_ret = dx * y / x\n        uni_ret = dx * y / (x + dx)\n        slippage = (spot_ret - uni_ret) / spot_ret\n        slippage = dx * dx * y / (x * (x + dx)) / (dx * y / x)\n        slippage = dx / (x + dx)\n        ret = uni_ret * (1 - fee_percentage * slippage)\n        ret = dx * y / (x + dx) * (1 - slip_fee * dx / (x + dx))\n        ret = dx * y / (x + dx) * (x + dx - slip_fee * dx) / (x + dx)\n\n        x = amount * denominator\n        dx = amount * (denominator - fee)\n    */\n    function _getReturn(IERC20 src, IERC20 dst, uint256 amount, uint256 srcBalance, uint256 dstBalance, uint256 fee, uint256 slippageFee) internal view returns(uint256) {\n        if (src > dst) {\n            (src, dst) = (dst, src);\n        }\n        if (amount > 0 && src == token0 && dst == token1) {\n            uint256 taxedAmount = amount.sub(amount.mul(fee).div(_FEE_DENOMINATOR));\n            uint256 taxedSrcBalance = srcBalance.add(taxedAmount);\n            uint256 ret = taxedAmount.mul(dstBalance).div(taxedSrcBalance);\n            uint256 feeNumerator = _FEE_DENOMINATOR.mul(taxedSrcBalance).sub(slippageFee.mul(taxedAmount));\n            uint256 feeDenominator = _FEE_DENOMINATOR.mul(taxedSrcBalance);\n            return ret.mul(feeNumerator).div(feeDenominator);\n        }\n    }\n\n    function rescueFunds(IERC20 token, uint256 amount) external nonReentrant onlyOwner {\n        uint256 balance0 = token0.uniBalanceOf(address(this));\n        uint256 balance1 = token1.uniBalanceOf(address(this));\n\n        token.uniTransfer(msg.sender, amount);\n\n        require(token0.uniBalanceOf(address(this)) >= balance0, \"Mooniswap: access denied\");\n        require(token1.uniBalanceOf(address(this)) >= balance1, \"Mooniswap: access denied\");\n        require(balanceOf(address(this)) >= _BASE_SUPPLY, \"Mooniswap: access denied\");\n    }\n}\n",
  "sourcePath": "/Users/k06a/Projects/mooniswap-v2/contracts/Mooniswap.sol",
  "compiler": {
    "name": "solc",
    "version": "0.6.12+commit.27d51765.Emscripten.clang"
  },
  "schemaVersion": "3.3.2",
  "updatedAt": "2020-11-30T13:22:04.036Z",
  "devdoc": {
    "kind": "dev",
    "methods": {
      "allowance(address,address)": {
        "details": "See {IERC20-allowance}."
      },
      "approve(address,uint256)": {
        "details": "See {IERC20-approve}. Requirements: - `spender` cannot be the zero address."
      },
      "balanceOf(address)": {
        "details": "See {IERC20-balanceOf}."
      },
      "decimals()": {
        "details": "Returns the number of decimals used to get its user representation. For example, if `decimals` equals `2`, a balance of `505` tokens should be displayed to a user as `5,05` (`505 / 10 ** 2`). Tokens usually opt for a value of 18, imitating the relationship between Ether and Wei. This is the value {ERC20} uses, unless {_setupDecimals} is called. NOTE: This information is only used for _display_ purposes: it in no way affects any of the arithmetic of the contract, including {IERC20-balanceOf} and {IERC20-transfer}."
      },
      "decreaseAllowance(address,uint256)": {
        "details": "Atomically decreases the allowance granted to `spender` by the caller. This is an alternative to {approve} that can be used as a mitigation for problems described in {IERC20-approve}. Emits an {Approval} event indicating the updated allowance. Requirements: - `spender` cannot be the zero address. - `spender` must have allowance for the caller of at least `subtractedValue`."
      },
      "increaseAllowance(address,uint256)": {
        "details": "Atomically increases the allowance granted to `spender` by the caller. This is an alternative to {approve} that can be used as a mitigation for problems described in {IERC20-approve}. Emits an {Approval} event indicating the updated allowance. Requirements: - `spender` cannot be the zero address."
      },
      "name()": {
        "details": "Returns the name of the token."
      },
      "owner()": {
        "details": "Returns the address of the current owner."
      },
      "renounceOwnership()": {
        "details": "Leaves the contract without owner. It will not be possible to call `onlyOwner` functions anymore. Can only be called by the current owner. NOTE: Renouncing ownership will leave the contract without an owner, thereby removing any functionality that is only available to the owner."
      },
      "symbol()": {
        "details": "Returns the symbol of the token, usually a shorter version of the name."
      },
      "totalSupply()": {
        "details": "See {IERC20-totalSupply}."
      },
      "transfer(address,uint256)": {
        "details": "See {IERC20-transfer}. Requirements: - `recipient` cannot be the zero address. - the caller must have a balance of at least `amount`."
      },
      "transferFrom(address,address,uint256)": {
        "details": "See {IERC20-transferFrom}. Emits an {Approval} event indicating the updated allowance. This is not required by the EIP. See the note at the beginning of {ERC20}; Requirements: - `sender` and `recipient` cannot be the zero address. - `sender` must have a balance of at least `amount`. - the caller must have allowance for ``sender``'s tokens of at least `amount`."
      },
      "transferOwnership(address)": {
        "details": "Transfers ownership of the contract to a new account (`newOwner`). Can only be called by the current owner."
      }
    },
    "version": 1
  },
  "userdoc": {
    "kind": "user",
    "methods": {},
    "version": 1
  }
}