{
  "contractName": "TokenWithBytes32SymbolMock",
  "abi": [
    {
      "inputs": [
        {
          "internalType": "bytes32",
          "name": "s",
          "type": "bytes32"
        }
      ],
      "stateMutability": "nonpayable",
      "type": "constructor"
    },
    {
      "inputs": [],
      "name": "symbol",
      "outputs": [
        {
          "internalType": "bytes32",
          "name": "",
          "type": "bytes32"
        }
      ],
      "stateMutability": "view",
      "type": "function"
    }
  ],
  "bytecode": "0x60806040526241424360e81b60005534801561001a57600080fd5b506040516100d13803806100d18339818101604052602081101561003d57600080fd5b50516000556081806100506000396000f3fe6080604052348015600f57600080fd5b506004361060285760003560e01c806395d89b4114602d575b600080fd5b60336045565b60408051918252519081900360200190f35b6000548156fea26469706673582212205aae9840182afc027bc534bd760e17abb5cac207cccf6dc8bd1c005e5025414c64736f6c634300060c0033",
  "immutableReferences": {},
  "source": "// SPDX-License-Identifier: MIT\n\npragma solidity ^0.6.0;\n\n\ncontract TokenWithBytes32SymbolMock {\n    bytes32 public symbol = \"ABC\";\n\n    constructor(bytes32 s) public {\n        symbol = s;\n    }\n}\n",
  "sourcePath": "/Users/k06a/Projects/mooniswap-v2/contracts/mocks/TokenWithBytes32SymbolMock.sol",
  "compiler": {
    "name": "solc",
    "version": "0.6.12+commit.27d51765.Emscripten.clang"
  },
  "schemaVersion": "3.3.2",
  "updatedAt": "2020-11-30T13:22:04.116Z",
  "devdoc": {
    "kind": "dev",
    "methods": {},
    "version": 1
  },
  "userdoc": {
    "kind": "user",
    "methods": {},
    "version": 1
  }
}