{
  "contractName": "TokenWithBytes32CAPSSymbolMock",
  "abi": [
    {
      "inputs": [
        {
          "internalType": "bytes32",
          "name": "s",
          "type": "bytes32"
        }
      ],
      "stateMutability": "nonpayable",
      "type": "constructor"
    },
    {
      "inputs": [],
      "name": "SYMBOL",
      "outputs": [
        {
          "internalType": "bytes32",
          "name": "",
          "type": "bytes32"
        }
      ],
      "stateMutability": "view",
      "type": "function"
    }
  ],
  "bytecode": "0x60806040526241424360e81b60005534801561001a57600080fd5b506040516100d13803806100d18339818101604052602081101561003d57600080fd5b50516000556081806100506000396000f3fe6080604052348015600f57600080fd5b506004361060285760003560e01c8063f76f8d7814602d575b600080fd5b60336045565b60408051918252519081900360200190f35b6000548156fea2646970667358221220ebf50dd55de4ff6bed8025cb61964bb0dca2ff293fba692b1d168028b4937fea64736f6c634300060c0033",
  "immutableReferences": {},
  "source": "// SPDX-License-Identifier: MIT\n\npragma solidity ^0.6.0;\n\n\ncontract TokenWithBytes32CAPSSymbolMock {\n    // solhint-disable var-name-mixedcase\n    bytes32 public SYMBOL = \"ABC\";\n\n    constructor(bytes32 s) public {\n        SYMBOL = s;\n    }\n}\n",
  "sourcePath": "/Users/k06a/Projects/mooniswap-v2/contracts/mocks/TokenWithBytes32CAPSSymbolMock.sol",
  "compiler": {
    "name": "solc",
    "version": "0.6.12+commit.27d51765.Emscripten.clang"
  },
  "schemaVersion": "3.3.2",
  "updatedAt": "2020-11-30T13:22:04.115Z",
  "devdoc": {
    "kind": "dev",
    "methods": {},
    "version": 1
  },
  "userdoc": {
    "kind": "user",
    "methods": {},
    "version": 1
  }
}