{
  "contractName": "TokenWithStringCAPSSymbolMock",
  "abi": [
    {
      "inputs": [
        {
          "internalType": "string",
          "name": "s",
          "type": "string"
        }
      ],
      "stateMutability": "nonpayable",
      "type": "constructor"
    },
    {
      "inputs": [],
      "name": "SYMBOL",
      "outputs": [
        {
          "internalType": "string",
          "name": "",
          "type": "string"
        }
      ],
      "stateMutability": "view",
      "type": "function"
    }
  ],
  "bytecode": "0x60c0604052600360808190526241424360e81b60a0908152610024916000919061011e565b5034801561003157600080fd5b5060405161034f38038061034f8339818101604052602081101561005457600080fd5b810190808051604051939291908464010000000082111561007457600080fd5b90830190602082018581111561008957600080fd5b82516401000000008111828201881017156100a357600080fd5b82525081516020918201929091019080838360005b838110156100d05781810151838201526020016100b8565b50505050905090810190601f1680156100fd5780820380516001836020036101000a031916815260200191505b50604052505081516101179150600090602084019061011e565b50506101b1565b828054600181600116156101000203166002900490600052602060002090601f016020900481019282601f1061015f57805160ff191683800117855561018c565b8280016001018555821561018c579182015b8281111561018c578251825591602001919060010190610171565b5061019892915061019c565b5090565b5b80821115610198576000815560010161019d565b61018f806101c06000396000f3fe608060405234801561001057600080fd5b506004361061002b5760003560e01c8063f76f8d7814610030575b600080fd5b6100386100ad565b6040805160208082528351818301528351919283929083019185019080838360005b8381101561007257818101518382015260200161005a565b50505050905090810190601f16801561009f5780820380516001836020036101000a031916815260200191505b509250505060405180910390f35b6000805460408051602060026001851615610100027fffffffffffffffffffffffffffffffffffffffffffffffffffffffffffffffff0190941693909304601f810184900484028201840190925281815292918301828280156101515780601f1061012657610100808354040283529160200191610151565b820191906000526020600020905b81548152906001019060200180831161013457829003601f168201915b50505050508156fea2646970667358221220e80061931e76add5b3433e4e908d68071afe8a89500c3d800383143a5b6fe33e64736f6c634300060c0033",
  "immutableReferences": {},
  "source": "// SPDX-License-Identifier: MIT\n\npragma solidity ^0.6.0;\n\n\ncontract TokenWithStringCAPSSymbolMock {\n    // solhint-disable var-name-mixedcase\n    string public SYMBOL = \"ABC\";\n\n    constructor(string memory s) public {\n        SYMBOL = s;\n    }\n}\n",
  "sourcePath": "/Users/k06a/Projects/mooniswap-v2/contracts/mocks/TokenWithStringCAPSSymbolMock.sol",
  "compiler": {
    "name": "solc",
    "version": "0.6.12+commit.27d51765.Emscripten.clang"
  },
  "schemaVersion": "3.3.2",
  "updatedAt": "2020-11-30T13:22:04.116Z",
  "devdoc": {
    "kind": "dev",
    "methods": {},
    "version": 1
  },
  "userdoc": {
    "kind": "user",
    "methods": {},
    "version": 1
  }
}