{
  "address": "0x735247fb0a604c0adC6cab38ACE16D0DbA31295F",
  "abi": [
    {
      "inputs": [
        {
          "internalType": "address",
          "name": "_poolOwner",
          "type": "address"
        },
        {
          "internalType": "contract IMooniswapDeployer",
          "name": "_mooniswapDeployer",
          "type": "address"
        },
        {
          "internalType": "address",
          "name": "_governanceMothership",
          "type": "address"
        }
      ],
      "stateMutability": "nonpayable",
      "type": "constructor"
    },
    {
      "anonymous": false,
      "inputs": [
        {
          "indexed": true,
          "internalType": "address",
          "name": "user",
          "type": "address"
        },
        {
          "indexed": false,
          "internalType": "uint256",
          "name": "decayPeriod",
          "type": "uint256"
        },
        {
          "indexed": false,
          "internalType": "bool",
          "name": "isDefault",
          "type": "bool"
        },
        {
          "indexed": false,
          "internalType": "uint256",
          "name": "amount",
          "type": "uint256"
        }
      ],
      "name": "DefaultDecayPeriodVoteUpdate",
      "type": "event"
    },
    {
      "anonymous": false,
      "inputs": [
        {
          "indexed": true,
          "internalType": "address",
          "name": "user",
          "type": "address"
        },
        {
          "indexed": false,
          "internalType": "uint256",
          "name": "fee",
          "type": "uint256"
        },
        {
          "indexed": false,
          "internalType": "bool",
          "name": "isDefault",
          "type": "bool"
        },
        {
          "indexed": false,
          "internalType": "uint256",
          "name": "amount",
          "type": "uint256"
        }
      ],
      "name": "DefaultFeeVoteUpdate",
      "type": "event"
    },
    {
      "anonymous": false,
      "inputs": [
        {
          "indexed": true,
          "internalType": "address",
          "name": "user",
          "type": "address"
        },
        {
          "indexed": false,
          "internalType": "uint256",
          "name": "slippageFee",
          "type": "uint256"
        },
        {
          "indexed": false,
          "internalType": "bool",
          "name": "isDefault",
          "type": "bool"
        },
        {
          "indexed": false,
          "internalType": "uint256",
          "name": "amount",
          "type": "uint256"
        }
      ],
      "name": "DefaultSlippageFeeVoteUpdate",
      "type": "event"
    },
    {
      "anonymous": false,
      "inputs": [
        {
          "indexed": true,
          "internalType": "contract Mooniswap",
          "name": "mooniswap",
          "type": "address"
        },
        {
          "indexed": true,
          "internalType": "contract IERC20",
          "name": "token1",
          "type": "address"
        },
        {
          "indexed": true,
          "internalType": "contract IERC20",
          "name": "token2",
          "type": "address"
        }
      ],
      "name": "Deployed",
      "type": "event"
    },
    {
      "anonymous": false,
      "inputs": [
        {
          "indexed": false,
          "internalType": "address",
          "name": "feeCollector",
          "type": "address"
        }
      ],
      "name": "FeeCollectorUpdate",
      "type": "event"
    },
    {
      "anonymous": false,
      "inputs": [
        {
          "indexed": true,
          "internalType": "address",
          "name": "user",
          "type": "address"
        },
        {
          "indexed": false,
          "internalType": "uint256",
          "name": "governanceShare",
          "type": "uint256"
        },
        {
          "indexed": false,
          "internalType": "bool",
          "name": "isDefault",
          "type": "bool"
        },
        {
          "indexed": false,
          "internalType": "uint256",
          "name": "amount",
          "type": "uint256"
        }
      ],
      "name": "GovernanceShareVoteUpdate",
      "type": "event"
    },
    {
      "anonymous": false,
      "inputs": [
        {
          "indexed": false,
          "internalType": "address",
          "name": "governanceWallet",
          "type": "address"
        }
      ],
      "name": "GovernanceWalletUpdate",
      "type": "event"
    },
    {
      "anonymous": false,
      "inputs": [
        {
          "indexed": true,
          "internalType": "address",
          "name": "previousOwner",
          "type": "address"
        },
        {
          "indexed": true,
          "internalType": "address",
          "name": "newOwner",
          "type": "address"
        }
      ],
      "name": "OwnershipTransferred",
      "type": "event"
    },
    {
      "anonymous": false,
      "inputs": [
        {
          "indexed": false,
          "internalType": "address",
          "name": "account",
          "type": "address"
        }
      ],
      "name": "Paused",
      "type": "event"
    },
    {
      "anonymous": false,
      "inputs": [
        {
          "indexed": true,
          "internalType": "address",
          "name": "user",
          "type": "address"
        },
        {
          "indexed": false,
          "internalType": "uint256",
          "name": "referralShare",
          "type": "uint256"
        },
        {
          "indexed": false,
          "internalType": "bool",
          "name": "isDefault",
          "type": "bool"
        },
        {
          "indexed": false,
          "internalType": "uint256",
          "name": "amount",
          "type": "uint256"
        }
      ],
      "name": "ReferralShareVoteUpdate",
      "type": "event"
    },
    {
      "anonymous": false,
      "inputs": [
        {
          "indexed": false,
          "internalType": "address",
          "name": "account",
          "type": "address"
        }
      ],
      "name": "Unpaused",
      "type": "event"
    },
    {
      "inputs": [
        {
          "internalType": "uint256",
          "name": "",
          "type": "uint256"
        }
      ],
      "name": "allPools",
      "outputs": [
        {
          "internalType": "contract Mooniswap",
          "name": "",
          "type": "address"
        }
      ],
      "stateMutability": "view",
      "type": "function"
    },
    {
      "inputs": [
        {
          "internalType": "address",
          "name": "account",
          "type": "address"
        }
      ],
      "name": "balanceOf",
      "outputs": [
        {
          "internalType": "uint256",
          "name": "",
          "type": "uint256"
        }
      ],
      "stateMutability": "view",
      "type": "function"
    },
    {
      "inputs": [],
      "name": "defaultDecayPeriod",
      "outputs": [
        {
          "internalType": "uint256",
          "name": "",
          "type": "uint256"
        }
      ],
      "stateMutability": "view",
      "type": "function"
    },
    {
      "inputs": [
        {
          "internalType": "uint256",
          "name": "vote",
          "type": "uint256"
        }
      ],
      "name": "defaultDecayPeriodVote",
      "outputs": [],
      "stateMutability": "nonpayable",
      "type": "function"
    },
    {
      "inputs": [
        {
          "internalType": "address",
          "name": "user",
          "type": "address"
        }
      ],
      "name": "defaultDecayPeriodVotes",
      "outputs": [
        {
          "internalType": "uint256",
          "name": "",
          "type": "uint256"
        }
      ],
      "stateMutability": "view",
      "type": "function"
    },
    {
      "inputs": [],
      "name": "defaultFee",
      "outputs": [
        {
          "internalType": "uint256",
          "name": "",
          "type": "uint256"
        }
      ],
      "stateMutability": "view",
      "type": "function"
    },
    {
      "inputs": [
        {
          "internalType": "uint256",
          "name": "vote",
          "type": "uint256"
        }
      ],
      "name": "defaultFeeVote",
      "outputs": [],
      "stateMutability": "nonpayable",
      "type": "function"
    },
    {
      "inputs": [
        {
          "internalType": "address",
          "name": "user",
          "type": "address"
        }
      ],
      "name": "defaultFeeVotes",
      "outputs": [
        {
          "internalType": "uint256",
          "name": "",
          "type": "uint256"
        }
      ],
      "stateMutability": "view",
      "type": "function"
    },
    {
      "inputs": [],
      "name": "defaultSlippageFee",
      "outputs": [
        {
          "internalType": "uint256",
          "name": "",
          "type": "uint256"
        }
      ],
      "stateMutability": "view",
      "type": "function"
    },
    {
      "inputs": [
        {
          "internalType": "uint256",
          "name": "vote",
          "type": "uint256"
        }
      ],
      "name": "defaultSlippageFeeVote",
      "outputs": [],
      "stateMutability": "nonpayable",
      "type": "function"
    },
    {
      "inputs": [
        {
          "internalType": "address",
          "name": "user",
          "type": "address"
        }
      ],
      "name": "defaultSlippageFeeVotes",
      "outputs": [
        {
          "internalType": "uint256",
          "name": "",
          "type": "uint256"
        }
      ],
      "stateMutability": "view",
      "type": "function"
    },
    {
      "inputs": [],
      "name": "defaults",
      "outputs": [
        {
          "internalType": "uint256",
          "name": "",
          "type": "uint256"
        },
        {
          "internalType": "uint256",
          "name": "",
          "type": "uint256"
        },
        {
          "internalType": "uint256",
          "name": "",
          "type": "uint256"
        }
      ],
      "stateMutability": "view",
      "type": "function"
    },
    {
      "inputs": [
        {
          "internalType": "contract IERC20",
          "name": "tokenA",
          "type": "address"
        },
        {
          "internalType": "contract IERC20",
          "name": "tokenB",
          "type": "address"
        }
      ],
      "name": "deploy",
      "outputs": [
        {
          "internalType": "contract Mooniswap",
          "name": "pool",
          "type": "address"
        }
      ],
      "stateMutability": "nonpayable",
      "type": "function"
    },
    {
      "inputs": [],
      "name": "discardDefaultDecayPeriodVote",
      "outputs": [],
      "stateMutability": "nonpayable",
      "type": "function"
    },
    {
      "inputs": [],
      "name": "discardDefaultFeeVote",
      "outputs": [],
      "stateMutability": "nonpayable",
      "type": "function"
    },
    {
      "inputs": [],
      "name": "discardDefaultSlippageFeeVote",
      "outputs": [],
      "stateMutability": "nonpayable",
      "type": "function"
    },
    {
      "inputs": [],
      "name": "discardGovernanceShareVote",
      "outputs": [],
      "stateMutability": "nonpayable",
      "type": "function"
    },
    {
      "inputs": [],
      "name": "discardReferralShareVote",
      "outputs": [],
      "stateMutability": "nonpayable",
      "type": "function"
    },
    {
      "inputs": [],
      "name": "feeCollector",
      "outputs": [
        {
          "internalType": "address",
          "name": "",
          "type": "address"
        }
      ],
      "stateMutability": "view",
      "type": "function"
    },
    {
      "inputs": [],
      "name": "getAllPools",
      "outputs": [
        {
          "internalType": "contract Mooniswap[]",
          "name": "",
          "type": "address[]"
        }
      ],
      "stateMutability": "view",
      "type": "function"
    },
    {
      "inputs": [],
      "name": "governanceShare",
      "outputs": [
        {
          "internalType": "uint256",
          "name": "",
          "type": "uint256"
        }
      ],
      "stateMutability": "view",
      "type": "function"
    },
    {
      "inputs": [
        {
          "internalType": "uint256",
          "name": "vote",
          "type": "uint256"
        }
      ],
      "name": "governanceShareVote",
      "outputs": [],
      "stateMutability": "nonpayable",
      "type": "function"
    },
    {
      "inputs": [
        {
          "internalType": "address",
          "name": "user",
          "type": "address"
        }
      ],
      "name": "governanceShareVotes",
      "outputs": [
        {
          "internalType": "uint256",
          "name": "",
          "type": "uint256"
        }
      ],
      "stateMutability": "view",
      "type": "function"
    },
    {
      "inputs": [],
      "name": "governanceWallet",
      "outputs": [
        {
          "internalType": "address",
          "name": "",
          "type": "address"
        }
      ],
      "stateMutability": "view",
      "type": "function"
    },
    {
      "inputs": [],
      "name": "isActive",
      "outputs": [
        {
          "internalType": "bool",
          "name": "",
          "type": "bool"
        }
      ],
      "stateMutability": "view",
      "type": "function"
    },
    {
      "inputs": [
        {
          "internalType": "address",
          "name": "",
          "type": "address"
        }
      ],
      "name": "isFeeCollector",
      "outputs": [
        {
          "internalType": "bool",
          "name": "",
          "type": "bool"
        }
      ],
      "stateMutability": "view",
      "type": "function"
    },
    {
      "inputs": [
        {
          "internalType": "contract Mooniswap",
          "name": "",
          "type": "address"
        }
      ],
      "name": "isPool",
      "outputs": [
        {
          "internalType": "bool",
          "name": "",
          "type": "bool"
        }
      ],
      "stateMutability": "view",
      "type": "function"
    },
    {
      "inputs": [],
      "name": "mooniswapDeployer",
      "outputs": [
        {
          "internalType": "contract IMooniswapDeployer",
          "name": "",
          "type": "address"
        }
      ],
      "stateMutability": "view",
      "type": "function"
    },
    {
      "inputs": [],
      "name": "mothership",
      "outputs": [
        {
          "internalType": "address",
          "name": "",
          "type": "address"
        }
      ],
      "stateMutability": "view",
      "type": "function"
    },
    {
      "inputs": [
        {
          "internalType": "address",
          "name": "account",
          "type": "address"
        },
        {
          "internalType": "uint256",
          "name": "newBalance",
          "type": "uint256"
        }
      ],
      "name": "notifyStakeChanged",
      "outputs": [],
      "stateMutability": "nonpayable",
      "type": "function"
    },
    {
      "inputs": [
        {
          "internalType": "address[]",
          "name": "accounts",
          "type": "address[]"
        },
        {
          "internalType": "uint256[]",
          "name": "newBalances",
          "type": "uint256[]"
        }
      ],
      "name": "notifyStakesChanged",
      "outputs": [],
      "stateMutability": "nonpayable",
      "type": "function"
    },
    {
      "inputs": [],
      "name": "owner",
      "outputs": [
        {
          "internalType": "address",
          "name": "",
          "type": "address"
        }
      ],
      "stateMutability": "view",
      "type": "function"
    },
    {
      "inputs": [],
      "name": "paused",
      "outputs": [
        {
          "internalType": "bool",
          "name": "",
          "type": "bool"
        }
      ],
      "stateMutability": "view",
      "type": "function"
    },
    {
      "inputs": [],
      "name": "poolOwner",
      "outputs": [
        {
          "internalType": "address",
          "name": "",
          "type": "address"
        }
      ],
      "stateMutability": "view",
      "type": "function"
    },
    {
      "inputs": [
        {
          "internalType": "contract IERC20",
          "name": "tokenA",
          "type": "address"
        },
        {
          "internalType": "contract IERC20",
          "name": "tokenB",
          "type": "address"
        }
      ],
      "name": "pools",
      "outputs": [
        {
          "internalType": "contract Mooniswap",
          "name": "pool",
          "type": "address"
        }
      ],
      "stateMutability": "view",
      "type": "function"
    },
    {
      "inputs": [],
      "name": "referralShare",
      "outputs": [
        {
          "internalType": "uint256",
          "name": "",
          "type": "uint256"
        }
      ],
      "stateMutability": "view",
      "type": "function"
    },
    {
      "inputs": [
        {
          "internalType": "uint256",
          "name": "vote",
          "type": "uint256"
        }
      ],
      "name": "referralShareVote",
      "outputs": [],
      "stateMutability": "nonpayable",
      "type": "function"
    },
    {
      "inputs": [
        {
          "internalType": "address",
          "name": "user",
          "type": "address"
        }
      ],
      "name": "referralShareVotes",
      "outputs": [
        {
          "internalType": "uint256",
          "name": "",
          "type": "uint256"
        }
      ],
      "stateMutability": "view",
      "type": "function"
    },
    {
      "inputs": [],
      "name": "renounceOwnership",
      "outputs": [],
      "stateMutability": "nonpayable",
      "type": "function"
    },
    {
      "inputs": [
        {
          "internalType": "address",
          "name": "newFeeCollector",
          "type": "address"
        }
      ],
      "name": "setFeeCollector",
      "outputs": [],
      "stateMutability": "nonpayable",
      "type": "function"
    },
    {
      "inputs": [
        {
          "internalType": "address",
          "name": "newGovernanceWallet",
          "type": "address"
        }
      ],
      "name": "setGovernanceWallet",
      "outputs": [],
      "stateMutability": "nonpayable",
      "type": "function"
    },
    {
      "inputs": [],
      "name": "shareParameters",
      "outputs": [
        {
          "internalType": "uint256",
          "name": "",
          "type": "uint256"
        },
        {
          "internalType": "uint256",
          "name": "",
          "type": "uint256"
        },
        {
          "internalType": "address",
          "name": "",
          "type": "address"
        },
        {
          "internalType": "address",
          "name": "",
          "type": "address"
        }
      ],
      "stateMutability": "view",
      "type": "function"
    },
    {
      "inputs": [],
      "name": "shutdown",
      "outputs": [],
      "stateMutability": "nonpayable",
      "type": "function"
    },
    {
      "inputs": [
        {
          "internalType": "contract IERC20",
          "name": "tokenA",
          "type": "address"
        },
        {
          "internalType": "contract IERC20",
          "name": "tokenB",
          "type": "address"
        }
      ],
      "name": "sortTokens",
      "outputs": [
        {
          "internalType": "contract IERC20",
          "name": "",
          "type": "address"
        },
        {
          "internalType": "contract IERC20",
          "name": "",
          "type": "address"
        }
      ],
      "stateMutability": "pure",
      "type": "function"
    },
    {
      "inputs": [],
      "name": "totalSupply",
      "outputs": [
        {
          "internalType": "uint256",
          "name": "",
          "type": "uint256"
        }
      ],
      "stateMutability": "view",
      "type": "function"
    },
    {
      "inputs": [
        {
          "internalType": "address",
          "name": "newOwner",
          "type": "address"
        }
      ],
      "name": "transferOwnership",
      "outputs": [],
      "stateMutability": "nonpayable",
      "type": "function"
    },
    {
      "inputs": [],
      "name": "virtualDefaultDecayPeriod",
      "outputs": [
        {
          "internalType": "uint104",
          "name": "",
          "type": "uint104"
        },
        {
          "internalType": "uint104",
          "name": "",
          "type": "uint104"
        },
        {
          "internalType": "uint48",
          "name": "",
          "type": "uint48"
        }
      ],
      "stateMutability": "view",
      "type": "function"
    },
    {
      "inputs": [],
      "name": "virtualDefaultFee",
      "outputs": [
        {
          "internalType": "uint104",
          "name": "",
          "type": "uint104"
        },
        {
          "internalType": "uint104",
          "name": "",
          "type": "uint104"
        },
        {
          "internalType": "uint48",
          "name": "",
          "type": "uint48"
        }
      ],
      "stateMutability": "view",
      "type": "function"
    },
    {
      "inputs": [],
      "name": "virtualDefaultSlippageFee",
      "outputs": [
        {
          "internalType": "uint104",
          "name": "",
          "type": "uint104"
        },
        {
          "internalType": "uint104",
          "name": "",
          "type": "uint104"
        },
        {
          "internalType": "uint48",
          "name": "",
          "type": "uint48"
        }
      ],
      "stateMutability": "view",
      "type": "function"
    },
    {
      "inputs": [],
      "name": "virtualGovernanceShare",
      "outputs": [
        {
          "internalType": "uint104",
          "name": "",
          "type": "uint104"
        },
        {
          "internalType": "uint104",
          "name": "",
          "type": "uint104"
        },
        {
          "internalType": "uint48",
          "name": "",
          "type": "uint48"
        }
      ],
      "stateMutability": "view",
      "type": "function"
    },
    {
      "inputs": [],
      "name": "virtualReferralShare",
      "outputs": [
        {
          "internalType": "uint104",
          "name": "",
          "type": "uint104"
        },
        {
          "internalType": "uint104",
          "name": "",
          "type": "uint104"
        },
        {
          "internalType": "uint48",
          "name": "",
          "type": "uint48"
        }
      ],
      "stateMutability": "view",
      "type": "function"
    }
  ],
  "transactionHash": "0x5b2ce96e3e994500c105018b463871ff1dcf0e85de95dff450691cc1a55616ea",
  "args": [
    "0x910bf2d50fA5e014Fd06666f456182D4Ab7c8bd2",
    "0xCCf6b19bc2419E776b6ee030044811dA846686fb",
    "0x11DEE30E710B8d4a8630392781Cc3c0046365d4c"
  ],
  "solcInputHash": "4dd535321b80fd9ff34a7b95c5024f19",
  "bytecode": "0x60e06040523480156200001157600080fd5b506040516200343f3803806200343f833981810160405260608110156200003757600080fd5b50805160208201516040909201516001600160601b0319606082901b166080529091908060006200006762000240565b600280546001600160a01b0319166001600160a01b038316908117909155604051919250906000907f8be0079c531659141344cd1fd0a4f28419497f9722a3daafe3b4186f6b6457e0908290a3506002805460ff60a01b19169055620000da600062000244602090811b6200202917901c565b6003600001600001600d6101000a8154816001600160681b0302191690836001600160681b0316021790555062000124670de0b6b3a76400006200024460201b620020291760201c565b6007600001600001600d6101000a8154816001600160681b0302191690836001600160681b0316021790555062000167603c6200024460201b620020291760201c565b600b600001600001600d6101000a8154816001600160681b0302191690836001600160681b03160217905550620001b167016345785d8a00006200024460201b620020291760201c565b600f600001600001600d6101000a8154816001600160681b0302191690836001600160681b03160217905550620001f460006200024460201b620020291760201c565b601380546001600160681b0392909216600160681b02600160681b600160d01b031990921691909117905550506001600160601b0319606092831b811660c052911b1660a052620002a3565b3390565b6000600160681b82106200029f576040805162461bcd60e51b815260206004820152601e60248201527f76616c756520646f6573206e6f742066697420696e2031303420626974730000604482015290519081900360640190fd5b5090565b60805160601c60a05160601c60c05160601c613152620002ed600039806111cf5280611afb525080610fa25280611a9c525080610c2b5280610e01528061198352506131526000f3fe608060405234801561001057600080fd5b50600436106103415760003560e01c8063715018a6116101bd578063c415b95c116100f9578063e9f7e17b116100a2578063f2fde38b1161007c578063f2fde38b146108dc578063f383033514610902578063fb20b7d01461090a578063fc0e74d11461093057610341565b8063e9f7e17b14610891578063edb7a6fa146108ae578063ef54244b146108d457610341565b8063d8f4e0eb116100d3578063d8f4e0eb14610864578063e7a7b5a014610881578063e859e56c1461088957610341565b8063c415b95c146107fc578063cf0b227014610804578063d88ff1f41461080c57610341565b8063901754d711610166578063a42dce8011610140578063a42dce8014610704578063ad3333481461072a578063b0cb4b0a146107ec578063b8ffca32146107f457610341565b8063901754d7146106935780639725ff35146106c157806399fca7d9146106de57610341565b8063865e457311610197578063865e45731461065d5780638d424127146106835780638da5cb5b1461068b57610341565b8063715018a6146106275780637c4423a81461062f578063855559341461065557610341565b80633b90b9bf1161028c5780635a6c72d011610235578063607c219f1161020f578063607c219f146105cb578063612a9f76146105f157806370989330146105f957806370a082311461060157610341565b80635a6c72d0146105955780635b16ebb71461059d5780635c975abb146105c357610341565b806341d1de971161026657806341d1de97146104ed578063544caa561461050a578063545e7c611461056757610341565b80633b90b9bf1461049b5780633eed75c3146104c15780634187b7d6146104c957610341565b80631845f0db116102ee57806323662bb9116102c857806323662bb91461044a57806327a27433146104525780632ba653ec1461047e57610341565b80631845f0db1461041e57806322abd7b21461042657806322f3e2d41461042e57610341565b8063172886e71161031f578063172886e7146103a557806317901de3146103dc57806318160ddd1461041657610341565b8063117036d11461034657806314fd235a1461037e578063151359b41461039d575b600080fd5b61036c6004803603602081101561035c57600080fd5b50356001600160a01b0316610938565b60408051918252519081900360200190f35b61039b6004803603602081101561039457600080fd5b5035610978565b005b61039b610a1e565b6103ad610a65565b6040805194855260208501939093526001600160a01b0391821684840152166060830152519081900360800190f35b6103e4610b1b565b604080516001600160681b03948516815292909316602083015265ffffffffffff168183015290519081900360600190f35b61036c610b47565b61036c610b4d565b6103e4610b9b565b610436610bc7565b604080519115158252519081900360200190f35b61036c610bd7565b61039b6004803603604081101561046857600080fd5b506001600160a01b038135169060200135610c20565b61039b6004803603602081101561049457600080fd5b5035610cab565b610436600480360360208110156104b157600080fd5b50356001600160a01b0316610d9e565b61039b610db3565b6104d1610dff565b604080516001600160a01b039092168252519081900360200190f35b6104d16004803603602081101561050357600080fd5b5035610e23565b6105386004803603604081101561052057600080fd5b506001600160a01b0381358116916020013516610e4a565b60405180836001600160a01b03168152602001826001600160a01b031681526020019250505060405180910390f35b6104d16004803603604081101561057d57600080fd5b506001600160a01b0381358116916020013516610e7e565b61036c61140c565b610436600480360360208110156105b357600080fd5b50356001600160a01b0316611455565b61043661146a565b61039b600480360360208110156105e157600080fd5b50356001600160a01b031661147a565b61039b611542565b6104d161156e565b61036c6004803603602081101561061757600080fd5b50356001600160a01b031661157d565b61039b611598565b61036c6004803603602081101561064557600080fd5b50356001600160a01b0316611656565b61039b611687565b61036c6004803603602081101561067357600080fd5b50356001600160a01b03166116b3565b61039b6116e3565b6104d161172f565b6104d1600480360360408110156106a957600080fd5b506001600160a01b038135811691602001351661173e565b61039b600480360360208110156106d757600080fd5b503561177f565b61036c600480360360208110156106f457600080fd5b50356001600160a01b0316611865565b61039b6004803603602081101561071a57600080fd5b50356001600160a01b0316611895565b61039b6004803603604081101561074057600080fd5b81019060208101813564010000000081111561075b57600080fd5b82018360208201111561076d57600080fd5b8035906020019184602083028401116401000000008311171561078f57600080fd5b9193909290916020810190356401000000008111156107ad57600080fd5b8201836020820111156107bf57600080fd5b803590602001918460208302840111640100000000831117156107e157600080fd5b509092509050611978565b6104d1611a9a565b6103e4611abe565b6104d1611aea565b6104d1611af9565b610814611b1d565b60408051602080825283518183015283519192839290830191858101910280838360005b83811015610850578181015183820152602001610838565b505050509050019250505060405180910390f35b61039b6004803603602081101561087a57600080fd5b5035611b7f565b6103e4611c08565b61036c611c34565b61039b600480360360208110156108a757600080fd5b5035611c7d565b6108b6611d07565b60408051938452602084019290925282820152519081900360600190f35b6103e4611deb565b61039b600480360360208110156108f257600080fd5b50356001600160a01b0316611e17565b61036c611f2c565b61036c6004803603602081101561092057600080fd5b50356001600160a01b0316611f75565b61039b611fad565b6001600160a01b038116600090815260126020908152604080832081519283019091525481526109709067016345785d8a0000612087565b90505b919050565b67016345785d8a00008111156109d5576040805162461bcd60e51b815260206004820152601a60248201527f476f7620736861726520766f746520697320746f6f2068696768000000000000604482015290519081900360640190fd5b33600081815260166020908152604091829020825191820190925290548152610a1b9190610a02846120a3565b610a0b3361157d565b60139392919060006120c2612115565b50565b33600081815260066020908152604091829020825191820190925290548152610a639190610a4a61212e565b610a533361157d565b6003939291906000612149612115565b565b60408051606081018252600f546001600160681b038082168352600160681b8204166020830152600160d01b900465ffffffffffff1691810191909152600090819081908190610ab49061219c565b604080516060810182526013546001600160681b038082168352600160681b8204166020830152600160d01b900465ffffffffffff1691810191909152610afa9061219c565b60175460185492979196506001600160a01b03908116955090911692509050565b600f546001600160681b0380821692600160681b830490911691600160d01b900465ffffffffffff1690565b60005490565b60408051606081018252600b546001600160681b038082168352600160681b8204166020830152600160d01b900465ffffffffffff1691810191909152600090610b969061219c565b905090565b6013546001600160681b0380821692600160681b830490911691600160d01b900465ffffffffffff1690565b6000610bd161146a565b15905090565b604080516060810182526007546001600160681b038082168352600160681b8204166020830152600160d01b900465ffffffffffff1691810191909152600090610b969061219c565b336001600160a01b037f00000000000000000000000000000000000000000000000000000000000000001614610c9d576040805162461bcd60e51b815260206004820152601f60248201527f416363657373207265737472696374656420746f206d6f746865727368697000604482015290519081900360640190fd5b610ca78282612230565b5050565b61012c811115610d02576040805162461bcd60e51b815260206004820152601d60248201527f446563617920706572696f6420766f746520697320746f6f2068696768000000604482015290519081900360640190fd5b603c811015610d58576040805162461bcd60e51b815260206004820152601c60248201527f446563617920706572696f6420766f746520697320746f6f206c6f7700000000604482015290519081900360640190fd5b336000818152600e6020908152604091829020825191820190925290548152610a1b9190610d85846120a3565b610d8e3361157d565b600b93929190603c61238c612115565b60196020526000908152604090205460ff1681565b33600081815260126020908152604091829020825191820190925290548152610a639190610ddf61212e565b610de83361157d565b600f9392919067016345785d8a00006123df612115565b7f000000000000000000000000000000000000000000000000000000000000000081565b601a8181548110610e3057fe5b6000918252602090912001546001600160a01b0316905081565b600080826001600160a01b0316846001600160a01b03161015610e71575082905081610e77565b50819050825b9250929050565b6000816001600160a01b0316836001600160a01b03161415610ee7576040805162461bcd60e51b815260206004820181905260248201527f466163746f72793a206e6f7420737570706f72742073616d6520746f6b656e73604482015290519081900360640190fd5b600080610ef48585610e4a565b6001600160a01b038083166000908152601c6020908152604080832084861684529091529020549294509092501615610f74576040805162461bcd60e51b815260206004820152601c60248201527f466163746f72793a20706f6f6c20616c72656164792065786973747300000000604482015290519081900360640190fd5b6060610f88836001600160a01b0316612432565b90506060610f9e836001600160a01b0316612432565b90507f00000000000000000000000000000000000000000000000000000000000000006001600160a01b031663b92440b08585858560405160200180807f31696e6368204c697175696469747920506f6f6c20280000000000000000000081525060160183805190602001908083835b6020831061102d5780518252601f19909201916020918201910161100e565b6001836020036101000a03801982511681845116808217855250505050505090500180602d60f81b81525060010182805190602001908083835b602083106110865780518252601f199092019160209182019101611067565b6001836020036101000a038019825116818451168082178552505050505050905001807f290000000000000000000000000000000000000000000000000000000000000081525060010192505050604051602081830303815290604052868660405160200180807f314c502d0000000000000000000000000000000000000000000000000000000081525060040183805190602001908083835b6020831061113f5780518252601f199092019160209182019101611120565b6001836020036101000a03801982511681845116808217855250505050505090500180602d60f81b81525060010182805190602001908083835b602083106111985780518252601f199092019160209182019101611179565b6001836020036101000a038019825116818451168082178552505050505050905001925050506040516020818303038152906040527f00000000000000000000000000000000000000000000000000000000000000006040518663ffffffff1660e01b815260040180866001600160a01b03168152602001856001600160a01b031681526020018060200180602001846001600160a01b03168152602001838103835286818151815260200191508051906020019080838360005b8381101561126b578181015183820152602001611253565b50505050905090810190601f1680156112985780820380516001836020036101000a031916815260200191505b50838103825285518152855160209182019187019080838360005b838110156112cb5781810151838201526020016112b3565b50505050905090810190601f1680156112f85780820380516001836020036101000a031916815260200191505b50975050505050505050602060405180830381600087803b15801561131c57600080fd5b505af1158015611330573d6000803e3d6000fd5b505050506040513d602081101561134657600080fd5b50516001600160a01b038086166000818152601c6020908152604080832089861680855290835281842080549688166001600160a01b03199788168117909155601a805460018181019092557f057c384a7d1c54f3a1b2e5e67b2617b8224fdfd1ea7234eea573a6ff665ff63e0180549098168217909755808552601b909352818420805460ff19169096179095555194995092939192917fc95935a66d15e0da5e412aca0ad27ae891d20b2fb91cf3994b6a3bf2b81780829190a45050505092915050565b604080516060810182526003546001600160681b038082168352600160681b8204166020830152600160d01b900465ffffffffffff1691810191909152600090610b969061219c565b601b6020526000908152604090205460ff1681565b600254600160a01b900460ff1690565b61148261290d565b6001600160a01b031661149361172f565b6001600160a01b0316146114ee576040805162461bcd60e51b815260206004820181905260248201527f4f776e61626c653a2063616c6c6572206973206e6f7420746865206f776e6572604482015290519081900360640190fd5b601780546001600160a01b0383166001600160a01b0319909116811790915560408051918252517fe348b7d1d8572de16c7301317890112a52bd7f6c3b713bd7d70e4cffb489ed9f9181900360200190a150565b33600081815260166020908152604091829020825191820190925290548152610a639190610a0261212e565b6017546001600160a01b031681565b6001600160a01b031660009081526001602052604090205490565b6115a061290d565b6001600160a01b03166115b161172f565b6001600160a01b03161461160c576040805162461bcd60e51b815260206004820181905260248201527f4f776e61626c653a2063616c6c6572206973206e6f7420746865206f776e6572604482015290519081900360640190fd5b6002546040516000916001600160a01b0316907f8be0079c531659141344cd1fd0a4f28419497f9722a3daafe3b4186f6b6457e0908390a3600280546001600160a01b0319169055565b6001600160a01b0381166000908152600e60209081526040808320815192830190915254815261097090603c612087565b336000818152600e6020908152604091829020825191820190925290548152610a639190610d8561212e565b6001600160a01b038116600090815260166020908152604080832081519283019091525481526109709082612087565b336000818152600a6020908152604091829020825191820190925290548152610a63919061170f61212e565b6117183361157d565b600793929190670de0b6b3a7640000612911612115565b6002546001600160a01b031690565b600080600061174d8585610e4a565b6001600160a01b039182166000908152601c602090815260408083209385168352929052205416925050505b92915050565b67016345785d8a00008111156117dc576040805162461bcd60e51b815260206004820152601f60248201527f526566657272616c20736861726520766f746520697320746f6f206869676800604482015290519081900360640190fd5b66b1a2bc2ec50000811015611838576040805162461bcd60e51b815260206004820152601e60248201527f526566657272616c20736861726520766f746520697320746f6f206c6f770000604482015290519081900360640190fd5b33600081815260126020908152604091829020825191820190925290548152610a1b9190610ddf846120a3565b6001600160a01b038116600090815260066020908152604080832081519283019091525481526109709082612087565b61189d61290d565b6001600160a01b03166118ae61172f565b6001600160a01b031614611909576040805162461bcd60e51b815260206004820181905260248201527f4f776e61626c653a2063616c6c6572206973206e6f7420746865206f776e6572604482015290519081900360640190fd5b601880546001600160a01b0319166001600160a01b038316908117909155600081815260196020908152604091829020805460ff19166001179055815192835290517ffa7dc4914c53d1cee4cf31f857b016d55f8c6d28d5f950e64c7258a4fa18de199281900390910190a150565b336001600160a01b037f000000000000000000000000000000000000000000000000000000000000000016146119f5576040805162461bcd60e51b815260206004820152601f60248201527f416363657373207265737472696374656420746f206d6f746865727368697000604482015290519081900360640190fd5b828114611a49576040805162461bcd60e51b815260206004820152601d60248201527f417272617973206c656e6774682073686f756c6420626520657175616c000000604482015290519081900360640190fd5b60005b83811015611a9357611a8b858583818110611a6357fe5b905060200201356001600160a01b0316848484818110611a7f57fe5b90506020020135612230565b600101611a4c565b5050505050565b7f000000000000000000000000000000000000000000000000000000000000000081565b6007546001600160681b0380821692600160681b830490911691600160d01b900465ffffffffffff1690565b6018546001600160a01b031681565b7f000000000000000000000000000000000000000000000000000000000000000081565b6060601a805480602002602001604051908101604052809291908181526020018280548015611b7557602002820191906000526020600020905b81546001600160a01b03168152600190910190602001808311611b57575b5050505050905090565b662386f26fc10000811115611bdb576040805162461bcd60e51b815260206004820152601460248201527f46656520766f746520697320746f6f2068696768000000000000000000000000604482015290519081900360640190fd5b33600081815260066020908152604091829020825191820190925290548152610a1b9190610a4a846120a3565b6003546001600160681b0380821692600160681b830490911691600160d01b900465ffffffffffff1690565b60408051606081018252600f546001600160681b038082168352600160681b8204166020830152600160d01b900465ffffffffffff1691810191909152600090610b969061219c565b670de0b6b3a7640000811115611cda576040805162461bcd60e51b815260206004820152601d60248201527f536c6970706167652066656520766f746520697320746f6f2068696768000000604482015290519081900360640190fd5b336000818152600a6020908152604091829020825191820190925290548152610a1b919061170f846120a3565b604080516060810182526003546001600160681b038082168352600160681b8204166020830152600160d01b900465ffffffffffff169181019190915260009081908190611d549061219c565b604080516060810182526007546001600160681b038082168352600160681b8204166020830152600160d01b900465ffffffffffff1691810191909152611d9a9061219c565b60408051606081018252600b546001600160681b038082168352600160681b8204166020830152600160d01b900465ffffffffffff1691810191909152611de09061219c565b925092509250909192565b600b546001600160681b0380821692600160681b830490911691600160d01b900465ffffffffffff1690565b611e1f61290d565b6001600160a01b0316611e3061172f565b6001600160a01b031614611e8b576040805162461bcd60e51b815260206004820181905260248201527f4f776e61626c653a2063616c6c6572206973206e6f7420746865206f776e6572604482015290519081900360640190fd5b6001600160a01b038116611ed05760405162461bcd60e51b81526004018080602001828103825260268152602001806130d66026913960400191505060405180910390fd5b6002546040516001600160a01b038084169216907f8be0079c531659141344cd1fd0a4f28419497f9722a3daafe3b4186f6b6457e090600090a3600280546001600160a01b0319166001600160a01b0392909216919091179055565b604080516060810182526013546001600160681b038082168352600160681b8204166020830152600160d01b900465ffffffffffff1691810191909152600090610b969061219c565b6001600160a01b0381166000908152600a60209081526040808320815192830190915254815261097090670de0b6b3a7640000612087565b611fb561290d565b6001600160a01b0316611fc661172f565b6001600160a01b031614612021576040805162461bcd60e51b815260206004820181905260248201527f4f776e61626c653a2063616c6c6572206973206e6f7420746865206f776e6572604482015290519081900360640190fd5b610a63612964565b6000600160681b8210612083576040805162461bcd60e51b815260206004820152601e60248201527f76616c756520646f6573206e6f742066697420696e2031303420626974730000604482015290519081900360640190fd5b5090565b81516000901561209d5750815160001901611779565b50919050565b6120ab6130a2565b506040805160208101909152600182018152919050565b60408051848152831515602082015280820183905290516001600160a01b038616917f02540a8a88261967ef1c1a4ed50fde9f0a0a493922c069129e21961198e1b439919081900360600190a250505050565b6121258787878787888888612a32565b50505050505050565b6121366130a2565b5060408051602081019091526000815290565b60408051848152831515602082015280820183905290516001600160a01b038616917f28eed64d01e23014333abef902958309592b3cf9ce9da390f224467cfcaaf5b2919081900360600190a250505050565b6000806121ca620151806121c5856040015165ffffffffffff1642612c3b90919063ffffffff16565b612c98565b905060006121db6201518083612c3b565b9050612228620151806122226122078588602001516001600160681b0316612cb090919063ffffffff16565b875161221c906001600160681b031686612cb0565b90612d09565b90612d63565b949350505050565b600061223c8383612dca565b90508082141561224c5750610ca7565b6001600160a01b0383166000908152600660209081526040808320815192830190915254815261228791600391869185908790612149612e25565b6001600160a01b0383166000908152600a60209081526040918290208251918201909252905481526122cb9060079085908486670de0b6b3a7640000612911612e25565b6001600160a01b0383166000908152600e602090815260409182902082519182019092529054815261230890600b9085908486603c61238c612e25565b6001600160a01b03831660009081526012602090815260409182902082519182019092529054815261234c90600f908590848667016345785d8a00006123df612e25565b6001600160a01b03831660009081526016602090815260408083208151928301909152548152612387916013918691859087906120c2612e25565b505050565b60408051848152831515602082015280820183905290516001600160a01b038616917f2d2d732aa884d37295a1b5995321d502ebc228d25e644eef0a435d4e5f245acd919081900360600190a250505050565b60408051848152831515602082015280820183905290516001600160a01b038616917ffa67c3ef5d30b2838a61d783cb71a076e17984d05840f2dfa1521135df49557b919081900360600190a250505050565b606061243d82612e48565b1561247c575060408051808201909152600381527f45544800000000000000000000000000000000000000000000000000000000006020820152610973565b60408051600481526024810182526020810180517bffffffffffffffffffffffffffffffffffffffffffffffffffffffff167f95d89b4100000000000000000000000000000000000000000000000000000000178152915181516000936060936001600160a01b03881693614e2093919290918291908083835b602083106125155780518252601f1990920191602091820191016124f6565b6001836020036101000a0380198251168184511680821785525050505050509050019150506000604051808303818686fa925050503d8060008114612576576040519150601f19603f3d011682016040523d82523d6000602084013e61257b565b606091505b5091509150816126835760408051600481526024810182526020810180517bffffffffffffffffffffffffffffffffffffffffffffffffffffffff167ff76f8d7800000000000000000000000000000000000000000000000000000000178152915181516001600160a01b03881693614e209392918291908083835b602083106126165780518252601f1990920191602091820191016125f7565b6001836020036101000a0380198251168184511680821785525050505050509050019150506000604051808303818686fa925050503d8060008114612677576040519150601f19603f3d011682016040523d82523d6000602084013e61267c565b606091505b5090925090505b81801561269257506060815110155b156127b1576000808280602001905160408110156126af57600080fd5b5080516020918201519093509150821480156126cb5750600081115b80156126d957506101008111155b156127ae578280602001905160208110156126f357600080fd5b810190808051604051939291908464010000000082111561271357600080fd5b90830190602082018581111561272857600080fd5b825164010000000081118282018810171561274257600080fd5b82525081516020918201929091019080838360005b8381101561276f578181015183820152602001612757565b50505050905090810190601f16801561279c5780820380516001836020036101000a031916815260200191505b50604052505050945050505050610973565b50505b8180156127bf575080516020145b156129045760005b81518110801561280d5750602060f81b8282815181106127e357fe5b01602001517fff000000000000000000000000000000000000000000000000000000000000001610155b801561284f5750607e60f81b82828151811061282557fe5b01602001517fff000000000000000000000000000000000000000000000000000000000000001611155b1561285c576001016127c7565b80156129025760608167ffffffffffffffff8111801561287b57600080fd5b506040519080825280601f01601f1916602001820160405280156128a6576020820181803683370190505b50905060005b828110156128f6578381815181106128c057fe5b602001015160f81c60f81b8282815181106128d757fe5b60200101906001600160f81b031916908160001a9053506001016128ac565b50935061097392505050565b505b61222884612e55565b3390565b60408051848152831515602082015280820183905290516001600160a01b038616917f214419d1bacc9564ca0fcf6552dad3ec0aa54c97de900de89dc202e6bbd9198a919081900360600190a250505050565b61296c61146a565b156129be576040805162461bcd60e51b815260206004820152601060248201527f5061757361626c653a2070617573656400000000000000000000000000000000604482015290519081900360640190fd5b600280547fffffffffffffffffffffff00ffffffffffffffffffffffffffffffffffffffff16600160a01b1790557f62e78cea01bee320cd4e420270b5ea74000d11b0c9f74754ebdbfc544b05a258612a1561290d565b604080516001600160a01b039092168252519081900360200190a1565b60018801546002890154819080612a488a612e8b565b612a7957612a6a612a63612a5c8c89612087565b8a90612cb0565b8490612c3b565b9250612a768189612c3b565b90505b612a8289612e8b565b612ab357612aa4612a9d612a968b89612087565b8990612cb0565b8490612d09565b9250612ab08188612d09565b90505b838314612ac25760018c018390555b818114612ad15760028c018190555b60008115612ae857612ae38483612d63565b612aea565b865b9050612af46130b5565b50604080516060810182528e546001600160681b038082168352600160681b82041660208301819052600160d01b90910465ffffffffffff1692820192909252908214612bdc578d612b4d612b488361219c565b612029565b612b5684612029565b612b5f42612e90565b835479ffffffffffffffffffffffffffffffffffffffffffffffffffff16600160d01b65ffffffffffff9290921691909102177fffffffffffff00000000000000000000000000ffffffffffffffffffffffffff16600160681b6001600160681b0392831602176cffffffffffffffffffffffffff191691161790555b50612be99050898b612eed565b612c0c576001600160a01b038b16600090815260038d0160205260409020895190555b612c2d8b612c1a8b89612087565b612c238c612e8b565b8a8963ffffffff16565b505050505050505050505050565b600082821115612c92576040805162461bcd60e51b815260206004820152601e60248201527f536166654d6174683a207375627472616374696f6e206f766572666c6f770000604482015290519081900360640190fd5b50900390565b6000818310612ca75781612ca9565b825b9392505050565b600082612cbf57506000611779565b82820282848281612ccc57fe5b0414612ca95760405162461bcd60e51b81526004018080602001828103825260218152602001806130fc6021913960400191505060405180910390fd5b600082820183811015612ca9576040805162461bcd60e51b815260206004820152601b60248201527f536166654d6174683a206164646974696f6e206f766572666c6f770000000000604482015290519081900360640190fd5b6000808211612db9576040805162461bcd60e51b815260206004820152601a60248201527f536166654d6174683a206469766973696f6e206279207a65726f000000000000604482015290519081900360640190fd5b818381612dc257fe5b049392505050565b6001600160a01b038216600090815260016020526040902054818114611779576001600160a01b038316600090815260016020526040812083905554612e1c908290612e169085612d09565b90612c3b565b60005592915050565b6121258787878615612e375788612e3f565b612e3f61212e565b88888888612a32565b6001600160a01b03161590565b60606109708260405160200180826001600160a01b031660601b8152601401915050604051602081830303815290604052612ef4565b511590565b600066010000000000008210612083576040805162461bcd60e51b815260206004820152601d60248201527f76616c756520646f6573206e6f742066697420696e2034382062697473000000604482015290519081900360640190fd5b5190511490565b606080825160020260020167ffffffffffffffff81118015612f1557600080fd5b506040519080825280601f01601f191660200182016040528015612f40576020820181803683370190505b5090507f300000000000000000000000000000000000000000000000000000000000000081600081518110612f7157fe5b60200101906001600160f81b031916908160001a9053507f780000000000000000000000000000000000000000000000000000000000000081600181518110612fb657fe5b60200101906001600160f81b031916908160001a905350600260005b84518110156130995760006004868381518110612feb57fe5b602001015160f81c60f81b60f81c60ff16901c60ff169050600086838151811061301157fe5b60209101015160f81c600f169050600a8204602702826030010160f81b85858060010196508151811061304057fe5b60200101906001600160f81b031916908160001a905350600a8104602702816030010160f81b85858060010196508151811061307857fe5b60200101906001600160f81b031916908160001a9053505050600101612fd2565b50909392505050565b6040518060200160405280600081525090565b60408051606081018252600080825260208201819052918101919091529056fe4f776e61626c653a206e6577206f776e657220697320746865207a65726f2061646472657373536166654d6174683a206d756c7469706c69636174696f6e206f766572666c6f77a2646970667358221220d3e1b132547ab019a0238edc39452ed745f5ee4f274f23e4914ce441a115e35a64736f6c634300060c0033",
  "devdoc": {
    "kind": "dev",
    "methods": {
      "owner()": {
        "details": "Returns the address of the current owner."
      },
      "paused()": {
        "details": "Returns true if the contract is paused, and false otherwise."
      },
      "renounceOwnership()": {
        "details": "Leaves the contract without owner. It will not be possible to call `onlyOwner` functions anymore. Can only be called by the current owner. NOTE: Renouncing ownership will leave the contract without an owner, thereby removing any functionality that is only available to the owner."
      },
      "transferOwnership(address)": {
        "details": "Transfers ownership of the contract to a new account (`newOwner`). Can only be called by the current owner."
      }
    },
    "version": 1
  },
  "userdoc": {
    "kind": "user",
    "methods": {},
    "version": 1
  },
  "storageLayout": {
    "storage": [
      {
        "astId": 10226,
        "contract": "contracts/MooniswapFactory.sol:MooniswapFactory",
        "label": "_totalSupply",
        "offset": 0,
        "slot": "0",
        "type": "t_uint256"
      },
      {
        "astId": 10230,
        "contract": "contracts/MooniswapFactory.sol:MooniswapFactory",
        "label": "_balances",
        "offset": 0,
        "slot": "1",
        "type": "t_mapping(t_address,t_uint256)"
      },
      {
        "astId": 7,
        "contract": "contracts/MooniswapFactory.sol:MooniswapFactory",
        "label": "_owner",
        "offset": 0,
        "slot": "2",
        "type": "t_address"
      },
      {
        "astId": 1668,
        "contract": "contracts/MooniswapFactory.sol:MooniswapFactory",
        "label": "_paused",
        "offset": 20,
        "slot": "2",
        "type": "t_bool"
      },
      {
        "astId": 5138,
        "contract": "contracts/MooniswapFactory.sol:MooniswapFactory",
        "label": "_defaultFee",
        "offset": 0,
        "slot": "3",
        "type": "t_struct(Data)8227_storage"
      },
      {
        "astId": 5140,
        "contract": "contracts/MooniswapFactory.sol:MooniswapFactory",
        "label": "_defaultSlippageFee",
        "offset": 0,
        "slot": "7",
        "type": "t_struct(Data)8227_storage"
      },
      {
        "astId": 5142,
        "contract": "contracts/MooniswapFactory.sol:MooniswapFactory",
        "label": "_defaultDecayPeriod",
        "offset": 0,
        "slot": "11",
        "type": "t_struct(Data)8227_storage"
      },
      {
        "astId": 5144,
        "contract": "contracts/MooniswapFactory.sol:MooniswapFactory",
        "label": "_referralShare",
        "offset": 0,
        "slot": "15",
        "type": "t_struct(Data)8227_storage"
      },
      {
        "astId": 5146,
        "contract": "contracts/MooniswapFactory.sol:MooniswapFactory",
        "label": "_governanceShare",
        "offset": 0,
        "slot": "19",
        "type": "t_struct(Data)8227_storage"
      },
      {
        "astId": 5149,
        "contract": "contracts/MooniswapFactory.sol:MooniswapFactory",
        "label": "governanceWallet",
        "offset": 0,
        "slot": "23",
        "type": "t_address"
      },
      {
        "astId": 5152,
        "contract": "contracts/MooniswapFactory.sol:MooniswapFactory",
        "label": "feeCollector",
        "offset": 0,
        "slot": "24",
        "type": "t_address"
      },
      {
        "astId": 5157,
        "contract": "contracts/MooniswapFactory.sol:MooniswapFactory",
        "label": "isFeeCollector",
        "offset": 0,
        "slot": "25",
        "type": "t_mapping(t_address,t_bool)"
      },
      {
        "astId": 3619,
        "contract": "contracts/MooniswapFactory.sol:MooniswapFactory",
        "label": "allPools",
        "offset": 0,
        "slot": "26",
        "type": "t_array(t_contract(Mooniswap)3550)dyn_storage"
      },
      {
        "astId": 3624,
        "contract": "contracts/MooniswapFactory.sol:MooniswapFactory",
        "label": "isPool",
        "offset": 0,
        "slot": "27",
        "type": "t_mapping(t_contract(Mooniswap)3550,t_bool)"
      },
      {
        "astId": 3630,
        "contract": "contracts/MooniswapFactory.sol:MooniswapFactory",
        "label": "_pools",
        "offset": 0,
        "slot": "28",
        "type": "t_mapping(t_contract(IERC20)1118,t_mapping(t_contract(IERC20)1118,t_contract(Mooniswap)3550))"
      }
    ],
    "types": {
      "t_address": {
        "encoding": "inplace",
        "label": "address",
        "numberOfBytes": "20"
      },
      "t_array(t_contract(Mooniswap)3550)dyn_storage": {
        "base": "t_contract(Mooniswap)3550",
        "encoding": "dynamic_array",
        "label": "contract Mooniswap[]",
        "numberOfBytes": "32"
      },
      "t_bool": {
        "encoding": "inplace",
        "label": "bool",
        "numberOfBytes": "1"
      },
      "t_contract(IERC20)1118": {
        "encoding": "inplace",
        "label": "contract IERC20",
        "numberOfBytes": "20"
      },
      "t_contract(Mooniswap)3550": {
        "encoding": "inplace",
        "label": "contract Mooniswap",
        "numberOfBytes": "20"
      },
      "t_mapping(t_address,t_bool)": {
        "encoding": "mapping",
        "key": "t_address",
        "label": "mapping(address => bool)",
        "numberOfBytes": "32",
        "value": "t_bool"
      },
      "t_mapping(t_address,t_struct(Data)9733_storage)": {
        "encoding": "mapping",
        "key": "t_address",
        "label": "mapping(address => struct Vote.Data)",
        "numberOfBytes": "32",
        "value": "t_struct(Data)9733_storage"
      },
      "t_mapping(t_address,t_uint256)": {
        "encoding": "mapping",
        "key": "t_address",
        "label": "mapping(address => uint256)",
        "numberOfBytes": "32",
        "value": "t_uint256"
      },
      "t_mapping(t_contract(IERC20)1118,t_contract(Mooniswap)3550)": {
        "encoding": "mapping",
        "key": "t_contract(IERC20)1118",
        "label": "mapping(contract IERC20 => contract Mooniswap)",
        "numberOfBytes": "32",
        "value": "t_contract(Mooniswap)3550"
      },
      "t_mapping(t_contract(IERC20)1118,t_mapping(t_contract(IERC20)1118,t_contract(Mooniswap)3550))": {
        "encoding": "mapping",
        "key": "t_contract(IERC20)1118",
        "label": "mapping(contract IERC20 => mapping(contract IERC20 => contract Mooniswap))",
        "numberOfBytes": "32",
        "value": "t_mapping(t_contract(IERC20)1118,t_contract(Mooniswap)3550)"
      },
      "t_mapping(t_contract(Mooniswap)3550,t_bool)": {
        "encoding": "mapping",
        "key": "t_contract(Mooniswap)3550",
        "label": "mapping(contract Mooniswap => bool)",
        "numberOfBytes": "32",
        "value": "t_bool"
      },
      "t_struct(Data)8227_storage": {
        "encoding": "inplace",
        "label": "struct ExplicitLiquidVoting.Data",
        "members": [
          {
            "astId": 8218,
            "contract": "contracts/MooniswapFactory.sol:MooniswapFactory",
            "label": "data",
            "offset": 0,
            "slot": "0",
            "type": "t_struct(Data)9677_storage"
          },
          {
            "astId": 8220,
            "contract": "contracts/MooniswapFactory.sol:MooniswapFactory",
            "label": "_weightedSum",
            "offset": 0,
            "slot": "1",
            "type": "t_uint256"
          },
          {
            "astId": 8222,
            "contract": "contracts/MooniswapFactory.sol:MooniswapFactory",
            "label": "_votedSupply",
            "offset": 0,
            "slot": "2",
            "type": "t_uint256"
          },
          {
            "astId": 8226,
            "contract": "contracts/MooniswapFactory.sol:MooniswapFactory",
            "label": "votes",
            "offset": 0,
            "slot": "3",
            "type": "t_mapping(t_address,t_struct(Data)9733_storage)"
          }
        ],
        "numberOfBytes": "128"
      },
      "t_struct(Data)9677_storage": {
        "encoding": "inplace",
        "label": "struct VirtualVote.Data",
        "members": [
          {
            "astId": 9672,
            "contract": "contracts/MooniswapFactory.sol:MooniswapFactory",
            "label": "oldResult",
            "offset": 0,
            "slot": "0",
            "type": "t_uint104"
          },
          {
            "astId": 9674,
            "contract": "contracts/MooniswapFactory.sol:MooniswapFactory",
            "label": "result",
            "offset": 13,
            "slot": "0",
            "type": "t_uint104"
          },
          {
            "astId": 9676,
            "contract": "contracts/MooniswapFactory.sol:MooniswapFactory",
            "label": "time",
            "offset": 26,
            "slot": "0",
            "type": "t_uint48"
          }
        ],
        "numberOfBytes": "32"
      },
      "t_struct(Data)9733_storage": {
        "encoding": "inplace",
        "label": "struct Vote.Data",
        "members": [
          {
            "astId": 9732,
            "contract": "contracts/MooniswapFactory.sol:MooniswapFactory",
            "label": "value",
            "offset": 0,
            "slot": "0",
            "type": "t_uint256"
          }
        ],
        "numberOfBytes": "32"
      },
      "t_uint104": {
        "encoding": "inplace",
        "label": "uint104",
        "numberOfBytes": "13"
      },
      "t_uint256": {
        "encoding": "inplace",
        "label": "uint256",
        "numberOfBytes": "32"
      },
      "t_uint48": {
        "encoding": "inplace",
        "label": "uint48",
        "numberOfBytes": "6"
      }
    }
  }
}