{
  "address": "0x138CE40d675F9a23E4D6127A8600308Cf7A93381",
  "abi": [
    {
      "inputs": [
        {
          "internalType": "contract IERC20",
          "name": "_inchToken",
          "type": "address"
        },
        {
          "internalType": "contract IMooniswapFactory",
          "name": "_mooniswapFactory",
          "type": "address"
        }
      ],
      "stateMutability": "nonpayable",
      "type": "constructor"
    },
    {
      "anonymous": false,
      "inputs": [
        {
          "indexed": true,
          "internalType": "address",
          "name": "previousOwner",
          "type": "address"
        },
        {
          "indexed": true,
          "internalType": "address",
          "name": "newOwner",
          "type": "address"
        }
      ],
      "name": "OwnershipTransferred",
      "type": "event"
    },
    {
      "inputs": [
        {
          "internalType": "contract Mooniswap[]",
          "name": "pools",
          "type": "address[]"
        }
      ],
      "name": "claim",
      "outputs": [],
      "stateMutability": "nonpayable",
      "type": "function"
    },
    {
      "inputs": [
        {
          "internalType": "contract Mooniswap",
          "name": "mooniswap",
          "type": "address"
        }
      ],
      "name": "claimCurrentEpoch",
      "outputs": [],
      "stateMutability": "nonpayable",
      "type": "function"
    },
    {
      "inputs": [
        {
          "internalType": "contract Mooniswap",
          "name": "mooniswap",
          "type": "address"
        }
      ],
      "name": "claimFrozenEpoch",
      "outputs": [],
      "stateMutability": "nonpayable",
      "type": "function"
    },
    {
      "inputs": [
        {
          "internalType": "contract Mooniswap",
          "name": "mooniswap",
          "type": "address"
        }
      ],
      "name": "freezeEpoch",
      "outputs": [],
      "stateMutability": "nonpayable",
      "type": "function"
    },
    {
      "inputs": [],
      "name": "inchToken",
      "outputs": [
        {
          "internalType": "contract IERC20",
          "name": "",
          "type": "address"
        }
      ],
      "stateMutability": "view",
      "type": "function"
    },
    {
      "inputs": [],
      "name": "mooniswapFactory",
      "outputs": [
        {
          "internalType": "contract IMooniswapFactory",
          "name": "",
          "type": "address"
        }
      ],
      "stateMutability": "view",
      "type": "function"
    },
    {
      "inputs": [],
      "name": "owner",
      "outputs": [
        {
          "internalType": "address",
          "name": "",
          "type": "address"
        }
      ],
      "stateMutability": "view",
      "type": "function"
    },
    {
      "inputs": [
        {
          "internalType": "contract IERC20",
          "name": "",
          "type": "address"
        }
      ],
      "name": "pathWhitelist",
      "outputs": [
        {
          "internalType": "bool",
          "name": "",
          "type": "bool"
        }
      ],
      "stateMutability": "view",
      "type": "function"
    },
    {
      "inputs": [],
      "name": "renounceOwnership",
      "outputs": [],
      "stateMutability": "nonpayable",
      "type": "function"
    },
    {
      "inputs": [
        {
          "internalType": "contract IERC20",
          "name": "",
          "type": "address"
        }
      ],
      "name": "tokenInfo",
      "outputs": [
        {
          "internalType": "uint256",
          "name": "firstUnprocessedEpoch",
          "type": "uint256"
        },
        {
          "internalType": "uint256",
          "name": "currentEpoch",
          "type": "uint256"
        }
      ],
      "stateMutability": "view",
      "type": "function"
    },
    {
      "inputs": [
        {
          "internalType": "contract Mooniswap",
          "name": "mooniswap",
          "type": "address"
        },
        {
          "internalType": "contract IERC20[]",
          "name": "path",
          "type": "address[]"
        }
      ],
      "name": "trade",
      "outputs": [],
      "stateMutability": "nonpayable",
      "type": "function"
    },
    {
      "inputs": [
        {
          "internalType": "address",
          "name": "newOwner",
          "type": "address"
        }
      ],
      "name": "transferOwnership",
      "outputs": [],
      "stateMutability": "nonpayable",
      "type": "function"
    },
    {
      "inputs": [
        {
          "internalType": "contract IERC20",
          "name": "token",
          "type": "address"
        },
        {
          "internalType": "bool",
          "name": "whitelisted",
          "type": "bool"
        }
      ],
      "name": "updatePathWhitelist",
      "outputs": [],
      "stateMutability": "nonpayable",
      "type": "function"
    },
    {
      "inputs": [
        {
          "internalType": "address",
          "name": "referral",
          "type": "address"
        },
        {
          "internalType": "uint256",
          "name": "amount",
          "type": "uint256"
        }
      ],
      "name": "updateReward",
      "outputs": [],
      "stateMutability": "nonpayable",
      "type": "function"
    },
    {
      "inputs": [
        {
          "internalType": "address[]",
          "name": "receivers",
          "type": "address[]"
        },
        {
          "internalType": "uint256[]",
          "name": "amounts",
          "type": "uint256[]"
        }
      ],
      "name": "updateRewards",
      "outputs": [],
      "stateMutability": "nonpayable",
      "type": "function"
    },
    {
      "inputs": [
        {
          "internalType": "address",
          "name": "",
          "type": "address"
        }
      ],
      "name": "userInfo",
      "outputs": [
        {
          "internalType": "uint256",
          "name": "balance",
          "type": "uint256"
        }
      ],
      "stateMutability": "view",
      "type": "function"
    },
    {
      "stateMutability": "payable",
      "type": "receive"
    }
  ],
  "transactionHash": "0x8352fc01b11bf2006594ce535f48d1ebacebfa8b478ad2c5d9dee584a5cc1ca5",
  "args": [
    "0x54431918cEC22932fCF97E54769F4E00f646690F",
    "0x735247fb0a604c0adC6cab38ACE16D0DbA31295F"
  ],
  "solcInputHash": "4dd535321b80fd9ff34a7b95c5024f19",
  "bytecode": "0x60c06040523480156200001157600080fd5b506040516200375238038062003752833981810160405260408110156200003757600080fd5b508051602090910151818160006200004e620000be565b600080546001600160a01b0319166001600160a01b0383169081178255604051929350917f8be0079c531659141344cd1fd0a4f28419497f9722a3daafe3b4186f6b6457e0908290a3506001600160601b0319606092831b8116608052911b1660a05250506001600255620000c2565b3390565b60805160601c60a05160601c6136346200011e600039806109b05280610d8d5280610e3d528061135752806116eb5280611c92528061282b5280612a935250806107da5280610d4a5280611529528061185152506136346000f3fe6080604052600436106100f75760003560e01c80638da5cb5b1161008a578063f2fde38b11610059578063f2fde38b146104a5578063f3aafa80146104d8578063f583adbc14610598578063f5dab711146105d357610153565b80638da5cb5b14610415578063946e1a621461042a5780639e96b2ce1461045d578063ec9545941461049057610153565b80635e8c8bb7116100c65780635e8c8bb714610355578063715018a61461039c57806371646f98146103b157806385731140146103e457610153565b80630931753c146101585780631959a002146102275780631a3991251461026c578063318d9e5d146102a557610153565b366101535733321415610151576040805162461bcd60e51b815260206004820152601660248201527f455448207472616e7366657220666f7262696464656e00000000000000000000604482015290519081900360640190fd5b005b600080fd5b34801561016457600080fd5b506101516004803603604081101561017b57600080fd5b81019060208101813564010000000081111561019657600080fd5b8201836020820111156101a857600080fd5b803590602001918460208302840111640100000000831117156101ca57600080fd5b9193909290916020810190356401000000008111156101e857600080fd5b8201836020820111156101fa57600080fd5b8035906020019184602083028401116401000000008311171561021c57600080fd5b50909250905061061f565b34801561023357600080fd5b5061025a6004803603602081101561024a57600080fd5b50356001600160a01b0316610670565b60408051918252519081900360200190f35b34801561027857600080fd5b506101516004803603604081101561028f57600080fd5b506001600160a01b038135169060200135610682565b3480156102b157600080fd5b50610151600480360360208110156102c857600080fd5b8101906020810181356401000000008111156102e357600080fd5b8201836020820111156102f557600080fd5b8035906020019184602083028401116401000000008311171561031757600080fd5b91908080602002602001604051908101604052809392919081815260200183836020028082843760009201919091525092955061072b945050505050565b34801561036157600080fd5b506103886004803603602081101561037857600080fd5b50356001600160a01b0316610851565b604080519115158252519081900360200190f35b3480156103a857600080fd5b50610151610866565b3480156103bd57600080fd5b50610151600480360360208110156103d457600080fd5b50356001600160a01b0316610931565b3480156103f057600080fd5b506103f9610d8b565b604080516001600160a01b039092168252519081900360200190f35b34801561042157600080fd5b506103f9610daf565b34801561043657600080fd5b506101516004803603602081101561044d57600080fd5b50356001600160a01b0316610dbe565b34801561046957600080fd5b506101516004803603602081101561048057600080fd5b50356001600160a01b03166112d8565b34801561049c57600080fd5b506103f9611527565b3480156104b157600080fd5b50610151600480360360208110156104c857600080fd5b50356001600160a01b031661154b565b3480156104e457600080fd5b50610151600480360360408110156104fb57600080fd5b6001600160a01b03823516919081019060408101602082013564010000000081111561052657600080fd5b82018360208201111561053857600080fd5b8035906020019184602083028401116401000000008311171561055a57600080fd5b91908080602002602001604051908101604052809392919081815260200183836020028082843760009201919091525092955061166c945050505050565b3480156105a457600080fd5b50610151600480360360408110156105bb57600080fd5b506001600160a01b0381351690602001351515611f25565b3480156105df57600080fd5b50610606600480360360208110156105f657600080fd5b50356001600160a01b0316611fc4565b6040805192835260208301919091528051918290030190f35b60005b838110156106695761066185858381811061063957fe5b905060200201356001600160a01b031684848481811061065557fe5b90506020020135610682565b600101610622565b5050505050565b60036020526000908152604090205481565b3360008181526004602090815260408083206001600160a01b038716845260038352818420600282015486865260018201855283862081875290945291909320549091906106d09086611fe0565b6001600160a01b0385166000908152600184016020908152604080832085845282528083209390935585905220546107089086611fe0565b60008281526020859052604090205561072382848684612043565b505050505050565b336000908152600360205260408120905b82518110156107a057600083828151811061075357fe5b60200260200101519050600060046000836001600160a01b03166001600160a01b0316815260200190815260200160002090506107968482848460020154612043565b505060010161073c565b508054600181111561084c57600182556040805163a9059cbb60e01b81523360048201526000198301602482015290516001600160a01b037f0000000000000000000000000000000000000000000000000000000000000000169163a9059cbb9160448083019260209291908290030181600087803b15801561082257600080fd5b505af1158015610836573d6000803e3d6000fd5b505050506040513d602081101561066957600080fd5b505050565b60016020526000908152604090205460ff1681565b61086e61218e565b6001600160a01b031661087f610daf565b6001600160a01b0316146108da576040805162461bcd60e51b815260206004820181905260248201527f4f776e61626c653a2063616c6c6572206973206e6f7420746865206f776e6572604482015290519081900360640190fd5b600080546040516001600160a01b03909116907f8be0079c531659141344cd1fd0a4f28419497f9722a3daafe3b4186f6b6457e0908390a36000805473ffffffffffffffffffffffffffffffffffffffff19169055565b600280541415610988576040805162461bcd60e51b815260206004820152601f60248201527f5265656e7472616e637947756172643a207265656e7472616e742063616c6c00604482015290519081900360640190fd5b6002805560408051635b16ebb760e01b81526001600160a01b038084166004830152915183927f00000000000000000000000000000000000000000000000000000000000000001691635b16ebb7916024808301926020929190829003018186803b1580156109f657600080fd5b505afa158015610a0a573d6000803e3d6000fd5b505050506040513d6020811015610a2057600080fd5b5051610a67576040805162461bcd60e51b81526020600482015260116024820152700496e76616c6964206d6f6f6e697377617607c1b604482015290519081900360640190fd5b6001600160a01b03821660009081526004602090815260408083203384526003909252909120600180830154600284015490918190610aa7908490611fe0565b14610af9576040805162461bcd60e51b815260206004820152601760248201527f45706f636820616c72656164792066696e616c697a6564000000000000000000604482015290519081900360640190fd5b6001600160a01b03861660009081526002840160205260409020548214610b67576040805162461bcd60e51b815260206004820152601b60248201527f45706f63682066756e647320616c726561647920636c61696d65640000000000604482015290519081900360640190fd5b6001600160a01b038616600090815260028401602090815260408083208490556001860182528083208584529091529020548015610d7d5760008381526020868152604080832080546001600160a01b038c16855260018901845282852088865290935290832092909255610bdc8184612192565b82600001819055506060896001600160a01b031663aa6ca8086040518163ffffffff1660e01b815260040160006040518083038186803b158015610c1f57600080fd5b505afa158015610c33573d6000803e3d6000fd5b505050506040513d6000823e601f3d908101601f191682016040526020811015610c5c57600080fd5b8101908080516040519392919084640100000000821115610c7c57600080fd5b908301906020820185811115610c9157600080fd5b8251866020820283011164010000000082111715610cae57600080fd5b82525081516020918201928201910280838360005b83811015610cdb578181015183820152602001610cc3565b505050509050016040525050509050610d0e81600081518110610cfa57fe5b6020026020010151846001015486856121ef565b8360010181905550610d3a81600181518110610d2657fe5b6020026020010151846002015486856121ef565b60028401556003830154610d71907f00000000000000000000000000000000000000000000000000000000000000009086856121ef565b83600301819055505050505b505060016002555050505050565b7f000000000000000000000000000000000000000000000000000000000000000081565b6000546001600160a01b031690565b600280541415610e15576040805162461bcd60e51b815260206004820152601f60248201527f5265656e7472616e637947756172643a207265656e7472616e742063616c6c00604482015290519081900360640190fd5b6002805560408051635b16ebb760e01b81526001600160a01b038084166004830152915183927f00000000000000000000000000000000000000000000000000000000000000001691635b16ebb7916024808301926020929190829003018186803b158015610e8357600080fd5b505afa158015610e97573d6000803e3d6000fd5b505050506040513d6020811015610ead57600080fd5b5051610ef4576040805162461bcd60e51b81526020600482015260116024820152700496e76616c6964206d6f6f6e697377617607c1b604482015290519081900360640190fd5b81610efe81612236565b610f44576040805162461bcd60e51b81526020600482015260126024820152710a6e0e4cac2c840d2e640e8dede40d0d2ced60731b604482015290519081900360640190fd5b6001600160a01b0383166000908152600460205260409020600281015460018201548114610fb9576040805162461bcd60e51b815260206004820152601f60248201527f50726576696f75732065706f6368206973206e6f742066696e616c697a656400604482015290519081900360640190fd5b6060856001600160a01b031663aa6ca8086040518163ffffffff1660e01b815260040160006040518083038186803b158015610ff457600080fd5b505afa158015611008573d6000803e3d6000fd5b505050506040513d6000823e601f3d908101601f19168201604052602081101561103157600080fd5b810190808051604051939291908464010000000082111561105157600080fd5b90830190602082018581111561106657600080fd5b825186602082028301116401000000008211171561108357600080fd5b82525081516020918201928201910280838360005b838110156110b0578181015183820152602001611098565b50505050905001604052505050905060006110f130836000815181106110d257fe5b60200260200101516001600160a01b031661277290919063ffffffff16565b9050600061110630846001815181106110d257fe5b9050876001600160a01b0316635915d806896001600160a01b03166370a08231306040518263ffffffff1660e01b815260040180826001600160a01b0316815260200191505060206040518083038186803b15801561116457600080fd5b505afa158015611178573d6000803e3d6000fd5b505050506040513d602081101561118e57600080fd5b50516040805160008082526020820190925290506040518363ffffffff1660e01b81526004018083815260200180602001828103825283818151815260200191508051906020019060200280838360005b838110156111f75781810151838201526020016111df565b5050505090500193505050506040805180830381600087803b15801561121c57600080fd5b505af1158015611230573d6000803e3d6000fd5b505050506040513d601f19601f82011682018060405250604081101561125557600080fd5b5050825161127690839061127090309087906000906110d257fe5b90612192565b856000016000868152602001908152602001600020600101819055506112a78161127030866001815181106110d257fe5b6000858152602087905260409020600201556112c4846001611fe0565b600295860155505060019092555050505050565b60028054141561132f576040805162461bcd60e51b815260206004820152601f60248201527f5265656e7472616e637947756172643a207265656e7472616e742063616c6c00604482015290519081900360640190fd5b6002805560408051635b16ebb760e01b81526001600160a01b038084166004830152915183927f00000000000000000000000000000000000000000000000000000000000000001691635b16ebb7916024808301926020929190829003018186803b15801561139d57600080fd5b505afa1580156113b1573d6000803e3d6000fd5b505050506040513d60208110156113c757600080fd5b505161140e576040805162461bcd60e51b81526020600482015260116024820152700496e76616c6964206d6f6f6e697377617607c1b604482015290519081900360640190fd5b6001600160a01b038216600081815260046020908152604080832033845260038352818420600282015495855260018101845282852086865290935292205491929091801561151a576001600160a01b038616600090815260018401602090815260408083208584528252808320839055908690529020546114909082612192565b60008381526020868152604080832093909355825163a9059cbb60e01b81523360048201526024810185905292516001600160a01b038a169363a9059cbb9360448083019493928390030190829087803b1580156114ed57600080fd5b505af1158015611501573d6000803e3d6000fd5b505050506040513d602081101561151757600080fd5b50505b5050600160025550505050565b7f000000000000000000000000000000000000000000000000000000000000000081565b61155361218e565b6001600160a01b0316611564610daf565b6001600160a01b0316146115bf576040805162461bcd60e51b815260206004820181905260248201527f4f776e61626c653a2063616c6c6572206973206e6f7420746865206f776e6572604482015290519081900360640190fd5b6001600160a01b0381166116045760405162461bcd60e51b81526004018080602001828103825260268152602001806135326026913960400191505060405180910390fd5b600080546040516001600160a01b03808516939216917f8be0079c531659141344cd1fd0a4f28419497f9722a3daafe3b4186f6b6457e091a36000805473ffffffffffffffffffffffffffffffffffffffff19166001600160a01b0392909216919091179055565b6002805414156116c3576040805162461bcd60e51b815260206004820152601f60248201527f5265656e7472616e637947756172643a207265656e7472616e742063616c6c00604482015290519081900360640190fd5b6002805560408051635b16ebb760e01b81526001600160a01b038085166004830152915184927f00000000000000000000000000000000000000000000000000000000000000001691635b16ebb7916024808301926020929190829003018186803b15801561173157600080fd5b505afa158015611745573d6000803e3d6000fd5b505050506040513d602081101561175b57600080fd5b50516117a2576040805162461bcd60e51b81526020600482015260116024820152700496e76616c6964206d6f6f6e697377617607c1b604482015290519081900360640190fd5b8160008151116117f9576040805162461bcd60e51b815260206004820152601460248201527f4d696e2070617468206c656e6774682069732031000000000000000000000000604482015290519081900360640190fd5b600581511061184f576040805162461bcd60e51b815260206004820152601460248201527f4d61782070617468206c656e6774682069732034000000000000000000000000604482015290519081900360640190fd5b7f00000000000000000000000000000000000000000000000000000000000000006001600160a01b03168160018351038151811061188957fe5b60200260200101516001600160a01b0316146118ec576040805162461bcd60e51b815260206004820152601b60248201527f53686f756c64207377617020746f2074617267657420746f6b656e0000000000604482015290519081900360640190fd5b60015b815181600101101561198b576001600083838151811061190b57fe5b6020908102919091018101516001600160a01b031682528101919091526040016000205460ff16611983576040805162461bcd60e51b815260206004820152601860248201527f546f6b656e206973206e6f742077686974656c69737465640000000000000000604482015290519081900360640190fd5b6001016118ef565b506001600160a01b03841660009081526004602090815260408083206001808201548086529382905291909320600284015490916119ca908490611fe0565b14611a1c576040805162461bcd60e51b815260206004820152601c60248201527f507265762065706f636820616c72656164792066696e616c697a656400000000604482015290519081900360640190fd5b6060876001600160a01b031663aa6ca8086040518163ffffffff1660e01b815260040160006040518083038186803b158015611a5757600080fd5b505afa158015611a6b573d6000803e3d6000fd5b505050506040513d6000823e601f3d908101601f191682016040526020811015611a9457600080fd5b8101908080516040519392919084640100000000821115611ab457600080fd5b908301906020820185811115611ac957600080fd5b8251866020820283011164010000000082111715611ae657600080fd5b82525081516020918201928201910280838360005b83811015611b13578181015183820152602001611afb565b505050509050016040525050509050600081600081518110611b3157fe5b60200260200101516001600160a01b031688600081518110611b4f57fe5b60200260200101516001600160a01b03161415611b7157506001820154611c0b565b81600181518110611b7e57fe5b60200260200101516001600160a01b031688600081518110611b9c57fe5b60200260200101516001600160a01b03161415611bbe57506002820154611c0b565b6040805162461bcd60e51b815260206004820152601360248201527f496e76616c696420666972737420746f6b656e00000000000000000000000000604482015290519081900360640190fd5b600080611c188a84612813565b915091508060001415611e53578215611e4e57818314611c7f576040805162461bcd60e51b815260206004820152601c60248201527f617661696c61626c6542616c616e6365206973206e6f74206475737400000000604482015290519081900360640190fd5b60005b8a51816001011015611dbd5760007f00000000000000000000000000000000000000000000000000000000000000006001600160a01b031663901754d78d8481518110611ccb57fe5b60200260200101518e8560010181518110611ce257fe5b60200260200101516040518363ffffffff1660e01b815260040180836001600160a01b03168152602001826001600160a01b031681526020019250505060206040518083038186803b158015611d3757600080fd5b505afa158015611d4b573d6000803e3d6000fd5b505050506040513d6020811015611d6157600080fd5b50519050611d6e81612236565b611db4576040805162461bcd60e51b81526020600482015260126024820152710a6e0e4cac2c840d2e640e8dede40d0d2ced60731b604482015290519081900360640190fd5b50600101611c82565b50611de48a600081518110611dce57fe5b60200260200101516001600160a01b0316612a0b565b15611e1c57604051329084156108fc029085906000818181858888f19350505050158015611e16573d6000803e3d6000fd5b50611e4e565b611e4e8b848c600081518110611e2e57fe5b60200260200101516001600160a01b0316612a189092919063ffffffff16565b611e79565b6000611e608b8430612a7f565b6003870154909150611e729082611fe0565b6003870155505b83600081518110611e8657fe5b60200260200101516001600160a01b03168a600081518110611ea457fe5b60200260200101516001600160a01b03161415611ed4576001850154611eca9083612192565b6001860155611ee9565b6002850154611ee39083612192565b60028601555b6001850154158015611efd57506002850154155b15611f1357611f0d866001611fe0565b60018801555b50506001600255505050505050505050565b611f2d61218e565b6001600160a01b0316611f3e610daf565b6001600160a01b031614611f99576040805162461bcd60e51b815260206004820181905260248201527f4f776e61626c653a2063616c6c6572206973206e6f7420746865206f776e6572604482015290519081900360640190fd5b6001600160a01b03919091166000908152600160205260409020805460ff1916911515919091179055565b6004602052600090815260409020600181015460029091015482565b60008282018381101561203a576040805162461bcd60e51b815260206004820152601b60248201527f536166654d6174683a206164646974696f6e206f766572666c6f770000000000604482015290519081900360640190fd5b90505b92915050565b6001600160a01b03821660009081526001850160209081526040808320600288018352818420548452909152902054612098576001600160a01b03821660009081526002850160205260409020819055612188565b6001600160a01b0382166000908152600280860160205260408220546001860154909290916120d0906120cb8486612192565b612e8f565b9050806120df57505050612188565b60006120ed88888887612ea5565b905060018211156121145761211161210a89898988600101612ea5565b8290611fe0565b90505b87546121209082611fe0565b88556001600160a01b03861660009081526001808a016020908152604080842092880184529190529020541560028314806121585750805b6121655784600101612167565b855b6001600160a01b038816600090815260028b01602052604090205550505050505b50505050565b3390565b6000828211156121e9576040805162461bcd60e51b815260206004820152601e60248201527f536166654d6174683a207375627472616374696f6e206f766572666c6f770000604482015290519081900360640190fd5b50900390565b600080612206836122008787612f5d565b90612fb6565b90508015612222576122226001600160a01b038716338361301d565b61222c8582612192565b9695505050505050565b60006060826001600160a01b031663aa6ca8086040518163ffffffff1660e01b815260040160006040518083038186803b15801561227357600080fd5b505afa158015612287573d6000803e3d6000fd5b505050506040513d6000823e601f3d908101601f1916820160405260208110156122b057600080fd5b81019080805160405193929190846401000000008211156122d057600080fd5b9083019060208201858111156122e557600080fd5b825186602082028301116401000000008211171561230257600080fd5b82525081516020918201928201910280838360005b8381101561232f578181015183820152602001612317565b50505050905001604052505050905060008060008061235587866000815181106110d257fe5b9050600061236a88876001815181106110d257fe5b90506000886001600160a01b03166348d67e1b6040518163ffffffff1660e01b815260040160206040518083038186803b1580156123a757600080fd5b505afa1580156123bb573d6000803e3d6000fd5b505050506040513d60208110156123d157600080fd5b505190506123dd61351a565b896001600160a01b0316636edc2c09896000815181106123f957fe5b60200260200101516040518263ffffffff1660e01b815260040180826001600160a01b03168152602001915050604080518083038186803b15801561243d57600080fd5b505afa158015612451573d6000803e3d6000fd5b505050506040513d604081101561246757600080fd5b50805160209182015164ffffffffff16918301919091526001600160d81b03168152600061249f612499838588613081565b866130e2565b90508a6001600160a01b0316636edc2c098a6001815181106124bd57fe5b60200260200101516040518263ffffffff1660e01b815260040180826001600160a01b03168152602001915050604080518083038186803b15801561250157600080fd5b505afa158015612515573d6000803e3d6000fd5b505050506040513d604081101561252b57600080fd5b50805160209182015164ffffffffff16918401919091526001600160d81b03168252600061255d612499848688613081565b90508b6001600160a01b0316635ed9156d8b60008151811061257b57fe5b60200260200101516040518263ffffffff1660e01b815260040180826001600160a01b03168152602001915050604080518083038186803b1580156125bf57600080fd5b505afa1580156125d3573d6000803e3d6000fd5b505050506040513d60408110156125e957600080fd5b50805160209182015164ffffffffff16918501919091526001600160d81b03168352600061262161261b85878a613081565b88612e8f565b90508c6001600160a01b0316635ed9156d8c60018151811061263f57fe5b60200260200101516040518263ffffffff1660e01b815260040180826001600160a01b03168152602001915050604080518083038186803b15801561268357600080fd5b505afa158015612697573d6000803e3d6000fd5b505050506040513d60408110156126ad57600080fd5b50805160209182015164ffffffffff16918601919091526001600160d81b0316845260006126df61261b86888a613081565b90506126f782612200670de0b6b3a764000086612f5d565b9a5061270f84612200670de0b6b3a764000084612f5d565b995061272788612200670de0b6b3a76400008a612f5d565b9850505050505050505061274b81662386f26fc10000612f5d90919063ffffffff16565b612767670de0b6b3a76400006127618686612192565b90612f5d565b109695505050505050565b600061277d83612a0b565b1561279357506001600160a01b0381163161203d565b826001600160a01b03166370a08231836040518263ffffffff1660e01b815260040180826001600160a01b0316815260200191505060206040518083038186803b1580156127e057600080fd5b505afa1580156127f4573d6000803e3d6000fd5b505050506040513d602081101561280a57600080fd5b5051905061203d565b81518190819060005b81816001011015612a025760007f00000000000000000000000000000000000000000000000000000000000000006001600160a01b031663901754d788848151811061286457fe5b602002602001015189856001018151811061287b57fe5b60200260200101516040518363ffffffff1660e01b815260040180836001600160a01b03168152602001826001600160a01b031681526020019250505060206040518083038186803b1580156128d057600080fd5b505afa1580156128e4573d6000803e3d6000fd5b505050506040513d60208110156128fa57600080fd5b5051875190915060009061291d906064906122009085908c90889081106110d257fe5b90508481101561293b57612935856122008884612f5d565b95508094505b816001600160a01b0316631e1401f889858151811061295657fe5b60200260200101518a866001018151811061296d57fe5b6020026020010151886040518463ffffffff1660e01b815260040180846001600160a01b03168152602001836001600160a01b03168152602001828152602001935050505060206040518083038186803b1580156129ca57600080fd5b505afa1580156129de573d6000803e3d6000fd5b505050506040513d60208110156129f457600080fd5b50519450505060010161281c565b50509250929050565b6001600160a01b03161590565b604080516001600160a01b038416602482015260448082018490528251808303909101815260649091019091526020810180517bffffffffffffffffffffffffffffffffffffffffffffffffffffffff1663a9059cbb60e01b17905261084c9084906130f2565b8160005b8451816001011015612de55760007f00000000000000000000000000000000000000000000000000000000000000006001600160a01b031663901754d7878481518110612acc57fe5b6020026020010151888560010181518110612ae357fe5b60200260200101516040518363ffffffff1660e01b815260040180836001600160a01b03168152602001826001600160a01b031681526020019250505060206040518083038186803b158015612b3857600080fd5b505afa158015612b4c573d6000803e3d6000fd5b505050506040513d6020811015612b6257600080fd5b50519050612b6f81612236565b612bb5576040805162461bcd60e51b81526020600482015260126024820152710a6e0e4cac2c840d2e640e8dede40d0d2ced60731b604482015290519081900360640190fd5b6000839050612bc9878481518110611dce57fe5b612c0257612bfe8285898681518110612bde57fe5b60200260200101516001600160a01b03166131a39092919063ffffffff16565b5060005b8651836002011015612ced57816001600160a01b031663d5bcb9b582898681518110612c2a57fe5b60200260200101518a8760010181518110612c4157fe5b6020026020010151886000806040518763ffffffff1660e01b815260040180866001600160a01b03168152602001856001600160a01b03168152602001848152602001838152602001826001600160a01b03168152602001955050505050506020604051808303818588803b158015612cb957600080fd5b505af1158015612ccd573d6000803e3d6000fd5b50505050506040513d6020811015612ce457600080fd5b50519350612ddb565b816001600160a01b031663e331d03982898681518110612d0957fe5b60200260200101518a8760010181518110612d2057fe5b602090810291909101810151604080517fffffffff0000000000000000000000000000000000000000000000000000000060e088901b1681526001600160a01b0394851660048201529184166024830152604482018b90526000606483018190526084830152928b1660a4820152915160c48084019382900301818588803b158015612dab57600080fd5b505af1158015612dbf573d6000803e3d6000fd5b50505050506040513d6020811015612dd657600080fd5b505193505b5050600101612a83565b50835160011415612e885783600081518110612dfd57fe5b60200260200101516001600160a01b031663a9059cbb83836040518363ffffffff1660e01b815260040180836001600160a01b0316815260200182815260200192505050602060405180830381600087803b158015612e5b57600080fd5b505af1158015612e6f573d6000803e3d6000fd5b505050506040513d6020811015612e8557600080fd5b50505b9392505050565b6000818310612e9e578161203a565b5090919050565b6001600160a01b038216600090815260018501602090815260408083208484529091528120548015612f5457600083815260208690526040902060038101549054612ef4816122008486612f5d565b6001600160a01b038716600090815260018a01602090815260408083208984529091528120559350612f268184612192565b600086815260208990526040902055612f3f8285612192565b60008681526020899052604090206003015550505b50949350505050565b600082612f6c5750600061203d565b82820282848281612f7957fe5b041461203a5760405162461bcd60e51b815260040180806020018281038252602181526020018061357e6021913960400191505060405180910390fd5b600080821161300c576040805162461bcd60e51b815260206004820152601a60248201527f536166654d6174683a206469766973696f6e206279207a65726f000000000000604482015290519081900360640190fd5b81838161301557fe5b049392505050565b801561084c5761302c83612a0b565b1561306d576040516001600160a01b0383169082156108fc029083906000818181858888f19350505050158015613067573d6000803e3d6000fd5b5061084c565b61084c6001600160a01b0384168383612a18565b6000806130a6846120cb876020015164ffffffffff164261219290919063ffffffff16565b905060006130b48583612192565b905061222c856122006130c78786612f5d565b89516130dc906001600160d81b031686612f5d565b90611fe0565b600081831015612e9e578161203a565b6060613147826040518060400160405280602081526020017f5361666545524332303a206c6f772d6c6576656c2063616c6c206661696c6564815250856001600160a01b03166132fd9092919063ffffffff16565b80519091501561084c5780806020019051602081101561316657600080fd5b505161084c5760405162461bcd60e51b815260040180806020018281038252602a81526020018061359f602a913960400191505060405180910390fd5b8015806132425750604080517fdd62ed3e0000000000000000000000000000000000000000000000000000000081523060048201526001600160a01b03848116602483015291519185169163dd62ed3e91604480820192602092909190829003018186803b15801561321457600080fd5b505afa158015613228573d6000803e3d6000fd5b505050506040513d602081101561323e57600080fd5b5051155b61327d5760405162461bcd60e51b81526004018080602001828103825260368152602001806135c96036913960400191505060405180910390fd5b604080516001600160a01b038416602482015260448082018490528251808303909101815260649091019091526020810180517bffffffffffffffffffffffffffffffffffffffffffffffffffffffff167f095ea7b30000000000000000000000000000000000000000000000000000000017905261084c9084906130f2565b606061330c8484600085613314565b949350505050565b6060824710156133555760405162461bcd60e51b81526004018080602001828103825260268152602001806135586026913960400191505060405180910390fd5b61335e85613470565b6133af576040805162461bcd60e51b815260206004820152601d60248201527f416464726573733a2063616c6c20746f206e6f6e2d636f6e7472616374000000604482015290519081900360640190fd5b60006060866001600160a01b031685876040518082805190602001908083835b602083106133ee5780518252601f1990920191602091820191016133cf565b6001836020036101000a03801982511681845116808217855250505050505090500191505060006040518083038185875af1925050503d8060008114613450576040519150601f19603f3d011682016040523d82523d6000602084013e613455565b606091505b5091509150613465828286613476565b979650505050505050565b3b151590565b60608315613485575081612e88565b8251156134955782518084602001fd5b8160405162461bcd60e51b81526004018080602001828103825283818151815260200191508051906020019080838360005b838110156134df5781810151838201526020016134c7565b50505050905090810190601f16801561350c5780820380516001836020036101000a031916815260200191505b509250505060405180910390fd5b60408051808201909152600080825260208201529056fe4f776e61626c653a206e6577206f776e657220697320746865207a65726f2061646472657373416464726573733a20696e73756666696369656e742062616c616e636520666f722063616c6c536166654d6174683a206d756c7469706c69636174696f6e206f766572666c6f775361666545524332303a204552433230206f7065726174696f6e20646964206e6f7420737563636565645361666545524332303a20617070726f76652066726f6d206e6f6e2d7a65726f20746f206e6f6e2d7a65726f20616c6c6f77616e6365a264697066735822122090b9024338a9e32671bf63cfe0a575fd64447d89a71b58282302ac6b7657016564736f6c634300060c0033",
  "devdoc": {
    "kind": "dev",
    "methods": {
      "owner()": {
        "details": "Returns the address of the current owner."
      },
      "renounceOwnership()": {
        "details": "Leaves the contract without owner. It will not be possible to call `onlyOwner` functions anymore. Can only be called by the current owner. NOTE: Renouncing ownership will leave the contract without an owner, thereby removing any functionality that is only available to the owner."
      },
      "transferOwnership(address)": {
        "details": "Transfers ownership of the contract to a new account (`newOwner`). Can only be called by the current owner."
      }
    },
    "version": 1
  },
  "userdoc": {
    "kind": "user",
    "methods": {},
    "version": 1
  },
  "storageLayout": {
    "storage": [
      {
        "astId": 7,
        "contract": "contracts/ReferralFeeReceiver.sol:ReferralFeeReceiver",
        "label": "_owner",
        "offset": 0,
        "slot": "0",
        "type": "t_address"
      },
      {
        "astId": 11019,
        "contract": "contracts/ReferralFeeReceiver.sol:ReferralFeeReceiver",
        "label": "pathWhitelist",
        "offset": 0,
        "slot": "1",
        "type": "t_mapping(t_contract(IERC20)1118,t_bool)"
      },
      {
        "astId": 1753,
        "contract": "contracts/ReferralFeeReceiver.sol:ReferralFeeReceiver",
        "label": "_status",
        "offset": 0,
        "slot": "2",
        "type": "t_uint256"
      },
      {
        "astId": 3869,
        "contract": "contracts/ReferralFeeReceiver.sol:ReferralFeeReceiver",
        "label": "userInfo",
        "offset": 0,
        "slot": "3",
        "type": "t_mapping(t_address,t_struct(UserInfo)3847_storage)"
      },
      {
        "astId": 3873,
        "contract": "contracts/ReferralFeeReceiver.sol:ReferralFeeReceiver",
        "label": "tokenInfo",
        "offset": 0,
        "slot": "4",
        "type": "t_mapping(t_contract(IERC20)1118,t_struct(TokenInfo)3865_storage)"
      }
    ],
    "types": {
      "t_address": {
        "encoding": "inplace",
        "label": "address",
        "numberOfBytes": "20"
      },
      "t_bool": {
        "encoding": "inplace",
        "label": "bool",
        "numberOfBytes": "1"
      },
      "t_contract(IERC20)1118": {
        "encoding": "inplace",
        "label": "contract IERC20",
        "numberOfBytes": "20"
      },
      "t_mapping(t_address,t_struct(UserInfo)3847_storage)": {
        "encoding": "mapping",
        "key": "t_address",
        "label": "mapping(address => struct ReferralFeeReceiver.UserInfo)",
        "numberOfBytes": "32",
        "value": "t_struct(UserInfo)3847_storage"
      },
      "t_mapping(t_contract(IERC20)1118,t_bool)": {
        "encoding": "mapping",
        "key": "t_contract(IERC20)1118",
        "label": "mapping(contract IERC20 => bool)",
        "numberOfBytes": "32",
        "value": "t_bool"
      },
      "t_mapping(t_contract(IERC20)1118,t_mapping(t_uint256,t_uint256))": {
        "encoding": "mapping",
        "key": "t_contract(IERC20)1118",
        "label": "mapping(contract IERC20 => mapping(uint256 => uint256))",
        "numberOfBytes": "32",
        "value": "t_mapping(t_uint256,t_uint256)"
      },
      "t_mapping(t_contract(IERC20)1118,t_struct(TokenInfo)3865_storage)": {
        "encoding": "mapping",
        "key": "t_contract(IERC20)1118",
        "label": "mapping(contract IERC20 => struct ReferralFeeReceiver.TokenInfo)",
        "numberOfBytes": "32",
        "value": "t_struct(TokenInfo)3865_storage"
      },
      "t_mapping(t_contract(IERC20)1118,t_uint256)": {
        "encoding": "mapping",
        "key": "t_contract(IERC20)1118",
        "label": "mapping(contract IERC20 => uint256)",
        "numberOfBytes": "32",
        "value": "t_uint256"
      },
      "t_mapping(t_uint256,t_struct(EpochBalance)3856_storage)": {
        "encoding": "mapping",
        "key": "t_uint256",
        "label": "mapping(uint256 => struct ReferralFeeReceiver.EpochBalance)",
        "numberOfBytes": "32",
        "value": "t_struct(EpochBalance)3856_storage"
      },
      "t_mapping(t_uint256,t_uint256)": {
        "encoding": "mapping",
        "key": "t_uint256",
        "label": "mapping(uint256 => uint256)",
        "numberOfBytes": "32",
        "value": "t_uint256"
      },
      "t_struct(EpochBalance)3856_storage": {
        "encoding": "inplace",
        "label": "struct ReferralFeeReceiver.EpochBalance",
        "members": [
          {
            "astId": 3849,
            "contract": "contracts/ReferralFeeReceiver.sol:ReferralFeeReceiver",
            "label": "totalSupply",
            "offset": 0,
            "slot": "0",
            "type": "t_uint256"
          },
          {
            "astId": 3851,
            "contract": "contracts/ReferralFeeReceiver.sol:ReferralFeeReceiver",
            "label": "token0Balance",
            "offset": 0,
            "slot": "1",
            "type": "t_uint256"
          },
          {
            "astId": 3853,
            "contract": "contracts/ReferralFeeReceiver.sol:ReferralFeeReceiver",
            "label": "token1Balance",
            "offset": 0,
            "slot": "2",
            "type": "t_uint256"
          },
          {
            "astId": 3855,
            "contract": "contracts/ReferralFeeReceiver.sol:ReferralFeeReceiver",
            "label": "inchBalance",
            "offset": 0,
            "slot": "3",
            "type": "t_uint256"
          }
        ],
        "numberOfBytes": "128"
      },
      "t_struct(TokenInfo)3865_storage": {
        "encoding": "inplace",
        "label": "struct ReferralFeeReceiver.TokenInfo",
        "members": [
          {
            "astId": 3860,
            "contract": "contracts/ReferralFeeReceiver.sol:ReferralFeeReceiver",
            "label": "epochBalance",
            "offset": 0,
            "slot": "0",
            "type": "t_mapping(t_uint256,t_struct(EpochBalance)3856_storage)"
          },
          {
            "astId": 3862,
            "contract": "contracts/ReferralFeeReceiver.sol:ReferralFeeReceiver",
            "label": "firstUnprocessedEpoch",
            "offset": 0,
            "slot": "1",
            "type": "t_uint256"
          },
          {
            "astId": 3864,
            "contract": "contracts/ReferralFeeReceiver.sol:ReferralFeeReceiver",
            "label": "currentEpoch",
            "offset": 0,
            "slot": "2",
            "type": "t_uint256"
          }
        ],
        "numberOfBytes": "96"
      },
      "t_struct(UserInfo)3847_storage": {
        "encoding": "inplace",
        "label": "struct ReferralFeeReceiver.UserInfo",
        "members": [
          {
            "astId": 3836,
            "contract": "contracts/ReferralFeeReceiver.sol:ReferralFeeReceiver",
            "label": "balance",
            "offset": 0,
            "slot": "0",
            "type": "t_uint256"
          },
          {
            "astId": 3842,
            "contract": "contracts/ReferralFeeReceiver.sol:ReferralFeeReceiver",
            "label": "share",
            "offset": 0,
            "slot": "1",
            "type": "t_mapping(t_contract(IERC20)1118,t_mapping(t_uint256,t_uint256))"
          },
          {
            "astId": 3846,
            "contract": "contracts/ReferralFeeReceiver.sol:ReferralFeeReceiver",
            "label": "firstUnprocessedEpoch",
            "offset": 0,
            "slot": "2",
            "type": "t_mapping(t_contract(IERC20)1118,t_uint256)"
          }
        ],
        "numberOfBytes": "96"
      },
      "t_uint256": {
        "encoding": "inplace",
        "label": "uint256",
        "numberOfBytes": "32"
      }
    }
  }
}